:020000021000EC
:10000000004008207F0101004D010100E1000100D6
:100010003D0101002D0101001D0101000000000053
:10002000000000000000000000000000C5B3010057
:100030000D0101000000000049B4010085B4010079
:10004000FD000100FD000100694F0100FD000100FD
:10005000FD000100659A0100FD000100CD9A01003C
:10006000359B0100FD000100FD000100FD000100C5
:10007000F1950100FD000100FD000100FD000100FF
:10008000FD000100AD880100FD000100FD00010040
:10009000FD000100F5940100FD000100FD000100DC
:1000A000FD00010049940100FD000100FD00010078
:1000B000FD00010079B80100FD000100FD00010014
:1000C000FD000100FD000100FD000100D06F0200F5
:1000D00000C007202001000020C107207C0500008F
:1000E00004207146084200F00480EFF309800BF011
:1000F0002FBCEFF308800BF02BBC704708B502480B
:1001000000F0CCF9FEE700BF6268020008B50248C3
:1001100000F0C4F9FEE700BF7868020008B50248A5
:1001200000F0BCF9FEE700BF8868020008B502488D
:1001300000F0B4F9FEE700BF9568020008B5024878
:1001400000F0ACF9FEE700BFA068020008B5024865
:1001500000F0A4F9FEE700BFAB68020010B5002371
:10016000934203D21C585C500433F9E710BD0023BE
:100170008B4203D200221A500433F9E7704710B5BE
:1001800014480BF01FFA13480BF01FFA124C134BD4
:100190009C4205D294E807000C34FFF7DFFFF6E736
:1001A0000F48844205D294E803000834FFF7DFFFCC
:1001B000F6E70DF075FF0BF01FFA02F0F3FD03F008
:1001C00035FD4FF416400BF0F7FC064800F066F9D9
:1001D000FEE700BF00400820CC000100D80001006D
:1001E000E00001001D69020008B5024800F056F960
:1001F000FEE700BF4669020008B5024800F04EF96C
:10020000FEE700BF5169020008B5024800F046F958
:10021000FEE700BF60690200124A30B5116803466C
:1002200011B94FF08050106010680F4DC41862195A
:100230000E4D0C49AA4297BF0D480C601A180A606F
:10024000084A0C4C1168A14202D90B4810600020EA
:100250003BB10A4A116801311160094A094910602D
:100260000B6030BD24C10720FF7FFFEFFE3F07106A
:100270009CC60720FF3F0820004008202CC1072013
:1002800028C1072020C107200DF048BF0DF046BF50
:100290000DF04CBF0DF04ABF30B58BB00446684638
:1002A0000EF088FB214D089B07982560A3606060D5
:1002B00058B91F491F4A0B6893428ABF03F1604334
:1002C00003F17043A3F5E82363606068B0F5803FF5
:1002D00004D900F17041A1F5E82363601448154B7F
:1002E000016800229942E26006D86D18C5F180537A
:1002F00003F58035E5600BE00F4A914208D80F48BE
:10030000C0F1804303F58012501A0028C8BFE06096
:10031000E1610B490B480A680B490368A2610A684E
:100320006361226120460BB030BD00BF9C06000017
:1003300024C1072000800010FF3F08209CC6072032
:1003400028C1072020C107202CC1072000207047AA
:10035000FEE70000014B1860704700BF38C107205E
:10036000014B1860704700BF30C1072008B5024834
:100370000EF042FBFEE700BFE43E020008B5024873
:100380000EF03AFBFEE700BFFE3E02000020704781
:1003900001207047084B70B518680E46154640B1ED
:1003A0000024AC4205DA044930570A68904701340A
:1003B000F7E7284670BD00BF38C10720094B70B56C
:1003C00018680E46154600B970BD0024AC4206DA26
:1003D000044801680020884730550134F6E725EAD3
:1003E000E57070BD30C107207047002070470000E5
:1003F000074B19688A68824207D04B68834204D051
:10040000C9680A1A5042504170470120704700BF26
:100410007CC00720002070470020704730B504469C
:100420008DB0002837D0684609F086F99DF8003075
:100430009DF8011003F03F0003909DF8040001F0C7
:100440003F029DF8025000F01F010492BDF8060023
:100450009DF8052005F01F03069102F00F05C0F37B
:100460000B018AB20593BDF808106B1E07939DF827
:100470000330A2F26C75C1F30B0203F0070008957C
:1004800095B26B1E0990002503A80A930B950DF0F9
:10049000AFFF84E8210000200DB030BD10B5044648
:1004A0000AF0B6FF013C14F8010F18B140B20BF08E
:1004B000BFFBF8E7BDE810400AF0BCBF38B50F4CF1
:1004C000256815F0010516D120460BF053FC90B1BC
:1004D0004FF40E70FFF7D8FE094B30223A2180F816
:1004E000345280F8352280F8361280F8375218607E
:1004F00020460BF04DFC0248006838BD44C107207F
:1005000048C1072038B5104C236813F0010517D1F6
:1005100020460BF02FFC98B14FF40E70FFF7B4FE9D
:10052000012280F83422094A31213A2380F8351219
:1005300080F8363280F83752106020460BF028FCE5
:100540000248006838BD00BF5CC1072060C10720B9
:100550002DE9F0430446A1B00F46002507AB58191A
:10056000143508F026FE642DF8D1002620464F49A8
:1005700008F0ABFC431C054603D1204608F00AFCFA
:10058000054607A84FF0140808FB06082A46002174
:10059000204608F01CFE0146404608F097FE404603
:1005A00008F0F8FB804630B938464149324609F038
:1005B0002FFB444666E0204608F0ECFB854203DB57
:1005C000204608F0E7FB451E691C2046013608F06E
:1005D000D4FC052ECAD107A8364908F075FDC0B96C
:1005E00007A8354908F070FDA8B907A8334908F0F5
:1005F0006BFD90B907A8324908F066FD044670B952
:1006000007A808F063FD2F490246384609F000FBB1
:1006100038E02D4C04E02D4C02E02D4C00E02D4C38
:100620000CA808F058FD054611A808F054FD8046B6
:1006300016A808F050FD06461BA808F04CFD4246DF
:100640003346294681460090204602F001FA2846AA
:100650000CF0AEFA044640460D460CF0A9FACDE97E
:10066000000130460CF0A4FACDE9020148460CF036
:100670009FFA2246CDE904012B463846164909F077
:10068000C7FA01241BA808F073FB16A808F070FB3A
:1006900011A808F06DFB0CA808F06AFB07A808F089
:1006A00067FB204621B0BDE8F08300BFE95102009E
:1006B000373F0200C34F020055530200A959020000
:1006C000E5430200533F020000C20720E8C10720B3
:1006D00018C20720D0C10720663F02002DE9F04371
:1006E000584C87B020460E4602F0AAF9054620462F
:1006F00002F0A8F98146204602F0A6F9804620467D
:1007000002F0A4F9074628460CF052FA044648467F
:100710000D460CF04DFACDE9000140460CF048FAC8
:10072000CDE9020138460CF043FA474F22462B46EA
:10073000CDE904014549304609F06AFA384602F02D
:100740007FF90446384602F07DF98146384602F0CA
:100750007BF98046384602F079F9074620460CF0CE
:1007600027FA044648460D460CF022FACDE900016E
:1007700040460CF01DFACDE9020138460CF018FA9B
:10078000334F22462B46CDE904013249304609F069
:100790003FFA384602F054F90446384602F052F95E
:1007A0008146384602F050F98046384602F04EF94C
:1007B000074620460CF0FCF9044648460D460CF06E
:1007C000F7F9CDE9000140460CF0F2F9CDE902015C
:1007D00038460CF0EDF9204F22462B46CDE90401B6
:1007E0001E49304609F014FA384602F029F9044649
:1007F000384602F027F98146384602F025F980464E
:10080000384602F023F9074620460CF0D1F9044699
:1008100048460D460CF0CCF9CDE9000140460CF0FD
:10082000C7F9CDE9020138460CF0C2F92246CDE9FC
:1008300004012B4630460A4909F0EAF9012007B0C5
:10084000BDE8F08300C20720E8C10720913F020005
:1008500018C20720AF3F0200D0C10720CE3F0200E0
:10086000EB3F02002DE9F041ADF50A7D0E4608F0A0
:100870002FFC041E04DD0AF059FD20460AF0F8FAA8
:10088000264D05AC0FCD0FC42B6810210DEB0102D6
:1008900000250AA8236004950AF0A6FA07460498E2
:1008A0006422B0FBF2F1049130461D491D4A0A232F
:1008B00009F0AEF9BD4222D00AAC049B04EB45140A
:1008C000A2690BB1B2FBF3F3606994F80C8000905D
:1008D000A18B029388000A230190A2FB03014FF42D
:1008E0007A7200230CF0DCFF05AB03900E49304612
:1008F000626853F8283009F08BF90135DAE70AF01D
:100900008BF9102804D930460849102209F080F9E3
:1009100001200DF50A7DBDE8F08100BF183F0200FF
:100920000B400200324002003740020054400200F7
:1009300010B5ADF5007D0C4668460AF0ABFF2046C9
:1009400069464FF0FF3209F02DF901200DF5007DC9
:1009500010BD000030B50C4691B02C49054608F09A
:10096000BFFA002847D008AB009309A80AA90BAA30
:100970000CAB01900291039204932846244906AAE5
:1009800007AB08F010FA072801D000203BE09DF8E3
:10099000390006999DF8383061F303008DF839006D
:1009A0000899BDF83A00079A61F30B0062F304035B
:1009B0000A99ADF83A009DF83500099A8DF838305B
:1009C0009DF8363061F3050062F304038DF83500BD
:1009D0000C999DF837008DF836300B9A9DF834301D
:1009E00061F3020062F305038DF837000DA88DF85E
:1009F000343008F0C3FE08F05BFF0649024620468B
:100A000009F006F9012011B030BD00BF1E560200EA
:100A10007E400200B160020030B589B004AB002412
:100A2000009302220D4603AB18490394049408F086
:100A3000C7F9022827D107A8009005AA03980499AE
:100A400006AB05940694079404F078FB024638B18F
:100A5000049928460091039B0D4909F0D9F810E04C
:100A6000059A069B079C002A08BF0122002B08BF9D
:100A7000012328460749B4FBF2F2B4FBF3F309F073
:100A8000C7F8012000E0204609B030BDE95102005E
:100A900097400200B64002002DE9F0410C46ADF54A
:100AA000866D3049054608F0A8FA2F4907462846C2
:100AB00008F0CCFA2C49284608F0E8FA284608F055
:100AC00005FB0122014601A806F0C6FB064640B11F
:100AD000284608F0FBFA25490246204609F098F816
:100AE0003AE00BAD314640F2014228460DF0B0FB32
:100AF000009602F02DF9804601A829464FF4806245
:100B00006B4606F075FC90B101A806F01BFE8FB194
:100B100002F01EF9B0EB080014BF0346012314498C
:100B200020463246B6FBF3F309F072F802E0009B70
:100B30003BB9E9E720460F494FF0FF3209F032F8A0
:100B40000AE0F618E854002FD6D1204629464FF087
:100B5000FF3209F013F8CFE701200DF5866DBDE8EF
:100B6000F08100BFE4400200E9510200ED400200C4
:100B7000014102006B590200F0B5C1B00DAB002578
:100B8000009302220C460CAB5C490B950C950D951D
:100B900008F016F9022803D10D980DF077F90546F3
:100BA0000C9808B956490C9116A80C9906F06DFEE0
:100BB000034678B1204653490C9A09F029F89AE087
:100BC00020AA802616A80EA91492159606F0AFFE4C
:100BD000013D08B9002DF3DC20464B490C9A09F081
:100BE00017F800252E46802020AB15900EA916A8D8
:100BF000149306F09CFE002865D19DF94110002950
:100C000061D09DF8407007F01002D3B213B10135E6
:100C1000442205E00B990E9801360A180B922D22FA
:100C200007F0020C17F0010F07F0040E5FFA8CF0CA
:100C300007F020070CBF2D2352235FFA8EF1002806
:100C40000CBF4FF02D0C4FF0480CF8B200290CBF30
:100C50004FF02D0E4FF0530E00280CBF2D214121D7
:100C6000BDF83C0002914112BDF83E7001F2BC712A
:100C70008DE800500391C0F34311049100F01F0070
:100C8000F912C7F3451706910590079740A951F847
:100C9000C80D09310890099120461C4908F0B8FF99
:100CA00020461B494FF0FF3208F068FF20A920467C
:100CB0004FF0FF3208F062FF204616494FF0FF3236
:100CC00008F070FF8FE7009540AD55F8D43D12490C
:100CD0003246204608F09CFF0C9829460AAA06F0E6
:100CE00055FE40B90A9B0B999A7820464A430B4916
:100CF000520808F08DFF012041B0F0BDE95102001B
:100D00001C4102001F410200434102005E410200FB
:100D10008B4102006B5902008F410200B941020071
:100D200070B50E46054608F0D1F90446284608F08D
:100D3000CDF906F0F8FE064A064B0749002818BF11
:100D400013463046224608F063FF012070BD00BF05
:100D5000794302006F430200CD41020070B50E4698
:100D6000054608F0B3F90446284608F0AFF906F046
:100D700071FE064A064B0749002818BF1346304645
:100D8000224608F045FF012070BD00BF79430200F4
:100D90006F430200E94102007FB503AB00240093DA
:100DA00002220E4602AB0F490294039408F008F8A1
:100DB000022814D1029D039C2846214606F05AFFC2
:100DC00009490A4A2346002814BF104608460090E5
:100DD000074930462A4608F01BFF012000E0204664
:100DE00004B070BDE95102006F4302007943020074
:100DF000FB41020030B58DB00C46054608F066F99F
:100E00000A22014602A806F027FA40B1284608F057
:100E10005DF91F490246204608F0FAFE35E08DF8DC
:100E2000030001901B4920467E2242F2107308F015
:100E3000EFFE1949204608F0EBFE236820461B68A8
:100E40000DF1030142F21072984718B19DF90300A9
:100E50007E2803D102A806F075FC16E002A80DF169
:100E60000301012201AB06F069FB28B101990129B8
:100E700002D020460949DEE72268204653689DF9E2
:100E800003104FF0FF329847D7E701200DB030BD77
:100E9000134202003A4202007242020092420200F1
:100EA0002DE9F043ADF5417D002303AD2B600293A6
:100EB00002220C460095404902AB07F081FF022850
:100EC00006D020463D494FF0FF3208F06BFE6EE041
:100ED00016A8296806F0D9FC18B1204638492A68B6
:100EE00007E016A8029906F0D0FC28B13549029A0D
:100EF000204608F08DFE5AE040A94FF4807204A805
:100F000007F022FF09A880A94FF4807207F01CFFA8
:100F100020A880211490159116A80EA906F007FDAF
:100F200000283ED19DF94120002A3AD09DF840503A
:100F300005F01003DDB2002DEAD10DF14106029A51
:100F4000334604A8204908F081F9039A33461E4924
:100F500009A808F07BF904A808F0B8F8804609A8A9
:100F600008F0B4F8074604A80E9E08F0AFF88146D2
:100F700009A808F0ABF82A4601462B4600954846DA
:100F800004F0DCF81149124A0096002814BF1046FC
:100F9000084601900F49204642463B4608F038FE7D
:100FA000B6E709A807F0E4FE04A807F0E1FE012077
:100FB0000DF5417DBDE8F083E9510200B942020020
:100FC000FE42020023430200434302006F4302003B
:100FD000794302004943020070B50C462149054699
:100FE00008F072F8064628B1FFF78CFA002100F2EB
:100FF000352009E028461C4908F066F850B1FFF793
:101000005DFA314600F235200A4606F0C5FE174B60
:1010100017491CE02846174908F056F848B1FFF771
:1010200071FA012200F2352106F0C6F8124B13497D
:101030000DE02846124908F047F888B1FFF73EFA5C
:10104000012200F2352106F0B7F80E4B0E490028B8
:1010500008BF19464FF0FF32204608F0A3FD0120DB
:1010600070BD00BFD0430200DA43020068430200B3
:1010700072430200E74302007F4302008F430200F5
:10108000F0430200A6430200B443020010B5012061
:101090000C4607F047FE38B100210A460B4609F01E
:1010A0006DFA2046044901E0044920464FF0FF3222
:1010B00008F078FD012010BDFC430200124402003C
:1010C00038B5064C236833B91C20FFF7DDF8054618
:1010D00008F084FA2560206838BD00BF50C10720A1
:1010E0002DE9F0430C4687B03C49064607F010FF57
:1010F0003B498046304607F00BFF3A49814630466F
:1011000007F006FF00270546039704970597B8F1F7
:10111000000F1DD03046344903AA04AB07F043FE4C
:10112000022807D0204631494FF0FF3208F03AFD3F
:101130003D464FE0FFF7C4FF9DF90C109DF91020CC
:1011400008F041FE0499C2B200912046284924E0EB
:10115000B9F1000F2BD005AB00933046254903AA07
:1011600004AB07F020FE032807D0204622494FF0A9
:10117000FF3208F017FD45462CE0FFF7A1FF9DF96F
:101180000C109DF910209DF9143008F00DFE40B1AF
:1011900004981A49059A00902046039B08F038FDF0
:1011A00017E020461649039A08F032FD11E088B195
:1011B0000226FFF785FF71B208F012FE20B120462B
:1011C0001049324608F024FD0236B6F5807FF0D192
:1011D00000E00125284607B0BDE8F0830C5302006B
:1011E0002C440200324402003B4402004744020007
:1011F000684402008944020099440200C04402008D
:10120000E0440200FD4402002DE9F04F5E4C93B033
:1012100023680E4633B92020FFF736F8054608F05C
:1012200013FC2560D4F80080FFF748F9002512A9C7
:1012300041F8105D00F235200DAA06F0A7FB48B971
:101240000D9A0E9997699078BC1E414344434D080E
:10125000670800E02F46DFF83491D9F8003063B911
:101260000C20FFF711F80446FFF72AFF90222060B8
:1012700000202271A060C9F800404449086803F0CA
:101280004BFF04460CF0C6FA83460CF0A9F8014661
:1012900020460BF0EFFF3E490CF0F6F80CF0BAFADE
:1012A0000B900FA80AF09EF904F05EFE38B308F028
:1012B00077FB04F041FE00240346A146A2469C426F
:1012C0000AD020460A9304F097FE504584BFA146F9
:1012D00082460A9B0134F2E708F076FB642303FBA5
:1012E0000AF22C483B46B2FBF0F1C1F164028DE8F2
:1012F0000406304628492A4608F08AFC05E03046B4
:1013000026492A463B4608F083FC254C23681BB936
:101310000120FEF7B9FF2060206803F0D5FE0446E7
:1013200008F0C6FA9DF841209DF84010019001F0A8
:101330001F0302F00F00BDF8422003939DF83E30DA
:101340000290C2F30B0081B203F01F029DF83D0032
:101350009DF83C300491059200F03F0103F03F02FC
:10136000079200940691B8F818005A460890B8F809
:101370001A10304609910B9B0A4908F049FC0120DC
:1013800013B0BDE8F08F00BF40C107204CC107205B
:1013900000002041A08601001D45020051450200C9
:1013A00054C107205F45020038B5064C236833B9A5
:1013B0000420FEF769FF054601F0A4FB25602068C4
:1013C00038BD00BF3CC107202DE9F0418CB00C4670
:1013D0000546FFF7E9FF8046284607F077FE3149CA
:1013E0000246204608F014FC28462F4907F06DFD00
:1013F000421C064605D120462C4908F009FC002471
:101400004BE032460021284607F0E1FE014602A8E3
:1014100007F065FF02A807F0BDFC074630B920467B
:101420002349324608F0F4FB3C4633E02846711C61
:1014300007F000FF014607A807F051FF07A807F0D3
:10144000A9FC054610B920461A490CE002A807F08D
:101450003FFE054607A807F03EFE691E0529064621
:1014600005D91549204608F0D3FB00240FE0324689
:101470004046C9B201F094FB30460BF099FB2A4676
:10148000CDE9000120460D4908F0C2FB012407A860
:1014900007F06EFC02A807F06BFC20460CB0BDE81C
:1014A000F08100BFC7450200E9510200CC450200AF
:1014B000E24502000F4602002F46020046460200A7
:1014C00038B5FFF771FF002405460021224601F0E0
:1014D00067FB28460121224601F062FB28460221D3
:1014E000224601F05DFB012038BD000038B5064CF6
:1014F000236833B91420FEF7C7FE054607F0ACF8A1
:101500002560206838BD00BF58C1072008B54FF0DE
:10151000FF320846094908F045FBFFF7E7FF07F0EF
:101520008DF84FF4FA6009F0A3FC4FF080430020DF
:10153000AA221A721870012008BD00BF5D46020081
:1015400073B50C461449054607F0BEFD50B1FFF7D0
:10155000CDFF07F073F8204610494FF0FF3208F036
:1015600021FB16E0FFF7C2FF0646284607F0AEFD56
:1015700040F25F1301460A4A00933046094B07F0D8
:1015800045F9284607F0A2FD07490246204608F023
:101590003FFB01207CBD00BF6E4602007446020086
:1015A0008D4602002C3F0200C046020070B58AB092
:1015B00005460C4607F0EEFB0B2803DD20461B49D1
:1015C0000C222DE0284607F081FD012201466846E5
:1015D00005F042FE06462846EEB907F077FD144BAB
:1015E00001681960426813495A608068986043F83E
:1015F000041C039A1049204608F00AFB684606F0CE
:10160000A1F84FF47A7009F033FC4FF08043AA221E
:101610001A721E7006E007F059FD0849024620467E
:1016200008F0F6FA01200AB070BD00BFE2460200E1
:10163000484002400DD0ADDE09470200514702008C
:1016400070B5414EA6B033680546DB070C460CD496
:1016500030460AF08FFB40B14FF480600CF05EFD25
:101660003A49086030460AF093FB2846384907F0AB
:101670004FFC064620B30021802206A80CF0E8FDAE
:10168000002105A8049105910090324906AA04ABF7
:10169000284607F088FB2D4A049B116806A8059A86
:1016A00013B903F0D5FD01E003F0F3FD2A4A2B49FD
:1016B0000346002B08BF1146204608F0A9FA32E085
:1016C0002846274907F024FC00283BD0284604AAD6
:1016D000244905AB049605968DF80F6007F063FB6F
:1016E000049D05982A18B2F5806F0DDD20461E492D
:1016F0004FF4806210E015489DF80F1002685155B4
:101700009DF90F300135F618049B0598E91A8142BE
:1017100005DB16492046324608F07AFA03E0B5F5B3
:10172000806F02DBF5E701200CE022682046136899
:101730000DF10F014FF4FA6298470028DBD12046E3
:101740000B49BAE726B070BD68C1072064C1072005
:101750007C47020083470200664702006A47020096
:10176000934702009A470200A4470200D8470200AC
:10177000C847020030B50C4687B00B49054608F053
:1017800047FAA17AE07A0091E188019002912089DC
:10179000A18803900491628823882846034908F0B1
:1017A00037FA07B030BD00BFE94702001F4802000A
:1017B0001FB501A80C4602F0C9FF02F0B7FC01A951
:1017C00002462046FFF7D6FF012004B010BD0000FE
:1017D000F0B58DB003AB002500930C461746384991
:1017E000022202AB0295039507F0EAFAA84239DD1E
:1017F00002980CF04BFBC6B2039818B10DF0F3FB46
:10180000C5B200E0054604A8002103F031FB30B169
:1018100020462C494FF0FF3208F0C4F9F3E70037B7
:1018200018BF01270220009039463046039A2B4604
:1018300002F0AEFD10B9204623490EE0002F3CD047
:1018400004A84FF47A7103F01DFB002830D09DF8F6
:101850001010B1422CD107E01C494FF0FF3208F0C4
:10186000A1F92AE0284629E09DF817200C2A04D186
:10187000204606A93246FFF77DFF2046002DEBD11A
:10188000134908F0C5F99DF817309D420BDA20681E
:101890000CA94A19436812F9181C20464FF0FF3270
:1018A00098470135EFE720460A4908F0B1F904E00E
:1018B00020460949029A08F0ABF901200DB0F0BDAD
:1018C000E95102003D4802005F4802009B480200C7
:1018D00087480200354F0200B848020038B50D466F
:1018E00007F0F6FB0446C0B202F014FC054A064BB2
:1018F0000649002808BF13462846224608F088F902
:10190000012038BDDE4802006F430200E5480200B6
:1019100030B58BB00AAA4FF47A730C4642F8243DD6
:10192000174907F040FA002502A8019903F0A0FA30
:10193000E0B1204613499DF8082008F069F9002518
:101940009DF80F0085420BDA23680AA94A1912F99B
:10195000181C5B6820464FF0FF3298470135EFE7CF
:101960002046094908F054F90125DDE72DB9204644
:1019700006494FF0FF3208F015F901200BB030BDD9
:10198000A1470200FC4802006A5902001349020004
:1019900037B50C4602F040FD16490546204608F0D2
:1019A00037F9154920462A4608F032F920461149F0
:1019B00008F02EF9DDB11149204608F029F920463A
:1019C0000C4908F025F90020451CEDB202F00EFD8F
:1019D00048B181780278437800912046084908F0A0
:1019E00017F92846F0E72046024908F011F90120CE
:1019F0003EBD00BF244902003F4902005949020090
:101A00007449020038B5064C236833B94C20FEF700
:101A10003BFC054607F070FE2560206838BD00BF1E
:101A20006CC107202DE9F04FADF5757D802204468D
:101A300034AF894614A800210CF00AFC0021802252
:101A400038460CF005FC03AE0023336020460096B8
:101A5000714914AA3B4607F0A6F9032801D00020DB
:101A6000D5E00AA814A9012205F0F6FB05460028D6
:101A7000F5D1FFF7C7FF0446306854A984F8470042
:101A8000802205A88DF80B50049507F05DF90097AA
:101A90004846624914AA336808F0BAF8A8460AA86A
:101AA00074A94FF4007204AB05F0A2FC38B10AA887
:101AB00005F048FE05A807F05BF90120A7E00499AE
:101AC0000029F4D06F1C5649049A204608F0A0F86B
:101AD000226820469668B04700267D1EB246049BC9
:101AE00020689E420DD20DF5E87B1BF90610436875
:101AF0004FF0FF322046984716F90B1001368A4402
:101B0000EDE781682046884705A807F0DFFA06461A
:101B100005A807F042F94FF47A7302463146204691
:101B200008F04EF80121202205A807F07AFA05A84E
:101B300007F0CEFA50451FD005A807F0C9FA394979
:101B400003465246484608F063F83749204608F0F5
:101B50005FF820688168204688472268204613681D
:101B60000DF10B014FF47A7298470028F5D1781CDB
:101B7000022F9CD80746A6E7049A2C4900924346B8
:101B800034AA204608F044F826682046B3689847EF
:101B900005A807F09BFA064605A807F0FEF83146AF
:101BA00002464FF47A73204608F00AF805A8204947
:101BB00007F084F9D0B905A807F088FA1D49024654
:101BC000484608F025F81849204608F021F8216811
:101BD00020468A689047236820461B680DF10B0158
:101BE0004FF47A7298470028F5D1C0E705A812494A
:101BF00007F06AFB049811498044424648460D9B11
:101C000008F006F8002D3FF44AAF013D47E70DF517
:101C1000757DBDE8F08F00BF8F4902009E4902002C
:101C2000B5490200C74902006A590200EE490200A4
:101C3000044A0200074A02006B5902003F4A0200B0
:101C40002DE9F04186B006AA0026074642F80C6D41
:101C50000D463C4907F0A7F838460121202207F03D
:101C6000E0F9039B002B63D0384607F093F8002877
:101C70005ED0FFF7C7FE8DF80B60044620680DF1BB
:101C80000B01066805222046B04706460028F5D11C
:101C90000399384684F8471007F018FA4FF0FF32DE
:101CA0000146204607F07EFF226820469768B84725
:101CB000254B0596186837460490216820460B6826
:101CC0004FF47A720DF10B01984770B105A8411CD1
:101CD00003220CF0A3FA9DF80B8005A804A90422A6
:101CE0008DF817800CF082FA38B91821B7FBF1F3A0
:101CF00001FB13726AB101330BE028684FFA88F1D7
:101D0000436801222846013798470028D5D101367B
:101D1000D3E728460D493A4607F07AFF76B16120AD
:101D200000900B49284632460A4B07F071FF05E048
:101D3000284609494FF0FF3207F034FF012006B072
:101D4000BDE8F081A1470200E54702004B4A0200CE
:101D5000724A02002B4B0200674B020043682DE9D8
:101D6000F041994204460D4617D3C06889000CF033
:101D7000CDFEA668E060B700AE420DD21020FEF79F
:101D800083FA0021102280460CF062FAE0680136E6
:101D900040F807800437EFE76560BDE8F081000098
:101DA0002DE9F743304D07462C688946002C49D170
:101DB0002420FEF769FA0423064680E818008460B0
:101DC000C46008214FF00108FFF7C8FF86F82080A3
:101DD00030462649264A274B00942E6006F03CFAEE
:101DE00028682549254A264B009406F035FA2868CC
:101DF0002449254A254B009406F02EFA28682449E8
:101E0000244A254B009406F027FA28682349244ADF
:101E1000244B009406F020FA28682349234A244BD7
:101E2000CDF8008006F018FA28681F49214A224B95
:101E3000009406F011FA009428682049204A214BAA
:101E400006F00AFA3846204907F03EF918B138463C
:101E50001E4907F039FA044B394618684A4603B060
:101E6000BDE8F04306F0C8BA70C10720411C01006C
:101E7000934B02009A4B0200251A0100D44B02003A
:101E8000DD4B020011190100314C0200344C0200FC
:101E9000DD180100C04F0200574C020091190100EB
:101EA0009D4C0200814C0200D1170100E64C02005B
:101EB000A44C0200E54C0200EA4C0200B1170100FC
:101EC0002A4D02000F4D02006B590200304D0200F6
:101ED00037B590F90450144600934AB22346294678
:101EE000006807F06CFF3EBD10B5044694F904107D
:101EF0002D220823006807F057FF206894F904108A
:101F00003122082307F050FF012010BD10B5044610
:101F10002246084606233221FFF7DAFF204610BD8D
:101F200008B5034693F9041020220F23006807F038
:101F30003BFF012008BD38B504460D460846224641
:101F400028210123FFF7C4FF28462921621C012311
:101F5000FFF7BEFF28462A21A21C0123FFF7B8FF86
:101F600028462B21E21C0123FFF7B2FF28462C2133
:101F7000221D0123FFF7ACFF28462D21621D0123FE
:101F8000FFF7A6FF204638BD014B0360704700BF36
:101F9000404D02000120704701207047012070472A
:101FA000014B0360704700BF404D0200034B10B56A
:101FB00004460360FEF76CF9204610BD404D020058
:101FC000034B10B504460360FEF762F9204610BDCE
:101FD000404D02000000000010B5084611460BF00D
:101FE00049F920F000400AF0E3FD0DA3D3E90023F6
:101FF0000AF080FC02460B460BA1D1E900010AF071
:1020000055FF0BF0E3F84FF07C5104460BF0DAFB80
:1020100008B14FF07C54204610BD00BFAFF30080E4
:102020001F85EB51B81ED53F000000A09999D93FFC
:1020300001460022406B3C31134608F070BB0000A3
:102040002DE9F0470446FFF7AFF90646E06C0AF0C9
:10205000AFFD9BA3D3E900230AF0FEFD00229A4BBB
:102060000AF024FF0022994B0AF020FF0BF0AEF893
:10207000974B05461860206D0AF09AFD90A3D3E9AE
:1020800000230AF0E9FD00228F4B0AF00FFF002227
:102090008E4B0AF00BFF0BF099F88E498E4F0860BB
:1020A000606D0AF085FD86A3D3E900230AF0D4FD14
:1020B0000022854B0AF0FAFE0022844B0AF0F6FE5D
:1020C0000BF084F8854A3968106028460BF098FBBD
:1020D00000B13D60824F284639680BF073FB00B1B8
:1020E0003D608048DFF848820768D8F8001038461D
:1020F0000BF086FB08B1C8F80070DFF8388238466C
:10210000D8F800100BF05EFB08B1C8F80070E76B60
:10211000754A39462046FFF75FFF734981463846C6
:102120000BF0A8F8714900F1004748460BF0ACF9F4
:10213000014638460BF05CFA6A4BD4F840801860D0
:102140006B4A074641462046FFF746FF69498246EB
:1021500040460BF091F84FF08141804650460BF01D
:1021600093F9014640460BF043FADFF8CC91D4F8DE
:1021700044A00022C9F8000051462046FFF72CFF7A
:102180005D490BF081F90AF1004A014650460BF017
:102190002FFADFF8A8812946C8F800003A46574BC5
:1021A000574800F05DFC4B4D07462968D9F80020E0
:1021B000524B544800F054FC48490546D8F80020DA
:1021C00009684E4B504800F04BFC4C4BE26E814688
:1021D000A16C4E4800F044FC4FF07C5180462067D3
:1021E00028460BF051F9394682460BF043F8484A2D
:1021F0005146106038460BF03FF8464B0146464AC0
:10220000464805F1004501601D60C2F80090404657
:102210000BF032F8424905460BF0D4FA30B92846A3
:1022200040490BF0EDFA10B13E4D00E03C4D2A461E
:102230003046012100F0B4FC3549206F09680BF0ED
:102240001BF8374905460BF0BDFA30B92846354929
:102250000BF0D6FA10B1334D00E0314D304600217D
:102260002A4600F09DFC206F2A4C21680BF004F8F0
:102270002B4904460BF0A6FA30B9204629490BF049
:10228000BFFA10B1274C00E0254C2246304602210F
:1022900000F086FC2048244900680AF0EDFF002188
:1022A00004460BF08FFA00284AD120461F490BF054
:1022B000A7FA002845D01D4C43E000BFAFF30080D3
:1022C000182D4454FB2109400080664000408F4097
:1022D000A4C107209CC1072088C1072080C1072016
:1022E00084C1072078C107207F6ABC3C0000A04160
:1022F0004260E5BB4260E53B000020410AD7A33CB9
:1023000000C20720E8C1072018C20720D0C107205B
:102310008CC1072098C10720A0C1072090C10720C9
:102320000000104100008C42000038420000C8420A
:1023300074C107207CC10720A8C1072094C10720D1
:102340000024304603212246BDE8F04700F028BCB7
:10235000436E10B5591C41660446FFF769FE606E76
:10236000B0F5FA7FCCBF0022012284F839206AB987
:1023700094F8383053B946F2A711884203DC20465E
:10238000FFF75EFE02E00020E066F8E7012010BDE6
:10239000F8B50546FFF708F800261423EB6104465C
:1023A000314685F8386085F839606E6600F0CEFBFE
:1023B0000121204600F0CAFB0221204600F0C6FBA6
:1023C0000321204600F0C2FB134900274FF07E5046
:1023D000A866E966204631463A462F6700F0E0FBE2
:1023E000204601213A4600F0DBFB204602213A4616
:1023F00000F0D6FB20460321084A00F0D1FB084A32
:10240000084B09481A60094B09491A60094A0860D3
:1024100010600120F8BD00BF0000404100003442C0
:102420000050C34784C107200050C3C77CC10720A8
:1024300088C1072074C10720014B0360704700BFAB
:10244000404D0200034B10B504460360FDF720FF2A
:10245000204610BD404D020038B51A4C63685A0042
:1024600011D51948416801F001024260E36843F068
:102470008040E060216901F080422261636943F09D
:102480008040606138BDA068430019D50E4DA86832
:102490000AF0A2FFE2680D4942F080430860E36061
:1024A000686840F0010169606A6842F002036B608D
:1024B000606900F080416161226942F080432361DC
:1024C00038BD00BF8080024000400940B4C10720F1
:1024D000383070472DE9F04F00F1780285B004469E
:1024E0000546D5F8D810D4F8B80001920AF0C4FE19
:1024F000C4F8B800D5F8DC100646D4F8B4000AF0E9
:10250000BBFEC4F8B400D5F8E010834630460AF0AC
:10251000B3FEC4F8B800D5F8D4108246D4F8AC00A5
:102520000AF0AAFEC4F8AC00D5F8E4108146D4F84D
:10253000BC000AF0A1FEC4F8BC00D5F8E810804643
:10254000D4F8C0000AF098FEC4F8C000D5F8EC102A
:102550000746D4F8C4000AF08FFEC4F8C400D5F8CA
:10256000C8100646D4F8A0000AF086FEC4F8A00001
:10257000D5F8CC100290D4F8A4000AF07DFEC4F87F
:10258000A400D5F8D0100390D4F8A8000AF074FE87
:10259000019A283595420346C4F8A800A1D1D4F881
:1025A000B0004FF07A5101930AF06EFF4FF07A516C
:1025B000C4F8B00058460AF067FF4FF07A51C4F8EB
:1025C000B40050460AF060FF4FF07A51C4F8B800EA
:1025D00048460AF059FF4FF07A51C4F8AC00404623
:1025E0000AF052FF4FF07A51C4F8BC0038460AF0A6
:1025F0004BFF4FF07A51C4F8C00030460AF044FF58
:102600004FF07A51C4F8C40002980AF03DFF4FF031
:102610007A51C4F8A00003980AF036FF4FF07A51BF
:10262000C4F8A40001980AF02FFFC4F8A80005B070
:10263000BDE8F08F000000002DE9F341AA4D0446EB
:10264000AB6943F40020A8610A2006F058FEE9694E
:10265000684641F40022EA61216EFFF757FC009EB4
:10266000BDF80470616EA666A4F86C706846FFF74A
:1026700062FC009DBDF80430C4F86E50A4F87230BE
:10268000B4F96E000AF0ACFEA064B4F970000AF070
:10269000A7FEB4F97280E06440460AF0A1FE20650E
:1026A0000746B4F9680000010AF09AFEB4F86A60BF
:1026B000606531B208010AF093FEB4F86C50A06571
:1026C0002AB210010AF08CFEE06540460AF05EFA7C
:1026D00021F000431946002200230AF04DFDC8B145
:1026E00038460AF065FA0022804B0AF0DFFB002230
:1026F0007F4B0AF0DBFB78A3D3E900230AF0ACFAA6
:102700000AF064FD7B490AF0BFFE0146206C0AF026
:10271000B3FD2064784F38680AF04AFA70A3D3E911
:1027200000230AF099FA0022744B0AF0BFFB0AF06A
:102730004DFDD4F8401107460AF09CFD704920F089
:1027400000400BF03FF810B1C4F84071676430B23C
:102750000AF01CFA064628B20F460AF017FA02469B
:102760000B463046394609F0EDFD0AF02FFD606753
:10277000B4F968000AF00AFA0546B4F96C000E468E
:102780000AF004FA02460B462846314609F0DAFD03
:102790000AF01CFDA0670546B4F968000AF0F6F9D6
:1027A0000746B4F96A0021F000460AF0EFF98446C2
:1027B00021F0004E62467346384631460AF09AF8D8
:1027C0000646B4F96C000F460AF0E0F9024621F023
:1027D0000043304639460AF08DF80AF0D7FCA4F8D9
:1027E0009C007E3881B2B1F5BB7F72D2B4F96E0025
:1027F0000AF0F6FD0AF0DCF900223C4B0AF056FB29
:1028000000223B4B0AF052FB33A3D3E900230AF02A
:1028100023FA0AF0DBFC37490AF036FEA16B0AF016
:102820002BFD38490AF030FE37490746606F0AF041
:102830002BFE014638460AF01FFDA063B4F9700074
:102840000AF0CEFD0AF0B4F90022284B0AF02EFB64
:102850000022274B0AF02AFB1FA3D3E900230AF02A
:10286000FBF90AF0B3FC23490AF00EFEE16B0AF013
:1028700003FD24490AF008FE2349064628460AF0CB
:1028800003FE014630460AF0F7FC94F89E70E063C0
:10289000282000FB074504F13806A0350FCE0FC5F0
:1028A0000FCE0FC596E80300032F85E803000DD176
:1028B0000025204684F89E50FFF70CFE606B04F163
:1028C000A0012A462B4607F059FE02E0013784F8A2
:1028D0009E700120BDE8FC814AD8124DFB210940C1
:1028E000B81E85EB51B8BE3F20C0092000408F4084
:1028F000008066400AD7A33BB4C107200080624035
:102900000000404048E17A3F0AD7A33CAFF3008083
:1029100070B5052300250446C3618563C56305645E
:10292000456400220120282107F0F7FD002660639E
:1029300084F89E6020462A46711CCEB2C0F8B420AE
:10294000C0F8B820C0F8AC20C0F8BC20C0F8C02047
:10295000C0F8C420C0F8A020C0F8A420C0F8A82067
:102960002830042EE8D12B4BD3F8C40040F40002E9
:10297000C3F8C420D3F8AC1101F48046C3F8AC61AD
:10298000A3F5D023586840F001025A60596841F01D
:1029900002065E60A3F5D023D8681F4900F0C0028C
:1029A000DA600E681E2046F400231C4E0B601C4AA1
:1029B000002106F0D7FD32684FF08040C4F8400196
:1029C0004AB90820FDF760FC0546FEF779FBA72110
:1029D000286029713560114B124E186832682066E4
:1029E0004AB90820FDF750FC0546FEF769FBD321E4
:1029F0002860297135600B4B18686066206EFFF700
:102A000073FA28B1606EFFF78BFA08B1012070BD30
:102A1000002070BD00C00F4020C00920ACC10720BD
:102A200059240100B0C1072010B50160426003992C
:102A3000029A0361002304468260C160436110BDB5
:102A4000006870474068704780687047C06870478A
:102A50008360009B016000214260C3600161704798
:102A60002DE9F8430446104698460AF003FC414617
:102A700007460AF009FD21690AF0FEFBE5682061BE
:102A8000294606460AF000FD1C490AF0B9FE20B1AD
:102A90001A4829460AF0ACFD0646294630460AF097
:102AA000F3FC17490AF08EFE20B1154829460AF0BA
:102AB0009FFD0646216838460AF0E6FC61688146BB
:102AC00030460AF0E1FC014648460AF0D5FB616950
:102AD000064638460AF0CEFB41460AF089FDA16859
:102AE0000AF0D2FC014630460AF0C6FB6761014697
:102AF00028460AF0C9FCBDE8F88300BF0000F04199
:102B00000000F0C170B500260546066001210620D0
:102B10000D4C08F073FE0121062008F087FE022309
:102B2000FF2263602260636108F0F8FF3221B0FB8E
:102B3000F1F00923A0616360A660226F284622F0AD
:102B40000F01216770BD00BF0080014002680529A8
:102B500030B542F0010202D90260002030BD0123ED
:102B60004C1C03FA04F52A43026001FA03F0032423
:102B700004FA00F403FA00F0093103FA01F1074AFC
:102B8000156925EA04041461146920431061A2F553
:102B9000A032D06C0143D164184630BD00C0024061
:102BA000F8B517460C46054608F0B8FF0AF014FCC5
:102BB0001349064638460AF01BFD12490AF064FC28
:102BC00010490AF059FB014630460AF05DFC0AF054
:102BD00047FE0D4B052C0FD8DFE804F0030507096D
:102BE0000B0DD86108E0186206E0586204E0186432
:102BF00002E0586400E098642A681A65F8BD00BFD6
:102C00000000C8426F12833A0080014038B50D467B
:102C1000044608F083FF074B0221B0FBF3F0B0FB42
:102C2000F1F2954201D3216138BDB1F5807FFAD030
:102C30000231F4E740420F0001480BF0DDBE00BF57
:102C4000F84D02007FB500F235260D4601223146CF
:102C500004F0B2FAC4B24CBB04A941F8044D3046AA
:102C600002AA04F093FEF8B9029A03999469937842
:102C7000A21E5A435943540840F2E73348089C4285
:102C80000F49104B8CBF4FF48062012288BF0B4666
:102C9000B0FBF2F18DE80A000B482946B4FBF2F2D2
:102CA0000BF092FE012008E0084B00E0084B0948B9
:102CB000294662B20BF088FE002004B070BD00BF50
:102CC000324E02002F4E02003C4E0200354E0200F2
:102CD000394E02006A4E020038B5AA224FF08043F6
:102CE00055201A72187208F08FFA174C02284FF00C
:102CF00000014FF00100D4E9002317D1121843EB73
:102D00000103C4E9002308F01BFED8B108F00AFE55
:102D1000D4E900010A2200230AF0C2FD0A25A0FB23
:102D2000052305FB0133C4E9002338BD121843EB2A
:102D30000103C4E9002302F0AFF80020BDE83840E9
:102D400008F046BC38BD00BFC8C10720FFF7C4BFAC
:102D5000024BD3E90023104619467047C8C107202B
:102D600038B5084D2B684BB90820FDF78DFA04469D
:102D7000FEF7A6F92060402020712C600149086808
:102D800038BD00BFBCC1072038B5054C256825B942
:102D90000120FDF779FA05702060206838BD00BF7A
:102DA000B8C10720664A674970B54023664D4FF0A9
:102DB00000704FF480348B6190618C612E68ADF5AA
:102DC000047D26F0F0032B60286840F050042C604E
:102DD0002E6826F440532B60086840F040040C60D5
:102DE0002E6826F47C232B60286840F428242C606D
:102DF0002E6826F470032B60286840F420042C60B1
:102E00002E6826F040432B60286840F000442C6078
:102E10006E6826F03C036B60686840F028046C60C4
:102E20006E6826F003036B60086840F480340C6021
:102E30006E6826F440536B60086820F480040C60D0
:102E4000E96821F44036EE60136843F0807010604A
:102E50006C6824F4402169606E683C4C46F4802321
:102E60006B60A8680440AC60116841F4897646F054
:102E700001031360A86820F47014AC60A96821F005
:102E80007046AE60136823F446401060EC6824F08E
:102E90003001E960EE6846F03003EB60E86820F44A
:102EA0007014EC60156845F000711160166826F02A
:102EB0008063136008F01AFB4FF4FA6006F03BFAE7
:102EC000FFF7BAFE08F02AFE0AF086FA20490AF057
:102ED0008FFB09F06DFE02460B461E480BF074FD99
:102EE00008F07AFB042811D100221B4805920568DE
:102EF0001A4E04AC0495FFF79FFEF16C1848326D32
:102F0000736D00940BF060FDFFF796FE0C2001211D
:102F100008F074FC134C0C20032108F087FC4FF4DC
:102F20000011216008F0FAFD0223C0080E4AB0FB30
:102F3000F3F595421AD8266846EA0321216019E084
:102F400020C0092000C0092000C00240F0FCFCFFA6
:102F500000247449A84E0200444002400040024050
:102F6000C04E0200004003403F5DC6000233B3F58F
:102F7000807FDBD10A20012108F040FC0A200121DA
:102F800008F054FC9B480725022405600121446099
:102F9000FFF73CFE06F094FC1520012108F02EFC02
:102FA0001520012108F042FC93480121056044608E
:102FB000FFF72CFEFEF784F8642106F0D9FA10B969
:102FC0008E480BF019FD01F02DFF10B98C480BF065
:102FD00013FD01218B4808F079FCFDF76FFA8A494F
:102FE000FFF730FE0646B8B988480BF0EDFCFDF758
:102FF00065FA3146324600F2352004F0CDFE844BAE
:10300000844A002814BF104618460BF0F5FCFDF763
:1030100055FA7D49FFF716FE7F4C206810F0010538
:1030200017D1204608F0A6FE98B14FF40E70FDF7B8
:103030002BF97A4A012131263A2380F8341280F89C
:10304000356280F8363280F837521060204608F03A
:103050009FFE724C72492068FFF7F4FD1821654805
:10306000FFF7D4FDFFF7E8FDFFF78EFE002102F029
:1030700003F8FFF775FE6B4D0646286858B90C201B
:10308000FDF702F90446FEF71BF8902100232060AB
:103090002171A3602C60634A106802F03DF80AF0C9
:1030A000B9FB41B2304601F0C7FF00235E4804A9D6
:1030B00007220493059302F0AAF8A8B904A80AF01D
:1030C000E5FEC6B2751EE8B2FD2805D904A9564A28
:1030D00056480BF079FC07E055483146524A0BF050
:1030E00073FC304601F016F8524C216819B90120E2
:1030F000FDF7CAF82060206801F0E6FF06460020D0
:103100000DF08CF930180BF095FC4FF40072002193
:1031100004A80BF09DF804A808F0BCFB04A94648DD
:103120000BF052FCFFF788FD8022002104A80BF071
:103130008FF804A802F0EEFE9DF91020531C05D074
:1031400004A9D2B23D480BF03FFC2FE03C4D2B6868
:103150001BB90120FDF798F82860286801F0B6FF38
:1031600009281DD137480BF047FC04A936480BF05D
:1031700095FD04A935480BF027FC35480BF03CFCC5
:103180000020039003A933480BF088FD9DF90C4003
:10319000592C03D104A802F09FFE07E02E4803E05B
:1031A0002E480BF029FC2E480BF026FC4FF20801AC
:1031B0000E684A684FF20403B50A960A4FF470424B
:1031C0008C681268196827480BF0FEFB2A463146C6
:1031D00025480BF0F9FB214624480BF0F5FBFFF7DF
:1031E0002BFD23480BF008FCFFF726FD0DF5047DB1
:1031F00070BD00BF0000034000800840384F02004F
:10320000694F0200D92C01008E4F0200964F020038
:103210009D4E0200A24E02005CC1072060C1072043
:103220009E4302004CC10720BF4F0200C54F020061
:10323000F04F020054C10720B16002001D5002008F
:10324000C0C10720395002005B50020060500200EC
:103250007B500200BE500200C2500200DA50020051
:10326000085102003A5102006651020093510200D7
:10327000B0510200704700002DE9F347254B264F5F
:10328000DFF8AC90DFF8AC80DFF8ACA00024234E70
:10329000234D019349462346424600975046FFF787
:1032A000C3FB5046DFF894A031462A46FDF74EF89E
:1032B000234649464246009701945046FFF7B4FB27
:1032C00031462A465046FDF741F8DFF874A015480C
:1032D00023460190009750464FF07C51124AFFF769
:1032E000A3FB31462A465046FDF730F8DFF854A0DC
:1032F0000E49424601910097494650462346FFF742
:1033000093FB504631462A4602B0BDE8F047FDF730
:103310001DB800BF00007A43CDCC4C3D7532010092
:1033200034C10720000016436666E63E00002040D8
:103330009A99193F3333B33E00C20720E8C10720F2
:1033400018C20720D0C1072001207047F8B591E8C6
:1033500060000F7A14468FB1082A0FD1304605F06D
:1033600019FD00281BDD28460E494FF0FF3206F0FC
:1033700005FC3046012105F014FE08E00A2C05D0BA
:103380000D2C03D03046214605F0FAFE4FB12B68D4
:1033900028465B6821464FF0FF329847F8BD072466
:1033A000F5E7F8BDE85102002DE9FF41CE6B044678
:1033B0000D4601AF5EB94FF47A7007F059FD314602
:1033C0000C2238460AF044FF97E807005EE00B6CD9
:1033D00001F13406186807C887E8070000278DF850
:1033E0000370EA6B97422DD2F368511E53F8270001
:1033F0008F420CBF0522002200684FEA870801793E
:10340000002949D003680DF103011B689847002883
:1034100042D0B268974241D2F16851F8080001AB3E
:1034200007C883E8070019469DF903202846FFF7DF
:103430008DFFFFF78DFCD5E92223121843EB010322
:10344000C5E92023029805F0A5FC0746029805F07F
:10345000A4FC421E974216DAD5E92201014320D08E
:10346000FFF776FCD5E92023994208BF904218D394
:10347000FFF76EFCD5E92223121843EB0103C5E9DF
:1034800020230023019304A810E9070084E8070023
:10349000204604B0BDE8F0810137A2E706F1100034
:1034A000BDE79DF903100A29EDD0002799E7000038
:1034B000F0B5054685B020480BF086FA01A82946EC
:1034C000FFF772FF019C1CB91C480BF095FA30E025
:1034D000029E304605F05EFC00282ADDFFF738FC2E
:1034E0000746F8B1B5F874303146581CA5F8740099
:1034F000224605F1500004F07FFF114900250A68BB
:10350000009223681DF905105B6820464FF0FF32DA
:1035100001359847042DF4D1FFF71AFCC11B094867
:103520000BF052FA304605F03AFC206881682046DC
:103530008847012005B0F0BDEB5102006B59020035
:10354000C4510200F151020038B5064C236833B96A
:103550002020FCF799FE054606F076FA25602068E3
:1035600038BD00BF40C1072010B50446FFF7ECFF8F
:10357000036821465B684FF0FF32984740B210BDA8
:1035800013B5002302AC04F8013DFFF7DDFF01682D
:103590004FF0FF320B68214698479DF907001CBD8C
:1035A00038B5054600246B68E8689C4205D250F89F
:1035B0002400FCF76DFE0134F5E708B1FCF76AFE64
:1035C000284638BD0D4B70B5044640F8503BFFF718
:1035D000E7FF04F1340600257068854206D2F268E0
:1035E00052F82500FCF754FE0135F5E7206C08B1D0
:1035F000FCF750FE02492046216070BDD051020008
:10360000404D020010B50446FFF7DCFF2046FCF7F2
:103610003FFE204610BDF8B54368044699420D466A
:1036200015D3C06889000BF071FAA668E060B70096
:10363000AE420BD20C20FCF727FEE26800210160AD
:10364000416001720136D0510437F1E76560F8BD81
:103650002DE9F0410446142016468846FCF714FE76
:103660008021074605F09FFDA36BE26B9A4205D3CC
:10367000616B04F134005918FFF7CDFFE56B206C46
:1036800050F825300135C3F800805F601E72E56395
:10369000BDE8F0812DE9F04100F150048AB0002529
:1036A0000646009520466949694A6A4B04F0D4FDF4
:1036B000009520466849694A694B04F0CDFD0095A4
:1036C00020466849684A694B04F0C6FD00952046CB
:1036D0006749684A684B04F0BFFD0095204667497A
:1036E000674A684B04F0B8FD009520466649674A72
:1036F000674B04F0B1FD009520466649664A674B6A
:1037000004F0AAFD009520466549664A664B04F020
:10371000A3FD009520466549654A664B04F09CFD73
:10372000009520466449654A654B04F095FD009577
:1037300020466449644A654B04F08EFD009520469E
:103740006349644A644B04F087FD00952046634951
:10375000634A644B04F080FD009520466249634A49
:10376000634B04F079FD009520466249624A634B41
:1037700004F072FD009520466149624A624B04F0F4
:103780006BFD009520466149614A624B04F064FD7F
:10379000009520466049614A614B04F05DFD00954B
:1037A00020466049604A614B04F056FD604A00952E
:1037B000204613465F4904F04FFD009520465E49C0
:1037C0005E4A5F4B04F048FD009520465D495E4A25
:1037D0005E4B04F041FD009520465D495D4A5E4B1D
:1037E00004F03AFD009520465C495D4A5D4B04F0CB
:1037F00033FDFFF7A9FE4FF4806320224FF41641FA
:10380000054606F0FFF8012780462F715648FCF761
:10381000A7FD5648FCF79EFD304629463A46FFF77D
:1038200017FF03A9082205A805F08EFA05A850493C
:1038300005F04AFD05A92A46204604F0DDFD05A84D
:1038400005F096FA40460AB0BDE8F081650801002F
:103850005152020007520200310901003E5202009B
:103860004652020009120100645202005652020040
:1038700055090100AC5202006B520200990A010086
:10388000B1520200B5520200190A0100545302005D
:1038900011530200A10E01005353020057530200BE
:1038A000790B0100A2530200A5530200210D010073
:1038B000D3530200D9530200990D0100FE530200B8
:1038C00001540200F50D0100C66D02002E540200E5
:1038D0005D0D01005354020056540200E110010036
:1038E000795402007D540200D90F010024550200D2
:1038F0002C5502000D1501006F550200765502008F
:1039000041150100895502008D5502008D100100FE
:10391000C3550200C9550200A11D0100854F0200D8
:10392000F1550200510501001B560200225602000B
:1039300047560200DD060100C91301004E56020081
:1039400055560200C1140100775602007C56020051
:1039500041160100805702008C560200AD1501008F
:10396000E143020049570200813501006935010039
:10397000304D020073B500244FF480520B46009482
:103980001849064605F0B4F9174B042533607563F2
:10399000B463F463346406F134000221FFF73BFEA4
:1039A00035657465B465F46506F150001821FEF7BD
:1039B000D5F9A6F87440A6F87640B4670B4C0022FF
:1039C00000230025012086F87000C6E92023C6E9FF
:1039D0002245FFF7BDF9001941EB0501C6E92001B9
:1039E00030467CBD85570200D0510200C0D4010092
:1039F0002DE9F041804690B071480AF0FDFF04A81F
:103A0000D8F86010FEF782FABDF9100009F0BEF890
:103A100000226C4B09F020F900226B4B09F046FAAA
:103A200004460D4606A8D8F86010FEF76FFABDF9F7
:103A30001A0009F0ABF80022624B09F00DF90022E0
:103A4000614B09F033FA06460F4608A8D8F8601013
:103A5000FEF75CFABDF92400CDE9006709F096F89D
:103A60000022584B09F0F8F80022574B09F01EFAD3
:103A700022462B46CDE9020154480AF0A5FF0AA8C8
:103A8000D8F86410FEF757FA0CA8D8F86410BDF9FE
:103A90002860FEF750FABDF932700EA8D8F864100D
:103AA000FEF749FA3A46BDF93C30314648480AF03B
:103AB0008BFF4046FEF70CFD006809F079F80246DE
:103AC0000B4644480AF080FF4046FEF701FD40687F
:103AD00009F06EF802460B463F480AF075FF404673
:103AE000FEF7F6FC806809F063F802460B463B4897
:103AF0000AF06AFF4046FEF7EBFCC06809F058F890
:103B000002460B4636480AF05FFF364B364C1868C3
:103B100009F04EF802460B4634480AF055FF344887
:103B2000344D006809F044F802460B4632480AF06A
:103B30004BFF3249324E086809F03AF802460B460C
:103B400030480AF041FF304A304F106809F030F831
:103B500002460B462E480AF037FF206809F028F885
:103B600002460B462B480AF02FFF286809F020F880
:103B700002460B4628480AF027FF306809F018F87B
:103B800002460B4625480AF01FFF386809F010F876
:103B9000234B044618680D4609F00AF8CDE90001E8
:103BA0002048006809F004F82246CDE902012B46BE
:103BB0001D480AF009FF4FF4FA7007F059F91BE7A6
:103BC0000F4E02000000104000408F40AB57020033
:103BD000CD570200E7570200FA5702000D580200C5
:103BE0002058020078C1072090C107202C580200FD
:103BF000A8C1072098C107203D58020094C10720A2
:103C0000A0C107204F5802008CC10720A4C1072083
:103C10005F5802007B58020098580200B458020016
:103C20009CC1072080C10720CA580200F0B54FF49C
:103C3000A27085B0FCF728FB002523494FF4805281
:103C400002230095044605F053F8204B74202360AE
:103C5000676BFCF719FB01234FF480521C49009558
:103C6000064605F045F81B48776330609020FCF766
:103C70000BFB01210746FFF77DFE384604F0FAFFF3
:103C8000204604F0F7FF304604F0F4FF1249012704
:103C9000234601914FF480520097029503950F49F6
:103CA0000F4806F09DFE2946384604F0F3FF2268CF
:103CB00020465368984730684168304688474FF03F
:103CC000FF3005B0F0BD00BFEF590200C04D02004B
:103CD000005A0200A04D020030C20720135A020011
:103CE000F139010038B5074C236833B91C20FCF7C3
:103CF000CBFA054605F072FC256022680248026096
:103D000038BD00BF50C1072034C2072030B50023A2
:103D10008B420DD044783CB1048C4FF6FF751419DA
:103D2000AC4228BF2C4604840133DBB22430EFE7D9
:103D300030BD000037B50E49002302A84A6840F89C
:103D4000043D042190470B4B05461C680198042153
:103D5000041B186022460848FFF7D8FF02210748D5
:103D60002246FFF7D3FF281C18BF01203EBD00BF2D
:103D700038C2072020C307204CC2072025C30720D4
:103D800008B50B4B01781A780A4B914203D1198878
:103D90000131198002E09988013199808270064AC8
:103DA0002021D3689847003018BF012008BD00BF0C
:103DB00005C00720F4C2072038C207200A4B02784A
:103DC00019780A4B8A4203D1DA88511CD98002E063
:103DD0001A89511C19810379C3F3C202511E61F380
:103DE000C5030371FFF7CCBF05C00720F4C207204D
:103DF00010B50023064A990012F82340844201D1ED
:103E0000501810BD0133042BF4D1002010BD00BFA9
:103E10000FC3072070B1C378591CCAB2FF2AC27001
:103E200008D100230448C218D17804334808102B65
:103E3000D070F7D1704700BF0FC30720F0B503461D
:103E40000246044600258D4207D02046243414F84B
:103E5000236CC6B10135EDB2F5E7002004468C4273
:103E600010D01579178CC5F3C20547EA0545A8425D
:103E7000164624BF05461E460134E4B224322846C5
:103E80003346ECE71846F0BD38B501310446CD00A5
:103E9000FFF750FF1B4B20781A78824204D1022191
:103EA0001948FFF7CBFF0CE004211848FFF7C6FFC5
:103EB000E17831B990F8235045F0800380F8233041
:103EC000042590F82310002221F07F0380F822506F
:103ED00043EA152580F8202080F8212080F823501F
:103EE0002346024604F1200153F8044B8B4242F86A
:103EF000044BF9D1064A0379117861F3C5030371C4
:103F000038BD00BF05C0072025C307204CC20720CD
:103F100004C0072010B5FFF76BFF044608BBFFF78E
:103F200067FF0446E8B9104AD378D179994202D2A2
:103F30000B46111D00E01146D07AD47B984238BF61
:103F40000A490B4A38BF03469C422CBF0C46144614
:103F50002046002104220AF07BF9064BD97A481C3E
:103F6000D872204610BD00BF0FC3072017C307201B
:103F70001BC30720F4C207202DE9F04105469046F7
:103F80000C460027474500F0BE8094F8233003F02C
:103F90008000C1B269B3BDB12B786278934203D17E
:103FA0006878217888421ED0E87868B169789142B3
:103FB00008D122789A4205D1A879A179421A5342B0
:103FC000534100E0002373B994F8232094F82210A1
:103FD000208C02F07F0341EA03218842C0F28F80E7
:103FE0002046FFF7CDFE2046002124220AF030F9BA
:103FF00085E06378002B00F08280002D3DD02A7987
:1040000002F0C000C0281AD16A782178914202D10A
:1040100028789842E7D0E078A978884210D1934276
:1040200009D120782A78904205D1A079AA79811AFD
:104030004842414100E000210029D4D100E0E0B134
:10404000A978E278914218D16878984209D121780C
:104050002A78914205D1A179AA79881A414248412A
:1040600000E0002048B12279002161F3C50284F804
:10407000201084F82110227141E094F8232094F854
:104080002200218C02F07F0240EA0220814236DBCE
:1040900021790026C1F3C20284F8206084F82160EF
:1040A000D6B21EB12046FFF789FE28E001F0C0001D
:1040B000C02818D0154920780978884213D1E078B3
:1040C000984210D078B16379E270032262F307134B
:1040D00063712046FFF772FE0D482179037863F380
:1040E000C501217100E001266078FFF781FE18B15B
:1040F000002104220AF0ACF8002E7FF474AF0137DF
:10410000FFB224343EE7BDE8F08100BF05C00720C0
:1041100004C00720431ED9B2FD2903D8024A1070FB
:10412000012070470020704705C00720014B187818
:10413000704700BF05C0072007289CBF014B1870BF
:10414000704700BF04C007202DE9F743044691469D
:1041500098469DF828600D46002958D02F4B1F78AF
:10416000B94254D0B8F10F0F51D8002851D02022B5
:1041700000210AF06DF8FF2D207914BF09F0030229
:10418000002262F38710032161F30200244B2071A7
:104190001A78277062F3C50020712248A770017851
:1041A0000BAF4B1CDAB20270A271657001970EB9A9
:1041B000012613E00198013E03464268E07953F876
:1041C000081B8718FFB2182F0193F6B205D80830E4
:1041D00020180AF01AF8E771E9E70026124F0121CA
:1041E00028463970FFF704FE0546FFF713FE00224C
:1041F0003A70637925B968F307136371E57009E0D4
:10420000A87860F3071363716978E17002E0002613
:1042100000E006463046BDE8FE8300BF05C007202B
:1042200004C0072002C3072000C30720164B70B547
:1042300001261E70044608B900251FE0FFF7A0FD07
:1042400005460028F8D0207900F0C001402903D0AD
:10425000B1F1800256425641C02906D1E3782BB114
:104260006078C31A18BF012300E000230EB9DB07F2
:1042700004D5617920460909FFF706FE024B0022AA
:104280001A70284670BD00BF00C3072082B0F0B589
:104290001746421E0446D0B28DB0FD280D4613933A
:1042A00001D900205AE0002BFBD0159B002BF8D041
:1042B00017990029F5D0169A002AF2D014980028F0
:1042C000EFD000214822284809F0C2FF00219022A7
:1042D000264809F0BDFF00211022254809F0B8FF4B
:1042E000244E00210C22244809F0B2FF00210C22A8
:1042F000224809F0ADFF3470214C224E257034461F
:1043000013AD0FCD0FC42B68002118221E48236067
:1043100009F09EFF394617221B480AF0A6FE00202E
:10432000B268014690470028BBD09DF8601011B9D3
:10433000FFF700FD12E015480622012301900292CA
:10434000009304A8FF210022FFF7FEFE0028A8D05A
:1043500004A8FFF76BFF0028A3D0E9E70DB0BDE884
:10436000F04002B0704700BF25C307204CC20720B1
:104370000FC3072005C0072003C30720F4C207208E
:1043800001C3072038C20720DCC207201D5A0200E3
:1043900070B5182B8CB006460D4617D81C1C18BFDC
:1043A0000124002A14BF214684F0010171B1019259
:1043B0000293009404A831462A469DF84030FFF746
:1043C000C3FE18B104A8FFF731FF00E000200CB0D5
:1043D00070BD13B50446107852790B46110900914F
:1043E00022460321FFF7D4FF1CBD000030B5002397
:1043F0001A4608499C0011F823502DB1904201D172
:10440000081930BD0132D2B20133042BF1D10020A2
:1044100030BD00BF0FC3072000231846044A995C33
:1044200009B10130C0B20433102BF7D1704700BF7F
:104430000FC307202DE9F04188B0684600212022F3
:1044400009F006FFA14B1C78002C40F03B81A048EE
:104450002021026968469047002800F087809D4D22
:1044600069884B1C6B80FFF7D7FFA8729DF804206A
:1044700002F00700032804D097490A7842F00100AF
:1044800009E0964D9DF802102D78A94205D1924978
:104490000B7843F002000870E6E0C2F3C2019DF819
:1044A00000709DF806005FFA81FE032262438C4E85
:1044B000B318B65CBE420AD15A78824207D19A78C4
:1044C0009970B2EB0E0618BF0126012417E00134E3
:1044D000042CEAD1834C236899708149587001F10A
:1044E000090083421F7040F0CC8021609DF80000DD
:1044F0009DF80220824240F0C780002426469DF8A5
:104500000200FFF707FD9DF80210002C08BF0126EE
:1045100001709DF80220002142708170F6B2FFF711
:1045200079FC1EB39DF80000A84200F09C809DF825
:104530000160FF2E1CD16648202103686846984719
:1045400020B9654C227842F0040121709DF80530B5
:1045500003F00F04601C1A4660F30302B4EB131F50
:104560008DF8052002DA6846FFF70AFC00247BE09C
:10457000B5422CD16CB99DF8070050B1544B684638
:104580001A682021904720B9534C217841F004004B
:1045900020709DF8043003F0C002402A12D19DF82B
:1045A000071011B95048182108E04A480C216A4602
:1045B000FFF70FFF002856D1002001466A46FFF79B
:1045C00008FF50E09DF80340002C4CD1F4E7474C25
:1045D0002378002BCAD09DF8054004F00F08270966
:1045E000B845C3DA3046FFF703FC9DF8032008F115
:1045F000010868F3030495428DF805401DD19DF82C
:10460000045005F0C004402C05D0B4F180014B42A9
:1046100053EB010200E0012208B1457800E00546B5
:10462000C02C05D1AE4203D02C1C18BF012400E0E1
:10463000002444EA020530B90AE0A2B910B968467C
:1046400039460EE0154641788DF80310847802E073
:104650008DF8030004466846FFF792FB1DB16846DB
:104660002146FFF711FC6C46FFF764FB204604224D
:104670001F49FFF781FC20461E490222FFF77CFC00
:1046800020E0DE1C266031E785423FF436AFFFF7BD
:1046900041FC0446FFF7BEFB23783BB19DF80510B3
:1046A000A67801F00F00B0423FF727AF9DF8002039
:1046B00022709DF8023063709DF80510C1F303006D
:1046C000A0701AE708B0BDE8F08100BF00C3072062
:1046D00038C20720F4C2072024C3072005C00720E2
:1046E00003C3072000C00720DCC2072001C3072046
:1046F0004CC2072025C3072000231846094AD118B9
:104700004A780AB10130C0B22433902BF6D1064B5F
:10471000597809B1421CD0B293F825300BB1013061
:10472000C0B270474CC2072025C3072008B5FFF769
:104730005FFB054B20B180781978421CD00001E066
:1047400019781820484308BD04C00720034A11689F
:10475000016051689268416082607047F4C207202E
:1047600030B5404C4FF48035E5613F4CA060E068C7
:10477000C006FCD43C488068C0B2002B6CD00B460D
:10478000002A5CD0384C93F90050072AA56030DD30
:1047900093F90150083AA56093F90250A56093F986
:1047A0000350A56093F90450A56093F90550A560E6
:1047B00093F90650A56093F907500833A5602A4C79
:1047C000A5696D07FBD5A5680D70A5684D70A56836
:1047D0008D70A468CC70244CE568ED06FBD4A56808
:1047E0000D71A5684D71A5688D71A468CC710831F3
:1047F000C6E7032A18DD93F90150043AA56093F93E
:104800000250A56093F903500433A560164CE56887
:10481000ED06FBD4A5680D70A5684D70A5688D7078
:10482000A468CC700431ABE70133013AE56815F0B8
:10483000100FFBD10C4CA46801F8014BA0E7094B09
:104840004FF480329A6140B230BDE56815F0100F28
:10485000FBD1054C0133A4689342F0DACD56024CEB
:10486000A560F2E700C009200080084007B50023DA
:1048700002A9012201F8013D00F01F001346FFF7D5
:104880006FFF9DF907000EBD07B502AB03F8011DD0
:1048900000F01F0019460122002340F02000FFF71E
:1048A0005FFF0EBD08B51720FFF7E0FFC0F3001053
:1048B00008BD07207021FFF7E7BF03460A466FF0E7
:1048C0005F0019460023FFF74BBF08B50020FFF734
:1048D000CDFF20F0010149B20020BDE80840FFF7FC
:1048E000D3BF0000024B4FF08072DA61704700BF07
:1048F00020C0092008B50020FFF7B8FF40F00101F3
:1049000049B20020FFF7C0FF024B4FF080729A615E
:1049100008BD00BF20C0092007202021FFF7B4BF39
:1049200000216FF01E000A460B46FFF719BF00007A
:1049300037B505460C46FFF7F3FF28462146FFF73B
:10494000BCFF0D4B4FF0807200209A61ADF806005D
:10495000BDF806104A1C93B2ADF8063033B90649CB
:104960004FF08070C861FFF7DBFF3EBDFFF79AFF95
:104970000028EDD0F3E700BF20C0092008B51720BC
:10498000FFF774FF00F0010080F0010008BD072070
:104990004021FFF779BF08B503460A466120194652
:1049A0000123FFF7DDFEC0F3420008BD00216FF0D8
:1049B0001D000A460B46FFF7D3BE70B50446002023
:1049C0000D461646FFF752FF14B100F0BF0102E09A
:1049D00040F04000C1B215B101F0DF0201E041F04A
:1049E000200216B102F0EF0301E042F010030020B4
:1049F00059B2BDE87040FFF747BF10B5044600202C
:104A0000FFF734FF14B900F0F7020DE0012C04D1D8
:104A100000F0FB0040F0080206E0022C14BF40F05A
:104A2000080140F00C01CAB2002051B2BDE81040AC
:104A3000FFF72ABF08B50020FFF718FF40F002017A
:104A400049B20020BDE80840FFF71EBF08B50020AE
:104A5000FFF70CFF20F0020149B20020BDE808403A
:104A6000FFF712BF40F6DD13984206D840F66211F8
:104A7000B0F5166F38BF084600E01846A0F1600296
:104A800051B20520FFF700BF10B504460620FFF71E
:104A9000EDFEFA2C00F0D70102D141F0200104E034
:104AA000B4F5FA6F08BF41F00801062049B2BDE82D
:104AB0001040FFF7E9BE10B504460620FFF7D6FE0A
:104AC000032C34BF2146032100F0F90040EA4102E3
:104AD00051B20620BDE81040FFF7D6BEF9284FF0CE
:104AE000FA0305D9B0F57A6F28BF4FF47A6000E079
:104AF0001846B0FBF3F0421ED3B20F2928BF0F2196
:104B000041EA0311042049B2FFF7BEBE1130C0B222
:104B1000162806D8202928BF202140B249B2FFF725
:104B2000B3BE7047032804D004280CBF0221032120
:104B300000E001210320FFF7A7BE03460A4630200C
:104B400019460023FFF70CBE03460A462A201946E1
:104B50000023FFF705BE000073B504460E46154658
:104B6000FFF724FFFFF7DCFE2A4B4FF08072DA617B
:104B7000FFF76CFF00210A460120FFF71EFFFFF739
:104B800098FE0220FFF739FF3046FFF76BFF2846FB
:104B9000FFF77AFF0320FFF78EFF02200321FFF7C4
:104BA00073FE01200021FFF76FFE03214FF4FA701E
:104BB000FFF794FF00202146FFF7A8FF12200021F5
:104BC000FFF762FE13200021FFF75EFE1420002194
:104BD000FFF75AFE15200021FFF756FE1620002190
:104BE000FFF752FE0C4908680A79009005208DF8FD
:104BF0000420FFF797FF68460521FFF79EFF6846F0
:104C00000521FFF7A1FFFFF715FF4FF4FA6004F04D
:104C100076FB7CBD20C00920245A0200042938B547
:104C2000054603D1041C18BF012400E00024FEF750
:104C30008FF804B12860204638BD000007B5084B46
:104C4000002102AA186842F8041D0B4605F02EFD4B
:104C5000019818B103494FF080520A600EBD00BFA1
:104C600078C3072004ED00E070B500238AB00193FB
:104C70000646007901AA00F0C001C0290CBF0F4907
:104C80000F4900230D683146284605F00FFD044604
:104C900058B9224602A9284605F0C2FD23462846F7
:104CA000314601AA05F002FD0446019A1AB1054BEE
:104CB0004FF08050186020460AB070BD70C30720C6
:104CC00074C3072004ED00E010B5194C226822B926
:104CD0000320202105F021FC2060164C226822B917
:104CE0000120202105F019FC2060134C216821B916
:104CF0000120032205F011FC2060202040F6C311A2
:104D00004FF4FA62FFF728FFFFF7F4FD16200121A8
:104D10000A4A04F027FC064B186838B105480068B9
:104D200020B105490A68101C18BF012010BD00BF42
:104D300074C3072070C3072078C307203D4C0100CF
:104D40002DE9F34180460F46164606F05DFA02282B
:104D500007D1324640463946002305F0E0FCC6B292
:104D600013E000230193FDF7F3FF841941F10005DF
:104D70004046394601AA05F053FDC6B22EB9FDF7EB
:104D8000E7FF8D4208BF8442F2D270B2BDE8FC81D9
:104D900037B504460D46FFF7C9F9237883420AD098
:104DA000E07840B909F072FE00F00301481CBD2212
:104DB000504304F0A4FAFFF795FDFFF786FD204667
:104DC000A9B2FFF7B5FDFFF7A7FDFFF793FD06F0CA
:104DD0001BFA02280ED1084B002102AA186842F8DB
:104DE000041D0B4605F062FC019818B1034A4FF010
:104DF0008051116001203EBD78C3072004ED00E022
:104E000038B504460D46FFF7B9FD48B1A9B22046B2
:104E1000FFF7C1FDFFF7B2FD08B9FFF7B8FD0120AC
:104E200038BD000000B50C4B0C488DB00C490D4A44
:104E300009930B900CAB002043F8102D0A910490BD
:104E40000FCB8DE80F00084B6A200121074AFFF7BE
:104E50001DFA0DB000BD00BFC94C0100014E01009C
:104E6000914D01001D4C0100694C0100295A0200BE
:104E70000A460349034608681946FFF761BF00BFA9
:104E800074C307200A460349034608681946FFF71A
:104E900057BF00BF70C3072008B506F0B5F90F4B28
:104EA0000228586912D142020CD5FFF725FC0C49A3
:104EB00000280CBF4FF0FF320122086800210B468A
:104EC00005F02DFCBDE80840FFF7B4BA4302F9D560
:104ED000FFF712FC0028F5D108BD00BF00C0092073
:104EE00078C3072010B506F093FA0C4B1A6822F02D
:104EF000E06020F0FF0119601C6844F004021A60B1
:104F0000186840F0807119605C68002CFCDA034B73
:104F10005C6806F08FFAC4F30B1010BD004003402C
:104F200030B504464DB2006894F9041053B22A46D5
:104F3000BDE8304004F038BF1FB5002204AB90F943
:104F4000044023F8042D4AB2022100910068214652
:104F500004F035FF9DF90C009DF80D3082B243EA54
:104F6000022188B204B010BD234910B50A680B466F
:104F700012F010020ED08868C83088611F490A8874
:104F80001F2A05D8DC6A1E4840F8224001320A80F8
:104F900010202EE00B68D9072CD51848008801286E
:104FA00022D9174B411E04338A4207DA53F8041CF6
:104FB0001C680132611A43F8041CF3E7104A00230D
:104FC00050681A4600EB50008B420BDA0C4C54F838
:104FD0002340844203D9012404FA03F42243013319
:104FE0009BB2F1E707490A60044B00221A80024B8A
:104FF0000120186010BD00BF0080004080C3072062
:1050000084C307207CC30720044A08B501F07F034E
:105010004171D25C0321FFF783FF08BD2E5A0200C5
:10502000044A08B501F07F038171D25C0221FFF7C9
:1050300077FF08BD2E5A0200642370B591FBF3F48C
:1050400004FB13110A224CB294FBF2F602FB164346
:1050500003F1300149B20546FFF7E2FF092C02DCFB
:105060002846202103E006F13002284651B2BDE86F
:105070007040FFF7C9BF0000124B01F00F0140F272
:10508000131201709A610178CA0701D50122DA6111
:10509000037803F00201CAB212B10A4B0221D961AE
:1050A000027802F00401CBB213B106491022CA61A2
:1050B000007800F00803DAB21AB102484FF48071A8
:1050C000C161704720C00920FFF70CBF044B59692C
:1050D000C1F38130C1F3412242EA8000704700BF32
:1050E00020C0092038B500210446FFF725FF012123
:1050F000812285B22046FFF713FF102328B290FBD0
:10510000F3F008F06DF94FF0765108F0BDF9A168A1
:1051100008F0B2F838BD000008B5FFF7E3FF054915
:1051200008F0B2F9044908F063FA4FF0844108F03E
:10513000A3F808BD000010410000A0402DE9F04F89
:105140000546ADF5177D0C46914602A82946012279
:105150009A4602F081F88346002853D10CA82146D4
:105160000A2202F079F8834608B102A837E00090DD
:105170000190064607468046FDF7EAFD16A904465B
:105180004FF4007202A86B4602F032F98346A8B9C8
:10519000009A9AB1FDF7DCFDB8EB040268EB080356
:1051A00000EB0208FDF7D4FD009A04460D460CA85A
:1051B00016A901AB02F0C2F9834698B1B9F1000F0C
:1051C00001D0C9F80080BAF1000F01D0CAF8007010
:1051D000A09901B10E6002A802F0B4FA0CA802F086
:1051E000B1FA0FE0019900988142E7D1FDF7B0FDD7
:1051F0004FF0FF321440C7193F1B009C00231D4095
:105200003619B9E758460DF5177DBDE8F08FF0B5B2
:1052100004468DB00F46164621461D4602A80023BF
:105220000122019302F018F8044670B91DB102A8DA
:10523000294602F09FFA02A83946324601AB02F035
:10524000D7F8044602A802F07DFA20460DB0F0BD62
:10525000F0B504468DB00F46164621461D4602A8FD
:1052600000230A22019301F0F7FF044670B91DB133
:1052700002A8294602F07EFA02A83946324601AB5E
:1052800002F05CF9044602A802F05CFA20460DB078
:10529000F0BDF0B504468DB00F46164621461D46BA
:1052A00002A800231222019301F0D6FF044680B920
:1052B00002A80DB1294600E0059902F05BFA02A8A8
:1052C0003946324601AB02F039F9044602A802F031
:1052D00039FA20460DB0F0BD7F2816D931B1FF282C
:1052E00012D80A49803831F810007047074A8BB24B
:1052F00032F81120824203D001318029F6D10B46C9
:1053000003F18000C0B27047002070478E5C02003D
:105310000023064A32F8131031B1884201D001331C
:10532000F7E7034830F81300704700BF8E5D0200B6
:10533000AE5A020010B501200C4605F090F920602D
:10534000003018BF012010BD0120704710B5044681
:1053500005F05AFF02280AD100210B46204640F6EC
:10536000B83205F0DCF9431E5842584110BD012007
:1053700010BD10B5044605F047FF022807D10021F3
:1053800020460A460B46BDE8104005F0F7B810BDB0
:1053900010B5044604F004FB24B1012C06D100F042
:1053A0005BFB01E000F0F8FC044600E0042404F09C
:1053B0000BFB204610BD20B1012801D100F044BBF9
:1053C00004207047F8B504460F4616461D4604F003
:1053D000E7FA3CB1012C0CD1384631462A4600F0A0
:1053E000E3FA04E0384631462A4600F019FD044647
:1053F00000E0042404F0E8FA2046F8BDF8B50446BD
:105400000F4616461D4604F0CBFA3CB1012C0CD1D8
:10541000384631462A4600F067FA04E038463146FD
:105420002A4600F019FD044600E0042404F0CCFAFA
:105430002046F8BD70B504460E46154604F0B0FA95
:1054400034B1012C0AD13046294600F027F903E097
:105450003046294600F01AFD044600E0042404F01A
:10546000B3FA204670BD000010B5044606F056FBA6
:10547000074BB0FBF3F10223B1FBF3F2944202D3EA
:105480000448036110BDB3F5807FF9D00233F3E720
:1054900040420F0000000340044B9860DA68D206D7
:1054A000FCD40248816848B2704700BF0000034046
:1054B00038B5FDF74DFC00F5FA754FF0FF30FFF7FA
:1054C000EBFF4FF0FF30FFF7E7FFC4B2FF2C07D030
:1054D000FDF73EFC2A460023994208BF9042F0D3D4
:1054E000204638BD38B5064C4FF00075E561FFF732
:1054F000DFFF044BA5611A7842F00100187038BD37
:1055000020C0092006C0072070B505460E46FDF7ED
:105510001FFC00F164044FF0FF30FFF7BDFFC0B285
:10552000FF2809D1FDF714FC22460023994208BF49
:105530009042F0D3002070BDFE28FBD1102E06D97A
:1055400028464FF40071002204F0C8F918E02C46F8
:105550004FF0FF30FFF7A0FF20704FF0FF30FFF754
:105560009BFF60704FF0FF30FFF796FFA0704FF089
:10557000FF30FFF791FFAB19E0700434A342E7D18D
:105580004FF0FF30FFF788FF4FF0FF30FFF784FF49
:10559000012070BD38B505460C46FFF789FFFF288E
:1055A0001ED160B2FFF778FFFD2C1BD04FF40071C5
:1055B0004FF0FF32284604F091F94FF0FF30FFF72B
:1055C0006BFF4FF0FF30FFF767FF4FF0FF30FFF743
:1055D00063FF00F01F00411F4A4252EB010038BD3B
:1055E000002038BD012038BD38B5044620060D46E0
:1055F00007D577200021FFF7F7FF01283BD804F0FB
:105600007F041D4B4FF000729A61DA61FFF750FF83
:10561000FF282FD160B2FFF73FFF2816FFF73CFFAE
:1056200045F30740FFF738FF45F30720FFF734FF46
:1056300068B2FFF731FF402C04D0482C0CBF872004
:10564000012000E0952040B2FFF726FF4C2C03D14B
:105650004FF0FF30FFF720FF0A244FF0FF30FFF735
:105660001BFF01460029C0B205DA013C14F0FF041B
:10567000F3D138BDFF2038BD20C00920054A0649B6
:1056800013784869410154BF03F0FD0343F003035D
:105690001370704706C0072020C009207FB505465B
:1056A0000C46FFF7EBFF052D18D12178012900F0FA
:1056B0000F810AD3022940F009818848426982F0AB
:1056C0008063C3F38061617002E1844C606910F013
:1056D000806440F0FD80FFF705FFF9E0804B18780B
:1056E000C00700F1F7800E2D00F2EA80DFE815F028
:1056F0000F00190054005800E800E800E800E80036
:10570000E800E800B200B700B900C300D400734855
:105710004FF00071C161FFF7CBFEFF3818BF0120C9
:10572000CFE049200021FFF75FFF054608B10120C7
:10573000C7E068461021FFF7E7FE0028F7D09DF884
:1057400000109DF808308A09012A07D19DF8091038
:10575000481C00EB03239AB2930246E09DF8070031
:10576000810001EB93129DF80630501C9DF8052036
:1057700003F0030100EB812302F00F009DF80A10F3
:105780009DF8092000EBD11002F0030100EB41006D
:10579000C21F03FA02F328E04FF4007020805CE09F
:1057A000504D2B7803F00400C1B209B3CD20002185
:1057B000FFF71AFF0028BAD14FF0FF30FFF76CFE59
:1057C00068461021FFF7A0FE0028B0D030254FF02A
:1057D000FF30013DFFF760FE15F0FF05F7D19DF8A2
:1057E0000A001022010902FA01F32360284668E04A
:1057F0004920FFF7F9FE0646002898D16846102197
:10580000FFF782FE002892D0297801F00202D0B280
:105810009DF80A1080B101F03F009DF80B10CA09F5
:105820009DF80D1002EB40038A09581C531E00FA24
:1058300003F02060304644E09DF80B30C1F3840251
:10584000511C03F003025B0903EBC202531C4B43E0
:10585000236036E023490A782270002031E0492095
:1058600000E04A200021FFF7BFFE00287FF45FAF71
:10587000204610211DE07A200021FFF7B5FE002808
:105880007FF455AF05464FF0FF30FFF705FE60553A
:105890000135042DF7D1E0E7CD200021FFF7A4FE6C
:1058A00000287FF444AF4FF0FF30FFF7F5FD2046AE
:1058B0004021FFF729FED0F1010038BF002000E0B1
:1058C0000420064B4FF000729A6104E0042002E0CD
:1058D000002000E0032004B070BD00BF20C00920FC
:1058E00006C0072004C4072070B5144605460E46BE
:1058F000FFF7C4FE002C4AD0284B1A78D20748D4B0
:10590000187800F00401CBB2002B44D124484FF0AA
:1059100000722449C2610B7803F00802D0B200B9CA
:105920007602012C0DD158203146FFF75DFE30BBC9
:10593000FE212846FFF72EFED0F1010438BF0024D7
:105940001DE013F0060F03D0D7202146FFF74CFED1
:1059500059203146FFF748FE88B92846FC21FFF759
:1059600019FE28B1013C14F0FF0405F50075F4D1CF
:105970000020FD21FFF70EFE002808BF0124084B80
:105980004FF00071201C996118BF012070BD0420E8
:1059900070BD032070BD022070BD00BF06C007208F
:1059A00020C0092004C4072070B5144605460E46E1
:1059B000FFF764FE002C3CD0204B1878C1073AD486
:1059C0001F494FF000721F4BCA61187800F008029F
:1059D000D1B201B97602012C0ED151203146FFF728
:1059E00003FEF0B928464FF40071FFF78DFDD0F1AA
:1059F000010438BF002414E052203146FFF7F4FDC3
:105A000078B928464FF40071FFF77EFD28B1013CBC
:105A100014F0FF0405F50075F3D14C200021FFF7C9
:105A2000E3FD074B4FF000709861201C18BF012068
:105A300070BD042070BD032070BD00BF06C00720EC
:105A400020C0092004C4072008B5FFF717FE014B4A
:105A5000187808BD06C007202DE9F341FFF70EFEB8
:105A6000554B1A7802F00200C1B2002940F0A08024
:105A70000120FFF7F9FC0A244FF0FF30013CFFF74B
:105A80000BFD14F0FF04F7D14C4B4FF00076402093
:105A9000DE612146FFF7A8FD012801D0002674E051
:105AA000FDF756F94FF4D57100F57A774820FFF7E6
:105AB0009BFD012841D14FF0FF30FFF7EDFC01AA1B
:105AC00010550134042CF6D19DF806000128E5D1CB
:105AD0009DF80710AA29E1D1FDF73AF93C460025C7
