:020000021000EC
:10000000004008207F0101004D010100E1000100D6
:100010003D0101002D0101001D0101000000000053
:10002000000000000000000000000000D9A901004D
:100030000D010100000000005DAA010099AA010065
:10004000FD000100FD00010081450100FD000100EF
:10005000FD00010079900100FD000100E190010028
:1000600049910100FD000100FD000100FD000100BB
:10007000058C0100FD000100FD000100FD000100F4
:10008000FD000100917F0100FD000100FD00010065
:10009000FD000100098B0100FD000100FD000100D1
:1000A000FD0001005D8A0100FD000100FD0001006E
:1000B000FD0001008DAE0100FD000100FD0001000A
:1000C000FD000100FD000100FD000100E4630200ED
:1000D00000C007202001000020C10720E404000028
:1000E00004207146084200F00480EFF309800AF012
:1000F00039BFEFF308800AF035BF704708B50248F2
:1001000000F0CAF9FEE700BF7A5C020008B50248B9
:1001100000F0C2F9FEE700BF905C020008B502489B
:1001200000F0BAF9FEE700BFA05C020008B5024883
:1001300000F0B2F9FEE700BFAD5C020008B502486E
:1001400000F0AAF9FEE700BFB85C020008B502485B
:1001500000F0A2F9FEE700BFC35C020010B5002367
:10016000934203D21C585C500433F9E710BD0023BE
:100170008B4203D200221A500433F9E7704710B5BE
:1001800014480AF029FD13480AF029FD124C134BBC
:100190009C4205D294E807000C34FFF7DFFFF6E736
:1001A0000F48844205D294E803000834FFF7DFFFCC
:1001B000F6E70DF07FFA0AF029FD02F0A9F903F045
:1001C00009F84FF416400BF001F8064800F064F906
:1001D000FEE700BF00400820CC000100D80001006D
:1001E000E0000100355D020008B5024800F054F956
:1001F000FEE700BF5E5D020008B5024800F04CF962
:10020000FEE700BF695D020008B5024800F044F94E
:10021000FEE700BF785D0200124A30B51168034660
:1002200011B94FF08050106010680F4DC41862195A
:100230000E4D0C49AA4297BF0D480C601A180A606F
:10024000084A0C4C1168A14202D90B4810600020EA
:100250003BB10A4A116801311160094A094910602D
:100260000B6030BD24C10720FF7FFFEFFE3F07106A
:1002700004C60720FF3F0820004008202CC10720AB
:1002800028C1072020C107200DF052BA0DF050BA46
:100290000DF056BA0DF054BA30B58BB0044668462E
:1002A0000DF092FE214D089B07982560A3606060C9
:1002B00058B91F491F4A0B6893428ABF03F1604334
:1002C00003F17043A3F5E82363606068B0F5803FF5
:1002D00004D900F17041A1F5E82363601448154B7F
:1002E000016800229942E26006D86D18C5F180537A
:1002F00003F58035E5600BE00F4A914208D80F48BE
:10030000C0F1804303F58012501A0028C8BFE06096
:10031000E1610B490B480A680B490368A2610A684E
:100320006361226120460BB030BD00BF04060000AF
:1003300024C1072000800010FF3F082004C60720CA
:1003400028C1072020C107202CC10720FEE700009C
:10035000014B1860704700BF34C10720014B186083
:10036000704700BF30C1072008B502480DF04EFEAF
:10037000FEE700BFDC34020008B502480DF046FE7F
:10038000FEE700BFF63402000020704701207047EE
:10039000084B70B518680E46154640B10024AC42B3
:1003A00005DA044930570A6890470134F7E72846D0
:1003B00070BD00BF34C10720094B70B518680E46E8
:1003C000154600B970BD0024AC4206DA0448016845
:1003D0000020884730550134F6E725EAE57070BD06
:1003E00030C107207047002070470000074B196894
:1003F0008A68824207D04B68834204D0C9680A1ACF
:100400005042504170470120704700BF7CC0072018
:10041000002070470020704730B504468DB000289A
:1004200037D0684608F092FC9DF800309DF8011026
:1004300003F03F0003909DF8040001F03F029DF897
:10044000025000F01F010492BDF806009DF805203F
:1004500005F01F03069102F00F05C0F30B018AB2ED
:100460000593BDF808106B1E07939DF80330A2F2A8
:100470006C75C1F30B0203F00700089595B26B1E73
:100480000990002503A80A930B950DF0BBFA84E8A8
:10049000210000200DB030BD10B504460AF0C2FAAC
:1004A000013C14F8010F18B140B20AF0CBFEF8E796
:1004B000BDE810400AF0C8BA38B50F4C256815F0F1
:1004C000010516D120460AF05FFF90B14FF40E707F
:1004D000FFF7DAFE094B30223A2180F8345280F8D7
:1004E000352280F8361280F83752186020460AF01C
:1004F00059FF0248006838BD3CC1072040C10720B1
:1005000038B5104C236813F0010517D120460AF0C6
:100510003BFF98B14FF40E70FFF7B6FE012280F852
:100520003422094A31213A2380F8351280F83632D4
:1005300080F83752106020460AF034FF0248006805
:1005400038BD00BF54C1072058C107202DE9F04134
:10055000ADF50A7D0E4608F027F9041E04DD0AF009
:10056000EFF9204609F08EFF264D05AC0FCD0FC4E4
:100570002B6810210DEB010200250AA823600495C9
:1005800009F03CFF074604986422B0FBF2F10491A5
:1005900030461D491D4A0A2308F044FEBD4222D0C0
:1005A0000AAC049B04EB4514A2690BB1B2FBF3F354
:1005B000606994F80C800090A18B029388000A2354
:1005C0000190A2FB03014FF47A7200230CF074FC3B
:1005D00005AB03900E493046626853F8283008F0A6
:1005E00021FE0135DAE709F021FE102804D9304652
:1005F0000849102208F016FE01200DF50A7DBDE81D
:10060000F08100BF103502002F3502005635020080
:100610005B3502007835020010B5ADF5007D0C4663
:1006200068460AF041FC204669464FF0FF3208F068
:10063000C3FD01200DF5007D10BD000030B50C4656
:1006400091B02C49054607F0B7FF002847D008AB0A
:10065000009309A80AA90BAA0CAB0190029103927E
:1006600004932846244906AA07AB07F008FF072889
:1006700001D000203BE09DF8390006999DF8383004
:1006800061F303008DF839000899BDF83A00079A24
:1006900061F30B0062F304030A99ADF83A009DF888
:1006A0003500099A8DF838309DF8363061F3050031
:1006B00062F304038DF835000C999DF837008DF82E
:1006C00036300B9A9DF8343061F3020062F3050373
:1006D0008DF837000DA88DF8343008F059FB08F07C
:1006E000F1FB06490246204608F09CFD012011B0AE
:1006F00030BD00BFA2350200A6350200C954020079
:1007000030B589B004AB0024009302220D4603AB40
:1007100018490394049407F0BFFE022827D107A8C4
:10072000009005AA0398049906AB059406940794D3
:1007300004F076F8024638B1049928460091039BEC
:100740000D4908F06FFD10E0059A069B079C002AF2
:1007500008BF0122002B08BF012328460749B4FB2C
:10076000F2F2B4FBF3F308F05DFD012000E0204657
:1007700009B030BD49470200BF350200DE35020036
:100780002DE9F0410C46ADF5866D3049054607F080
:10079000A0FF2F490746284607F0C4FF2C492846EA
:1007A00007F0E0FF284607F0FDFF0122014601A8FF
:1007B00006F0C4F8064640B1284607F0F3FF254985
:1007C0000246204608F02EFD3AE00BAD314640F2DD
:1007D000014228460DF046F8009601F041FE8046A1
:1007E00001A829464FF480626B4606F073F990B178
:1007F00001A806F019FB8FB101F032FEB0EB080042
:1008000014BF03460123144920463246B6FBF3F3D6
:1008100008F008FD02E0009B3BB9E9E720460F49DC
:100820004FF0FF3208F0C8FC0AE0F618E854002F39
:10083000D6D1204629464FF0FF3208F0A9FCCFE779
:1008400001200DF5866DBDE8F08100BF0C36020079
:10085000494702001536020029360200834D020086
:10086000F0B5C1B00DAB0025009302220C460CABD5
:100870005C490B950C950D9507F00EFE022803D1EF
:100880000D980CF00CFE05460C9808B956490C91D1
:1008900016A80C9906F06BFB034678B12046534925
:1008A0000C9A08F0BFFC9AE020AA802616A80EA990
:1008B0001492159606F0ADFB013D08B9002DF3DC4E
:1008C00020464B490C9A08F0ADFC00252E468020AE
:1008D00020AB15900EA916A8149306F09AFB0028D9
:1008E00065D19DF94110002961D09DF8407007F055
:1008F0001002D3B213B10135442205E00B990E98D2
:1009000001360A180B922D2207F0020C17F0010F86
:1009100007F0040E5FFA8CF007F020070CBF2D23C0
:1009200052235FFA8EF100280CBF4FF02D0C4FF0D0
:10093000480CF8B200290CBF4FF02D0E4FF0530EAB
:1009400000280CBF2D214121BDF83C00029141122D
:10095000BDF83E7001F2BC718DE800500391C0F308
:100960004311049100F01F00F912C7F345170691D7
:100970000590079740A951F8C80D093108900991D1
:1009800020461C4908F04EFC20461B494FF0FF3220
:1009900008F0FEFB20A920464FF0FF3208F0F8FBDC
:1009A000204616494FF0FF3208F006FC8FE700950D
:1009B00040AD55F8D43D12493246204608F032FC8D
:1009C0000C9829460AAA06F053FB40B90A9B0B99DA
:1009D0009A7820464A430B49520808F023FC01202C
:1009E00041B0F0BD494702004436020047360200DC
:1009F0006B36020086360200B3360200834D0200D9
:100A0000B7360200E136020070B50E46054607F023
:100A1000C9FE0446284607F0C5FE06F0F6FB064A66
:100A2000064B0749002818BF13463046224608F0F7
:100A3000F9FB012070BD00BFA13802009738020009
:100A4000F536020070B50E46054607F0ABFE0446CB
:100A5000284607F0A7FE06F06FFB064A064B07493B
:100A6000002818BF13463046224608F0DBFB012061
:100A700070BD00BFA1380200973802001137020094
:100A80007FB503AB0024009302220E4602AB0F4950
:100A90000294039407F000FD022814D1029D039CE8
:100AA0002846214606F058FC09490A4A23460028F0
:100AB00014BF104608460090074930462A4608F001
:100AC000B1FB012000E0204604B070BD49470200A0
:100AD00097380200A13802002337020030B58DB0EC
:100AE0000C46054607F05EFE0A22014602A805F004
:100AF00025FF40B1284607F055FE1F490246204613
:100B000008F090FB35E08DF8030001901B4920466A
:100B10007E2242F2107308F085FB1949204608F046
:100B200081FB236820461B680DF1030142F210721D
:100B3000984718B19DF903007E2803D102A806F05A
:100B400073F916E002A80DF10301012201AB06F0D2
:100B500067F828B10199012902D020460949DEE74A
:100B60002268204653689DF903104FF0FF329847E2
:100B7000D7E701200DB030BD3B37020062370200DD
:100B80009A370200BA3702002DE9F043ADF5417DF6
:100B9000002303AD2B60029302220C4600954049CE
:100BA00002AB07F079FC022806D020463D494FF001
:100BB000FF3208F001FB6EE016A8296806F0D7F9AD
:100BC00018B1204638492A6807E016A8029906F0AD
:100BD000CEF928B13549029A204608F023FB5AE0A5
:100BE00040A94FF4807204A807F01AFC09A880A954
:100BF0004FF4807207F014FC20A880211490159106
:100C000016A80EA906F005FA00283ED19DF941204C
:100C1000002A3AD09DF8405005F01003DDB2002DB7
:100C2000EAD10DF14106029A334604A8204907F0A3
:100C300030FE039A33461E4909A807F02AFE04A88D
:100C400007F0B0FD804609A807F0ACFD074604A8F0
:100C50000E9E07F0A7FD814609A807F0A3FD2A46CE
:100C600001462B460095484603F0DAFD1149124A29
:100C70000096002814BF1046084601900F492046F0
:100C800042463B4608F0CEFAB6E709A807F0DCFB7F
:100C900004A807F0D9FB01200DF5417DBDE8F083E4
:100CA00049470200E1370200263802004B380200B3
:100CB0006B38020097380200A13802007138020038
:100CC00070B50C462149054607F06AFD064628B175
:100CD000FFF716FC002100F2352009E028461C49E8
:100CE00007F05EFD50B1FFF7E7FB314600F235201B
:100CF0000A4606F0C3FB174B17491CE02846174964
:100D000007F04EFD48B1FFF7FBFB012200F2352151
:100D100005F0C4FD124B13490DE02846124907F0B7
:100D20003FFD88B1FFF7C8FB012200F2352105F035
:100D3000B5FD0E4B0E49002808BF19464FF0FF3293
:100D4000204608F039FA012070BD00BFF8380200D3
:100D500002390200903802009A3802000F3902006E
:100D6000A7380200B738020018390200CE38020056
:100D7000DC38020010B501200C4607F045FB38B105
:100D800000210A460B4608F003FF2046044901E013
:100D9000044920464FF0FF3208F00EFA012010BD42
:100DA000243902003A39020038B5064C236833B9B9
:100DB0001C20FFF769FA054607F01AFF2560206836
:100DC00038BD00BF48C107202DE9F0430C4687B06D
:100DD0003C49064607F008FC3B498046304607F090
:100DE00003FC3A498146304607F0FEFB00270546E2
:100DF000039704970597B8F1000F1DD0304634498A
:100E000003AA04AB07F03BFB022807D02046314978
:100E10004FF0FF3208F0D0F93D464FE0FFF7C4FF36
:100E20009DF90C109DF9102008F0D7FA0499C2B270
:100E300000912046284924E0B9F1000F2BD005ABE2
:100E400000933046254903AA04AB07F018FB03289A
:100E500007D0204622494FF0FF3208F0ADF9454651
:100E60002CE0FFF7A1FF9DF90C109DF910209DF9D2
:100E7000143008F0A3FA40B104981A49059A00907A
:100E80002046039B08F0CEF917E020461649039A46
:100E900008F0C8F911E088B10226FFF785FF71B2AA
:100EA00008F0A8FA20B120461049324608F0BAF9F5
:100EB0000236B6F5807FF0D100E00125284607B064
:100EC000BDE8F0836C480200543902005A39020030
:100ED000633902006F39020090390200B139020013
:100EE000C1390200E8390200083A0200253A02003E
:100EF0002DE9F04F5E4C93B023680E4633B92020A5
:100F0000FFF7C2F9054608F0A9F82560D4F800807B
:100F1000FFF7D2FA002512A941F8105D00F2352042
:100F20000DAA06F0A5F848B90D9A0E999769907820
:100F3000BC1E414344434D08670800E02F46DFF8DC
:100F40003491D9F8003063B90C20FFF79DF90446BD
:100F5000FFF72AFF9022206000202271A060C9F8CC
:100F600000404449086803F049FC04460BF05EFF6A
:100F700083460BF041FD014620460BF087FC3E49BD
:100F80000BF08EFD0BF052FF0B900FA809F034FE12
:100F900004F05CFB38B308F00DF804F03FFB0024CC
:100FA0000346A146A2469C420AD020460A9304F07A
:100FB00095FB504584BFA14682460A9B0134F2E767
:100FC00008F00CF8642303FB0AF22C483B46B2FB02
:100FD000F0F1C1F164028DE80406304628492A4642
:100FE00008F020F905E0304626492A463B4608F03D
:100FF00019F9254C23681BB90120FFF745F920603A
:10100000206803F0BFFB044607F05CFF9DF8412019
:101010009DF84010019001F01F0302F00F00BDF891
:10102000422003939DF83E300290C2F30B0081B240
:1010300003F01F029DF83D009DF83C30049105929D
:1010400000F03F0103F03F02079200940691B8F8C8
:1010500018005A460890B8F81A10304609910B9BB0
:101060000A4908F0DFF8012013B0BDE8F08F00BF97
:1010700038C1072044C1072000002041A08601009C
:10108000453A0200793A02004CC10720873A020033
:1010900038B5064C236833B91420FFF7F5F8054638
:1010A00006F04CFE2560206838BD00BF50C1072007
:1010B00008B54FF0FF320846094908F07DF8FFF700
:1010C000E7FF06F02DFE4FF4FA6009F0DBF94FF070
:1010D00080430020AA221A721870012008BD00BFA8
:1010E000EF3A020073B50C461349054607F058FB6A
:1010F00050B1FFF7CDFF06F013FE20460F494FF029
:10110000FF3208F059F815E0FFF7C2FF06462846FF
:1011100007F048FBC6230146094A00933046094BB5
:1011200006F0E6FE284607F03DFB0749024620464A
:1011300008F078F801207CBD003B0200063B02006D
:101140001F3B020024350200523B020070B58AB0FA
:1011500005460C4607F08AF90B2803DD20461B499B
:101160000C222DE0284607F01DFB012201466846AF
:1011700005F0E4FB06462846EEB907F013FB144BD6
:1011800001681960426813495A608068986043F8A2
:10119000041C039A1049204608F044F8684605F0FC
:1011A00043FE4FF47A7009F06DF94FF08043AA22A4
:1011B0001A721E7006E007F0F5FA0849024620464A
:1011C00008F030F801200AB070BD00BF743B020087
:1011D000484002400DD0ADDE9B3B0200E33B0200E5
:1011E00070B5414EA6B033680546DB070C460CD4FB
:1011F00030460AF0C9F840B14FF480600CF098FA1C
:101200003A49086030460AF0CDF82846384907F0D8
:10121000EBF9064620B30021802206A80CF022FB41
:10122000002105A8049105910090324906AA04AB5B
:10123000284607F024F92D4A049B116806A8059A50
:1012400013B903F077FB01E003F095FB2A4A2B4921
:101250000346002B08BF1146204607F0E3FF32E0AB
:101260002846274907F0C0F900283BD0284604AAA1
:10127000244905AB049605968DF80F6007F0FFF83A
:10128000049D05982A18B2F5806F0DDD20461E4991
:101290004FF4806210E015489DF80F100268515518
:1012A0009DF90F300135F618049B0598E91A814223
:1012B00005DB16492046324607F0B4FF03E0B5F5DA
:1012C000806F02DBF5E701200CE0226820461368FE
:1012D0000DF10F014FF4FA6298470028DBD1204648
:1012E0000B49BAE726B070BD60C107205CC107207A
:1012F0000E3C0200153C0200F83B0200FC3B0200E1
:10130000253C02002C3C0200363C02006A3C0200F4
:101310005A3C020030B50C4687B00B49054607F031
:1013200081FFA17AE07A0091E18801900291208901
:10133000A18803900491628823882846034907F016
:1013400071FF07B030BD00BF7B3C0200B13C020022
:101350001FB501A80C4602F0F3FC02F0E1F901A967
:1013600002462046FFF7D6FF012004B010BD000062
:10137000F0B58DB003AB002500930C4617463849F5
:10138000022202AB0295039507F086F8A84239DDE8
:1013900002980CF084F8C6B2039818B10DF02DF93C
:1013A000C5B200E0054604A8002103F05BF830B1A7
:1013B00020462C494FF0FF3207F0FEFEF3E70037DE
:1013C00018BF01270220009039463046039A2B4669
:1013D00002F0D8FA10B9204623490EE0002F3CD085
:1013E00004A84FF47A7103F047F8002830D09DF834
:1013F0001010B1422CD107E01C494FF0FF3207F02A
:10140000DBFE2AE0284629E09DF817200C2A04D1AB
:10141000204606A93246FFF77DFF2046002DEBD17E
:10142000134907F0FFFE9DF817309D420BDA206844
:101430000CA94A19436812F9181C20464FF0FF32D4
:1014400098470135EFE720460A4907F0EBFE04E034
:1014500020460949029A07F0E5FE01200DB0F0BDD3
:1014600049470200CF3C0200F13C02002D3D020042
:10147000193D0200454402004A3D020038B50D46C0
:1014800007F092F90446C0B202F03EF9054A064B55
:101490000649002808BF13462846224607F0C2FE28
:1014A000012038BD703D020097380200773D0200F0
:1014B00030B58BB00AAA4FF47A730C4642F8243D3B
:1014C000174906F0DCFF002502A8019902F0CAFFC7
:1014D000E0B1204613499DF8082007F0A3FE00253F
:1014E0009DF80F0085420BDA23680AA94A1912F900
:1014F000181C5B6820464FF0FF3298470135EFE734
:101500002046094907F08EFE0125DDE72DB920466A
:1015100006494FF0FF3207F04FFE01200BB030BDFF
:10152000333C02008E3D0200824D0200A53D0200C8
:1015300037B50C4602F06AFA16490546204607F010
:1015400071FE154920462A4607F06CFE20461149D7
:1015500007F068FEDDB11149204607F063FE204622
:101560000C4907F05FFE0020451CEDB202F038FA8E
:1015700048B181780278437800912046084907F005
:1015800051FE2846F0E72046024907F04BFE0120B5
:101590003EBD00BFB63D0200D13D0200EB3D020062
:1015A000063E020038B5064C236833B94C20FEF7DE
:1015B0006BFE054607F0AAFB2560206838BD00BF1A
:1015C00064C107202DE9F04FADF5757D80220446FA
:1015D00034AF894614A800210CF044F90021802280
:1015E00038460CF03FF903AE0023336020460096E6
:1015F000714914AA3B4606F042FF032801D000209F
:10160000D5E00AA814A9012205F098F9054600289A
:10161000F5D1FFF7C7FF0446306854A984F84700A6
:10162000802205A88DF80B50049506F0F9FE00976E
:101630004846624914AA336807F0F4FDA8460AA890
:1016400074A94FF4007204AB05F044FA38B10AA84B
:1016500005F0EAFB05A806F0F7FE0120A7E00499D3
:101660000029F4D06F1C5649049A204607F0DAFD91
:10167000226820469668B04700267D1EB246049B2D
:1016800020689E420DD20DF5E87B1BF906104368D9
:101690004FF0FF322046984716F90B1001368A4466
:1016A000EDE781682046884705A807F07BF80646E5
:1016B00005A806F0DEFE4FF47A7302463146204656
:1016C00007F088FD0121202205A807F016F805A8DB
:1016D00007F06AF850451FD005A807F065F83949AA
:1016E00003465246484607F09DFD3749204607F01D
:1016F00099FD206881682046884722682046136843
:101700000DF10B014FF47A7298470028F5D1781C3F
:10171000022F9CD80746A6E7049A2C49009243461C
:1017200034AA204607F07EFD26682046B368984715
:1017300005A807F037F8064605A806F09AFE3146D8
:1017400002464FF47A73204607F044FD05A820496D
:1017500006F020FFD0B905A807F024F81D4902467D
:10176000484607F05FFD1849204607F05BFD2168F9
:1017700020468A689047236820461B680DF10B01BC
:101780004FF47A7298470028F5D1C0E705A81249AE
:1017900007F0BDF8049811498044424648460D9B25
:1017A00007F040FD002D3FF44AAF013D47E70DF53E
:1017B000757DBDE8F08F00BF213E0200303E020083
:1017C000473E0200593E0200824D0200803E020068
:1017D000963E0200993E0200834D0200D13E020077
:1017E0002DE9F04186B006AA0026074642F80C6DA6
:1017F0000D463C4906F043FE38460121202206F002
:101800007CFF039B002B63D0384606F02FFE002898
:101810005ED0FFF7C7FE8DF80B60044620680DF11F
:101820000B01066805222046B04706460028F5D180
:101830000399384684F8471006F0B4FF4FF0FF32A2
:101840000146204607F0B8FC226820469768B84752
:10185000254B0596186837460490216820460B688A
:101860004FF47A720DF10B01984770B105A8411C35
:1018700003220BF0DDFF9DF80B8005A804A90422CC
:101880008DF817800BF0BCFF38B91821B7FBF1F3C6
:1018900001FB13726AB101330BE028684FFA88F13B
:1018A000436801222846013798470028D5D10136E0
:1018B000D3E728460D493A4607F0B4FC76B16120DB
:1018C00000900B49284632460A4B07F0ABFC05E076
:1018D000284609494FF0FF3207F06EFC012006B0A0
:1018E000BDE8F081333C0200773C0200DD3E02009F
:1018F000043F0200BD3F0200F93F020043682DE9AA
:10190000F041994204460D4617D3C06889000CF097
:1019100007FCA668E060B700AE420DD21020FEF7CB
:10192000B3FC0021102280460BF09CFFE0680136DA
:1019300040F807800437EFE76560BDE8F0810000FC
:101940002DE9F743304D07462C688946002C49D1D4
:101950002420FEF799FC0423064680E818008460E2
:10196000C46008214FF00108FFF7C8FF86F8208007
:1019700030462649264A274B00942E6005F0DEFFAC
:1019800028682549254A264B009405F0D7FF28688A
:101990002449254A254B009405F0D0FF28682449A6
:1019A000244A254B009405F0C9FF28682349244A9E
:1019B000244B009405F0C2FF28682349234A244B96
:1019C000CDF8008005F0BAFF28681F49214A224B54
:1019D000009405F0B3FF009428682049204A214B69
:1019E00005F0ACFF3846204906F0DAFE18B138465B
:1019F0001E4906F08CFF044B394618684A4603B06E
:101A0000BDE8F04306F06AB868C10720E11701009D
:101A1000254002002C400200C5150100664002006E
:101A20006F400200B1140100C3400200C640020032
:101A30007D1401001E450200E9400200311501003D
:101A40002F4102001341020071130100784102008E
:101A500036410200774102007C410200511301002F
:101A6000BC410200A1410200834D0200C2410200BC
:101A700037B590F90450144600934AB223462946DC
:101A8000006807F0A6FC3EBD10B5044694F90410AA
:101A90002D220823006807F091FC206894F90410B7
:101AA0003122082307F08AFC012010BD10B504463E
:101AB0002246084606233221FFF7DAFF204610BDF2
:101AC00008B5034693F9041020220F23006807F09D
:101AD00075FC012008BD38B504460D46084622466F
:101AE00028210123FFF7C4FF28462921621C012376
:101AF000FFF7BEFF28462A21A21C0123FFF7B8FFEB
:101B000028462B21E21C0123FFF7B2FF28462C2197
:101B1000221D0123FFF7ACFF28462D21621D012362
:101B2000FFF7A6FF204638BD014B0360704700BF9A
:101B3000D04102000120704701207047012070470A
:101B4000014B0360704700BFD0410200034B10B54A
:101B500004460360FEF79CFB204610BDD041020006
:101B6000034B10B504460360FEF792FB204610BD00
:101B7000D0410200F8B5456D066F2F680446314626
:101B800038460BF049F950B1206E52490AF080FEF8
:101B900050492066E06D0AF079FEE0650EE03846B7
:101BA00031460BF01BF948B1E06D4A490AF070FE6E
:101BB0004849E065206E0AF069FE20666F68666F2E
:101BC000384631460BF00AF948B1E06D41490AF058
:101BD0005FFE4049E065206E0AF05AFE0DE038468F
:101BE00031460BF019F948B1E06D3A490AF04EFE62
:101BF0003849E065206E0AF049FE2066AE68A56FA0
:101C0000304629460BF0EAF840B1A06E31490AF09F
:101C10003DFE002106460BF0FFF80CE03046294659
:101C20000BF0FAF848B12B49A06E0AF031FE2A49B0
:101C300006460BF0D3F800B1A666A36D27491D68D0
:101C400028460BF0CBF820B1E06E22490AF020FEC6
:101C500008E0284621490BF0DFF820B1E06E1D496D
:101C60000AF014FEE066E16E206E0AF019FF1A49D0
:101C700004F1340506460BF0CFF800B9164E324693
:101C80002846012100F06AF8E16EE06D0AF008FFD5
:101C9000114906460BF0C0F800B90F4E32462846EF
:101CA000002100F05BF8E16E606E0AF0F9FE0A496F
:101CB00006460BF0B1F800B9074E2846022132461D
:101CC00000F04CF804F144000321A26E00F0E6FAA3
:101CD0000120F8BDCDCC4C3D0000C8420000404181
:101CE00070B50023044603674367836704F1340536
:101CF0001420E0610021284600F0AAFA01212846BC
:101D000000F0A6FA04F144060221284600F0A0FAE9
:101D10000321304600F09CFA0E4A0F494FF07E53E3
:101D2000E366E26522666266A1662846002100F04D
:101D300015F828460121226E00F010F828460221ED
:101D4000626E00F00BF830460321A26E00F0A6FA96
:101D5000012070BD00007041000048422DE9F041B3
:101D6000904604460E4609F0E3F90AF041FE1A498E
:101D70000AF096FE1949074640460AF045FFA56855
:101D800080462946E0680AF081FD014640460AF097
:101D900087FE014638460AF083FE29460AF078FDA0
:101DA0000BF06AF80E4B052E0FD8DFE806F003059E
:101DB00007090B0DD86108E0186206E0586204E0DC
:101DC000186402E0586400E098646268012101FA36
:101DD00002F01865BDE8F0816F12833A0000C84236
:101DE00000800140014B0360704700BFD0410200FA
:101DF000034B10B504460360FEF74AFA204610BDB7
:101E0000D041020000000000F7B59F4D0446AB69C9
:101E100043F40020A861142006F097FDE9696846A4
:101E200041F40022EA61A16CFFF740FE009EBDF87C
:101E30000470E16C26656846A4F85470FFF74BFE09
:101E4000009DBDF80430C4F85650A4F85A30B4F9D7
:101E500056000AF0D1FD0AF0B7F900228B4B0AF0C8
:101E600031FB00228A4B0AF02DFB83A3D3E9002328
:101E70000AF0FEF90AF0B6FC86490AF011FE0146A6
:101E8000606B0AF005FD6063B4F958000AF0B4FD18
:101E90000AF09AF900227D4B0AF014FB00227C4BD9
:101EA0000AF010FB74A3D3E900230AF0E1F90AF069
:101EB00099FC78490AF0F4FD0146A06B0AF0E8FCB1
:101EC000B4F95A60A06330460AF06CF9002221F0A0
:101ED0000041714B0AF05CFCD8B130460AF08CFD31
:101EE0000AF072F90022694B0AF0ECFA0022684B02
:101EF0000AF0E8FA60A3D3E900230AF0B9F90AF07E
:101F000071FC64490AF0CCFD0146E06B0AF0C0FCAC
:101F1000E063624A10680AF057F959A3D3E9002335
:101F20000AF0A6F900225E4B0AF0CCFA0AF05AFC3D
:101F30002064B4F952000AF035F90546B4F95400AA
:101F40000F460AF02FF902460B462846394609F09B
:101F500003FD0AF047FCE065B4F950000AF022F9ED
:101F60000646B4F954000D460AF01CF902460B4629
:101F70003046294609F0F0FC0AF034FC054620669C
:101F8000B4F950000AF00EF90746B4F9520021F0F6
:101F900000460AF007F921F0004E84467346624677
:101FA0003846314609F0B2FF0646B4F954000F46F0
:101FB0000AF0F8F821F0004C03461A463046634612
:101FC000394609F0A3FF0AF0EDFBA4F86800B4F964
:101FD00056000AF011FD0AF0F7F800222B4B0AF028
:101FE00071FA00222A4B0AF06DFA23A3D3E90023E9
:101FF0000AF03EF90AF0F6FB26490AF051FD616B42
:102000000AF046FC27490AF04BFD27490646E06DD9
:102010000AF046FD014630460AF03AFC6063B4F926
:1020200058000AF0E9FC0AF0CFF80022174B0AF03A
:1020300049FA0022164B0AF045FA0FA3D3E9002310
:102040000AF016F90AF0CEFB12490AF029FDA16B3D
:102050000AF01EFC13490AF023FD134906462846E0
:102060000AF01EFD014630460AF012FCA063012072
:10207000FEBD00BFAFF300804AD8124DFB210940DE
:10208000B81E85EB51B8BE3F20C0092000408F40EC
:10209000008066400AD7A33B00406F4074C1072010
:1020A0000080624048E17A3F0AD7A33CAFF300804A
:1020B00038B51A4C63685A0011D51948416801F0C7
:1020C00001024260E36843F08040E060216901F072
:1020D00080422261636943F08040606138BDA0683E
:1020E000430019D50E4DA8680AF082FCE2680D493C
:1020F00042F080430860E360686840F00101696075
:102100006A6842F002036B60606900F080416161BF
:10211000226942F08043236138BD00BF80800240C5
:102120000040094074C10720343070474030704788
:1021300070B52E4E044633684BB90820FEF7A4F85C
:102140000546FEF731FE2860A72028713560274933
:10215000274E0A683368A2644BB90820FEF794F84A
:102160000546FEF721FE2860D32028713560214BFB
:102170001F49D3F8C4000A6840F40001E264C3F8C0
:10218000C410D3F8AC2102F48040C3F8AC01A3F52D
:10219000D023596841F001025A60586840F00201AA
:1021A0005960A3F5D023DA68134902F0C000D86063
:1021B0000B681E2043F400220A6000210F4A06F03B
:1021C000DBFC002005216063A063E06360642064A1
:1021D000E161A06CFFF758FC28B1E06CFFF770FCE0
:1021E00008B1012070BD002070BD00BF6CC1072088
:1021F00070C1072000C00F4020C00920B12001009D
:10220000114B70B50026036005464660012106208B
:102210000E4C08F0FDFD0121062008F011FE022001
:10222000FF2260602260606108F082FF3221B0FB13
:10223000F1F30920A3616060A660226F284622F0B6
:102240000F01216770BD00BFD04202000080014035
:10225000052930B51ED8012303FA01F44268224350
:10226000426001FA03F0032404FA00F403FA00F0D8
:10227000093103FA01F1084A156925EA04041461D9
:10228000146920431061A2F5A032D06C0143D164DF
:10229000184630BD002030BD00C002402DE9F0419D
:1022A000904604460E4608F043FF0AF0A1FB194988
:1022B000074640460AF0A8FCA56880462946E06823
:1022C0000AF0E4FA014640460AF0EAFB29460AF021
:1022D000DFFA014638460AF0E3FB0AF0CDFD0E4B6B
:1022E000052E0FD8DFE806F0030507090B0DD861AE
:1022F00008E0186206E0586204E0186402E05864DE
:1023000000E098646268012101FA02F01865BDE8F6
:10231000F08100BF0000C8420080014038B50D4682
:10232000044608F005FF074B0221B0FBF3F0B0FBB9
:10233000F1F2954201D3216138BDB1F5807FFAD029
:102340000231F4E740420F0001480BF05FBE00BFCE
:10235000084302007FB500F235260D4601223146C2
:1023600004F09CFAC4B24CBB04A941F8044D3046B9
:1023700002AA04F07DFEF8B9029A03999469937851
:10238000A21E5A435943540840F2E73348089C427E
:102390000F49104B8CBF4FF48062012288BF0B465F
:1023A000B0FBF2F18DE80A000B482946B4FBF2F2CB
:1023B0000BF014FE012008E0084B00E0084B094830
:1023C000294662B20BF00AFE002004B070BD00BFC7
:1023D000424302003F4302004C43020045430200D7
:1023E000494302007A43020038B5AA224FF08043E5
:1023F00055201A72187208F011FA174C02284FF083
:1024000000014FF00100D4E9002317D1121843EB6B
:102410000103C4E9002308F09DFDD8B108F08CFD4C
:10242000D4E900010A2200230AF046FD0A25A0FB98
:10243000052305FB0133C4E9002338BD121843EB23
:102440000103C4E9002302F021F80020BDE8384070
:1024500008F0C8BB38BD00BF90C10720FFF7C4BF5C
:10246000024BD3E9002310461946704790C107205C
:1024700038B5084D2B684BB90820FDF705FF044619
:10248000FEF792FC2060402020712C600149086812
:1024900038BD00BF88C1072038B5054C256825B96F
:1024A0000120FDF7F1FE05702060206838BD00BFF7
:1024B00084C1072038B5094D2B685BB90C20FDF7A6
:1024C000E3FE0446FEF770FC00212060902020719E
:1024D000A1602C60014A106838BD00BF44C10720CC
:1024E00010B5044C23681BB90120FDF7CDFE206018
:1024F000206810BD4CC1072010B5044C23681BB9DF
:102500000120FDF7C1FE2060206810BD80C10720BA
:10251000B14AB24970B54023B14D4FF000704FF44D
:1025200080348B6190618C612E68ADF5047D26F05E
:10253000F0032B60286840F050042C602E6826F4CD
:1025400040532B60086840F040040C602E6826F46D
:102550007C232B60286840F428242C602E6826F405
:1025600070032B60286840F420042C602E6826F04D
:1025700040432B60286840F000442C606E6826F0D1
:102580003C036B60686840F028046C606E6826F05D
:1025900003036B60086840F480340C606E6826F4B6
:1025A00040536B60086820F480040C60E96821F4F3
:1025B0004036EE60136843F0807010606C6824F45D
:1025C000402169606E68874C46F480236B60A86880
:1025D0000440AC60116841F4897646F00103136051
:1025E000A86820F47014AC60A96821F07046AE6051
:1025F000136823F446401060EC6824F03001E96071
:10260000EE6846F03003EB60E86820F47014EC608C
:10261000156845F000711160166826F0806313603C
:1026200008F06EFA4FF4FA6006F08FF9FFF78CFEAF
:1026300008F07EFD0AF0DCF96B490AF0E5FA09F0D2
:10264000C3FD02460B4669480BF0C8FC08F0CEFA01
:10265000042811D10022664805920568654E04AC35
:102660000495FFF771FEF16C6348326D736D009451
:102670000BF0B4FCFFF768FE0C20012108F0C8FB4A
:102680005E4C0C20032108F0DBFB4FF400112160AD
:1026900008F04EFD0223C008594AB0FBF3F59542FD
:1026A00004D8266846EA0321216003E00233B3F52B
:1026B000807FF1D10A20012108F0AAFB0A20012124
:1026C00008F0BEFB4F480725022405600121446045
:1026D000FFF724FE06F0FEFB1520012108F098FB11
:1026E0001520012108F0ACFB47480121056044603A
:1026F000FFF714FEFEF758FB642106F043FA10B909
:1027000042480BF083FC01F087FE10B940480BF003
:102710007DFC01213F4808F0E3FBFDF7CDFE3E497B
:10272000FFF718FE0646B8B93C480BF057FCFDF71A
:10273000C3FE3146324600F2352004F09FFE384B8E
:10274000384A002814BF104618460BF05FFCFDF70E
:10275000B3FE3149FFF7FEFD334C206810F0010550
:1027600017D1204608F010FE98B14FF40E70FDF717
:102770008BFD2E4A012131263A2380F8341280F84D
:10278000356280F8363280F837521060204608F003
:1027900009FE264C26492068264DFFF7DBFD194827
:1027A0001821FFF7BBFDFFF7CFFD286848B90820C7
:1027B000FDF76AFD0646FEF7F7FA38213060317101
:1027C0002E601C4B186801F0C9FE0446B0BB1A48C5
:1027D0000BF01CFC33E000BF20C0092000C0092022
:1027E00000C00240F0FCFCFF00247449B843020022
:1027F0004440024000400240D043020000400340F9
:102800003F5DC600000003400080084048440200CD
:1028100079440200E92301009E440200A64402001C
:10282000AD430200B243020054C1072058C1072043
:10283000C638020078C10720CF4402000124FFF708
:1028400039FE01F0AFFF054618B971480BF0DEFB09
:102850002C46FFF70DFE01F04CFF064618B96D48F7
:102860000BF0D4FB34466C4D2A681AB90120FDF7F1
:102870000BFD2860286801F0D3FEFFF731FE01F060
:102880007FFFFFF709FE01F051FFFFF735FE01F072
:102890007BFFFFF701FE002101F04AFF94B9FFF72B
:1028A00053FDFFF7E5FD2D2101F0ECFEFFF7E0FD04
:1028B0002D2101F0F3FEFFF7EFFD4FF0FF3101F0A6
:1028C00037FF0CE0FFF7D4FD0646FFF7F3FD01F0FC
:1028D00095FF0AF0ABFA41B2304601F0EBFE00235F
:1028E0004E4804A907220493059302F002F8A8B900
:1028F00004A80AF0D4FDC4B2601EC1B2FD2905D9F6
:1029000004A9464A46480BF069FB07E045482146C2
:10291000424A0BF063FB204600F0F6FEFFF7E0FDB5
:1029200001F030FF054600200DF076F828180BF076
:102930008BFB4FF40072002104A80AF093FF04A857
:1029400008F0B2FA04A938480BF048FBFFF7FCFC8A
:102950008022002104A80AF085FF04A802F04CFEA2
:102960009DF91020531C05D004A9D2B22F480BF0BA
:1029700035FB29E0FFF7C0FD01F008FF09281DD154
:102980002B480BF043FB04A92A480BF091FC04A947
:1029900029480BF023FB29480BF038FB002328487B
:1029A00003A903930BF084FC9DF90C60592E03D10D
:1029B00004A802F003FE07E0224803E022480BF0DF
:1029C00025FB22480BF022FB4FF2080420686168C7
:1029D0004FF470434FF20402850A8E0AA46811680E
:1029E0001B481A680BF0FAFA2A46314619480BF0D0
:1029F000F5FA214618480BF0F1FAFFF7A5FC174845
:102A00000BF004FBFFF7A0FC0DF5047D70BD00BFCB
:102A1000EA440200044502007CC107201D45020073
:102A2000234502004E450200C95402007B450200C6
:102A300097450200B9450200BE450200D945020093
:102A40001C4602002046020038460200664602008C
:102A500098460200C4460200F14602000E470200FA
:102A600001207047F8B591E860000F7A14468FB1E5
:102A7000082A0FD1304605F0F9FC00281BDD284656
:102A80000E494FF0FF3206F083FB3046012105F07E
:102A9000F4FD08E00A2C05D00D2C03D03046214669
:102AA00005F0D7FE4FB12B6828465B6821464FF0F2
:102AB000FF329847F8BD0724F5E7F8BD4847020004
:102AC0002DE9FF41CE6B04460D4601AF5EB94FF4D0
:102AD0007A7007F0D7FC31460C2238460AF0C2FE65
:102AE00097E807005EE00B6C01F13406186807C830
:102AF00087E8070000278DF80370EA6B97422DD214
:102B0000F368511E53F827008F420CBF05220022A4
:102B100000684FEA87080179002949D003680DF160
:102B200003011B689847002842D0B268974241D2FF
:102B3000F16851F8080001AB07C883E8070019469F
:102B40009DF903202846FFF78DFFFFF789FCD5E9A3
:102B50002223121843EB0103C5E92023029805F054
:102B600085FC0746029805F084FC421E974216DA5F
:102B7000D5E92201014320D0FFF772FCD5E92023DB
:102B8000994208BF904218D3FFF76AFCD5E9222387
:102B9000121843EB0103C5E920230023019304A885
:102BA00010E9070084E80700204604B0BDE8F08182
:102BB0000137A2E706F11000BDE79DF903100A29CD
:102BC000EDD0002799E70000F0B5054685B0204814
:102BD0000BF004FA01A82946FFF772FF019C1CB90B
:102BE0001C480BF013FA30E0029E304605F03EFC24
:102BF00000282ADDFFF734FC0746F8B1B5F8743039
:102C00003146581CA5F87400224605F1500004F026
:102C100065FF114900250A68009223681DF9051017
:102C20005B6820464FF0FF3201359847042DF4D100
:102C3000FFF716FCC11B09480BF0D0F9304605F030
:102C40001AFC2068816820468847012005B0F0BD45
:102C50004B470200834D0200224702005147020009
:102C600038B5064C236833B92020FDF70DFB054627
:102C700006F0F4F92560206838BD00BF38C1072090
:102C800010B50446FFF7ECFF036821465B684FF080
:102C9000FF32984740B210BD13B5002302AC04F8D0
:102CA000013DFFF7DDFF01684FF0FF320B68214661
:102CB00098479DF907001CBD38B5054600246B6890
:102CC000E8689C4205D250F82400FDF7E1FA01348F
:102CD000F5E708B1FDF7DEFA284638BD0D4B70B5B3
:102CE000044640F8503BFFF7E7FF04F134060025A7
:102CF0007068854206D2F26852F82500FDF7C8FADE
:102D00000135F5E7206C08B1FDF7C4FA0249204609
:102D1000216070BD30470200D041020010B504466A
:102D2000FFF7DCFF2046FDF7B3FA204610BDF8B5EB
:102D30004368044699420D4615D3C06889000BF0DC
:102D4000EFF9A668E060B700AE420BD20C20FDF7A9
:102D50009BFAE26800210160416001720136D051A6
:102D60000437F1E76560F8BD2DE9F0410446142011
:102D700016468846FDF788FA8021074605F07CFD57
:102D8000A36BE26B9A4205D3616B04F134005918CE
:102D9000FFF7CDFFE56B206C50F825300135C3F807
:102DA00000805F601E72E563BDE8F0812DE9F041AF
:102DB00000F150048AB000250646009520465B4984
:102DC0005B4A5C4B04F0BAFD009520465A495B4AC9
:102DD0005B4B04F0B3FD009520465A495A4A5B4BC1
:102DE00004F0ACFD0095204659495A4A5A4B04F06C
:102DF000A5FD009520465949594A5A4B04F09EFDBD
:102E0000009520465849594A594B04F097FD0095C2
:102E100020465849584A594B04F090FD00952046E9
:102E20005749584A584B04F089FD009520465749A8
:102E3000574A584B04F082FD009520465649574AA0
:102E4000574B04F07BFD009520465649564A574B98
:102E500004F074FD009520465549564A564B04F03F
:102E60006DFD009520465549554A564B04F066FDC8
:102E7000009520465449554A554B04F05FFD009596
:102E800020465449544A554B04F058FD00952046BD
:102E90005349544A544B04F051FD00952046534980
:102EA000534A544B04F04AFD009520465249534A78
:102EB000534B04F043FD009520465249524A534B70
:102EC00004F03CFD009520465149524A524B04F013
:102ED00035FDFFF7C5FE4FF4806320224FF4164105
:102EE000054606F099F8012780462F714B48FDF7FB
:102EF00035FA4B48FDF72CFA304629463A46FFF79B
:102F000033FF082203A905A805F08AFA05A8454958
:102F100005F0FDFC05A92A46204604F0DFFD05A8C2
:102F200005F092FA40460AB0BDE8F0814D05010077
:102F3000B147020067470200190601009E470200E0
:102F4000A6470200F10E0100C4470200B647020086
:102F50003D0601000C480200CB470200810701003A
:102F6000114802001548020001070100B4480200A0
:102F700071480200890B0100B3480200B748020003
:102F8000610801000249020005490200090A010026
:102F90003349020039490200810A01005E490200FA
:102FA00061490200DD0A0100DE6102008E49020073
:102FB000450A0100B3490200B6490200C90D0100EB
:102FC000D9490200DD490200C10C0100844A020017
:102FD0008C4A0200B1100100CF4A0200D64A02001A
:102FE000E5100100E94A0200ED4A0200750D0100FA
:102FF000234B0200294B02004119010095440200B5
:10300000514B0200E11101006F4C02007B4B0200AA
:103010004D11010009390200384C0200992C0100C1
:10302000812C0100C241020073B500244FF480528C
:103030000B4600941849064605F0CCF9174B0425B9
:1030400033607563B463F463346406F134000221C1
:10305000FFF76DFE35657465B465F46506F15000E3
:103060001821FEF74BFCA6F87440A6F87640B4672A
:103070000B4C002200230025012086F87000C6E9D1
:103080002023C6E92245FFF7EBF9001941EB0501C2
:10309000C6E9200130467CBD744C02003047020076
:1030A000C0D401002DE9F041804690B041480AF0BB
:1030B000ADFF04A8D8F84810FEF7F8FCBDF91000E1
:1030C00009F070F800223C4B09F0D2F800223B4B8B
:1030D00009F0F8F904460D4606A8D8F84810FEF79E
:1030E000E5FCBDF91A0009F05DF80022324B09F049
:1030F000BFF80022314B09F0E5F906460F4608A853
:10310000D8F84810FEF7D2FCBDF92400CDE90067DD
:1031100009F048F80022284B09F0AAF80022274BB2
:1031200009F0D0F922462B46CDE9020124480AF0E5
:1031300055FF0AA8D8F84C10FEF7CDFC0CA8D8F81B
:103140004C10BDF92860FEF7C6FCBDF932700EA820
:10315000D8F84C10FEF7BFFC3A46BDF93C3031467A
:1031600018480AF03BFF4046FEF7DEFF006809F012
:103170002BF802460B4614480AF030FF4046FEF793
:10318000D3FF406809F020F802460B460F480AF0CA
:1031900025FF4046FEF7C8FF806809F015F8024693
:1031A0000B460B480AF01AFF4FF4FA7007F06AF961
:1031B0007CE700BF1F4302000000104000408F402A
:1031C0009B4C0200BD4C0200D74C0200EA4C0200AE
:1031D000FD4C02002DE9FF476C20FDF755F8002655
:1031E00032494FF4805202230096054605F0F2F86A
:1031F0002F4B28462B60FEF797FF82462846FEF7A6
:1032000095FF81467C20FDF73FF80223294900966F
:103210004FF48052044605F0DDF8274A204640F876
:10322000342BFEF7EDFFDFF8AC80244F24482764F1
:103230006063C4F83C8004F14400FEF7E1FF2149DB
:1032400027656164C4F84C80C4F854A0C4F8589051
:103250009020FDF719F801210746FFF7E5FE3846F3
:1032600005F07AF8284605F077F8204605F074F85E
:10327000154A0223009301922B464FF48052029686
:1032800003961249124806F0B5FE0120314605F0BA
:1032900073F82868416828468847236820465A689A
:1032A00090474FF0FF3004B0BDE8F087074E0200B2
:1032B00090420200184E0200284202006F12033BA7
:1032C00060420200E042020098C107202B4E02003B
:1032D000A53001006F12833A38B5074C236833B923
:1032E0001C20FCF7D1FF054605F082FC2560226812
:1032F0000248026038BD00BF48C107209CC10720BA
:1033000030B500238B420DD044783CB1048C4FF68D
:10331000FF751419AC4228BF2C4604840133DBB27C
:103320002430EFE730BD000037B50E49002302A876
:103330004A6840F8043D042190470B4B05461C6841
:1033400001980421041B186022460848FFF7D8FFA3
:10335000022107482246FFF7D3FF281C18BF01208F
:103360003EBD00BFA0C1072088C20720B4C107200E
:103370008DC2072008B50B4B01781A780A4B914291
:1033800003D119880131198002E0998801319980AF
:103390008270064A2021D3689847003018BF012068
:1033A00008BD00BF05C007205CC20720A0C10720E0
:1033B0000A4B027819780A4B8A4203D1DA88511CE9
:1033C000D98002E01A89511C19810379C3F3C20222
:1033D000511E61F3C5030371FFF7CCBF05C0072081
:1033E0005CC2072010B50023064A990012F823405A
:1033F000844201D1501810BD0133042BF4D10020B8
:1034000010BD00BF77C2072070B1C378591CCAB283
:10341000FF2AC27008D100230448C218D1780433AF
:103420004808102BD070F7D1704700BF77C2072033
:10343000F0B503460246044600258D4207D02046DB
:10344000243414F8236CC6B10135EDB2F5E7002041
:1034500004468C4210D01579178CC5F3C20547EA93
:103460000545A842164624BF05461E460134E4B26F
:10347000243228463346ECE71846F0BD38B5013112
:103480000446CD00FFF750FF1B4B20781A7882428C
:1034900004D102211948FFF7CBFF0CE004211848A2
:1034A000FFF7C6FFE17831B990F8235045F080036B
:1034B00080F82330042590F82310002221F07F03A8
:1034C00080F8225043EA152580F8202080F821203A
:1034D00080F823502346024604F1200153F8044BA0
:1034E0008B4242F8044BF9D1064A0379117861F313
:1034F000C503037138BD00BF05C007208DC207207A
:10350000B4C1072004C0072010B5FFF76BFF0446C5
:1035100008BBFFF767FF0446E8B9104AD378D179B2
:10352000994202D20B46111D00E01146D07AD47B9D
:10353000984238BF0A490B4A38BF03469C422CBF09
:103540000C4614462046002104220AF08BF9064B53
:10355000D97A481CD872204610BD00BF77C2072018
:103560007FC2072083C207205CC207202DE9F041FB
:10357000054690460C460027474500F0BE8094F86B
:10358000233003F08000C1B269B3BDB12B786278FB
:10359000934203D16878217888421ED0E87868B1D8
:1035A0006978914208D122789A4205D1A879A17907
:1035B000421A5342534100E0002373B994F8232088
:1035C00094F82210208C02F07F0341EA0321884204
:1035D000C0F28F802046FFF7CDFE20460021242236
:1035E0000AF040F985E06378002B00F08280002D1E
:1035F0003DD02A7902F0C000C0281AD16A7821781B
:10360000914202D128789842E7D0E078A9788842A0
:1036100010D1934209D120782A78904205D1A0791F
:10362000AA79811A4842414100E000210029D4D101
:1036300000E0E0B1A978E278914218D16878984228
:1036400009D121782A78914205D1A179AA79881ADD
:103650004142484100E0002048B12279002161F355
:10366000C50284F8201084F82110227141E094F8FA
:10367000232094F82200218C02F07F0240EA0220ED
:10368000814236DB21790026C1F3C20284F8206032
:1036900084F82160D6B21EB12046FFF789FE28E0EB
:1036A00001F0C000C02818D0154920780978884258
:1036B00013D1E078984210D078B16379E270032298
:1036C00062F3071363712046FFF772FE0D482179FC
:1036D000037863F3C501217100E001266078FFF7EC
:1036E00081FE18B1002104220AF0BCF8002E7FF4FC
:1036F00074AF0137FFB224343EE7BDE8F08100BF6C
:1037000005C0072004C00720431ED9B2FD2903D8F5
:10371000024A1070012070470020704705C0072042
:10372000014B1878704700BF05C0072007289CBFD1
:10373000014B1870704700BF04C007202DE9F74304
:103740000446914698469DF828600D46002958D0B9
:103750002F4B1F78B94254D0B8F10F0F51D8002821
:1037600051D0202200210AF07DF8FF2D207914BFCE
:1037700009F00302002262F38710032161F30200C3
:10378000244B20711A78277062F3C50020712248FB
:10379000A77001780BAF4B1CDAB20270A271657092
:1037A00001970EB9012613E00198013E03464268D5
:1037B000E07953F8081B8718FFB2182F0193F6B26F
:1037C00005D8083020180AF02AF8E771E9E7002642
:1037D000124F012128463970FFF704FE0546FFF716
:1037E00013FE00223A70637925B968F307136371F9
:1037F000E57009E0A87860F3071363716978E170F8
:1038000002E0002600E006463046BDE8FE8300BF29
:1038100005C0072004C007206AC2072068C207202D
:10382000164B70B501261E70044608B900251FE02E
:10383000FFF7A0FD05460028F8D0207900F0C00170
:10384000402903D0B1F1800256425641C02906D129
:10385000E3782BB16078C31A18BF012300E000237E
:103860000EB9DB0704D5617920460909FFF706FE8A
:10387000024B00221A70284670BD00BF68C20720A4
:1038800082B0F0B51746421E0446D0B28DB0FD2876
:103890000D46139301D900205AE0002BFBD0159B55
:1038A000002BF8D017990029F5D0169A002AF2D0EB
:1038B00014980028EFD000214822284809F0D2FFB0
:1038C00000219022264809F0CDFF00211022254832
:1038D00009F0C8FF244E00210C22244809F0C2FF41
:1038E00000210C22224809F0BDFF3470214C224EE9
:1038F0002570344613AD0FCD0FC42B68002118225C
:103900001E48236009F0AEFF394617221B480AF013
:10391000B6FE0020B268014690470028BBD09DF853
:10392000601011B9FFF700FD12E0154806220123CF
:1039300001900292009304A8FF210022FFF7FEFEEF
:103940000028A8D004A8FFF76BFF0028A3D0E9E760
:103950000DB0BDE8F04002B0704700BF8DC2072037
:10396000B4C1072077C2072005C007206BC207201B
:103970005CC2072069C20720A0C1072044C20720FB
:10398000354E020070B5182B8CB006460D4617D880
:103990001C1C18BF0124002A14BF214684F0010119
:1039A00071B101920293009404A831462A469DF811
:1039B0004030FFF7C3FE18B104A8FFF731FF00E065
:1039C00000200CB070BD13B50446107852790B4638
:1039D0001109009122460321FFF7D4FF1CBD00000E
:1039E00030B500231A4608499C0011F823502DB128
:1039F000904201D1081930BD0132D2B20133042BFB
:103A0000F1D1002030BD00BF77C207200023184647
:103A1000044A995C09B10130C0B20433102BF7D1CC
:103A2000704700BF77C207202DE9F04188B0684693
:103A30000021202209F016FFA14B1C78002C40F039
:103A40003B81A0482021026968469047002800F089
:103A500087809D4D69884B1C6B80FFF7D7FFA8724C
:103A60009DF8042002F00700032804D097490A7843
:103A700042F0010009E0964D9DF802102D78A94210
:103A800005D192490B7843F002000870E6E0C2F3DA
:103A9000C2019DF800709DF806005FFA81FE0322C6
:103AA00062438C4EB318B65CBE420AD15A78824249
:103AB00007D19A789970B2EB0E0618BF012601243F
:103AC00017E00134042CEAD1834C236899708149B2
:103AD000587001F1090083421F7040F0CC802160D2
:103AE0009DF800009DF80220824240F0C78000242B
:103AF00026469DF80200FFF707FD9DF80210002CF6
:103B000008BF012601709DF80220002142708170DB
:103B1000F6B2FFF779FC1EB39DF80000A84200F052
:103B20009C809DF80160FF2E1CD16648202103680F
:103B30006846984720B9654C227842F0040121700C
:103B40009DF8053003F00F04601C1A4660F3030271
:103B5000B4EB131F8DF8052002DA6846FFF70AFC64
:103B600000247BE0B5422CD16CB99DF8070050B120
:103B7000544B68461A682021904720B9534C21784D
:103B800041F0040020709DF8043003F0C002402A88
:103B900012D19DF8071011B95048182108E04A4881
:103BA0000C216A46FFF70FFF002856D1002001467E
:103BB0006A46FFF708FF50E09DF80340002C4CD107
:103BC000F4E7474C2378002BCAD09DF8054004F059
:103BD0000F082709B845C3DA3046FFF703FC9DF804
:103BE000032008F1010868F3030495428DF80540AD
:103BF0001DD19DF8045005F0C004402C05D0B4F14F
:103C000080014B4253EB010200E0012208B14578EC
:103C100000E00546C02C05D1AE4203D02C1C18BFD5
:103C2000012400E0002444EA020530B90AE0A2B908
:103C300010B9684639460EE0154641788DF80310F4
:103C4000847802E08DF8030004466846FFF792FB93
:103C50001DB168462146FFF711FC6C46FFF764FB77
:103C6000204604221F49FFF781FC20461E490222FC
:103C7000FFF77CFC20E0DE1C266031E785423FF444
:103C800036AFFFF741FC0446FFF7BEFB23783BB19C
:103C90009DF80510A67801F00F00B0423FF727AF5E
:103CA0009DF8002022709DF8023063709DF8051089
:103CB000C1F30300A0701AE708B0BDE8F08100BFAF
:103CC00068C20720A0C107205CC207208CC2072061
:103CD00005C007206BC2072000C0072044C2072090
:103CE00069C20720B4C107208DC2072000231846EF
:103CF000094AD1184A780AB10130C0B22433902B56
:103D0000F6D1064B597809B1421CD0B293F8253050
:103D10000BB10130C0B27047B4C107208DC207207B
:103D200008B5FFF75FFB054B20B180781978421C7E
:103D3000D00001E019781820484308BD04C00720CE
:103D4000034A11680160516892684160826070475F
:103D50005CC2072030B5404C4FF48035E5613F4CE4
:103D6000A060E068C006FCD43C488068C0B2002B6C
:103D70006CD00B46002A5CD0384C93F90050072ACF
:103D8000A56030DD93F90150083AA56093F902501F
:103D9000A56093F90350A56093F90450A56093F9C9
:103DA0000550A56093F90650A56093F907500833B4
:103DB000A5602A4CA5696D07FBD5A5680D70A5689F
:103DC0004D70A5688D70A468CC70244CE568ED0634
:103DD000FBD4A5680D71A5684D71A5688D71A468A7
:103DE000CC710831C6E7032A18DD93F90150043A73
:103DF000A56093F90250A56093F903500433A560C0
:103E0000164CE568ED06FBD4A5680D70A5684D70ED
:103E1000A5688D70A468CC700431ABE70133013A1A
:103E2000E56815F0100FFBD10C4CA46801F8014BAC
:103E3000A0E7094B4FF480329A6140B230BDE5688B
:103E400015F0100FFBD1054C0133A4689342F0DA52
:103E5000CD56024CA560F2E700C009200080084062
:103E600007B5002302A9012201F8013D00F01F005F
:103E70001346FFF76FFF9DF907000EBD07B502ABB4
:103E800003F8011D00F01F0019460122002340F035
:103E90002000FFF75FFF0EBD08B51720FFF7E0FF1A
:103EA000C0F3001008BD07207021FFF7E7BF0346ED
:103EB0000A466FF05F0019460023FFF74BBF08B5B5
:103EC0000020FFF7CDFF20F0010149B20020BDE83E
:103ED0000840FFF7D3BF0000024B4FF08072DA6159
:103EE000704700BF20C0092008B50020FFF7B8FFC9
:103EF00040F0010149B20020FFF7C0FF024B4FF034
:103F000080729A6108BD00BF20C0092007202021CF
:103F1000FFF7B4BF00216FF01E000A460B46FFF703
:103F200019BF000037B505460C46FFF7F3FF2846DA
:103F30002146FFF7BCFF0D4B4FF0807200209A61C5
:103F4000ADF80600BDF806104A1C93B2ADF8063075
:103F500033B906494FF08070C861FFF7DBFF3EBD03
:103F6000FFF79AFF0028EDD0F3E700BF20C009203B
:103F700008B51720FFF774FF00F0010080F0010082
:103F800008BD07204021FFF779BF08B503460A4660
:103F9000612019460123FFF7DDFEC0F3420008BD92
:103FA00000216FF01D000A460B46FFF7D3BE70B527
:103FB000044600200D461646FFF752FF14B100F0EC
:103FC000BF0102E040F04000C1B215B101F0DF02D4
:103FD00001E041F0200216B102F0EF0301E042F0EF
:103FE0001003002059B2BDE87040FFF747BF10B57D
:103FF00004460020FFF734FF14B900F0F7020DE08B
:10400000012C04D100F0FB0040F0080206E0022C75
:1040100014BF40F0080140F00C01CAB2002051B2B8
:10402000BDE81040FFF72ABF08B50020FFF718FFD2
:1040300040F0020149B20020BDE80840FFF71EBF72
:1040400008B50020FFF70CFF20F0020149B2002064
:10405000BDE80840FFF712BF40F6DD13984206D8CE
:1040600040F66211B0F5166F38BF084600E01846FA
:10407000A0F1600251B20520FFF700BF10B5044661
:104080000620FFF7EDFEFA2C00F0D70102D141F037
:10409000200104E0B4F5FA6F08BF41F008010620E2
:1040A00049B2BDE81040FFF7E9BE10B5044606204E
:1040B000FFF7D6FE032C34BF2146032100F0F900A0
:1040C00040EA410251B20620BDE81040FFF7D6BEDB
:1040D000F9284FF0FA0305D9B0F57A6F28BF4FF4ED
:1040E0007A6000E01846B0FBF3F0421ED3B20F290D
:1040F00028BF0F2141EA0311042049B2FFF7BEBED9
:104100001130C0B2162806D8202928BF202140B27D
:1041100049B2FFF7B3BE7047032804D004280CBF90
:104120000221032100E001210320FFF7A7BE03467F
:104130000A46302019460023FFF70CBE03460A4604
:104140002A2019460023FFF705BE000073B5044678
:104150000E461546FFF724FFFFF7DCFE2A4B4FF013
:104160008072DA61FFF76CFF00210A460120FFF739
:104170001EFFFFF798FE0220FFF739FF3046FFF7DA
:104180006BFF2846FFF77AFF0320FFF78EFF022020
:104190000321FFF773FE01200021FFF76FFE0321CB
:1041A0004FF4FA70FFF794FF00202146FFF7A8FFB5
:1041B00012200021FFF762FE13200021FFF75EFEB0
:1041C00014200021FFF75AFE15200021FFF756FEAC
:1041D00016200021FFF752FE0C4908680A7900906A
:1041E00005208DF80420FFF797FF68460521FFF7AB
:1041F0009EFF68460521FFF7A1FFFFF715FF4FF46B
:10420000FA6004F086FB7CBD20C009203C4E020011
:10421000042938B5054603D1041C18BF012400E069
:104220000024FEF71DF904B12860204638BD0000C7
:1042300007B5084B002102AA186842F8041D0B4676
:1042400005F03EFD019818B103494FF080520A6015
:104250000EBD00BFE0C2072004ED00E070B50023F2
:104260008AB001930646007901AA00F0C001C02976
:104270000CBF0F490F4900230D683146284605F051
:104280001FFD044658B9224602A9284605F0D2FD72
:1042900023462846314601AA05F012FD0446019A3C
:1042A0001AB1054B4FF08050186020460AB070BD1F
:1042B000D8C20720DCC2072004ED00E010B5194C7D
:1042C000226822B90320202105F031FC2060164C21
:1042D000226822B90120202105F029FC2060134C1E
:1042E000216821B90120032205F021FC2060202053
:1042F00040F6C3114FF4FA62FFF728FFFFF7F4FD11
:10430000162001210A4A04F037FC064B186838B120
:104310000548006820B105490A68101C18BF012033
:1043200010BD00BFDCC20720D8C20720E0C20720B2
:10433000314201002DE9F34180460F46164606F052
:104340006DFA022807D1324640463946002305F06F
:10435000F0FCC6B213E000230193FEF781F8841944
:1043600041F100054046394601AA05F063FDC6B299
:104370002EB9FEF775F88D4208BF8442F2D270B2B2
:10438000BDE8FC8137B504460D46FFF7C9F923782F
:1043900083420AD0E07840B909F082FE00F00301C0
:1043A000481CBD22504304F0B4FAFFF795FDFFF717
:1043B00086FD2046A9B2FFF7B5FDFFF7A7FDFFF781
:1043C00093FD06F02BFA02280ED1084B002102AA19
:1043D000186842F8041D0B4605F072FC019818B1EC
:1043E000034A4FF08051116001203EBDE0C207201A
:1043F00004ED00E038B504460D46FFF7B9FD48B1BD
:10440000A9B22046FFF7C1FDFFF7B2FD08B9FFF7DB
:10441000B8FD012038BD000000B50C4B0C488DB034
:104420000C490D4A09930B900CAB002043F8102D5A
:104430000A9104900FCB8DE80F00084B6A200121F0
:10444000074AFFF71DFA0DB000BD00BFBD420100D5
:10445000F543010085430100114201005D42010066
:10446000414E02000A460349034608681946FFF711
:1044700061BF00BFDCC207200A4603490346086843
:104480001946FFF757BF00BFD8C2072008B506F08E
:10449000C5F90F4B0228586912D142020CD5FFF71B
:1044A00025FC0C4900280CBF4FF0FF3201220868A0
:1044B00000210B4605F03DFCBDE80840FFF7B4BA0B
:1044C0004302F9D5FFF712FC0028F5D108BD00BF63
:1044D00000C00920E0C2072010B506F0A3FA0C4B7B
:1044E0001A6822F0E06020F0FF0119601C6844F0B7
:1044F00004021A60186840F0807119605C68002C32
:10450000FCDA034B5C6806F09FFAC4F30B1010BD95
:104510000040034030B504464DB2006894F90410E1
:1045200053B22A46BDE8304004F048BF1FB5002210
:1045300004AB90F9044023F8042D4AB20221009103
:104540000068214604F045FF9DF90C009DF80D30F0
:1045500082B243EA022188B204B010BD10B52A210C
:1045600004461922FFF7D6FF0D22206894F90410A3
:1045700004F033FFB0F12A035842584110BD000047
:10458000234910B50A680B4612F010020ED0886855
:10459000C83088611F490A881F2A05D8DC6A1E486E
:1045A00040F8224001320A8010202EE00B68D90723
:1045B0002CD518480088012822D9174B411E0433F6
:1045C0008A4207DA53F8041C1C680132611A43F866
:1045D000041CF3E7104A002350681A4600EB500011
:1045E0008B420BDA0C4C54F82340844203D901244B
:1045F00004FA03F4224301339BB2F1E707490A604E
:10460000044B00221A80024B0120186010BD00BF2D
:1046100000800040E8C20720ECC20720E4C2072067
:1046200070B50220144C012106F0F2FB0125012196
:104630000220002606F004FC6560266706F078FD7F
:1046400042F21073B0FBF3F0E060A16A21F00702C0
:10465000A262A36A43F00600A062A6616169074BEB
:1046600029436161DA68042142F03000D860044BCC
:104670002846196070BD00BF0080004000C00240A5
:1046800000E100E0044A08B501F07F034171D25C0B
:104690000321FFF73FFF08BD464E0200044A08B55C
:1046A00001F07F038171D25C0221FFF733FF08BD67
:1046B000464E0200642370B591FBF3F404FB131122
:1046C0000A224CB294FBF2F602FB164303F13001CE
:1046D00049B20546FFF7E2FF092C02DC28462021FB
:1046E00003E006F13002284651B2BDE87040FFF702
:1046F000C9BF38B5044694F90410006804F07AFE86
:10470000054688B1204606210022FFF703FF204618
:1047100007210022FFF7FEFE20462E21FFF7B2FF01
:1047200020462E21FFF7BAFF284638BD01207047EA
:10473000124B01F00F0140F2131201709A610178DF
:10474000CA0701D50122DA61037803F00201CAB277
:1047500012B10A4B0221D961027802F00401CBB2F6
:1047600013B106491022CA61007800F00803DAB2DA
:104770001AB102484FF48071C161704720C009200E
:1047800001207047FFF7A8BE01207047044B59690C
:10479000C1F38130C1F3412242EA8000704700BF7B
:1047A00020C0092010B5012104468122FFF7B2FE86
:1047B0000122206894F9041004F00FFE10F0600F3D
:1047C0000CBF0020012010BD38B500210446FFF7C2
:1047D000ADFE0121812285B22046FFF79BFE10230A
:1047E00028B290FBF3F008F007F94FF0765108F08B
:1047F00057F9A16808F04CF838BD000008B5FFF77C
:10480000E3FF054908F04CF9044908F0FDF94FF0C1
:10481000844108F03DF808BD000010410000A040B0
:104820002DE9F04F0546ADF5177D0C46914602A8DF
:10483000294601229A4602F081F88346002853D186
:104840000CA821460A2202F079F8834608B102A892
:1048500037E000900190064607468046FDF700FECF
:1048600016A904464FF4007202A86B4602F032F912
:104870008346A8B9009A9AB1FDF7F2FDB8EB04029D
:1048800068EB080300EB0208FDF7EAFD009A044616
:104890000D460CA816A901AB02F0C2F9834698B1E7
:1048A000B9F1000F01D0C9F80080BAF1000F01D0B2
:1048B000CAF80070A09901B10E6002A802F0B4FA23
:1048C0000CA802F0B1FA0FE0019900988142E7D1FB
:1048D000FDF7C6FD4FF0FF321440C7193F1B009C87
:1048E00000231D403619B9E758460DF5177DBDE880
:1048F000F08FF0B504468DB00F46164621461D4692
:1049000002A800230122019302F018F8044670B9AE
:104910001DB102A8294602F09FFA02A83946324684
:1049200001AB02F0D7F8044602A802F07DFA204657
:104930000DB0F0BDF0B504468DB00F4616462146C9
:104940001D4602A800230A22019301F0F7FF044646
:1049500070B91DB102A8294602F07EFA02A83946B4
:10496000324601AB02F05CF9044602A802F05CFAA0
:1049700020460DB0F0BDF0B504468DB00F4616468A
:1049800021461D4602A800231222019301F0D6FF02
:10499000044680B902A80DB1294600E0059902F04D
:1049A0005BFA02A83946324601AB02F039F90446F7
:1049B00002A802F039FA20460DB0F0BD7F2816D9C2
:1049C00031B1FF2812D80A49803831F810007047F9
:1049D000074A8BB232F81120824203D0013180297C
:1049E000F6D10B4603F18000C0B27047002070473B
:1049F000A65002000023064A32F8131031B1884253
:104A000001D00133F7E7034830F81300704700BFC7
:104A1000A6510200C64E020010B501200C4605F05A
:104A200028F92060003018BF012010BD0120704718
:104A300010B5044605F0F2FE02280AD100210B460B
:104A4000204640F6B83205F074F9431E58425841EA
:104A500010BD012010BD10B5044605F0DFFE022890
:104A600007D1002120460A460B46BDE8104005F05C
:104A70008FB810BD10B5044604F09CFA24B1012C87
:104A800006D100F05BFB01E000F0F8FC044600E01A
:104A9000042404F0A3FA204610BD20B1012801D15E
:104AA00000F044BB04207047F8B504460F46164694
:104AB0001D4604F07FFA3CB1012C0CD1384631463A
:104AC0002A4600F0E3FA04E0384631462A4600F070
:104AD00019FD044600E0042404F080FA2046F8BDE5
:104AE000F8B504460F4616461D4604F063FA3CB17D
:104AF000012C0CD1384631462A4600F067FA04E012
:104B0000384631462A4600F019FD044600E00424E8
:104B100004F064FA2046F8BD70B504460E4615460A
:104B200004F048FA34B1012C0AD13046294600F08D
:104B300027F903E03046294600F01AFD044600E05C
:104B4000042404F04BFA204670BD000010B5044662
:104B500006F0EEFA074BB0FBF3F10223B1FBF3F2E0
:104B6000944202D30448036110BDB3F5807FF9D0AD
:104B70000233F3E740420F0000000340044B98600B
:104B8000DA68D206FCD40248816848B2704700BF98
:104B90000000034038B5FDF763FC00F5FA754FF0EF
:104BA000FF30FFF7EBFF4FF0FF30FFF7E7FFC4B236
:104BB000FF2C07D0FDF754FC2A460023994208BF7A
:104BC0009042F0D3204638BD38B5064C4FF0007502
:104BD000E561FFF7DFFF044BA5611A7842F00100A1
:104BE000187038BD20C0092006C0072070B50546E2
:104BF0000E46FDF735FC00F164044FF0FF30FFF77F
:104C0000BDFFC0B2FF2809D1FDF72AFC22460023D0
:104C1000994208BF9042F0D3002070BDFE28FBD11E
:104C2000102E06D928464FF40071002204F060F9D6
:104C300018E02C464FF0FF30FFF7A0FF20704FF038
:104C4000FF30FFF79BFF60704FF0FF30FFF796FFDC
:104C5000A0704FF0FF30FFF791FFAB19E070043404
:104C6000A342E7D14FF0FF30FFF788FF4FF0FF304E
:104C7000FFF784FF012070BD38B505460C46FFF7ED
:104C800089FFFF281ED160B2FFF778FFFD2C1BD0F3
:104C90004FF400714FF0FF32284604F029F94FF02D
:104CA000FF30FFF76BFF4FF0FF30FFF767FF4FF06C
:104CB000FF30FFF763FF00F01F00411F4A4252EB35
:104CC000010038BD002038BD012038BD38B504468C
:104CD00020060D4607D577200021FFF7F7FF0128B2
:104CE0003BD804F07F041D4B4FF000729A61DA61EB
:104CF000FFF750FFFF282FD160B2FFF73FFF2816C4
:104D0000FFF73CFF45F30740FFF738FF45F3072067
:104D1000FFF734FF68B2FFF731FF402C04D0482C76
:104D20000CBF8720012000E0952040B2FFF726FF4E
:104D30004C2C03D14FF0FF30FFF720FF0A244FF037
:104D4000FF30FFF71BFF01460029C0B205DA013C26
:104D500014F0FF04F3D138BDFF2038BD20C0092076
:104D6000054A064913784869410154BF03F0FD0321
:104D700043F003031370704706C0072020C00920CA
:104D80007FB505460C46FFF7EBFF052D18D12178BE
:104D9000012900F00F810AD3022940F009818848D7
:104DA000426982F08063C3F38061617002E1844CE8
:104DB000606910F0806440F0FD80FFF705FFF9E0C6
:104DC000804B1878C00700F1F7800E2D00F2EA80C2
:104DD000DFE815F00F00190054005800E800E80063
:104DE000E800E800E800E800B200B700B900C3003E
:104DF000D40073484FF00071C161FFF7CBFEFF385C
:104E000018BF0120CFE049200021FFF75FFF0546D2
:104E100008B10120C7E068461021FFF7E7FE00282F
:104E2000F7D09DF800109DF808308A09012A07D1B3
:104E30009DF80910481C00EB03239AB2930246E048
:104E40009DF80700810001EB93129DF80630501C7D
:104E50009DF8052003F0030100EB812302F00F0011
:104E60009DF80A109DF8092000EBD11002F0030113
:104E700000EB4100C21F03FA02F328E04FF4007078
:104E800020805CE0504D2B7803F00400C1B209B3E0
:104E9000CD200021FFF71AFF0028BAD14FF0FF30D4
:104EA000FFF76CFE68461021FFF7A0FE0028B0D087
:104EB00030254FF0FF30013DFFF760FE15F0FF0594
:104EC000F7D19DF80A001022010902FA01F32360CC
:104ED000284668E04920FFF7F9FE0646002898D1E9
:104EE00068461021FFF782FE002892D0297801F051
:104EF0000202D0B29DF80A1080B101F03F009DF887
:104F00000B10CA099DF80D1002EB40038A09581CCA
:104F1000531E00FA03F02060304644E09DF80B3049
:104F2000C1F38402511C03F003025B0903EBC202CC
:104F3000531C4B43236036E023490A78227000203B
:104F400031E0492000E04A200021FFF7BFFE0028A1
:104F50007FF45FAF204610211DE07A200021FFF78B
:104F6000B5FE00287FF455AF05464FF0FF30FFF740
:104F700005FE60550135042DF7D1E0E7CD20002175
:104F8000FFF7A4FE00287FF444AF4FF0FF30FFF797
:104F9000F5FD20464021FFF729FED0F1010038BF82
:104FA000002000E00420064B4FF000729A6104E0FC
:104FB000042002E0002000E0032004B070BD00BF28
:104FC00020C0092006C007206CC3072070B5144616
:104FD00005460E46FFF7C4FE002C4AD0284B1A782F
:104FE000D20748D4187800F00401CBB2002B44D18A
:104FF00024484FF000722449C2610B7803F0080284
:10500000D0B200B97602012C0DD158203146FFF7FD
:105010005DFE30BBFE212846FFF72EFED0F10104D5
:1050200038BF00241DE013F0060F03D0D72021461F
:10503000FFF74CFE59203146FFF748FE88B9284655
:10504000FC21FFF719FE28B1013C14F0FF0405F51F
:105050000075F4D10020FD21FFF70EFE002808BFE7
:105060000124084B4FF00071201C996118BF0120EA
:1050700070BD042070BD032070BD022070BD00BF54
:1050800006C0072020C009206CC3072070B5144655
:1050900005460E46FFF764FE002C3CD0204B1878E6
:1050A000C1073AD41F494FF000721F4BCA611878EC
:1050B00000F00802D1B201B97602012C0ED15120C4
:1050C0003146FFF703FEF0B928464FF40071FFF7B1
:1050D0008DFDD0F1010438BF002414E05220314688
:1050E000FFF7F4FD78B928464FF40071FFF77EFD15
:1050F00028B1013C14F0FF0405F50075F3D14C20F4
:105100000021FFF7E3FD074B4FF000709861201C72
:1051100018BF012070BD042070BD032070BD00BF0A
:1051200006C0072020C009206CC3072008B5FFF780
:1051300017FE014B187808BD06C007202DE9F34182
:10514000FFF70EFE554B1A7802F00200C1B200299B
:1051500040F0A0800120FFF7F9FC0A244FF0FF3057
:10516000013CFFF70BFD14F0FF04F7D14C4B4FF05F
:1051700000764020DE612146FFF7A8FD012801D01E
:10518000002674E0FDF76CF94FF4D57100F57A77DD
:105190004820FFF79BFD012841D14FF0FF30FFF77A
:1051A000EDFC01AA10550134042CF6D19DF806003F
:1051B0000128E5D19DF80710AA29E1D1FDF750F9A2
:1051C0003C460025A94208BFA04206D3FDF748F996
:1051D000A94208BFA042D3D207E0E9204FF08041A6
:1051E000FFF774FD0028E9D1F0E77A200021FFF7EE
:1051F0006DFD0028C4D104464FF0FF30FFF7BEFC20
:1052000001AE30550134042CF6D19DF8043003F082
:105210004002D0B200280CBF04260C2627E0E9206B
:105220002146FFF753FD01288CBF012602268CBFC3
:105230004FF041084FF0E908FDF712F93C46002510
:10524000A94208BFA0420BD3FDF70AF9A94208BF43
:10525000A0420CD350204FF40071FFF737FD06E059
:1052600040460021FFF732FD0028E5D1ECE70D496B
:105270000B4B4FF000720E709A6146B107480178EF
:1052800001F0FE0202701820FFF760FC01E0FFF75A
:105290009BFC024B1878BDE8FC8100BF06C00720CC
:1052A00020C009206CC30720F8B51A4B05461C889E
:1052B0000E46B4F5007F174602D1084611460AE0B3
:1052C000B4F5807F09D1084611462246A84706F565
:1052D000807007F58071224619E0B4F5047F07D18C
:1052E00022F4FF72084622F001014FF400720EE032
:1052F000B4F5847F0CD1170A08464FF48072790206
:10530000A847791C06F5807049024FF48072A847BF
:10531000F8BD00BF6EC3072010B5034600295CDD51
:1053200093F900402D4A0729946030DD93F901403C
:105330000839946093F90240946093F903409460B3
:1053400093F90440946093F90540946093F9064002
:10535000946093F9074008339460204A9469640785
:10536000FBD5946804709468447094688470926863
:10537000C2701A4AD468E406FBD494680471946835
:105380004471946884719268C2710830C6E7032939
:1053900018DD93F901400439946093F90240946058
:1053A00093F90340043394600C4AD468E406FBD4B8
:1053B0009468047094684470946884709268C270B1
:1053C0000430ABE701330139D46814F0100FFBD17E
:1053D000024A926800F8012BA0E710BD00000340CC
:1053E00007B58DF80400080A0B0C8DF806008DF83F
:1053F000071001A804218DF80530FFF78DFF0EBDC1
:10540000F7B50D4C06464025080CE5610B0A17461A
:105410008DF8050003228DF8071001A804218DF8EE
:1054200004208DF80630FFF777FF3046394600221A
:1054300003F05EFDA561FEBD00C009200D4B0E48C6
:1054400040226FF02801DA618160C268D106FCD485
:10545000094B9B6808484FF0FF318160C268D20653
:10546000FCD4054B98680306F4D5024A40219161AB
:10547000C0B2704700C0092000000340F7B5FFF735
:10548000DDFF07461B481C4D81781C4C002340263D
:105490000288238001A8EE618DF806100321ADF883
:1054A0000420FFF739FF9DF805009DF806301F28FE
:1054B000AE6117D1A3F12502022A13D81049252B7A
:1054C0000B7007F0010006D100280CBF4FF4847365
:1054D0004FF4807305E000280CBF4FF404734FF4C1
:1054E00000732380054A1188D1F1010038BF0020E4
:1054F000FEBD00BF8653020000C009206EC3072016
:1055000070C307202DE9F041064617464FEA4128AF
:10551000FFF794FF34460025C6EB0802BD42224443
:1055200007DA21460448FFF7BFFE04F50074013591
:10553000F2E70020BDE8F081015401002DE9F041BF
:10554000064617464FEA412804460025C6EB0802E6
:10555000BD42224407DA21460448FFF7A5FE04F5C0
:1055600000740135F2E70020BDE8F0815D560100CE
:1055700008B507281CD8DFE800F00407131719192D
:105580001919FFF75BFF11E00A4B18782538C3B2F1
:10559000032B9ABF084A52F8233000235B0A04E029
:1055A0004FF40070088001E001230B60002008BD6B
:1055B000042008BD70C307208C53020030B591B0A1
:1055C00003466C4600F1400518685968224603C23C
:1055D0000833AB421446F7D1064D40249B200021EE
:1055E000EC61FFF7FDFE68462146FFF795FEAC61D2
:1055F00011B030BD00C0092070B5074D40240646EB
:1056000000217720EC61FFF7EBFE30462146FFF7E3
:1056100083FEAC6170BD00BF00C00920084B188834
:1056200030F01F000BD007490B78253BD9B2032976
:105630009ABF054A52F821100021B1FBF0F07047E3
:105640006EC3072070C307208C530200024B1878EA
:10565000003018BF012070476EC307202DE9F743C3
:105660004FF0FF330D46904601938146FFF7E6FE6B
:10567000FFF7ECFF0446A0B1164E40271648F7612D
:1056800001880320B1F5847F14BF4FF400714FF4FB
:1056900080712943FFF7A4FE01A80421FFF73CFE17
:1056A000B7610C4E4022F26182202946FFF798FE36
:1056B00048464146012203F01BFC3CB1019B02A875
:1056C000591C40F8041D0421FFF726FE4020B0615C
:1056D000BDE8FE8300C009206EC30720F7B5114B5B
:1056E00007461E884FF0FF30B6F5847F14BF4FF495
:1056F00000764FF480760190FFF7A8FF60B10A4C66
:105700004025032046EA4721E561FFF769FE01A82D
:105710000421FFF701FEA5610198B0F1FF3F08BF2A
:105720000020FEBD6EC3072000C009201FB501A8E0
:1057300003F00CFB9DF809209DF8083002F00F01E2
:105740009DF8062003F01F004B0543EA004002F0DD
:105750001F0140EAC1239DF805009DF8041000F0E8
:105760003F0243EA4210BDF80A20C1F34403510648
:10577000184301F10843184305B000BD10B50023DC
:10578000D41A032C03D9CC58C4500433F8E702F0E0
:10579000030422F00302801800238A18A34203D0D6
:1057A000D15CC1540133F9E710BD8218904202D098
:1057B00000F8011BFAE7704770B5164B002422462B
:1057C00053F8085C65B10668B5420AD153F8046C19
:1057D0008568AE4205D11E88C588AE4201D105E07C
:1057E000012401320C33032AEAD10CE049B90A49F9
:1057F0000C2000FB02135A89B2F5807F01D00020F3
:1058000070BD102070BD002CF9D10229F7D01220F4
:1058100070BD00BF7CC3072074C3072070B51F4A4A
:105820000668002352F8084CB44208D152F8045CD0
:105830008468A54203D11588C488A54210D00133DD
:105840000C32032BEED1164A1368F3B90C255D43D5
:10585000541956518268C08862600022208162819A
:105860000F4A0C2000FB0322508929B108B1002007
:1058700070BD4FF4807201E0411C8AB208490C20CF
:1058800000FB03104281581C70BDD36823B193699B
:10589000002BECD10223D9E70123D7E77CC30720F3
:1058A00074C307200138022813D80C490C2202FBCC
:1058B00000135B89B3F5807F03D01BB1013B9BB222
:1058C00000E00023504309184B8123B9034A1350C9
:1058D00001E0022070470020704700BF74C307201A
:1058E000002310B5044618464208E15C42EAC010A5
:1058F000013342180B2B02F0FF00F5D110BD0368F5
:10590000024613B94FF0FF30704793F9000030386A
:10591000082808D893F901103A2904D10233012844
:10592000136001DDEEE700207047F8B503690C460F
:1059300001F1090163B3436900229D5C01326EB23B
:10594000202E1BD0052E08BFE525092A02D12E27BF
:1059500001F8017BEEB2A6F14107192F0CD81F7B8D
:10596000082A94BF4FF0080C4FF0100C1CEA070FE8
:105970001CBF06F12005EDB201F8015B0B2ADCD15A
:10598000DD7A25721E8BDA69A680DB8A2260E380CD
:1059900000250D70A669EEB1016909B9002517E06F
:1059A000E269002AFAD0818C4FF6FF739942F5D054
:1059B000076A37F8150058B10021FEF7FFFF0028ED
:1059C000ECD0E269511E8D42E8D270550135F0E706
:1059D00000207055F8BDF8B504460079F8B1256B84
:1059E00004F13407607839462A460123FFF778F836
:1059F000A0B9636A2071E069EA1A824201D30020EB
:105A0000F8BDE678012EFAD9E16960786D182A466A
:105A100039460123FFF764F8013EF3E70120F8BDA2
:105A2000F8B50446FFF7D7FF05466DBB2378032B77
:105A300022D16679012E1FD104F134073846294658
:105A40004FF40072FFF7B1FE10494AF6552061632A
:105A50000F4A216A6369A4F832022069C4F8182247
:105A60004A1CC4F81C32C4F820022263607839460C
:105A70003346FFF735F86571002160780A46FFF775
:105A80004BF8003018BF0120F8BD00BF52526141F1
:105A90007272416110B50446A8B103689BB11A78CF
:105AA0008AB1D988808881420DD1D868FEF7C0FFBD
:105AB00058B123685878FEF7F0FF10F0010F0CBFC3
:105AC0000020032010BD092010BD0F2010BD38B5E7
:105AD000036B044699420D460CD0FFF77CFF58B982
