:020000021000EC
:10000000004008207F0101004D010100E1000100D6
:100010003D0101002D0101001D0101000000000053
:1000200000000000000000000000000035AE0100EC
:100030000D01010000000000B9AE0100F5AE0100A5
:10004000FD000100FD000100D9490100FD00010093
:10005000FD000100D5940100FD0001003D95010067
:10006000A5950100FD000100FD000100FD0001005B
:1000700061900100FD000100FD000100FD00010094
:10008000FD0001001D830100FD000100FD000100D5
:10009000FD000100658F0100FD000100FD00010071
:1000A000FD000100B98E0100FD000100FD0001000E
:1000B000FD000100E9B20100FD000100FD000100AA
:1000C000FD000100FD000100FD0001006469020067
:1000D00000C007202001000020C10720FC04000010
:1000E00004207146084200F00480EFF309800BF011
:1000F00067B9EFF308800BF063B9704708B50248A1
:1001000000F0CAF9FEE700BFFA61020008B5024834
:1001100000F0C2F9FEE700BF1062020008B5024815
:1001200000F0BAF9FEE700BF2062020008B50248FD
:1001300000F0B2F9FEE700BF2D62020008B50248E8
:1001400000F0AAF9FEE700BF3862020008B50248D5
:1001500000F0A2F9FEE700BF4362020010B50023E1
:10016000934203D21C585C500433F9E710BD0023BE
:100170008B4203D200221A500433F9E7704710B5BE
:1001800014480AF057FF13480AF057FF124C134B5C
:100190009C4205D294E807000C34FFF7DFFFF6E736
:1001A0000F48844205D294E803000834FFF7DFFFCC
:1001B000F6E70DF0ADFC0AF057FF02F0DBFB03F0B1
:1001C0006FFA4FF416400BF02FFA064800F064F96E
:1001D000FEE700BF00400820CC000100D80001006D
:1001E000E0000100B562020008B5024800F054F9D1
:1001F000FEE700BFDE62020008B5024800F04CF9DD
:10020000FEE700BFE962020008B5024800F044F9C9
:10021000FEE700BFF8620200124A30B511680346DB
:1002200011B94FF08050106010680F4DC41862195A
:100230000E4D0C49AA4297BF0D480C601A180A606F
:10024000084A0C4C1168A14202D90B4810600020EA
:100250003BB10A4A116801311160094A094910602D
:100260000B6030BD24C10720FF7FFFEFFE3F07106A
:100270001CC60720FF3F0820004008202CC1072093
:1002800028C1072020C107200DF080BC0DF07EBCE6
:100290000DF084BC0DF082BC30B58BB004466846CE
:1002A0000EF0C0F8214D089B07982560A3606060A0
:1002B00058B91F491F4A0B6893428ABF03F1604334
:1002C00003F17043A3F5E82363606068B0F5803FF5
:1002D00004D900F17041A1F5E82363601448154B7F
:1002E000016800229942E26006D86D18C5F180537A
:1002F00003F58035E5600BE00F4A914208D80F48BE
:10030000C0F1804303F58012501A0028C8BFE06096
:10031000E1610B490B480A680B490368A2610A684E
:100320006361226120460BB030BD00BF1C06000097
:1003300024C1072000800010FF3F08201CC60720B2
:1003400028C1072020C107202CC10720FEE700009C
:10035000014B1860704700BF34C10720014B186083
:10036000704700BF30C1072008B502480EF07CF886
:10037000FEE700BF5439020008B502480EF074F8D9
:10038000FEE700BF6E390200002070470120704771
:10039000084B70B518680E46154640B10024AC42B3
:1003A00005DA044930570A6890470134F7E72846D0
:1003B00070BD00BF34C10720094B70B518680E46E8
:1003C000154600B970BD0024AC4206DA0448016845
:1003D0000020884730550134F6E725EAE57070BD06
:1003E00030C107207047002070470000074B196894
:1003F0008A68824207D04B68834204D0C9680A1ACF
:100400005042504170470120704700BF7CC0072018
:10041000002070470020704730B504468DB000289A
:1004200037D0684608F0C0FE9DF800309DF80110F6
:1004300003F03F0003909DF8040001F03F029DF897
:10044000025000F01F010492BDF806009DF805203F
:1004500005F01F03069102F00F05C0F30B018AB2ED
:100460000593BDF808106B1E07939DF80330A2F2A8
:100470006C75C1F30B0203F00700089595B26B1E73
:100480000990002503A80A930B950DF0E9FC84E878
:10049000210000200DB030BD10B504460AF0F0FC7C
:1004A000013C14F8010F18B140B20BF0F9F8F8E76D
:1004B000BDE810400AF0F6BC38B50F4C256815F0C1
:1004C000010516D120460BF08DF990B14FF40E7056
:1004D000FFF7DAFE094B30223A2180F8345280F8D7
:1004E000352280F8361280F83752186020460BF01B
:1004F00087F90248006838BD40C1072044C1072081
:1005000038B5104C236813F0010517D120460BF0C5
:1005100069F998B14FF40E70FFF7B6FE012280F82A
:100520003422094A31213A2380F8351280F83632D4
:1005300080F83752106020460BF062F902480068DC
:1005400038BD00BF58C107205CC107202DE9F0412C
:10055000ADF50A7D0E4608F0F3FA041E04DD0AF03C
:100560001DFC20460AF0BCF9264D05AC0FCD0FC48A
:100570002B6810210DEB010200250AA823600495C9
:100580000AF06AF9074604986422B0FBF2F104917C
:1005900030461D491D4A0A2309F072F8BD4222D097
:1005A0000AAC049B04EB4514A2690BB1B2FBF3F354
:1005B000606994F80C800090A18B029388000A2354
:1005C0000190A2FB03014FF47A7200230CF0A0FE0D
:1005D00005AB03900E493046626853F8283009F0A5
:1005E0004FF80135DAE70AF04FF8102804D9304601
:1005F0000849102209F044F801200DF50A7DBDE8F4
:10060000F08100BF88390200A7390200CE3902000C
:10061000D3390200F039020010B5ADF5007D0C466B
:1006200068460AF06FFE204669464FF0FF3208F038
:10063000F1FF01200DF5007D10BD000030B50C4626
:1006400091B02C49054608F083F9002847D008AB43
:10065000009309A80AA90BAA0CAB0190029103927E
:1006600004932846244906AA07AB08F0D4F80728C3
:1006700001D000203BE09DF8390006999DF8383004
:1006800061F303008DF839000899BDF83A00079A24
:1006900061F30B0062F304030A99ADF83A009DF888
:1006A0003500099A8DF838309DF8363061F3050031
:1006B00062F304038DF835000C999DF837008DF82E
:1006C00036300B9A9DF8343061F3020062F3050373
:1006D0008DF837000DA88DF8343008F087FD08F04C
:1006E0001FFE06490246204608F0CAFF012011B04D
:1006F00030BD00BF2E5002001A3A0200495A0200D3
:1007000030B589B004AB0024009302220D4603AB40
:1007100018490394049408F08BF8022827D107A8FD
:10072000009005AA0398049906AB059406940794D3
:1007300004F03CFA024638B1049928460091039B24
:100740000D4908F09DFF10E0059A069B079C002AC2
:1007500008BF0122002B08BF012328460749B4FB2C
:10076000F2F2B4FBF3F308F08BFF012000E0204627
:1007700009B030BDF94B0200333A0200523A020090
:100780002DE9F0410C46ADF5866D3049054608F07F
:100790006CF92F490746284608F090F92C4928465D
:1007A00008F0ACF9284608F0C9F90122014601A871
:1007B00006F08AFA064640B1284608F0BFF92549F6
:1007C0000246204608F05CFF3AE00BAD314640F2AD
:1007D000014228460DF074FA009602F0A1F8804616
:1007E00001A829464FF480626B4606F039FB90B1B0
:1007F00001A806F0DFFC8FB102F092F8B0EB080020
:1008000014BF03460123144920463246B6FBF3F3D6
:1008100008F036FF02E0009B3BB9E9E720460F49AC
:100820004FF0FF3208F0F6FE0AE0F618E854002F09
:10083000D6D1204629464FF0FF3208F0D7FECFE749
:1008400001200DF5866DBDE8F08100BF803A020001
:10085000F94B0200893A02009D3A0200035302005C
:10086000F0B5C1B00DAB0025009302220C460CABD5
:100870005C490B950C950D9507F0DAFF022803D122
:100880000D980DF03BF805460C9808B956490C91A7
:1008900016A80C9906F031FD034678B1204653495D
:1008A0000C9A08F0EDFE9AE020AA802616A80EA960
:1008B0001492159606F073FD013D08B9002DF3DC86
:1008C00020464B490C9A08F0DBFE00252E4680207E
:1008D00020AB15900EA916A8149306F060FD002811
:1008E00065D19DF94110002961D09DF8407007F055
:1008F0001002D3B213B10135442205E00B990E98D2
:1009000001360A180B922D2207F0020C17F0010F86
:1009100007F0040E5FFA8CF007F020070CBF2D23C0
:1009200052235FFA8EF100280CBF4FF02D0C4FF0D0
:10093000480CF8B200290CBF4FF02D0E4FF0530EAB
:1009400000280CBF2D214121BDF83C00029141122D
:10095000BDF83E7001F2BC718DE800500391C0F308
:100960004311049100F01F00F912C7F345170691D7
:100970000590079740A951F8C80D093108900991D1
:1009800020461C4908F07CFE20461B494FF0FF32F0
:1009900008F02CFE20A920464FF0FF3208F026FE7A
:1009A000204616494FF0FF3208F034FE8FE70095DD
:1009B00040AD55F8D43D12493246204608F060FE5D
:1009C0000C9829460AAA06F019FD40B90A9B0B9912
:1009D0009A7820464A430B49520808F051FE0120FC
:1009E00041B0F0BDF94B0200B83A0200BB3A020038
:1009F000DF3A0200FA3A0200273B020003530200EA
:100A00002B3B0200553B020070B50E46054608F030
:100A100095F80446284608F091F806F0BCFD064A11
:100A2000064B0749002818BF13463046224608F0F7
:100A300027FE012070BD00BF153D02000B3D0200E6
:100A4000693B020070B50E46054608F077F804468B
:100A5000284608F073F806F035FD064A064B0749AC
:100A6000002818BF13463046224608F009FE012030
:100A700070BD00BF153D02000B3D0200853B02002A
:100A80007FB503AB0024009302220E4602AB0F4950
:100A90000294039407F0CCFE022814D1029D039C1B
:100AA0002846214606F01EFE09490A4A2346002828
:100AB00014BF104608460090074930462A4608F001
:100AC000DFFD012000E0204604B070BDF94B0200BC
:100AD0000B3D0200153D0200973B020030B58DB082
:100AE0000C46054608F02AF80A22014602A806F03C
:100AF000EBF840B1284608F021F81F49024620468D
:100B000008F0BEFD35E08DF8030001901B4920463A
:100B10007E2242F2107308F0B3FD1949204608F016
:100B2000AFFD236820461B680DF1030142F21072ED
:100B3000984718B19DF903007E2803D102A806F05A
:100B400039FB16E002A80DF10301012201AB06F00A
:100B50002DFA28B10199012902D020460949DEE782
:100B60002268204653689DF903104FF0FF329847E2
:100B7000D7E701200DB030BDAF3B0200D63B0200ED
:100B80000E3C02002E3C02002DE9F043ADF5417D04
:100B9000002303AD2B60029302220C4600954049CE
:100BA00002AB07F045FE022806D020463D494FF033
:100BB000FF3208F02FFD6EE016A8296806F09DFBB5
:100BC00018B1204638492A6807E016A8029906F0AD
:100BD00094FB28B13549029A204608F051FD5AE0AD
:100BE00040A94FF4807204A807F0E6FD09A880A987
:100BF0004FF4807207F0E0FD20A880211490159139
:100C000016A80EA906F0CBFB00283ED19DF9412085
:100C1000002A3AD09DF8405005F01003DDB2002DB7
:100C2000EAD10DF14106029A334604A8204908F0A2
:100C300045F8039A33461E4909A808F03FF804A86E
:100C400007F07CFF804609A807F078FF074604A854
:100C50000E9E07F073FF814609A807F06FFF2A4632
:100C600001462B460095484603F0A0FF1149124A61
:100C70000096002814BF1046084601900F492046F0
:100C800042463B4608F0FCFCB6E709A807F0A8FD81
:100C900004A807F0A5FD01200DF5417DBDE8F08316
:100CA000F94B0200553C02009A3C0200BF3C020096
:100CB000DF3C02000B3D0200153D0200E53C020056
:100CC00070B50C462149054607F036FF064628B1A7
:100CD000FFF716FC002100F2352009E028461C49E8
:100CE00007F02AFF50B1FFF7E7FB314600F235204D
:100CF0000A4606F089FD174B17491CE0284617499C
:100D000007F01AFF48B1FFF7FBFB012200F2352183
:100D100005F08AFF124B13490DE02846124907F0EF
:100D20000BFF88B1FFF7C8FB012200F2352105F067
:100D30007BFF0E4B0E49002808BF19464FF0FF32CB
:100D4000204608F067FC012070BD00BF6C3D02002A
:100D5000763D0200043D02000E3D0200833D02008C
:100D60001B3D02002B3D02008C3D0200423D020073
:100D7000503D020010B501200C4607F00BFD38B1C4
:100D800000210A460B4609F031F92046044901E0EA
:100D9000044920464FF0FF3208F03CFC012010BD12
:100DA000983D0200AE3D020038B5064C236833B9C9
:100DB0001C20FFF769FA054608F048F9256020680D
:100DC00038BD00BF4CC107202DE9F0430C4687B069
:100DD0003C49064607F0D4FD3B498046304607F0C3
:100DE000CFFD3A498146304607F0CAFD0027054647
:100DF000039704970597B8F1000F1DD0304634498A
:100E000003AA04AB07F007FD022807D020463149AA
:100E10004FF0FF3208F0FEFB3D464FE0FFF7C4FF06
:100E20009DF90C109DF9102008F005FD0499C2B23F
:100E300000912046284924E0B9F1000F2BD005ABE2
:100E400000933046254903AA04AB07F0E4FC0328CD
:100E500007D0204622494FF0FF3208F0DBFB454621
:100E60002CE0FFF7A1FF9DF90C109DF910209DF9D2
:100E7000143008F0D1FC40B104981A49059A00904A
:100E80002046039B08F0FCFB17E020461649039A16
:100E900008F0F6FB11E088B10226FFF785FF71B27A
:100EA00008F0D6FC20B120461049324608F0E8FB95
:100EB0000236B6F5807FF0D100E00125284607B064
:100EC000BDE8F0831C4D0200C83D0200CE3D02008B
:100ED000D73D0200E33D0200043E0200253E020031
:100EE000353E02005C3E02007C3E0200993E02005C
:100EF0002DE9F04F5E4C93B023680E4633B92020A5
:100F0000FFF7C2F9054608F0D7FA2560D4F800804B
:100F1000FFF7D2FA002512A941F8105D00F2352042
:100F20000DAA06F06BFA48B90D9A0E999769907858
:100F3000BC1E414344434D08670800E02F46DFF8DC
:100F40003491D9F8003063B90C20FFF79DF90446BD
:100F5000FFF72AFF9022206000202271A060C9F8CC
:100F600000404449086803F00FFE04460CF08AF97B
:100F700083460BF06DFF014620460BF0B3FE3E4961
:100F80000BF0BAFF0CF07EF90B900FA80AF062F894
:100F900004F022FD38B308F03BFA04F005FD00240C
:100FA0000346A146A2469C420AD020460A9304F07A
:100FB0005BFD504584BFA14682460A9B0134F2E79F
:100FC00008F03AFA642303FB0AF22C483B46B2FBD2
:100FD000F0F1C1F164028DE80406304628492A4642
:100FE00008F04EFB05E0304626492A463B4608F00D
:100FF00047FB254C23681BB90120FFF745F920600A
:10100000206803F099FD044608F08AF99DF8412014
:101010009DF84010019001F01F0302F00F00BDF891
:10102000422003939DF83E300290C2F30B0081B240
:1010300003F01F029DF83D009DF83C30049105929D
:1010400000F03F0103F03F02079200940691B8F8C8
:1010500018005A460890B8F81A10304609910B9BB0
:101060000A4908F00DFB012013B0BDE8F08F00BF66
:101070003CC1072048C1072000002041A086010094
:10108000B93E0200ED3E020050C10720FB3E0200C7
:1010900038B5064C236833B90420FFF7F5F8054648
:1010A00001F018FB2560206838BD00BF38C107205B
:1010B0002DE9F0418CB00C460546FFF7E9FF80466C
:1010C000284607F03BFD31490246204608F0D8FA91
:1010D00028462F4907F031FC431C064605D120461F
:1010E0002C4908F0CDFA00244BE032460021284676
:1010F00007F0A5FD014602A807F029FE02A807F0A7
:1011000081FB074630B920462349324608F0B8FA39
:101110003C4633E02846711C07F0C4FD014607A891
:1011200007F015FE07A807F06DFB054610B920462D
:101130001A490CE002A807F003FD054607A807F0CE
:1011400002FD691E0529064605D91549204608F005
:1011500097FA00240FE032464046C9B201F008FB7E
:1011600030460BF05DFA2A46CDE9000120460D49D4
:1011700008F086FA012407A807F032FB02A807F05E
:101180002FFB20460CB0BDE8F08100BF633F02009A
:10119000F94B0200683F02007E3F0200AB3F0200B5
:1011A000CB3F0200E23F020038B5FFF771FF002499
:1011B00005460021224601F0DBFA2846012122469D
:1011C00001F0D6FA28460221224601F0D1FA012088
:1011D00038BD000038B5064C236833B91420FFF73A
:1011E00053F8054606F070FF2560206838BD00BF43
:1011F00054C1072008B54FF0FF320846094908F0EE
:1012000009FAFFF7E7FF06F051FF4FF4FA6009F023
:1012100067FB4FF080430020AA221A721870012049
:1012200008BD00BFF93F020073B50C4614490546DE
:1012300007F082FC50B1FFF7CDFF06F037FF2046E4
:1012400010494FF0FF3208F0E5F916E0FFF7C2FF52
:101250000646284607F072FC40F2051301460A4A8A
:1012600000933046094B07F009F8284607F066FC62
:1012700007490246204608F003FA01207CBD00BF62
:101280000A40020010400200294002009C3902007E
:101290005C40020070B58AB005460C4607F0B2FA11
:1012A0000B2803DD20461B490C222DE0284607F0C1
:1012B00045FC01220146684605F006FD0646284623
:1012C000EEB907F03BFC144B016819604268134902
:1012D0005A608068986043F8041C039A10492046BD
:1012E00008F0CEF9684605F065FF4FF47A7009F012
:1012F000F7FA4FF08043AA221A721E7006E007F038
:101300001DFC08490246204608F0BAF901200AB03F
:1013100070BD00BF7E400200484002400DD0ADDEEF
:10132000A5400200ED40020070B5414EA6B0336802
:101330000546DB070C460CD430460AF053FA40B1A0
:101340004FF480600CF022FC3A49086030460AF005
:1013500057FA2846384907F013FB064620B3002108
:10136000802206A80CF0ACFC002105A80491059190
:101370000090324906AA04AB284607F04CFA2D4AE1
:10138000049B116806A8059A13B903F099FC01E0C3
:1013900003F0B7FC2A4A2B490346002B08BF11462D
:1013A000204608F06DF932E02846274907F0E8FAB0
:1013B00000283BD0284604AA244905AB049605968C
:1013C0008DF80F6007F027FA049D05982A18B2F5EA
:1013D000806F0DDD20461E494FF4806210E01548F5
:1013E0009DF80F10026851559DF90F300135F61820
:1013F000049B0598E91A814205DB164920463246CE
:1014000008F03EF903E0B5F5806F02DBF5E7012057
:101410000CE02268204613680DF10F014FF4FA62C8
:1014200098470028DBD120460B49BAE726B070BDAB
:1014300064C1072060C10720184102001F4102005B
:1014400002410200064102002F4102003641020023
:1014500040410200744102006441020030B50C4674
:1014600087B00B49054608F00BF9A17AE07A0091A4
:10147000E188019002912089A188039004916288FB
:1014800023882846034908F0FBF807B030BD00BFA9
:1014900085410200BB4102001FB501A80C4602F0C5
:1014A0008DFE02F07BFB01A902462046FFF7D6FF26
:1014B000012004B010BD0000F0B58DB003AB0025D5
:1014C00000930C4617463849022202AB0295039559
:1014D00007F0AEF9A84239DD02980CF00FFAC6B257
:1014E000039818B10DF0B7FAC5B200E0054604A89C
:1014F000002103F0F5F930B120462C494FF0FF32BE
:1015000008F088F8F3E7003718BF012702200090A1
:1015100039463046039A2B4602F072FC10B9204639
:1015200023490EE0002F3CD004A84FF47A7103F059
:10153000E1F9002830D09DF81010B1422CD107E01D
:101540001C494FF0FF3208F065F82AE0284629E0F0
:101550009DF817200C2A04D1204606A93246FFF731
:101560007DFF2046002DEBD1134908F089F89DF846
:1015700017309D420BDA20680CA94A19436812F90A
:10158000181C20464FF0FF3298470135EFE7204600
:101590000A4908F075F804E020460949029A08F063
:1015A0006FF801200DB0F0BDF94B0200D9410200E7
:1015B000FB4102003742020023420200454902007B
:1015C0005442020038B50D4607F0BAFA0446C0B2DC
:1015D00002F0D8FA054A064B0649002808BF134610
:1015E0002846224608F04CF8012038BD7A42020015
:1015F0000B3D02008142020030B58BB00AAA4FF4C5
:101600007A730C4642F8243D174907F004F9002587
:1016100002A8019903F064F9E0B1204613499DF84E
:10162000082008F02DF800259DF80F0085420BDA00
:1016300023680AA94A1912F9181C5B6820464FF062
:10164000FF3298470135EFE72046094908F018F8BE
:101650000125DDE72DB9204606494FF0FF3207F09E
:10166000D9FF01200BB030BD3D410200984202007D
:1016700002530200AF42020037B50C4602F004FCF0
:1016800016490546204607F0FBFF154920462A4625
:1016900007F0F6FF2046114907F0F2FFDDB11149CE
:1016A000204607F0EDFF20460C4907F0E9FF002037
:1016B000451CEDB202F0D2FB48B181780278437844
:1016C00000912046084907F0DBFF2846F0E7204656
:1016D000024907F0D5FF01203EBD00BFC042020015
:1016E000DB420200F54202001043020038B5064C0E
:1016F000236833B94C20FEF7C7FD054607F034FDDB
:101700002560206838BD00BF68C107202DE9F04F73
:10171000ADF5757D8022044634AF894614A80021BA
:101720000CF0CEFA0021802238460CF0C9FA03AE44
:101730000023336020460096714914AA3B4607F007
:101740006AF8032801D00020D5E00AA814A90122D4
:1017500005F0BAFA05460028F5D1FFF7C7FF0446A1
:10176000306854A984F84700802205A88DF80B50F2
:10177000049507F021F800974846624914AA336897
:1017800007F07EFFA8460AA874A94FF4007204ABC4
:1017900005F066FB38B10AA805F00CFD05A807F0B6
:1017A0001FF80120A7E004990029F4D06F1C5649C6
:1017B000049A204607F064FF226820469668B047E6
:1017C00000267D1EB246049B20689E420DD20DF578
:1017D000E87B1BF9061043684FF0FF32204698471C
:1017E00016F90B1001368A44EDE7816820468847D8
:1017F00005A807F0A3F9064605A807F006F84FF478
:101800007A7302463146204607F012FF012120225A
:1018100005A807F03EF905A807F092F950451FD03A
:1018200005A807F08DF9394903465246484607F0A6
:1018300027FF3749204607F023FF206881682046AC
:1018400088472268204613680DF10B014FF47A7225
:1018500098470028F5D1781C022F9CD80746A6E7A8
:10186000049A2C490092434634AA204607F008FF08
:1018700026682046B368984705A807F05FF9064632
:1018800005A806F0C2FF314602464FF47A7320469F
:1018900007F0CEFE05A8204907F048F8D0B905A802
:1018A00007F04CF91D490246484607F0E9FE184981
:1018B000204607F0E5FE216820468A6890472368A5
:1018C00020461B680DF10B014FF47A7298470028EF
:1018D000F5D1C0E705A8124907F02EFA049811497E
:1018E0008044424648460D9B07F0CAFE002D3FF457
:1018F0004AAF013D47E70DF5757DBDE8F08F00BFAC
:101900002B4302003A4302005143020063430200AA
:10191000025302008A430200A0430200A3430200D4
:1019200003530200DB4302002DE9F04186B006AA12
:101930000026074642F80C6D0D463C4906F06BFF49
:1019400038460121202207F0A4F8039B002B63D026
:10195000384606F057FF00285ED0FFF7C7FE8DF827
:101960000B60044620680DF10B0106680522204635
:10197000B04706460028F5D10399384684F8471049
:1019800007F0DCF84FF0FF320146204607F042FE38
:10199000226820469768B847254B05961868374651
:1019A0000490216820460B684FF47A720DF10B0108
:1019B000984770B105A8411C03220CF067F99DF807
:1019C0000B8005A804A904228DF817800CF046F9B5
:1019D00038B91821B7FBF1F301FB13726AB1013377
:1019E0000BE028684FFA88F1436801222846013746
:1019F00098470028D5D10136D3E728460D493A4605
:101A000007F03EFE76B1612000900B492846324631
:101A10000A4B07F035FE05E0284609494FF0FF3232
:101A200007F0F8FD012006B0BDE8F0813D4102005D
:101A300081410200E74302000E440200C744020055
:101A40000345020043682DE9F041994204460D46E2
:101A500017D3C06889000CF091FDA668E060B7005C
:101A6000AE420DD21020FEF70FFC0021102280465E
:101A70000CF026F9E068013640F807800437EFE7FC
:101A80006560BDE8F08100002DE9F743304D074661
:101A90002C688946002C49D12420FEF7F5FB04234D
:101AA000064680E818008460C46008214FF00108F1
:101AB000FFF7C8FF86F8208030462649264A274B84
:101AC00000942E6006F000F928682549254A264B27
:101AD000009406F0F9F828682449254A254B00941B
:101AE00006F0F2F828682449244A254B009406F0B1
:101AF000EBF828682349244A244B009406F0E4F8C4
:101B000028682349234A244BCDF8008006F0DCF8EE
:101B100028681F49214A224B009406F0D5F800940A
:101B200028682049204A214B06F0CEF83846204943
:101B300007F002F818B138461E4907F0FDF8044BCB
:101B4000394618684A4603B0BDE8F04306F08CB940
:101B50006CC10720291901002F45020036450200FB
:101B60000D1701007045020079450200F9150100CA
:101B7000CD450200D0450200C5150100D049020044
:101B8000F345020079160100394602001D460200A5
:101B9000B91401008246020040460200814602005C
:101BA0008646020099140100C6460200AB460200B8
:101BB00003530200CC46020037B590F90450144696
:101BC00000934AB223462946006807F030FE3EBD26
:101BD00010B5044694F904102D220823006807F07C
:101BE0001BFE206894F904103122082307F014FE2C
:101BF000012010BD10B504462246084606233221B6
:101C0000FFF7DAFF204610BD08B5034693F904102C
:101C100020220F23006807F0FFFD012008BD38B522
:101C200004460D460846224628210123FFF7C4FF3B
:101C300028462921621C0123FFF7BEFF28462A21DE
:101C4000A21C0123FFF7B8FF28462B21E21C012329
:101C5000FFF7B2FF28462C21221D0123FFF7ACFF1E
:101C600028462D21621D0123FFF7A6FF204638BD1F
:101C7000014B0360704700BFE0460200012070473F
:101C80000120704701207047014B0360704700BF7F
:101C9000E0460200034B10B504460360FEF7F8FA75
:101CA000204610BDE0460200034B10B50446036019
:101CB000FEF7EEFA204610BDE046020070B5C56B97
:101CC00004461B4925F000400BF0D2FA70B12846BB
:101CD0000AF0A6FC02460B4616480CF0ADFBA06DC0
:101CE0000AF09EFC02460B4613481AE0266C104987
:101CF00026F000400BF0BCFA054630B130460AF041
:101D00008FFC02460B460D480BE0A46C0C492046A4
:101D10000BF0AEFA48B120460AF082FC02460948B0
:101D20000B460CF089FB012070BD284670BD00BF3A
:101D300021B0323E304702005447020062470200A1
:101D4000000040418647020001460022406B3C31C2
:101D5000134608F01CBA38B5FFF79AF90024054677
:101D60000121224600F004FD28460021224600F011
:101D7000FFFC284602212246BDE8384000F0F8BCAE
:101D80002DE9F04F87B08046FFF782F98146D8F8F9
:101D90004C000AF045FCACA3D3E900230AF094FC04
:101DA0000022AF4B0AF0BAFD0022AE4B0AF0B6FD9E
:101DB0000AF044FF8346D8F850000AF031FCA2A391
:101DC000D3E900230AF080FC0022A54B0AF0A6FD0F
:101DD0000022A44B0AF0A2FD0AF030FF0290D8F8CE
:101DE00054000AF01DFC98A3D3E900230AF06CFC10
:101DF00000229B4B0AF092FD00229A4B0AF08EFDC6
:101E00000AF01CFFD8F83C400390214696480AF09F
:101E100069FF00210BF02CFA10B14FF07E5A01E05F
:101E2000DFF854A2204690490AF05CFF20F0004001
:101E30000AF0F6FB86A3D3E9002304460D460AF018
:101E400091FA064650460F460AF0EAFB22462B4618
:101E50000AF03AFC324604460D463B4630463946C7
:101E60000AF032FC02460B467BA1D1E900010AF0E0
:101E700055FD0AF0E3FE0AF0D3FB02460B4620466E
:101E800029460AF04BFD0AF0D9FE784B78491860D4
:101E90008246D8F840000AF027FF002104460BF0E4
:101EA000E7F910B14FF07E5C01E0DFF8CCC124F01F
:101EB0000040CDF800C00AF0B3FB65A3D3E90023CE
:101EC00006460F460AF04EFADDF800C004466046AA
:101ED0000D460AF0A5FB32463B460AF0F5FB2246CA
:101EE00006460F4620462B4629460AF0EDFB0246E1
:101EF0000B4659A1D1E900010AF010FD0AF09EFE3F
:101F00000AF08EFB02460B46304639460AF006FDC3
:101F10000AF094FE574BD8F84440019018602146CF
:101F200000200AF0DFFE00210BF0A2F910B14FF003
:101F30007E5600E0504E24F000400AF071FB44A3AE
:101F4000D3E90023CDE904010AF00CFA0446304637
:101F50000D460AF065FBDDE904230AF0B5FB2246D5
:101F600006460F4620462B4629460AF0ADFB0246A0
:101F70000B4639A1D1E900010AF0D0FC0AF05EFE5F
:101F80000AF04EFB02460B46304639460AF0C6FCC4
:101F90000AF054FE394BD8F8481018600446D8F8B7
:101FA0006C000AF09FFE00210BF062F910B14FF0B7
:101FB0007E5000E0304832490AF09EFFD8F8701099
:101FC0000AF092FE51460746C8F8700058460AF0DB
:101FD00089FE2C490AF090FF2B4D014628680AF033
:101FE00083FE59462860294D50460AF07BFE25495C
:101FF0000AF082FF29680AF077FE019928600646F8
:1020000002980AF06FFE1F490AF076FF204D014644
:1020100028680AF069FE0399286020460AF062FEEB
:102020001C490860314638460AF05EFE1A490446EB
:102030000BF000F9A0BB204618490BF019F980B34A
:10204000164C2EE0AFF30080182D4454FB210940BC
:10205000A4703D0AD7A3C03F000000A09999B93FE2
:102060000080664000408F405839343D70C10720E1
:102070000AD7A33C88C10720000080BF7CC107208D
:10208000CDCC4C3E0000A04174C1072078C1072090
:1020900080C1072084C107200000104100008C424D
:1020A000294C22464846012100F062FB274AD8F815
:1020B000700011680AF018FE25490AF013FE224943
:1020C00004460BF0B7F830B9204622490BF0D0F89F
:1020D00010B1204C00E01C4C22464846002100F084
:1020E00047FB1D4BD8F8700019680AF0FDFD164932
:1020F00004460BF09FF830B9204616490BF0B8F8AB
:1021000010B1144C00E0104C22464846022100F069
:102110002FFB1248124900680AF0E6FD0021044630
:102120000BF088F830B920460E490BF0A1F810B139
:102130000C4C00E0002448460321224607B0BDE8CD
:10214000F04F00F015BB00BF0000104174C1072024
:102150000000204100008C4280C1072084C107207C
:10216000000038420000C842436E10B5591C0446B6
:102170004166FFF7E9FD606EB0F5FA7FCCBF002045
:10218000012084F83900C0B994F83820AAB9204653
:10219000FFF794FD84F8380040B9636E40F6C9013A
:1021A0008B4207DC2046FFF7EBFD06E02046FFF7F9
:1021B000D2FD02E00020E066F4E7012010BD00003F
:1021C000F8B50546FEF764FF002614230446EB61CC
:1021D000314685F8386085F839606E6600F09EFA01
:1021E0000121204600F09AFA0221204600F096FADA
:1021F0000321204600F092FA0E4900274FF07E504E
:10220000A866E966204631463A462F6700F0B0FAE4
:10221000204601213A4600F0ABFA204602213A4618
:1022200000F0A6FA20460321034A00F0A1FA01209B
:10223000F8BD00BF0000C04000004842014B0360F1
:10224000704700BFE0460200034B10B50446036030
:10225000FEF71EF8204610BDE04602000000000018
:102260002DE9F347B44D0446AB6943F40020A8615F
:102270000A2006F07CFDE969684641F40022EA6123
:10228000216EFFF7B7FC009EBDF80470616EA66674
:10229000A4F86C706846FFF7C2FC009DBDF80430DE
:1022A000C4F86E50A4F87230B4F96E000AF0D0FD94
:1022B0008246A064B4F970000AF0CAFDB4F97280D5
:1022C0008146E06440460AF0C3FD20650746B4F944
:1022D000680000010AF0BCFDB4F86A60606531B2C4
:1022E00008010AF0B5FDB4F86C50A0652AB21001DF
:1022F0000AF0AEFDE06550460AF092F900228F4BDD
:102300000AF00CFB00228E4B0AF008FB86A3D3E9EF
:1023100000230AF0D9F90AF091FC8A490AF0ECFD91
:102320000146A06B0AF0E0FCA06348460AF078F989
:102330000022824B0AF0F2FA0022814B0AF0EEFAF8
:1023400079A3D3E900230AF0BFF90AF077FC7D49AD
:102350000AF0D2FD0146E06B0AF0C6FCE06340469D
:102360000AF04CF921F0004319460022764B0AF09E
:102370003BFCC8B138460AF053F900226F4B0AF013
:10238000CDFA00226E4B0AF0C9FA67A3D3E9002305
:102390000AF09AF90AF052FC6A490AF0ADFD0146CA
:1023A000206C0AF0A1FC2064684F38680AF038F904
:1023B0005FA3D3E900230AF087F90022644B0AF0F7
:1023C000ADFA0AF03BFCD4F8A01007460AF08AFCEC
:1023D000604920F000400AF02DFF10B1C4F8A07051
:1023E000676430B20AF00AF9064628B20F460AF0CE
:1023F00005F902460B463046394609F0DBFC0AF087
:102400001DFC6067B4F968000AF0F8F80546B4F9F5
:102410006C000E460AF0F2F802460B46284631469A
:1024200009F0C8FC0AF00AFCA0670546B4F9680088
:102430000AF0E4F80746B4F96A0021F000460AF011
:10244000DDF8844621F0004E624673463846314638
:1024500009F088FF0646B4F96C000F460AF0CEF882
:10246000024621F000433046394609F07BFF0AF06E
:10247000C5FBA4F89C007E3881B240F269308142ED
:102480006ED8B4F96E000AF0E3FC0AF0C9F8002235
:102490002A4B0AF043FA0022294B0AF03FFA22A302
:1024A000D3E900230AF010F90AF0C8FB25490AF025
:1024B00023FDA16B0AF018FC27490AF01DFD2749EE
:1024C0000646606F0AF018FD014630460AF00CFC23
:1024D000A063B4F970000AF0BBFC0AF0A1F8002276
:1024E000164B0AF01BFA0022154B0AF017FA0EA33E
:1024F000D3E900230AF0E8F80AF0A0FB11490AF03A
:10250000FBFCE16B0AF0F0FB13490AF0F5FC134900
:10251000064628460AF0F0FC014630460AF0E4FB85
:10252000E0631DE0AFF300804AD8124DFB21094063
:10253000B81E85EB51B8BE3F20C0092000408F4037
:10254000008066400AD7A33B00406F4094C107203B
:10255000008062400000404048E17A3F0AD7A33C37
:102560000022606B04F13801134607F03FFD0120A3
:10257000BDE8FC87AFF3008038B51A4C63685A0099
:1025800011D51948416801F001024260E36843F047
:102590008040E060216901F080422261636943F07C
:1025A0008040606138BDA068430019D50E4DA86811
:1025B0000AF04AFCE2680D4942F080430860E3609B
:1025C000686840F0010169606A6842F002036B606C
:1025D000606900F080416161226942F080432361BB
:1025E00038BD00BF808002400040094094C10720F0
:1025F00038307047052370B50446C3610020A063DE
:10260000E0632064606428210022012007F0BDFC03
:102610002B496063D1F8C42042F40006C1F8C460BD
:10262000D1F8AC3103F48040C1F8AC01A1F5D02160
:102630004A6842F001064E604B6843F00200486071
:10264000A1F5D021CA681F4B02F0C006CE60186801
:102650001D4E40F4002119601C4A1E20002106F086
:10266000B9FC33684FF08042C4F8A0204BB9082071
:10267000FDF70AFE0546FEF797FB2860A7202871A4
:1026800035601149124E0A68336822664BB908203A
:10269000FDF7FAFD0546FEF787FB2860D320287179
:1026A00035600B49206E0A686266FFF791FA28B11F
:1026B000606EFFF7A9FA08B1012070BD002070BD5F
:1026C00000C00F4020C009208CC1072079250100DF
:1026D00090C1072070B5002605460660012106203E
:1026E0000D4C08F0C3FD0121062008F0D7FD0223A0
:1026F000FF2263602260636108F048FF3221B0FB73
:10270000F1F00923A0616360A660226F284622F0E1
:102710000F01216770BD00BF0080014002680529DC
:1027200030B542F0010202D90260002030BD012321
:102730004C1C03FA04F52A43026001FA03F0032457
:1027400004FA00F403FA00F0093103FA01F1074A30
:10275000156925EA04041461146920431061A2F587
:10276000A032D06C0143D164184630BD00C0024095
:10277000F8B517460C46054608F008FF0AF064FB5A
:102780001349064638460AF06BFC12490AF0B4FBBE
:1027900010490AF0A9FA014630460AF0ADFB0AF0EA
:1027A00097FD0D4B052C0FD8DFE804F00305070952
:1027B0000B0DD86108E0186206E0586204E0186466
:1027C00002E0586400E098642A681A65F8BD00BF0A
:1027D0000000C8426F12833A0080014038B50D46B0
:1027E000044608F0D3FE074B0221B0FBF3F0B0FB28
:1027F000F1F2954201D3216138BDB1F5807FFAD065
:102800000231F4E740420F0001480BF02DBE00BF3B
:10281000084802007FB500F235260D4601223146F8
:1028200004F002FAC4B24CBB04A941F8044D30468E
:1028300002AA04F0E3FDF8B9029A03999469937827
:10284000A21E5A435943540840F2E73348089C42B9
:102850000F49104B8CBF4FF48062012288BF0B469A
:10286000B0FBF2F18DE80A000B482946B4FBF2F206
:102870000BF0E2FD012008E0084B00E0084B09489E
:10288000294662B20BF0D8FD002004B070BD00BF35
:10289000424802003F4802004C48020045480200FE
:1028A000494802007A48020038B5AA224FF0804316
:1028B00055201A72187208F0DFF9174C02284FF0F1
:1028C00000014FF00100D4E9002317D1121843EBA7
:1028D0000103C4E9002308F06BFDD8B108F05AFDEC
:1028E000D4E900010A2200230AF012FD0A25A0FB08
:1028F000052305FB0133C4E9002338BD121843EB5F
:102900000103C4E9002301F0FFFF0020BDE83840C7
:1029100008F096BB38BD00BFA8C10720FFF7C4BFB1
:10292000024BD3E90023104619467047A8C107207F
:1029300038B5084D2B684BB90820FDF7A5FC0446B7
:10294000FEF732FA2060402020712C6001490868AF
:1029500038BD00BF9CC1072038B5054C256825B996
:102960000120FDF791FC05702060206838BD00BF94
:1029700098C10720664A674970B54023664D4FF0FD
:1029800000704FF480348B6190618C612E68ADF5DE
:10299000047D26F0F0032B60286840F050042C6082
:1029A0002E6826F440532B60086840F040040C6009
:1029B0002E6826F47C232B60286840F428242C60A1
:1029C0002E6826F470032B60286840F420042C60E5
:1029D0002E6826F040432B60286840F000442C60AD
:1029E0006E6826F03C036B60686840F028046C60F9
:1029F0006E6826F003036B60086840F480340C6056
:102A00006E6826F440536B60086820F480040C6004
:102A1000E96821F44036EE60136843F0807010607E
:102A20006C6824F4402169606E683C4C46F4802355
:102A30006B60A8680440AC60116841F4897646F088
:102A400001031360A86820F47014AC60A96821F039
:102A50007046AE60136823F446401060EC6824F0C2
:102A60003001E960EE6846F03003EB60E86820F47E
:102A70007014EC60156845F000711160166826F05E
:102A80008063136008F06AFA4FF4FA6006F08BF97D
:102A9000FFF7BAFE08F07AFD0AF0D6F920490AF0ED
:102AA000DFFA09F0BDFD02460B461E480BF0C4FCE0
:102AB00008F0CAFA042811D100221B4805920568C3
:102AC0001A4E04AC0495FFF79FFEF16C1848326D66
:102AD000736D00940BF0B0FCFFF796FE0C20012103
:102AE00008F0C4FB134C0C20032108F0D7FB4FF473
:102AF0000011216008F04AFD0223C0080E4AB0FB15
:102B0000F3F595421AD8266846EA0321216019E0B8
:102B100020C0092000C0092000C00240F0FCFCFFDA
:102B200000247449B848020044400240004002407A
:102B3000D0480200004003403F5DC6000233B3F5B9
:102B4000807FDBD10A20012108F090FB0A200121BF
:102B500008F0A4FB9B48072502240560012144607E
:102B6000FFF73CFE06F0E4FB1520012108F07EFB98
:102B70001520012108F092FB934801210560446073
:102B8000FFF72CFEFEF710F9642106F029FA10B9C0
:102B90008E480BF069FC01F07DFE10B98C480BF0FB
:102BA00063FC01218B4808F0C9FBFDF785FC8A49CD
:102BB000FFF730FE0646B8B988480BF03DFCFDF73C
:102BC0007BFC3146324600F2352004F01DFE844B7A
:102BD000844A002814BF104618460BF045FCFDF748
:102BE0006BFC7D49FFF716FE7F4C206810F0010555
:102BF00017D1204608F0F6FD98B14FF40E70FDF79E
:102C000043FB7A4A012131263A2380F8341280F8B6
:102C1000356280F8363280F837521060204608F06E
:102C2000EFFD724C72492068FFF7F4FD18216548EA
:102C3000FFF7D4FDFFF7E8FDFFF78EFE002101F05E
:102C400053FFFFF775FE6B4D0646286858B90C20F8
:102C5000FDF71AFB0446FEF7A7F890210023206039
:102C60002171A3602C60634A106801F08DFF0AF0A7
:102C700009FB41B2304601F017FF00235E4804A96A
:102C800007220493059301F0FAFFA8B904A80AF0FB
:102C900035FEC6B2751EE8B2FD2805D904A9564A0C
:102CA00056480BF0C9FB07E055483146524A0BF035
:102CB000C3FB304600F066FF524C216819B9012071
:102CC000FDF7E2FA2060206801F036FF064600209A
:102CD0000DF0DCF830180BF0E5FB4FF4007200212A
:102CE00004A80AF0EDFF04A808F00CFB04A946486C
:102CF0000BF0A2FBFFF788FD8022002104A80AF058
:102D0000DFFF04A802F03EFE9DF91020531C05D001
:102D100004A9D2B23D480BF08FFB2FE03C4D2B684D
:102D20001BB90120FDF7B0FA2860286801F006FF02
:102D300009281DD137480BF097FB04A936480BF042
:102D4000E5FC04A935480BF077FB35480BF08CFB0C
:102D50000020039003A933480BF0D8FC9DF90C40E8
:102D6000592C03D104A802F0EFFD07E02E4803E040
:102D70002E480BF079FB2E480BF076FB4FF2080142
:102D80000E684A684FF20403B50A960A4FF470427F
:102D90008C681268196827480BF04EFB2A463146AA
:102DA00025480BF049FB214624480BF045FBFFF773
:102DB0002BFD23480BF058FBFFF726FD0DF5047D96
:102DC00070BD00BF00000340008008404849020079
:102DD00079490200A92801009E490200A649020083
:102DE000AD480200B248020058C107205CC107206C
:102DF0003A3D020048C10720CF490200D5490200F0
:102E0000004A020050C10720495A02002D4A020020
:102E1000A0C10720494A02006B4A0200704A020022
:102E20008B4A0200CE4A0200D24A0200EA4A02005D
:102E3000184B02004A4B0200764B0200A34B0200E3
:102E4000C04B020001207047F8B591E860000F7A8E
:102E500014468FB1082A0FD1304605F0D3FC002864
:102E60001BDD28460E494FF0FF3206F0BFFB30460F
:102E7000012105F0CEFD08E00A2C05D00D2C03D071
:102E80003046214605F0B4FE4FB12B6828465B68FA
:102E900021464FF0FF329847F8BD0724F5E7F8BD0B
:102EA000F84B02002DE9FF41CE6B04460D4601AF01
:102EB0005EB94FF47A7007F013FD31460C223846A4
:102EC0000AF0FEFE97E807005EE00B6C01F13406A5
:102ED000186807C887E8070000278DF80370EA6BB9
:102EE00097422DD2F368511E53F827008F420CBF32
:102EF0000522002200684FEA87080179002949D09D
:102F000003680DF103011B689847002842D0B2689E
:102F1000974241D2F16851F8080001AB07C883E835
:102F2000070019469DF903202846FFF78DFFFFF79C
:102F3000F7FCD5E92223121843EB0103C5E920234E
:102F4000029805F05FFC0746029805F05EFC421E01
:102F5000974216DAD5E92201014320D0FFF7E0FCC1
:102F6000D5E92023994208BF904218D3FFF7D8FC37
:102F7000D5E92223121843EB0103C5E920230023DE
:102F8000019304A810E9070084E80700204604B074
:102F9000BDE8F0810137A2E706F11000BDE79DF919
:102FA00003100A29EDD0002799E70000F0B5054687
:102FB00085B020480BF040FA01A82946FFF772FFC0
:102FC000019C1CB91C480BF04FFA30E0029E3046C1
:102FD00005F018FC00282ADDFFF7A2FC0746F8B12F
:102FE000B5F874303146581CA5F87400224605F136
:102FF000500004F039FF114900250A680092236847
:103000001DF905105B6820464FF0FF3201359847E7
:10301000042DF4D1FFF784FCC11B09480BF00CFA16
:10302000304605F0F4FB206881682046884701207F
:1030300005B0F0BDFB4B020003530200D44B02006D
:10304000014C020038B5064C236833B92020FDF747
:103050001BF9054606F030FA2560206838BD00BF30
:103060003CC1072010B50446FFF7ECFF036821467A
:103070005B684FF0FF32984740B210BD13B5002394
:1030800002AC04F8013DFFF7DDFF01684FF0FF32AD
:103090000B68214698479DF907001CBD38B50546C9
:1030A00000246B68E8689C4205D250F82400FDF7C4
:1030B000EFF80134F5E708B1FDF7ECF8284638BD24
:1030C0000D4B70B5044640F8503BFFF7E7FF04F1A5
:1030D000340600257068854206D2F26852F8250051
:1030E000FDF7D6F80135F5E7206C08B1FDF7D2F809
:1030F00002492046216070BDE04B0200E04602001C
:1031000010B50446FFF7DCFF2046FDF7C1F8204666
:1031100010BDF8B54368044699420D4615D3C06802
:1031200089000BF02BFAA668E060B700AE420BD224
:103130000C20FDF7A9F8E2680021016041600172EE
:103140000136D0510437F1E76560F8BD2DE9F04153
:103150000446142016468846FDF796F88021074657
:1031600005F059FDA36BE26B9A4205D3616B04F144
:1031700034005918FFF7CDFFE56B206C50F825306F
:103180000135C3F800805F601E72E563BDE8F08121
:103190002DE9F04100F150048AB000250646009563
:1031A00020466249624A634B04F08EFD009520463A
:1031B0006149624A624B04F087FD009520466149EF
:1031C000614A624B04F080FD009520466049614AE7
:1031D000614B04F079FD009520466049604A614BDF
:1031E00004F072FD009520465F49604A604B04F090
:1031F0006BFD009520465F495F4A604B04F064FD1B
:10320000009520465E495F4A5F4B04F05DFD0095E6
:1032100020465E495E4A5F4B04F056FD009520460D
:103220005D495E4A5E4B04F04FFD009520465D49C6
:103230005D4A5E4B04F048FD009520465C495D4ABE
:103240005D4B04F041FD009520465C495C4A5D4BB6
:1032500004F03AFD009520465B495C4A5C4B04F063
:1032600033FD009520465B495B4A5C4B04F02CFD26
:10327000009520465A495B4A5B4B04F025FD0095BA
:1032800020465A495A4A5B4B04F01EFD00952046E1
:1032900059495A4A5A4B04F017FD0095204659499E
:1032A000594A5A4B04F010FD009520465849594A96
:1032B000594B04F009FD009520465849584A594B8E
:1032C00004F002FD009520465749584A584B04F037
:1032D000FBFCFFF7B7FE4FF4806320224FF416414A
:1032E000054606F0C7F8012780462F715148FDF7C3
:1032F00035F85148FDF72CF8304629463A46FFF795
:1033000025FF082203A905A805F056FA05A84B4990
:1033100005F012FD05A92A46204604F0A5FD05A8E2
:1033200005F05EFA40460AB0BDE8F0814D050100A7
:10333000614C0200174C0200190601004E4C0200BD
:10334000564C0200F10E0100744C0200664C020063
:103350003D060100BC4C02007B4C020081070100CD
:10336000C14C0200C54C020001070100644D02007F
:10337000214D0200890B0100634D0200674D0200E0
:1033800061080100B24D0200B54D0200090A0100BA
:10339000E34D0200E94D0200810A01000E4E0200D9
:1033A000114E0200DD0A01005E6702003E4E02007F
:1033B000450A0100634E0200664E0200C90D01007D
:1033C000894E02008D4E0200C10C0100344F0200F4
:1033D0003C4F0200F51101007F4F0200864F0200B2
:1033E00029120100994F02009D4F0200750D010046
:1033F000D34F0200D94F0200891A010095490200FB
:1034000001500200B11001002B50020032500200A6
:10341000A911010054500200595002002913010063
:103420005D51020069500200951201007D3D0200CD
:10343000265102007D30010065300100CC460200BB
:1034400073B500244FF480520B4600941849064689
:1034500005F086F9174B042533607563B463F46394
:10346000346406F134000221FFF753FE35657465BC
:10347000B465F46506F150001821FEF7E3FAA6F8EA
:103480007440A6F87640B4670B4C00220023002558
:10349000012086F87000C6E92023C6E92245FFF71F
:1034A0003FFA001941EB0501C6E9200130467CBD19
:1034B00062510200E04B0200C0D401002DE9F0414E
:1034C000804690B061480AF0CFFF04A8D8F8601099
:1034D000FEF790FBBDF9100009F090F800225C4B5C
:1034E00009F0F2F800225B4B09F018FA04460D4689
:1034F00006A8D8F86010FEF77DFBBDF91A0009F0A8
:103500007DF80022524B09F0DFF80022514B09F000
:1035100005FA06460F4608A8D8F86010FEF76AFBC1
:10352000BDF92400CDE9006709F068F80022484B96
:1035300009F0CAF80022474B09F0F0F922462B4661
:10354000CDE9020144480AF077FF0AA8D8F86410D0
:10355000FEF765FB0CA8D8F86410BDF92860FEF7EB
:103560005EFBBDF932700EA8D8F86410FEF757FB69
:103570003A46BDF93C30314638480AF05DFF4046D6
:10358000FFF736F8006809F04BF802460B4634485E
:103590000AF052FF4046FFF72BF8406809F040F868
:1035A00002460B462F480AF047FF4046FFF720F837
:1035B000806809F035F802460B462B480AF03CFFBC
:1035C0004046FFF715F8C06809F02AF802460B4696
:1035D00026480AF031FF264B264C186809F020F8DF
:1035E00002460B4624480AF027FF2448244D006871
:1035F00009F016F802460B4622480AF01DFF224940
:10360000086809F00DF802460B4620480AF014FF3E
:103610001F4A106809F004F802460B461D480AF0DC
:103620000BFF206808F0FCFF02460B461A480AF020
:1036300003FF286808F0F4FF02460B4617480AF01B
:10364000FBFE4FF4FA7007F04BF93BE71F4802000E
:103650000000104000408F4087510200A951020035
:10366000C3510200D6510200E9510200FC51020090
:1036700070C1072078C107200852020088C10720C6
:1036800080C10720195202007CC107202B52020082
:1036900074C107203B5202005752020074520200CC
:1036A000F0B5A42085B0FCF7EFFD002522494FF4CA
:1036B000805202230095044605F052F81F4B7420F7
:1036C0002360676BFCF7E0FD01234FF480521C4937
:1036D0000095064605F044F81A487763306090205C
:1036E000FCF7D2FD01210746FFF7AAFE384604F099
:1036F000F9FF204604F0F6FF304604F0F3FF1249CC
:103700000127234601914FF48052009702950395BB
:103710000E490F4806F09CFE2946384604F0F2FF99
:103720002268204653689847306841683046884789
:103730004FF0FF3005B0F0BD87530200D0470200C4
:1037400098530200B0470200B0C10720AB530200FB
:10375000BD34010038B5074C236833B91C20FCF791
:1037600093FD054605F072FC256022680248026060
:1037700038BD00BF4CC10720B4C1072030B50023BD
:103780008B420DD044783CB1048C4FF6FF75141970
:10379000AC4228BF2C4604840133DBB22430EFE76F
:1037A00030BD000037B50E49002302A84A6840F832
:1037B000043D042190470B4B05461C6801980421E9
:1037C000041B186022460848FFF7D8FF022107486B
:1037D0002246FFF7D3FF281C18BF01203EBD00BFC3
:1037E000B8C10720A0C20720CCC10720A5C207206E
:1037F00008B50B4B01781A780A4B914203D119880E
:103800000131198002E09988013199808270064A5D
:103810002021D3689847003018BF012008BD00BFA1
:1038200005C0072074C20720B8C107200A4B0278E0
:1038300019780A4B8A4203D1DA88511CD98002E0F8
:103840001A89511C19810379C3F3C202511E61F315
:10385000C5030371FFF7CCBF05C0072074C2072062
:1038600010B50023064A990012F82340844201D182
:10387000501810BD0133042BF4D1002010BD00BF3F
:103880008FC2072070B1C378591CCAB2FF2AC27018
:1038900008D100230448C218D17804334808102BFB
:1038A000D070F7D1704700BF8FC20720F0B5034634
:1038B0000246044600258D4207D02046243414F8E1
:1038C000236CC6B10135EDB2F5E7002004468C4209
:1038D00010D01579178CC5F3C20547EA0545A842F3
:1038E000164624BF05461E460134E4B2243228465B
:1038F0003346ECE71846F0BD38B501310446CD003B
:10390000FFF750FF1B4B20781A78824204D1022126
:103910001948FFF7CBFF0CE004211848FFF7C6FF5A
:10392000E17831B990F8235045F0800380F82330D6
:10393000042590F82310002221F07F0380F8225004
:1039400043EA152580F8202080F8212080F82350B4
:103950002346024604F1200153F8044B8B4242F8FF
:10396000044BF9D1064A0379117861F3C503037159
:1039700038BD00BF05C00720A5C20720CCC1072065
:1039800004C0072010B5FFF76BFF044608BBFFF724
:1039900067FF0446E8B9104AD378D179994202D238
:1039A0000B46111D00E01146D07AD47B984238BFF7
:1039B0000A490B4A38BF03469C422CBF0C461446AA
:1039C0002046002104220AF07BF9064BD97A481CD4
:1039D000D872204610BD00BF8FC2072097C20720B3
:1039E0009BC2072074C207202DE9F041054690468E
:1039F0000C460027474500F0BE8094F8233003F0C2
:103A00008000C1B269B3BDB12B786278934203D113
:103A10006878217888421ED0E87868B16978914248
:103A200008D122789A4205D1A879A179421A534245
:103A3000534100E0002373B994F8232094F8221036
:103A4000208C02F07F0341EA03218842C0F28F807C
:103A50002046FFF7CDFE2046002124220AF030F94F
:103A600085E06378002B00F08280002D3DD02A791C
:103A700002F0C000C0281AD16A782178914202D1A0
:103A800028789842E7D0E078A978884210D193420C
:103A900009D120782A78904205D1A079AA79811A93
:103AA0004842414100E000210029D4D100E0E0B1CA
:103AB000A978E278914218D16878984209D12178A2
:103AC0002A78914205D1A179AA79881A41424841C0
:103AD00000E0002048B12279002161F3C50284F89A
:103AE000201084F82110227141E094F8232094F8EA
:103AF0002200218C02F07F0240EA0220814236DB64
:103B000021790026C1F3C20284F8206084F8216084
:103B1000D6B21EB12046FFF789FE28E001F0C000B2
:103B2000C02818D0154920780978884213D1E07848
:103B3000984210D078B16379E270032262F30713E0
:103B400063712046FFF772FE0D482179037863F315
:103B5000C501217100E001266078FFF781FE18B1F0
:103B6000002104220AF0ACF8002E7FF474AF013774
:103B7000FFB224343EE7BDE8F08100BF05C0072056
:103B800004C00720431ED9B2FD2903D8024A107091
:103B9000012070470020704705C00720014B1878AE
:103BA000704700BF05C0072007289CBF014B187055
:103BB000704700BF04C007202DE9F7430446914633
:103BC00098469DF828600D46002958D02F4B1F7845
:103BD000B94254D0B8F10F0F51D8002851D020224B
:103BE00000210AF06DF8FF2D207914BF09F00302BF
:103BF000002262F38710032161F30200244B20713D
:103C00001A78277062F3C50020712248A7700178E6
:103C10000BAF4B1CDAB20270A271657001970EB93E
:103C2000012613E00198013E03464268E07953F80B
:103C3000081B8718FFB2182F0193F6B205D8083079
:103C400020180AF01AF8E771E9E70026124F01215F
:103C500028463970FFF704FE0546FFF713FE0022E1
:103C60003A70637925B968F307136371E57009E069
:103C7000A87860F3071363716978E17002E00026A9
:103C800000E006463046BDE8FE8300BF05C00720C1
:103C900004C0072082C2072080C20720164B70B5DF
:103CA00001261E70044608B900251FE0FFF7A0FD9D
:103CB00005460028F8D0207900F0C001402903D043
:103CC000B1F1800256425641C02906D1E3782BB1AA
:103CD0006078C31A18BF012300E000230EB9DB0788
:103CE00004D5617920460909FFF706FE024B002240
:103CF0001A70284670BD00BF80C2072082B0F0B5A0
:103D00001746421E0446D0B28DB0FD280D461393CF
:103D100001D900205AE0002BFBD0159B002BF8D0D6
:103D200017990029F5D0169A002AF2D01498002885
:103D3000EFD000214822284809F0C2FF002190223C
:103D4000264809F0BDFF00211022254809F0B8FFE0
:103D5000244E00210C22244809F0B2FF00210C223D
:103D6000224809F0ADFF3470214C224E25703446B4
:103D700013AD0FCD0FC42B68002118221E482360FD
:103D800009F09EFF394617221B480AF0A6FE0020C4
:103D9000B268014690470028BBD09DF8601011B969
:103DA000FFF700FD12E01548062201230190029260
:103DB000009304A8FF210022FFF7FEFE0028A8D0F0
:103DC00004A8FFF76BFF0028A3D0E9E70DB0BDE81A
:103DD000F04002B0704700BFA5C20720CCC1072049
:103DE0008FC2072005C0072083C2072074C20720A6
:103DF00081C20720B8C107205CC20720B55302006A
:103E000070B5182B8CB006460D4617D81C1C18BF71
:103E10000124002A14BF214684F0010171B10192EE
:103E20000293009404A831462A469DF84030FFF7DB
:103E3000C3FE18B104A8FFF731FF00E000200CB06A
:103E400070BD13B50446107852790B4611090091E4
:103E500022460321FFF7D4FF1CBD000030B500232C
:103E60001A4608499C0011F823502DB1904201D107
:103E7000081930BD0132D2B20133042BF1D1002038
:103E800030BD00BF8FC2072000231846044A995C4A
:103E900009B10130C0B20433102BF7D1704700BF15
:103EA0008FC207202DE9F04188B06846002120220A
:103EB00009F006FFA14B1C78002C40F03B81A04884
:103EC0002021026968469047002800F087809D4DB8
:103ED00069884B1C6B80FFF7D7FFA8729DF8042000
:103EE00002F00700032804D097490A7842F0010045
:103EF00009E0964D9DF802102D78A94205D192490E
:103F00000B7843F002000870E6E0C2F3C2019DF8AE
:103F100000709DF806005FFA81FE032262438C4E1A
:103F2000B318B65CBE420AD15A78824207D19A7859
:103F30009970B2EB0E0618BF0126012417E0013478
:103F4000042CEAD1834C236899708149587001F19F
:103F5000090083421F7040F0CC8021609DF8000072
:103F60009DF80220824240F0C780002426469DF83A
:103F70000200FFF707FD9DF80210002C08BF012684
:103F800001709DF80220002142708170F6B2FFF7A7
:103F900079FC1EB39DF80000A84200F09C809DF8BB
:103FA0000160FF2E1CD166482021036868469847AF
:103FB00020B9654C227842F0040121709DF805304B
:103FC00003F00F04601C1A4660F30302B4EB131FE6
:103FD0008DF8052002DA6846FFF70AFC00247BE032
:103FE000B5422CD16CB99DF8070050B1544B6846CE
:103FF0001A682021904720B9534C217841F00400E1
:1040000020709DF8043003F0C002402A12D19DF8C0
:10401000071011B95048182108E04A480C216A4697
:10402000FFF70FFF002856D1002001466A46FFF730
:1040300008FF50E09DF80340002C4CD1F4E7474CBA
:104040002378002BCAD09DF8054004F00F082709FB
:10405000B845C3DA3046FFF703FC9DF8032008F1AA
:10406000010868F3030495428DF805401DD19DF8C1
:10407000045005F0C004402C05D0B4F180014B423F
:1040800053EB010200E0012208B1457800E005464B
:10409000C02C05D1AE4203D02C1C18BF012400E077
:1040A000002444EA020530B90AE0A2B910B9684612
:1040B00039460EE0154641788DF80310847802E009
:1040C0008DF8030004466846FFF792FB1DB1684671
:1040D0002146FFF711FC6C46FFF764FB20460422E3
:1040E0001F49FFF781FC20461E490222FFF77CFC96
:1040F00020E0DE1C266031E785423FF436AFFFF753
:1041000041FC0446FFF7BEFB23783BB19DF8051048
:10411000A67801F00F00B0423FF727AF9DF80020CE
:1041200022709DF8023063709DF80510C1F3030002
:10413000A0701AE708B0BDE8F08100BF80C2072078
:10414000B8C1072074C20720A4C2072005C00720F9
:1041500083C2072000C007205CC2072081C207205D
:10416000CCC10720A5C2072000231846094AD11850
:104170004A780AB10130C0B22433902BF6D1064BF5
:10418000597809B1421CD0B293F825300BB10130F7
:10419000C0B27047CCC10720A5C2072008B5FFF701
:1041A0005FFB054B20B180781978421CD00001E0FC
:1041B00019781820484308BD04C00720034A116835
:1041C00001605168926841608260704774C2072044
:1041D00030B5404C4FF48035E5613F4CA060E0685D
:1041E000C006FCD43C488068C0B2002B6CD00B46A3
:1041F000002A5CD0384C93F90050072AA56030DDC6
:1042000093F90150083AA56093F90250A56093F91B
:104210000350A56093F90450A56093F90550A5607B
:1042200093F90650A56093F907500833A5602A4C0E
:10423000A5696D07FBD5A5680D70A5684D70A568CB
:104240008D70A468CC70244CE568ED06FBD4A5689D
:104250000D71A5684D71A5688D71A468CC71083188
:10426000C6E7032A18DD93F90150043AA56093F9D3
:104270000250A56093F903500433A560164CE5681D
:10428000ED06FBD4A5680D70A5684D70A5688D700E
:10429000A468CC700431ABE70133013AE56815F04E
:1042A000100FFBD10C4CA46801F8014BA0E7094B9F
:1042B0004FF480329A6140B230BDE56815F0100FBE
:1042C000FBD1054C0133A4689342F0DACD56024C81
:1042D000A560F2E700C009200080084007B5002370
:1042E00002A9012201F8013D00F01F001346FFF76B
:1042F0006FFF9DF907000EBD07B502AB03F8011D66
:1043000000F01F0019460122002340F02000FFF7B3
:104310005FFF0EBD08B51720FFF7E0FFC0F30010E8
:1043200008BD07207021FFF7E7BF03460A466FF07C
:104330005F0019460023FFF74BBF08B50020FFF7C9
:10434000CDFF20F0010149B20020BDE80840FFF791
:10435000D3BF0000024B4FF08072DA61704700BF9C
:1043600020C0092008B50020FFF7B8FF40F0010188
:1043700049B20020FFF7C0FF024B4FF080729A61F4
:1043800008BD00BF20C0092007202021FFF7B4BFCF
:1043900000216FF01E000A460B46FFF719BF000010
:1043A00037B505460C46FFF7F3FF28462146FFF7D1
:1043B000BCFF0D4B4FF0807200209A61ADF80600F3
:1043C000BDF806104A1C93B2ADF8063033B9064961
:1043D0004FF08070C861FFF7DBFF3EBDFFF79AFF2B
:1043E0000028EDD0F3E700BF20C0092008B5172052
:1043F000FFF774FF00F0010080F0010008BD072006
:104400004021FFF779BF08B503460A4661201946E7
:104410000123FFF7DDFEC0F3420008BD00216FF06D
:104420001D000A460B46FFF7D3BE70B504460020B8
:104430000D461646FFF752FF14B100F0BF0102E02F
:1044400040F04000C1B215B101F0DF0201E041F0DF
:10445000200216B102F0EF0301E042F01003002049
:1044600059B2BDE87040FFF747BF10B504460020C1
:10447000FFF734FF14B900F0F7020DE0012C04D16E
:1044800000F0FB0040F0080206E0022C14BF40F0F0
:10449000080140F00C01CAB2002051B2BDE8104042
:1044A000FFF72ABF08B50020FFF718FF40F0020110
:1044B00049B20020BDE80840FFF71EBF08B5002044
:1044C000FFF70CFF20F0020149B20020BDE80840D0
:1044D000FFF712BF40F6DD13984206D840F662118E
:1044E000B0F5166F38BF084600E01846A0F160022C
:1044F00051B20520FFF700BF10B504460620FFF7B4
:10450000EDFEFA2C00F0D70102D141F0200104E0C9
:10451000B4F5FA6F08BF41F00801062049B2BDE8C2
:104520001040FFF7E9BE10B504460620FFF7D6FE9F
:10453000032C34BF2146032100F0F90040EA410278
:1045400051B20620BDE81040FFF7D6BEF9284FF063
:10455000FA0305D9B0F57A6F28BF4FF47A6000E00E
:104560001846B0FBF3F0421ED3B20F2928BF0F212B
:1045700041EA0311042049B2FFF7BEBE1130C0B2B8
:10458000162806D8202928BF202140B249B2FFF7BB
:10459000B3BE7047032804D004280CBF02210321B6
:1045A00000E001210320FFF7A7BE03460A463020A2
:1045B00019460023FFF70CBE03460A462A20194677
:1045C0000023FFF705BE000073B504460E461546EE
:1045D000FFF724FFFFF7DCFE2A4B4FF08072DA6111
:1045E000FFF76CFF00210A460120FFF71EFFFFF7CF
:1045F00098FE0220FFF739FF3046FFF76BFF284691
:10460000FFF77AFF0320FFF78EFF02200321FFF759
:1046100073FE01200021FFF76FFE03214FF4FA70B3
:10462000FFF794FF00202146FFF7A8FF122000218A
:10463000FFF762FE13200021FFF75EFE1420002129
:10464000FFF75AFE15200021FFF756FE1620002125
:10465000FFF752FE0C4908680A79009005208DF892
:104660000420FFF797FF68460521FFF79EFF684685
:104670000521FFF7A1FFFFF715FF4FF4FA6004F0E3
:1046800076FB7CBD20C00920BC530200042938B54C
:10469000054603D1041C18BF012400E00024FEF7E6
:1046A0003FF904B12860204638BD000007B5084B2B
:1046B000002102AA186842F8041D0B4605F02EFDE1
:1046C000019818B103494FF080520A600EBD00BF37
:1046D000F8C2072004ED00E070B500238AB0019312
:1046E0000646007901AA00F0C001C0290CBF0F499D
:1046F0000F4900230D683146284605F00FFD04469A
:1047000058B9224602A9284605F0C2FD234628468C
:10471000314601AA05F002FD0446019A1AB1054B83
:104720004FF08050186020460AB070BDF0C20720DC
:10473000F4C2072004ED00E010B5194C226822B93C
:104740000320202105F021FC2060164C226822B9AC
:104750000120202105F019FC2060134C216821B9AB
:104760000120032205F011FC2060202040F6C31137
:104770004FF4FA62FFF728FFFFF7F4FD162001213E
:104780000A4A04F027FC064B186838B1054800684F
:1047900020B105490A68101C18BF012010BD00BFD8
:1047A000F4C20720F0C20720F8C20720AD4601007E
:1047B0002DE9F34180460F46164606F05DFA0228C1
:1047C00007D1324640463946002305F0E0FCC6B228
:1047D00013E000230193FEF7A3F8841941F10005CB
:1047E0004046394601AA05F053FDC6B22EB9FEF780
:1047F00097F88D4208BF8442F2D270B2BDE8FC81C6
:1048000037B504460D46FFF7C9F9237883420AD02D
:10481000E07840B909F072FE00F00301481CBD22A7
:10482000504304F0A4FAFFF795FDFFF786FD2046FC
:10483000A9B2FFF7B5FDFFF7A7FDFFF793FD06F05F
:104840001BFA02280ED1084B002102AA186842F870
:10485000041D0B4605F062FC019818B1034A4FF0A5
:104860008051116001203EBDF8C2072004ED00E038
:1048700038B504460D46FFF7B9FD48B1A9B2204648
:10488000FFF7C1FDFFF7B2FD08B9FFF7B8FD012042
:1048900038BD000000B50C4B0C488DB00C490D4ADA
:1048A00009930B900CAB002043F8102D0A91049053
:1048B0000FCB8DE80F00084B6A200121074AFFF754
:1048C0001DFA0DB000BD00BF39470100714801005D
:1048D000014801008D460100D9460100C153020084
:1048E0000A460349034608681946FFF761BF00BF3F
:1048F000F4C207200A460349034608681946FFF731
:1049000057BF00BFF0C2072008B506F0B5F90F4B3E
:104910000228586912D142020CD5FFF725FC0C4938
:1049200000280CBF4FF0FF320122086800210B461F
:1049300005F02DFCBDE80840FFF7B4BA4302F9D5F5
:10494000FFF712FC0028F5D108BD00BF00C0092008
:10495000F8C2072010B506F093FA0C4B1A6822F043
:10496000E06020F0FF0119601C6844F004021A6046
:10497000186840F0807119605C68002CFCDA034B09
:104980005C6806F08FFAC4F30B1010BD00400340C2
:1049900030B504464DB2006894F9041053B22A466B
:1049A000BDE8304004F038BF1FB5002204AB90F9D9
:1049B000044023F8042D4AB20221009100682146E8
:1049C00004F035FF9DF90C009DF80D3082B243EAEA
:1049D000022188B204B010BD234910B50A680B4605
:1049E00012F010020ED08868C83088611F490A880A
:1049F0001F2A05D8DC6A1E4840F8224001320A808E
:104A000010202EE00B68D9072CD518480088012803
:104A100022D9174B411E04338A4207DA53F8041C8B
:104A20001C680132611A43F8041CF3E7104A0023A2
:104A300050681A4600EB50008B420BDA0C4C54F8CD
:104A40002340844203D9012404FA03F422430133AE
:104A50009BB2F1E707490A60044B00221A80024B1F
:104A60000120186010BD00BF0080004000C3072077
:104A700004C30720FCC20720044A08B501F07F03E5
:104A80004171D25C0321FFF783FF08BDC6530200CA
:104A9000044A08B501F07F038171D25C0221FFF75F
:104AA00077FF08BDC6530200642370B591FBF3F491
:104AB00004FB13110A224CB294FBF2F602FB1643DC
:104AC00003F1300149B20546FFF7E2FF092C02DC91
:104AD0002846202103E006F13002284651B2BDE805
:104AE0007040FFF7C9BF0000124B01F00F0140F208
:104AF000131201709A610178CA0701D50122DA61A7
:104B0000037803F00201CAB212B10A4B0221D96143
:104B1000027802F00401CBB213B106491022CA6137
:104B2000007800F00803DAB21AB102484FF480713D
:104B3000C161704720C00920FFF70CBF044B5969C1
:104B4000C1F38130C1F3412242EA8000704700BFC7
:104B500020C0092038B500210446FFF725FF0121B8
:104B6000812285B22046FFF713FF102328B290FB65
:104B7000F3F008F06DF94FF0765108F0BDF9A16837
:104B800008F0B2F838BD000008B5FFF7E3FF0549AB
:104B900008F0B2F9044908F063FA4FF0844108F0D4
:104BA000A3F808BD000010410000A0402DE9F04F1F
:104BB0000546ADF5177D0C46914602A8294601220F
:104BC0009A4602F081F88346002853D10CA821466A
:104BD0000A2202F079F8834608B102A837E0009073
:104BE0000190064607468046FDF79AFE16A9044640
:104BF0004FF4007202A86B4602F032F98346A8B95E
:104C0000009A9AB1FDF78CFEB8EB040268EB08033A
:104C100000EB0208FDF784FE009A04460D460CA83E
:104C200016A901AB02F0C2F9834698B1B9F1000FA1
:104C300001D0C9F80080BAF1000F01D0CAF80070A5
:104C4000A09901B10E6002A802F0B4FA0CA802F01B
:104C5000B1FA0FE0019900988142E7D1FDF760FEBB
:104C60004FF0FF321440C7193F1B009C00231D402A
:104C70003619B9E758460DF5177DBDE8F08FF0B548
:104C800004468DB00F46164621461D4602A8002355
:104C90000122019302F018F8044670B91DB102A870
:104CA000294602F09FFA02A83946324601AB02F0CB
:104CB000D7F8044602A802F07DFA20460DB0F0BDF8
:104CC000F0B504468DB00F46164621461D4602A893
:104CD00000230A22019301F0F7FF044670B91DB1C9
:104CE00002A8294602F07EFA02A83946324601ABF4
:104CF00002F05CF9044602A802F05CFA20460DB00E
:104D0000F0BDF0B504468DB00F46164621461D464F
:104D100002A800231222019301F0D6FF044680B9B5
:104D200002A80DB1294600E0059902F05BFA02A83D
:104D30003946324601AB02F039F9044602A802F0C6
:104D400039FA20460DB0F0BD7F2816D931B1FF28C1
:104D500012D80A49803831F810007047074A8BB2E0
:104D600032F81120824203D001318029F6D10B465E
:104D700003F18000C0B27047002070472656020041
:104D80000023064A32F8131031B1884201D00133B2
:104D9000F7E7034830F81300704700BF26570200BA
:104DA0004654020010B501200C4605F090F9206031
:104DB000003018BF012010BD0120704710B5044617
:104DC00005F05AFF02280AD100210B46204640F682
:104DD000B83205F0DCF9431E5842584110BD01209D
:104DE00010BD10B5044605F047FF022807D1002189
:104DF00020460A460B46BDE8104005F0F7B810BD46
:104E000010B5044604F004FB24B1012C06D100F0D7
:104E10005BFB01E000F0F8FC044600E0042404F031
:104E20000BFB204610BD20B1012801D100F044BB8E
:104E300004207047F8B504460F4616461D4604F098
:104E4000E7FA3CB1012C0CD1384631462A4600F035
:104E5000E3FA04E0384631462A4600F019FD0446DC
:104E600000E0042404F0E8FA2046F8BDF8B5044652
:104E70000F4616461D4604F0CBFA3CB1012C0CD16E
:104E8000384631462A4600F067FA04E03846314693
:104E90002A4600F019FD044600E0042404F0CCFA90
:104EA0002046F8BD70B504460E46154604F0B0FA2B
:104EB00034B1012C0AD13046294600F027F903E02D
:104EC0003046294600F01AFD044600E0042404F0B0
:104ED000B3FA204670BD000010B5044606F056FB3C
:104EE000074BB0FBF3F10223B1FBF3F2944202D380
:104EF0000448036110BDB3F5807FF9D00233F3E7B6
:104F000040420F0000000340044B9860DA68D2066C
:104F1000FCD40248816848B2704700BF00000340DB
:104F200038B5FDF7FDFC00F5FA754FF0FF30FFF7DF
:104F3000EBFF4FF0FF30FFF7E7FFC4B2FF2C07D0C5
:104F4000FDF7EEFC2A460023994208BF9042F0D3B9
:104F5000204638BD38B5064C4FF00075E561FFF7C7
:104F6000DFFF044BA5611A7842F00100187038BDCC
:104F700020C0092006C0072070B505460E46FDF783
:104F8000CFFC00F164044FF0FF30FFF7BDFFC0B26B
:104F9000FF2809D1FDF7C4FC22460023994208BF2F
:104FA0009042F0D3002070BDFE28FBD1102E06D910
:104FB00028464FF40071002204F0C8F918E02C468E
:104FC0004FF0FF30FFF7A0FF20704FF0FF30FFF7EA
:104FD0009BFF60704FF0FF30FFF796FFA0704FF01F
:104FE000FF30FFF791FFAB19E0700434A342E7D123
:104FF0004FF0FF30FFF788FF4FF0FF30FFF784FFDF
:10500000012070BD38B505460C46FFF789FFFF2823
:105010001ED160B2FFF778FFFD2C1BD04FF400715A
:105020004FF0FF32284604F091F94FF0FF30FFF7C0
:105030006BFF4FF0FF30FFF767FF4FF0FF30FFF7D8
:1050400063FF00F01F00411F4A4252EB010038BDD0
:10505000002038BD012038BD38B5044620060D4675
:1050600007D577200021FFF7F7FF01283BD804F090
:105070007F041D4B4FF000729A61DA61FFF750FF19
:10508000FF282FD160B2FFF73FFF2816FFF73CFF44
:1050900045F30740FFF738FF45F30720FFF734FFDC
:1050A00068B2FFF731FF402C04D0482C0CBF87209A
:1050B000012000E0952040B2FFF726FF4C2C03D1E1
:1050C0004FF0FF30FFF720FF0A244FF0FF30FFF7CB
:1050D0001BFF01460029C0B205DA013C14F0FF04B1
:1050E000F3D138BDFF2038BD20C00920054A06494C
:1050F00013784869410154BF03F0FD0343F00303F3
:105100001370704706C0072020C009207FB50546F0
:105110000C46FFF7EBFF052D18D12178012900F08F
:105120000F810AD3022940F009818848426982F040
:105130008063C3F38061617002E1844C606910F0A8
:10514000806440F0FD80FFF705FFF9E0804B1878A0
:10515000C00700F1F7800E2D00F2EA80DFE815F0BD
:105160000F00190054005800E800E800E800E800CB
:10517000E800E800B200B700B900C300D4007348EB
:105180004FF00071C161FFF7CBFEFF3818BF01205F
:10519000CFE049200021FFF75FFF054608B101205D
:1051A000C7E068461021FFF7E7FE0028F7D09DF81A
:1051B00000109DF808308A09012A07D19DF80910CE
:1051C000481C00EB03239AB2930246E09DF80700C7
:1051D000810001EB93129DF80630501C9DF80520CC
:1051E00003F0030100EB812302F00F009DF80A1089
:1051F0009DF8092000EBD11002F0030100EB410003
:10520000C21F03FA02F328E04FF4007020805CE034
:10521000504D2B7803F00400C1B209B3CD2000211A
:10522000FFF71AFF0028BAD14FF0FF30FFF76CFEEE
:1052300068461021FFF7A0FE0028B0D030254FF0BF
:10524000FF30013DFFF760FE15F0FF05F7D19DF837
:105250000A001022010902FA01F32360284668E0DF
:105260004920FFF7F9FE0646002898D1684610212C
:10527000FFF782FE002892D0297801F00202D0B216
:105280009DF80A1080B101F03F009DF80B10CA098B
:105290009DF80D1002EB40038A09581C531E00FABA
:1052A00003F02060304644E09DF80B30C1F38402E7
:1052B000511C03F003025B0903EBC202531C4B4376
:1052C000236036E023490A782270002031E049202B
:1052D00000E04A200021FFF7BFFE00287FF45FAF07
:1052E000204610211DE07A200021FFF7B5FE00289E
:1052F0007FF455AF05464FF0FF30FFF705FE6055D0
:105300000135042DF7D1E0E7CD200021FFF7A4FE01
:1053100000287FF444AF4FF0FF30FFF7F5FD204643
:105320004021FFF729FED0F1010038BF002000E046
:105330000420064B4FF000729A6104E0042002E062
:10534000002000E0032004B070BD00BF20C0092091
:1053500006C0072084C3072070B5144605460E46D4
:10536000FFF7C4FE002C4AD0284B1A78D20748D445
:10537000187800F00401CBB2002B44D124484FF040
:1053800000722449C2610B7803F00802D0B200B960
:105390007602012C0DD158203146FFF75DFE30BB5F
:1053A000FE212846FFF72EFED0F1010438BF00246D
:1053B0001DE013F0060F03D0D7202146FFF74CFE67
:1053C00059203146FFF748FE88B92846FC21FFF7EF
:1053D00019FE28B1013C14F0FF0405F50075F4D165
:1053E0000020FD21FFF70EFE002808BF0124084B16
:1053F0004FF00071201C996118BF012070BD04207E
:1054000070BD032070BD022070BD00BF06C0072024
:1054100020C0092084C3072070B5144605460E46F7
:10542000FFF764FE002C3CD0204B1878C1073AD41B
:105430001F494FF000721F4BCA61187800F0080234
:10544000D1B201B97602012C0ED151203146FFF7BD
:1054500003FEF0B928464FF40071FFF78DFDD0F13F
:10546000010438BF002414E052203146FFF7F4FD58
:1054700078B928464FF40071FFF77EFD28B1013C52
:1054800014F0FF0405F50075F3D14C200021FFF75F
:10549000E3FD074B4FF000709861201C18BF0120FE
:1054A00070BD042070BD032070BD00BF06C0072082
:1054B00020C0092084C3072008B5FFF717FE014B61
:1054C000187808BD06C007202DE9F341FFF70EFE4E
:1054D000554B1A7802F00200C1B2002940F0A080BA
:1054E0000120FFF7F9FC0A244FF0FF30013CFFF7E1
:1054F0000BFD14F0FF04F7D14C4B4FF00076402029
:10550000DE612146FFF7A8FD012801D0002674E0E6
:10551000FDF706FA4FF4D57100F57A774820FFF7CA
:105520009BFD012841D14FF0FF30FFF7EDFC01AAB0
:1055300010550134042CF6D19DF806000128E5D160
:105540009DF80710AA29E1D1FDF7EAF93C460025AC
:10555000A94208BFA04206D3FDF7E2F9A94208BF5D
:10556000A042D3D207E0E9204FF08041FFF774FD5D
:105570000028E9D1F0E77A200021FFF76DFD00282F
:10558000C4D104464FF0FF30FFF7BEFC01AE3055EA
:105590000134042CF6D19DF8043003F04002D0B25F
:1055A00000280CBF04260C2627E0E9202146FFF73F
:1055B00053FD01288CBF012602268CBF4FF0410805
:1055C0004FF0E908FDF7ACF93C460025A94208BFB9
:1055D000A0420BD3FDF7A4F9A94208BFA0420CD307
:1055E00050204FF40071FFF737FD06E040460021E0
:1055F000FFF732FD0028E5D1ECE70D490B4B4FF0EA
:1056000000720E709A6146B10748017801F0FE02FF
:1056100002701820FFF760FC01E0FFF79BFC024BD3
:105620001878BDE8FC8100BF06C0072020C0092013
:1056300084C30720F8B51A4B05461C880E46B4F5FE
:10564000007F174602D1084611460AE0B4F5807F74
:1056500009D1084611462246A84706F5807007F58D
:105660008071224619E0B4F5047F07D122F4FF725D
:10567000084622F001014FF400720EE0B4F5847F79
:105680000CD1170A08464FF480727902A847791C9A
:1056900006F5807049024FF48072A847F8BD00BF3C
:1056A00086C3072010B5034600295CDD93F900404E
:1056B0002D4A0729946030DD93F901400839946040
:1056C00093F90240946093F90340946093F9044085
:1056D000946093F90540946093F90640946093F9BF
:1056E000074008339460204A94696407FBD59468A6
:1056F000047094684470946884709268C2701A4A06
:10570000D468E406FBD49468047194684471946886
:1057100084719268C2710830C6E7032918DD93F9D5
:1057200001400439946093F90240946093F9034076
:10573000043394600C4AD468E406FBD49468047083
:1057400094684470946884709268C2700430ABE7C7
:1057500001330139D46814F0100FFBD1024A92686A
:1057600000F8012BA0E710BD0000034007B58DF83D
:105770000400080A0B0C8DF806008DF8071001A82C
:1057800004218DF80530FFF78DFF0EBDF7B50D4CE8
:1057900006464025080CE5610B0A17468DF8050002
:1057A00003228DF8071001A804218DF804208DF83C
:1057B0000630FFF777FF30463946002203F0C6FD7A
:1057C000A561FEBD00C009200D4B0E4840226FF0C0
:1057D0002801DA618160C268D106FCD4094B9B685C
:1057E00008484FF0FF318160C268D206FCD4054BF7
:1057F00098680306F4D5024A40219161C0B270470F
:1058000000C0092000000340F7B5FFF7DDFF0746A1
:105810001B481C4D81781C4C0023402602882380A5
:1058200001A8EE618DF806100321ADF80420FFF702
:1058300039FF9DF805009DF806301F28AE6117D18D
:10584000A3F12502022A13D81049252B0B7007F06B
:10585000010006D100280CBF4FF484734FF480730D
:1058600005E000280CBF4FF404734FF4007323804D
:10587000054A1188D1F1010038BF0020FEBD00BFEC
:105880000659020000C0092086C3072088C30720EC
:105890002DE9F041064617464FEA4128FFF794FFED
:1058A00034460025C6EB0802BD42224407DA2146F1
:1058B0000448FFF7BFFE04F500740135F2E700204D
:1058C000BDE8F0818D5701002DE9F04106461746ED
:1058D0004FEA412804460025C6EB0802BD42224497
:1058E00007DA21460448FFF7A5FE04F500740135E8
:1058F000F2E70020BDE8F081E959010008B507286A
:105900001CD8DFE800F00407131719191919FFF75D
:105910005BFF11E00A4B18782538C3B2032B9ABFFE
:10592000084A52F8233000235B0A04E04FF4007069
:10593000088001E001230B60002008BD042008BDA1
:1059400088C307200C59020030B591B003466C465D
:1059500000F1400518685968224603C20833AB427B
:105960001446F7D1064D40249B200021EC61FFF73F
:10597000FDFE68462146FFF795FEAC6111B030BDD3
:1059800000C0092070B5074D40240646002177204D
:10599000EC61FFF7EBFE30462146FFF783FEAC617A
:1059A00070BD00BF00C00920084B188830F01F00F0
:1059B0000BD007490B78253BD9B203299ABF054A7A
:1059C00052F821100021B1FBF0F0704786C3072088
:1059D00088C307200C590200024B1878003018BF0A
:1059E0000120704786C307202DE9F7434FF0FF33AE
:1059F0000D46904601938146FFF7E6FEFFF7ECFF68
:105A00000446A0B1164E40271648F76101880320CE
:105A1000B1F5847F14BF4FF400714FF480712943B6
:105A2000FFF7A4FE01A80421FFF73CFEB7610C4E6E
:105A30004022F26182202946FFF798FE48464146FF
:105A4000012203F083FC3CB1019B02A8591C40F8E1
:105A5000041D0421FFF726FE4020B061BDE8FE834F
:105A600000C0092086C30720F7B5114B07461E88E2
:105A70004FF0FF30B6F5847F14BF4FF400764FF43B
:105A800080760190FFF7A8FF60B10A4C4025032003
:105A900046EA4721E561FFF769FE01A80421FFF707
:105AA00001FEA5610198B0F1FF3F08BF0020FEBDD7
:105AB00086C3072000C009201FB501A803F074FBAE
:105AC0009DF809209DF8083002F00F019DF806208E
:105AD00003F01F004B0543EA004002F01F0140EABB
