:020000021000EC
:10000000004008207F0101004D010100E1000100D6
:100010003D0101002D0101001D0101000000000053
:10002000000000000000000000000000FDA1010031
:100030000D0101000000000081A20100BDA201002D
:10004000FD000100FD000100A53D0100FD000100D3
:10005000FD0001009D880100FD00010005890100EF
:100060006D890100FD000100FD000100FD0001009F
:1000700029840100FD000100FD000100FD000100D8
:10008000FD000100B5770100FD000100FD00010049
:10009000FD0001002D830100FD000100FD000100B5
:1000A000FD00010081820100FD000100FD00010052
:1000B000FD000100B1A60100FD000100FD000100EE
:1000C000FD000100FD000100FD000100F4530200ED
:1000D00000C007202001000020C10720DC04000030
:1000E00004207146084200F00480EFF309800AF012
:1000F0004BBBEFF308800AF047BB704708B50248D6
:1001000000F0CAF9FEE700BFCA4C020008B5024879
:1001100000F0C2F9FEE700BFE04C020008B502485B
:1001200000F0BAF9FEE700BFF04C020008B5024843
:1001300000F0B2F9FEE700BFFD4C020008B502482E
:1001400000F0AAF9FEE700BF084D020008B502481A
:1001500000F0A2F9FEE700BF134D020010B5002326
:10016000934203D21C585C500433F9E710BD0023BE
:100170008B4203D200221A500433F9E7704710B5BE
:1001800014480AF03BF913480AF03BF9124C134BA0
:100190009C4205D294E807000C34FFF7DFFFF6E736
:1001A0000F48844205D294E803000834FFF7DFFFCC
:1001B000F6E70CF099F80AF03BF901F097FE02F02F
:1001C00075FC4FF416400AF013FC064800F064F981
:1001D000FEE700BF00400820CC000100D80001006D
:1001E000E0000100854D020008B5024800F054F916
:1001F000FEE700BFAE4D020008B5024800F04CF922
:10020000FEE700BFB94D020008B5024800F044F90E
:10021000FEE700BFC84D0200124A30B51168034620
:1002200011B94FF08050106010680F4DC41862195A
:100230000E4D0C49AA4297BF0D480C601A180A606F
:10024000084A0C4C1168A14202D90B4810600020EA
:100250003BB10A4A116801311160094A094910602D
:100260000B6030BD24C10720FF7FFFEFFE3F07106A
:10027000FCC50720FF3F0820004008202CC10720B4
:1002800028C1072020C107200CF06CB80CF06AB818
:100290000CF070B80CF06EB830B58BB00446684600
:1002A0000CF0ACFC214D089B07982560A3606060B2
:1002B00058B91F491F4A0B6893428ABF03F1604334
:1002C00003F17043A3F5E82363606068B0F5803FF5
:1002D00004D900F17041A1F5E82363601448154B7F
:1002E000016800229942E26006D86D18C5F180537A
:1002F00003F58035E5600BE00F4A914208D80F48BE
:10030000C0F1804303F58012501A0028C8BFE06096
:10031000E1610B490B480A680B490368A2610A684E
:100320006361226120460BB030BD00BFFC050000B8
:1003300024C1072000800010FF3F0820FCC50720D3
:1003400028C1072020C107202CC10720FEE700009C
:10035000014B1860704700BF34C10720014B186083
:10036000704700BF30C1072008B502480CF068FC98
:10037000FEE700BF4826020008B502480CF060FC0A
:10038000FEE700BF62260200002070470120704790
:10039000084B70B518680E46154640B10024AC42B3
:1003A00005DA044930570A6890470134F7E72846D0
:1003B00070BD00BF34C10720094B70B518680E46E8
:1003C000154600B970BD0024AC4206DA0448016845
:1003D0000020884730550134F6E725EAE57070BD06
:1003E00030C107207047002070470000074B196894
:1003F0008A68824207D04B68834204D0C9680A1ACF
:100400005042504170470120704700BF7CC0072018
:10041000002070470020704730B504468DB000289A
:1004200037D0684608F0A4F89DF800309DF8011018
:1004300003F03F0003909DF8040001F03F029DF897
:10044000025000F01F010492BDF806009DF805203F
:1004500005F01F03069102F00F05C0F30B018AB2ED
:100460000593BDF808106B1E07939DF80330A2F2A8
:100470006C75C1F30B0203F00700089595B26B1E73
:100480000990002503A80A930B950CF0D5F884E891
:10049000210000200DB030BD10B5044609F0D4FE97
:1004A000013C14F8010F18B140B20AF0DDFAF8E788
:1004B000BDE8104009F0DABE38B50F4C256815F0DC
:1004C000010516D120460AF071FB90B14FF40E7071
:1004D000FFF7DAFE094B30223A2180F8345280F8D7
:1004E000352280F8361280F83752186020460AF01C
:1004F0006BFB0248006838BD3CC1072040C10720A3
:1005000038B5104C236813F0010517D120460AF0C6
:100510004DFB98B14FF40E70FFF7B6FE012280F844
:100520003422094A31213A2380F8351280F83632D4
:1005300080F83752106020460AF046FB02480068F7
:1005400038BD00BF54C1072058C107202DE9F04134
:10055000ADF50A7D0E4607F039FD041E04DD09F0F5
:1005600001FE204609F0A0FB264D05AC0FCD0FC4BF
:100570002B6810210DEB010200250AA823600495C9
:1005800009F04EFB074604986422B0FBF2F1049197
:1005900030461D491D4A0A2308F056FABD4222D0B2
:1005A0000AAC049B04EB4514A2690BB1B2FBF3F354
:1005B000606994F80C800090A18B029388000A2354
:1005C0000190A2FB03014FF47A7200230BF08EFA24
:1005D00005AB03900E493046626853F8283008F0A6
:1005E00033FA0135DAE709F033FA102804D9304636
:1005F0000849102208F028FA01200DF50A7DBDE80F
:10060000F08100BF7C2602009B260200C226020069
:10061000C7260200E426020010B5ADF5007D0C46A9
:1006200068460AF053F8204669464FF0FF3208F05A
:10063000D5F901200DF5007D10BD000030B50C4648
:1006400091B02C49054607F0C9FB002847D008ABFC
:10065000009309A80AA90BAA0CAB0190029103927E
:1006600004932846244906AA07AB07F01AFB07287B
:1006700001D000203BE09DF8390006999DF8383004
:1006800061F303008DF839000899BDF83A00079A24
:1006900061F30B0062F304030A99ADF83A009DF888
:1006A0003500099A8DF838309DF8363061F3050031
:1006B00062F304038DF835000C999DF837008DF82E
:1006C00036300B9A9DF8343061F3020062F3050373
:1006D0008DF837000DA88DF8343007F06BFF08F067
:1006E00003F806490246204608F0AEF9012011B091
:1006F00030BD00BF0E27020012270200194502007C
:1007000030B589B004AB0024009302220D4603AB40
:1007100018490394049407F0D1FA022827D107A8B6
:10072000009005AA0398049906AB059406940794D3
:1007300003F088FC024638B1049928460091039BD7
:100740000D4908F081F910E0059A069B079C002AE4
:1007500008BF0122002B08BF012328460749B4FB2C
:10076000F2F2B4FBF3F308F06FF9012000E0204649
:1007700009B030BD313802002B2702004A270200A1
:100780002DE9F0410C46ADF5866D3049054607F080
:10079000B2FB2F490746284607F0D6FB2C492846CE
:1007A00007F0F2FB284607F00FFC0122014601A8E2
:1007B00005F0D6FC064640B1284607F005FC254961
:1007C0000246204608F040F93AE00BAD314640F2CF
:1007D000014228460BF060FE009601F02FFB804698
:1007E00001A829464FF480626B4605F085FD90B163
:1007F00001A805F02BFF8FB101F020FBB0EB080042
:1008000014BF03460123144920463246B6FBF3F3D6
:1008100008F01AF902E0009B3BB9E9E720460F49CE
:100820004FF0FF3208F0DAF80AE0F618E854002F2B
:10083000D6D1204629464FF0FF3208F0BBF8CFE76B
:1008400001200DF5866DBDE8F08100BF782702001C
:10085000313802008127020095270200F63D020090
:10086000F0B5C1B00DAB0025009302220C460CABD5
:100870005C490B950C950D9507F020FA022803D1E1
:100880000D980BF026FC05460C9808B956490C91BA
:1008900016A80C9905F07DFF034678B12046534910
:1008A0000C9A08F0D1F89AE020AA802616A80EA982
:1008B0001492159605F0BFFF013D08B9002DF3DC39
:1008C00020464B490C9A08F0BFF800252E468020A0
:1008D00020AB15900EA916A8149305F0ACFF0028C4
:1008E00065D19DF94110002961D09DF8407007F055
:1008F0001002D3B213B10135442205E00B990E98D2
:1009000001360A180B922D2207F0020C17F0010F86
:1009100007F0040E5FFA8CF007F020070CBF2D23C0
:1009200052235FFA8EF100280CBF4FF02D0C4FF0D0
:10093000480CF8B200290CBF4FF02D0E4FF0530EAB
:1009400000280CBF2D214121BDF83C00029141122D
:10095000BDF83E7001F2BC718DE800500391C0F308
:100960004311049100F01F00F912C7F345170691D7
:100970000590079740A951F8C80D093108900991D1
:1009800020461C4908F060F820461B494FF0FF3212
:1009900008F010F820A920464FF0FF3208F00AF8BE
:1009A000204616494FF0FF3208F018F88FE70095FF
:1009B00040AD55F8D43D12493246204608F044F87F
:1009C0000C9829460AAA05F065FF40B90A9B0B99C5
:1009D0009A7820464A430B49520808F035F801201E
:1009E00041B0F0BD31380200B0270200B327020049
:1009F000D7270200F22702001F280200F63D02005E
:100A0000232802004D28020070B50E46054607F067
:100A1000DBFA0446284607F0D7FA06F008F8064A3B
:100A2000064B0749002818BF13463046224608F0F7
:100A30000BF8012070BD00BF0D2A0200032A02003E
:100A40006128020070B50E46054607F0BDFA04465F
:100A5000284607F0B9FA05F081FF064A064B074918
:100A6000002818BF13463046224607F0EDFF01204C
:100A700070BD00BF0D2A0200032A02007D2802007B
:100A80007FB503AB0024009302220E4602AB0F4950
:100A90000294039407F012F9022814D1029D039CDA
:100AA0002846214606F06AF809490A4A23460028E2
:100AB00014BF104608460090074930462A4607F002
:100AC000C3FF012000E0204604B070BD31380200B1
:100AD000032A02000D2A02008F28020030B58DB0D3
:100AE0000C46054607F070FA0A22014602A805F0F6
:100AF00037FB40B1284607F067FA1F4902462046F7
:100B000007F0A2FF35E08DF8030001901B49204655
:100B10007E2242F2107307F097FF1949204607F032
:100B200093FF236820461B680DF1030142F2107207
:100B3000984718B19DF903007E2803D102A805F05B
:100B400085FD16E002A80DF10301012201AB05F0BD
:100B500079FC28B10199012902D020460949DEE734
:100B60002268204653689DF903104FF0FF329847E2
:100B7000D7E701200DB030BDA7280200CE28020023
:100B800006290200262902002DE9F043ADF5417D3A
:100B9000002303AD2B60029302220C4600954049CE
:100BA00002AB07F08BF8022806D020463D494FF0F3
:100BB000FF3207F013FF6EE016A8296805F0E9FD83
:100BC00018B1204638492A6807E016A8029905F0AE
:100BD000E0FD28B13549029A204607F035FF5AE07A
:100BE00040A94FF4807204A807F02CF809A880A946
:100BF0004FF4807207F026F820A8802114901591F8
:100C000016A80EA905F017FE00283ED19DF9412037
:100C1000002A3AD09DF8405005F01003DDB2002DB7
:100C2000EAD10DF14106029A334604A8204907F0A3
:100C300042FA039A33461E4909A807F03CFA04A871
:100C400007F0C2F9804609A807F0BEF9074604A8D4
:100C50000E9E07F0B9F9814609A807F0B5F92A46B2
:100C600001462B460095484603F0ECF91149124A1B
:100C70000096002814BF1046084601900F492046F0
:100C800042463B4607F0E0FEB6E709A806F0EEFF55
:100C900004A806F0EBFF01200DF5417DBDE8F083CF
:100CA000313802004D29020092290200B7290200C2
:100CB000D7290200032A02000D2A0200DD290200C2
:100CC00070B50C462149054607F07CF9064628B167
:100CD000FFF716FC002100F2352009E028461C49E8
:100CE00007F070F950B1FFF7E7FB314600F235200D
:100CF0000A4605F0D5FF174B17491CE0284617494F
:100D000007F060F948B1FFF7FBFB012200F2352143
:100D100005F0D6F9124B13490DE02846124907F0A9
:100D200051F988B1FFF7C8FB012200F2352105F027
:100D3000C7F90E4B0E49002808BF19464FF0FF3285
:100D4000204607F04BFE012070BD00BF642A020060
:100D50006E2A0200FC290200062A02007B2A0200F9
:100D6000132A0200232A0200842A02003A2A0200DF
:100D7000482A020010B501200C4606F057FF38B192
:100D800000210A460B4608F015FB2046044901E005
:100D9000044920464FF0FF3207F020FE012010BD2D
:100DA000902A0200A62A020038B5064C236833B9FF
:100DB0001C20FFF769FA054607F02CFB2560206828
:100DC00038BD00BF48C107202DE9F0430C4687B06D
:100DD0003C49064607F01AF83B498046304607F082
:100DE00015F83A498146304607F010F800270546C5
:100DF000039704970597B8F1000F1DD0304634498A
:100E000003AA04AB06F04DFF022807D02046314963
:100E10004FF0FF3207F0E2FD3D464FE0FFF7C4FF21
:100E20009DF90C109DF9102007F0E9FE0499C2B25B
:100E300000912046284924E0B9F1000F2BD005ABE2
:100E400000933046254903AA04AB06F02AFF032885
:100E500007D0204622494FF0FF3207F0BFFD45463C
:100E60002CE0FFF7A1FF9DF90C109DF910209DF9D2
:100E7000143007F0B5FE40B104981A49059A009065
:100E80002046039B07F0E0FD17E020461649039A31
:100E900007F0DAFD11E088B10226FFF785FF71B295
:100EA00007F0BAFE20B120461049324607F0CCFDCB
:100EB0000236B6F5807FF0D100E00125284607B064
:100EC000BDE8F08354390200C02A0200C62A02009D
:100ED000CF2A0200DB2A0200FC2A02001D2B02009E
:100EE0002D2B0200542B0200742B0200912B0200C8
:100EF0002DE9F04F5E4C93B023680E4633B92020A5
:100F0000FFF7C2F9054607F0BBFC2560D4F8008066
:100F1000FFF7D2FA002512A941F8105D00F2352042
:100F20000DAA05F0B7FC48B90D9A0E99976990780B
:100F3000BC1E414344434D08670800E02F46DFF8DC
:100F40003491D9F8003063B90C20FFF79DF90446BD
:100F5000FFF72AFF9022206000202271A060C9F8CC
:100F600000404449086803F05BF804460AF098FD25
:100F700083460AF0F1FB014620460AF037FB3E4962
:100F80000AF03EFC0AF08CFD0B900FA809F046FA1F
:100F900003F06EFF38B307F01FFC03F051FF00248D
:100FA0000346A146A2469C420AD020460A9303F07B
:100FB000A7FF504584BFA14682460A9B0134F2E751
:100FC00007F01EFC642303FB0AF22C483B46B2FBED
:100FD000F0F1C1F164028DE80406304628492A4642
:100FE00007F032FD05E0304626492A463B4607F029
:100FF0002BFD254C23681BB90120FFF745F9206024
:10100000206802F0D1FF044607F06EFB9DF84120F6
:101010009DF84010019001F01F0302F00F00BDF891
:10102000422003939DF83E300290C2F30B0081B240
:1010300003F01F029DF83D009DF83C30049105929D
:1010400000F03F0103F03F02079200940691B8F8C8
:1010500018005A460890B8F81A10304609910B9BB0
:101060000A4907F0F1FC012013B0BDE8F08F00BF82
:1010700038C1072044C1072000002041A08601009C
:10108000B12B0200E52B02004CC10720F32B02001C
:1010900038B5064C236833B91420FFF7F5F8054638
:1010A00006F05EFA2560206838BD00BF50C10720F9
:1010B00008B54FF0FF320846094907F08FFCFFF7EB
:1010C000E7FF06F03FFA4FF4FA6008F0EDFD4FF04D
:1010D00080430020AA221A721870012008BD00BFA8
:1010E0005B2C020073B50C461349054606F06AFFF7
:1010F00050B1FFF7CDFF06F025FA20460F494FF01B
:10110000FF3207F06BFC15E0FFF7C2FF06462846EA
:1011100006F05AFFC6230146094A00933046094BA0
:1011200006F0F8FA284606F04FFF07490246204627
:1011300007F08AFC01207CBD6C2C0200722C02009E
:101140008B2C020090260200BE2C020070B58AB0E3
:1011500005460C4606F09CFD0B2803DD20461B4986
:101160000C222DE0284606F02FFF0122014668469A
:1011700004F0F6FF06462846EEB906F025FF144BAC
:1011800001681960426813495A608068986043F8A2
:10119000041C039A1049204607F056FC684605F0E7
:1011A00055FA4FF47A7008F07FFD4FF08043AA2281
:1011B0001A721E7006E006F007FF08490246204634
:1011C00007F042FC01200AB070BD00BFE02C020015
:1011D000484002400DD0ADDE072D02004F2D020029
:1011E00070B5414EA6B033680546DB070C460CD4FB
:1011F000304609F0DBFC40B14FF480600BF0B2F8F0
:101200003A490860304609F0DFFC2846384906F0C4
:10121000FDFD064620B30021802206A80BF03CF914
:10122000002105A8049105910090324906AA04AB5B
:10123000284606F036FD2D4A049B116806A8059A3B
:1012400013B902F089FF01E002F0A7FF2A4A2B49F7
:101250000346002B08BF1146204607F0F5FB32E09D
:101260002846274906F0D2FD00283BD0284604AA8C
:10127000244905AB049605968DF80F6006F011FD24
:10128000049D05982A18B2F5806F0DDD20461E4991
:101290004FF4806210E015489DF80F100268515518
:1012A0009DF90F300135F618049B0598E91A814223
:1012B00005DB16492046324607F0C6FB03E0B5F5CC
:1012C000806F02DBF5E701200CE0226820461368FE
:1012D0000DF10F014FF4FA6298470028DBD1204648
:1012E0000B49BAE726B070BD60C107205CC107207A
:1012F0007A2D0200812D0200642D0200682D02006B
:10130000912D0200982D0200A22D0200D62D020080
:10131000C62D020030B50C4687B00B49054607F0D4
:1013200093FBA17AE07A0091E188019002912089F3
:10133000A18803900491628823882846034907F016
:1013400083FB07B030BD00BFE72D02001D2E020059
:101350001FB501A80C4602F005F901F0F3FD01A943
:1013600002462046FFF7D6FF012004B010BD000062
:10137000F0B58DB003AB002500930C4617463849F5
:10138000022202AB0295039506F098FCA84239DDD3
:1013900002980AF09EFEC6B2039818B10BF047FF00
:1013A000C5B200E0054604A8002102F06DFC30B192
:1013B00020462C494FF0FF3207F010FBF3E70037CF
:1013C00018BF01270220009039463046039A2B4669
:1013D00001F0EAFE10B9204623490EE0002F3CD070
:1013E00004A84FF47A7102F059FC002830D09DF81F
:1013F0001010B1422CD107E01C494FF0FF3207F02A
:10140000EDFA2AE0284629E09DF817200C2A04D19D
:10141000204606A93246FFF77DFF2046002DEBD17E
:10142000134907F011FB9DF817309D420BDA206835
:101430000CA94A19436812F9181C20464FF0FF32D4
:1014400098470135EFE720460A4907F0FDFA04E026
:1014500020460949029A07F0F7FA01200DB0F0BDC5
:10146000313802003B2E02005D2E0200992E020050
:10147000852E0200F0340200B62E020038B50D466B
:1014800006F0A4FD0446C0B201F050FD054A064B2B
:101490000649002808BF13462846224607F0D4FA1A
:1014A000012038BDDC2E0200032A0200E32E0200D8
:1014B00030B58BB00AAA4FF47A730C4642F8243D3B
:1014C000174906F0EEFB002502A8019902F0DCFBAB
:1014D000E0B1204613499DF8082007F0B5FA002531
:1014E0009DF80F0085420BDA23680AA94A1912F900
:1014F000181C5B6820464FF0FF3298470135EFE734
:101500002046094907F0A0FA0125DDE72DB920465C
:1015100006494FF0FF3207F061FA01200BB030BDF1
:101520009F2D0200FA2E0200F53D0200112F02004D
:1015300037B50C4601F07CFE16490546204607F0FB
:1015400083FA154920462A4607F07EFA20461149BB
:1015500007F07AFADDB11149204607F075FA204606
:101560000C4907F071FA0020451CEDB201F04AFE6B
:1015700048B181780278437800912046084907F005
:1015800063FA2846F0E72046024907F05DFA012099
:101590003EBD00BF222F02003D2F0200572F020048
:1015A000722F020038B5064C236833B94C20FEF781
:1015B0006BFE054606F0BCFF2560206838BD00BF05
:1015C00064C107202DE9F04FADF5757D80220446FA
:1015D00034AF894614A800210AF05EFF0021802262
:1015E00038460AF059FF03AE0023336020460096C8
:1015F000714914AA3B4606F054FB032801D0002091
:10160000D5E00AA814A9012204F0AAFD0546002885
:10161000F5D1FFF7C7FF0446306854A984F84700A6
:10162000802205A88DF80B50049506F00BFB00975F
:101630004846624914AA336807F006FAA8460AA881
:1016400074A94FF4007204AB04F056FE38B10AA836
:1016500004F0FCFF05A806F009FB0120A7E00499AF
:101660000029F4D06F1C5649049A204607F0ECF983
:10167000226820469668B04700267D1EB246049B2D
:1016800020689E420DD20DF5E87B1BF906104368D9
:101690004FF0FF322046984716F90B1001368A4466
:1016A000EDE781682046884705A806F08DFC0646D0
:1016B00005A806F0F0FA4FF47A7302463146204648
:1016C00007F09AF90121202205A806F028FC05A8B8
:1016D00006F07CFC50451FD005A806F077FC394980
:1016E00003465246484607F0AFF93749204607F00F
:1016F000ABF9206881682046884722682046136835
:101700000DF10B014FF47A7298470028F5D1781C3F
:10171000022F9CD80746A6E7049A2C49009243461C
:1017200034AA204607F090F926682046B368984707
:1017300005A806F049FC064605A806F0ACFA3146B5
:1017400002464FF47A73204607F056F905A820495F
:1017500006F032FBD0B905A806F036FC1D4902465A
:10176000484607F071F91849204607F06DF92168DD
:1017700020468A689047236820461B680DF10B01BC
:101780004FF47A7298470028F5D1C0E705A81249AE
:1017900006F0CFFC049811498044424648460D9B10
:1017A00007F052F9002D3FF44AAF013D47E70DF530
:1017B000757DBDE8F08F00BF8D2F02009C2F0200C9
:1017C000B32F0200C52F0200F53D0200EC2F0200EE
:1017D0000230020005300200F63D02003D300200FA
:1017E0002DE9F04186B006AA0026074642F80C6DA6
:1017F0000D463C4906F055FA38460121202206F0F4
:101800008EFB039B002B63D0384606F041FA00287C
:101810005ED0FFF7C7FE8DF80B60044620680DF11F
:101820000B01066805222046B04706460028F5D180
:101830000399384684F8471006F0C6FB4FF0FF3294
:101840000146204607F0CAF8226820469768B84744
:10185000254B0596186837460490216820460B688A
:101860004FF47A720DF10B01984770B105A8411C35
:1018700003220AF0F7FD9DF80B8005A804A90422B5
:101880008DF817800AF0D6FD38B91821B7FBF1F3AF
:1018900001FB13726AB101330BE028684FFA88F13B
:1018A000436801222846013798470028D5D10136E0
:1018B000D3E728460D493A4607F0C6F876B16120CD
:1018C00000900B49284632460A4B07F0BDF805E068
:1018D000284609494FF0FF3207F080F8012006B092
:1018E000BDE8F0819F2D0200E32D02004930020087
:1018F00070300200293102006531020043682DE991
:10190000F041994204460D4617D3C06889000BF098
:1019100021FAA668E060B700AE420DD21020FEF7B3
:10192000B3FC0021102280460AF0B6FDE0680136C3
:1019300040F807800437EFE76560BDE8F0810000FC
:101940002DE9F743304D07462C688946002C49D1D4
:101950002420FEF799FC0423064680E818008460E2
:10196000C46008214FF00108FFF7C8FF86F8208007
:1019700030462649264A274B00942E6005F0F0FB9E
:1019800028682549254A264B009405F0E9FB28687C
:101990002449254A254B009405F0E2FB2868244998
:1019A000244A254B009405F0DBFB28682349244A90
:1019B000244B009405F0D4FB28682349234A244B88
:1019C000CDF8008005F0CCFB28681F49214A224B46
:1019D000009405F0C5FB009428682049204A214B5B
:1019E00005F0BEFB3846204906F0ECFA18B138463F
:1019F0001E4906F09EFB044B394618684A4603B060
:101A0000BDE8F04305F07CBC68C10720E117010088
:101A10009131020098310200C5150100D231020057
:101A2000DB310200B11401002F3202003232020019
:101A30007D140100C9350200553202003115010044
:101A40009B3202007F32020071130100E432020077
:101A5000A2320200E3320200E83202005113010018
:101A6000283302000D330200F63D02002E3302003F
:101A700037B590F90450144600934AB223462946DC
:101A8000006807F0B8F83EBD10B5044694F904109C
:101A90002D220823006807F0A3F8206894F90410A9
:101AA0003122082307F09CF8012010BD07B502235E
:101AB000322101AAFFF7DCFFBDF804000EBD07B517
:101AC0000223342101AAFFF7D3FFBDF804000EBDA5
:101AD00007B50223362101AAFFF7CAFFBDF80400AB
:101AE0000EBD10B504462246084606233221FFF7F4
:101AF000BFFF204610BD08B5034693F9041020220D
:101B00000F23006807F06CF8012008BD13B501230E
:101B10000446282101AAFFF7ABFF204629210DF139
:101B200005020123FFF7A4FFBDF804001CBD13B597
:101B3000012304462A2101AAFFF79AFF20462B2100
:101B40000DF105020123FFF793FFBDF804001CBD52
:101B500013B5012304462C2101AAFFF789FF204673
:101B60002D210DF105020123FFF782FFBDF80400CE
:101B70001CBD38B504460D460846224628210123DF
:101B8000FFF776FF28462921621C0123FFF770FF2B
:101B900028462A21A21C0123FFF76AFF28462B2191
:101BA000E21C0123FFF764FF28462C21221D01239C
:101BB000FFF75EFF28462D21621D0123FFF758FF26
:101BC000204638BD07B5002302AA02F8013D0F21C7
:101BD0000123FFF74DFF9DF907000EBD2DE9F74FDB
:101BE0003E4D2B684BB90820FEF74EFB0446FFF72D
:101BF000DBF82060A72020712C60394E374932680D
:101C00000D684AB90820FEF73FFB0746FFF7CCF8FE
:101C1000D32338603B713760314C28462468FFF786
:101C200033FF2046FFF767FF4FF47A7008F03CF867
:101C30002846FFF73BFF83462846FFF740FF8246D2
:101C40002846FFF745FF294681466846FFF749FFCA
:101C5000BDF80080BDF80270BDF804600FFA8BF18A
:101C60000FFA8AF20FFA89F31E480AF0D1FF3AB24E
:101C700033B20FFA88F11C480AF0CAFF2046FFF77A
:101C800045FF83462046FFF752FF82462046FFF776
:101C90005FFF214681466846FFF76BFFBDF8008075
:101CA000BDF80270BDF804600FFA8BF10FFA8AF2EA
:101CB0000FFA89F30D480AF0ABFF0FFA88F13AB238
:101CC00033B20B480AF0A4FF2046FFF77BFF014622
:101CD00008480AF09DFF4FF4FA70A7E76CC107208F
:101CE00070C1072033330200533302007333020004
:101CF0008B330200A333020038B50D46044608F0CA
:101D000029FE074B0221B0FBF3F0B0FBF1F2954244
:101D100001D3216138BDB1F5807FFAD00231F4E7FB
:101D200040420F0001480AF08BBF00BFB3330200EE
:101D30007FB500F235260D460122314604F0C0F988
:101D4000C4B24CBB04A941F8044D304602AA04F0C9
:101D5000A1FDF8B9029A039994699378A21E5A4397
:101D60005943540840F2E73348089C420F49104B4E
:101D70008CBF4FF48062012288BF0B46B0FBF2F1AA
:101D80008DE80A000B482946B4FBF2F20AF040FF46
:101D9000012008E0084B00E0084B0948294662B2E0
:101DA0000AF036FF002004B070BD00BFED33020022
:101DB000EA330200F7330200F0330200F43302008A
:101DC0002534020038B5AA224FF0804355201A72FC
:101DD000187208F035F9174C02284FF000014FF047
:101DE0000100D4E9002317D1121843EB0103C4E921
:101DF000002308F0C1FCD8B108F0B0FCD4E9000120
:101E00000A22002309F072FE0A25A0FB052305FB28
:101E10000133C4E9002338BD121843EB0103C4E9C0
:101E2000002301F045FF0020BDE8384008F0ECBA7F
:101E300038BD00BF88C10720FFF7C4BF024BD3E9FC
:101E4000002310461946704788C1072038B5084D51
:101E50002B684BB90820FEF717FA0446FEF7A4FFDB
:101E60002060402020712C600149086838BD00BF07
:101E700084C1072038B5054C256825B90120FEF737
:101E800003FA05702060206838BD00BF80C10720BC
:101E900038B5094D2B685BB90C20FEF7F5F90446FF
:101EA000FEF782FF0021206090202071A1602C604D
:101EB000014A106838BD00BF44C1072010B5044C6A
:101EC00023681BB90120FEF7DFF92060206810BDF0
:101ED0004CC1072010B5044C23681BB90120FEF744
:101EE000D3F92060206810BD7CC10720B14AB249F7
:101EF00070B54023B14D4FF000704FF480348B61CA
:101F000090618C612E68ADF5047D26F0F0032B60A6
:101F1000286840F050042C602E6826F440532B6053
:101F2000086840F040040C602E6826F47C232B6087
:101F3000286840F428242C602E6826F470032B6057
:101F4000286840F420042C602E6826F040432B6063
:101F5000286840F000442C606E6826F03C036B60FB
:101F6000686840F028046C606E6826F003036B60BC
:101F7000086840F480340C606E6826F440536B604F
:101F8000086820F480040C60E96821F44036EE60B3
:101F9000136843F0807010606C6824F4402169601D
:101FA0006E68874C46F480236B60A8680440AC6080
:101FB000116841F4897646F001031360A86820F4A3
:101FC0007014AC60A96821F07046AE60136823F409
:101FD00046401060EC6824F03001E960EE6846F09D
:101FE0003003EB60E86820F47014EC60156845F08D
:101FF00000711160166826F08063136008F092F992
:102000004FF4FA6006F0B3F8FFF78CFE08F0A2FC7C
:1020100009F09EFB6B4909F0A7FC09F01FFA024684
:102020000B4669480AF0F4FD08F0F2F9042811D1D2
:102030000022664805920568654E04AC0495FFF7DA
:1020400071FEF16C6348326D736D00940AF0E0FD2F
:10205000FFF768FE0C20012108F0ECFA5E4C0C2022
:10206000032108F0FFFA4FF40011216008F072FC20
:102070000223C008594AB0FBF3F5954204D82668FC
:1020800046EA0321216003E00233B3F5807FF1D1FA
:102090000A20012108F0CEFA0A20012108F0E2FA14
:1020A0004F4807250224056001214460FFF724FE04
:1020B00006F022FB1520012108F0BCFA15200121B1
:1020C00008F0D0FA4748012105604460FFF714FE8C
:1020D000FEF76AFE642106F067F910B942480AF07B
:1020E000AFFD01F0ABFD10B940480AF0A9FD012198
:1020F0003F4808F007FBFEF7DFF93E49FFF718FEFF
:102100000646B8B93C480AF083FDFEF7D5F93146DA
:10211000324600F2352004F0C3FD384B384A00281F
:1021200014BF104618460AF08BFDFEF7C5F9314979
:10213000FFF7FEFD334C206810F0010517D1204653
:1021400008F034FD98B14FF40E70FEF79DF82E4A5A
:10215000012131263A2380F8341280F8356280F864
:10216000363280F837521060204608F02DFD264C9C
:1021700026492068264DFFF7DBFD19481821FFF797
:10218000BBFDFFF7CFFD286848B90820FEF77CF8B3
:102190000646FEF709FE3821306031712E601C4B77
:1021A000186801F0EDFD0446B0BB1A480AF048FD7E
:1021B00033E000BF20C0092000C0092000C0024059
:1021C000F0FCFCFF002474496334020044400240E8
:1021D000004002407B340200004003403F5DC600E7
:1021E0000000034000800840F33402002435020060
:1021F000C51D010049350200513502005834020066
:102200005D34020054C1072058C10720322A020061
:1022100074C107207A3502000124FFF739FE01F06E
:10222000D3FE054618B971480AF00AFD2C46FFF79F
:102230000DFE01F070FE064618B96D480AF000FD6B
:1022400034466C4D2A681AB90120FEF71DF8286043
:10225000286801F0F7FDFFF731FE01F0A3FEFFF75C
:1022600009FE01F075FEFFF735FE01F09FFEFFF756
:1022700001FE002101F06EFE94B9FFF753FDFFF758
:10228000E5FD2D2101F010FEFFF7E0FD2D2101F00D
:1022900017FEFFF7EFFD4FF0FF3101F05BFE0CE0A2
:1022A000FFF7D4FD0646FFF7F3FD01F0B9FE09F094
:1022B000F7FB41B2304601F00FFE00234E4804A95F
:1022C00007220493059301F026FFA8B904A809F09A
:1022D00000FFC4B2601EC1B2FD2905D904A9464A57
:1022E00046480AF095FC07E045482146424A0AF074
:1022F0008FFC204600F01AFEFFF7E0FD01F054FECF
:10230000054600200CF0A4F928180AF0B7FC4FF499
:102310000072002104A80AF0BFF804A808F0D6F95A
:1023200004A938480AF074FCFFF7FCFC8022002165
:1023300004A80AF0B1F804A802F070FD9DF910207D
:10234000531C05D004A9D2B22F480AF061FC29E041
:10235000FFF7C0FD01F02CFE09281DD12B480AF023
:102360006FFC04A92A480AF0BDFD04A929480AF017
:102370004FFC29480AF064FC0023284803A9039372
:102380000AF0B0FD9DF90C60592E03D104A802F0AB
:1023900027FD07E0224803E022480AF051FC2248CA
:1023A0000AF04EFC4FF20804206861684FF4704355
:1023B0004FF20402850A8E0AA46811681B481A6845
:1023C0000AF026FC2A46314619480AF021FC21462B
:1023D00018480AF01DFCFFF7A5FC17480AF030FC6E
:1023E000FFF7A0FC0DF5047D70BD00BF9535020020
:1023F000AF35020078C10720C8350200CE35020093
:10240000F935020019450200263602004236020064
:10241000643602006936020084360200C7360200C4
:10242000CB360200E33602001137020043370200C8
:102430006F3702009C370200B9370200014B03607E
:10244000704700BFD8370200012070470120704755
:1024500001207047034B10B504460360FDF718FFD9
:10246000204610BDD837020001207047F8B591E82A
:1024700060000F7A14468FB1082A0FD1304605F05C
:1024800007FC00281BDD28460E494FF0FF3206F0FE
:1024900091FA3046012105F002FD08E00A2C05D032
:1024A0000D2C03D03046214605F0E5FD4FB12B68D9
:1024B00028465B6821464FF0FF329847F8BD072455
:1024C000F5E7F8BD303802002DE9FF41CE6B044638
:1024D0000D4601AF5EB94FF47A7007F0E5FB314667
:1024E0000C22384609F0D8FF97E807005EE00B6C35
:1024F00001F13406186807C887E8070000278DF83F
:102500000370EA6B97422DD2F368511E53F82700EF
:102510008F420CBF0522002200684FEA870801792C
:10252000002949D003680DF103011B689847002872
:1025300042D0B268974241D2F16851F8080001AB2D
:1025400007C883E8070019469DF903202846FFF7CE
:102550008DFFFFF773FCD5E92223121843EB01032B
:10256000C5E92023029805F093FB0746029805F081
:1025700092FB421E974216DAD5E92201014320D090
:10258000FFF75CFCD5E92023994208BF904218D39D
:10259000FFF754FCD5E92223121843EB0103C5E9E8
:1025A00020230023019304A810E9070084E8070012
:1025B000204604B0BDE8F0810137A2E706F1100023
:1025C000BDE79DF903100A29EDD0002799E7000027
:1025D000F0B5054685B020480AF01AFB01A8294647
:1025E000FFF772FF019C1CB91C480AF029FB30E080
:1025F000029E304605F04CFB00282ADDFFF71EFC4A
:102600000746F8B1B5F874303146581CA5F8740087
:10261000224605F1500004F073FE114900250A68B6
:10262000009223681DF905105B6820464FF0FF32C9
:1026300001359847042DF4D1FFF700FCC11B094870
:102640000AF0E6FA304605F028FB2068816820464B
:102650008847012005B0F0BD33380200F63D020086
:10266000093802003938020038B5064C236833B9FE
:102670002020FDF709FE054606F002F925602068D6
:1026800038BD00BF38C1072010B50446FFF7ECFF86
:10269000036821465B684FF0FF32984740B210BD97
:1026A00013B5002302AC04F8013DFFF7DDFF01681C
:1026B0004FF0FF320B68214698479DF907001CBD7B
:1026C00038B5054600246B68E8689C4205D250F88E
:1026D0002400FDF7DDFD0134F5E708B1FDF7DAFD73
:1026E000284638BD0D4B70B5044640F8503BFFF707
:1026F000E7FF04F1340600257068854206D2F268CF
:1027000052F82500FDF7C4FD0135F5E7206C08B14E
:10271000FDF7C0FD02492046216070BD1838020057
:10272000D837020010B50446FFF7DCFF2046FDF75E
:10273000AFFD204610BDF8B54368044699420D46EA
:1027400015D3C06889000AF005FBA668E060B700F1
:10275000AE420BD20C20FDF797FDE268002101602C
:10276000416001720136D0510437F1E76560F8BD70
:102770002DE9F0410446142016468846FDF784FDF5
:102780008021074605F08AFCA36BE26B9A4205D3D1
:10279000616B04F134005918FFF7CDFFE56B206C35
:1027A00050F825300135C3F800805F601E72E56384
:1027B000BDE8F0812DE9F04100F150048AB0002518
:1027C0000646009520465B495B4A5C4B04F0C8FC1A
:1027D000009520465A495B4A5B4B04F0C1FC0095CA
:1027E00020465A495A4A5B4B04F0BAFC00952046F1
:1027F00059495A4A5A4B04F0B3FC009520465949AE
:10280000594A5A4B04F0ACFC009520465849594AA5
:10281000594B04F0A5FC009520465849584A594B9D
:1028200004F09EFC009520465749584A584B04F046
:1028300097FC009520465749574A584B04F090FCA6
:10284000009520465649574A574B04F089FC00959D
:1028500020465649564A574B04F082FC00952046C4
:102860005549564A564B04F07BFC00952046554985
:10287000554A564B04F074FC009520465449554A7D
:10288000554B04F06DFC009520465449544A554B75
:1028900004F066FC009520465349544A544B04F01A
:1028A0005FFC009520465349534A544B04F058FCB2
:1028B000009520465249534A534B04F051FC009571
:1028C00020465249524A534B04F04AFC0095204698
:1028D0005149524A524B04F043FCFFF7C5FE4FF4F6
:1028E000806320224FF41641054605F0A7FF01271B
:1028F00080462F714B48FDF731FD4B48FDF728FD11
:10290000304629463A46FFF733FF082203A905A8B7
:1029100005F098F905A8454905F00BFC05A92A46DC
:10292000204604F0EDFC05A805F0A0F940460AB0E9
:10293000BDE8F0814D050100993802004F380200D2
:1029400019060100863802008E380200F10E0100DF
:10295000AC3802009E3802003D060100F438020047
:10296000B338020081070100F9380200FD38020087
:10297000010701009C39020059390200890B01004E
:102980009B3902009F39020061080100EA39020008
:10299000ED390200090A01001B3A0200213A020047
:1029A000810A0100463A0200493A0200DD0A0100AC
:1029B000EE510200763A0200450A01009B3A0200FD
:1029C0009E3A0200C90D0100C13A0200C53A020058
:1029D000C10C01006C3B0200743B0200B11001000D
:1029E000B73B0200BE3B0200E5100100D13B0200F4
:1029F000D53B0200750D01000B3C0200113C0200AA
:102A00004119010040350200393C0200E11101008A
:102A1000573D0200633C02004D110100752A02007F
:102A2000203D0200A1260100892601002E3302006C
:102A300073B500244FF480520B46009418490646A3
:102A400005F0DAF8174B042533607563B463F4635B
:102A5000346406F134000221FFF76DFE35657465BC
:102A6000B465F46506F150001821FEF747FFA6F89B
:102A70007440A6F87640B4670B4C00220023002572
:102A8000012086F87000C6E92023C6E92245FFF739
:102A9000D5F9001941EB0501C6E9200130467CBD9E
:102AA0005C3D020018380200C0D401001FB5902020
:102AB000FDF7EAFB01210446FFF7BAFF204605F0C7
:102AC0005DF80B4800240223009301904FF48062CC
:102AD0002346029403940749074806F09DFE01200F
:102AE000214605F05BF84FF0FF3004B010BD00BF89
:102AF00094C107207A3E0200DD1B010038B5074C67
:102B0000236833B91C20FDF7BFFB054605F082FCA6
:102B1000256022680248026038BD00BF48C1072016
:102B200090C1072030B500238B420DD044783CB1D2
:102B3000048C4FF6FF751419AC4228BF2C46048450
:102B40000133DBB22430EFE730BD000037B50E496A
:102B5000002302A84A6840F8043D042190470B4B2B
:102B600005461C6801980421041B18602246084889
:102B7000FFF7D8FF022107482246FFF7D3FF281CA2
:102B800018BF01203EBD00BF98C1072080C20720AA
:102B9000ACC1072085C2072008B50B4B01781A7815
:102BA0000A4B914203D119880131198002E09988BA
:102BB000013199808270064A2021D36898470030FD
:102BC00018BF012008BD00BF05C0072054C2072060
:102BD00098C107200A4B027819780A4B8A4203D120
:102BE000DA88511CD98002E01A89511C19810379B5
:102BF000C3F3C202511E61F3C5030371FFF7CCBFDB
:102C000005C0072054C2072010B50023064A9900CA
:102C100012F82340844201D1501810BD0133042B17
:102C2000F4D1002010BD00BF6FC2072070B1C3787F
:102C3000591CCAB2FF2AC27008D100230448C21826
:102C4000D17804334808102BD070F7D1704700BFFB
:102C50006FC20720F0B503460246044600258D42A8
:102C600007D02046243414F8236CC6B10135EDB2E8
:102C7000F5E7002004468C4210D01579178CC5F377
:102C8000C20547EA0545A842164624BF05461E462A
:102C90000134E4B2243228463346ECE71846F0BD4E
:102CA00038B501310446CD00FFF750FF1B4B2078AB
:102CB0001A78824204D102211948FFF7CBFF0CE0B9
:102CC00004211848FFF7C6FFE17831B990F8235086
:102CD00045F0800380F82330042590F8231000226B
:102CE00021F07F0380F8225043EA152580F8202048
:102CF00080F8212080F823502346024604F1200169
:102D000053F8044B8B4242F8044BF9D1064A03793D
:102D1000117861F3C503037138BD00BF05C00720FA
:102D200085C20720ACC1072004C0072010B5FFF7FB
:102D30006BFF044608BBFFF767FF0446E8B9104A7B
:102D4000D378D179994202D20B46111D00E0114689
:102D5000D07AD47B984238BF0A490B4A38BF034621
:102D60009C422CBF0C46144620460021042209F048
:102D700093FB064BD97A481CD872204610BD00BF81
:102D80006FC2072077C207207BC2072054C20720EA
:102D90002DE9F041054690460C460027474500F0D6
:102DA000BE8094F8233003F08000C1B269B3BDB196
:102DB0002B786278934203D16878217888421ED0BC
:102DC000E87868B16978914208D122789A4205D1B1
:102DD000A879A179421A5342534100E0002373B904
:102DE00094F8232094F82210208C02F07F0341EA0B
:102DF00003218842C0F28F802046FFF7CDFE204697
:102E00000021242209F048FB85E06378002B00F0C4
:102E10008280002D3DD02A7902F0C000C0281AD14E
:102E20006A782178914202D128789842E7D0E078F8
:102E3000A978884210D1934209D120782A7890420B
:102E400005D1A079AA79811A4842414100E00021C8
:102E50000029D4D100E0E0B1A978E278914218D1FC
:102E60006878984209D121782A78914205D1A179D0
:102E7000AA79881A4142484100E0002048B12279ED
:102E8000002161F3C50284F8201084F8211022711A
:102E900041E094F8232094F82200218C02F07F0274
:102EA00040EA0220814236DB21790026C1F3C202CA
:102EB00084F8206084F82160D6B21EB12046FFF766
:102EC00089FE28E001F0C000C02818D015492078FC
:102ED0000978884213D1E078984210D078B16379AC
:102EE000E270032262F3071363712046FFF772FE5C
:102EF0000D482179037863F3C501217100E00126B3
:102F00006078FFF781FE18B10021042209F0C4FAAD
:102F1000002E7FF474AF0137FFB224343EE7BDE8E2
:102F2000F08100BF05C0072004C00720431ED9B2AE
:102F3000FD2903D8024A1070012070470020704715
:102F400005C00720014B1878704700BF05C0072057
:102F500007289CBF014B1870704700BF04C00720B2
:102F60002DE9F7430446914698469DF828600D46A2
:102F7000002958D02F4B1F78B94254D0B8F10F0F09
:102F800051D8002851D02022002109F085FAFF2DC8
:102F9000207914BF09F00302002262F38710032195
:102FA00061F30200244B20711A78277062F3C50088
:102FB00020712248A77001780BAF4B1CDAB2027067
:102FC000A271657001970EB9012613E00198013EC8
:102FD00003464268E07953F8081B8718FFB2182FA0
:102FE0000193F6B205D80830201809F032FAE771DB
:102FF000E9E70026124F012128463970FFF704FE49
:103000000546FFF713FE00223A70637925B968F38D
:1030100007136371E57009E0A87860F30713637123
:103020006978E17002E0002600E006463046BDE81F
:10303000FE8300BF05C0072004C0072062C207202E
:1030400060C20720164B70B501261E70044608B9F1
:1030500000251FE0FFF7A0FD05460028F8D02079E5
:1030600000F0C001402903D0B1F180025642564120
:10307000C02906D1E3782BB16078C31A18BF0123A9
:1030800000E000230EB9DB0704D561792046090969
:10309000FFF706FE024B00221A70284670BD00BFE3
:1030A00060C2072082B0F0B51746421E0446D0B277
:1030B0008DB0FD280D46139301D900205AE0002B56
:1030C000FBD0159B002BF8D017990029F5D0169A44
:1030D000002AF2D014980028EFD000214822284876
:1030E00009F0DAF900219022264809F0D5F90021EB
:1030F0001022254809F0D0F9244E00210C22244842
:1031000009F0CAF900210C22224809F0C5F93470EF
:10311000214C224E2570344613AD0FCD0FC42B68C1
:10312000002118221E48236009F0B6F939461722FB
:103130001B480AF0BEF80020B268014690470028FC
:10314000BBD09DF8601011B9FFF700FD12E01548E3
:103150000622012301900292009304A8FF2100227D
:10316000FFF7FEFE0028A8D004A8FFF76BFF002899
:10317000A3D0E9E70DB0BDE8F04002B0704700BF52
:1031800085C20720ACC107206FC2072005C00720F9
:1031900063C2072054C2072061C2072098C10720DC
:1031A0003CC20720843E020070B5182B8CB0064646
:1031B0000D4617D81C1C18BF0124002A14BF214635
:1031C00084F0010171B101920293009404A8314688
:1031D0002A469DF84030FFF7C3FE18B104A8FFF758
:1031E00031FF00E000200CB070BD13B5044610782C
:1031F00052790B461109009122460321FFF7D4FFB3
:103200001CBD000030B500231A4608499C0011F887
:1032100023502DB1904201D1081930BD0132D2B2F4
:103220000133042BF1D1002030BD00BF6FC2072055
:1032300000231846044A995C09B10130C0B2043336
:10324000102BF7D1704700BF6FC207202DE9F04166
:1032500088B068460021202209F01EF9A14B1C7895
:10326000002C40F03B81A04820210269684690472D
:10327000002800F087809D4D69884B1C6B80FFF70C
:10328000D7FFA8729DF8042002F00700032804D09D
:1032900097490A7842F0010009E0964D9DF8021026
:1032A0002D78A94205D192490B7843F002000870AD
:1032B000E6E0C2F3C2019DF800709DF806005FFAD7
:1032C00081FE032262438C4EB318B65CBE420AD123
:1032D0005A78824207D19A789970B2EB0E0618BFDD
:1032E0000126012417E00134042CEAD1834C236821
:1032F00099708149587001F1090083421F7040F0B4
:10330000CC8021609DF800009DF80220824240F0B0
:10331000C780002426469DF80200FFF707FD9DF8B0
:103320000210002C08BF012601709DF80220002128
:1033300042708170F6B2FFF779FC1EB39DF8000071
:10334000A84200F09C809DF80160FF2E1CD16648C9
:10335000202103686846984720B9654C227842F0DE
:10336000040121709DF8053003F00F04601C1A461B
:1033700060F30302B4EB131F8DF8052002DA6846F0
:10338000FFF70AFC00247BE0B5422CD16CB99DF814
:10339000070050B1544B68461A682021904720B965
:1033A000534C217841F0040020709DF8043003F064
:1033B000C002402A12D19DF8071011B950481821B7
:1033C00008E04A480C216A46FFF70FFF002856D153
:1033D000002001466A46FFF708FF50E09DF80340D1
:1033E000002C4CD1F4E7474C2378002BCAD09DF831
:1033F000054004F00F082709B845C3DA3046FFF747
:1034000003FC9DF8032008F1010868F303049542CA
:103410008DF805401DD19DF8045005F0C004402CE6
:1034200005D0B4F180014B4253EB010200E00122D0
:1034300008B1457800E00546C02C05D1AE4203D066
:103440002C1C18BF012400E0002444EA020530B916
:103450000AE0A2B910B9684639460EE0154641782F
:103460008DF80310847802E08DF803000446684666
:10347000FFF792FB1DB168462146FFF711FC6C4631
:10348000FFF764FB204604221F49FFF781FC20461A
:103490001E490222FFF77CFC20E0DE1C266031E79B
:1034A00085423FF436AFFFF741FC0446FFF7BEFB11
:1034B00023783BB19DF80510A67801F00F00B042CB
:1034C0003FF727AF9DF8002022709DF8023063700F
:1034D0009DF80510C1F30300A0701AE708B0BDE81D
:1034E000F08100BF60C2072098C1072054C20720A6
:1034F00084C2072005C0072063C2072000C0072040
:103500003CC2072061C20720ACC1072085C207204A
:1035100000231846094AD1184A780AB10130C0B2CE
:103520002433902BF6D1064B597809B1421CD0B206
:1035300093F825300BB10130C0B27047ACC1072001
:1035400085C2072008B5FFF75FFB054B20B18078E7
:103550001978421CD00001E019781820484308BDB2
:1035600004C00720034A11680160516892684160F5
:103570008260704754C2072030B5404C4FF480350C
:10358000E5613F4CA060E068C006FCD43C48806820
:10359000C0B2002B6CD00B46002A5CD0384C93F99B
:1035A0000050072AA56030DD93F90150083AA56064
:1035B00093F90250A56093F90350A56093F9045064
:1035C000A56093F90550A56093F90650A56093F99D
:1035D00007500833A5602A4CA5696D07FBD5A5687F
:1035E0000D70A5684D70A5688D70A468CC70244CD2
:1035F000E568ED06FBD4A5680D71A5684D71A56859
:103600008D71A468CC710831C6E7032A18DD93F9DF
:103610000150043AA56093F90250A56093F9035054
:103620000433A560164CE568ED06FBD4A5680D7063
:10363000A5684D70A5688D70A468CC700431ABE7A7
:103640000133013AE56815F0100FFBD10C4CA4686A
:1036500001F8014BA0E7094B4FF480329A6140B268
:1036600030BDE56815F0100FFBD1054C0133A4689F
:103670009342F0DACD56024CA560F2E700C0092073
:103680000080084007B5002302A9012201F8013D8E
:1036900000F01F001346FFF76FFF9DF907000EBDF6
:1036A00007B502AB03F8011D00F01F001946012207
:1036B000002340F02000FFF75FFF0EBD08B5172084
:1036C000FFF7E0FFC0F3001008BD07207021FFF7EF
:1036D000E7BF03460A466FF05F0019460023FFF775
:1036E0004BBF08B50020FFF7CDFF20F0010149B224
:1036F0000020BDE80840FFF7D3BF0000024B4FF0A9
:103700008072DA61704700BF20C0092008B5002030
:10371000FFF7B8FF40F0010149B20020FFF7C0FFFA
:10372000024B4FF080729A6108BD00BF20C0092093
:1037300007202021FFF7B4BF00216FF01E000A46CA
:103740000B46FFF719BF000037B505460C46FFF7DB
:10375000F3FF28462146FFF7BCFF0D4B4FF0807268
:1037600000209A61ADF80600BDF806104A1C93B21D
:10377000ADF8063033B906494FF08070C861FFF7E5
:10378000DBFF3EBDFFF79AFF0028EDD0F3E700BF57
:1037900020C0092008B51720FFF774FF00F00100D2
:1037A00080F0010008BD07204021FFF779BF08B570
:1037B00003460A46612019460123FFF7DDFEC0F3E8
:1037C000420008BD00216FF01D000A460B46FFF7BE
:1037D000D3BE70B5044600200D461646FFF752FFD3
:1037E00014B100F0BF0102E040F04000C1B215B1D9
:1037F00001F0DF0201E041F0200216B102F0EF0318
:1038000001E042F01003002059B2BDE87040FFF71C
:1038100047BF10B504460020FFF734FF14B900F08D
:10382000F7020DE0012C04D100F0FB0040F008028B
:1038300006E0022C14BF40F0080140F00C01CAB2AF
:10384000002051B2BDE81040FFF72ABF08B50020A4
:10385000FFF718FF40F0020149B20020BDE8084020
:10386000FFF71EBF08B50020FFF70CFF20F0020194
:1038700049B20020BDE80840FFF712BF40F6DD1353
:10388000984206D840F66211B0F5166F38BF084668
:1038900000E01846A0F1600251B20520FFF700BF1A
:1038A00010B504460620FFF7EDFEFA2C00F0D70114
:1038B00002D141F0200104E0B4F5FA6F08BF41F0F5
:1038C0000801062049B2BDE81040FFF7E9BE10B577
:1038D00004460620FFF7D6FE032C34BF2146032101
:1038E00000F0F90040EA410251B20620BDE8104064
:1038F000FFF7D6BEF9284FF0FA0305D9B0F57A6F75
:1039000028BF4FF47A6000E01846B0FBF3F0421E87
:10391000D3B20F2928BF0F2141EA0311042049B275
:10392000FFF7BEBE1130C0B2162806D8202928BF26
:10393000202140B249B2FFF7B3BE7047032804D03C
:1039400004280CBF0221032100E001210320FFF71E
:10395000A7BE03460A46302019460023FFF70CBED7
:1039600003460A462A2019460023FFF705BE000039
:1039700073B504460E461546FFF724FFFFF7DCFE3D
:103980002A4B4FF08072DA61FFF76CFF00210A4684
:103990000120FFF71EFFFFF798FE0220FFF739FF17
:1039A0003046FFF76BFF2846FFF77AFF0320FFF74B
:1039B0008EFF02200321FFF773FE01200021FFF795
:1039C0006FFE03214FF4FA70FFF794FF00202146A9
:1039D000FFF7A8FF12200021FFF762FE132000214D
:1039E000FFF75EFE14200021FFF75AFE152000218C
:1039F000FFF756FE16200021FFF752FE0C4908681B
:103A00000A79009005208DF80420FFF797FF68469B
:103A10000521FFF79EFF68460521FFF7A1FFFFF78D
:103A200015FF4FF4FA6004F086FB7CBD20C009202E
:103A30008B3E0200042938B5054603D1041C18BF8B
:103A4000012400E00024FEF7F9F904B128602046C3
:103A500038BD000007B5084B002102AA186842F8DB
:103A6000041D0B4605F03EFD019818B103494FF0C7
:103A700080520A600EBD00BFD8C2072004ED00E0EE
:103A800070B500238AB001930646007901AA00F0C0
:103A9000C001C0290CBF0F490F4900230D683146F2
:103AA000284605F01FFD044658B9224602A92846BB
:103AB00005F0D2FD23462846314601AA05F012FD45
:103AC0000446019A1AB1054B4FF080501860204609
:103AD0000AB070BDD0C20720D4C2072004ED00E0B8
:103AE00010B5194C226822B90320202105F031FCC1
:103AF0002060164C226822B90120202105F029FC03
:103B00002060134C216821B90120032205F021FC1B
:103B10002060202040F6C3114FF4FA62FFF728FF1F
:103B2000FFF7F4FD162001210A4A04F037FC064B8A
:103B3000186838B10548006820B105490A68101CAA
:103B400018BF012010BD00BFD4C20720D0C207207B
:103B5000D8C20720553A01002DE9F34180460F46AF
:103B6000164606F06DFA022807D13246404639461D
:103B7000002305F0F0FCC6B213E000230193FEF72A
:103B80005DF9841941F100054046394601AA05F066
:103B900063FDC6B22EB9FEF751F98D4208BF8442CB
:103BA000F2D270B2BDE8FC8137B504460D46FFF78E
:103BB000C9F9237883420AD0E07840B909F08AF83D
:103BC00000F00301481CBD22504304F0B4FAFFF793
:103BD00095FDFFF786FD2046A9B2FFF7B5FDFFF77B
:103BE000A7FDFFF793FD06F02BFA02280ED1084B34
:103BF000002102AA186842F8041D0B4605F072FC69
:103C0000019818B1034A4FF08051116001203EBD68
:103C1000D8C2072004ED00E038B504460D46FFF792
:103C2000B9FD48B1A9B22046FFF7C1FDFFF7B2FDCB
:103C300008B9FFF7B8FD012038BD000000B50C4BF6
:103C40000C488DB00C490D4A09930B900CAB002029
:103C500043F8102D0A9104900FCB8DE80F00084B0C
:103C60006A200121074AFFF71DFA0DB000BD00BF11
:103C7000E13A0100193C0100A93B0100353A01007D
:103C8000813A0100903E02000A4603490346086853
:103C90001946FFF761BF00BFD4C207200A46034997
:103CA000034608681946FFF757BF00BFD0C2072078
:103CB00008B506F0C5F90F4B0228586912D1420227
:103CC0000CD5FFF725FC0C4900280CBF4FF0FF3244
:103CD0000122086800210B4605F03DFCBDE80840C4
:103CE000FFF7B4BA4302F9D5FFF712FC0028F5D16B
:103CF00008BD00BF00C00920D8C2072010B506F0DB
:103D0000A3FA0C4B1A6822F0E06020F0FF01196062
:103D10001C6844F004021A60186840F08071196051
:103D20005C68002CFCDA034B5C6806F09FFAC4F375
:103D30000B1010BD0040034030B504464DB2006882
:103D400094F9041053B22A46BDE8304004F048BF4D
:103D50001FB5002204AB90F9044023F8042D4AB2A9
:103D6000022100910068214604F045FF9DF90C00F6
:103D70009DF80D3082B243EA022188B204B010BD32
:103D800010B52A2104461922FFF7D6FF0D2220681C
:103D900094F9041004F033FFB0F12A03584258415B
:103DA00010BD0000234910B50A680B4612F010023E
:103DB0000ED08868C83088611F490A881F2A05D834
:103DC000DC6A1E4840F8224001320A8010202EE0B2
:103DD0000B68D9072CD518480088012822D9174B21
:103DE000411E04338A4207DA53F8041C1C6801326E
:103DF000611A43F8041CF3E7104A002350681A467E
:103E000000EB50008B420BDA0C4C54F823408442F8
:103E100003D9012404FA03F4224301339BB2F1E7EE
:103E200007490A60044B00221A80024B01201860E7
:103E300010BD00BF00800040E0C20720E4C20720A0
:103E4000DCC2072070B50220144C012106F0F2FB01
:103E5000012501210220002606F004FC656026678A
:103E600006F078FD42F21073B0FBF3F0E060A16A57
:103E700021F00702A262A36A43F00600A062A661D5
:103E80006169074B29436161DA68042142F030001F
:103E9000D860044B2846196070BD00BF0080004008
:103EA00000C0024000E100E0044A08B501F07F03D1
:103EB0004171D25C0321FFF73FFF08BD953E020030
:103EC000044A08B501F07F038171D25C0221FFF73B
:103ED00033FF08BD953E0200642370B591FBF3F4F7
:103EE00004FB13110A224CB294FBF2F602FB1643B8
:103EF00003F1300149B20546FFF7E2FF092C02DC6D
:103F00002846202103E006F13002284651B2BDE8E0
:103F10007040FFF7C9BF38B5044694F90410006833
:103F200004F07AFE054688B1204606210022FFF7FC
:103F300003FF204607210022FFF7FEFE20462E2128
:103F4000FFF7B2FF20462E21FFF7BAFF284638BD03
:103F500001207047124B01F00F0140F21312017063
:103F60009A610178CA0701D50122DA61037803F06A
:103F70000201CAB212B10A4B0221D961027802F0E1
:103F80000401CBB213B106491022CA61007800F0D7
:103F90000803DAB21AB102484FF48071C161704768
:103FA00020C0092001207047FFF7A8BE01207047FC
:103FB000044B5969C1F38130C1F3412242EA8000C8
:103FC000704700BF20C0092010B50121044681229E
:103FD000FFF7B2FE0122206894F9041004F00FFEEE
:103FE00010F0600F0CBF0020012010BD38B500217B
:103FF0000446FFF7ADFE0121812285B22046FFF77E
:104000009BFE102328B290FBF3F007F0A5FB4FF0C6
:10401000765107F0F5FBA16807F0EAFA38BD000019
:1040200008B5FFF7E3FF054907F0EAFB044907F08D
:104030009BFC4FF0844107F0DBFA08BD0000104103
:104040000000A0402DE9F04F0546ADF5177D0C4668
:10405000914602A8294601229A4602F081F8834639
:10406000002853D10CA821460A2202F079F8834691
:1040700008B102A837E00090019006460746804646
:10408000FDF7DCFE16A904464FF4007202A86B4649
:1040900002F032F98346A8B9009A9AB1FDF7CEFE34
:1040A000B8EB040268EB080300EB0208FDF7C6FE5C
:1040B000009A04460D460CA816A901AB02F0C2F9FD
:1040C000834698B1B9F1000F01D0C9F80080BAF168
:1040D000000F01D0CAF80070A09901B10E6002A8CB
:1040E00002F0B4FA0CA802F0B1FA0FE001990098BE
:1040F0008142E7D1FDF7A2FE4FF0FF321440C7190D
:104100003F1B009C00231D403619B9E758460DF5AA
:10411000177DBDE8F08FF0B504468DB00F4616460A
:1041200021461D4602A800230122019302F018F83F
:10413000044670B91DB102A8294602F09FFA02A8F0
:104140003946324601AB02F0D7F8044602A802F025
:104150007DFA20460DB0F0BDF0B504468DB00F4697
:10416000164621461D4602A800230A22019301F0AB
:10417000F7FF044670B91DB102A8294602F07EFA85
:1041800002A83946324601AB02F05CF9044602A8A7
:1041900002F05CFA20460DB0F0BDF0B504468DB0DB
:1041A0000F46164621461D4602A8002312220193FF
:1041B00001F0D6FF044680B902A80DB1294600E0FF
:1041C000059902F05BFA02A83946324601AB02F0CB
:1041D00039F9044602A802F039FA20460DB0F0BDC4
:1041E0007F2816D931B1FF2812D80A49803831F812
:1041F00010007047074A8BB232F81120824203D078
:1042000001318029F6D10B4603F18000C0B270471E
:1042100000207047F64002000023064A32F81310CF
:1042200031B1884201D00133F7E7034830F8130079
:10423000704700BFF6410200163F020010B5012092
:104240000C4605F028F92060003018BF012010BD91
:104250000120704710B5044605F0F2FE02280AD18D
:1042600000210B46204640F6B83205F074F9431E93
:104270005842584110BD012010BD10B5044605F04C
:10428000DFFE022807D1002120460A460B46BDE882
:10429000104005F08FB810BD10B5044604F09CFA2C
:1042A00024B1012C06D100F05BFB01E000F0F8FC2A
:1042B000044600E0042404F0A3FA204610BD20B117
:1042C000012801D100F044BB04207047F8B5044632
:1042D0000F4616461D4604F07FFA3CB1012C0CD166
:1042E000384631462A4600F0E3FA04E038463146C3
:1042F0002A4600F019FD044600E0042404F080FA88
:104300002046F8BDF8B504460F4616461D4604F093
:1043100063FA3CB1012C0CD1384631462A4600F0F4
:1043200067FA04E0384631462A4600F019FD044693
:1043300000E0042404F064FA2046F8BD70B5044699
:104340000E46154604F048FA34B1012C0AD1304625
:10435000294600F027F903E03046294600F01AFD0F
:10436000044600E0042404F04BFA204670BD00002F
:1043700010B5044606F0EEFA074BB0FBF3F102234A
:10438000B1FBF3F2944202D30448036110BDB3F5CC
:10439000807FF9D00233F3E740420F000000034072
:1043A000044B9860DA68D206FCD40248816848B2AF
:1043B000704700BF0000034038B5FDF73FFD00F532
:1043C000FA754FF0FF30FFF7EBFF4FF0FF30FFF7CC
:1043D000E7FFC4B2FF2C07D0FDF730FD2A460023CB
:1043E000994208BF9042F0D3204638BD38B5064CFC
:1043F0004FF00075E561FFF7DFFF044BA5611A7808
:1044000042F00100187038BD20C0092006C0072006
:1044100070B505460E46FDF711FD00F164044FF03E
:10442000FF30FFF7BDFFC0B2FF2809D1FDF706FD41
:1044300022460023994208BF9042F0D3002070BD6D
:10444000FE28FBD1102E06D928464FF40071002219
:1044500004F060F918E02C464FF0FF30FFF7A0FFA2
:1044600020704FF0FF30FFF79BFF60704FF0FF3080
:10447000FFF796FFA0704FF0FF30FFF791FFAB19E9
:10448000E0700434A342E7D14FF0FF30FFF788FF1C
:104490004FF0FF30FFF784FF012070BD38B50546AF
:1044A0000C46FFF789FFFF281ED160B2FFF778FFA7
:1044B000FD2C1BD04FF400714FF0FF32284604F062
:1044C00029F94FF0FF30FFF76BFF4FF0FF30FFF798
:1044D00067FF4FF0FF30FFF763FF00F01F00411F41
:1044E0004A4252EB010038BD002038BD012038BDE2
:1044F00038B5044620060D4607D577200021FFF782
:10450000F7FF01283BD804F07F041D4B4FF00072E9
:104510009A61DA61FFF750FFFF282FD160B2FFF7F1
:104520003FFF2816FFF73CFF45F30740FFF738FF32
:1045300045F30720FFF734FF68B2FFF731FF402C47
:1045400004D0482C0CBF8720012000E0952040B209
:10455000FFF726FF4C2C03D14FF0FF30FFF720FF71
:104560000A244FF0FF30FFF71BFF01460029C0B2BD
:1045700005DA013C14F0FF04F3D138BDFF2038BD4B
:1045800020C00920054A064913784869410154BFF3
:1045900003F0FD0343F003031370704706C00720C8
:1045A00020C009207FB505460C46FFF7EBFF052D1F
:1045B00018D12178012900F00F810AD3022940F097
:1045C00009818848426982F08063C3F38061617029
:1045D00002E1844C606910F0806440F0FD80FFF7D8
:1045E00005FFF9E0804B1878C00700F1F7800E2D29
:1045F00000F2EA80DFE815F00F00190054005800BF
:10460000E800E800E800E800E800E800B200B700D1
:10461000B900C300D40073484FF00071C161FFF7C7
:10462000CBFEFF3818BF0120CFE049200021FFF763
:104630005FFF054608B10120C7E068461021FFF77B
:10464000E7FE0028F7D09DF800109DF808308A0991
:10465000012A07D19DF80910481C00EB03239AB2E8
:10466000930246E09DF80700810001EB93129DF84C
:104670000630501C9DF8052003F0030100EB812358
:1046800002F00F009DF80A109DF8092000EBD110F0
:1046900002F0030100EB4100C21F03FA02F328E01D
:1046A0004FF4007020805CE0504D2B7803F0040044
:1046B000C1B209B3CD200021FFF71AFF0028BAD1FB
:1046C0004FF0FF30FFF76CFE68461021FFF7A0FEA9
:1046D0000028B0D030254FF0FF30013DFFF760FEDD
:1046E00015F0FF05F7D19DF80A001022010902FA22
:1046F00001F32360284668E04920FFF7F9FE0646EB
:10470000002898D168461021FFF782FE002892D039
:10471000297801F00202D0B29DF80A1080B101F0B0
:104720003F009DF80B10CA099DF80D1002EB4003E5
:104730008A09581C531E00FA03F02060304644E0FA
:104740009DF80B30C1F38402511C03F003025B0996
:1047500003EBC202531C4B43236036E023490A7823
:104760002270002031E0492000E04A200021FFF7BC
:10477000BFFE00287FF45FAF204610211DE07A20A5
:104780000021FFF7B5FE00287FF455AF05464FF036
:10479000FF30FFF705FE60550135042DF7D1E0E746
:1047A000CD200021FFF7A4FE00287FF444AF4FF096
:1047B000FF30FFF7F5FD20464021FFF729FED0F13D
:1047C000010038BF002000E00420064B4FF00072CB
:1047D0009A6104E0042002E0002000E0032004B01D
:1047E00070BD00BF20C0092006C0072064C3072099
:1047F00070B5144605460E46FFF7C4FE002C4AD09D
:10480000284B1A78D20748D4187800F00401CBB2AC
:10481000002B44D124484FF000722449C2610B7828
:1048200003F00802D0B200B97602012C0DD1582055
:104830003146FFF75DFE30BBFE212846FFF72EFE16
:10484000D0F1010438BF00241DE013F0060F03D09F
:10485000D7202146FFF74CFE59203146FFF748FE8E
:1048600088B92846FC21FFF719FE28B1013C14F055
:10487000FF0405F50075F4D10020FD21FFF70EFEC1
:10488000002808BF0124084B4FF00071201C9961DB
:1048900018BF012070BD042070BD032070BD022030
:1048A00070BD00BF06C0072020C0092064C30720D8
:1048B00070B5144605460E46FFF764FE002C3CD04A
:1048C000204B1878C1073AD41F494FF000721F4B94
:1048D000CA61187800F00802D1B201B97602012C41
:1048E0000ED151203146FFF703FEF0B928464FF4B0
:1048F0000071FFF78DFDD0F1010438BF002414E0F2
:1049000052203146FFF7F4FD78B928464FF4007184
:10491000FFF77EFD28B1013C14F0FF0405F500759A
:10492000F3D14C200021FFF7E3FD074B4FF000705F
:104930009861201C18BF012070BD042070BD0320A9
:1049400070BD00BF06C0072020C0092064C3072037
:1049500008B5FFF717FE014B187808BD06C0072001
:104960002DE9F341FFF70EFE554B1A7802F00200D5
:10497000C1B2002940F0A0800120FFF7F9FC0A2411
:104980004FF0FF30013CFFF70BFD14F0FF04F7D1AF
:104990004C4B4FF000764020DE612146FFF7A8FD2A
:1049A000012801D0002674E0FDF748FA4FF4D571D4
:1049B00000F57A774820FFF79BFD012841D14FF0A1
:1049C000FF30FFF7EDFC01AA10550134042CF6D19D
:1049D0009DF806000128E5D19DF80710AA29E1D12C
:1049E000FDF72CFA3C460025A94208BFA04206D399
:1049F000FDF724FAA94208BFA042D3D207E0E9207C
:104A00004FF08041FFF774FD0028E9D1F0E77A20EC
:104A10000021FFF76DFD0028C4D104464FF0FF30A0
:104A2000FFF7BEFC01AE30550134042CF6D19DF8E1
:104A3000043003F04002D0B200280CBF04260C263C
:104A400027E0E9202146FFF753FD01288CBF01260E
:104A500002268CBF4FF041084FF0E908FDF7EEF950
:104A60003C460025A94208BFA0420BD3FDF7E6F95A
:104A7000A94208BFA0420CD350204FF40071FFF7A9
:104A800037FD06E040460021FFF732FD0028E5D162
:104A9000ECE70D490B4B4FF000720E709A6146B176
:104AA0000748017801F0FE0202701820FFF760FC51
:104AB00001E0FFF79BFC024B1878BDE8FC8100BFCA
:104AC00006C0072020C0092064C30720F8B51A4B90
:104AD00005461C880E46B4F5007F174602D10846ED
:104AE00011460AE0B4F5807F09D1084611462246F6
:104AF000A84706F5807007F58071224619E0B4F5E5
:104B0000047F07D122F4FF72084622F001014FF41E
:104B100000720EE0B4F5847F0CD1170A08464FF4FA
:104B200080727902A847791C06F5807049024FF41B
:104B30008072A847F8BD00BF66C3072010B50346C2
:104B400000295CDD93F900402D4A0729946030DD8F
:104B500093F901400839946093F90240946093F905
:104B60000340946093F90440946093F90540946085
:104B700093F90640946093F9074008339460204A03
:104B800094696407FBD594680470946844709468D1
:104B900084709268C2701A4AD468E406FBD49468A0
:104BA000047194684471946884719268C271083089
:104BB000C6E7032918DD93F901400439946093F99D
:104BC0000240946093F90340043394600C4AD46823
:104BD000E406FBD49468047094684470946884700C
:104BE0009268C2700430ABE701330139D46814F025
:104BF000100FFBD1024A926800F8012BA0E710BD0C
:104C00000000034007B58DF80400080A0B0C8DF86E
:104C100006008DF8071001A804218DF80530FFF774
:104C20008DFF0EBDF7B50D4C06464025080CE5611D
:104C30000B0A17468DF8050003228DF8071001A80E
:104C400004218DF804208DF80630FFF777FF3046F9
:104C50003946002203F05EFDA561FEBD00C00920BB
:104C60000D4B0E4840226FF02801DA618160C26866
:104C7000D106FCD4094B9B6808484FF0FF31816096
:104C8000C268D206FCD4054B98680306F4D5024AE4
:104C900040219161C0B2704700C00920000003406C
:104CA000F7B5FFF7DDFF07461B481C4D81781C4C0C
:104CB000002340260288238001A8EE618DF80610AB
:104CC0000321ADF80420FFF739FF9DF805009DF89A
:104CD00006301F28AE6117D1A3F12502022A13D88E
:104CE0001049252B0B7007F0010006D100280CBFDE
:104CF0004FF484734FF4807305E000280CBF4FF429
:104D000004734FF400732380054A1188D1F1010028
:104D100038BF0020FEBD00BFD643020000C00920FE
:104D200066C3072068C307202DE9F04106461746F1
:104D30004FEA4128FFF794FF34460025C6EB0802EE
:104D4000BD42224407DA21460448FFF7BFFE04F5BE
:104D500000740135F2E70020BDE8F081254C010028
:104D60002DE9F041064617464FEA41280446002542
:104D7000C6EB0802BD42224407DA21460448FFF789
:104D8000A5FE04F500740135F2E70020BDE8F081CE
:104D9000814E010008B507281CD8DFE800F00407A1
:104DA000131719191919FFF75BFF11E00A4B18784F
:104DB0002538C3B2032B9ABF084A52F82330002388
:104DC0005B0A04E04FF40070088001E001230B60EF
:104DD000002008BD042008BD68C30720DC43020092
:104DE00030B591B003466C4600F14005186859682B
:104DF000224603C20833AB421446F7D1064D402485
:104E00009B200021EC61FFF7FDFE68462146FFF77D
:104E100095FEAC6111B030BD00C0092070B5074DE2
:104E20004024064600217720EC61FFF7EBFE304678
:104E30002146FFF783FEAC6170BD00BF00C00920B2
:104E4000084B188830F01F000BD007490B78253B22
:104E5000D9B203299ABF054A52F821100021B1FBAB
:104E6000F0F0704766C3072068C30720DC430200E8
:104E7000024B1878003018BF0120704766C3072026
:104E80002DE9F7434FF0FF330D46904601938146DD
:104E9000FFF7E6FEFFF7ECFF0446A0B1164E4027F1
:104EA0001648F76101880320B1F5847F14BF4FF4E1
:104EB00000714FF480712943FFF7A4FE01A804217B
:104EC000FFF73CFEB7610C4E4022F261822029467A
:104ED000FFF798FE48464146012203F01BFC3CB117
:104EE000019B02A8591C40F8041D0421FFF726FE6F
:104EF0004020B061BDE8FE8300C0092066C30720E2
:104F0000F7B5114B07461E884FF0FF30B6F5847F8A
:104F100014BF4FF400764FF480760190FFF7A8FF9E
:104F200060B10A4C4025032046EA4721E561FFF7BE
:104F300069FE01A80421FFF701FEA5610198B0F107
:104F4000FF3F08BF0020FEBD66C3072000C0092048
:104F50001FB501A803F00CFB9DF809209DF808304F
:104F600002F00F019DF8062003F01F004B0543EAF5
:104F7000004002F01F0140EAC1239DF805009DF8A2
:104F8000041000F03F0243EA4210BDF80A20C1F3CA
:104F900044035106184301F10843184305B000BD0E
:104FA00010B50023D41A032C03D9CC58C4500433B1
:104FB000F8E702F0030422F00302801800238A18A5
:104FC000A34203D0D15CC1540133F9E710BD82186C
:104FD000904202D000F8011BFAE7704770B5164BFB
:104FE0000024224653F8085C65B10668B5420AD130
:104FF00053F8046C8568AE4205D11E88C588AE4260
:1050000001D105E0012401320C33032AEAD10CE07E
:1050100049B90A490C2000FB02135A89B2F5807F76
:1050200001D0002070BD102070BD002CF9D10229E4
:10503000F7D0122070BD00BF74C307206CC30720D7
:1050400070B51F4A0668002352F8084CB44208D1D4
:1050500052F8045C8468A54203D11588C488A5422F
:1050600010D001330C32032BEED1164A1368F3B97A
:105070000C255D43541956518268C0886260002235
:10508000208162810F4A0C2000FB0322508929B144
:1050900008B1002070BD4FF4807201E0411C8AB25B
:1050A00008490C2000FB03104281581C70BDD368D6
:1050B00023B19369002BECD10223D9E70123D7E771
:1050C00074C307206CC307200138022813D80C4989
:1050D0000C2202FB00135B89B3F5807F03D01BB168
:1050E000013B9BB200E00023504309184B8123B9D8
:1050F000034A135001E0022070470020704700BFB0
:105100006CC30720002310B5044618464208E15C32
:1051100042EAC010013342180B2B02F0FF00F5D118
:1051200010BD0368024613B94FF0FF30704793F982
:1051300000003038082808D893F901103A2904D122
:1051400002330128136001DDEEE700207047F8B557
:1051500003690C4601F1090163B3436900229D5CB8
:1051600001326EB2202E1BD0052E08BFE525092A7C
:1051700002D12E2701F8017BEEB2A6F14107192FCB
:105180000CD81F7B082A94BF4FF0080C4FF0100C6E
:105190001CEA070F1CBF06F12005EDB201F8015B08
:1051A0000B2ADCD1DD7A25721E8BDA69A680DB8AB8
:1051B0002260E38000250D70A669EEB1016909B98E
:1051C000002517E0E269002AFAD0818C4FF6FF73C0
:1051D0009942F5D0076A37F8150058B10021FEF75B
:1051E000FFFF0028ECD0E269511E8D42E8D27055D5
:1051F0000135F0E700207055F8BDF8B50446007998
:10520000F8B1256B04F13407607839462A4601234A
:10521000FFF778F8A0B9636A2071E069EA1A824260
:1052200001D30020F8BDE678012EFAD9E169607853
:105230006D182A4639460123FFF764F8013EF3E76B
:105240000120F8BDF8B50446FFF7D7FF05466DBB52
:105250002378032B22D16679012E1FD104F1340764
:10526000384629464FF40072FFF7B1FE10494AF65E
:10527000552061630F4A216A6369A4F832022069EC
:10528000C4F818224A1CC4F81C32C4F82002226355
:10529000607839463346FFF735F86571002160784C
:1052A0000A46FFF74BF8003018BF0120F8BD00BFD9
:1052B000525261417272416110B50446A8B103684F
:1052C0009BB11A788AB1D988808881420DD1D8687B
:1052D000FEF7C0FF58B123685878FEF7F0FF10F0D2
:1052E000010F0CBF0020032010BD092010BD0F20AE
:1052F00010BD38B5036B044699420D460CD0FFF73C
:105300007CFF58B9607804F134012A460123FEF786
:10531000DDFF18B9256338BD002038BD012038BD38
:1053200000234FF0FF3210B5037102630446FFF70C
:10533000E0FFA0B9B4F832124AF65523994210D1D1
:10534000D4F86A20084B22F07F4199420AD0D4F861
:10535000860020F07F42D01A18BF012010BD032024
:1053600010BD022010BD00BF4641540050B10C29B1
:1053700008D00B2906D0092904D00F2902D0C06813
:10538000FEF77BBF704700002DE9FF41002303605B
:10539000074608461546FFF7C4FE061EC0F2FD800C
:1053A000854850F82640002C00F0F980E068FEF7B0
:1053B00051FF002800F0F5803C60217879B16078D9
:1053C000FEF77DFFC3070AD4002D00F0E48000F053
:1053D0000402D3B2002B14BF0A200020E8E0002210
:1053E000F0B222706070FEF757FFC10700F1DB805A
:1053F0002DB100F00403D8B2002840F0D68000217F
:105400002046FFF78DFF01281CD1002204EB820506
:1054100095F8F61105F5F97601B1B1684DF802106D
:105420000432102AF2D100265DF806502DB1204634
:105430002946FFF775FF08B90BE002200436102E4D
:10544000F2D100E00025032800F0B18008B10D2062
:10545000AEE0B4F83F30B3F5007FF8D1B4F84A308D
:1054600003B9A36D94F84460E361701E0128E670EF
:10547000EDD894F84100A0700028E8D0411E014208
:10548000E5D1B4F845100A072181E0D1B4F84720EE
:1054900002B9626DB4F842C0BCF1000FD7D006FB70
:1054A00003F80CEB11174744BA42D0D3D21BB2FB1E
:1054B000F0F2002ACBD040F6F576B24206D94FF68C
:1054C000F57082428CBF0326022600E001260232DC
:1054D00005EB0C007F19032EA26125626062E76272
:1054E00005D10029B3D1206E9100A0620EE0002901
:1054F000ADD008EB0001022EA16201D1510005E000
:105500000320504302F0010202EB500101F2FF12AE
:10551000B3EB522F9BD34FF0FF338021032E6361F7
:10552000236161711ED1B4F8640001281AD12046AC
:10553000691CFFF7DEFEA8B9B4F832224AF65523FB
:105540009A4260710ED1616B1C4881420AD1D4F835
:1055500018321B4A934205D1D4F81C12D4F8200209
:1055600061612061174A26701388591C164B88B256
:1055700010801A68E080A24201D100211960D86829
:10558000A04202D1104A0021D1609B69A34202D1FE
:105590000D490020886100200AE00B2008E00C2063
:1055A00006E00F2004E0032002E00A2000E00120D2
:1055B00004B0BDE8F08100BF90C3072052526141A2
:1055C000727241616AC307206CC307208369023984
:1055D0009A1E914204D28278C06A02FB0100704791
:1055E000002070470129F8B504460D4648D9836963
:1055F000994245D20178022927D0032930D00129C8
:105600003BD1426A05EB550602EB5621FFF771FECE
:10561000002832D1636AF005013604EBD05703EB62
:105620005621204697F83470FFF763FE28BBF60535
:1056300004EBD65494F83410EA0747EA012001D568
:105640000009F8BD0205100DF8BD426A02EB1521F4
:10565000FFF74FFE88B92D0604EBD554A08EF8BD98
:10566000436A03EBD511FFF744FE30B96D0604EB36
:10567000D554616B21F07040F8BD4FF0FF30F8BD9C
:105680000120F8BD70B504460D46E180816801290E
:1056900001D1022070BD03689A699142F9D271B9B3
:1056A0001878032801D1996A49B919890020A942BB
:1056B000E060EED99B6A03EB1512226119E09E7837
:1056C0003601B5420ED32068FFF78CFF014601304A
:1056D00018D00129DDD923689A699142D9D2AD1B2E
:1056E000ADB2EEE7E1602068FFF770FF00EB151147
:1056F0002161206805F00F0500EB4511343161612F
:10570000002070BD012070BD0129F8B504460D468A
:1057100016465ED9836999425BD20178022939D055
:10572000032942D0012950D1426A05EB550702EB0B
:105730005721FFF7DEFD002848D1F805C20D15F00E
:105740000105F3B207D0A11891F8340000F00F0161
:1057500041EA0313DBB2616A0120A218013720710C
:1057600082F83430204601EB5721FFF7C2FD68BBB9
:10577000FF05FA0D15B1C6F3071607E0A31893F855
:105780003410C6F3032621F00F073E43A71887F80D
:1057900034601BE0426A02EB1521FFF7AAFDA8B9AD
:1057A0002D0604EBD555AE8610E0426A02EBD5110A
:1057B000FFF79FFD50B96D0604EBD5556B6B03F0F9
:1057C00070410E436E63303500E0022001232371E7
:1057D000F8BD0220F8BDF8B504460F4631B9066998
:1057E0006EB18069864228BF012609E0FFF7FAFE04
:1057F00001283DD9A36998423BD33E4600E00126EB
:105800003546A16901358D4204D3012E01D800200F
:10581000F8BD022520462946FFF7E4FE48B1411CA9
:1058200002D14FF0FF30F8BD012821D0B542E8D1B8
:10583000EDE7204629466FF07042FFF765FFA8B9F3
:1058400057B9636925615A1C0ED060795A1E40F021
:1058500001016261617107E0204639462A46FFF77F
:1058600053FF0028EDD001E02846F8BD0128D8D02C
:105870000120F8BD2DE9F843C6880446701C86B2A5
:105880000F4616B90420BDE8F8832369002BF9D030
:1058900016F00F085AD1591C2161E168206819B926
:1058A0000189B142EED951E08278531E13EA1612F3
:1058B0004CD1FFF797FE0128054602D80220BDE82B
:1058C000F883431C02D10120BDE8F8832068816978
:1058D0008D4235D3002FD5D0E168FFF77CFF054618
:1058E00000283CD00128E9D00130ECD02068FFF737
:1058F00084FC07460028E6D12068394634304FF44E
:105900000072FFF764FBD4F8009029464846FFF781
:105910005DFEC9F8300020688278BA420DD90121B5
:1059200001712068FFF769FC0028CCD1206801379D
:10593000026BFFB2531C0363EDE7036BDF1B0763CE
:10594000E56020682946FFF741FE20612068E68077
:1059500000EB4812343262610020BDE8F883072072
:10596000BDE8F8832DE9F84F4FF0FF0905464C4696
:1059700028682969FFF7BDFC804600287DD16E6943
:105980003778002F73D0F27AE52F02F03F0365D00D
:1059900002F00800C1B211B10F2B5FD101E00F2B53
:1059A00046D1D5F820B0BBF1000F58D007F0400029
:1059B000C1B231B1EC8896F80D9007F0BF07AC8406
:1059C00001E0A7424AD1737B4B4547D132780D2184
:1059D00022F04000441E4C434FF001084FF0000AF3
:1059E000274B1AF80320B05AB8F1000F0BD0FEF77E
:1059F00013FC7F2C804631D83BF81400FEF70CFCDA
:105A00000134804502E04FF6FF71884226D10AF149
:105A1000010ABAF10D0FE3D1307800F04003DAB299
:105A200042B3B8F1000F25D03BF8144014B315E091
:105A300024B93046FFF766FB81451ED04FF6FF7252
:105A4000AA84AA69D37A13F0010307D1F05CD15C70
:105A50000133884202D10B2BF8D10EE0FF242846F7
:105A60000021FFF707FF8046002881D005E04FF0B6
:105A7000040802E0791ECCB2F1E74046BDE8F88F99
:105A8000DC4402002DE9F74F91F9003006462F2B38
:105A9000894601D05C2B01D109F101090024B460D1
:105AA00099F800001F286DD830462146FFF7EAFD1F
:105AB00074611FE108F101083BF81820202AF9D091
:105AC0002E2AF7D0B8F1000F01D044F003043B4672
:105AD00033F8020D2E2801D0013DF9D100224FF0FC
