:020000021000EC
:10000000004008207F0101004D010100E1000100D6
:100010003D0101002D0101001D0101000000000053
:100020000000000000000000000000005DAE0100C4
:100030000D01010000000000E1AE01001DAF010054
:10004000FD000100FD000100014A0100FD0001006A
:10005000FD000100FD940100FD0001006595010017
:10006000CD950100FD000100FD000100FD00010033
:1000700089900100FD000100FD000100FD0001006C
:10008000FD00010045830100FD000100FD000100AD
:10009000FD0001008D8F0100FD000100FD00010049
:1000A000FD000100E18E0100FD000100FD000100E6
:1000B000FD00010011B30100FD000100FD00010081
:1000C000FD000100FD000100FD000100A469020027
:1000D00000C007202001000020C10720FC04000010
:1000E00004207146084200F00480EFF309800BF011
:1000F0007BB9EFF308800BF077B9704708B5024879
:1001000000F0CAF9FEE700BF3A62020008B50248F3
:1001100000F0C2F9FEE700BF5062020008B50248D5
:1001200000F0BAF9FEE700BF6062020008B50248BD
:1001300000F0B2F9FEE700BF6D62020008B50248A8
:1001400000F0AAF9FEE700BF7862020008B5024895
:1001500000F0A2F9FEE700BF8362020010B50023A1
:10016000934203D21C585C500433F9E710BD0023BE
:100170008B4203D200221A500433F9E7704710B5BE
:1001800014480AF06BFF13480AF06BFF124C134B34
:100190009C4205D294E807000C34FFF7DFFFF6E736
:1001A0000F48844205D294E803000834FFF7DFFFCC
:1001B000F6E70DF0C1FC0AF06BFF02F0B3FB03F0B1
:1001C00055FA4FF416400BF043FA064800F064F974
:1001D000FEE700BF00400820CC000100D80001006D
:1001E000E0000100F562020008B5024800F054F991
:1001F000FEE700BF1E63020008B5024800F04CF99C
:10020000FEE700BF2963020008B5024800F044F988
:10021000FEE700BF38630200124A30B5116803469A
:1002200011B94FF08050106010680F4DC41862195A
:100230000E4D0C49AA4297BF0D480C601A180A606F
:10024000084A0C4C1168A14202D90B4810600020EA
:100250003BB10A4A116801311160094A094910602D
:100260000B6030BD24C10720FF7FFFEFFE3F07106A
:100270001CC60720FF3F0820004008202CC1072093
:1002800028C1072020C107200DF094BC0DF092BCBE
:100290000DF098BC0DF096BC30B58BB004466846A6
:1002A0000EF0D4F8214D089B07982560A36060608C
:1002B00058B91F491F4A0B6893428ABF03F1604334
:1002C00003F17043A3F5E82363606068B0F5803FF5
:1002D00004D900F17041A1F5E82363601448154B7F
:1002E000016800229942E26006D86D18C5F180537A
:1002F00003F58035E5600BE00F4A914208D80F48BE
:10030000C0F1804303F58012501A0028C8BFE06096
:10031000E1610B490B480A680B490368A2610A684E
:100320006361226120460BB030BD00BF1C06000097
:1003300024C1072000800010FF3F08201CC60720B2
:1003400028C1072020C107202CC10720FEE700009C
:10035000014B1860704700BF34C10720014B186083
:10036000704700BF30C1072008B502480EF090F872
:10037000FEE700BF7C39020008B502480EF088F89D
:10038000FEE700BF96390200002070470120704749
:10039000084B70B518680E46154640B10024AC42B3
:1003A00005DA044930570A6890470134F7E72846D0
:1003B00070BD00BF34C10720094B70B518680E46E8
:1003C000154600B970BD0024AC4206DA0448016845
:1003D0000020884730550134F6E725EAE57070BD06
:1003E00030C107207047002070470000074B196894
:1003F0008A68824207D04B68834204D0C9680A1ACF
:100400005042504170470120704700BF7CC0072018
:10041000002070470020704730B504468DB000289A
:1004200037D0684608F0D4FE9DF800309DF80110E2
:1004300003F03F0003909DF8040001F03F029DF897
:10044000025000F01F010492BDF806009DF805203F
:1004500005F01F03069102F00F05C0F30B018AB2ED
:100460000593BDF808106B1E07939DF80330A2F2A8
:100470006C75C1F30B0203F00700089595B26B1E73
:100480000990002503A80A930B950DF0FDFC84E864
:10049000210000200DB030BD10B504460AF004FD67
:1004A000013C14F8010F18B140B20BF00DF9F8E758
:1004B000BDE810400AF00ABD38B50F4C256815F0AC
:1004C000010516D120460BF0A1F990B14FF40E7042
:1004D000FFF7DAFE094B30223A2180F8345280F8D7
:1004E000352280F8361280F83752186020460BF01B
:1004F0009BF90248006838BD40C1072044C107206D
:1005000038B5104C236813F0010517D120460BF0C5
:100510007DF998B14FF40E70FFF7B6FE012280F816
:100520003422094A31213A2380F8351280F83632D4
:1005300080F83752106020460BF076F902480068C8
:1005400038BD00BF58C107205CC107202DE9F0412C
:10055000ADF50A7D0E4608F007FB041E04DD0AF027
:1005600031FC20460AF0D0F9264D05AC0FCD0FC462
:100570002B6810210DEB010200250AA823600495C9
:100580000AF07EF9074604986422B0FBF2F1049168
:1005900030461D491D4A0A2309F086F8BD4222D083
:1005A0000AAC049B04EB4514A2690BB1B2FBF3F354
:1005B000606994F80C800090A18B029388000A2354
:1005C0000190A2FB03014FF47A7200230CF0B4FEF9
:1005D00005AB03900E493046626853F8283009F0A5
:1005E00063F80135DAE70AF063F8102804D93046D9
:1005F0000849102209F058F801200DF50A7DBDE8E0
:10060000F08100BFB0390200CF390200F639020094
:10061000FB390200183A020010B5ADF5007D0C461A
:1006200068460AF083FE204669464FF0FF3209F023
:1006300005F801200DF5007D10BD000030B50C4619
:1006400091B02C49054608F097F9002847D008AB2F
:10065000009309A80AA90BAA0CAB0190029103927E
:1006600004932846244906AA07AB08F0E8F80728AF
:1006700001D000203BE09DF8390006999DF8383004
:1006800061F303008DF839000899BDF83A00079A24
:1006900061F30B0062F304030A99ADF83A009DF888
:1006A0003500099A8DF838309DF8363061F3050031
:1006B00062F304038DF835000C999DF837008DF82E
:1006C00036300B9A9DF8343061F3020062F3050373
:1006D0008DF837000DA88DF8343008F09BFD08F038
:1006E00033FE06490246204608F0DEFF012011B025
:1006F00030BD00BF56500200423A0200855A020047
:1007000030B589B004AB0024009302220D4603AB40
:1007100018490394049408F09FF8022827D107A8E9
:10072000009005AA0398049906AB059406940794D3
:1007300004F050FA024638B1049928460091039B10
:100740000D4908F0B1FF10E0059A069B079C002AAE
:1007500008BF0122002B08BF012328460749B4FB2C
:10076000F2F2B4FBF3F308F09FFF012000E0204613
:1007700009B030BD214C02005B3A02007A3A020017
:100780002DE9F0410C46ADF5866D3049054608F07F
:1007900080F92F490746284608F0A4F92C49284635
:1007A00008F0C0F9284608F0DDF90122014601A849
:1007B00006F09EFA064640B1284608F0D3F92549CE
:1007C0000246204608F070FF3AE00BAD314640F299
:1007D000014228460DF088FA009602F079F880462A
:1007E00001A829464FF480626B4606F04DFB90B19C
:1007F00001A806F0F3FC8FB102F06AF8B0EB080034
:1008000014BF03460123144920463246B6FBF3F3D6
:1008100008F04AFF02E0009B3BB9E9E720460F4998
:100820004FF0FF3208F00AFF0AE0F618E854002FF4
:10083000D6D1204629464FF0FF3208F0EBFECFE735
:1008400001200DF5866DBDE8F08100BFA83A0200D9
:10085000214C0200B13A0200C53A020041530200A5
:10086000F0B5C1B00DAB0025009302220C460CABD5
:100870005C490B950C950D9507F0EEFF022803D10E
:100880000D980DF04FF805460C9808B956490C9193
:1008900016A80C9906F045FD034678B12046534949
:1008A0000C9A08F001FF9AE020AA802616A80EA94B
:1008B0001492159606F087FD013D08B9002DF3DC72
:1008C00020464B490C9A08F0EFFE00252E4680206A
:1008D00020AB15900EA916A8149306F074FD0028FD
:1008E00065D19DF94110002961D09DF8407007F055
:1008F0001002D3B213B10135442205E00B990E98D2
:1009000001360A180B922D2207F0020C17F0010F86
:1009100007F0040E5FFA8CF007F020070CBF2D23C0
:1009200052235FFA8EF100280CBF4FF02D0C4FF0D0
:10093000480CF8B200290CBF4FF02D0E4FF0530EAB
:1009400000280CBF2D214121BDF83C00029141122D
:10095000BDF83E7001F2BC718DE800500391C0F308
:100960004311049100F01F00F912C7F345170691D7
:100970000590079740A951F8C80D093108900991D1
:1009800020461C4908F090FE20461B494FF0FF32DC
:1009900008F040FE20A920464FF0FF3208F03AFE52
:1009A000204616494FF0FF3208F048FE8FE70095C9
:1009B00040AD55F8D43D12493246204608F074FE49
:1009C0000C9829460AAA06F02DFD40B90A9B0B99FE
:1009D0009A7820464A430B49520808F065FE0120E8
:1009E00041B0F0BD214C0200E03A0200E33A0200BF
:1009F000073B0200223B02004F3B02004153020032
:100A0000533B02007D3B020070B50E46054608F0E0
:100A1000A9F80446284608F0A5F806F0D0FD064AD5
:100A2000064B0749002818BF13463046224608F0F7
:100A30003BFE012070BD00BF3D3D0200333D020082
:100A4000913B020070B50E46054608F08BF804464F
:100A5000284608F087F806F049FD064A064B074984
:100A6000002818BF13463046224608F01DFE01201C
:100A700070BD00BF3D3D0200333D0200AD3B0200B2
:100A80007FB503AB0024009302220E4602AB0F4950
:100A90000294039407F0E0FE022814D1029D039C07
:100AA0002846214606F032FE09490A4A2346002814
:100AB00014BF104608460090074930462A4608F001
:100AC000F3FD012000E0204604B070BD214C02007F
:100AD000333D02003D3D0200BF3B020030B58DB00A
:100AE0000C46054608F03EF80A22014602A806F028
:100AF000FFF840B1284608F035F81F490246204665
:100B000008F0D2FD35E08DF8030001901B49204626
:100B10007E2242F2107308F0C7FD1949204608F002
:100B2000C3FD236820461B680DF1030142F21072D9
:100B3000984718B19DF903007E2803D102A806F05A
:100B40004DFB16E002A80DF10301012201AB06F0F6
:100B500041FA28B10199012902D020460949DEE76E
:100B60002268204653689DF903104FF0FF329847E2
:100B7000D7E701200DB030BDD73B0200FE3B02009D
:100B8000363C0200563C02002DE9F043ADF5417DB4
:100B9000002303AD2B60029302220C4600954049CE
:100BA00002AB07F059FE022806D020463D494FF01F
:100BB000FF3208F043FD6EE016A8296806F0B1FB8D
:100BC00018B1204638492A6807E016A8029906F0AD
:100BD000A8FB28B13549029A204608F065FD5AE085
:100BE00040A94FF4807204A807F0FAFD09A880A973
:100BF0004FF4807207F0F4FD20A880211490159125
:100C000016A80EA906F0DFFB00283ED19DF9412071
:100C1000002A3AD09DF8405005F01003DDB2002DB7
:100C2000EAD10DF14106029A334604A8204908F0A2
:100C300059F8039A33461E4909A808F053F804A846
:100C400007F090FF804609A807F08CFF074604A82C
:100C50000E9E07F087FF814609A807F083FF2A460A
:100C600001462B460095484603F0B4FF1149124A4D
:100C70000096002814BF1046084601900F492046F0
:100C800042463B4608F010FDB6E709A807F0BCFD58
:100C900004A807F0B9FD01200DF5417DBDE8F08302
:100CA000214C02007D3C0200C23C0200E73C0200F5
:100CB000073D0200333D02003D3D02000D3D0200B4
:100CC00070B50C462149054607F04AFF064628B193
:100CD000FFF716FC002100F2352009E028461C49E8
:100CE00007F03EFF50B1FFF7E7FB314600F2352039
:100CF0000A4606F09DFD174B17491CE02846174988
:100D000007F02EFF48B1FFF7FBFB012200F235216F
:100D100005F09EFF124B13490DE02846124907F0DB
:100D20001FFF88B1FFF7C8FB012200F2352105F053
:100D30008FFF0E4B0E49002808BF19464FF0FF32B7
:100D4000204608F07BFC012070BD00BF943D0200EE
:100D50009E3D02002C3D0200363D0200AB3D0200EC
:100D6000433D0200533D0200B43D02006A3D0200D3
:100D7000783D020010B501200C4607F01FFD38B188
:100D800000210A460B4609F045F92046044901E0D6
:100D9000044920464FF0FF3208F050FC012010BDFE
:100DA000C03D0200D63D020038B5064C236833B979
:100DB0001C20FFF769FA054608F05CF925602068F9
:100DC00038BD00BF4CC107202DE9F0430C4687B069
:100DD0003C49064607F0E8FD3B498046304607F0AF
:100DE000E3FD3A498146304607F0DEFD002705461F
:100DF000039704970597B8F1000F1DD0304634498A
:100E000003AA04AB07F01BFD022807D02046314996
:100E10004FF0FF3208F012FC3D464FE0FFF7C4FFF1
:100E20009DF90C109DF9102008F019FD0499C2B22B
:100E300000912046284924E0B9F1000F2BD005ABE2
:100E400000933046254903AA04AB07F0F8FC0328B9
:100E500007D0204622494FF0FF3208F0EFFB45460D
:100E60002CE0FFF7A1FF9DF90C109DF910209DF9D2
:100E7000143008F0E5FC40B104981A49059A009036
:100E80002046039B08F010FC17E020461649039A01
:100E900008F00AFC11E088B10226FFF785FF71B265
:100EA00008F0EAFC20B120461049324608F0FCFB6D
:100EB0000236B6F5807FF0D100E00125284607B064
:100EC000BDE8F083444D0200F03D0200F63D020013
:100ED000FF3D02000B3E02002C3E02004D3E020090
:100EE0005D3E0200843E0200A43E0200C13E0200BC
:100EF0002DE9F04F5E4C93B023680E4633B92020A5
:100F0000FFF7C2F9054608F0EBFA2560D4F8008037
:100F1000FFF7D2FA002512A941F8105D00F2352042
:100F20000DAA06F07FFA48B90D9A0E999769907844
:100F3000BC1E414344434D08670800E02F46DFF8DC
:100F40003491D9F8003063B90C20FFF79DF90446BD
:100F5000FFF72AFF9022206000202271A060C9F8CC
:100F600000404449086803F023FE04460CF09EF953
:100F700083460BF081FF014620460BF0C7FE3E4939
:100F80000BF0CEFF0CF092F90B900FA80AF076F858
:100F900004F036FD38B308F04FFA04F019FD0024D0
:100FA0000346A146A2469C420AD020460A9304F07A
:100FB0006FFD504584BFA14682460A9B0134F2E78B
:100FC00008F04EFA642303FB0AF22C483B46B2FBBE
:100FD000F0F1C1F164028DE80406304628492A4642
:100FE00008F062FB05E0304626492A463B4608F0F9
:100FF0005BFB254C23681BB90120FFF745F92060F6
:10100000206803F0ADFD044608F09EF99DF84120EC
:101010009DF84010019001F01F0302F00F00BDF891
:10102000422003939DF83E300290C2F30B0081B240
:1010300003F01F029DF83D009DF83C30049105929D
:1010400000F03F0103F03F02079200940691B8F8C8
:1010500018005A460890B8F81A10304609910B9BB0
:101060000A4908F021FB012013B0BDE8F08F00BF52
:101070003CC1072048C1072000002041A086010094
:10108000E13E0200153F020050C10720233F02004D
:1010900038B5064C236833B90420FFF7F5F8054648
:1010A00001F0F0FA2560206838BD00BF38C1072084
:1010B0002DE9F0418CB00C460546FFF7E9FF80466C
:1010C000284607F04FFD31490246204608F0ECFA69
:1010D00028462F4907F045FC431C064605D120460B
:1010E0002C4908F0E1FA00244BE032460021284662
:1010F00007F0B9FD014602A807F03DFE02A807F07F
:1011000095FB074630B920462349324608F0CCFA11
:101110003C4633E02846711C07F0D8FD014607A87D
:1011200007F029FE07A807F081FB054610B9204605
:101130001A490CE002A807F017FD054607A807F0BA
:1011400016FD691E0529064605D91549204608F0F1
:10115000ABFA00240FE032464046C9B201F0E0FA93
:1011600030460BF071FA2A46CDE9000120460D49C0
:1011700008F09AFA012407A807F046FB02A807F036
:1011800043FB20460CB0BDE8F08100BF8B3F02005E
:10119000214C0200903F0200A63F0200D33F020014
:1011A000F33F02000A40020038B5FFF771FF002448
:1011B00005460021224601F0B3FA284601212246C5
:1011C00001F0AEFA28460221224601F0A9FA0120D8
:1011D00038BD000038B5064C236833B91420FFF73A
:1011E00053F8054606F084FF2560206838BD00BF2F
:1011F00054C1072008B54FF0FF320846094908F0EE
:101200001DFAFFF7E7FF06F065FF4FF4FA6009F0FB
:101210007BFB4FF080430020AA221A721870012035
:1012200008BD00BF2140020073B50C4614490546B5
:1012300007F096FC50B1FFF7CDFF06F04BFF2046BC
:1012400010494FF0FF3208F0F9F916E0FFF7C2FF3E
:101250000646284607F086FC40F2051301460A4A76
:1012600000933046094B07F01DF8284607F07AFC3A
:1012700007490246204608F017FA01207CBD00BF4E
:10128000324002003840020051400200C4390200DE
:101290008440020070B58AB005460C4607F0C6FAD5
:1012A0000B2803DD20461B490C222DE0284607F0C1
:1012B00059FC01220146684605F01AFD06462846FB
:1012C000EEB907F04FFC144B0168196042681349EE
:1012D0005A608068986043F8041C039A10492046BD
:1012E00008F0E2F9684605F079FF4FF47A7009F0EA
:1012F0000BFB4FF08043AA221A721E7006E007F023
:1013000031FC08490246204608F0CEF901200AB017
:1013100070BD00BFA6400200484002400DD0ADDEC7
:10132000CD4002001541020070B5414EA6B03368B1
:101330000546DB070C460CD430460AF067FA40B18C
:101340004FF480600CF036FC3A49086030460AF0F1
:101350006BFA2846384907F027FB064620B30021E0
:10136000802206A80CF0C0FC002105A8049105917C
:101370000090324906AA04AB284607F060FA2D4ACD
:10138000049B116806A8059A13B903F0ADFC01E0AF
:1013900003F0CBFC2A4A2B490346002B08BF114619
:1013A000204608F081F932E02846274907F0FCFA88
:1013B00000283BD0284604AA244905AB049605968C
:1013C0008DF80F6007F03BFA049D05982A18B2F5D6
:1013D000806F0DDD20461E494FF4806210E01548F5
:1013E0009DF80F10026851559DF90F300135F61820
:1013F000049B0598E91A814205DB164920463246CE
:1014000008F052F903E0B5F5806F02DBF5E7012043
:101410000CE02268204613680DF10F014FF4FA62C8
:1014200098470028DBD120460B49BAE726B070BDAB
:1014300064C1072060C1072040410200474102000B
:101440002A4102002E410200574102005E41020083
:10145000684102009C4102008C41020030B50C46FC
:1014600087B00B49054608F01FF9A17AE07A009190
:10147000E188019002912089A188039004916288FB
:1014800023882846034908F00FF907B030BD00BF94
:10149000AD410200E34102001FB501A80C4602F075
:1014A000A1FE02F08FFB01A902462046FFF7D6FFFE
:1014B000012004B010BD0000F0B58DB003AB0025D5
:1014C00000930C4617463849022202AB0295039559
:1014D00007F0C2F9A84239DD02980CF023FAC6B22F
:1014E000039818B10DF0CBFAC5B200E0054604A888
:1014F000002103F009FA30B120462C494FF0FF32A9
:1015000008F09CF8F3E7003718BF0127022000908D
:1015100039463046039A2B4602F086FC10B9204625
:1015200023490EE0002F3CD004A84FF47A7103F059
:10153000F5F9002830D09DF81010B1422CD107E009
:101540001C494FF0FF3208F079F82AE0284629E0DC
:101550009DF817200C2A04D1204606A93246FFF731
:101560007DFF2046002DEBD1134908F09DF89DF832
:1015700017309D420BDA20680CA94A19436812F90A
:10158000181C20464FF0FF3298470135EFE7204600
:101590000A4908F089F804E020460949029A08F04F
:1015A00083F801200DB0F0BD214C02000142020081
:1015B000234202005F4202004B4202006D490200DA
:1015C0007C42020038B50D4607F0CEFA0446C0B2A0
:1015D00002F0ECFA054A064B0649002808BF1346FC
:1015E0002846224608F060F8012038BDA2420200D9
:1015F000333D0200A942020030B58BB00AAA4FF475
:101600007A730C4642F8243D174907F018F9002573
:1016100002A8019903F078F9E0B1204613499DF83A
:10162000082008F041F800259DF80F0085420BDAEC
:1016300023680AA94A1912F9181C5B6820464FF062
:10164000FF3298470135EFE72046094908F02CF8AA
:101650000125DDE72DB9204606494FF0FF3207F09E
:10166000EDFF01200BB030BD65410200C042020019
:1016700040530200D742020037B50C4602F018FC76
:1016800016490546204608F00FF8154920462A4617
:1016900008F00AF82046114908F006F8DDB11149B2
:1016A000204608F001F820460C4907F0FDFF002015
:1016B000451CEDB202F0E6FB48B181780278437830
:1016C00000912046084907F0EFFF2846F0E7204642
:1016D000024907F0E9FF01203EBD00BFE8420200D9
:1016E000034302001D4302003843020038B5064C94
:1016F000236833B94C20FEF7C7FD054607F048FDC7
:101700002560206838BD00BF68C107202DE9F04F73
:10171000ADF5757D8022044634AF894614A80021BA
:101720000CF0E2FA0021802238460CF0DDFA03AE1C
:101730000023336020460096714914AA3B4607F007
:101740007EF8032801D00020D5E00AA814A90122C0
:1017500005F0CEFA05460028F5D1FFF7C7FF04468D
:10176000306854A984F84700802205A88DF80B50F2
:10177000049507F035F800974846624914AA336883
:1017800007F092FFA8460AA874A94FF4007204ABB0
:1017900005F07AFB38B10AA805F020FD05A807F08E
:1017A00033F80120A7E004990029F4D06F1C5649B2
:1017B000049A204607F078FF226820469668B047D2
:1017C00000267D1EB246049B20689E420DD20DF578
:1017D000E87B1BF9061043684FF0FF32204698471C
:1017E00016F90B1001368A44EDE7816820468847D8
:1017F00005A807F0B7F9064605A807F01AF84FF450
:101800007A7302463146204607F026FF0121202246
:1018100005A807F052F905A807F0A6F950451FD012
:1018200005A807F0A1F9394903465246484607F092
:101830003BFF3749204607F037FF20688168204684
:1018400088472268204613680DF10B014FF47A7225
:1018500098470028F5D1781C022F9CD80746A6E7A8
:10186000049A2C490092434634AA204607F01CFFF4
:1018700026682046B368984705A807F073F906461E
:1018800005A806F0D6FF314602464FF47A7320468B
:1018900007F0E2FE05A8204907F05CF8D0B905A8DA
:1018A00007F060F91D490246484607F0FDFE184959
:1018B000204607F0F9FE216820468A689047236891
:1018C00020461B680DF10B014FF47A7298470028EF
:1018D000F5D1C0E705A8124907F042FA049811496A
:1018E0008044424648460D9B07F0DEFE002D3FF443
:1018F0004AAF013D47E70DF5757DBDE8F08F00BFAC
:101900005343020062430200794302008B4302000A
:1019100040530200B2430200C8430200CB4302001E
:1019200041530200034402002DE9F04186B006AAAB
:101930000026074642F80C6D0D463C4906F07FFF35
:1019400038460121202207F0B8F8039B002B63D012
:10195000384606F06BFF00285ED0FFF7C7FE8DF813
:101960000B60044620680DF10B0106680522204635
:10197000B04706460028F5D10399384684F8471049
:1019800007F0F0F84FF0FF320146204607F056FE10
:10199000226820469768B847254B05961868374651
:1019A0000490216820460B684FF47A720DF10B0108
:1019B000984770B105A8411C03220CF07BF99DF8F3
:1019C0000B8005A804A904228DF817800CF05AF9A1
:1019D00038B91821B7FBF1F301FB13726AB1013377
:1019E0000BE028684FFA88F1436801222846013746
:1019F00098470028D5D10136D3E728460D493A4605
:101A000007F052FE76B1612000900B49284632461D
:101A10000A4B07F049FE05E0284609494FF0FF321E
:101A200007F00CFE012006B0BDE8F0816541020020
:101A3000A94102000F44020036440200EF440200B4
:101A40002B45020043682DE9F041994204460D46BA
:101A500017D3C06889000CF0A5FDA668E060B70048
:101A6000AE420DD21020FEF70FFC0021102280465E
:101A70000CF03AF9E068013640F807800437EFE7E8
:101A80006560BDE8F08100002DE9F743304D074661
:101A90002C688946002C49D12420FEF7F5FB04234D
:101AA000064680E818008460C46008214FF00108F1
:101AB000FFF7C8FF86F8208030462649264A274B84
:101AC00000942E6006F014F928682549254A264B13
:101AD000009406F00DF928682449254A254B009406
:101AE00006F006F928682449244A254B009406F09C
:101AF000FFF828682349244A244B009406F0F8F89C
:101B000028682349234A244BCDF8008006F0F0F8DA
:101B100028681F49214A224B009406F0E9F80094F6
:101B200028682049204A214B06F0E2F8384620492F
:101B300007F016F818B138461E4907F011F9044BA2
:101B4000394618684A4603B0BDE8F04306F0A0B92C
:101B50006CC1072029190100574502005E450200AB
:101B60000D17010098450200A1450200F91501007A
:101B7000F5450200F8450200C5150100F8490200CC
:101B80001B4602007916010061460200454602002C
:101B9000B9140100AA46020068460200A9460200E4
:101BA000AE46020099140100EE460200D346020040
:101BB00041530200F446020037B590F90450144630
:101BC00000934AB223462946006807F044FE3EBD12
:101BD00010B5044694F904102D220823006807F07C
:101BE0002FFE206894F904103122082307F028FE04
:101BF000012010BD10B504462246084606233221B6
:101C0000FFF7DAFF204610BD08B5034693F904102C
:101C100020220F23006807F013FE012008BD38B50D
:101C200004460D460846224628210123FFF7C4FF3B
:101C300028462921621C0123FFF7BEFF28462A21DE
:101C4000A21C0123FFF7B8FF28462B21E21C012329
:101C5000FFF7B2FF28462C21221D0123FFF7ACFF1E
:101C600028462D21621D0123FFF7A6FF204638BD1F
:101C7000014B0360704700BF084702000120704716
:101C80000120704701207047014B0360704700BF7F
:101C900008470200034B10B504460360FEF7F8FA4C
:101CA000204610BD08470200034B10B504460360F0
:101CB000FEF7EEFA204610BD0847020000000000C3
:101CC00010B5084611460BF021F820F000400AF04C
:101CD000BBFC0DA3D3E900230AF058FB02460B46D8
:101CE0000BA1D1E900010AF02DFE0AF0BBFF4FF075
:101CF0007C5104460BF0B2FA08B14FF07C542046F8
:101D000010BD00BFAFF300801F85EB51B81ED53F5B
:101D1000000000A09999D93F70B5D0F88C500446C6
:101D20001C4925F000400BF0B7FA78B128460AF0BC
:101D30008BFC02460B4618480CF092FBD4F8A80026
:101D40000AF082FC02460B4614481CE0D4F890606E
:101D5000104926F000400BF09FFA054630B130469E
:101D60000AF072FC02460B460D480CE0D4F898408D
:101D70000C4920460BF090FA48B120460AF064FC6A
:101D8000024609480B460CF06BFB012070BD28464B
:101D900070BD00BFF628DC3E584702007C470200B9
:101DA0008A47020000004041AE470200014600227F
:101DB000D0F884008C31134608F0FDB938B5FFF730
:101DC00067F9002405460121224600F0A9FC2846B7
:101DD0000021224600F0A4FC284602212246BDE84C
:101DE000384000F09DBC00002DE9F74F0446FFF796
:101DF0004FF90546D4F89C000AF026FC90A3D3E9DD
:101E000000230AF075FC00228F4B0AF09BFD002294
:101E10008E4B0AF097FD0AF025FF8446D4F8A00007
:101E2000CDF804C00AF010FC85A3D3E900230AF022
:101E30005FFC0022844B0AF085FD0022834B0AF0F0
:101E400081FD0AF00FFF8346D4F8A4000AF0FCFBE2
:101E50007BA3D3E900230AF04BFC00227A4B0AF063
:101E600071FD7A4B00220AF06DFD0AF0FBFED4F8FA
:101E70008C60774A314682462046FFF721FF74493D
:101E8000074630460AF042FF394600F100400BF0A9
:101E9000FBF8704BD4F8906018606F4A804631466A
:101EA0002046FFF70DFF6D49814630460AF030FFAE
:101EB00049460BF0E9F86A4FD4F894900022386054
:101EC00049462046FFF7FCFE014609F100400BF0B1
:101ED000DBF8644EDDF804C0306061464246624B78
:101EE00004F1340000F09FFB3A68804659465E4B8F
:101EF00004F14800CDF8048000F095FB326880467C
:101F00005146594B04F15C0000F08DFB564BD4F860
:101F1000BC208146D4F8981004F1700000F083FBD7
:101F2000DDF804C00746514960460AF0F9FF504900
:101F3000064638460AF0F4FF4E490746C4F8C0008A
:101F400048460AF0EDFF4C49086006F100404FF0AA
:101F500082410AF0DBFE494A4449106030460AF0EB
:101F6000D7FE064646484149066040460AF0D8FF7B
:101F7000014644480AF0CAFE434B314618603846D1
:101F80000AF0C6FE414906460BF068F930B9304602
:101F90003F490BF081F910B13D4E00E03B4E324617
:101FA0002846012100F0BCFB3449D4F8C000096880
:101FB0000AF0AEFE354906460BF050F930B930460E
:101FC00033490BF069F910B1314E00E02F4E28462D
:101FD0000021324600F0A4FBD4F8C0002A4C21684E
:101FE0000AF096FE294904460BF038F930B920462C
:101FF00027490BF051F910B1254C00E0234C224643
:102000002846022100F08CFB1B4A224910680AF086
:102010007FFE002104460BF021F930B920461E490D
:102020000BF03AF910B11C4C00E0002428460321C3
:10203000224603B0BDE8F04F00F072BBAFF3008062
:10204000182D4454FB2109400080664000408F4019
:102050005839343D70C107200AD723BD0AD7233D24
:1020600088C107207CC107200AD7A33C0000A040FC
:10207000000070410000FA4384C1072074C10720AA
:1020800078C107200000404180C1072000001041B6
:1020900000008C42000038420000C842AFF30080CC
:1020A000D0F8B43010B5591C0446C0F8B410FFF78E
:1020B0007DFED4F8B400B0F5FA7FCCBF002001203B
:1020C00084F88900D0B994F88820BAB92046FFF77F
:1020D00023FE84F8880048B9D4F8B43040F6C9012A
:1020E0008B4207DC2046FFF77FFE07E02046FFF724
:1020F00065FE03E00020C4F8BC00F3E7012010BD3A
:10210000F8B50546FEF7C4FF002614230446EB612C
:10211000314685F8886085F88960C5F8B46000F0BC
:10212000D5FA0121204600F0D1FA0221204600F024
:10213000CDFA0321204600F0C9FA104900274FF0DC
:102140007E50C5F8B800C5F8BC10204631463A4666
:10215000C5F8C07000F0E4FA204601213A4600F0CC
:10216000DFFA204602213A4600F0DAFA204603213F
:10217000034A00F0D5FA0120F8BD00BF0000C040BE
:1021800000003442014B0360704700BF0847020063
:10219000034B10B504460360FEF77AF8204610BDE5
:1021A00008470200000000002DE9F347B84D04463F
:1021B000AB6943F40020A8610A2006F0ECFDE96950
:1021C000684641F40022EA61216EFFF713FD009E8C
:1021D000BDF80470616EA666A4F86C706846FFF7DF
:1021E0001EFD009DBDF80430C4F86E50A4F8723096
:1021F000B4F96E000AF040FE8246A064B4F97000A3
:102200000AF03AFEB4F972808146E06440460AF072
:1022100033FE20650746B4F9680000010AF02CFE81
:10222000B4F86A60606531B208010AF025FEB4F8BE
:102230006C50A0652AB210010AF01EFEE0655046FF
:102240000AF002FA0022934B0AF07CFB0022924B28
:102250000AF078FB8AA3D3E900230AF049FA0AF0CE
:1022600001FD8E490AF05CFE0146A06B0AF050FDAC
:10227000A06348460AF0E8F90022864B0AF062FBA8
:102280000022854B0AF05EFB7DA3D3E900230AF010
:102290002FFA0AF0E7FC81490AF042FE0146E06BA2
:1022A0000AF036FDE06340460AF0BCF921F0004335
:1022B000194600227A4B0AF0ABFCC8B138460AF046
:1022C000C3F90022734B0AF03DFB0022724B0AF067
:1022D00039FB6BA3D3E900230AF00AFA0AF0C2FC27
:1022E0006E490AF01DFE0146206C0AF011FD2064C3
:1022F0006C4F38680AF0A8F963A3D3E900230AF009
:10230000F7F90022684B0AF01DFB0AF0ABFCD4F889
:10231000A01007460AF0FAFC644920F000400AF0D9
:102320009DFF10B1C4F8A070676430B20AF07AF96A
:10233000064628B20F460AF075F902460B463046AB
:10234000394609F04BFD0AF08DFC6067B4F968006E
:102350000AF068F90546B4F96C000E460AF062F915
:1023600002460B462846314609F038FD0AF07AFC51
:10237000A0670546B4F968000AF054F90746B4F9B5
:102380006A0021F000460AF04DF9844621F0004E23
:10239000624673463846314609F0F8FF0646B4F9FE
:1023A0006C000F460AF03EF9024621F00043304629
:1023B000394609F0EBFF0AF035FCA4F89C007E38A2
:1023C00081B2B1F5BB7F4FD2B4F96E000AF054FD73
:1023D0000AF03AF900222F4B0AF0B4FA00222E4BF1
:1023E0000AF0B0FA26A3D3E900230AF081F90AF033
:1023F00039FC2A490AF094FDA16B0AF089FC2C49AA
:102400000AF08EFD2B490646606F0AF089FD0146F1
:1024100030460AF07DFCA063B4F970000AF02CFD90
:102420000AF012F900221B4B0AF08CFA00221A4B18
:102430000AF088FA12A3D3E900230AF059F90AF046
:1024400011FC16490AF06CFDE16B0AF061FC1849B9
:102450000AF066FD1749064628460AF061FD014666
:1024600030460AF055FCE0630022606B04F138014D
:10247000134607F0CFFD0120BDE8FC87AFF30080D5
:102480004AD8124DFB210940B81E85EB51B8BE3F1A
:1024900020C0092000408F40008066400AD7A33B3F
:1024A00000406F4094C1072000806240000040401F
:1024B00048E17A3F0AD7A33C38B51A4C63685A0002
:1024C00011D51948416801F001024260E36843F008
:1024D0008040E060216901F080422261636943F03D
:1024E0008040606138BDA068430019D50E4DA868D2
:1024F0000AF0BEFCE2680D4942F080430860E360E8
:10250000686840F0010169606A6842F002036B602C
:10251000606900F080416161226942F0804323617B
:1025200038BD00BF808002400040094094C10720B0
:1025300038307047052370B50446C3610020A0639E
:10254000E0632064606428210022012007F031FD4F
:102550002B496063D1F8C42042F40006C1F8C4607E
:10256000D1F8AC3103F48040C1F8AC01A1F5D02121
:102570004A6842F001064E604B6843F00200486032
:10258000A1F5D021CA681F4B02F0C006CE601868C2
:102590001D4E40F4002119601C4A1E20002106F047
:1025A0002DFD33684FF08042C4F8A0204BB90820BD
:1025B000FDF76AFE0546FEF7F7FB2860A7202871A5
:1025C00035601149124E0A68336822664BB90820FB
:1025D000FDF75AFE0546FEF7E7FB2860D320287179
:1025E00035600B49206E0A686266FFF7F1FA28B180
:1025F000606EFFF709FB08B1012070BD002070BDBF
:1026000000C00F4020C009208CC10720B924010060
:1026100090C107208360002310B50160044642602A
:10262000C360036110BD2DE9F041044610461E460B
:102630000AF06CFB314605460AF072FCE1680AF0CC
:1026400067FB21680746E06028460AF069FC61687C
:10265000804638460AF064FC014640460AF058FBC2
:102660002169074628460AF051FB31460AF00CFD65
:10267000A1680AF055FC014638460AF049FB25617D
:10268000BDE8F08170B500260546066001210620F0
:102690000D4C08F0FFFD0121062008F013FE022377
:1026A000FF2263602260636108F084FF3221B0FB87
:1026B000F1F00923A0616360A660226F284622F032
:1026C0000F01216770BD00BF00800140026805292D
:1026D00030B542F0010202D90260002030BD012372
:1026E0004C1C03FA04F52A43026001FA03F00324A8
:1026F00004FA00F403FA00F0093103FA01F1074A81
:10270000156925EA04041461146920431061A2F5D7
:10271000A032D06C0143D164184630BD00C00240E5
:10272000F8B517460C46054608F044FF0AF0A0FB32
:102730001349064638460AF0A7FC12490AF0F0FB96
:1027400010490AF0E5FA014630460AF0E9FB0AF0C2
:10275000D3FD0D4B052C0FD8DFE804F00305070966
:102760000B0DD86108E0186206E0586204E01864B6
:1027700002E0586400E098642A681A65F8BD00BF5A
:102780000000C8426F12833A0080014038B50D4600
:10279000044608F00FFF074B0221B0FBF3F0B0FB3B
:1027A000F1F2954201D3216138BDB1F5807FFAD0B5
:1027B0000231F4E740420F0001480BF069BE00BF50
:1027C000304802007FB500F235260D460122314621
:1027D00004F03EFAC4B24CBB04A941F8044D3046A3
:1027E00002AA04F01FFEF8B9029A0399946993783B
:1027F000A21E5A435943540840F2E73348089C420A
:102800000F49104B8CBF4FF48062012288BF0B46EA
:10281000B0FBF2F18DE80A000B482946B4FBF2F256
:102820000BF01EFE012008E0084B00E0084B0948B1
:10283000294662B20BF014FE002004B070BD00BF48
:102840006A48020067480200744802006D480200AE
:1028500071480200A248020038B5AA224FF0804316
:1028600055201A72187208F01BFA174C02284FF004
:1028700000014FF00100D4E9002317D1121843EBF7
:102880000103C4E9002308F0A7FDD8B108F096FDC4
:10289000D4E900010A2200230AF04EFD0A25A0FB1C
:1028A000052305FB0133C4E9002338BD121843EBAF
:1028B0000103C4E9002302F03BF80020BDE83840E2
:1028C00008F0D2BB38BD00BFA8C10720FFF7C4BFC6
:1028D000024BD3E90023104619467047A8C10720D0
:1028E00038B5084D2B684BB90820FDF7CDFC0446E0
:1028F000FEF75AFA2060402020712C6001490868D8
:1029000038BD00BF9CC1072038B5054C256825B9E6
:102910000120FDF7B9FC05702060206838BD00BFBC
:1029200098C10720664A674970B54023664D4FF04D
:1029300000704FF480348B6190618C612E68ADF52E
:10294000047D26F0F0032B60286840F050042C60D2
:102950002E6826F440532B60086840F040040C6059
:102960002E6826F47C232B60286840F428242C60F1
:102970002E6826F470032B60286840F420042C6035
:102980002E6826F040432B60286840F000442C60FD
:102990006E6826F03C036B60686840F028046C6049
:1029A0006E6826F003036B60086840F480340C60A6
:1029B0006E6826F440536B60086820F480040C6055
:1029C000E96821F44036EE60136843F080701060CF
:1029D0006C6824F4402169606E683C4C46F48023A6
:1029E0006B60A8680440AC60116841F4897646F0D9
:1029F00001031360A86820F47014AC60A96821F08A
:102A00007046AE60136823F446401060EC6824F012
:102A10003001E960EE6846F03003EB60E86820F4CE
:102A20007014EC60156845F000711160166826F0AE
:102A30008063136008F0A6FA4FF4FA6006F0C7F955
:102A4000FFF7BAFE08F0B6FD0AF012FA20490AF0C4
:102A50001BFB09F0F9FD02460B461E480BF000FD7A
:102A600008F006FB042811D100221B4805920568D6
:102A70001A4E04AC0495FFF79FFEF16C1848326DB6
:102A8000736D00940BF0ECFCFFF796FE0C20012117
:102A900008F000FC134C0C20032108F013FC4FF449
:102AA0000011216008F086FD0223C0080E4AB0FB29
:102AB000F3F595421AD8266846EA0321216019E009
:102AC00020C0092000C0092000C00240F0FCFCFF2B
:102AD00000247449E04802004440024000400240A3
:102AE000F8480200004003403F5DC6000233B3F5E2
:102AF000807FDBD10A20012108F0CCFB0A200121D4
:102B000008F0E0FB9B480725022405600121446092
:102B1000FFF73CFE06F020FC1520012108F0BAFB6F
:102B20001520012108F0CEFB934801210560446087
:102B3000FFF72CFEFEF738F9642106F065FA10B9AC
:102B40008E480BF0A5FC01F0B9FE10B98C480BF0D3
:102B50009FFC01218B4808F005FCFDF7ADFC8A497C
:102B6000FFF730FE0646B8B988480BF079FCFDF750
:102B7000A3FC3146324600F2352004F059FE844B66
:102B8000844A002814BF104618460BF081FCFDF75C
:102B900093FC7D49FFF716FE7F4C206810F001057D
:102BA00017D1204608F032FE98B14FF40E70FDF7B1
:102BB0006BFB7A4A012131263A2380F8341280F8DF
:102BC000356280F8363280F837521060204608F0BF
:102BD0002BFE724C72492068FFF7F4FD18216548FE
:102BE000FFF7D4FDFFF7E8FDFFF78EFE002101F0AF
:102BF0008FFFFFF775FE6B4D0646286858B90C200D
:102C0000FDF742FB0446FEF7CFF890210023206039
:102C10002171A3602C60634A106801F0C9FF0AF0BB
:102C200045FB41B2304601F053FF00235E4804A942
:102C300007220493059302F036F8A8B904A80AF015
:102C400071FEC6B2751EE8B2FD2805D904A9564A20
:102C500056480BF005FC07E055483146524A0BF048
:102C6000FFFB304600F0A2FF524C216819B9012049
:102C7000FDF70AFB2060206801F072FF0646002085
:102C80000DF018F930180BF021FC4FF40072002100
:102C900004A80BF029F804A808F048FB04A946484A
:102CA0000BF0DEFBFFF788FD8022002104A80BF06B
:102CB0001BF804A802F07AFE9DF91020531C05D0E1
:102CC00004A9D2B23D480BF0CBFB2FE03C4D2B6862
:102CD0001BB90120FDF7D8FA2860286801F042FFEF
:102CE00009281DD137480BF0D3FB04A936480BF057
:102CF00021FD04A935480BF0B3FB35480BF0C8FBA8
:102D00000020039003A933480BF014FD9DF90C40FB
:102D1000592C03D104A802F02BFE07E02E4803E053
:102D20002E480BF0B5FB2E480BF0B2FB4FF208011A
:102D30000E684A684FF20403B50A960A4FF47042CF
:102D40008C681268196827480BF08AFB2A463146BE
:102D500025480BF085FB214624480BF081FBFFF74B
:102D60002BFD23480BF094FBFFF726FD0DF5047DAA
:102D700070BD00BF000003400080084070490200A1
:102D8000A149020059280100C6490200CE490200AB
:102D9000D5480200DA48020058C107205CC107206C
:102DA000623D020048C10720F7490200FD490200C8
:102DB000284A020050C10720855A0200554A0200E5
:102DC000A0C10720714A0200934A0200984A0200FB
:102DD000B34A0200F64A0200FA4A0200124B02000D
:102DE000404B0200724B02009E4B0200CB4B020094
:102DF000E84B020001207047F8B591E860000F7AB7
:102E000014468FB1082A0FD1304605F00FFD002877
:102E10001BDD28460E494FF0FF3206F0FBFB304623
:102E2000012105F00AFE08E00A2C05D00D2C03D084
:102E30003046214605F0F0FE4FB12B6828465B680E
:102E400021464FF0FF329847F8BD0724F5E7F8BD5B
:102E5000204C02002DE9FF41CE6B04460D4601AF28
:102E60005EB94FF47A7007F04FFD31460C223846B8
:102E70000AF03AFF97E807005EE00B6C01F13406B8
:102E8000186807C887E8070000278DF80370EA6B09
:102E900097422DD2F368511E53F827008F420CBF82
:102EA0000522002200684FEA87080179002949D0ED
:102EB00003680DF103011B689847002842D0B268EF
:102EC000974241D2F16851F8080001AB07C883E886
:102ED000070019469DF903202846FFF78DFFFFF7ED
:102EE000F7FCD5E92223121843EB0103C5E920239F
:102EF000029805F09BFC0746029805F09AFC421EDA
:102F0000974216DAD5E92201014320D0FFF7E0FC11
:102F1000D5E92023994208BF904218D3FFF7D8FC87
:102F2000D5E92223121843EB0103C5E9202300232E
:102F3000019304A810E9070084E80700204604B0C4
:102F4000BDE8F0810137A2E706F11000BDE79DF969
:102F500003100A29EDD0002799E70000F0B50546D7
:102F600085B020480BF07CFA01A82946FFF772FFD4
:102F7000019C1CB91C480BF08BFA30E0029E3046D5
:102F800005F054FC00282ADDFFF7A2FC0746F8B143
:102F9000B5F874303146581CA5F87400224605F186
:102FA000500004F075FF114900250A68009223685B
:102FB0001DF905105B6820464FF0FF320135984738
:102FC000042DF4D1FFF784FCC11B09480BF048FA2B
:102FD000304605F030FC2068816820468847012093
:102FE00005B0F0BD234C020041530200FC4B02002F
:102FF000294C020038B5064C236833B92020FDF770
:1030000043F9054606F06CFA2560206838BD00BF1C
:103010003CC1072010B50446FFF7ECFF03682146CA
:103020005B684FF0FF32984740B210BD13B50023E4
:1030300002AC04F8013DFFF7DDFF01684FF0FF32FD
:103040000B68214698479DF907001CBD38B5054619
:1030500000246B68E8689C4205D250F82400FDF714
:1030600017F90134F5E708B1FDF714F9284638BD22
:103070000D4B70B5044640F8503BFFF7E7FF04F1F5
:10308000340600257068854206D2F26852F82500A1
:10309000FDF7FEF80135F5E7206C08B1FDF7FAF809
:1030A00002492046216070BD084C0200084702001A
:1030B00010B50446FFF7DCFF2046FDF7E9F820468F
:1030C00010BDF8B54368044699420D4615D3C06853
:1030D00089000BF067FAA668E060B700AE420BD239
:1030E0000C20FDF7D1F8E268002101604160017217
:1030F0000136D0510437F1E76560F8BD2DE9F041A4
:103100000446142016468846FDF7BEF8802107467F
:1031100005F095FDA36BE26B9A4205D3616B04F158
:1031200034005918FFF7CDFFE56B206C50F82530BF
:103130000135C3F800805F601E72E563BDE8F08171
:103140002DE9F04100F150048AB0002506460095B3
:1031500020466249624A634B04F0CAFD009520464E
:103160006149624A624B04F0C3FD00952046614903
:10317000614A624B04F0BCFD009520466049614AFB
:10318000614B04F0B5FD009520466049604A614BF3
:1031900004F0AEFD009520465F49604A604B04F0A4
:1031A000A7FD009520465F495F4A604B04F0A0FDF3
:1031B000009520465E495F4A5F4B04F099FD0095FB
:1031C00020465E495E4A5F4B04F092FD0095204622
:1031D0005D495E4A5E4B04F08BFD009520465D49DB
:1031E0005D4A5E4B04F084FD009520465C495D4AD3
:1031F0005D4B04F07DFD009520465C495C4A5D4BCB
:1032000004F076FD009520465B495C4A5C4B04F077
:103210006FFD009520465B495B4A5C4B04F068FDFE
:10322000009520465A495B4A5B4B04F061FD0095CE
:1032300020465A495A4A5B4B04F05AFD00952046F5
:1032400059495A4A5A4B04F053FD009520465949B2
:10325000594A5A4B04F04CFD009520465849594AAA
:10326000594B04F045FD009520465849584A594BA2
:1032700004F03EFD009520465749584A584B04F04B
:1032800037FDFFF7B7FE4FF4806320224FF416415D
:10329000054606F003F9012780462F715148FDF7D6
:1032A0005DF85148FDF754F8304629463A46FFF795
:1032B00025FF082203A905A805F092FA05A84B49A5
:1032C00005F04EFD05A92A46204604F0E1FD05A8BB
:1032D00005F09AFA40460AB0BDE8F0814D050100BC
:1032E000894C02003F4C020019060100764C020096
:1032F0007E4C0200F10E01009C4C02008E4C02003C
:103300003D060100E44C0200A34C020081070100CD
:10331000E94C0200ED4C0200010701008C4D020057
:10332000494D0200890B01008B4D02008F4D0200B8
:1033300061080100DA4D0200DD4D0200090A0100BA
:103340000B4E0200114E0200810A0100364E0200AF
:10335000394E0200DD0A01009E670200664E02003F
:10336000450A01008B4E02008E4E0200C90D01007D
:10337000B14E0200B54E0200C10C01005C4F0200CC
:10338000644F0200F5110100A74F0200AE4F02008A
:1033900029120100C14F0200C54F0200750D010046
:1033A000FB4F020001500200891A0100BD490200D2
:1033B00029500200B1100100535002005A5002007F
:1033C000A91101007C500200815002002913010064
:1033D000855102009150020095120100A53D0200A6
:1033E0004E5102002D30010015300100F44602005C
:1033F00073B500244FF480520B46009418490646DA
:1034000005F0C2F9174B042533607563B463F463A8
:10341000346406F134000221FFF753FE356574650C
:10342000B465F46506F150001821FEF70BFBA6F811
:103430007440A6F87640B4670B4C002200230025A8
:10344000012086F87000C6E92023C6E92245FFF76F
:103450003FFA001941EB0501C6E9200130467CBD69
:103460008A510200084C0200C0D401002DE9F0414D
:10347000804690B066480BF00BF804A8D8F86010AE
:10348000FEF7B8FBBDF9100009F0CCF80022614B43
:1034900009F02EF90022604B09F054FA04460D465B
:1034A00006A8D8F86010FEF7A5FBBDF91A0009F0D0
:1034B000B9F80022574B09F01BF90022564B09F0CE
:1034C00041FA06460F4608A8D8F86010FEF792FBAE
:1034D000BDF92400CDE9006709F0A4F800224D4BA6
:1034E00009F006F900224C4B09F02CFA22462B4633
:1034F000CDE9020149480AF0B3FF0AA8D8F86410E0
:10350000FEF78DFB0CA8D8F86410BDF92860FEF713
:1035100086FBBDF932700EA8D8F86410FEF77FFB69
:103520003A46BDF93C3031463D480AF099FF4046E5
:10353000FEF7FEFF006809F087F802460B4639489F
:103540000AF08EFF4046FEF7F3FF406809F07CF872
:1035500002460B4634480AF083FF4046FEF7E8FF78
:10356000806809F071F802460B4630480AF078FF8F
:103570004046FEF7DDFFC06809F066F802460B46DC
:103580002B480AF06DFF2B4B2B4C186809F05CF8A8
:1035900002460B4629480AF063FF2948294D006876
:1035A00009F052F802460B4627480AF059FF27490E
:1035B000274E086809F048F802460B4625480AF0ED
:1035C0004FFF254A106809F03FF802460B46234892
:1035D0000AF046FF206809F037F802460B462048FB
:1035E0000AF03EFF286809F02FF802460B461D48F6
:1035F0000AF036FF306809F027F802460B461A48F1
:103600000AF02EFF4FF4FA7007F07EF932E700BFA0
:10361000474802000000104000408F40AF510200B8
:10362000D1510200EB510200FE5102001152020082
:103630002452020070C1072078C1072030520200D6
:1036400088C1072080C10720415202007CC10720A9
:1036500084C107205352020074C107206352020044
:103660007F5202009C520200B85202002DE9FF472F
:10367000A420FCF709FE002636494FF480520223AD
:103680000096054605F080F8334BC4202B60D5F832
:103690003490FCF7F9FD0123009630494FF4805235
:1036A000044605F071F82E494FF07A584FF07C57D8
:1036B00020464246434640F8341B3946FEF7AAFFEF
:1036C000DFF8B0A042464346DFF8AC80394604F14B
:1036D0004800FEF79FFF39465246434604F15C001E
:1036E000FEF798FF524643461E4904F17000FEF76C
:1036F00091FFC4F884909020FCF7C6FD0121074695
:10370000FFF776FE384605F001F8284604F0FEFF84
:10371000204604F0FBFF144801272B4601904FF48C
:1037200080520097029603961049114806F0A4FEB5
:103730003146384604F0FAFF2A682846536898470D
:10374000216820464A6890474FF0FF3004B0BDE83A
:10375000F08700BFC5530200F8470200D6530200AD
:10376000D84702009A99193EB0C10720E9530200D8
:103770006D340100CDCCCC3D6F12833B38B5074C86
:10378000236833B91C20FCF77FFD054605F072FC69
:10379000256022680248026038BD00BF4CC1072086
:1037A000B4C1072030B500238B420DD044783CB122
:1037B000048C4FF6FF751419AC4228BF2C460484C4
:1037C0000133DBB22430EFE730BD000037B50E49DE
:1037D000002302A84A6840F8043D042190470B4B9F
:1037E00005461C6801980421041B186022460848FD
:1037F000FFF7D8FF022107482246FFF7D3FF281C16
:1038000018BF01203EBD00BFB8C10720A0C20720DD
:10381000CCC10720A5C2072008B50B4B01781A7848
:103820000A4B914203D119880131198002E099882D
:10383000013199808270064A2021D3689847003070
:1038400018BF012008BD00BF05C0072074C20720B3
:10385000B8C107200A4B027819780A4B8A4203D173
:10386000DA88511CD98002E01A89511C1981037928
:10387000C3F3C202511E61F3C5030371FFF7CCBF4E
:1038800005C0072074C2072010B50023064A99001E
:1038900012F82340844201D1501810BD0133042B8B
:1038A000F4D1002010BD00BF8FC2072070B1C378D3
:1038B000591CCAB2FF2AC27008D100230448C2189A
:1038C000D17804334808102BD070F7D1704700BF6F
:1038D0008FC20720F0B503460246044600258D42FC
:1038E00007D02046243414F8236CC6B10135EDB25C
:1038F000F5E7002004468C4210D01579178CC5F3EB
:10390000C20547EA0545A842164624BF05461E469D
:103910000134E4B2243228463346ECE71846F0BDC1
:1039200038B501310446CD00FFF750FF1B4B20781E
:103930001A78824204D102211948FFF7CBFF0CE02C
:1039400004211848FFF7C6FFE17831B990F82350F9
:1039500045F0800380F82330042590F823100022DE
:1039600021F07F0380F8225043EA152580F82020BB
:1039700080F8212080F823502346024604F12001DC
:1039800053F8044B8B4242F8044BF9D1064A0379B1
:10399000117861F3C503037138BD00BF05C007206E
:1039A000A5C20720CCC1072004C0072010B5FFF72F
:1039B0006BFF044608BBFFF767FF0446E8B9104AEF
:1039C000D378D179994202D20B46111D00E01146FD
:1039D000D07AD47B984238BF0A490B4A38BF034695
:1039E0009C422CBF0C4614462046002104220AF0BB
:1039F0007BF9064BD97A481CD872204610BD00BF0F
:103A00008FC2072097C207209BC2072074C20720DD
:103A10002DE9F041054690460C460027474500F049
:103A2000BE8094F8233003F08000C1B269B3BDB109
:103A30002B786278934203D16878217888421ED02F
:103A4000E87868B16978914208D122789A4205D124
:103A5000A879A179421A5342534100E0002373B977
:103A600094F8232094F82210208C02F07F0341EA7E
:103A700003218842C0F28F802046FFF7CDFE20460A
:103A8000002124220AF030F985E06378002B00F051
:103A90008280002D3DD02A7902F0C000C0281AD1C2
:103AA0006A782178914202D128789842E7D0E0786C
:103AB000A978884210D1934209D120782A7890427F
:103AC00005D1A079AA79811A4842414100E000213C
:103AD0000029D4D100E0E0B1A978E278914218D170
:103AE0006878984209D121782A78914205D1A17944
:103AF000AA79881A4142484100E0002048B1227961
:103B0000002161F3C50284F8201084F8211022718D
:103B100041E094F8232094F82200218C02F07F02E7
:103B200040EA0220814236DB21790026C1F3C2023D
:103B300084F8206084F82160D6B21EB12046FFF7D9
:103B400089FE28E001F0C000C02818D0154920786F
:103B50000978884213D1E078984210D078B163791F
:103B6000E270032262F3071363712046FFF772FECF
:103B70000D482179037863F3C501217100E0012626
:103B80006078FFF781FE18B1002104220AF0ACF83A
:103B9000002E7FF474AF0137FFB224343EE7BDE856
:103BA000F08100BF05C0072004C00720431ED9B222
:103BB000FD2903D8024A1070012070470020704789
:103BC00005C00720014B1878704700BF05C00720CB
:103BD00007289CBF014B1870704700BF04C0072026
:103BE0002DE9F7430446914698469DF828600D4616
:103BF000002958D02F4B1F78B94254D0B8F10F0F7D
:103C000051D8002851D0202200210AF06DF8FF2D54
:103C1000207914BF09F00302002262F38710032108
:103C200061F30200244B20711A78277062F3C500FB
:103C300020712248A77001780BAF4B1CDAB20270DA
:103C4000A271657001970EB9012613E00198013E3B
:103C500003464268E07953F8081B8718FFB2182F13
:103C60000193F6B205D8083020180AF01AF8E77167
:103C7000E9E70026124F012128463970FFF704FEBC
:103C80000546FFF713FE00223A70637925B968F301
:103C900007136371E57009E0A87860F30713637197
:103CA0006978E17002E0002600E006463046BDE893
:103CB000FE8300BF05C0072004C0072082C2072082
:103CC00080C20720164B70B501261E70044608B945
:103CD00000251FE0FFF7A0FD05460028F8D0207959
:103CE00000F0C001402903D0B1F180025642564194
:103CF000C02906D1E3782BB16078C31A18BF01231D
:103D000000E000230EB9DB0704D5617920460909DC
:103D1000FFF706FE024B00221A70284670BD00BF56
:103D200080C2072082B0F0B51746421E0446D0B2CA
:103D30008DB0FD280D46139301D900205AE0002BC9
:103D4000FBD0159B002BF8D017990029F5D0169AB7
:103D5000002AF2D014980028EFD0002148222848E9
:103D600009F0C2FF00219022264809F0BDFF002182
:103D70001022254809F0B8FF244E00210C222448C7
:103D800009F0B2FF00210C22224809F0ADFF347087
:103D9000214C224E2570344613AD0FCD0FC42B6835
:103DA000002118221E48236009F09EFF3946172281
:103DB0001B480AF0A6FE0020B26801469047002882
:103DC000BBD09DF8601011B9FFF700FD12E0154857
:103DD0000622012301900292009304A8FF210022F1
:103DE000FFF7FEFE0028A8D004A8FFF76BFF00280D
:103DF000A3D0E9E70DB0BDE8F04002B0704700BFC6
:103E0000A5C20720CCC107208FC2072005C007200C
:103E100083C2072074C2072081C20720B8C10720CF
:103E20005CC20720F353020070B5182B8CB0064615
:103E30000D4617D81C1C18BF0124002A14BF2146A8
:103E400084F0010171B101920293009404A83146FB
:103E50002A469DF84030FFF7C3FE18B104A8FFF7CB
:103E600031FF00E000200CB070BD13B5044610789F
:103E700052790B461109009122460321FFF7D4FF26
:103E80001CBD000030B500231A4608499C0011F8FB
:103E900023502DB1904201D1081930BD0132D2B268
:103EA0000133042BF1D1002030BD00BF8FC20720A9
:103EB00000231846044A995C09B10130C0B20433AA
:103EC000102BF7D1704700BF8FC207202DE9F041BA
:103ED00088B068460021202209F006FFA14B1C781B
:103EE000002C40F03B81A0482021026968469047A1
:103EF000002800F087809D4D69884B1C6B80FFF780
:103F0000D7FFA8729DF8042002F00700032804D010
:103F100097490A7842F0010009E0964D9DF8021099
:103F20002D78A94205D192490B7843F00200087020
:103F3000E6E0C2F3C2019DF800709DF806005FFA4A
:103F400081FE032262438C4EB318B65CBE420AD196
:103F50005A78824207D19A789970B2EB0E0618BF50
:103F60000126012417E00134042CEAD1834C236894
:103F700099708149587001F1090083421F7040F027
:103F8000CC8021609DF800009DF80220824240F024
:103F9000C780002426469DF80200FFF707FD9DF824
:103FA0000210002C08BF012601709DF8022000219C
:103FB00042708170F6B2FFF779FC1EB39DF80000E5
:103FC000A84200F09C809DF80160FF2E1CD166483D
:103FD000202103686846984720B9654C227842F052
:103FE000040121709DF8053003F00F04601C1A468F
:103FF00060F30302B4EB131F8DF8052002DA684664
:10400000FFF70AFC00247BE0B5422CD16CB99DF887
:10401000070050B1544B68461A682021904720B9D8
:10402000534C217841F0040020709DF8043003F0D7
:10403000C002402A12D19DF8071011B9504818212A
:1040400008E04A480C216A46FFF70FFF002856D1C6
:10405000002001466A46FFF708FF50E09DF8034044
:10406000002C4CD1F4E7474C2378002BCAD09DF8A4
:10407000054004F00F082709B845C3DA3046FFF7BA
:1040800003FC9DF8032008F1010868F3030495423E
:104090008DF805401DD19DF8045005F0C004402C5A
:1040A00005D0B4F180014B4253EB010200E0012244
:1040B00008B1457800E00546C02C05D1AE4203D0DA
:1040C0002C1C18BF012400E0002444EA020530B98A
:1040D0000AE0A2B910B9684639460EE015464178A3
:1040E0008DF80310847802E08DF8030004466846DA
:1040F000FFF792FB1DB168462146FFF711FC6C46A5
:10410000FFF764FB204604221F49FFF781FC20468D
:104110001E490222FFF77CFC20E0DE1C266031E70E
:1041200085423FF436AFFFF741FC0446FFF7BEFB84
:1041300023783BB19DF80510A67801F00F00B0423E
:104140003FF727AF9DF8002022709DF80230637082
:104150009DF80510C1F30300A0701AE708B0BDE890
:10416000F08100BF80C20720B8C1072074C20720B9
:10417000A4C2072005C0072083C2072000C0072073
:104180005CC2072081C20720CCC10720A5C207203E
:1041900000231846094AD1184A780AB10130C0B242
:1041A0002433902BF6D1064B597809B1421CD0B27A
:1041B00093F825300BB10130C0B27047CCC1072055
:1041C000A5C2072008B5FFF75FFB054B20B180783B
:1041D0001978421CD00001E019781820484308BD26
:1041E00004C00720034A1168016051689268416069
:1041F0008260704774C2072030B5404C4FF4803560
:10420000E5613F4CA060E068C006FCD43C48806893
:10421000C0B2002B6CD00B46002A5CD0384C93F90E
:104220000050072AA56030DD93F90150083AA560D7
:1042300093F90250A56093F90350A56093F90450D7
:10424000A56093F90550A56093F90650A56093F910
:1042500007500833A5602A4CA5696D07FBD5A568F2
:104260000D70A5684D70A5688D70A468CC70244C45
:10427000E568ED06FBD4A5680D71A5684D71A568CC
:104280008D71A468CC710831C6E7032A18DD93F953
:104290000150043AA56093F90250A56093F90350C8
:1042A0000433A560164CE568ED06FBD4A5680D70D7
:1042B000A5684D70A5688D70A468CC700431ABE71B
:1042C0000133013AE56815F0100FFBD10C4CA468DE
:1042D00001F8014BA0E7094B4FF480329A6140B2DC
:1042E00030BDE56815F0100FFBD1054C0133A46813
:1042F0009342F0DACD56024CA560F2E700C00920E7
:104300000080084007B5002302A9012201F8013D01
:1043100000F01F001346FFF76FFF9DF907000EBD69
:1043200007B502AB03F8011D00F01F00194601227A
:10433000002340F02000FFF75FFF0EBD08B51720F7
:10434000FFF7E0FFC0F3001008BD07207021FFF762
:10435000E7BF03460A466FF05F0019460023FFF7E8
:104360004BBF08B50020FFF7CDFF20F0010149B297
:104370000020BDE80840FFF7D3BF0000024B4FF01C
:104380008072DA61704700BF20C0092008B50020A4
:10439000FFF7B8FF40F0010149B20020FFF7C0FF6E
:1043A000024B4FF080729A6108BD00BF20C0092007
:1043B00007202021FFF7B4BF00216FF01E000A463E
:1043C0000B46FFF719BF000037B505460C46FFF74F
:1043D000F3FF28462146FFF7BCFF0D4B4FF08072DC
:1043E00000209A61ADF80600BDF806104A1C93B291
:1043F000ADF8063033B906494FF08070C861FFF759
:10440000DBFF3EBDFFF79AFF0028EDD0F3E700BFCA
:1044100020C0092008B51720FFF774FF00F0010045
:1044200080F0010008BD07204021FFF779BF08B5E3
:1044300003460A46612019460123FFF7DDFEC0F35B
:10444000420008BD00216FF01D000A460B46FFF731
:10445000D3BE70B5044600200D461646FFF752FF46
:1044600014B100F0BF0102E040F04000C1B215B14C
:1044700001F0DF0201E041F0200216B102F0EF038B
:1044800001E042F01003002059B2BDE87040FFF790
:1044900047BF10B504460020FFF734FF14B900F001
:1044A000F7020DE0012C04D100F0FB0040F00802FF
:1044B00006E0022C14BF40F0080140F00C01CAB223
:1044C000002051B2BDE81040FFF72ABF08B5002018
:1044D000FFF718FF40F0020149B20020BDE8084094
:1044E000FFF71EBF08B50020FFF70CFF20F0020108
:1044F00049B20020BDE80840FFF712BF40F6DD13C7
:10450000984206D840F66211B0F5166F38BF0846DB
:1045100000E01846A0F1600251B20520FFF700BF8D
:1045200010B504460620FFF7EDFEFA2C00F0D70187
:1045300002D141F0200104E0B4F5FA6F08BF41F068
:104540000801062049B2BDE81040FFF7E9BE10B5EA
:1045500004460620FFF7D6FE032C34BF2146032174
:1045600000F0F90040EA410251B20620BDE81040D7
:10457000FFF7D6BEF9284FF0FA0305D9B0F57A6FE8
:1045800028BF4FF47A6000E01846B0FBF3F0421EFB
:10459000D3B20F2928BF0F2141EA0311042049B2E9
:1045A000FFF7BEBE1130C0B2162806D8202928BF9A
:1045B000202140B249B2FFF7B3BE7047032804D0B0
:1045C00004280CBF0221032100E001210320FFF792
:1045D000A7BE03460A46302019460023FFF70CBE4B
:1045E00003460A462A2019460023FFF705BE0000AD
:1045F00073B504460E461546FFF724FFFFF7DCFEB1
:104600002A4B4FF08072DA61FFF76CFF00210A46F7
:104610000120FFF71EFFFFF798FE0220FFF739FF8A
:104620003046FFF76BFF2846FFF77AFF0320FFF7BE
:104630008EFF02200321FFF773FE01200021FFF708
:104640006FFE03214FF4FA70FFF794FF002021461C
:10465000FFF7A8FF12200021FFF762FE13200021C0
:10466000FFF75EFE14200021FFF75AFE15200021FF
:10467000FFF756FE16200021FFF752FE0C4908688E
:104680000A79009005208DF80420FFF797FF68460F
:104690000521FFF79EFF68460521FFF7A1FFFFF701
:1046A00015FF4FF4FA6004F076FB7CBD20C00920B2
:1046B000FA530200042938B5054603D1041C18BF7B
:1046C000012400E00024FEF703F904B1286020462D
:1046D00038BD000007B5084B002102AA186842F84F
:1046E000041D0B4605F02EFD019818B103494FF04B
:1046F00080520A600EBD00BFF8C2072004ED00E042
:1047000070B500238AB001930646007901AA00F033
:10471000C001C0290CBF0F490F4900230D68314665
:10472000284605F00FFD044658B9224602A928463E
:1047300005F0C2FD23462846314601AA05F002FDD8
:104740000446019A1AB1054B4FF08050186020467C
:104750000AB070BDF0C20720F4C2072004ED00E0EB
:1047600010B5194C226822B90320202105F021FC44
:104770002060164C226822B90120202105F019FC86
:104780002060134C216821B90120032205F011FC9F
:104790002060202040F6C3114FF4FA62FFF728FF93
:1047A000FFF7F4FD162001210A4A04F027FC064B0E
:1047B000186838B10548006820B105490A68101C1E
:1047C00018BF012010BD00BFF4C20720F0C20720AF
:1047D000F8C20720D54601002DE9F34180460F4677
:1047E000164606F05DFA022807D1324640463946A1
:1047F000002305F0E0FCC6B213E000230193FEF7AE
:1048000067F8841941F100054046394601AA05F0D0
:1048100053FDC6B22EB9FEF75BF88D4208BF844245
:10482000F2D270B2BDE8FC8137B504460D46FFF701
:10483000C9F9237883420AD0E07840B909F072FEC2
:1048400000F00301481CBD22504304F0A4FAFFF716
:1048500095FDFFF786FD2046A9B2FFF7B5FDFFF7EE
:10486000A7FDFFF793FD06F01BFA02280ED1084BB7
:10487000002102AA186842F8041D0B4605F062FCEC
:10488000019818B1034A4FF08051116001203EBDDC
:10489000F8C2072004ED00E038B504460D46FFF7E6
:1048A000B9FD48B1A9B22046FFF7C1FDFFF7B2FD3F
:1048B00008B9FFF7B8FD012038BD000000B50C4B6A
:1048C0000C488DB00C490D4A09930B900CAB00209D
:1048D00043F8102D0A9104900FCB8DE80F00084B80
:1048E0006A200121074AFFF71DFA0DB000BD00BF85
:1048F000614701009948010029480100B5460100BF
:1049000001470100FF5302000A46034903460868B5
:104910001946FFF761BF00BFF4C207200A460349EA
:10492000034608681946FFF757BF00BFF0C20720CB
:1049300008B506F0B5F90F4B0228586912D14202AA
:104940000CD5FFF725FC0C4900280CBF4FF0FF32B7
:104950000122086800210B4605F02DFCBDE8084047
:10496000FFF7B4BA4302F9D5FFF712FC0028F5D1DE
:1049700008BD00BF00C00920F8C2072010B506F02E
:1049800093FA0C4B1A6822F0E06020F0FF011960E6
:104990001C6844F004021A60186840F080711960C5
:1049A0005C68002CFCDA034B5C6806F08FFAC4F3F9
:1049B0000B1010BD0040034030B504464DB20068F6
:1049C00094F9041053B22A46BDE8304004F038BFD1
:1049D0001FB5002204AB90F9044023F8042D4AB21D
:1049E000022100910068214604F035FF9DF90C007A
:1049F0009DF80D3082B243EA022188B204B010BDA6
:104A0000234910B50A680B4612F010020ED08868D0
:104A1000C83088611F490A881F2A05D8DC6A1E48E9
:104A200040F8224001320A8010202EE00B68D9079E
:104A30002CD518480088012822D9174B411E043371
:104A40008A4207DA53F8041C1C680132611A43F8E1
:104A5000041CF3E7104A002350681A4600EB50008C
:104A60008B420BDA0C4C54F82340844203D90124C6
:104A700004FA03F4224301339BB2F1E707490A60C9
:104A8000044B00221A80024B0120186010BD00BFA9
:104A90000080004000C3072004C30720FCC2072099
:104AA000044A08B501F07F034171D25C0321FFF78E
:104AB00083FF08BD04540200044A08B501F07F03D7
:104AC0008171D25C0221FFF777FF08BD0454020018
:104AD000642370B591FBF3F404FB13110A224CB26A
:104AE00094FBF2F602FB164303F1300149B205468E
:104AF000FFF7E2FF092C02DC2846202103E006F143
:104B00003002284651B2BDE87040FFF7C9BF00002F
:104B1000124B01F00F0140F2131201709A610178FB
:104B2000CA0701D50122DA61037803F00201CAB293
:104B300012B10A4B0221D961027802F00401CBB212
:104B400013B106491022CA61007800F00803DAB2F6
:104B50001AB102484FF48071C161704720C009202A
:104B6000FFF70CBF044B5969C1F38130C1F34122F7
:104B700042EA8000704700BF20C0092038B50021FC
:104B80000446FFF725FF0121812285B22046FFF769
:104B900013FF102328B290FBF3F008F06DF94FF0EB
:104BA000765108F0BDF9A16808F0B2F838BD0000F0
:104BB00008B5FFF7E3FF054908F0B2F9044908F02A
:104BC00063FA4FF0844108F0A3F808BD00001041DB
:104BD0000000A0402DE9F04F0546ADF5177D0C46CD
:104BE000914602A8294601229A4602F081F883469E
:104BF000002853D10CA821460A2202F079F88346F6
:104C000008B102A837E000900190064607468046AA
:104C1000FDF75EFE16A904464FF4007202A86B462B
:104C200002F032F98346A8B9009A9AB1FDF750FE16
:104C3000B8EB040268EB080300EB0208FDF748FE3E
:104C4000009A04460D460CA816A901AB02F0C2F961
:104C5000834698B1B9F1000F01D0C9F80080BAF1CC
:104C6000000F01D0CAF80070A09901B10E6002A82F
:104C700002F0B4FA0CA802F0B1FA0FE00199009822
:104C80008142E7D1FDF724FE4FF0FF321440C719EF
:104C90003F1B009C00231D403619B9E758460DF50F
:104CA000177DBDE8F08FF0B504468DB00F4616466F
:104CB00021461D4602A800230122019302F018F8A4
:104CC000044670B91DB102A8294602F09FFA02A855
:104CD0003946324601AB02F0D7F8044602A802F08A
:104CE0007DFA20460DB0F0BDF0B504468DB00F46FC
:104CF000164621461D4602A800230A22019301F010
:104D0000F7FF044670B91DB102A8294602F07EFAE9
:104D100002A83946324601AB02F05CF9044602A80B
:104D200002F05CFA20460DB0F0BDF0B504468DB03F
:104D30000F46164621461D4602A800231222019363
:104D400001F0D6FF044680B902A80DB1294600E063
:104D5000059902F05BFA02A83946324601AB02F02F
:104D600039F9044602A802F039FA20460DB0F0BD28
:104D70007F2816D931B1FF2812D80A49803831F876
:104D800010007047074A8BB232F81120824203D0DC
:104D900001318029F6D10B4603F18000C0B2704783
:104DA00000207047645602000023064A32F81310B0
:104DB00031B1884201D00133F7E7034830F81300DE
:104DC000704700BF645702008454020010B50120F0
:104DD0000C4605F090F92060003018BF012010BD8E
:104DE0000120704710B5044605F05AFF02280AD189
:104DF00000210B46204640F6B83205F0DCF9431E90
:104E00005842584110BD012010BD10B5044605F0B0
:104E100047FF022807D1002120460A460B46BDE87D
:104E2000104005F0F7B810BD10B5044604F004FBBF
:104E300024B1012C06D100F05BFB01E000F0F8FC8E
:104E4000044600E0042404F00BFB204610BD20B112
:104E5000012801D100F044BB04207047F8B5044696
:104E60000F4616461D4604F0E7FA3CB1012C0CD162
:104E7000384631462A4600F0E3FA04E03846314627
:104E80002A4600F019FD044600E0042404F0E8FA84
:104E90002046F8BDF8B504460F4616461D4604F0F8
:104EA000CBFA3CB1012C0CD1384631462A4600F0F1
:104EB00067FA04E0384631462A4600F019FD0446F8
:104EC00000E0042404F0CCFA2046F8BD70B5044696
:104ED0000E46154604F0B0FA34B1012C0AD1304622
:104EE000294600F027F903E03046294600F01AFD74
:104EF000044600E0042404F0B3FA204670BD00002C
:104F000010B5044606F056FB074BB0FBF3F1022345
:104F1000B1FBF3F2944202D30448036110BDB3F530
:104F2000807FF9D00233F3E740420F0000000340D6
:104F3000044B9860DA68D206FCD40248816848B213
:104F4000704700BF0000034038B5FDF7C1FC00F515
:104F5000FA754FF0FF30FFF7EBFF4FF0FF30FFF730
:104F6000E7FFC4B2FF2C07D0FDF7B2FC2A460023AE
:104F7000994208BF9042F0D3204638BD38B5064C60
:104F80004FF00075E561FFF7DFFF044BA5611A786C
:104F900042F00100187038BD20C0092006C007206B
:104FA00070B505460E46FDF793FC00F164044FF022
:104FB000FF30FFF7BDFFC0B2FF2809D1FDF788FC25
:104FC00022460023994208BF9042F0D3002070BDD2
:104FD000FE28FBD1102E06D928464FF4007100227E
:104FE00004F0C8F918E02C464FF0FF30FFF7A0FF9F
:104FF00020704FF0FF30FFF79BFF60704FF0FF30E5
:10500000FFF796FFA0704FF0FF30FFF791FFAB194D
:10501000E0700434A342E7D14FF0FF30FFF788FF80
:105020004FF0FF30FFF784FF012070BD38B5054613
:105030000C46FFF789FFFF281ED160B2FFF778FF0B
:10504000FD2C1BD04FF400714FF0FF32284604F0C6
:1050500091F94FF0FF30FFF76BFF4FF0FF30FFF794
:1050600067FF4FF0FF30FFF763FF00F01F00411FA5
:105070004A4252EB010038BD002038BD012038BD46
:1050800038B5044620060D4607D577200021FFF7E6
:10509000F7FF01283BD804F07F041D4B4FF000724E
:1050A0009A61DA61FFF750FFFF282FD160B2FFF756
:1050B0003FFF2816FFF73CFF45F30740FFF738FF97
:1050C00045F30720FFF734FF68B2FFF731FF402CAC
:1050D00004D0482C0CBF8720012000E0952040B26E
:1050E000FFF726FF4C2C03D14FF0FF30FFF720FFD6
:1050F0000A244FF0FF30FFF71BFF01460029C0B222
:1051000005DA013C14F0FF04F3D138BDFF2038BDAF
:1051100020C00920054A064913784869410154BF57
:1051200003F0FD0343F003031370704706C007202C
:1051300020C009207FB505460C46FFF7EBFF052D83
:1051400018D12178012900F00F810AD3022940F0FB
:1051500009818848426982F08063C3F3806161708D
:1051600002E1844C606910F0806440F0FD80FFF73C
:1051700005FFF9E0804B1878C00700F1F7800E2D8D
:1051800000F2EA80DFE815F00F0019005400580023
:10519000E800E800E800E800E800E800B200B70036
:1051A000B900C300D40073484FF00071C161FFF72C
:1051B000CBFEFF3818BF0120CFE049200021FFF7C8
:1051C0005FFF054608B10120C7E068461021FFF7E0
:1051D000E7FE0028F7D09DF800109DF808308A09F6
:1051E000012A07D19DF80910481C00EB03239AB24D
:1051F000930246E09DF80700810001EB93129DF8B1
:105200000630501C9DF8052003F0030100EB8123BC
:1052100002F00F009DF80A109DF8092000EBD11054
:1052200002F0030100EB4100C21F03FA02F328E081
:105230004FF4007020805CE0504D2B7803F00400A8
:10524000C1B209B3CD200021FFF71AFF0028BAD15F
:105250004FF0FF30FFF76CFE68461021FFF7A0FE0D
:105260000028B0D030254FF0FF30013DFFF760FE41
:1052700015F0FF05F7D19DF80A001022010902FA86
:1052800001F32360284668E04920FFF7F9FE06464F
:10529000002898D168461021FFF782FE002892D09E
:1052A000297801F00202D0B29DF80A1080B101F015
:1052B0003F009DF80B10CA099DF80D1002EB40034A
:1052C0008A09581C531E00FA03F02060304644E05F
:1052D0009DF80B30C1F38402511C03F003025B09FB
:1052E00003EBC202531C4B43236036E023490A7888
:1052F0002270002031E0492000E04A200021FFF721
:10530000BFFE00287FF45FAF204610211DE07A2009
:105310000021FFF7B5FE00287FF455AF05464FF09A
:10532000FF30FFF705FE60550135042DF7D1E0E7AA
:10533000CD200021FFF7A4FE00287FF444AF4FF0FA
:10534000FF30FFF7F5FD20464021FFF729FED0F1A1
:10535000010038BF002000E00420064B4FF000722F
:105360009A6104E0042002E0002000E0032004B081
:1053700070BD00BF20C0092006C0072084C30720DD
:1053800070B5144605460E46FFF7C4FE002C4AD001
:10539000284B1A78D20748D4187800F00401CBB211
:1053A000002B44D124484FF000722449C2610B788D
:1053B00003F00802D0B200B97602012C0DD15820BA
:1053C0003146FFF75DFE30BBFE212846FFF72EFE7B
:1053D000D0F1010438BF00241DE013F0060F03D004
:1053E000D7202146FFF74CFE59203146FFF748FEF3
:1053F00088B92846FC21FFF719FE28B1013C14F0BA
:10540000FF0405F50075F4D10020FD21FFF70EFE25
:10541000002808BF0124084B4FF00071201C99613F
:1054200018BF012070BD042070BD032070BD022094
:1054300070BD00BF06C0072020C0092084C307201C
:1054400070B5144605460E46FFF764FE002C3CD0AE
:10545000204B1878C1073AD41F494FF000721F4BF8
:10546000CA61187800F00802D1B201B97602012CA5
:105470000ED151203146FFF703FEF0B928464FF414
:105480000071FFF78DFDD0F1010438BF002414E056
:1054900052203146FFF7F4FD78B928464FF40071E9
:1054A000FFF77EFD28B1013C14F0FF0405F50075FF
:1054B000F3D14C200021FFF7E3FD074B4FF00070C4
:1054C0009861201C18BF012070BD042070BD03200E
:1054D00070BD00BF06C0072020C0092084C307207C
:1054E00008B5FFF717FE014B187808BD06C0072066
:1054F0002DE9F341FFF70EFE554B1A7802F002003A
:10550000C1B2002940F0A0800120FFF7F9FC0A2475
:105510004FF0FF30013CFFF70BFD14F0FF04F7D113
:105520004C4B4FF000764020DE612146FFF7A8FD8E
:10553000012801D0002674E0FDF7CAF94FF4D571B7
:1055400000F57A774820FFF79BFD012841D14FF005
:10555000FF30FFF7EDFC01AA10550134042CF6D101
:105560009DF806000128E5D19DF80710AA29E1D190
:10557000FDF7AEF93C460025A94208BFA04206D37C
:10558000FDF7A6F9A94208BFA042D3D207E0E9205F
:105590004FF08041FFF774FD0028E9D1F0E77A2051
:1055A0000021FFF76DFD0028C4D104464FF0FF3005
:1055B000FFF7BEFC01AE30550134042CF6D19DF846
:1055C000043003F04002D0B200280CBF04260C26A1
:1055D00027E0E9202146FFF753FD01288CBF012673
:1055E00002268CBF4FF041084FF0E908FDF770F933
:1055F0003C460025A94208BFA0420BD3FDF768F93D
:10560000A94208BFA0420CD350204FF40071FFF70D
:1056100037FD06E040460021FFF732FD0028E5D1C6
:10562000ECE70D490B4B4FF000720E709A6146B1DA
:105630000748017801F0FE0202701820FFF760FCB5
:1056400001E0FFF79BFC024B1878BDE8FC8100BF2E
:1056500006C0072020C0092084C30720F8B51A4BD4
:1056600005461C880E46B4F5007F174602D1084651
:1056700011460AE0B4F5807F09D10846114622465A
:10568000A84706F5807007F58071224619E0B4F549
:10569000047F07D122F4FF72084622F001014FF483
:1056A00000720EE0B4F5847F0CD1170A08464FF45F
:1056B00080727902A847791C06F5807049024FF480
:1056C0008072A847F8BD00BF86C3072010B5034607
:1056D00000295CDD93F900402D4A0729946030DDF4
:1056E00093F901400839946093F90240946093F96A
:1056F0000340946093F90440946093F905409460EA
:1057000093F90640946093F9074008339460204A67
:1057100094696407FBD59468047094684470946835
:1057200084709268C2701A4AD468E406FBD4946804
:10573000047194684471946884719268C2710830ED
:10574000C6E7032918DD93F901400439946093F901
:105750000240946093F90340043394600C4AD46887
:10576000E406FBD494680470946844709468847070
:105770009268C2700430ABE701330139D46814F089
:10578000100FFBD1024A926800F8012BA0E710BD70
:105790000000034007B58DF80400080A0B0C8DF8D3
:1057A00006008DF8071001A804218DF80530FFF7D9
:1057B0008DFF0EBDF7B50D4C06464025080CE56182
:1057C0000B0A17468DF8050003228DF8071001A873
:1057D00004218DF804208DF80630FFF777FF30465E
:1057E0003946002203F0C6FDA561FEBD00C00920B8
:1057F0000D4B0E4840226FF02801DA618160C268CB
:10580000D106FCD4094B9B6808484FF0FF318160FA
:10581000C268D206FCD4054B98680306F4D5024A48
:1058200040219161C0B2704700C0092000000340D0
:10583000F7B5FFF7DDFF07461B481C4D81781C4C70
:10584000002340260288238001A8EE618DF806100F
:105850000321ADF80420FFF739FF9DF805009DF8FE
:1058600006301F28AE6117D1A3F12502022A13D8F2
:105870001049252B0B7007F0010006D100280CBF42
:105880004FF484734FF4807305E000280CBF4FF48D
:1058900004734FF400732380054A1188D1F101008D
:1058A00038BF0020FEBD00BF4459020000C00920DF
:1058B00086C3072088C307202DE9F0410646174616
:1058C0004FEA4128FFF794FF34460025C6EB080253
:1058D000BD42224407DA21460448FFF7BFFE04F523
:1058E00000740135F2E70020BDE8F081B5570100F2
:1058F0002DE9F041064617464FEA412804460025A7
:10590000C6EB0802BD42224407DA21460448FFF7ED
:10591000A5FE04F500740135F2E70020BDE8F08132
:10592000115A010008B507281CD8DFE800F0040769
:10593000131719191919FFF75BFF11E00A4B1878B3
:105940002538C3B2032B9ABF084A52F823300023EC
:105950005B0A04E04FF40070088001E001230B6053
:10596000002008BD042008BD88C307204859020054
:1059700030B591B003466C4600F14005186859688F
:10598000224603C20833AB421446F7D1064D4024E9
:105990009B200021EC61FFF7FDFE68462146FFF7E2
:1059A00095FEAC6111B030BD00C0092070B5074D47
:1059B0004024064600217720EC61FFF7EBFE3046DD
:1059C0002146FFF783FEAC6170BD00BF00C0092017
:1059D000084B188830F01F000BD007490B78253B87
:1059E000D9B203299ABF054A52F821100021B1FB10
:1059F000F0F0704786C3072088C30720485902008B
:105A0000024B1878003018BF0120704786C307206A
:105A10002DE9F7434FF0FF330D4690460193814641
:105A2000FFF7E6FEFFF7ECFF0446A0B1164E402755
:105A30001648F76101880320B1F5847F14BF4FF445
:105A400000714FF480712943FFF7A4FE01A80421DF
:105A5000FFF73CFEB7610C4E4022F26182202946DE
:105A6000FFF798FE48464146012203F083FC3CB113
:105A7000019B02A8591C40F8041D0421FFF726FED3
:105A80004020B061BDE8FE8300C0092086C3072026
:105A9000F7B5114B07461E884FF0FF30B6F5847FEF
:105AA00014BF4FF400764FF480760190FFF7A8FF03
:105AB00060B10A4C4025032046EA4721E561FFF723
:105AC00069FE01A80421FFF701FEA5610198B0F16C
:105AD000FF3F08BF0020FEBD86C3072000C009208D
