:020000021000EC
:10000000004008207F0101004D010100E1000100D6
:100010003D0101002D0101001D0101000000000053
:10002000000000000000000000000000B1A9010075
:100030000D0101000000000035AA010071AA0100B5
:10004000FD000100FD00010059450100FD00010017
:10005000FD00010051900100FD000100B990010078
:1000600021910100FD000100FD000100FD000100E3
:10007000DD8B0100FD000100FD000100FD0001001D
:10008000FD000100697F0100FD000100FD0001008D
:10009000FD000100E18A0100FD000100FD000100FA
:1000A000FD000100358A0100FD000100FD00010096
:1000B000FD00010065AE0100FD000100FD00010032
:1000C000FD000100FD000100FD000100346302009D
:1000D00000C007202001000020C10720E404000028
:1000E00004207146084200F00480EFF309800AF012
:1000F00025BFEFF308800AF021BF704708B502481A
:1001000000F0CAF9FEE700BFCA5B020008B502486A
:1001100000F0C2F9FEE700BFE05B020008B502484C
:1001200000F0BAF9FEE700BFF05B020008B5024834
:1001300000F0B2F9FEE700BFFD5B020008B502481F
:1001400000F0AAF9FEE700BF085C020008B502480B
:1001500000F0A2F9FEE700BF135C020010B5002317
:10016000934203D21C585C500433F9E710BD0023BE
:100170008B4203D200221A500433F9E7704710B5BE
:1001800014480AF015FD13480AF015FD124C134BE4
:100190009C4205D294E807000C34FFF7DFFFF6E736
:1001A0000F48844205D294E803000834FFF7DFFFCC
:1001B000F6E70DF06BFA0AF015FD02F0B9F903F05D
:1001C00019F84FF416400AF0EDFF064800F064F904
:1001D000FEE700BF00400820CC000100D80001006D
:1001E000E0000100855C020008B5024800F054F907
:1001F000FEE700BFAE5C020008B5024800F04CF913
:10020000FEE700BFB95C020008B5024800F044F9FF
:10021000FEE700BFC85C0200124A30B51168034611
:1002200011B94FF08050106010680F4DC41862195A
:100230000E4D0C49AA4297BF0D480C601A180A606F
:10024000084A0C4C1168A14202D90B4810600020EA
:100250003BB10A4A116801311160094A094910602D
:100260000B6030BD24C10720FF7FFFEFFE3F07106A
:1002700004C60720FF3F0820004008202CC10720AB
:1002800028C1072020C107200DF03EBA0DF03CBA6E
:100290000DF042BA0DF040BA30B58BB00446684656
:1002A0000DF07EFE214D089B07982560A3606060DD
:1002B00058B91F491F4A0B6893428ABF03F1604334
:1002C00003F17043A3F5E82363606068B0F5803FF5
:1002D00004D900F17041A1F5E82363601448154B7F
:1002E000016800229942E26006D86D18C5F180537A
:1002F00003F58035E5600BE00F4A914208D80F48BE
:10030000C0F1804303F58012501A0028C8BFE06096
:10031000E1610B490B480A680B490368A2610A684E
:100320006361226120460BB030BD00BF04060000AF
:1003300024C1072000800010FF3F082004C60720CA
:1003400028C1072020C107202CC10720FEE700009C
:10035000014B1860704700BF34C10720014B186083
:10036000704700BF30C1072008B502480DF03AFEC3
:10037000FEE700BFB434020008B502480DF032FEBB
:10038000FEE700BFCE340200002070470120704716
:10039000084B70B518680E46154640B10024AC42B3
:1003A00005DA044930570A6890470134F7E72846D0
:1003B00070BD00BF34C10720094B70B518680E46E8
:1003C000154600B970BD0024AC4206DA0448016845
:1003D0000020884730550134F6E725EAE57070BD06
:1003E00030C107207047002070470000074B196894
:1003F0008A68824207D04B68834204D0C9680A1ACF
:100400005042504170470120704700BF7CC0072018
:10041000002070470020704730B504468DB000289A
:1004200037D0684608F07EFC9DF800309DF801103A
:1004300003F03F0003909DF8040001F03F029DF897
:10044000025000F01F010492BDF806009DF805203F
:1004500005F01F03069102F00F05C0F30B018AB2ED
:100460000593BDF808106B1E07939DF80330A2F2A8
:100470006C75C1F30B0203F00700089595B26B1E73
:100480000990002503A80A930B950DF0A7FA84E8BC
:10049000210000200DB030BD10B504460AF0AEFAC0
:1004A000013C14F8010F18B140B20AF0B7FEF8E7AA
:1004B000BDE810400AF0B4BA38B50F4C256815F005
:1004C000010516D120460AF04BFF90B14FF40E7093
:1004D000FFF7DAFE094B30223A2180F8345280F8D7
:1004E000352280F8361280F83752186020460AF01C
:1004F00045FF0248006838BD3CC1072040C10720C5
:1005000038B5104C236813F0010517D120460AF0C6
:1005100027FF98B14FF40E70FFF7B6FE012280F866
:100520003422094A31213A2380F8351280F83632D4
:1005300080F83752106020460AF020FF0248006819
:1005400038BD00BF54C1072058C107202DE9F04134
:10055000ADF50A7D0E4608F013F9041E04DD0AF01D
:10056000DBF9204609F07AFF264D05AC0FCD0FC40C
:100570002B6810210DEB010200250AA823600495C9
:1005800009F028FF074604986422B0FBF2F10491B9
:1005900030461D491D4A0A2308F030FEBD4222D0D4
:1005A0000AAC049B04EB4514A2690BB1B2FBF3F354
:1005B000606994F80C800090A18B029388000A2354
:1005C0000190A2FB03014FF47A7200230CF060FC4F
:1005D00005AB03900E493046626853F8283008F0A6
:1005E0000DFE0135DAE709F00DFE102804D930467A
:1005F0000849102208F002FE01200DF50A7DBDE831
:10060000F08100BFE8340200073502002E350200F9
:10061000333502005035020010B5ADF5007D0C46B3
:1006200068460AF02DFC204669464FF0FF3208F07C
:10063000AFFD01200DF5007D10BD000030B50C466A
:1006400091B02C49054607F0A3FF002847D008AB1E
:10065000009309A80AA90BAA0CAB0190029103927E
:1006600004932846244906AA07AB07F0F4FE07289E
:1006700001D000203BE09DF8390006999DF8383004
:1006800061F303008DF839000899BDF83A00079A24
:1006900061F30B0062F304030A99ADF83A009DF888
:1006A0003500099A8DF838309DF8363061F3050031
:1006B00062F304038DF835000C999DF837008DF82E
:1006C00036300B9A9DF8343061F3020062F3050373
:1006D0008DF837000DA88DF8343008F045FB08F090
:1006E000DDFB06490246204608F088FD012011B0D6
:1006F00030BD00BF7A3502007E3502001954020079
:1007000030B589B004AB0024009302220D4603AB40
:1007100018490394049407F0ABFE022827D107A8D8
:10072000009005AA0398049906AB059406940794D3
:1007300004F062F8024638B1049928460091039B00
:100740000D4908F05BFD10E0059A069B079C002A06
:1007500008BF0122002B08BF012328460749B4FB2C
:10076000F2F2B4FBF3F308F049FD012000E020466B
:1007700009B030BD9946020097350200B635020037
:100780002DE9F0410C46ADF5866D3049054607F080
:100790008CFF2F490746284607F0B0FF2C49284612
:1007A00007F0CCFF284607F0E9FF0122014601A827
:1007B00006F0B0F8064640B1284607F0DFFF2549AD
:1007C0000246204608F01AFD3AE00BAD314640F2F1
:1007D000014228460DF032F8009601F051FE8046A5
:1007E00001A829464FF480626B4606F05FF990B18C
:1007F00001A806F005FB8FB101F042FEB0EB080046
:1008000014BF03460123144920463246B6FBF3F3D6
:1008100008F0F4FC02E0009B3BB9E9E720460F49F1
:100820004FF0FF3208F0B4FC0AE0F618E854002F4D
:10083000D6D1204629464FF0FF3208F095FCCFE78D
:1008400001200DF5866DBDE8F08100BFE4350200A2
:1008500099460200ED35020001360200D34C020039
:10086000F0B5C1B00DAB0025009302220C460CABD5
:100870005C490B950C950D9507F0FAFD022803D104
:100880000D980CF0F8FD05460C9808B956490C91E6
:1008900016A80C9906F057FB034678B12046534939
:1008A0000C9A08F0ABFC9AE020AA802616A80EA9A4
:1008B0001492159606F099FB013D08B9002DF3DC62
:1008C00020464B490C9A08F099FC00252E468020C2
:1008D00020AB15900EA916A8149306F086FB0028ED
:1008E00065D19DF94110002961D09DF8407007F055
:1008F0001002D3B213B10135442205E00B990E98D2
:1009000001360A180B922D2207F0020C17F0010F86
:1009100007F0040E5FFA8CF007F020070CBF2D23C0
:1009200052235FFA8EF100280CBF4FF02D0C4FF0D0
:10093000480CF8B200290CBF4FF02D0E4FF0530EAB
:1009400000280CBF2D214121BDF83C00029141122D
:10095000BDF83E7001F2BC718DE800500391C0F308
:100960004311049100F01F00F912C7F345170691D7
:100970000590079740A951F8C80D093108900991D1
:1009800020461C4908F03AFC20461B494FF0FF3234
:1009900008F0EAFB20A920464FF0FF3208F0E4FB04
:1009A000204616494FF0FF3208F0F2FB8FE7009522
:1009B00040AD55F8D43D12493246204608F01EFCA1
:1009C0000C9829460AAA06F03FFB40B90A9B0B99EE
:1009D0009A7820464A430B49520808F00FFC012040
:1009E00041B0F0BD994602001C3602001F360200DD
:1009F000433602005E3602008B360200D34C020002
:100A00008F360200B936020070B50E46054607F073
:100A1000B5FE0446284607F0B1FE06F0E2FB064AA2
:100A2000064B0749002818BF13463046224608F0F7
:100A3000E5FB012070BD00BF793802006F3802006D
:100A4000CD36020070B50E46054607F097FE044607
:100A5000284607F093FE06F05BFB064A064B074963
:100A6000002818BF13463046224608F0C7FB012075
:100A700070BD00BF793802006F380200E93602000D
:100A80007FB503AB0024009302220E4602AB0F4950
:100A90000294039407F0ECFC022814D1029D039CFD
:100AA0002846214606F044FC09490A4A2346002804
:100AB00014BF104608460090074930462A4608F001
:100AC0009DFB012000E0204604B070BD9946020065
:100AD0006F38020079380200FB36020030B58DB065
:100AE0000C46054607F04AFE0A22014602A805F018
:100AF00011FF40B1284607F041FE1F49024620463B
:100B000008F07CFB35E08DF8030001901B4920467E
:100B10007E2242F2107308F071FB1949204608F05A
:100B20006DFB236820461B680DF1030142F2107231
:100B3000984718B19DF903007E2803D102A806F05A
:100B40005FF916E002A80DF10301012201AB06F0E6
:100B500053F828B10199012902D020460949DEE75E
:100B60002268204653689DF903104FF0FF329847E2
:100B7000D7E701200DB030BD133702003A3702002D
:100B800072370200923702002DE9F043ADF5417D46
:100B9000002303AD2B60029302220C4600954049CE
:100BA00002AB07F065FC022806D020463D494FF015
:100BB000FF3208F0EDFA6EE016A8296806F0C3F9D6
:100BC00018B1204638492A6807E016A8029906F0AD
:100BD000BAF928B13549029A204608F00FFB5AE0CD
:100BE00040A94FF4807204A807F006FC09A880A968
:100BF0004FF4807207F000FC20A88021149015911A
:100C000016A80EA906F0F1F900283ED19DF9412061
:100C1000002A3AD09DF8405005F01003DDB2002DB7
:100C2000EAD10DF14106029A334604A8204907F0A3
:100C30001CFE039A33461E4909A807F016FE04A8B5
:100C400007F09CFD804609A807F098FD074604A818
:100C50000E9E07F093FD814609A807F08FFD2A46F6
:100C600001462B460095484603F0C6FD1149124A3D
:100C70000096002814BF1046084601900F492046F0
:100C800042463B4608F0BAFAB6E709A807F0C8FBA7
:100C900004A807F0C5FB01200DF5417DBDE8F083F8
:100CA00099460200B9370200FE37020023380200DD
:100CB000433802006F3802007938020049380200D8
:100CC00070B50C462149054607F056FD064628B189
:100CD000FFF716FC002100F2352009E028461C49E8
:100CE00007F04AFD50B1FFF7E7FB314600F235202F
:100CF0000A4606F0AFFB174B17491CE02846174978
:100D000007F03AFD48B1FFF7FBFB012200F2352165
:100D100005F0B0FD124B13490DE02846124907F0CB
:100D20002BFD88B1FFF7C8FB012200F2352105F049
:100D3000A1FD0E4B0E49002808BF19464FF0FF32A7
:100D4000204608F025FA012070BD00BFD03802000F
:100D5000DA3802006838020072380200E738020010
:100D60007F3802008F380200F0380200A6380200F7
:100D7000B438020010B501200C4607F031FB38B141
:100D800000210A460B4608F0EFFE2046044901E028
:100D9000044920464FF0FF3208F0FAF9012010BD57
:100DA000FC3802001239020038B5064C236833B90A
:100DB0001C20FFF769FA054607F006FF256020684A
:100DC00038BD00BF48C107202DE9F0430C4687B06D
:100DD0003C49064607F0F4FB3B498046304607F0A5
:100DE000EFFB3A498146304607F0EAFB002705460B
:100DF000039704970597B8F1000F1DD0304634498A
:100E000003AA04AB07F027FB022807D0204631498C
:100E10004FF0FF3208F0BCF93D464FE0FFF7C4FF4A
:100E20009DF90C109DF9102008F0C3FA0499C2B284
:100E300000912046284924E0B9F1000F2BD005ABE2
:100E400000933046254903AA04AB07F004FB0328AE
:100E500007D0204622494FF0FF3208F099F9454665
:100E60002CE0FFF7A1FF9DF90C109DF910209DF9D2
:100E7000143008F08FFA40B104981A49059A00908E
:100E80002046039B08F0BAF917E020461649039A5A
:100E900008F0B4F911E088B10226FFF785FF71B2BE
:100EA00008F094FA20B120461049324608F0A6F91D
:100EB0000236B6F5807FF0D100E00125284607B064
:100EC000BDE8F083BC4702002C3902003239020031
:100ED0003B390200473902006839020089390200B3
:100EE00099390200C0390200E0390200FD390200E0
:100EF0002DE9F04F5E4C93B023680E4633B92020A5
:100F0000FFF7C2F9054608F095F82560D4F800808F
:100F1000FFF7D2FA002512A941F8105D00F2352042
:100F20000DAA06F091F848B90D9A0E999769907834
:100F3000BC1E414344434D08670800E02F46DFF8DC
:100F40003491D9F8003063B90C20FFF79DF90446BD
:100F5000FFF72AFF9022206000202271A060C9F8CC
:100F600000404449086803F035FC04460BF04AFF92
:100F700083460BF02DFD014620460BF073FC3E49E5
:100F80000BF07AFD0BF03EFF0B900FA809F020FE4E
:100F900004F048FB38B307F0F9FF04F02BFB002402
:100FA0000346A146A2469C420AD020460A9304F07A
:100FB00081FB504584BFA14682460A9B0134F2E77B
:100FC00007F0F8FF642303FB0AF22C483B46B2FB10
:100FD000F0F1C1F164028DE80406304628492A4642
:100FE00008F00CF905E0304626492A463B4608F051
:100FF00005F9254C23681BB90120FFF745F920604E
:10100000206803F0ABFB044607F048FF9DF8412041
:101010009DF84010019001F01F0302F00F00BDF891
:10102000422003939DF83E300290C2F30B0081B240
:1010300003F01F029DF83D009DF83C30049105929D
:1010400000F03F0103F03F02079200940691B8F8C8
:1010500018005A460890B8F81A10304609910B9BB0
:101060000A4908F0CBF8012013B0BDE8F08F00BFAB
:1010700038C1072044C1072000002041A08601009C
:101080001D3A0200513A02004CC107205F3A0200AB
:1010900038B5064C236833B91420FFF7F5F8054638
:1010A00006F038FE2560206838BD00BF50C107201B
:1010B00008B54FF0FF320846094908F069F8FFF714
:1010C000E7FF06F019FE4FF4FA6009F0C7F94FF098
:1010D00080430020AA221A721870012008BD00BFA8
:1010E000C73A020073B50C461349054607F044FBA6
:1010F00050B1FFF7CDFF06F0FFFD20460F494FF03E
:10110000FF3208F045F815E0FFF7C2FF0646284613
:1011100007F034FBC6230146094A00933046094BC9
:1011200006F0D2FE284607F029FB07490246204672
:1011300008F064F801207CBDD83A0200DE3A0200D3
:10114000F73A0200FC3402002A3B020070B58AB074
:1011500005460C4607F076F90B2803DD20461B49AF
:101160000C222DE0284607F009FB012201466846C3
:1011700005F0D0FB06462846EEB907F0FFFA144BFF
:1011800001681960426813495A608068986043F8A2
:10119000041C039A1049204608F030F8684605F010
:1011A0002FFE4FF47A7009F059F94FF08043AA22CC
:1011B0001A721E7006E007F0E1FA0849024620465E
:1011C00008F01CF801200AB070BD00BF4C3B0200C3
:1011D000484002400DD0ADDE733B0200BB3B020035
:1011E00070B5414EA6B033680546DB070C460CD4FB
:1011F00030460AF0B5F840B14FF480600CF084FA44
:101200003A49086030460AF0B9F82846384907F0EC
:10121000D7F9064620B30021802206A80CF00EFB69
:10122000002105A8049105910090324906AA04AB5B
:10123000284607F010F92D4A049B116806A8059A64
:1012400013B903F063FB01E003F081FB2A4A2B4949
:101250000346002B08BF1146204607F0CFFF32E0BF
:101260002846274907F0ACF900283BD0284604AAB5
:10127000244905AB049605968DF80F6007F0EBF84E
:10128000049D05982A18B2F5806F0DDD20461E4991
:101290004FF4806210E015489DF80F100268515518
:1012A0009DF90F300135F618049B0598E91A814223
:1012B00005DB16492046324607F0A0FF03E0B5F5EE
:1012C000806F02DBF5E701200CE0226820461368FE
:1012D0000DF10F014FF4FA6298470028DBD1204648
:1012E0000B49BAE726B070BD60C107205CC107207A
:1012F000E63B0200ED3B0200D03B0200D43B020083
:10130000FD3B0200043C02000E3C0200423C020095
:10131000323C020030B50C4687B00B49054607F059
:101320006DFFA17AE07A0091E18801900291208915
:10133000A18803900491628823882846034907F016
:101340005DFF07B030BD00BF533C0200893C020086
:101350001FB501A80C4602F0DFFC02F0CDF901A98F
:1013600002462046FFF7D6FF012004B010BD000062
:10137000F0B58DB003AB002500930C4617463849F5
:10138000022202AB0295039507F072F8A84239DDFC
:1013900002980CF070F8C6B2039818B10DF019F964
:1013A000C5B200E0054604A8002103F047F830B1BB
:1013B00020462C494FF0FF3207F0EAFEF3E70037F2
:1013C00018BF01270220009039463046039A2B4669
:1013D00002F0C4FA10B9204623490EE0002F3CD099
:1013E00004A84FF47A7103F033F8002830D09DF848
:1013F0001010B1422CD107E01C494FF0FF3207F02A
:10140000C7FE2AE0284629E09DF817200C2A04D1BF
:10141000204606A93246FFF77DFF2046002DEBD17E
:10142000134907F0EBFE9DF817309D420BDA206858
:101430000CA94A19436812F9181C20464FF0FF32D4
:1014400098470135EFE720460A4907F0D7FE04E048
:1014500020460949029A07F0D1FE01200DB0F0BDE7
:1014600099460200A73C0200C93C0200053D02006B
:10147000F13C020095430200223D020038B50D46C2
:1014800007F07EF90446C0B202F02AF9054A064B7D
:101490000649002808BF13462846224607F0AEFE3C
:1014A000012038BD483D02006F3802004F3D020068
:1014B00030B58BB00AAA4FF47A730C4642F8243D3B
:1014C000174906F0C8FF002502A8019902F0B6FFEF
:1014D000E0B1204613499DF8082007F08FFE002553
:1014E0009DF80F0085420BDA23680AA94A1912F900
:1014F000181C5B6820464FF0FF3298470135EFE734
:101500002046094907F07AFE0125DDE72DB920467E
:1015100006494FF0FF3207F03BFE01200BB030BD13
:101520000B3C0200663D0200D24C02007D3D0200F1
:1015300037B50C4602F056FA16490546204607F024
:101540005DFE154920462A4607F058FE20461149FF
:1015500007F054FEDDB11149204607F04FFE20464A
:101560000C4907F04BFE0020451CEDB202F024FAB6
:1015700048B181780278437800912046084907F005
:101580003DFE2846F0E72046024907F037FE0120DD
:101590003EBD00BF8E3D0200A93D0200C33D0200DA
:1015A000DE3D020038B5064C236833B94C20FEF707
:1015B0006BFE054607F096FB2560206838BD00BF2E
:1015C00064C107202DE9F04FADF5757D80220446FA
:1015D00034AF894614A800210CF030F90021802294
:1015E00038460CF02BF903AE0023336020460096FA
:1015F000714914AA3B4606F02EFF032801D00020B3
:10160000D5E00AA814A9012205F084F905460028AE
:10161000F5D1FFF7C7FF0446306854A984F84700A6
:10162000802205A88DF80B50049506F0E5FE009782
:101630004846624914AA336807F0E0FDA8460AA8A4
:1016400074A94FF4007204AB05F030FA38B10AA85F
:1016500005F0D6FB05A806F0E3FE0120A7E00499FB
:101660000029F4D06F1C5649049A204607F0C6FDA5
:10167000226820469668B04700267D1EB246049B2D
:1016800020689E420DD20DF5E87B1BF906104368D9
:101690004FF0FF322046984716F90B1001368A4466
:1016A000EDE781682046884705A807F067F80646F9
:1016B00005A806F0CAFE4FF47A730246314620466A
:1016C00007F074FD0121202205A807F002F805A803
:1016D00007F056F850451FD005A807F051F83949D2
:1016E00003465246484607F089FD3749204607F031
:1016F00085FD206881682046884722682046136857
:101700000DF10B014FF47A7298470028F5D1781C3F
:10171000022F9CD80746A6E7049A2C49009243461C
:1017200034AA204607F06AFD26682046B368984729
:1017300005A807F023F8064605A806F086FE314600
:1017400002464FF47A73204607F030FD05A8204981
:1017500006F00CFFD0B905A807F010F81D490246A5
:10176000484607F04BFD1849204607F047FD216821
:1017700020468A689047236820461B680DF10B01BC
:101780004FF47A7298470028F5D1C0E705A81249AE
:1017900007F0A9F8049811498044424648460D9B39
:1017A00007F02CFD002D3FF44AAF013D47E70DF552
:1017B000757DBDE8F08F00BFF93D0200083E0200D4
:1017C0001F3E0200313E0200D24C0200583E020091
:1017D0006E3E0200713E0200D34C0200A93E0200A0
:1017E0002DE9F04186B006AA0026074642F80C6DA6
:1017F0000D463C4906F02FFE38460121202206F016
:1018000068FF039B002B63D0384606F01BFE0028C0
:101810005ED0FFF7C7FE8DF80B60044620680DF11F
:101820000B01066805222046B04706460028F5D180
:101830000399384684F8471006F0A0FF4FF0FF32B6
:101840000146204607F0A4FC226820469768B84766
:10185000254B0596186837460490216820460B688A
:101860004FF47A720DF10B01984770B105A8411C35
:1018700003220BF0C9FF9DF80B8005A804A90422E0
:101880008DF817800BF0A8FF38B91821B7FBF1F3DA
:1018900001FB13726AB101330BE028684FFA88F13B
:1018A000436801222846013798470028D5D10136E0
:1018B000D3E728460D493A4607F0A0FC76B16120EF
:1018C00000900B49284632460A4B07F097FC05E08A
:1018D000284609494FF0FF3207F05AFC012006B0B4
:1018E000BDE8F0810B3C02004F3C0200B53E020017
:1018F000DC3E0200953F0200D13F020043682DE923
:10190000F041994204460D4617D3C06889000CF097
:10191000F3FBA668E060B700AE420DD21020FEF7E0
:10192000B3FC0021102280460BF088FFE0680136EE
:1019300040F807800437EFE76560BDE8F0810000FC
:101940002DE9F743304D07462C688946002C49D1D4
:101950002420FEF799FC0423064680E818008460E2
:10196000C46008214FF00108FFF7C8FF86F8208007
:1019700030462649264A274B00942E6005F0CAFFC0
:1019800028682549254A264B009405F0C3FF28689E
:101990002449254A254B009405F0BCFF28682449BA
:1019A000244A254B009405F0B5FF28682349244AB2
:1019B000244B009405F0AEFF28682349234A244BAA
:1019C000CDF8008005F0A6FF28681F49214A224B68
:1019D000009405F09FFF009428682049204A214B7D
:1019E00005F098FF3846204906F0C6FE18B1384683
:1019F0001E4906F078FF044B394618684A4603B082
:101A0000BDE8F04306F056B868C10720E1170100B1
:101A1000FD3F020004400200C51501003E400200E7
:101A200047400200B11401009B4002009E400200AA
:101A30007D1401006E440200C14002003115010016
:101A400007410200EB400200711301005041020007
:101A50000E4102004F4102005441020051130100A7
:101A60009441020079410200D34C02009A410200E5
:101A700037B590F90450144600934AB223462946DC
:101A8000006807F092FC3EBD10B5044694F90410BE
:101A90002D220823006807F07DFC206894F90410CB
:101AA0003122082307F076FC012010BD10B5044652
:101AB0002246084606233221FFF7DAFF204610BDF2
:101AC00008B5034693F9041020220F23006807F09D
:101AD00061FC012008BD38B504460D460846224683
:101AE00028210123FFF7C4FF28462921621C012376
:101AF000FFF7BEFF28462A21A21C0123FFF7B8FFEB
:101B000028462B21E21C0123FFF7B2FF28462C2197
:101B1000221D0123FFF7ACFF28462D21621D012362
:101B2000FFF7A6FF204638BD014B0360704700BF9A
:101B3000A841020001207047012070470120704732
:101B4000014B0360704700BFA8410200034B10B572
:101B500004460360FEF79CFB204610BDA84102002E
:101B6000034B10B504460360FEF792FB204610BD00
:101B7000A841020070B500230446002604F1380590
:101B800003654365836580F83C601420E06131465D
:101B9000284600F073FB0121284600F06FFB02216C
:101BA000284600F06BFB0321284600F067FB0F4A34
:101BB0000F494FF07E53236722666266A266E16694
:101BC0002846314600F084FB28460121626E00F071
:101BD0007FFB28460221A26E00F07AFB28460321F3
:101BE000E26E00F075FB012070BD00BF0000704187
:101BF0000000484270B50022044604F14001406BE9
:101C0000134608F082F8266C256D304629460BF005
:101C1000EFF870B1E06C56490BF0EAF820B1206E95
:101C200054490AF01FFE18E0606E52490AF01CFE8B
:101C30000DE0304629460BF0BDF878B1E06C4C4918
:101C40000BF0D6F828B1606E4A490AF00BFE6066C8
:101C500004E0206E47490AF007FE2066666C656D59
:101C6000304629460BF0A6F848B1206E41490AF0EB
:101C7000FBFD40492066606E0AF0F6FD0DE030463F
:101C800029460BF0B5F848B1206E3A490AF0EAFD52
:101C900038492066606E0AF0E5FD6066A66CA56DA9
:101CA000304629460BF086F840B1E06E31490AF023
:101CB000D9FD002106460BF09BF80CE03046294682
:101CC0000BF096F848B12B49E06E0AF0CDFD2A4999
:101CD00006460BF06FF800B1E666E56C244928462D
:101CE0000BF068F820B1206F22490AF0BDFD08E032
:101CF00028461F490BF07CF820B1206F1D490AF0DF
:101D0000B1FD2067216F606E0AF0B6FE1A4904F13A
:101D1000380506460BF04EF800B9174E32462846F5
:101D2000012100F0D5FA216F206E0AF0A5FE1249BC
:101D300006460BF03FF800B90F4E32462846002108
:101D400000F0C6FA216FA06E0AF096FE0A49064618
:101D50000BF030F800B9084E28460221324600F058
:101D6000B7FAE26E28460321BDE8704000F0B0BA31
:101D700000004041CDCC4C3D0000C84238B504467F
:101D8000006C0C4920F000400BF032F878B9616C1F
:101D900021F0004007490BF02BF840B9E06C0649F0
:101DA00001250BF025F800B90546E8B238BD012041
:101DB00038BD00BF14AE473F0000904138B500F178
:101DC0003805002428460121224600F081FA2846E1
:101DD0000021224600F07CFA284602212246BDE876
:101DE000384000F075BA90F83C3010B504465BB945
:101DF000FFF7C4FF84F83C0018B92046FFF7FAFE4D
:101E000002E02046FFF7DAFF012010BD014B03601E
:101E1000704700BFA8410200034B10B504460360A1
:101E2000FEF736FA204610BDA8410200000000006F
:101E3000F7B5A14D0446AB6943F40020A861142016
:101E400006F06FFDE969684641F40022EA61A16C81
:101E5000FFF72CFE009EBDF80470E16C2665684615
:101E6000A4F85470FFF737FE009DBDF80430C4F8A5
:101E70005650A4F85A30B4F956000AF0A9FD0AF0F9
:101E80008FF900228D4B0AF009FB00228C4B0AF0DF
:101E900005FB85A3D3E900230AF0D6F90AF08EFCEE
:101EA00088490AF0E9FD0146A06B0AF0DDFCA06359
:101EB000B4F958000AF08CFD0AF072F900227F4B49
:101EC0000AF0ECFA00227E4B0AF0E8FA76A3D3E996
:101ED00000230AF0B9F90AF071FC7A490AF0CCFD46
:101EE0000146E06B0AF0C0FCB4F95A60E06330468A
:101EF0000AF044F9002221F00041734B0AF034FC4F
:101F0000D8B130460AF064FD0AF04AF900226B4B62
:101F10000AF0C4FA00226A4B0AF0C0FA62A3D3E9BD
:101F200000230AF091F90AF049FC66490AF0A4FD81
:101F30000146206C0AF098FC2064644A10680AF09C
:101F40002FF95BA3D3E900230AF07EF90022604B4E
:101F50000AF0A4FA0AF032FC6064B4F952000AF004
:101F60000DF90546B4F954000F460AF007F9024688
:101F70000B462846394609F0DBFC0AF01FFCE065F9
:101F8000B4F950000AF0FAF80646B4F954000D46C8
:101F90000AF0F4F802460B463046294609F0C8FC20
:101FA0000AF00CFC05462066B4F950000AF0E6F889
:101FB0000746B4F9520021F000460AF0DFF821F09C
:101FC000004E8446734662463846314609F08AFF21
:101FD0000646B4F954000F460AF0D0F821F0004C40
:101FE00003461A4630466346394609F07BFF0AF03D
:101FF000C5FBA4F86C00B4F956000AF0E9FC0AF03D
:10200000CFF800222D4B0AF049FA00222C4B0AF09F
:1020100045FA25A3D3E900230AF016F90AF0CEFB0E
:1020200028490AF029FDA16B0AF01EFC29490AF093
:1020300023FD29490646E06D0AF01EFD01463046A3
:102040000AF012FCA063B4F958000AF0C1FC0AF0CF
:10205000A7F80022194B0AF021FA0022184B0AF0C7
:102060001DFA11A3D3E900230AF0EEF80AF0A6FB4B
:1020700014490AF001FDE16B0AF0F6FB15490AF07C
:10208000FBFC1549064628460AF0F6FC0146304698
:102090000AF0EAFB0022E06304F13801606B1346AA
:1020A00007F062FD0120FEBD4AD8124DFB21094018
:1020B000B81E85EB51B8BE3F20C0092000408F40BC
:1020C000008066400AD7A33B00406F4074C10720E0
:1020D0000080624048E17A3F0AD7A33CAFF300801A
:1020E00038B51A4C63685A0011D51948416801F097
:1020F00001024260E36843F08040E060216901F042
:1021000080422261636943F08040606138BDA0680D
:10211000430019D50E4DA8680AF056FCE2680D4937
:1021200042F080430860E360686840F00101696044
:102130006A6842F002036B60606900F0804161618F
:10214000226942F08043236138BD00BF8080024095
:102150000040094074C1072038307047052370B52E
:10216000C36104460020A063E06320646064102122
:102170000022012007F0C7FC29496063D1F8C42080
:1021800042F40006C1F8C460D1F8AC3103F48040D9
:10219000C1F8AC01A1F5D0214A6842F001064E60B9
:1021A0004B6843F002004860A1F5D021CA681D4B7E
:1021B00002F0C006CE6018681B4E40F40021196082
:1021C0001A4A1E20002106F0C3FC32684AB90820D2
:1021D000FEF75AF80546FEF7E7FDA72328602B71A6
:1021E00035601148124E01683268A1644AB908206E
:1021F000FEF74AF80546FEF7D7FDD32328602B717A
:1022000035600B480168A06CE164FFF73DFC28B124
:10221000E06CFFF755FC08B1012070BD002070BDD7
:1022200000C00F4020C009206CC10720E120010040
:1022300070C1072070B50026054606600121062002
:102240000D4C08F0D1FD0121062008F0E5FD022328
:10225000FF2263602260636108F056FF3221B0FB09
:10226000F1F00923A0616360A660226F284622F086
:102270000F01216770BD00BF008001400268052981
:1022800030B542F0010202D90260002030BD0123C6
:102290004C1C03FA04F52A43026001FA03F00324FC
:1022A00004FA00F403FA00F0093103FA01F1074AD5
:1022B000156925EA04041461146920431061A2F52C
:1022C000A032D06C0143D164184630BD00C002403A
:1022D000F8B517460C46054608F016FF0AF074FBE1
:1022E0001349064638460AF07BFC12490AF0C4FB43
:1022F00010490AF0B9FA014630460AF0BDFB0AF06F
:10230000A7FD0D4B052C0FD8DFE804F003050709E6
:102310000B0DD86108E0186206E0586204E018640A
:1023200002E0586400E098642A681A65F8BD00BFAE
:102330000000C8426F12833A0080014038B50D4654
:10234000044608F0E1FE074B0221B0FBF3F0B0FBBE
:10235000F1F2954201D3216138BDB1F5807FFAD009
:102360000231F4E740420F0001480BF03BBE00BFD2
:10237000584202007FB500F235260D460122314653
:1023800004F078FAC4B24CBB04A941F8044D3046BD
:1023900002AA04F059FEF8B9029A03999469937855
:1023A000A21E5A435943540840F2E73348089C425E
:1023B0000F49104B8CBF4FF48062012288BF0B463F
:1023C000B0FBF2F18DE80A000B482946B4FBF2F2AB
:1023D0000BF0F0FD012008E0084B00E0084B094835
:1023E000294662B20BF0E6FD002004B070BD00BFCC
:1023F000924202008F4202009C420200954202007B
:1024000099420200CA42020038B5AA224FF0804326
:1024100055201A72187208F0EDF9174C02284FF087
:1024200000014FF00100D4E9002317D1121843EB4B
:102430000103C4E9002308F079FDD8B108F068FD74
:10244000D4E900010A2200230AF022FD0A25A0FB9C
:10245000052305FB0133C4E9002338BD121843EB03
:102460000103C4E9002301F0FDFF0020BDE838406E
:1024700008F0A4BB38BD00BF90C10720FFF7C4BF60
:10248000024BD3E9002310461946704790C107203C
:1024900038B5084D2B684BB90820FDF7F5FE04460A
:1024A000FEF782FC2060402020712C600149086802
:1024B00038BD00BF88C1072038B5054C256825B94F
:1024C0000120FDF7E1FE05702060206838BD00BFE7
:1024D00084C1072038B5094D2B685BB90C20FDF786
:1024E000D3FE0446FEF760FC00212060902020719E
:1024F000A1602C60014A106838BD00BF44C10720AC
:1025000010B5044C23681BB90120FDF7BDFE206007
:10251000206810BD4CC1072010B5044C23681BB9BE
:102520000120FDF7B1FE2060206810BD80C10720AA
:10253000B14AB24970B54023B14D4FF000704FF42D
:1025400080348B6190618C612E68ADF5047D26F03E
:10255000F0032B60286840F050042C602E6826F4AD
:1025600040532B60086840F040040C602E6826F44D
:102570007C232B60286840F428242C602E6826F4E5
:1025800070032B60286840F420042C602E6826F02D
:1025900040432B60286840F000442C606E6826F0B1
:1025A0003C036B60686840F028046C606E6826F03D
:1025B00003036B60086840F480340C606E6826F496
:1025C00040536B60086820F480040C60E96821F4D3
:1025D0004036EE60136843F0807010606C6824F43D
:1025E000402169606E68874C46F480236B60A86860
:1025F0000440AC60116841F4897646F00103136031
:10260000A86820F47014AC60A96821F07046AE6030
:10261000136823F446401060EC6824F03001E96050
:10262000EE6846F03003EB60E86820F47014EC606C
:10263000156845F000711160166826F0806313601C
:1026400008F04AFA4FF4FA6006F06BF9FFF78CFED7
:1026500008F05AFD0AF0B8F96B490AF0C1FA09F01E
:102660009FFD02460B4669480BF0A4FC08F0AAFA4D
:10267000042811D10022664805920568654E04AC15
:102680000495FFF771FEF16C6348326D736D009431
:102690000BF090FCFFF768FE0C20012108F0A4FB72
:1026A0005E4C0C20032108F0B7FB4FF400112160B1
:1026B00008F02AFD0223C008594AB0FBF3F5954201
:1026C00004D8266846EA0321216003E00233B3F50B
:1026D000807FF1D10A20012108F086FB0A20012128
:1026E00008F09AFB4F480725022405600121446049
:1026F000FFF724FE06F0DAFB1520012108F074FB39
:102700001520012108F088FB47480121056044603D
:10271000FFF714FEFEF748FB642106F01FFA10B91C
:1027200042480BF05FFC01F063FE10B940480BF02B
:1027300059FC01213F4808F0BFFBFDF7BDFE3E49B3
:10274000FFF718FE0646B8B93C480BF033FCFDF71E
:10275000B3FE3146324600F2352004F07BFE384BA2
:10276000384A002814BF104618460BF03BFCFDF712
:10277000A3FE3149FFF7FEFD334C206810F0010540
:1027800017D1204608F0ECFD98B14FF40E70FDF71C
:102790007BFD2E4A012131263A2380F8341280F83D
:1027A000356280F8363280F837521060204608F0E3
:1027B000E5FD264C26492068264DFFF7DBFD19482C
:1027C0001821FFF7BBFDFFF7CFFD286848B90820A7
:1027D000FDF75AFD0646FEF7E7FA38213060317101
:1027E0002E601C4B186801F0A5FE0446B0BB1A48C9
:1027F0000BF0F8FB33E000BF20C0092000C0092027
:1028000000C00240F0FCFCFF0024744908430200B1
:102810004440024000400240204302000040034088
:102820003F5DC6000000034000800840984302005E
:10283000C943020009240100EE430200F6430200EE
:10284000FD4202000243020054C1072058C1072084
:102850009E38020078C107201F4402000124FFF7C0
:1028600039FE01F08BFF054618B971480BF0BAFB31
:102870002C46FFF70DFE01F028FF064618B96D48FB
:102880000BF0B0FB34466C4D2A681AB90120FDF7F5
:10289000FBFC2860286801F0AFFEFFF731FE01F075
:1028A0005BFFFFF709FE01F02DFFFFF735FE01F09A
:1028B00057FFFFF701FE002101F026FF94B9FFF753
:1028C00053FDFFF7E5FD2D2101F0C8FEFFF7E0FD08
:1028D0002D2101F0CFFEFFF7EFFD4FF0FF3101F0AA
:1028E00013FF0CE0FFF7D4FD0646FFF7F3FD01F000
:1028F00071FF0AF087FA41B2304601F0C7FE0023AB
:102900004E4804A907220493059301F0DEFFA8B9FD
:1029100004A80AF0B0FDC4B2601EC1B2FD2905D9F9
:1029200004A9464A46480BF045FB07E045482146C6
:10293000424A0BF03FFB204600F0D2FEFFF7E0FDDD
:1029400001F00CFF054600200DF052F828180BF09E
:1029500067FB4FF40072002104A80AF06FFF04A87F
:1029600008F08EFA04A938480BF024FBFFF7FCFCB2
:102970008022002104A80AF061FF04A802F028FECA
:102980009DF91020531C05D004A9D2B22F480BF09A
:1029900011FB29E0FFF7C0FD01F0E4FE09281DD17D
:1029A0002B480BF01FFB04A92A480BF06DFC04A96F
:1029B00029480BF0FFFA29480BF014FB00232848A4
:1029C00003A903930BF060FC9DF90C60592E03D111
:1029D00004A802F0DFFD07E0224803E022480BF0E4
:1029E00001FB22480BF0FEFA4FF2080420686168F0
:1029F0004FF470434FF20402850A8E0AA4681168EE
:102A00001B481A680BF0D6FA2A46314619480BF0D3
:102A1000D1FA214618480BF0CDFAFFF7A5FC17486C
:102A20000BF0E0FAFFF7A0FC0DF5047D70BD00BFD0
:102A30003A440200544402007CC107206D44020065
:102A4000734402009E44020019540200CB44020069
:102A5000E7440200094502000E4502002945020034
:102A60006C4502007045020088450200B645020030
:102A7000E845020014460200414602005E4602009C
:102A800001207047F8B591E860000F7A14468FB1C5
:102A9000082A0FD1304605F0D5FC00281BDD28465A
:102AA0000E494FF0FF3206F05FFB3046012105F082
:102AB000D0FD08E00A2C05D00D2C03D0304621466D
:102AC00005F0B3FE4FB12B6828465B6821464FF0F6
:102AD000FF329847F8BD0724F5E7F8BD9846020095
:102AE0002DE9FF41CE6B04460D4601AF5EB94FF4B0
:102AF0007A7007F0B3FC31460C2238460AF09EFE8D
:102B000097E807005EE00B6C01F13406186807C80F
:102B100087E8070000278DF80370EA6B97422DD2F3
:102B2000F368511E53F827008F420CBF0522002284
:102B300000684FEA87080179002949D003680DF140
:102B400003011B689847002842D0B268974241D2DF
:102B5000F16851F8080001AB07C883E8070019467F
:102B60009DF903202846FFF78DFFFFF789FCD5E983
:102B70002223121843EB0103C5E92023029805F034
:102B800061FC0746029805F060FC421E974216DA87
:102B9000D5E92201014320D0FFF772FCD5E92023BB
:102BA000994208BF904218D3FFF76AFCD5E9222367
:102BB000121843EB0103C5E920230023019304A865
:102BC00010E9070084E80700204604B0BDE8F08162
:102BD0000137A2E706F11000BDE79DF903100A29AD
:102BE000EDD0002799E70000F0B5054685B02048F4
:102BF0000BF0E0F901A82946FFF772FF019C1CB910
:102C00001C480BF0EFF930E0029E304605F01AFC4C
:102C100000282ADDFFF734FC0746F8B1B5F8743018
:102C20003146581CA5F87400224605F1500004F006
:102C300041FF114900250A68009223681DF905101B
:102C40005B6820464FF0FF3201359847042DF4D1E0
:102C5000FFF716FCC11B09480BF0ACF9304605F034
:102C6000F6FB2068816820468847012005B0F0BD4A
:102C70009B460200D34C020072460200A1460200AD
:102C800038B5064C236833B92020FDF7FDFA054618
:102C900006F0D0F92560206838BD00BF38C1072094
:102CA00010B50446FFF7ECFF036821465B684FF060
:102CB000FF32984740B210BD13B5002302AC04F8B0
:102CC000013DFFF7DDFF01684FF0FF320B68214641
:102CD00098479DF907001CBD38B5054600246B6870
:102CE000E8689C4205D250F82400FDF7D1FA01347F
:102CF000F5E708B1FDF7CEFA284638BD0D4B70B5A3
:102D0000044640F8503BFFF7E7FF04F13406002586
:102D10007068854206D2F26852F82500FDF7B8FACD
:102D20000135F5E7206C08B1FDF7B4FA02492046F9
:102D3000216070BD80460200A841020010B5044623
:102D4000FFF7DCFF2046FDF7A3FA204610BDF8B5DB
:102D50004368044699420D4615D3C06889000BF0BC
:102D6000CBF9A668E060B700AE420BD20C20FDF7AD
:102D70008BFAE26800210160416001720136D05196
:102D80000437F1E76560F8BD2DE9F04104461420F1
:102D900016468846FDF778FA8021074605F058FD6B
:102DA000A36BE26B9A4205D3616B04F134005918AE
:102DB000FFF7CDFFE56B206C50F825300135C3F8E7
:102DC00000805F601E72E563BDE8F0812DE9F0418F
:102DD00000F150048AB000250646009520465B4964
:102DE0005B4A5C4B04F096FD009520465A495B4ACD
:102DF0005B4B04F08FFD009520465A495A4A5B4BC5
:102E000004F088FD0095204659495A4A5A4B04F06F
:102E100081FD009520465949594A5A4B04F07AFDE4
:102E2000009520465849594A594B04F073FD0095C6
:102E300020465849584A594B04F06CFD00952046ED
:102E40005749584A584B04F065FD009520465749AC
:102E5000574A584B04F05EFD009520465649574AA4
:102E6000574B04F057FD009520465649564A574B9C
:102E700004F050FD009520465549564A564B04F043
:102E800049FD009520465549554A564B04F042FDF0
:102E9000009520465449554A554B04F03BFD00959A
:102EA00020465449544A554B04F034FD00952046C1
:102EB0005349544A544B04F02DFD00952046534984
:102EC000534A544B04F026FD009520465249534A7C
:102ED000534B04F01FFD009520465249524A534B74
:102EE00004F018FD009520465149524A524B04F017
:102EF00011FDFFF7C5FE4FF4806320224FF4164109
:102F0000054606F075F8012780462F714B48FDF7FE
:102F100025FA4B48FDF71CFA304629463A46FFF79A
:102F200033FF082203A905A805F066FA05A845495C
:102F300005F0D9FC05A92A46204604F0BBFD05A8EA
:102F400005F06EFA40460AB0BDE8F0814D0501007B
:102F500001470200B746020019060100EE460200D2
:102F6000F6460200F10E0100144702000647020077
:102F70003D0601005C4702001B470200810701007B
:102F80006147020065470200010701000448020092
:102F9000C1470200890B01000348020007480200F4
:102FA000610801005248020055480200090A010068
:102FB0008348020089480200810A0100AE480200ED
:102FC000B1480200DD0A01002E610200DE48020065
:102FD000450A01000349020006490200C90D01002B
:102FE000294902002D490200C10C0100D449020008
:102FF000DC490200B11001001F4A0200264A02000B
:10300000E5100100394A02003D4A0200750D010039
:10301000734A0200794A020041190100E5430200A7
:10302000A14A0200E1110100BF4B0200CB4A02009D
:103030004D110100E1380200884B0200B92C01005B
:10304000A12C01009A41020073B500244FF4805274
:103050000B4600941849064605F0A8F9174B0425BD
:1030600033607563B463F463346406F134000221A1
:10307000FFF76DFE35657465B465F46506F15000C3
:103080001821FEF73BFCA6F87440A6F87640B4671A
:103090000B4C002200230025012086F87000C6E9B1
:1030A0002023C6E92245FFF7EBF9001941EB0501A2
:1030B000C6E9200130467CBDC44B020080460200B8
:1030C000C0D401002DE9F041804690B041480AF09B
:1030D00089FF04A8D8F84810FEF7E8FCBDF91000F5
:1030E00009F04CF800223C4B09F0AEF800223B4BB3
:1030F00009F0D4F904460D4606A8D8F84810FEF7A2
:10310000D5FCBDF91A0009F039F80022324B09F05C
:103110009BF80022314B09F0C1F906460F4608A87A
:10312000D8F84810FEF7C2FCBDF92400CDE90067CD
:1031300009F024F80022284B09F086F80022274BDA
:1031400009F0ACF922462B46CDE9020124480AF0E9
:1031500031FF0AA8D8F84C10FEF7BDFC0CA8D8F82F
:103160004C10BDF92860FEF7B6FCBDF932700EA810
:10317000D8F84C10FEF7AFFC3A46BDF93C3031466A
:1031800018480AF017FF4046FEF7E6FF006809F00E
:1031900007F802460B4614480AF00CFF4046FEF7BB
:1031A000DBFF406808F0FCFF02460B460F480AF0C0
:1031B00001FF4046FEF7D0FF806808F0F1FF0246AD
:1031C0000B460B480AF0F6FE4FF4FA7007F046F98A
:1031D0007CE700BF6F4202000000104000408F40BB
:1031E000EB4B02000D4C0200274C02003A4C02004F
:1031F0004D4C0200F0B5702085B0FDF745F8002673
:1032000024494FF4805202230096044605F0CEF87C
:10321000214B74202360676BFDF736F802234FF4CF
:10322000805200961D49054605F0C0F81C49284605
:1032300040F8381BFEF7FEFF6F639020FDF724F87F
:1032400001210746FFF700FF384605F071F82046D8
:1032500005F06EF8284605F06BF8124A0220234666
:103260000090019202964FF4805203960E490F4847
:1032700006F0ACFE0120314605F06AF823682046CE
:103280005968884728684268284690474FF0FF30C1
:1032900005B0F0BD574D020020420200684D02000B
:1032A0000042020098C107207B4D0200C53001009A
:1032B00038B5074C236833B91C20FCF7E5FF0546F9
:1032C00005F082FC256022680248026038BD00BF1C
:1032D00048C107209CC1072030B500238B420DD088
:1032E00044783CB1048C4FF6FF751419AC4228BFEA
:1032F0002C4604840133DBB22430EFE730BD0000FC
:1033000037B50E49002302A84A6840F8043D04215D
:1033100090470B4B05461C6801980421041B18605C
:1033200022460848FFF7D8FF022107482246FFF748
:10333000D3FF281C18BF01203EBD00BFA0C107203D
:1033400088C20720B4C107208DC2072008B50B4BE7
:1033500001781A780A4B914203D1198801311980FA
:1033600002E09988013199808270064A2021D36851
:103370009847003018BF012008BD00BF05C00720D6
:103380005CC20720A0C107200A4B027819780A4BBB
:103390008A4203D1DA88511CD98002E01A89511C73
:1033A00019810379C3F3C202511E61F3C50303718E
:1033B000FFF7CCBF05C007205CC2072010B5002373
:1033C000064A990012F82340844201D1501810BDDA
:1033D0000133042BF4D1002010BD00BF77C20720B9
:1033E00070B1C378591CCAB2FF2AC27008D1002339
:1033F0000448C218D17804334808102BD070F7D194
:10340000704700BF77C20720F0B503460246044666
:1034100000258D4207D02046243414F8236CC6B111
:103420000135EDB2F5E7002004468C4210D0157945
:10343000178CC5F3C20547EA0545A842164624BFC6
:1034400005461E460134E4B2243228463346ECE7F2
:103450001846F0BD38B501310446CD00FFF750FFE6
:103460001B4B20781A78824204D102211948FFF7B9
:10347000CBFF0CE004211848FFF7C6FFE17831B913
:1034800090F8235045F0800380F82330042590F80D
:103490002310002221F07F0380F8225043EA1525F3
:1034A00080F8202080F8212080F82350234602460F
:1034B00004F1200153F8044B8B4242F8044BF9D13C
:1034C000064A0379117861F3C503037138BD00BF63
:1034D00005C007208DC20720B4C1072004C0072003
:1034E00010B5FFF76BFF044608BBFFF767FF044604
:1034F000E8B9104AD378D179994202D20B46111D0E
:1035000000E01146D07AD47B984238BF0A490B4A72
:1035100038BF03469C422CBF0C461446204600216F
:1035200004220AF08BF9064BD97A481CD87220463F
:1035300010BD00BF77C207207FC2072083C20720CB
:103540005CC207202DE9F041054690460C46002755
:10355000474500F0BE8094F8233003F08000C1B2EC
:1035600069B3BDB12B786278934203D16878217832
:1035700088421ED0E87868B16978914208D12278F3
:103580009A4205D1A879A179421A5342534100E0E9
:10359000002373B994F8232094F82210208C02F0B1
:1035A0007F0341EA03218842C0F28F802046FFF763
:1035B000CDFE2046002124220AF040F985E0637800
:1035C000002B00F08280002D3DD02A7902F0C0004F
:1035D000C0281AD16A782178914202D1287898427D
:1035E000E7D0E078A978884210D1934209D12078B9
:1035F0002A78904205D1A079AA79811A484241419E
:1036000000E000210029D4D100E0E0B1A978E278FF
:10361000914218D16878984209D121782A7891424C
:1036200005D1A179AA79881A4142484100E00020D9
:1036300048B12279002161F3C50284F8201084F892
:103640002110227141E094F8232094F82200218C6B
:1036500002F07F0240EA0220814236DB2179002617
:10366000C1F3C20284F8206084F82160D6B21EB192
:103670002046FFF789FE28E001F0C000C02818D0DE
:10368000154920780978884213D1E078984210D003
:1036900078B16379E270032262F307136371204605
:1036A000FFF772FE0D482179037863F3C50121719C
:1036B00000E001266078FFF781FE18B100210422A6
:1036C0000AF0BCF8002E7FF474AF0137FFB2243447
:1036D0003EE7BDE8F08100BF05C0072004C0072019
:1036E000431ED9B2FD2903D8024A10700120704749
:1036F0000020704705C00720014B1878704700BFB5
:1037000005C0072007289CBF014B1870704700BFF9
:1037100004C007202DE9F7430446914698469DF8DA
:1037200028600D46002958D02F4B1F78B94254D03D
:10373000B8F10F0F51D8002851D0202200210AF0F3
:103740007DF8FF2D207914BF09F00302002262F3F7
:103750008710032161F30200244B20711A7827702F
:1037600062F3C50020712248A77001780BAF4B1C93
:10377000DAB20270A271657001970EB9012613E0EA
:103780000198013E03464268E07953F8081B871808
:10379000FFB2182F0193F6B205D8083020180AF0AE
:1037A0002AF8E771E9E70026124F0121284639700F
:1037B000FFF704FE0546FFF713FE00223A70637917
:1037C00025B968F307136371E57009E0A87860F321
:1037D000071363716978E17002E0002600E0064695
:1037E0003046BDE8FE8300BF05C0072004C00720A7
:1037F0006AC2072068C20720164B70B501261E70EA
:10380000044608B900251FE0FFF7A0FD0546002883
:10381000F8D0207900F0C001402903D0B1F1800236
:1038200056425641C02906D1E3782BB16078C31ABD
:1038300018BF012300E000230EB9DB0704D561792E
:1038400020460909FFF706FE024B00221A7028469F
:1038500070BD00BF68C2072082B0F0B51746421E97
:103860000446D0B28DB0FD280D46139301D9002037
:103870005AE0002BFBD0159B002BF8D0179900299C
:10388000F5D0169A002AF2D014980028EFD0002123
:103890004822284809F0D2FF00219022264809F04A
:1038A000CDFF00211022254809F0C8FF244E002139
:1038B0000C22244809F0C2FF00210C22224809F002
:1038C000BDFF3470214C224E2570344613AD0FCD10
:1038D0000FC42B68002118221E48236009F0AEFF98
:1038E000394617221B480AF0B6FE0020B26801468E
:1038F00090470028BBD09DF8601011B9FFF700FD7C
:1039000012E015480622012301900292009304A8B8
:10391000FF210022FFF7FEFE0028A8D004A8FFF731
:103920006BFF0028A3D0E9E70DB0BDE8F04002B07E
:10393000704700BF8DC20720B4C1072077C207209F
:1039400005C007206BC207205CC2072069C20720A0
:10395000A0C1072044C20720854D020070B5182B76
:103960008CB006460D4617D81C1C18BF0124002A2F
:1039700014BF214684F0010171B1019202930094B9
:1039800004A831462A469DF84030FFF7C3FE18B11F
:1039900004A8FFF731FF00E000200CB070BD13B5A4
:1039A0000446107852790B461109009122460321F2
:1039B000FFF7D4FF1CBD000030B500231A460849AC
:1039C0009C0011F823502DB1904201D1081930BD4F
:1039D0000132D2B20133042BF1D1002030BD00BF3F
:1039E00077C2072000231846044A995C09B10130C8
:1039F000C0B20433102BF7D1704700BF77C2072045
:103A00002DE9F04188B068460021202209F016FF18
:103A1000A14B1C78002C40F03B81A048202102697A
:103A200068469047002800F087809D4D69884B1CB0
:103A30006B80FFF7D7FFA8729DF8042002F0070003
:103A4000032804D097490A7842F0010009E0964D16
:103A50009DF802102D78A94205D192490B7843F0C8
:103A600002000870E6E0C2F3C2019DF800709DF804
:103A700006005FFA81FE032262438C4EB318B65CE7
:103A8000BE420AD15A78824207D19A789970B2EB35
:103A90000E0618BF0126012417E00134042CEAD1D8
:103AA000834C236899708149587001F10900834261
:103AB0001F7040F0CC8021609DF800009DF802202E
:103AC000824240F0C780002426469DF80200FFF79E
:103AD00007FD9DF80210002C08BF012601709DF81B
:103AE0000220002142708170F6B2FFF779FC1EB30C
:103AF0009DF80000A84200F09C809DF80160FF2E18
:103B00001CD16648202103686846984720B9654C57
:103B1000227842F0040121709DF8053003F00F0473
:103B2000601C1A4660F30302B4EB131F8DF80520E6
:103B300002DA6846FFF70AFC00247BE0B5422CD18C
:103B40006CB99DF8070050B1544B68461A682021A3
:103B5000904720B9534C217841F0040020709DF823
:103B6000043003F0C002402A12D19DF8071011B9A9
:103B70005048182108E04A480C216A46FFF70FFF19
:103B8000002856D1002001466A46FFF708FF50E0A2
:103B90009DF80340002C4CD1F4E7474C2378002BD0
:103BA000CAD09DF8054004F00F082709B845C3DACC
:103BB0003046FFF703FC9DF8032008F1010868F385
:103BC000030495428DF805401DD19DF8045005F081
:103BD000C004402C05D0B4F180014B4253EB0102EC
:103BE00000E0012208B1457800E00546C02C05D16F
:103BF000AE4203D02C1C18BF012400E0002444EA8C
:103C0000020530B90AE0A2B910B9684639460EE09B
:103C1000154641788DF80310847802E08DF8030092
:103C200004466846FFF792FB1DB168462146FFF740
:103C300011FC6C46FFF764FB204604221F49FFF786
:103C400081FC20461E490222FFF77CFC20E0DE1C9E
:103C5000266031E785423FF436AFFFF741FC04466A
:103C6000FFF7BEFB23783BB19DF80510A67801F065
:103C70000F00B0423FF727AF9DF8002022709DF85B
:103C8000023063709DF80510C1F30300A0701AE7BD
:103C900008B0BDE8F08100BF68C20720A0C10720BE
:103CA0005CC207208CC2072005C007206BC207201A
:103CB00000C0072044C2072069C20720B4C1072002
:103CC0008DC2072000231846094AD1184A780AB144
:103CD0000130C0B22433902BF6D1064B597809B18C
:103CE000421CD0B293F825300BB10130C0B27047FE
:103CF000B4C107208DC2072008B5FFF75FFB054B55
:103D000020B180781978421CD00001E01978182081
:103D1000484308BD04C00720034A11680160516888
:103D200092684160826070475CC2072030B5404CA9
:103D30004FF48035E5613F4CA060E068C006FCD4DC
:103D40003C488068C0B2002B6CD00B46002A5CD087
:103D5000384C93F90050072AA56030DD93F90150E3
:103D6000083AA56093F90250A56093F90350A56045
:103D700093F90450A56093F90550A56093F9065096
:103D8000A56093F907500833A5602A4CA5696D0713
:103D9000FBD5A5680D70A5684D70A5688D70A468E9
:103DA000CC70244CE568ED06FBD4A5680D71A568C0
:103DB0004D71A5688D71A468CC710831C6E7032ADE
:103DC00018DD93F90150043AA56093F90250A560FB
:103DD00093F903500433A560164CE568ED06FBD457
:103DE000A5680D70A5684D70A5688D70A468CC702D
:103DF0000431ABE70133013AE56815F0100FFBD150
:103E00000C4CA46801F8014BA0E7094B4FF4803239
:103E10009A6140B230BDE56815F0100FFBD1054C3A
:103E20000133A4689342F0DACD56024CA560F2E764
:103E300000C009200080084007B5002302A9012224
:103E400001F8013D00F01F001346FFF76FFF9DF9D9
:103E500007000EBD07B502AB03F8011D00F01F00FF
:103E600019460122002340F02000FFF75FFF0EBD3E
:103E700008B51720FFF7E0FFC0F3001008BD0720CA
:103E80007021FFF7E7BF03460A466FF05F0019464F
:103E90000023FFF74BBF08B50020FFF7CDFF20F050
:103EA000010149B20020BDE80840FFF7D3BF000080
:103EB000024B4FF08072DA61704700BF20C00920CA
:103EC00008B50020FFF7B8FF40F0010149B200201B
:103ED000FFF7C0FF024B4FF080729A6108BD00BF30
:103EE00020C0092007202021FFF7B4BF00216FF078
:103EF0001E000A460B46FFF719BF000037B50546FE
:103F00000C46FFF7F3FF28462146FFF7BCFF0D4B99
:103F10004FF0807200209A61ADF80600BDF80610DF
:103F20004A1C93B2ADF8063033B906494FF08070A1
:103F3000C861FFF7DBFF3EBDFFF79AFF0028EDD019
:103F4000F3E700BF20C0092008B51720FFF774FF72
:103F500000F0010080F0010008BD07204021FFF7BC
:103F600079BF08B503460A46612019460123FFF7C9
:103F7000DDFEC0F3420008BD00216FF01D000A46BF
:103F80000B46FFF7D3BE70B5044600200D4616461B
:103F9000FFF752FF14B100F0BF0102E040F0400013
:103FA000C1B215B101F0DF0201E041F0200216B10B
:103FB00002F0EF0301E042F01003002059B2BDE827
:103FC0007040FFF747BF10B504460020FFF734FFED
:103FD00014B900F0F7020DE0012C04D100F0FB0051
:103FE00040F0080206E0022C14BF40F0080140F047
:103FF0000C01CAB2002051B2BDE81040FFF72ABF41
:1040000008B50020FFF718FF40F0020149B2002078
:10401000BDE80840FFF71EBF08B50020FFF70CFF02
:1040200020F0020149B20020BDE80840FFF712BFAE
:1040300040F6DD13984206D840F66211B0F5166FCF
:1040400038BF084600E01846A0F1600251B20520D2
:10405000FFF700BF10B504460620FFF7EDFEFA2C6F
:1040600000F0D70102D141F0200104E0B4F5FA6F6D
:1040700008BF41F00801062049B2BDE81040FFF733
:10408000E9BE10B504460620FFF7D6FE032C34BF68
:104090002146032100F0F90040EA410251B2062016
:1040A000BDE81040FFF7D6BEF9284FF0FA0305D956
:1040B000B0F57A6F28BF4FF47A6000E01846B0FB85
:1040C000F3F0421ED3B20F2928BF0F2141EA03119A
:1040D000042049B2FFF7BEBE1130C0B2162806D880
:1040E000202928BF202140B249B2FFF7B3BE704754
:1040F000032804D004280CBF0221032100E0012181
:104100000320FFF7A7BE03460A46302019460023C6
:10411000FFF70CBE03460A462A2019460023FFF784
:1041200005BE000073B504460E461546FFF724FF92
:10413000FFF7DCFE2A4B4FF08072DA61FFF76CFF6D
:1041400000210A460120FFF71EFFFFF798FE02201C
:10415000FFF739FF3046FFF76BFF2846FFF77AFF7E
:104160000320FFF78EFF02200321FFF773FE0120DB
:104170000021FFF76FFE03214FF4FA70FFF794FF61
:1041800000202146FFF7A8FF12200021FFF762FE62
:1041900013200021FFF75EFE14200021FFF75AFED6
:1041A00015200021FFF756FE16200021FFF752FED2
:1041B0000C4908680A79009005208DF80420FFF763
:1041C00097FF68460521FFF79EFF68460521FFF728
:1041D000A1FFFFF715FF4FF4FA6004F086FB7CBDEA
:1041E00020C009208C4D0200042938B5054603D1B2
:1041F000041C18BF012400E00024FEF741F904B1BB
:104200002860204638BD000007B5084B002102AAEF
:10421000186842F8041D0B4605F03EFD019818B1E0
:1042200003494FF080520A600EBD00BFE0C2072074
:1042300004ED00E070B500238AB0019306460079D2
:1042400001AA00F0C001C0290CBF0F490F4900238B
:104250000D683146284605F01FFD044658B9224630
:1042600002A9284605F0D2FD23462846314601AA78
:1042700005F012FD0446019A1AB1054B4FF080502B
:10428000186020460AB070BDD8C20720DCC20720E3
:1042900004ED00E010B5194C226822B9032020215A
:1042A00005F031FC2060164C226822B90120202143
:1042B00005F029FC2060134C216821B9012003225C
:1042C00005F021FC2060202040F6C3114FF4FA6273
:1042D000FFF728FFFFF7F4FD162001210A4A04F03A
:1042E00037FC064B186838B10548006820B105490D
:1042F0000A68101C18BF012010BD00BFDCC20720D7
:10430000D8C20720E0C20720094201002DE9F3418D
:1043100080460F46164606F06DFA022807D132464F
:1043200040463946002305F0F0FCC6B213E00023F6
:104330000193FEF7A5F8841941F10005404639467E
:1043400001AA05F063FDC6B22EB9FEF799F88D42B9
:1043500008BF8442F2D270B2BDE8FC8137B5044692
:104360000D46FFF7C9F9237883420AD0E07840B9B7
:1043700009F082FE00F00301481CBD22504304F006
:10438000B4FAFFF795FDFFF786FD2046A9B2FFF7C7
:10439000B5FDFFF7A7FDFFF793FD06F02BFA022806
:1043A0000ED1084B002102AA186842F8041D0B46E2
:1043B00005F072FC019818B1034A4FF0805111606A
:1043C00001203EBDE0C2072004ED00E038B5044600
:1043D0000D46FFF7B9FD48B1A9B22046FFF7C1FD70
:1043E000FFF7B2FD08B9FFF7B8FD012038BD0000A6
:1043F00000B50C4B0C488DB00C490D4A09930B903D
:104400000CAB002043F8102D0A9104900FCB8DE8DF
:104410000F00084B6A200121074AFFF71DFA0DB073
:1044200000BD00BF95420100CD4301005D43010086
:10443000E941010035420100914D02000A4603495D
:10444000034608681946FFF761BF00BFDCC20720BA
:104450000A460349034608681946FFF757BF00BFDD
:10446000D8C2072008B506F0C5F90F4B02285869D5
:1044700012D142020CD5FFF725FC0C4900280CBFD5
:104480004FF0FF320122086800210B4605F03DFC89
:10449000BDE80840FFF7B4BA4302F9D5FFF712FCB4
:1044A0000028F5D108BD00BF00C00920E0C20720E8
:1044B00010B506F0A3FA0C4B1A6822F0E06020F069
:1044C000FF0119601C6844F004021A60186840F08B
:1044D000807119605C68002CFCDA034B5C6806F0A4
:1044E0009FFAC4F30B1010BD0040034030B50446E2
:1044F0004DB2006894F9041053B22A46BDE830402A
:1045000004F048BF1FB5002204AB90F9044023F823
:10451000042D4AB2022100910068214604F045FFB3
:104520009DF90C009DF80D3082B243EA022188B259
:1045300004B010BD10B52A2104461922FFF7D6FF9A
:104540000D22206894F9041004F033FFB0F12A031F
:104550005842584110BD0000234910B50A680B4667
:1045600012F010020ED08868C83088611F490A888E
:104570001F2A05D8DC6A1E4840F8224001320A8012
:1045800010202EE00B68D9072CD518480088012888
:1045900022D9174B411E04338A4207DA53F8041C10
:1045A0001C680132611A43F8041CF3E7104A002327
:1045B00050681A4600EB50008B420BDA0C4C54F852
:1045C0002340844203D9012404FA03F42243013333
:1045D0009BB2F1E707490A60044B00221A80024BA4
:1045E0000120186010BD00BF00800040E8C2072015
:1045F000ECC20720E4C2072070B50220144C012150
:1046000006F0F2FB012501210220002606F004FC41
:104610006560266706F078FD42F21073B0FBF3F098
:10462000E060A16A21F00702A262A36A43F00600DB
:10463000A062A6616169074B29436161DA680421C0
:1046400042F03000D860044B2846196070BD00BFAE
:104650000080004000C0024000E100E0044A08B5CC
:1046600001F07F034171D25C0321FFF73FFF08BDDA
:10467000964D0200044A08B501F07F038171D25CB7
:104680000221FFF733FF08BD964D0200642370B589
:1046900091FBF3F404FB13110A224CB294FBF2F6E3
:1046A00002FB164303F1300149B20546FFF7E2FF72
:1046B000092C02DC2846202103E006F130022846BE
:1046C00051B2BDE87040FFF7C9BF38B5044694F950
:1046D0000410006804F07AFE054688B120460621E1
:1046E0000022FFF703FF204607210022FFF7FEFE0E
:1046F00020462E21FFF7B2FF20462E21FFF7BAFFFA
:10470000284638BD01207047124B01F00F0140F2DE
:10471000131201709A610178CA0701D50122DA618A
:10472000037803F00201CAB212B10A4B0221D96127
:10473000027802F00401CBB213B106491022CA611B
:10474000007800F00803DAB21AB102484FF4807121
:10475000C161704720C0092001207047FFF7A8BE43
:1047600001207047044B5969C1F38130C1F34122E4
:1047700042EA8000704700BF20C0092010B5012127
:1047800004468122FFF7B2FE0122206894F904104A
:1047900004F00FFE10F0600F0CBF0020012010BDD0
:1047A00038B500210446FFF7ADFE0121812285B214
:1047B0002046FFF79BFE102328B290FBF3F008F091
:1047C00007F94FF0765108F057F9A16808F04CF856
:1047D00038BD000008B5FFF7E3FF054908F04CF9C4
:1047E000044908F0FDF94FF0844108F03DF808BD98
:1047F000000010410000A0402DE9F04F0546ADF546
:10480000177D0C46914602A8294601229A4602F0DD
:1048100081F88346002853D10CA821460A2202F0D1
:1048200079F8834608B102A837E000900190064667
:1048300007468046FDF724FE16A904464FF4007291
:1048400002A86B4602F032F98346A8B9009A9AB1E1
:10485000FDF716FEB8EB040268EB080300EB020854
:10486000FDF70EFE009A04460D460CA816A901ABF2
:1048700002F0C2F9834698B1B9F1000F01D0C9F82E
:104880000080BAF1000F01D0CAF80070A09901B100
:104890000E6002A802F0B4FA0CA802F0B1FA0FE020
:1048A000019900988142E7D1FDF7EAFD4FF0FF3210
:1048B0001440C7193F1B009C00231D403619B9E75F
:1048C00058460DF5177DBDE8F08FF0B504468DB064
:1048D0000F46164621461D4602A8002301220193D9
:1048E00002F018F8044670B91DB102A8294602F07A
:1048F0009FFA02A83946324601AB02F0D7F80446C7
:1049000002A802F07DFA20460DB0F0BDF0B50446D5
:104910008DB00F46164621461D4602A800230A22E6
:10492000019301F0F7FF044670B91DB102A82946B2
:1049300002F07EFA02A83946324601AB02F05CF979
:10494000044602A802F05CFA20460DB0F0BDF0B5B6
:1049500004468DB00F46164621461D4602A8002388
:104960001222019301F0D6FF044680B902A80DB1CE
:10497000294600E0059902F05BFA02A83946324662
:1049800001AB02F039F9044602A802F039FA2046D8
:104990000DB0F0BD7F2816D931B1FF2812D80A49D1
:1049A000803831F810007047074A8BB232F8112076
:1049B000824203D001318029F6D10B4603F18000F9
:1049C000C0B2704700207047F64F02000023064A2D
:1049D00032F8131031B1884201D00133F7E70348B0
:1049E00030F81300704700BFF6500200164E020068
:1049F00010B501200C4605F028F92060003018BFE2
:104A0000012010BD0120704710B5044605F0F2FEEC
:104A100002280AD100210B46204640F6B83205F0A4
:104A200074F9431E5842584110BD012010BD10B505
:104A3000044605F0DFFE022807D1002120460A4681
:104A40000B46BDE8104005F08FB810BD10B5044608
:104A500004F09CFA24B1012C06D100F05BFB01E0CC
:104A600000F0F8FC044600E0042404F0A3FA204619
:104A700010BD20B1012801D100F044BB04207047D3
:104A8000F8B504460F4616461D4604F07FFA3CB1C1
:104A9000012C0CD1384631462A4600F0E3FA04E0F6
:104AA000384631462A4600F019FD044600E0042449
:104AB00004F080FA2046F8BDF8B504460F461646C5
:104AC0001D4604F063FA3CB1012C0CD13846314646
:104AD0002A4600F067FA04E0384631462A4600F0DC
:104AE00019FD044600E0042404F064FA2046F8BDF1
:104AF00070B504460E46154604F048FA34B1012C50
:104B00000AD13046294600F027F903E0304629460D
:104B100000F01AFD044600E0042404F04BFA20469D
:104B200070BD000010B5044606F0EEFA074BB0FB6E
:104B3000F3F10223B1FBF3F2944202D30448036180
:104B400010BDB3F5807FF9D00233F3E740420F0088
:104B500000000340044B9860DA68D206FCD4024897
:104B6000816848B2704700BF0000034038B5FDF7C8
:104B700087FC00F5FA754FF0FF30FFF7EBFF4FF0C1
:104B8000FF30FFF7E7FFC4B2FF2C07D0FDF778FC3A
:104B90002A460023994208BF9042F0D3204638BDF0
:104BA00038B5064C4FF00075E561FFF7DFFF044BA9
:104BB000A5611A7842F00100187038BD20C00920A4
:104BC00006C0072070B505460E46FDF759FC00F1FA
:104BD00064044FF0FF30FFF7BDFFC0B2FF2809D1DA
:104BE000FDF74EFC22460023994208BF9042F0D3C5
:104BF000002070BDFE28FBD1102E06D928464FF4A8
:104C00000071002204F060F918E02C464FF0FF30EC
:104C1000FFF7A0FF20704FF0FF30FFF79BFF6070A1
:104C20004FF0FF30FFF796FFA0704FF0FF30FFF717
:104C300091FFAB19E0700434A342E7D14FF0FF308D
:104C4000FFF788FF4FF0FF30FFF784FF012070BDB2
:104C500038B505460C46FFF789FFFF281ED160B224
:104C6000FFF778FFFD2C1BD04FF400714FF0FF329F
:104C7000284604F029F94FF0FF30FFF76BFF4FF0A3
:104C8000FF30FFF767FF4FF0FF30FFF763FF00F0E3
:104C90001F00411F4A4252EB010038BD002038BDC1
:104CA000012038BD38B5044620060D4607D57720CB
:104CB0000021FFF7F7FF01283BD804F07F041D4BCC
:104CC0004FF000729A61DA61FFF750FFFF282FD191
:104CD00060B2FFF73FFF2816FFF73CFF45F30740A0
:104CE000FFF738FF45F30720FFF734FF68B2FFF7FF
:104CF00031FF402C04D0482C0CBF8720012000E05D
:104D0000952040B2FFF726FF4C2C03D14FF0FF3027
:104D1000FFF720FF0A244FF0FF30FFF71BFF01468B
:104D20000029C0B205DA013C14F0FF04F3D138BD0C
:104D3000FF2038BD20C00920054A0649137848697C
:104D4000410154BF03F0FD0343F0030313707047A8
:104D500006C0072020C009207FB505460C46FFF796
:104D6000EBFF052D18D12178012900F00F810AD31E
:104D7000022940F009818848426982F08063C3F3C8
:104D80008061617002E1844C606910F0806440F0E1
:104D9000FD80FFF705FFF9E0804B1878C00700F1B0
:104DA000F7800E2D00F2EA80DFE815F00F00190001
:104DB00054005800E800E800E800E800E800E800D7
:104DC000B200B700B900C300D40073484FF00071BF
:104DD000C161FFF7CBFEFF3818BF0120CFE04920AB
:104DE0000021FFF75FFF054608B10120C7E06846D4
:104DF0001021FFF7E7FE0028F7D09DF800109DF87E
:104E000008308A09012A07D19DF80910481C00EBD7
:104E100003239AB2930246E09DF80700810001EB5C
:104E200093129DF80630501C9DF8052003F00301F5
:104E300000EB812302F00F009DF80A109DF8092075
:104E400000EBD11002F0030100EB4100C21F03FA96
:104E500002F328E04FF4007020805CE0504D2B7886
:104E600003F00400C1B209B3CD200021FFF71AFFFF
:104E70000028BAD14FF0FF30FFF76CFE68461021D2
:104E8000FFF7A0FE0028B0D030254FF0FF30013DE5
:104E9000FFF760FE15F0FF05F7D19DF80A0010221C
:104EA000010902FA01F32360284668E04920FFF770
:104EB000F9FE0646002898D168461021FFF782FEC9
:104EC000002892D0297801F00202D0B29DF80A1091
:104ED00080B101F03F009DF80B10CA099DF80D103C
:104EE00002EB40038A09581C531E00FA03F02060AD
:104EF000304644E09DF80B30C1F38402511C03F0AE
:104F000003025B0903EBC202531C4B43236036E0F0
:104F100023490A782270002031E0492000E04A202D
:104F20000021FFF7BFFE00287FF45FAF204610216D
:104F30001DE07A200021FFF7B5FE00287FF455AF71
:104F400005464FF0FF30FFF705FE60550135042D93
:104F5000F7D1E0E7CD200021FFF7A4FE00287FF481
:104F600044AF4FF0FF30FFF7F5FD20464021FFF73B
:104F700029FED0F1010038BF002000E00420064BDC
:104F80004FF000729A6104E0042002E0002000E08B
:104F9000032004B070BD00BF20C0092006C0072058
:104FA0006CC3072070B5144605460E46FFF7C4FED5
:104FB000002C4AD0284B1A78D20748D4187800F031
:104FC0000401CBB2002B44D124484FF00072244995
:104FD000C2610B7803F00802D0B200B97602012C4E
:104FE0000DD158203146FFF75DFE30BBFE2128462B
:104FF000FFF72EFED0F1010438BF00241DE013F0AE
:10500000060F03D0D7202146FFF74CFE592031462A
:10501000FFF748FE88B92846FC21FFF719FE28B1A2
:10502000013C14F0FF0405F50075F4D10020FD21CA
:10503000FFF70EFE002808BF0124084B4FF0007157
:10504000201C996118BF012070BD042070BD032091
:1050500070BD022070BD00BF06C0072020C009201F
:105060006CC3072070B5144605460E46FFF764FE74
:10507000002C3CD0204B1878C1073AD41F494FF080
:1050800000721F4BCA61187800F00802D1B201B952
:105090007602012C0ED151203146FFF703FEF0B904
:1050A00028464FF40071FFF78DFDD0F1010438BFA1
:1050B000002414E052203146FFF7F4FD78B9284669
:1050C0004FF40071FFF77EFD28B1013C14F0FF049E
:1050D00005F50075F3D14C200021FFF7E3FD074BE8
:1050E0004FF000709861201C18BF012070BD042093
:1050F00070BD032070BD00BF06C0072020C009207E
:105100006CC3072008B5FFF717FE014B187808BDE0
:1051100006C007202DE9F341FFF70EFE554B1A7824
:1051200002F00200C1B2002940F0A0800120FFF788
:10513000F9FC0A244FF0FF30013CFFF70BFD14F09F
:10514000FF04F7D14C4B4FF000764020DE61214642
:10515000FFF7A8FD012801D0002674E0FDF790F9C3
:105160004FF4D57100F57A774820FFF79BFD0128B1
:1051700041D14FF0FF30FFF7EDFC01AA105501348B
:10518000042CF6D19DF806000128E5D19DF8071002
:10519000AA29E1D1FDF774F93C460025A94208BFD0
:1051A000A04206D3FDF76CF9A94208BFA042D3D2B2
:1051B00007E0E9204FF08041FFF774FD0028E9D1B6
:1051C000F0E77A200021FFF76DFD0028C4D10446E6
:1051D0004FF0FF30FFF7BEFC01AE30550134042C18
:1051E000F6D19DF8043003F04002D0B200280CBF85
:1051F00004260C2627E0E9202146FFF753FD01286D
:105200008CBF012602268CBF4FF041084FF0E90801
:10521000FDF736F93C460025A94208BFA0420BD352
:10522000FDF72EF9A94208BFA0420CD350204FF43D
:105230000071FFF737FD06E040460021FFF732FD21
:105240000028E5D1ECE70D490B4B4FF000720E70D2
:105250009A6146B10748017801F0FE0202701820F9
:10526000FFF760FC01E0FFF79BFC024B1878BDE8FC
:10527000FC8100BF06C0072020C009206CC30720A6
:10528000F8B51A4B05461C880E46B4F5007F174644
:1052900002D1084611460AE0B4F5807F09D10846DC
:1052A00011462246A84706F5807007F58071224610
:1052B00019E0B4F5047F07D122F4FF72084622F00A
:1052C00001014FF400720EE0B4F5847F0CD1170A8F
:1052D00008464FF480727902A847791C06F5807061
:1052E00049024FF48072A847F8BD00BF6EC3072083
:1052F00010B5034600295CDD93F900402D4A0729CB
:10530000946030DD93F901400839946093F90240CC
:10531000946093F90340946093F90440946093F986
:105320000540946093F90640946093F90740083370
:105330009460204A94696407FBD59468047094686B
:105340004470946884709268C2701A4AD468E40603
:10535000FBD4946804719468447194688471926871
:10536000C2710830C6E7032918DD93F901400439FA
:10537000946093F90240946093F90340043394607D
:105380000C4AD468E406FBD49468047094684470B2
:10539000946884709268C2700430ABE701330139BD
:1053A000D46814F0100FFBD1024A926800F8012B68
:1053B000A0E710BD0000034007B58DF80400080AFF
:1053C0000B0C8DF806008DF8071001A804218DF84C
:1053D0000530FFF78DFF0EBDF7B50D4C0646402595
:1053E000080CE5610B0A17468DF8050003228DF8BD
:1053F000071001A804218DF804208DF80630FFF76E
:1054000077FF30463946002203F05EFDA561FEBD00
:1054100000C009200D4B0E4840226FF02801DA61D0
:105420008160C268D106FCD4094B9B6808484FF0E4
:10543000FF318160C268D206FCD4054B9868030630
:10544000F4D5024A40219161C0B2704700C00920E2
:1054500000000340F7B5FFF7DDFF07461B481C4D72
:1054600081781C4C002340260288238001A8EE612D
:105470008DF806100321ADF80420FFF739FF9DF8E1
:1054800005009DF806301F28AE6117D1A3F1250253
:10549000022A13D81049252B0B7007F0010006D102
:1054A00000280CBF4FF484734FF4807305E000288C
:1054B0000CBF4FF404734FF400732380054A118826
:1054C000D1F1010038BF0020FEBD00BFD65202005E
:1054D00000C009206EC3072070C307202DE9F041EA
:1054E000064617464FEA4128FFF794FF3446002549
:1054F000C6EB0802BD42224407DA21460448FFF702
:10550000BFFE04F500740135F2E70020BDE8F0812C
:10551000D95301002DE9F041064617464FEA4128CC
:1055200004460025C6EB0802BD42224407DA2146A4
:105530000448FFF7A5FE04F500740135F2E70020EA
:10554000BDE8F0813556010008B507281CD8DFE812
:1055500000F00407131719191919FFF75BFF11E081
:105560000A4B18782538C3B2032B9ABF084A52F861
:10557000233000235B0A04E04FF40070088001E050
:1055800001230B60002008BD042008BD70C3072064
:10559000DC52020030B591B003466C4600F1400584
:1055A00018685968224603C20833AB421446F7D143
:1055B000064D40249B200021EC61FFF7FDFE68466C
:1055C0002146FFF795FEAC6111B030BD00C0092047
:1055D00070B5074D4024064600217720EC61FFF7A7
:1055E000EBFE30462146FFF783FEAC6170BD00BF85
:1055F00000C00920084B188830F01F000BD0074965
:105600000B78253BD9B203299ABF054A52F82110DD
:105610000021B1FBF0F070476EC3072070C3072074
:10562000DC520200024B1878003018BF012070478E
:105630006EC307202DE9F7434FF0FF330D46904628
:1056400001938146FFF7E6FEFFF7ECFF0446A0B1A9
:10565000164E40271648F76101880320B1F5847F74
:1056600014BF4FF400714FF480712943FFF7A4FE7B
:1056700001A80421FFF73CFEB7610C4E4022F26105
:1056800082202946FFF798FE48464146012203F052
:105690001BFC3CB1019B02A8591C40F8041D0421CD
:1056A000FFF726FE4020B061BDE8FE8300C0092060
:1056B0006EC30720F7B5114B07461E884FF0FF3029
:1056C000B6F5847F14BF4FF400764FF480760190D6
:1056D000FFF7A8FF60B10A4C4025032046EA4721A6
:1056E000E561FFF769FE01A80421FFF701FEA5614E
:1056F0000198B0F1FF3F08BF0020FEBD6EC3072038
:1057000000C009201FB501A803F00CFB9DF809207B
:105710009DF8083002F00F019DF8062003F01F00ED
:105720004B0543EA004002F01F0140EAC1239DF807
:1057300005009DF8041000F03F0243EA4210BDF856
:105740000A20C1F344035106184301F108431843EA
:1057500005B000BD10B50023D41A032C03D9CC58D2
:10576000C4500433F8E702F0030422F00302801867
:1057700000238A18A34203D0D15CC1540133F9E756
:1057800010BD8218904202D000F8011BFAE7704762
:1057900070B5164B0024224653F8085C65B10668C4
:1057A000B5420AD153F8046C8568AE4205D11E8813
:1057B000C588AE4201D105E0012401320C33032A31
:1057C000EAD10CE049B90A490C2000FB02135A89BE
:1057D000B2F5807F01D0002070BD102070BD002C7C
:1057E000F9D10229F7D0122070BD00BF7CC3072079
:1057F00074C3072070B51F4A0668002352F8084C8E
:10580000B44208D152F8045C8468A54203D11588DB
:10581000C488A54210D001330C32032BEED1164AB6
:105820001368F3B90C255D43541956518268C0883A
:1058300062600022208162810F4A0C2000FB03225B
:10584000508929B108B1002070BD4FF4807201E089
:10585000411C8AB208490C2000FB03104281581CED
:1058600070BDD36823B19369002BECD10223D9E733
:105870000123D7E77CC3072074C30720013802281F
:1058800013D80C490C2202FB00135B89B3F5807F0F
:1058900003D01BB1013B9BB200E000235043091829
:1058A0004B8123B9034A135001E0022070470020C6
:1058B000704700BF74C30720002310B50446184684
:1058C0004208E15C42EAC010013342180B2B02F09F
:1058D000FF00F5D110BD0368024613B94FF0FF3049
:1058E000704793F900003038082808D893F9011060
:1058F0003A2904D102330128136001DDEEE70020CC
:105900007047F8B503690C4601F1090163B34369B7
:1059100000229D5C01326EB2202E1BD0052E08BFE6
:10592000E525092A02D12E2701F8017BEEB2A6F166
:105930004107192F0CD81F7B082A94BF4FF0080C81
:105940004FF0100C1CEA070F1CBF06F12005EDB24A
:1059500001F8015B0B2ADCD1DD7A25721E8BDA6936
:10596000A680DB8A2260E38000250D70A669EEB177
:10597000016909B9002517E0E269002AFAD0818C93
:105980004FF6FF739942F5D0076A37F8150058B102
:105990000021FEF7FFFF0028ECD0E269511E8D4286
:1059A000E8D270550135F0E700207055F8BDF8B524
:1059B00004460079F8B1256B04F134076078394664
:1059C0002A460123FFF778F8A0B9636A2071E069DD
:1059D000EA1A824201D30020F8BDE678012EFAD9F6
:1059E000E16960786D182A4639460123FFF764F8AB
:1059F000013EF3E70120F8BDF8B50446FFF7D7FFF5
:105A000005466DBB2378032B22D16679012E1FD169
:105A100004F13407384629464FF40072FFF7B1FE0F
:105A200010494AF6552061630F4A216A6369A4F858
:105A300032022069C4F818224A1CC4F81C32C4F887
:105A400020022263607839463346FFF735F86571E6
:105A5000002160780A46FFF74BF8003018BF01209C
:105A6000F8BD00BF525261417272416110B50446E7
:105A7000A8B103689BB11A788AB1D988808881421D
:105A80000DD1D868FEF7C0FF58B123685878FEF7EB
:105A9000F0FF10F0010F0CBF0020032010BD092003
:105AA00010BD0F2010BD38B5036B044699420D465A
:105AB0000CD0FFF77CFF58B9607804F134012A4616
:105AC0000123FEF7DDFF18B9256338BD002038BD7E
:105AD000012038BD00234FF0FF3210B5037102637F
