:020000021000EC
:10000000004008207F0101004D010100E1000100D6
:100010003D0101002D0101001D0101000000000053
:1000200000000000000000000000000065AC0100BE
:100030000D01010000000000E9AC010025AD010048
:10004000FD000100FD00010009480100FD00010064
:10005000FD00010005930100FD0001006D9301000A
:10006000D5930100FD000100FD000100FD0001002D
:10007000918E0100FD000100FD000100FD00010066
:10008000FD0001004D810100FD000100FD000100A7
:10009000FD000100958D0100FD000100FD00010043
:1000A000FD000100E98C0100FD000100FD000100E0
:1000B000FD00010019B10100FD000100FD0001007B
:1000C000FD000100FD000100FD0001003467020099
:1000D00000C007202001000020C10720DC04000030
:1000E00004207146084200F00480EFF309800BF011
:1000F0007FB8EFF308800BF07BB8704708B5024873
:1001000000F0CAF9FEE700BFCA5F020008B5024866
:1001100000F0C2F9FEE700BFE05F020008B5024848
:1001200000F0BAF9FEE700BFF05F020008B5024830
:1001300000F0B2F9FEE700BFFD5F020008B502481B
:1001400000F0AAF9FEE700BF0860020008B5024807
:1001500000F0A2F9FEE700BF1360020010B5002313
:10016000934203D21C585C500433F9E710BD0023BE
:100170008B4203D200221A500433F9E7704710B5BE
:1001800014480AF06FFE13480AF06FFE124C134B2E
:100190009C4205D294E807000C34FFF7DFFFF6E736
:1001A0000F48844205D294E803000834FFF7DFFFCC
:1001B000F6E70DF0C5FB0AF06FFE02F03DFB03F021
:1001C00087F94FF416400BF047F9064800F064F940
:1001D000FEE700BF00400820CC000100D80001006D
:1001E000E00001008560020008B5024800F054F903
:1001F000FEE700BFAE60020008B5024800F04CF90F
:10020000FEE700BFB960020008B5024800F044F9FB
:10021000FEE700BFC8600200124A30B5116803460D
:1002200011B94FF08050106010680F4DC41862195A
:100230000E4D0C49AA4297BF0D480C601A180A606F
:10024000084A0C4C1168A14202D90B4810600020EA
:100250003BB10A4A116801311160094A094910602D
:100260000B6030BD24C10720FF7FFFEFFE3F07106A
:10027000FCC50720FF3F0820004008202CC10720B4
:1002800028C1072020C107200DF098BB0DF096BBB8
:100290000DF09CBB0DF09ABB30B58BB004466846A0
:1002A0000DF0D8FF214D089B07982560A360606082
:1002B00058B91F491F4A0B6893428ABF03F1604334
:1002C00003F17043A3F5E82363606068B0F5803FF5
:1002D00004D900F17041A1F5E82363601448154B7F
:1002E000016800229942E26006D86D18C5F180537A
:1002F00003F58035E5600BE00F4A914208D80F48BE
:10030000C0F1804303F58012501A0028C8BFE06096
:10031000E1610B490B480A680B490368A2610A684E
:100320006361226120460BB030BD00BFFC050000B8
:1003300024C1072000800010FF3F0820FCC50720D3
:1003400028C1072020C107202CC10720FEE700009C
:10035000014B1860704700BF34C10720014B186083
:10036000704700BF30C1072008B502480DF094FF68
:10037000FEE700BF8437020008B502480DF08CFF8D
:10038000FEE700BF9E370200002070470120704743
:10039000084B70B518680E46154640B10024AC42B3
:1003A00005DA044930570A6890470134F7E72846D0
:1003B00070BD00BF34C10720094B70B518680E46E8
:1003C000154600B970BD0024AC4206DA0448016845
:1003D0000020884730550134F6E725EAE57070BD06
:1003E00030C107207047002070470000074B196894
:1003F0008A68824207D04B68834204D0C9680A1ACF
:100400005042504170470120704700BF7CC0072018
:10041000002070470020704730B504468DB000289A
:1004200037D0684608F0D8FD9DF800309DF80110DF
:1004300003F03F0003909DF8040001F03F029DF897
:10044000025000F01F010492BDF806009DF805203F
:1004500005F01F03069102F00F05C0F30B018AB2ED
:100460000593BDF808106B1E07939DF80330A2F2A8
:100470006C75C1F30B0203F00700089595B26B1E73
:100480000990002503A80A930B950DF001FC84E860
:10049000210000200DB030BD10B504460AF008FC64
:1004A000013C14F8010F18B140B20BF011F8F8E755
:1004B000BDE810400AF00EBC38B50F4C256815F0A9
:1004C000010516D120460BF0A5F890B14FF40E703F
:1004D000FFF7DAFE094B30223A2180F8345280F8D7
:1004E000352280F8361280F83752186020460BF01B
:1004F0009FF80248006838BD40C1072044C107206A
:1005000038B5104C236813F0010517D120460BF0C5
:1005100081F898B14FF40E70FFF7B6FE012280F813
:100520003422094A31213A2380F8351280F83632D4
:1005300080F83752106020460BF07AF802480068C5
:1005400038BD00BF58C107205CC107202DE9F0412C
:10055000ADF50A7D0E4608F00BFA041E04DD0AF024
:1005600035FB20460AF0D4F8264D05AC0FCD0FC45C
:100570002B6810210DEB010200250AA823600495C9
:100580000AF082F8074604986422B0FBF2F1049165
:1005900030461D491D4A0A2308F08AFFBD4222D079
:1005A0000AAC049B04EB4514A2690BB1B2FBF3F354
:1005B000606994F80C800090A18B029388000A2354
:1005C0000190A2FB03014FF47A7200230CF0B8FDF6
:1005D00005AB03900E493046626853F8283008F0A6
:1005E00067FF0135DAE709F067FF102804D93046C4
:1005F0000849102208F05CFF01200DF50A7DBDE8D6
:10060000F08100BFB8370200D7370200FE37020082
:10061000033802002038020010B5ADF5007D0C460D
:1006200068460AF087FD204669464FF0FF3208F021
:1006300009FF01200DF5007D10BD000030B50C460E
:1006400091B02C49054608F09BF8002847D008AB2C
:10065000009309A80AA90BAA0CAB0190029103927E
:1006600004932846244906AA07AB07F0ECFF0728A5
:1006700001D000203BE09DF8390006999DF8383004
:1006800061F303008DF839000899BDF83A00079A24
:1006900061F30B0062F304030A99ADF83A009DF888
:1006A0003500099A8DF838309DF8363061F3050031
:1006B00062F304038DF835000C999DF837008DF82E
:1006C00036300B9A9DF8343061F3020062F3050373
:1006D0008DF837000DA88DF8343008F09FFC08F035
:1006E00037FD06490246204608F0E2FE012011B01F
:1006F00030BD00BF864E02004A3802001958020081
:1007000030B589B004AB0024009302220D4603AB40
:1007100018490394049407F0A3FF022827D107A8DF
:10072000009005AA0398049906AB059406940794D3
:1007300004F054F9024638B1049928460091039B0D
:100740000D4908F0B5FE10E0059A069B079C002AAB
:1007500008BF0122002B08BF012328460749B4FB2C
:10076000F2F2B4FBF3F308F0A3FE012000E0204610
:1007700009B030BD514A02006338020082380200DD
:100780002DE9F0410C46ADF5866D3049054608F07F
:1007900084F82F490746284608F0A8F82C4928462F
:1007A00008F0C4F8284608F0E1F80122014601A843
:1007B00006F0A2F9064640B1284608F0D7F82549C8
:1007C0000246204608F074FE3AE00BAD314640F296
:1007D000014228460DF08CF9009602F003F880469D
:1007E00001A829464FF480626B4606F051FA90B199
:1007F00001A806F0F7FB8FB101F0F4FFB0EB0800A1
:1008000014BF03460123144920463246B6FBF3F3D6
:1008100008F04EFE02E0009B3BB9E9E720460F4995
:100820004FF0FF3208F00EFE0AE0F618E854002FF1
:10083000D6D1204629464FF0FF3208F0EFFDCFE732
:1008400001200DF5866DBDE8F08100BFB0380200D3
:10085000514A0200B9380200CD380200D3500200DC
:10086000F0B5C1B00DAB0025009302220C460CABD5
:100870005C490B950C950D9507F0F2FE022803D10B
:100880000D980CF053FF05460C9808B956490C9189
:1008900016A80C9906F049FC034678B12046534946
:1008A0000C9A08F005FE9AE020AA802616A80EA948
:1008B0001492159606F08BFC013D08B9002DF3DC6F
:1008C00020464B490C9A08F0F3FD00252E46802067
:1008D00020AB15900EA916A8149306F078FC0028FA
:1008E00065D19DF94110002961D09DF8407007F055
:1008F0001002D3B213B10135442205E00B990E98D2
:1009000001360A180B922D2207F0020C17F0010F86
:1009100007F0040E5FFA8CF007F020070CBF2D23C0
:1009200052235FFA8EF100280CBF4FF02D0C4FF0D0
:10093000480CF8B200290CBF4FF02D0E4FF0530EAB
:1009400000280CBF2D214121BDF83C00029141122D
:10095000BDF83E7001F2BC718DE800500391C0F308
:100960004311049100F01F00F912C7F345170691D7
:100970000590079740A951F8C80D093108900991D1
:1009800020461C4908F094FD20461B494FF0FF32D9
:1009900008F044FD20A920464FF0FF3208F03EFD4C
:1009A000204616494FF0FF3208F04CFD8FE70095C6
:1009B00040AD55F8D43D12493246204608F078FD46
:1009C0000C9829460AAA06F031FC40B90A9B0B99FB
:1009D0009A7820464A430B49520808F069FD0120E5
:1009E00041B0F0BD514A0200E8380200EB38020085
:1009F0000F3902002A39020057390200D350020091
:100A00005B3902008539020070B50E46054607F0D5
:100A1000ADFF0446284607F0A9FF06F0D4FC064ABD
:100A2000064B0749002818BF13463046224608F0F7
:100A30003FFD012070BD00BF453B02003B3B020073
:100A40009939020070B50E46054607F08FFF04463F
:100A5000284607F08BFF06F04DFC064A064B074977
:100A6000002818BF13463046224608F021FD012019
:100A700070BD00BF453B02003B3B0200B5390200A0
:100A80007FB503AB0024009302220E4602AB0F4950
:100A90000294039407F0E4FD022814D1029D039C04
:100AA0002846214606F036FD09490A4A2346002811
:100AB00014BF104608460090074930462A4608F001
:100AC000F7FC012000E0204604B070BD514A02004E
:100AD0003B3B0200453B0200C739020030B58DB0F8
:100AE0000C46054607F042FF0A22014602A806F01E
:100AF00003F840B1284607F039FF1F490246204657
:100B000008F0D6FC35E08DF8030001901B49204623
:100B10007E2242F2107308F0CBFC1949204608F0FF
:100B2000C7FC236820461B680DF1030142F21072D6
:100B3000984718B19DF903007E2803D102A806F05A
:100B400051FA16E002A80DF10301012201AB06F0F3
:100B500045F928B10199012902D020460949DEE76B
:100B60002268204653689DF903104FF0FF329847E2
:100B7000D7E701200DB030BDDF390200063A020090
:100B80003E3A02005E3A02002DE9F043ADF5417DA8
:100B9000002303AD2B60029302220C4600954049CE
:100BA00002AB07F05DFD022806D020463D494FF01C
:100BB000FF3208F047FC6EE016A8296806F0B5FA87
:100BC00018B1204638492A6807E016A8029906F0AD
:100BD000ACFA28B13549029A204608F069FC5AE07F
:100BE00040A94FF4807204A807F0FEFC09A880A970
:100BF0004FF4807207F0F8FC20A880211490159122
:100C000016A80EA906F0E3FA00283ED19DF941206E
:100C1000002A3AD09DF8405005F01003DDB2002DB7
:100C2000EAD10DF14106029A334604A8204907F0A3
:100C30005DFF039A33461E4909A807F057FF04A831
:100C400007F094FE804609A807F090FE074604A826
:100C50000E9E07F08BFE814609A807F087FE2A4604
:100C600001462B460095484603F0B8FE1149124A4A
:100C70000096002814BF1046084601900F492046F0
:100C800042463B4608F014FCB6E709A807F0C0FC52
:100C900004A807F0BDFC01200DF5417DBDE8F083FF
:100CA000514A0200853A0200CA3A0200EF3A0200B5
:100CB0000F3B02003B3B0200453B0200153B02009C
:100CC00070B50C462149054607F04EFE064628B190
:100CD000FFF716FC002100F2352009E028461C49E8
:100CE00007F042FE50B1FFF7E7FB314600F2352036
:100CF0000A4606F0A1FC174B17491CE02846174985
:100D000007F032FE48B1FFF7FBFB012200F235216C
:100D100005F0A2FE124B13490DE02846124907F0D8
:100D200023FE88B1FFF7C8FB012200F2352105F050
:100D300093FE0E4B0E49002808BF19464FF0FF32B4
:100D4000204608F07FFB012070BD00BF9C3B0200E5
:100D5000A63B0200343B02003E3B0200B33B0200D4
:100D60004B3B02005B3B0200BC3B0200723B0200BB
:100D7000803B020010B501200C4607F023FC38B17F
:100D800000210A460B4609F049F82046044901E0D3
:100D9000044920464FF0FF3208F054FB012010BDFB
:100DA000C83B0200DE3B020038B5064C236833B96D
:100DB0001C20FFF769FA054608F060F825602068F6
:100DC00038BD00BF4CC107202DE9F0430C4687B069
:100DD0003C49064607F0ECFC3B498046304607F0AC
:100DE000E7FC3A498146304607F0E2FC0027054619
:100DF000039704970597B8F1000F1DD0304634498A
:100E000003AA04AB07F01FFC022807D02046314993
:100E10004FF0FF3208F016FB3D464FE0FFF7C4FFEE
:100E20009DF90C109DF9102008F01DFC0499C2B228
:100E300000912046284924E0B9F1000F2BD005ABE2
:100E400000933046254903AA04AB07F0FCFB0328B6
:100E500007D0204622494FF0FF3208F0F3FA45460A
:100E60002CE0FFF7A1FF9DF90C109DF910209DF9D2
:100E7000143008F0E9FB40B104981A49059A009033
:100E80002046039B08F014FB17E020461649039AFE
:100E900008F00EFB11E088B10226FFF785FF71B262
:100EA00008F0EEFB20B120461049324608F000FB66
:100EB0000236B6F5807FF0D100E00125284607B064
:100EC000BDE8F083744B0200F83B0200FE3B0200D9
:100ED000073C0200133C0200343C0200553C020077
:100EE000653C02008C3C0200AC3C0200C93C0200A4
:100EF0002DE9F04F5E4C93B023680E4633B92020A5
:100F0000FFF7C2F9054608F0EFF92560D4F8008034
:100F1000FFF7D2FA002512A941F8105D00F2352042
:100F20000DAA06F083F948B90D9A0E999769907841
:100F3000BC1E414344434D08670800E02F46DFF8DC
:100F40003491D9F8003063B90C20FFF79DF90446BD
:100F5000FFF72AFF9022206000202271A060C9F8CC
:100F600000404449086803F027FD04460CF0A2F84D
:100F700083460BF085FE014620460BF0CBFD3E4933
:100F80000BF0D2FE0CF096F80B900FA809F07AFF48
:100F900004F03AFC38B308F053F904F01DFC0024C7
:100FA0000346A146A2469C420AD020460A9304F07A
:100FB00073FC504584BFA14682460A9B0134F2E788
:100FC00008F052F9642303FB0AF22C483B46B2FBBB
:100FD000F0F1C1F164028DE80406304628492A4642
:100FE00008F066FA05E0304626492A463B4608F0F6
:100FF0005FFA254C23681BB90120FFF745F92060F3
:10100000206803F0B1FC044608F0A2F89DF84120E6
:101010009DF84010019001F01F0302F00F00BDF891
:10102000422003939DF83E300290C2F30B0081B240
:1010300003F01F029DF83D009DF83C30049105929D
:1010400000F03F0103F03F02079200940691B8F8C8
:1010500018005A460890B8F81A10304609910B9BB0
:101060000A4908F025FA012013B0BDE8F08F00BF4F
:101070003CC1072048C1072000002041A086010094
:10108000E93C02001D3D020050C107202B3D02003B
:1010900038B5064C236833B90420FFF7F5F8054648
:1010A00001F07AFA2560206838BD00BF38C10720FA
:1010B0002DE9F0418CB00C460546FFF7E9FF80466C
:1010C000284607F053FC31490246204608F0F0F963
:1010D00028462F4907F049FB431C064605D1204608
:1010E0002C4908F0E5F900244BE03246002128465F
:1010F00007F0BDFC014602A807F041FD02A807F079
:1011000099FA074630B920462349324608F0D0F90B
:101110003C4633E02846711C07F0DCFC014607A87A
:1011200007F02DFD07A807F085FA054610B92046FF
:101130001A490CE002A807F01BFC054607A807F0B7
:101140001AFC691E0529064605D91549204608F0EE
:10115000AFF900240FE032464046C9B201F06AFA06
:1011600030460BF075F92A46CDE9000120460D49BD
:1011700008F09EF9012407A807F04AFA02A807F030
:1011800047FA20460CB0BDE8F08100BF933D020055
:10119000514A0200983D0200AE3D0200DB3D0200D4
:1011A000FB3D0200123E020038B5FFF771FF00243C
:1011B00005460021224601F03DFA2846012122463B
:1011C00001F038FA28460221224601F033FA0120C4
:1011D00038BD000038B5064C236833B91420FFF73A
:1011E00053F8054606F088FE2560206838BD00BF2C
:1011F00054C1072008B54FF0FF320846094908F0EE
:1012000021F9FFF7E7FF06F069FE4FF4FA6009F0F5
:101210007FFA4FF080430020AA221A721870012032
:1012200008BD00BF293E020073B50C4614490546AF
:1012300007F09AFB50B1FFF7CDFF06F04FFE2046B6
:1012400010494FF0FF3208F0FDF816E0FFF7C2FF3B
:101250000646284607F08AFB40F2051301460A4A73
:1012600000933046094B06F021FF284607F07EFB2D
:1012700007490246204608F01BF901207CBD00BF4B
:101280003A3E0200403E0200593E0200CC370200C6
:101290008C3E020070B58AB005460C4607F0CAF9CC
:1012A0000B2803DD20461B490C222DE0284607F0C1
:1012B0005DFB01220146684605F01EFC06462846F5
:1012C000EEB907F053FB144B0168196042681349EB
:1012D0005A608068986043F8041C039A10492046BD
:1012E00008F0E6F8684605F07DFE4FF47A7009F0E4
:1012F0000FFA4FF08043AA221A721E7006E007F020
:1013000035FB08490246204608F0D2F801200AB011
:1013100070BD00BFAE3E0200484002400DD0ADDEC1
:10132000D53E02001D3F020070B5414EA6B03368A5
:101330000546DB070C460CD430460AF06BF940B189
:101340004FF480600CF03AFB3A49086030460AF0EE
:101350006FF92846384907F02BFA064620B30021DA
:10136000802206A80CF0C4FB002105A80491059179
:101370000090324906AA04AB284607F064F92D4ACA
:10138000049B116806A8059A13B903F0B1FB01E0AC
:1013900003F0CFFB2A4A2B490346002B08BF114616
:1013A000204608F085F832E02846274907F000FA81
:1013B00000283BD0284604AA244905AB049605968C
:1013C0008DF80F6007F03FF9049D05982A18B2F5D3
:1013D000806F0DDD20461E494FF4806210E01548F5
:1013E0009DF80F10026851559DF90F300135F61820
:1013F000049B0598E91A814205DB164920463246CE
:1014000008F056F803E0B5F5806F02DBF5E7012040
:101410000CE02268204613680DF10F014FF4FA62C8
:1014200098470028DBD120460B49BAE726B070BDAB
:1014300064C1072060C10720483F02004F3F0200FF
:10144000323F0200363F02005F3F0200663F02006B
:10145000703F0200A43F0200943F020030B50C46EA
:1014600087B00B49054608F023F8A17AE07A00918D
:10147000E188019002912089A188039004916288FB
:1014800023882846034908F013F807B030BD00BF91
:10149000B53F0200EB3F02001FB501A80C4602F069
:1014A000A5FD02F093FA01A902462046FFF7D6FFF8
:1014B000012004B010BD0000F0B58DB003AB0025D5
:1014C00000930C4617463849022202AB0295039559
:1014D00007F0C6F8A84239DD02980CF027F9C6B229
:1014E000039818B10DF0CFF9C5B200E0054604A885
:1014F000002103F00DF930B120462C494FF0FF32A6
:1015000007F0A0FFF3E7003718BF01270220009083
:1015100039463046039A2B4602F08AFB10B9204622
:1015200023490EE0002F3CD004A84FF47A7103F059
:10153000F9F8002830D09DF81010B1422CD107E006
:101540001C494FF0FF3207F07DFF2AE0284629E0D2
:101550009DF817200C2A04D1204606A93246FFF731
:101560007DFF2046002DEBD1134907F0A1FF9DF828
:1015700017309D420BDA20680CA94A19436812F90A
:10158000181C20464FF0FF3298470135EFE7204600
:101590000A4907F08DFF04E020460949029A07F046
:1015A00087FF01200DB0F0BD514A02000940020042
:1015B0002B40020067400200534002009D4702009A
:1015C0008440020038B50D4607F0D2F90446C0B297
:1015D00002F0F0F9054A064B0649002808BF1346F9
:1015E0002846224607F064FF012038BDAA400200C9
:1015F0003B3B0200B140020030B58BB00AAA4FF469
:101600007A730C4642F8243D174907F01CF8002570
:1016100002A8019903F07CF8E0B1204613499DF837
:10162000082007F045FF00259DF80F0085420BDAE2
:1016300023680AA94A1912F9181C5B6820464FF062
:10164000FF3298470135EFE72046094907F030FFA0
:101650000125DDE72DB9204606494FF0FF3207F09E
:10166000F1FE01200BB030BD6D3F0200C84002000A
:10167000D2500200DF40020037B50C4602F01CFBDE
:1016800016490546204607F013FF154920462A460D
:1016900007F00EFF2046114907F00AFFDDB111499E
:1016A000204607F005FF20460C4907F001FF002007
:1016B000451CEDB202F0EAFA48B18178027843782D
:1016C00000912046084907F0F3FE2846F0E720463F
:1016D000024907F0EDFE01203EBD00BFF0400200D0
:1016E0000B410200254102004041020038B5064C82
:1016F000236833B94C20FEF7C7FD054607F04CFCC4
:101700002560206838BD00BF68C107202DE9F04F73
:10171000ADF5757D8022044634AF894614A80021BA
:101720000CF0E6F90021802238460CF0E1F903AE16
:101730000023336020460096714914AA3B4606F008
:1017400082FF032801D00020D5E00AA814A90122B5
:1017500005F0D2F905460028F5D1FFF7C7FF04468A
:10176000306854A984F84700802205A88DF80B50F2
:10177000049506F039FF00974846624914AA336879
:1017800007F096FEA8460AA874A94FF4007204ABAD
:1017900005F07EFA38B10AA805F024FC05A806F089
:1017A00037FF0120A7E004990029F4D06F1C5649A7
:1017B000049A204607F07CFE226820469668B047CF
:1017C00000267D1EB246049B20689E420DD20DF578
:1017D000E87B1BF9061043684FF0FF32204698471C
:1017E00016F90B1001368A44EDE7816820468847D8
:1017F00005A807F0BBF8064605A806F01EFF4FF443
:101800007A7302463146204607F02AFE0121202243
:1018100005A807F056F805A807F0AAF850451FD00C
:1018200005A807F0A5F8394903465246484607F08F
:101830003FFE3749204607F03BFE2068816820467E
:1018400088472268204613680DF10B014FF47A7225
:1018500098470028F5D1781C022F9CD80746A6E7A8
:10186000049A2C490092434634AA204607F020FEF1
:1018700026682046B368984705A807F077F806461B
:1018800005A806F0DAFE314602464FF47A73204688
:1018900007F0E6FD05A8204906F060FFD0B905A8CD
:1018A00007F064F81D490246484607F001FE184952
:1018B000204607F0FDFD216820468A68904723688E
:1018C00020461B680DF10B014FF47A7298470028EF
:1018D000F5D1C0E705A8124907F046F90498114967
:1018E0008044424648460D9B07F0E2FD002D3FF440
:1018F0004AAF013D47E70DF5757DBDE8F08F00BFAC
:101900005B4102006A4102008141020093410200F2
:10191000D2500200BA410200D0410200D34102007D
:10192000D35002000B4202002DE9F04186B006AA16
:101930000026074642F80C6D0D463C4906F083FE32
:1019400038460121202206F0BCFF039B002B63D008
:10195000384606F06FFE00285ED0FFF7C7FE8DF810
:101960000B60044620680DF10B0106680522204635
:10197000B04706460028F5D10399384684F8471049
:1019800006F0F4FF4FF0FF320146204607F05AFD03
:10199000226820469768B847254B05961868374651
:1019A0000490216820460B684FF47A720DF10B0108
:1019B000984770B105A8411C03220CF07FF89DF8F0
:1019C0000B8005A804A904228DF817800CF05EF89E
:1019D00038B91821B7FBF1F301FB13726AB1013377
:1019E0000BE028684FFA88F1436801222846013746
:1019F00098470028D5D10136D3E728460D493A4605
:101A000007F056FD76B1612000900B49284632461A
:101A10000A4B07F04DFD05E0284609494FF0FF321B
:101A200007F010FD012006B0BDE8F0816D3F020017
:101A3000B13F0200174202003E420200F74202009C
:101A40003343020043682DE9F041994204460D46B4
:101A500017D3C06889000CF0A9FCA668E060B70045
:101A6000AE420DD21020FEF70FFC0021102280465E
:101A70000CF03EF8E068013640F807800437EFE7E5
:101A80006560BDE8F08100002DE9F743304D074661
:101A90002C688946002C49D12420FEF7F5FB04234D
:101AA000064680E818008460C46008214FF00108F1
:101AB000FFF7C8FF86F8208030462649264A274B84
:101AC00000942E6006F018F828682549254A264B10
:101AD000009406F011F828682449254A254B009403
:101AE00006F00AF828682449244A254B009406F099
:101AF00003F828682349244A244B009405F0FCFF8E
:101B000028682349234A244BCDF8008005F0F4FFD0
:101B100028681F49214A224B009405F0EDFF0094EC
:101B200028682049204A214B05F0E6FF3846204925
:101B300006F01AFF18B138461E4907F015F8044B95
:101B4000394618684A4603B0BDE8F04306F0A4B829
:101B50006CC10720291901005F430200664302009F
:101B60000D170100A0430200A9430200F91501006E
:101B7000FD43020000440200C51501002848020090
:101B80002344020079160100694402004D4402001A
:101B9000B9140100B244020070440200B1440200D2
:101BA000B644020099140100F6440200DB4402002E
:101BB000D3500200FC44020037B590F9045014469B
:101BC00000934AB223462946006807F048FD3EBD0F
:101BD00010B5044694F904102D220823006807F07C
:101BE00033FD206894F904103122082307F02CFDFE
:101BF000012010BD10B504462246084606233221B6
:101C0000FFF7DAFF204610BD08B5034693F904102C
:101C100020220F23006807F017FD012008BD38B50A
:101C200004460D460846224628210123FFF7C4FF3B
:101C300028462921621C0123FFF7BEFF28462A21DE
:101C4000A21C0123FFF7B8FF28462B21E21C012329
:101C5000FFF7B2FF28462C21221D0123FFF7ACFF1E
:101C600028462D21621D0123FFF7A6FF204638BD1F
:101C7000014B0360704700BF104502000120704710
:101C80000120704701207047014B0360704700BF7F
:101C900010450200034B10B504460360FEF7F8FA46
:101CA000204610BD10450200034B10B504460360EA
:101CB000FEF7EEFA204610BD1045020070B5C56B68
:101CC0000446174925F000400BF0EAF930B12846E8
:101CD0000AF0BEFB02460B4612481AE0266C104979
:101CE00026F000400BF0DCF9054630B130460AF032
:101CF000AFFB02460B460C480BE0A46C0B49204698
:101D00000BF0CEF948B120460AF0A2FB0246084883
:101D10000B460CF0A9FA012070BD284670BD00BF2B
:101D2000CDCC4C3E60450200844502000000C0411D
:101D3000A845020001460022406B3C31134608F0E2
:101D40003EB938B5FFF7A4F9002405460121224623
:101D500000F070FC28460021224600F06BFC28466B
:101D600002212246BDE8384000F064BC2DE9F74F5F
:101D70000446FFF78DF95E490190E06B0AF0CAFE58
:101D8000002120F000450BF06DF9D0B128465949EB
:101D90000BF086F970B1584928460AF0C5FF06468F
:101DA0003146206F0AF0B8FE31462067606F0AF0B6
:101DB000B1FE6067284651490AF0B6FF0026074683
:101DC00019E028464B490BF06BF970B14A49284697
:101DD0000AF0AAFF06463146606F0AF09DFE3146C2
:101DE0006067206F0AF096FE2067284643490AF094
:101DF0009BFF002706464249206C0AF08DFE002119
:101E000020F000450BF02EF9A0B1284639490BF01F
:101E100047F940B1384928460AF086FF0146A06FCD
:101E20000AF078FEA067284634490AF07DFF00F1E9
:101E3000004A12E028462F490BF032F940B12E49F2
:101E400028460AF071FF0146A06F0AF065FEA06700
:101E500028462A490AF068FF8246606C002120F07B
:101E600000450BF01DF9A0B1284622490BF018F9E6
:101E700040B1214928460AF057FF0146E06F0AF0B9
:101E800049FEE06728461F490AF04EFF00F100486E
:101E900012E0284617490BF003F940B116492846CD
:101EA0000AF042FF0146E06F0AF036FEE06728467E
:101EB00014490AF039FF8046616EA06C0AF02AFED0
:101EC000002120F000450BF0CDF8F8B128464FF086
:101ED00080410BF0E5F820B1E06E0B490AF01CFEE2
:101EE000E066284608490AF01FFF00F1004B1DE09C
:101EF0005839343D9A99993D0000C8410000484244
:101F00000AD7A33C00007A43CDCC4C3D28464FF085
:101F100080410BF0C5F820B1E06E68490AF0FAFD87
:101F2000E066284665490AF0FFFE83463846644964
:101F30000AF0FAFE63490746206F0AF0F5FE0146F3
:101F400038460AF0E9FD5E49074630460AF0ECFEE5
:101F50005C490646606F0AF0E7FE014630460AF02B
:101F6000DBFD5749064650460AF0DEFE5549054658
:101F7000A06F0AF0D9FE014628460AF0CDFD50496F
:101F8000054640460AF0D0FE4E498146E06F0AF011
:101F9000CBFE014648460AF0BFFD494980465846F7
:101FA0000AF0C2FE47498246E06E0AF0BDFE0146D5
:101FB00050460AF0B1FD814638460AF049FA024619
:101FC0000B4641480CF050F930460AF041FA0246FF
:101FD0000B463E480CF048F928460AF039FA02460A
:101FE0000B463B480CF040F948464FF07E510AF052
:101FF00093FD3849814638460AF08EFD49460AF07D
:1020000093FE354907460BF02DF830B93846334971
:102010000BF046F810B1314F00E02F4F3A460198CF
:10202000012100F007FB30462D490AF075FD4946B5
:102030000AF07AFE284906460BF014F830B930460B
:1020400026490BF02DF810B1244E00E0224E324606
:102050000198002100F0EEFA284622490AF05CFDC2
:1020600049460AF061FE1C4905460AF0FBFF30B9FB
:1020700028461A490BF014F810B1184D00E0164D1F
:102080002A460198022100F0D5FA174940460AF085
:1020900043FD002105460AF0E5FF30B92846134903
:1020A0000AF0FEFF10B1114D00E000250198032158
:1020B0002A4603B0BDE8F04F00F0BCBACDCC4C3D91
:1020C000CDCC4C3FCDCC4C3EC5450200D74502009F
:1020D000E8450200000044420000104100008C422C
:1020E00000000C4200005E42000024420000C84292
:1020F000036E10B5591C04460166FFF71BFE206EE7
:102100000A28CCBF0020012084F83900B0B994F827
:1021100038209AB92046FFF7D1FD84F8380030B94D
:10212000236E952B07DC2046FFF720FE06E02046B5
:10213000FFF707FE02E000216166F4E7012010BD11
:10214000F8B50446FEF7A4FF00254FF4FA73002704
:102150000646E361394684F8387084F8397027669A
:1021600025676567A567E567E56600F039FA01212F
:10217000304600F035FA0221304600F031FA0321F2
:10218000304600F02DFA0C48394660662A46304643
:1021900000F050FA304601212A4600F04BFA304652
:1021A00002212A4600F046FA30460321034A00F095
:1021B00041FA0120F8BD00BF0000C04000004842C5
:1021C000014B0360704700BF10450200034B10B580
:1021D00004460360FEF75CF8204610BD104502007F
:1021E0002DE9F04F8C4C0646A36989B043F40020DA
:1021F000A0610A2006F0D3FCE16904A841F40022A2
:10220000E261F16DFFF7F6FC316E06A8BDF810B083
:10221000BDF81280BDF81470FFF701FDBDF918007C
:102220000AF02EFD0AF014F900227C4B0AF08EFA17
:1022300000227B4B0AF08AFA73A3D3E900230AF049
:102240005BF90AF013FC0446B064BDF91A000AF009
:1022500017FD0AF0FDF80022704B0AF077FA002211
:102260006F4B0AF073FA68A3D3E900230AF044F92C
:102270000AF0FCFBBDF81C50F06428B20AF000FD27
:1022800081460AF0E5F80022644B0AF05FFA00226A
:10229000634B0AF05BFA5CA3D3E900230AF02CF944
:1022A0000AF0E4FB5F490546306520460AF03CFD34
:1022B0000146B06B0AF030FC5A49B06328460AF078
:1022C00033FD04462146F06B0AF026FC5649F063C4
:1022D00048460AF0E5FE20B1306C21460AF01CFCAD
:1022E0003064524B18680AF0B3F849A3D3E90023CD
:1022F0000AF002F900224E4B0AF028FA0AF0B6FB67
:10230000716C05460AF006FC4A4920F000400AF0CC
:10231000A9FE002868D10FFA88F00AF087F88246F3
:1023200038B289460AF082F880460F4642463B465C
:102330005046494609F056FC04460FFA8BF00D460C
:102340000AF074F8424684463B468B46CDF804C0FA
:1023500009F048FCDDF804C0CDE9020152466046B0
:1023600029F000432BF0004109F014FF424627F00A
:10237000004309F00FFF0AF059FB6FF48071401819
:1023800082B240F6FE639A4230D82649B06C0AF019
:10239000CBFCB16B0AF0C0FB27490AF0C5FC29460B
:1023A000074620460AF062FB24490AF0BDFC0146BC
:1023B00038460AF0B1FB1B49B063F06C0AF0B4FC7C
:1023C000F16B0AF0A9FB1C490AF0AEFC0446DDE9FA
:1023D00002010AF04BFB19490AF0A6FC014620460F
:1023E0000AF09AFBF06301E0756494E70022706BD9
:1023F00006F13801134607F011FD012009B0BDE8D0
:10240000F08F00BFAFF300804AD8124DFB21094086
:10241000B81E85EB51B8BE3F20C0092000408F4058
:10242000008066400AD7A33B0000FA4278C107202B
:10243000008062400000A04048E17A3F0AD7A33CF8
:1024400038B51A4C6368590011D51948416801F034
:1024500001024260E36843F08040E060216901F0DE
:1024600080422261636943F08040606138BDA068AA
:10247000420019D50E4DA8680AF0FEFBE2680D492E
:1024800042F080430860E360686840F001016960E1
:102490006A6842F002036B60606900F0804161612C
:1024A000226942F08043236138BD00BF8080024032
:1024B0000040094078C1072038307047052370B5C7
:1024C000C36104460020A063E0632064606460652B
:1024D000A06524210022012007F06FFC29496063D8
:1024E000D1F8C42042F40006C1F8C460D1F8AC3180
:1024F00003F48040C1F8AC01A1F5D0214A6842F054
:1025000001064E604B6843F002004860A1F5D021FF
:10251000CA681D4B02F0C006CE6018681B4E40F41E
:10252000002119601A4A1E20002106F06BFC326857
:102530004AB90820FDF7A8FE0546FEF735FCA7239B
:1025400028602B7135601148124E01683268E165D0
:102550004AB90820FDF798FE0546FEF725FCD3236F
:1025600028602B7135600B480168E06D2166FFF72C
:102570002FFB28B1206EFFF747FB08B1012070BD8B
:10258000002070BD00C00F4020C0092070C107208E
:102590004124010074C1072070B50026054606607D
:1025A000012106200D4C08F079FD0121062008F0DC
:1025B0008DFD0223FF2263602260636108F0FEFE4E
:1025C0003221B0FBF1F00923A0616360A660226FA5
:1025D000284622F00F01216770BD00BF0080014036
:1025E0000268052930B542F0010202D902600020DC
:1025F00030BD01234C1C03FA04F52A43026001FAA2
:1026000003F0032404FA00F403FA00F0093103FA9A
:1026100001F1074A156925EA04041461146920438D
:102620001061A2F5A032D06C0143D164184630BDD0
:1026300000C00240F8B517460C46054608F0BEFE3D
:102640000AF01AFB1349064638460AF021FC1249E3
:102650000AF06AFB10490AF05FFA014630460AF0B8
:1026600063FB0AF04DFD0D4B052C0FD8DFE804F09D
:10267000030507090B0DD86108E0186206E05862EF
:1026800004E0186402E0586400E098642A681A655F
:10269000F8BD00BF0000C8426F12833A00800140BD
:1026A00038B50D46044608F089FE074B0221B0FB01
:1026B000F3F0B0FBF1F2954201D3216138BDB1F5E1
:1026C000807FFAD00231F4E740420F0001480BF05E
:1026D000E3BD00BF604602007FB500F235260D461F
:1026E0000122314604F0B8F9C4B24CBB04A941F848
:1026F000044D304602AA04F099FDF8B9029A0399F4
:1027000094699378A21E5A435943540840F2E73320
:1027100048089C420F49104B8CBF4FF48062012245
:1027200088BF0B46B0FBF2F18DE80A000B48294642
:10273000B4FBF2F20BF098FD012008E0084B00E03A
:10274000084B0948294662B20BF08EFD002004B008
:1027500070BD00BF9A46020097460200A4460200E0
:102760009D460200A1460200D246020038B5AA22C8
:102770004FF0804355201A72187208F095F9174CE3
:1027800002284FF000014FF00100D4E9002317D1D7
:10279000121843EB0103C4E9002308F021FDD8B16E
:1027A00008F010FDD4E900010A2200230AF0C8FC59
:1027B0000A25A0FB052305FB0133C4E9002338BD2E
:1027C000121843EB0103C4E9002301F0B5FF002018
:1027D000BDE8384008F04CBB38BD00BF88C10720B9
:1027E000FFF7C4BF024BD3E90023104619467047D8
:1027F00088C1072038B5084D2B684BB90820FDF774
:1028000043FD0446FEF7D0FA2060402020712C6082
:102810000149086838BD00BF80C1072038B5054CA4
:10282000256825B90120FDF72FFD0570206020687F
:1028300038BD00BF7CC10720664A674970B5402398
:10284000664D4FF000704FF480348B6190618C6165
:102850002E68ADF5047D26F0F0032B60286840F06B
:1028600050042C602E6826F440532B60086840F01A
:1028700040040C602E6826F47C232B60286840F40A
:1028800028242C602E6826F470032B60286840F4FE
:1028900020042C602E6826F040432B60286840F00E
:1028A00000442C606E6826F03C036B60686840F062
:1028B00028046C606E6826F003036B60086840F4BF
:1028C00080340C606E6826F440536B60086820F416
:1028D00080040C60E96821F44036EE60136843F030
:1028E000807010606C6824F4402169606E683C4C14
:1028F00046F480236B60A8680440AC60116841F422
:10290000897646F001031360A86820F47014AC6067
:10291000A96821F07046AE60136823F44640106049
:10292000EC6824F03001E960EE6846F03003EB60BB
:10293000E86820F47014EC60156845F000711160CF
:10294000166826F08063136008F020FA4FF4FA60EE
:1029500006F041F9FFF7BAFE08F030FD0AF08CF9F5
:1029600020490AF095FA09F073FD02460B461E480D
:102970000BF07AFC08F080FA042811D100221B48E1
:10298000059205681A4E04AC0495FFF79FFEF16CA2
:102990001848326D736D00940BF066FCFFF796FEDD
:1029A0000C20012108F07AFB134C0C20032108F0C5
:1029B0008DFB4FF40011216008F000FD0223C008D8
:1029C0000E4AB0FBF3F595421AD8266846EA032171
:1029D000216019E020C0092000C0092000C0024089
:1029E000F0FCFCFF00247449104702004440024000
:1029F0000040024028470200004003403F5DC600FF
:102A00000233B3F5807FDBD10A20012108F046FBB9
:102A10000A20012108F05AFB9B4807250224056083
:102A200001214460FFF73CFE06F09AFB15200121CE
:102A300008F034FB1520012108F048FB93480121E0
:102A400005604460FFF72CFEFEF7AEF9642106F046
:102A5000DFF910B98E480BF01FFC01F033FE10B9FE
:102A60008C480BF019FC01218B4808F07FFBFDF727
:102A700023FD8A49FFF730FE0646B8B988480BF0B7
:102A8000F3FBFDF719FD3146324600F2352004F024
:102A9000D3FD844B844A002814BF104618460BF01F
:102AA000FBFBFDF709FD7D49FFF716FE7F4C206813
:102AB00010F0010517D1204608F0ACFD98B14FF495
:102AC0000E70FDF7E1FB7A4A012131263A2380F8A6
:102AD000341280F8356280F8363280F83752106050
:102AE000204608F0A5FD724C72492068FFF7F4FDFE
:102AF00018216548FFF7D4FDFFF7E8FDFFF78EFECC
:102B0000002101F009FFFFF775FE6B4D06462868AE
:102B100058B90C20FDF7B8FB0446FEF745F99021A3
:102B2000002320602171A3602C60634A106801F0CB
:102B300043FF0AF0BFFA41B2304601F0CDFE002358
:102B40005E4804A907220493059301F0B0FFA8B9D9
:102B500004A80AF0EBFDC6B2751EE8B2FD2805D93F
:102B600004A9564A56480BF07FFB07E0554831460A
:102B7000524A0BF079FB304600F01CFF524C2168A2
:102B800019B90120FDF780FB2060206801F0ECFE00
:102B9000064600200DF092F830180BF09BFB4FF426
:102BA0000072002104A80AF0A3FF04A808F0C2FAEA
:102BB00004A946480BF058FBFFF788FD802200214E
:102BC00004A80AF095FF04A802F0F4FD9DF9102076
:102BD000531C05D004A9D2B23D480BF045FB2FE0B1
:102BE0003C4D2B681BB90120FDF74EFB286028687F
:102BF00001F0BCFE09281DD137480BF04DFB04A99C
:102C000036480BF09BFC04A935480BF02DFB3548EA
:102C10000BF042FB0020039003A933480BF08EFC1D
:102C20009DF90C40592C03D104A802F0A5FD07E042
:102C30002E4803E02E480BF02FFB2E480BF02CFB08
:102C40004FF208010E684A684FF20403B50A960A6B
:102C50004FF470428C681268196827480BF004FB27
:102C60002A46314625480BF0FFFA214624480BF04E
:102C7000FBFAFFF72BFD23480BF00EFBFFF726FDB9
:102C80000DF5047D70BD00BF0000034000800840CA
:102C9000A0470200D14702006D270100F64702005D
:102CA000FE470200054702000A47020058C10720FC
:102CB0005CC107206A3B020048C107202748020088
:102CC0002D4802005848020050C107201958020040
:102CD0008548020084C10720A1480200C3480200C1
:102CE000C8480200E3480200264902002A490200BF
:102CF0004249020070490200A2490200CE49020086
:102D0000FB490200184A020001207047F8B591E81B
:102D100060000F7A14468FB1082A0FD1304605F0B3
:102D200089FC00281BDD28460E494FF0FF3206F0D3
:102D300075FB3046012105F084FD08E00A2C05D022
:102D40000D2C03D03046214605F06AFE4FB12B68AA
:102D500028465B6821464FF0FF329847F8BD0724AC
:102D6000F5E7F8BD504A02002DE9FF41CE6B04465D
:102D70000D4601AF5EB94FF47A7007F0C9FC3146D9
:102D80000C2238460AF0B4FE97E807005EE00B6CB0
:102D900001F13406186807C887E8070000278DF896
:102DA0000370EA6B97422DD2F368511E53F8270047
:102DB0008F420CBF0522002200684FEA8708017984
:102DC000002949D003680DF103011B6898470028CA
:102DD00042D0B268974241D2F16851F8080001AB85
:102DE00007C883E8070019469DF903202846FFF726
:102DF0008DFFFFF7F7FCD5E92223121843EB0103FF
:102E0000C5E92023029805F015FC0746029805F055
:102E100014FC421E974216DAD5E92201014320D064
:102E2000FFF7E0FCD5E92023994208BF904218D370
:102E3000FFF7D8FCD5E92223121843EB0103C5E9BB
:102E400020230023019304A810E9070084E8070069
:102E5000204604B0BDE8F0810137A2E706F110007A
:102E6000BDE79DF903100A29EDD0002799E700007E
:102E7000F0B5054685B020480BF0F6F901A82946C3
:102E8000FFF772FF019C1CB91C480BF005FA30E0FB
:102E9000029E304605F0CEFB00282ADDFFF7A2FC9B
:102EA0000746F8B1B5F874303146581CA5F87400DF
:102EB000224605F1500004F0EFFE114900250A6892
:102EC000009223681DF905105B6820464FF0FF3221
:102ED00001359847042DF4D1FFF784FCC11B094844
:102EE0000BF0C2F9304605F0AAFB20688168204645
:102EF0008847012005B0F0BD534A0200D3500200BC
:102F00002C4A0200594A020038B5064C236833B9EE
:102F10002020FDF7B9F9054606F0E6F9256020689E
:102F200038BD00BF3CC1072010B50446FFF7ECFFD9
:102F3000036821465B684FF0FF32984740B210BDEE
:102F400013B5002302AC04F8013DFFF7DDFF016873
:102F50004FF0FF320B68214698479DF907001CBDD2
:102F600038B5054600246B68E8689C4205D250F8E5
:102F70002400FDF78DF90134F5E708B1FDF78AF972
:102F8000284638BD0D4B70B5044640F8503BFFF75E
:102F9000E7FF04F1340600257068854206D2F26826
:102FA00052F82500FDF774F90135F5E7206C08B1FA
:102FB000FDF770F902492046216070BD384A0200D1
:102FC0001045020010B50446FFF7DCFF2046FDF770
:102FD0005FF9204610BDF8B54368044699420D4696
:102FE00015D3C06889000BF0E1F9A668E060B7006E
:102FF000AE420BD20C20FDF747F9E26800210160D8
:10300000416001720136D0510437F1E76560F8BDC7
:103010002DE9F0410446142016468846FDF734F9A0
:103020008021074605F00FFDA36BE26B9A4205D3A2
:10303000616B04F134005918FFF7CDFFE56B206C8C
:1030400050F825300135C3F800805F601E72E563DB
:10305000BDE8F0812DE9F04100F150048AB000256F
:103060000646009520466249624A634B04F044FDDF
:10307000009520466149624A624B04F03DFD00958F
:1030800020466149614A624B04F036FD00952046B6
:103090006049614A614B04F02FFD0095204660496C
:1030A000604A614B04F028FD009520465F49604A64
:1030B000604B04F021FD009520465F495F4A604B5C
:1030C00004F01AFD009520465E495F4A5F4B04F00C
:1030D00013FD009520465E495E4A5F4B04F00CFDEF
:1030E000009520465D495E4A5E4B04F005FD009563
:1030F00020465D495D4A5E4B04F0FEFC009520468B
:103100005C495D4A5D4B04F0F7FC009520465C4944
:103110005C4A5D4B04F0F0FC009520465B495C4A3C
:103120005C4B04F0E9FC009520465B495B4A5C4B34
:1031300004F0E2FC009520465A495B4A5B4B04F0E0
:10314000DBFC009520465A495A4A5B4B04F0D4FCFC
:103150000095204659495A4A5A4B04F0CDFC009537
:1031600020465949594A5A4B04F0C6FC009520465E
:103170005849594A594B04F0BFFC0095204658491C
:10318000584A594B04F0B8FC009520465749584A14
:10319000584B04F0B1FCFFF7B7FE4FF480632022D8
:1031A0004FF41641054606F07DF8012780462F7141
:1031B0005148FDF7D3F85148FDF7CAF83046294683
:1031C0003A46FFF725FF082203A905A805F00CFAE7
:1031D00005A84B4905F0C8FC05A92A46204604F07D
:1031E0005BFD05A805F014FA40460AB0BDE8F08181
:1031F0004D050100B94A02006F4A0200190601009C
:10320000A64A0200AE4A0200F10E0100CC4A0200BA
:10321000BE4A02003D060100144B0200D34A0200E0
:1032200081070100194B02001D4B0200010701003C
:10323000BC4B0200794B0200890B0100BB4B020022
:10324000BF4B0200610801000A4C02000D4C020055
:10325000090A01003B4C0200414C0200810A0100B6
:10326000664C0200694C0200DD0A01002E65020076
:10327000964C0200450A0100BB4C0200BE4C020005
:10328000C90D0100E14C0200E54C0200C10C010037
:103290008C4D0200944D0200F5110100D74D020043
:1032A000DE4D020029120100F14D0200F54D020031
:1032B000750D01002B4E0200314E0200891A0100EB
:1032C000ED470200594E0200B1100100834E02008A
:1032D0008A4E0200A9110100AC4E0200B14E02005C
:1032E00029130100B54F0200C14E020095120100E2
:1032F000AD3B02007E4F0200412F0100292F01004B
:10330000FC44020073B500244FF480520B46009435
:103310001849064605F03CF9174B042533607563E0
:10332000B463F463346406F134000221FFF753FE02
:1033300035657465B465F46506F150001821FEF733
:1033400081FBA6F87440A6F87640B4670B4C0022C7
:1033500000230025012086F87000C6E92023C6E975
:103360002245FFF73FFA001941EB0501C6E92001AC
:1033700030467CBDBA4F0200384A0200C0D401007A
:103380002DE9F04F804693B04046FFF795F8D0F80E
:1033900000C0D0F804B0D0F808A0D0F80C90434892
:1033A000CDF814C00AF078FF06A8D8F85C10FEF734
:1033B00021FCBDF9180009F039F800223C4B09F056
:1033C0009BF800223B4B09F0C1F904460D4608A8C2
:1033D000D8F85C10FEF70EFCBDF9220009F026F8C3
:1033E0000022334B09F088F80022324B09F0AEF985
:1033F00006460F460AA8D8F85C10FEF7FBFBBDF99D
:103400002C00CDE9006709F011F80022284B09F0E3
:1034100073F80022274B09F099F922462B46CDE993
:10342000020125480AF020FF0CA8D8F86010FEF72A
:10343000F6FB0EA8D8F86010BDF93060FEF7EFFB80
:10344000BDF93A7010A8D8F86010FEF7E8FB3A46CC
:10345000BDF94430314619480AF006FFDDF814C0C2
:10346000604608F0F5FF02460B4615480AF0FCFEE0
:10347000584608F0EDFF02460B4612480AF0F4FEEB
:10348000504608F0E5FF02460B460F480AF0ECFEF6
:10349000484608F0DDFF02460B460C480AF0E4FE01
:1034A0004FF4FA7007F034F96EE700BF7746020078
:1034B0000000104000408F40DF4F0200015002002A
:1034C0001B5002002E5002004150020054500200D6
:1034D000F0B5642085B0FCF7D7FE002522494FF4F3
:1034E000805202230095044605F052F81F4B8020BD
:1034F0002360676BFCF7C8FE01234FF480521C4920
:103500000095064605F044F81A487763306090202D
:10351000FCF7BAFE01210746FFF7F4FE384604F037
:10352000F9FF204604F0F6FF304604F0F3FF12499D
:103530000127234601914FF480520097029503958D
:103540000E490F4806F09CFE2946384604F0F2FF6B
:10355000226820465368984730684168304688475B
:103560004FF0FF3005B0F0BD575102002846020071
:10357000685102000846020090C107207B510200FA
:103580008133010038B5074C236833B91C20FCF7A0
:103590007BFE054605F072FC256022680248026049
:1035A00038BD00BF4CC1072094C1072030B50023AF
:1035B0008B420DD044783CB1048C4FF6FF75141942
:1035C000AC4228BF2C4604840133DBB22430EFE741
:1035D00030BD000037B50E49002302A84A6840F804
:1035E000043D042190470B4B05461C6801980421BB
:1035F000041B186022460848FFF7D8FF022107483D
:103600002246FFF7D3FF281C18BF01203EBD00BF94
:1036100098C1072080C20720ACC1072085C20720BF
:1036200008B50B4B01781A780A4B914203D11988DF
:103630000131198002E09988013199808270064A2F
:103640002021D3689847003018BF012008BD00BF73
:1036500005C0072054C2072098C107200A4B0278F2
:1036600019780A4B8A4203D1DA88511CD98002E0CA
:103670001A89511C19810379C3F3C202511E61F3E7
:10368000C5030371FFF7CCBF05C0072054C2072054
:1036900010B50023064A990012F82340844201D154
:1036A000501810BD0133042BF4D1002010BD00BF11
:1036B0006FC2072070B1C378591CCAB2FF2AC2700A
:1036C00008D100230448C218D17804334808102BCD
:1036D000D070F7D1704700BF6FC20720F0B5034626
:1036E0000246044600258D4207D02046243414F8B3
:1036F000236CC6B10135EDB2F5E7002004468C42DB
:1037000010D01579178CC5F3C20547EA0545A842C4
:10371000164624BF05461E460134E4B2243228462C
:103720003346ECE71846F0BD38B501310446CD000C
:10373000FFF750FF1B4B20781A78824204D10221F8
:103740001948FFF7CBFF0CE004211848FFF7C6FF2C
:10375000E17831B990F8235045F0800380F82330A8
:10376000042590F82310002221F07F0380F82250D6
:1037700043EA152580F8202080F8212080F8235086
:103780002346024604F1200153F8044B8B4242F8D1
:10379000044BF9D1064A0379117861F3C50303712B
:1037A00038BD00BF05C0072085C20720ACC1072077
:1037B00004C0072010B5FFF76BFF044608BBFFF7F6
:1037C00067FF0446E8B9104AD378D179994202D20A
:1037D0000B46111D00E01146D07AD47B984238BFC9
:1037E0000A490B4A38BF03469C422CBF0C4614467C
:1037F0002046002104220AF07BF9064BD97A481CA6
:10380000D872204610BD00BF6FC2072077C20720C4
:103810007BC2072054C207202DE9F041054690469F
:103820000C460027474500F0BE8094F8233003F093
:103830008000C1B269B3BDB12B786278934203D1E5
:103840006878217888421ED0E87868B1697891421A
:1038500008D122789A4205D1A879A179421A534217
:10386000534100E0002373B994F8232094F8221008
:10387000208C02F07F0341EA03218842C0F28F804E
:103880002046FFF7CDFE2046002124220AF030F921
:1038900085E06378002B00F08280002D3DD02A79EE
:1038A00002F0C000C0281AD16A782178914202D172
:1038B00028789842E7D0E078A978884210D19342DE
:1038C00009D120782A78904205D1A079AA79811A65
:1038D0004842414100E000210029D4D100E0E0B19C
:1038E000A978E278914218D16878984209D1217874
:1038F0002A78914205D1A179AA79881A4142484192
:1039000000E0002048B12279002161F3C50284F86B
:10391000201084F82110227141E094F8232094F8BB
:103920002200218C02F07F0240EA0220814236DB35
:1039300021790026C1F3C20284F8206084F8216056
:10394000D6B21EB12046FFF789FE28E001F0C00084
:10395000C02818D0154920780978884213D1E0781A
:10396000984210D078B16379E270032262F30713B2
:1039700063712046FFF772FE0D482179037863F3E7
:10398000C501217100E001266078FFF781FE18B1C2
:10399000002104220AF0ACF8002E7FF474AF013746
:1039A000FFB224343EE7BDE8F08100BF05C0072028
:1039B00004C00720431ED9B2FD2903D8024A107063
:1039C000012070470020704705C00720014B187880
:1039D000704700BF05C0072007289CBF014B187027
:1039E000704700BF04C007202DE9F7430446914605
:1039F00098469DF828600D46002958D02F4B1F7817
:103A0000B94254D0B8F10F0F51D8002851D020221C
:103A100000210AF06DF8FF2D207914BF09F0030290
:103A2000002262F38710032161F30200244B20710E
:103A30001A78277062F3C50020712248A7700178B8
:103A40000BAF4B1CDAB20270A271657001970EB910
:103A5000012613E00198013E03464268E07953F8DD
:103A6000081B8718FFB2182F0193F6B205D808304B
:103A700020180AF01AF8E771E9E70026124F012131
:103A800028463970FFF704FE0546FFF713FE0022B3
:103A90003A70637925B968F307136371E57009E03B
:103AA000A87860F3071363716978E17002E000267B
:103AB00000E006463046BDE8FE8300BF05C0072093
:103AC00004C0072062C2072060C20720164B70B5F1
:103AD00001261E70044608B900251FE0FFF7A0FD6F
:103AE00005460028F8D0207900F0C001402903D015
:103AF000B1F1800256425641C02906D1E3782BB17C
:103B00006078C31A18BF012300E000230EB9DB0759
:103B100004D5617920460909FFF706FE024B002211
:103B20001A70284670BD00BF60C2072082B0F0B591
:103B30001746421E0446D0B28DB0FD280D461393A1
:103B400001D900205AE0002BFBD0159B002BF8D0A8
:103B500017990029F5D0169A002AF2D01498002857
:103B6000EFD000214822284809F0C2FF002190220E
:103B7000264809F0BDFF00211022254809F0B8FFB2
:103B8000244E00210C22244809F0B2FF00210C220F
:103B9000224809F0ADFF3470214C224E2570344686
:103BA00013AD0FCD0FC42B68002118221E482360CF
:103BB00009F09EFF394617221B480AF0A6FE002096
:103BC000B268014690470028BBD09DF8601011B93B
:103BD000FFF700FD12E01548062201230190029232
:103BE000009304A8FF210022FFF7FEFE0028A8D0C2
:103BF00004A8FFF76BFF0028A3D0E9E70DB0BDE8EC
:103C0000F04002B0704700BF85C20720ACC107205A
:103C10006FC2072005C0072063C2072054C20720D7
:103C200061C2072098C107203CC2072085510200CD
:103C300070B5182B8CB006460D4617D81C1C18BF43
:103C40000124002A14BF214684F0010171B10192C0
:103C50000293009404A831462A469DF84030FFF7AD
:103C6000C3FE18B104A8FFF731FF00E000200CB03C
:103C700070BD13B50446107852790B4611090091B6
:103C800022460321FFF7D4FF1CBD000030B50023FE
:103C90001A4608499C0011F823502DB1904201D1D9
:103CA000081930BD0132D2B20133042BF1D100200A
:103CB00030BD00BF6FC2072000231846044A995C3C
:103CC00009B10130C0B20433102BF7D1704700BFE7
:103CD0006FC207202DE9F04188B0684600212022FC
:103CE00009F006FFA14B1C78002C40F03B81A04856
:103CF0002021026968469047002800F087809D4D8A
:103D000069884B1C6B80FFF7D7FFA8729DF80420D1
:103D100002F00700032804D097490A7842F0010016
:103D200009E0964D9DF802102D78A94205D19249DF
:103D30000B7843F002000870E6E0C2F3C2019DF880
:103D400000709DF806005FFA81FE032262438C4EEC
:103D5000B318B65CBE420AD15A78824207D19A782B
:103D60009970B2EB0E0618BF0126012417E001344A
:103D7000042CEAD1834C236899708149587001F171
:103D8000090083421F7040F0CC8021609DF8000044
:103D90009DF80220824240F0C780002426469DF80C
:103DA0000200FFF707FD9DF80210002C08BF012656
:103DB00001709DF80220002142708170F6B2FFF779
:103DC00079FC1EB39DF80000A84200F09C809DF88D
:103DD0000160FF2E1CD16648202103686846984781
:103DE00020B9654C227842F0040121709DF805301D
:103DF00003F00F04601C1A4660F30302B4EB131FB8
:103E00008DF8052002DA6846FFF70AFC00247BE003
:103E1000B5422CD16CB99DF8070050B1544B68469F
:103E20001A682021904720B9534C217841F00400B2
:103E300020709DF8043003F0C002402A12D19DF892
:103E4000071011B95048182108E04A480C216A4669
:103E5000FFF70FFF002856D1002001466A46FFF702
:103E600008FF50E09DF80340002C4CD1F4E7474C8C
:103E70002378002BCAD09DF8054004F00F082709CD
:103E8000B845C3DA3046FFF703FC9DF8032008F17C
:103E9000010868F3030495428DF805401DD19DF893
:103EA000045005F0C004402C05D0B4F180014B4211
:103EB00053EB010200E0012208B1457800E005461D
:103EC000C02C05D1AE4203D02C1C18BF012400E049
:103ED000002444EA020530B90AE0A2B910B96846E4
:103EE00039460EE0154641788DF80310847802E0DB
:103EF0008DF8030004466846FFF792FB1DB1684643
:103F00002146FFF711FC6C46FFF764FB20460422B4
:103F10001F49FFF781FC20461E490222FFF77CFC67
:103F200020E0DE1C266031E785423FF436AFFFF724
:103F300041FC0446FFF7BEFB23783BB19DF805101A
:103F4000A67801F00F00B0423FF727AF9DF80020A0
:103F500022709DF8023063709DF80510C1F30300D4
:103F6000A0701AE708B0BDE8F08100BF60C207206A
:103F700098C1072054C2072084C2072005C007202B
:103F800063C2072000C007203CC2072061C207208F
:103F9000ACC1072085C2072000231846094AD11862
:103FA0004A780AB10130C0B22433902BF6D1064BC7
:103FB000597809B1421CD0B293F825300BB10130C9
:103FC000C0B27047ACC1072085C2072008B5FFF713
:103FD0005FFB054B20B180781978421CD00001E0CE
:103FE00019781820484308BD04C00720034A116807
:103FF00001605168926841608260704754C2072036
:1040000030B5404C4FF48035E5613F4CA060E0682E
:10401000C006FCD43C488068C0B2002B6CD00B4674
:10402000002A5CD0384C93F90050072AA56030DD97
:1040300093F90150083AA56093F90250A56093F9ED
:104040000350A56093F90450A56093F90550A5604D
:1040500093F90650A56093F907500833A5602A4CE0
:10406000A5696D07FBD5A5680D70A5684D70A5689D
:104070008D70A468CC70244CE568ED06FBD4A5686F
:104080000D71A5684D71A5688D71A468CC7108315A
:10409000C6E7032A18DD93F90150043AA56093F9A5
:1040A0000250A56093F903500433A560164CE568EF
:1040B000ED06FBD4A5680D70A5684D70A5688D70E0
:1040C000A468CC700431ABE70133013AE56815F020
:1040D000100FFBD10C4CA46801F8014BA0E7094B71
:1040E0004FF480329A6140B230BDE56815F0100F90
:1040F000FBD1054C0133A4689342F0DACD56024C53
:10410000A560F2E700C009200080084007B5002341
:1041100002A9012201F8013D00F01F001346FFF73C
:104120006FFF9DF907000EBD07B502AB03F8011D37
:1041300000F01F0019460122002340F02000FFF785
:104140005FFF0EBD08B51720FFF7E0FFC0F30010BA
:1041500008BD07207021FFF7E7BF03460A466FF04E
:104160005F0019460023FFF74BBF08B50020FFF79B
:10417000CDFF20F0010149B20020BDE80840FFF763
:10418000D3BF0000024B4FF08072DA61704700BF6E
:1041900020C0092008B50020FFF7B8FF40F001015A
:1041A00049B20020FFF7C0FF024B4FF080729A61C6
:1041B00008BD00BF20C0092007202021FFF7B4BFA1
:1041C00000216FF01E000A460B46FFF719BF0000E2
:1041D00037B505460C46FFF7F3FF28462146FFF7A3
:1041E000BCFF0D4B4FF0807200209A61ADF80600C5
:1041F000BDF806104A1C93B2ADF8063033B9064933
:104200004FF08070C861FFF7DBFF3EBDFFF79AFFFC
:104210000028EDD0F3E700BF20C0092008B5172023
:10422000FFF774FF00F0010080F0010008BD0720D7
:104230004021FFF779BF08B503460A4661201946B9
:104240000123FFF7DDFEC0F3420008BD00216FF03F
:104250001D000A460B46FFF7D3BE70B5044600208A
:104260000D461646FFF752FF14B100F0BF0102E001
:1042700040F04000C1B215B101F0DF0201E041F0B1
:10428000200216B102F0EF0301E042F0100300201B
:1042900059B2BDE87040FFF747BF10B50446002093
:1042A000FFF734FF14B900F0F7020DE0012C04D140
:1042B00000F0FB0040F0080206E0022C14BF40F0C2
:1042C000080140F00C01CAB2002051B2BDE8104014
:1042D000FFF72ABF08B50020FFF718FF40F00201E2
:1042E00049B20020BDE80840FFF71EBF08B5002016
:1042F000FFF70CFF20F0020149B20020BDE80840A2
:10430000FFF712BF40F6DD13984206D840F662115F
:10431000B0F5166F38BF084600E01846A0F16002FD
:1043200051B20520FFF700BF10B504460620FFF785
:10433000EDFEFA2C00F0D70102D141F0200104E09B
:10434000B4F5FA6F08BF41F00801062049B2BDE894
:104350001040FFF7E9BE10B504460620FFF7D6FE71
:10436000032C34BF2146032100F0F90040EA41024A
:1043700051B20620BDE81040FFF7D6BEF9284FF035
:10438000FA0305D9B0F57A6F28BF4FF47A6000E0E0
:104390001846B0FBF3F0421ED3B20F2928BF0F21FD
:1043A00041EA0311042049B2FFF7BEBE1130C0B28A
:1043B000162806D8202928BF202140B249B2FFF78D
:1043C000B3BE7047032804D004280CBF0221032188
:1043D00000E001210320FFF7A7BE03460A46302074
:1043E00019460023FFF70CBE03460A462A20194649
:1043F0000023FFF705BE000073B504460E461546C0
:10440000FFF724FFFFF7DCFE2A4B4FF08072DA61E2
:10441000FFF76CFF00210A460120FFF71EFFFFF7A0
:1044200098FE0220FFF739FF3046FFF76BFF284662
:10443000FFF77AFF0320FFF78EFF02200321FFF72B
:1044400073FE01200021FFF76FFE03214FF4FA7085
:10445000FFF794FF00202146FFF7A8FF122000215C
:10446000FFF762FE13200021FFF75EFE14200021FB
:10447000FFF75AFE15200021FFF756FE16200021F7
:10448000FFF752FE0C4908680A79009005208DF864
:104490000420FFF797FF68460521FFF79EFF684657
:1044A0000521FFF7A1FFFFF715FF4FF4FA6004F0B5
:1044B00076FB7CBD20C009208C510200042938B550
:1044C000054603D1041C18BF012400E00024FEF7B8
:1044D00089F904B12860204638BD000007B5084BB3
:1044E000002102AA186842F8041D0B4605F02EFDB3
:1044F000019818B103494FF080520A600EBD00BF09
:10450000D8C2072004ED00E070B500238AB0019303
:104510000646007901AA00F0C001C0290CBF0F496E
:104520000F4900230D683146284605F00FFD04466B
:1045300058B9224602A9284605F0C2FD234628465E
:10454000314601AA05F002FD0446019A1AB1054B55
:104550004FF08050186020460AB070BDD0C20720CE
:10456000D4C2072004ED00E010B5194C226822B92E
:104570000320202105F021FC2060164C226822B97E
:104580000120202105F019FC2060134C216821B97D
:104590000120032205F011FC2060202040F6C31109
:1045A0004FF4FA62FFF728FFFFF7F4FD1620012110
:1045B0000A4A04F027FC064B186838B10548006821
:1045C00020B105490A68101C18BF012010BD00BFAA
:1045D000D4C20720D0C20720D8C20720DD44010082
:1045E0002DE9F34180460F46164606F05DFA022893
:1045F00007D1324640463946002305F0E0FCC6B2FA
:1046000013E000230193FEF7EDF8841941F1000552
:104610004046394601AA05F053FDC6B22EB9FEF751
:10462000E1F88D4208BF8442F2D270B2BDE8FC814D
:1046300037B504460D46FFF7C9F9237883420AD0FF
:10464000E07840B909F072FE00F00301481CBD2279
:10465000504304F0A4FAFFF795FDFFF786FD2046CE
:10466000A9B2FFF7B5FDFFF7A7FDFFF793FD06F031
:104670001BFA02280ED1084B002102AA186842F842
:10468000041D0B4605F062FC019818B1034A4FF077
:104690008051116001203EBDD8C2072004ED00E02A
:1046A00038B504460D46FFF7B9FD48B1A9B220461A
:1046B000FFF7C1FDFFF7B2FD08B9FFF7B8FD012014
:1046C00038BD000000B50C4B0C488DB00C490D4AAC
:1046D00009930B900CAB002043F8102D0A91049025
:1046E0000FCB8DE80F00084B6A200121074AFFF726
:1046F0001DFA0DB000BD00BF69450100A1460100D3
:1047000031460100BD4401000945010091510200FC
:104710000A460349034608681946FFF761BF00BF10
:10472000D4C207200A460349034608681946FFF722
:1047300057BF00BFD0C2072008B506F0B5F90F4B30
:104740000228586912D142020CD5FFF725FC0C490A
:1047500000280CBF4FF0FF320122086800210B46F1
:1047600005F02DFCBDE80840FFF7B4BA4302F9D5C7
:10477000FFF712FC0028F5D108BD00BF00C00920DA
:10478000D8C2072010B506F093FA0C4B1A6822F035
:10479000E06020F0FF0119601C6844F004021A6018
:1047A000186840F0807119605C68002CFCDA034BDB
:1047B0005C6806F08FFAC4F30B1010BD0040034094
:1047C00030B504464DB2006894F9041053B22A463D
:1047D000BDE8304004F038BF1FB5002204AB90F9AB
:1047E000044023F8042D4AB20221009100682146BA
:1047F00004F035FF9DF90C009DF80D3082B243EABC
:10480000022188B204B010BD234910B50A680B46D6
:1048100012F010020ED08868C83088611F490A88DB
:104820001F2A05D8DC6A1E4840F8224001320A805F
:1048300010202EE00B68D9072CD5184800880128D5
:1048400022D9174B411E04338A4207DA53F8041C5D
:104850001C680132611A43F8041CF3E7104A002374
:1048600050681A4600EB50008B420BDA0C4C54F89F
:104870002340844203D9012404FA03F42243013380
:104880009BB2F1E707490A60044B00221A80024BF1
:104890000120186010BD00BF00800040E0C207206A
:1048A000E4C20720DCC20720044A08B501F07F03F8
:1048B0004171D25C0321FFF783FF08BD96510200CE
:1048C000044A08B501F07F038171D25C0221FFF731
:1048D00077FF08BD96510200642370B591FBF3F495
:1048E00004FB13110A224CB294FBF2F602FB1643AE
:1048F00003F1300149B20546FFF7E2FF092C02DC63
:104900002846202103E006F13002284651B2BDE8D6
:104910007040FFF7C9BF0000124B01F00F0140F2D9
:10492000131201709A610178CA0701D50122DA6178
:10493000037803F00201CAB212B10A4B0221D96115
:10494000027802F00401CBB213B106491022CA6109
:10495000007800F00803DAB21AB102484FF480710F
:10496000C161704720C00920FFF70CBF044B596993
:10497000C1F38130C1F3412242EA8000704700BF99
:1049800020C0092038B500210446FFF725FF01218A
:10499000812285B22046FFF713FF102328B290FB37
:1049A000F3F008F06DF94FF0765108F0BDF9A16809
:1049B00008F0B2F838BD000008B5FFF7E3FF05497D
:1049C00008F0B2F9044908F063FA4FF0844108F0A6
:1049D000A3F808BD000010410000A0402DE9F04FF1
:1049E0000546ADF5177D0C46914602A829460122E1
:1049F0009A4602F081F88346002853D10CA821463C
:104A00000A2202F079F8834608B102A837E0009044
:104A10000190064607468046FDF7E4FE16A90446C7
:104A20004FF4007202A86B4602F032F98346A8B92F
:104A3000009A9AB1FDF7D6FEB8EB040268EB0803C2
:104A400000EB0208FDF7CEFE009A04460D460CA8C6
:104A500016A901AB02F0C2F9834698B1B9F1000F73
:104A600001D0C9F80080BAF1000F01D0CAF8007077
:104A7000A09901B10E6002A802F0B4FA0CA802F0ED
:104A8000B1FA0FE0019900988142E7D1FDF7AAFE43
:104A90004FF0FF321440C7193F1B009C00231D40FC
:104AA0003619B9E758460DF5177DBDE8F08FF0B51A
:104AB00004468DB00F46164621461D4602A8002327
:104AC0000122019302F018F8044670B91DB102A842
:104AD000294602F09FFA02A83946324601AB02F09D
:104AE000D7F8044602A802F07DFA20460DB0F0BDCA
:104AF000F0B504468DB00F46164621461D4602A865
:104B000000230A22019301F0F7FF044670B91DB19A
:104B100002A8294602F07EFA02A83946324601ABC5
:104B200002F05CF9044602A802F05CFA20460DB0DF
:104B3000F0BDF0B504468DB00F46164621461D4621
:104B400002A800231222019301F0D6FF044680B987
:104B500002A80DB1294600E0059902F05BFA02A80F
:104B60003946324601AB02F039F9044602A802F098
:104B700039FA20460DB0F0BD7F2816D931B1FF2893
:104B800012D80A49803831F810007047074A8BB2B2
:104B900032F81120824203D001318029F6D10B4630
:104BA00003F18000C0B2704700207047F653020046
:104BB0000023064A32F8131031B1884201D0013384
:104BC000F7E7034830F81300704700BFF6540200BF
:104BD0001652020010B501200C4605F090F9206035
:104BE000003018BF012010BD0120704710B50446E9
:104BF00005F05AFF02280AD100210B46204640F654
:104C0000B83205F0DCF9431E5842584110BD01206E
:104C100010BD10B5044605F047FF022807D100215A
:104C200020460A460B46BDE8104005F0F7B810BD17
:104C300010B5044604F004FB24B1012C06D100F0A9
:104C40005BFB01E000F0F8FC044600E0042404F003
:104C50000BFB204610BD20B1012801D100F044BB60
:104C600004207047F8B504460F4616461D4604F06A
:104C7000E7FA3CB1012C0CD1384631462A4600F007
:104C8000E3FA04E0384631462A4600F019FD0446AE
:104C900000E0042404F0E8FA2046F8BDF8B5044624
:104CA0000F4616461D4604F0CBFA3CB1012C0CD140
:104CB000384631462A4600F067FA04E03846314665
:104CC0002A4600F019FD044600E0042404F0CCFA62
:104CD0002046F8BD70B504460E46154604F0B0FAFD
:104CE00034B1012C0AD13046294600F027F903E0FF
:104CF0003046294600F01AFD044600E0042404F082
:104D0000B3FA204670BD000010B5044606F056FB0D
:104D1000074BB0FBF3F10223B1FBF3F2944202D351
:104D20000448036110BDB3F5807FF9D00233F3E787
:104D300040420F0000000340044B9860DA68D2063E
:104D4000FCD40248816848B2704700BF00000340AD
:104D500038B5FDF747FD00F5FA754FF0FF30FFF766
:104D6000EBFF4FF0FF30FFF7E7FFC4B2FF2C07D097
:104D7000FDF738FD2A460023994208BF9042F0D340
:104D8000204638BD38B5064C4FF00075E561FFF799
:104D9000DFFF044BA5611A7842F00100187038BD9E
:104DA00020C0092006C0072070B505460E46FDF755
:104DB00019FD00F164044FF0FF30FFF7BDFFC0B2F2
:104DC000FF2809D1FDF70EFD22460023994208BFB6
:104DD0009042F0D3002070BDFE28FBD1102E06D9E2
:104DE00028464FF40071002204F0C8F918E02C4660
:104DF0004FF0FF30FFF7A0FF20704FF0FF30FFF7BC
:104E00009BFF60704FF0FF30FFF796FFA0704FF0F0
:104E1000FF30FFF791FFAB19E0700434A342E7D1F4
:104E20004FF0FF30FFF788FF4FF0FF30FFF784FFB0
:104E3000012070BD38B505460C46FFF789FFFF28F5
:104E40001ED160B2FFF778FFFD2C1BD04FF400712C
:104E50004FF0FF32284604F091F94FF0FF30FFF792
:104E60006BFF4FF0FF30FFF767FF4FF0FF30FFF7AA
:104E700063FF00F01F00411F4A4252EB010038BDA2
:104E8000002038BD012038BD38B5044620060D4647
:104E900007D577200021FFF7F7FF01283BD804F062
:104EA0007F041D4B4FF000729A61DA61FFF750FFEB
:104EB000FF282FD160B2FFF73FFF2816FFF73CFF16
:104EC00045F30740FFF738FF45F30720FFF734FFAE
:104ED00068B2FFF731FF402C04D0482C0CBF87206C
:104EE000012000E0952040B2FFF726FF4C2C03D1B3
:104EF0004FF0FF30FFF720FF0A244FF0FF30FFF79D
:104F00001BFF01460029C0B205DA013C14F0FF0482
:104F1000F3D138BDFF2038BD20C00920054A06491D
:104F200013784869410154BF03F0FD0343F00303C4
:104F30001370704706C0072020C009207FB50546C2
:104F40000C46FFF7EBFF052D18D12178012900F061
:104F50000F810AD3022940F009818848426982F012
:104F60008063C3F38061617002E1844C606910F07A
:104F7000806440F0FD80FFF705FFF9E0804B187872
:104F8000C00700F1F7800E2D00F2EA80DFE815F08F
:104F90000F00190054005800E800E800E800E8009D
:104FA000E800E800B200B700B900C300D4007348BD
:104FB0004FF00071C161FFF7CBFEFF3818BF012031
:104FC000CFE049200021FFF75FFF054608B101202F
:104FD000C7E068461021FFF7E7FE0028F7D09DF8EC
:104FE00000109DF808308A09012A07D19DF80910A0
:104FF000481C00EB03239AB2930246E09DF8070099
:10500000810001EB93129DF80630501C9DF805209D
:1050100003F0030100EB812302F00F009DF80A105A
:105020009DF8092000EBD11002F0030100EB4100D4
:10503000C21F03FA02F328E04FF4007020805CE006
:10504000504D2B7803F00400C1B209B3CD200021EC
:10505000FFF71AFF0028BAD14FF0FF30FFF76CFEC0
:1050600068461021FFF7A0FE0028B0D030254FF091
:10507000FF30013DFFF760FE15F0FF05F7D19DF809
:105080000A001022010902FA01F32360284668E0B1
:105090004920FFF7F9FE0646002898D168461021FE
:1050A000FFF782FE002892D0297801F00202D0B2E8
:1050B0009DF80A1080B101F03F009DF80B10CA095D
:1050C0009DF80D1002EB40038A09581C531E00FA8C
:1050D00003F02060304644E09DF80B30C1F38402B9
:1050E000511C03F003025B0903EBC202531C4B4348
:1050F000236036E023490A782270002031E04920FD
:1051000000E04A200021FFF7BFFE00287FF45FAFD8
:10511000204610211DE07A200021FFF7B5FE00286F
:105120007FF455AF05464FF0FF30FFF705FE6055A1
:105130000135042DF7D1E0E7CD200021FFF7A4FED3
:1051400000287FF444AF4FF0FF30FFF7F5FD204615
:105150004021FFF729FED0F1010038BF002000E018
:105160000420064B4FF000729A6104E0042002E034
:10517000002000E0032004B070BD00BF20C0092063
:1051800006C0072064C3072070B5144605460E46C6
:10519000FFF7C4FE002C4AD0284B1A78D20748D417
:1051A000187800F00401CBB2002B44D124484FF012
:1051B00000722449C2610B7803F00802D0B200B932
:1051C0007602012C0DD158203146FFF75DFE30BB31
:1051D000FE212846FFF72EFED0F1010438BF00243F
:1051E0001DE013F0060F03D0D7202146FFF74CFE39
:1051F00059203146FFF748FE88B92846FC21FFF7C1
:1052000019FE28B1013C14F0FF0405F50075F4D136
:105210000020FD21FFF70EFE002808BF0124084BE7
:105220004FF00071201C996118BF012070BD04204F
:1052300070BD032070BD022070BD00BF06C00720F6
:1052400020C0092064C3072070B5144605460E46E9
:10525000FFF764FE002C3CD0204B1878C1073AD4ED
:105260001F494FF000721F4BCA61187800F0080206
:10527000D1B201B97602012C0ED151203146FFF78F
:1052800003FEF0B928464FF40071FFF78DFDD0F111
:10529000010438BF002414E052203146FFF7F4FD2A
:1052A00078B928464FF40071FFF77EFD28B1013C24
:1052B00014F0FF0405F50075F3D14C200021FFF731
:1052C000E3FD074B4FF000709861201C18BF0120D0
:1052D00070BD042070BD032070BD00BF06C0072054
:1052E00020C0092064C3072008B5FFF717FE014B53
:1052F000187808BD06C007202DE9F341FFF70EFE20
:10530000554B1A7802F00200C1B2002940F0A0808B
:105310000120FFF7F9FC0A244FF0FF30013CFFF7B2
:105320000BFD14F0FF04F7D14C4B4FF000764020FA
:10533000DE612146FFF7A8FD012801D0002674E0B8
:10534000FDF750FA4FF4D57100F57A774820FFF752
:105350009BFD012841D14FF0FF30FFF7EDFC01AA82
:1053600010550134042CF6D19DF806000128E5D132
:105370009DF80710AA29E1D1FDF734FA3C46002533
:10538000A94208BFA04206D3FDF72CFAA94208BFE4
:10539000A042D3D207E0E9204FF08041FFF774FD2F
:1053A0000028E9D1F0E77A200021FFF76DFD002801
:1053B000C4D104464FF0FF30FFF7BEFC01AE3055BC
:1053C0000134042CF6D19DF8043003F04002D0B231
:1053D00000280CBF04260C2627E0E9202146FFF711
:1053E00053FD01288CBF012602268CBF4FF04108D7
:1053F0004FF0E908FDF7F6F93C460025A94208BF41
:10540000A0420BD3FDF7EEF9A94208BFA0420CD38E
:1054100050204FF40071FFF737FD06E040460021B1
:10542000FFF732FD0028E5D1ECE70D490B4B4FF0BB
:1054300000720E709A6146B10748017801F0FE02D1
:1054400002701820FFF760FC01E0FFF79BFC024BA5
:105450001878BDE8FC8100BF06C0072020C00920E5
:1054600064C30720F8B51A4B05461C880E46B4F5F0
:10547000007F174602D1084611460AE0B4F5807F46
:1054800009D1084611462246A84706F5807007F55F
:105490008071224619E0B4F5047F07D122F4FF722F
:1054A000084622F001014FF400720EE0B4F5847F4B
:1054B0000CD1170A08464FF480727902A847791C6C
:1054C00006F5807049024FF48072A847F8BD00BF0E
:1054D00066C3072010B5034600295CDD93F9004040
:1054E0002D4A0729946030DD93F901400839946012
:1054F00093F90240946093F90340946093F9044057
:10550000946093F90540946093F90640946093F990
:10551000074008339460204A94696407FBD5946877
:10552000047094684470946884709268C2701A4AD7
:10553000D468E406FBD49468047194684471946858
:1055400084719268C2710830C6E7032918DD93F9A7
:1055500001400439946093F90240946093F9034048
:10556000043394600C4AD468E406FBD49468047055
:1055700094684470946884709268C2700430ABE799
:1055800001330139D46814F0100FFBD1024A92683C
:1055900000F8012BA0E710BD0000034007B58DF80F
:1055A0000400080A0B0C8DF806008DF8071001A8FE
:1055B00004218DF80530FFF78DFF0EBDF7B50D4CBA
:1055C00006464025080CE5610B0A17468DF80500D4
:1055D00003228DF8071001A804218DF804208DF80E
:1055E0000630FFF777FF30463946002203F0C6FD4C
:1055F000A561FEBD00C009200D4B0E4840226FF092
:105600002801DA618160C268D106FCD4094B9B682D
:1056100008484FF0FF318160C268D206FCD4054BC8
:1056200098680306F4D5024A40219161C0B27047E0
:1056300000C0092000000340F7B5FFF7DDFF074673
:105640001B481C4D81781C4C002340260288238077
:1056500001A8EE618DF806100321ADF80420FFF7D4
:1056600039FF9DF805009DF806301F28AE6117D15F
:10567000A3F12502022A13D81049252B0B7007F03D
:10568000010006D100280CBF4FF484734FF48073DF
:1056900005E000280CBF4FF404734FF4007323801F
:1056A000054A1188D1F1010038BF0020FEBD00BFBE
:1056B000D656020000C0092066C3072068C3072031
:1056C0002DE9F041064617464FEA4128FFF794FFBF
:1056D00034460025C6EB0802BD42224407DA2146C3
:1056E0000448FFF7BFFE04F500740135F2E700201F
:1056F000BDE8F081BD5501002DE9F0410646174691
:105700004FEA412804460025C6EB0802BD42224468
:1057100007DA21460448FFF7A5FE04F500740135B9
:10572000F2E70020BDE8F0811958010008B507280C
:105730001CD8DFE800F00407131719191919FFF72F
:105740005BFF11E00A4B18782538C3B2032B9ABFD0
:10575000084A52F8233000235B0A04E04FF400703B
:10576000088001E001230B60002008BD042008BD73
:1057700068C30720DC56020030B591B003466C4682
:1057800000F1400518685968224603C20833AB424D
:105790001446F7D1064D40249B200021EC61FFF711
:1057A000FDFE68462146FFF795FEAC6111B030BDA5
:1057B00000C0092070B5074D40240646002177201F
:1057C000EC61FFF7EBFE30462146FFF783FEAC614C
:1057D00070BD00BF00C00920084B188830F01F00C2
:1057E0000BD007490B78253BD9B203299ABF054A4C
:1057F00052F821100021B1FBF0F0704766C307207A
:1058000068C30720DC560200024B1878003018BF2E
:105810000120704766C307202DE9F7434FF0FF339F
:105820000D46904601938146FFF7E6FEFFF7ECFF39
:105830000446A0B1164E40271648F76101880320A0
:10584000B1F5847F14BF4FF400714FF48071294388
:10585000FFF7A4FE01A80421FFF73CFEB7610C4E40
:105860004022F26182202946FFF798FE48464146D1
:10587000012203F083FC3CB1019B02A8591C40F8B3
:10588000041D0421FFF726FE4020B061BDE8FE8321
:1058900000C0092066C30720F7B5114B07461E88D4
:1058A0004FF0FF30B6F5847F14BF4FF400764FF40D
:1058B00080760190FFF7A8FF60B10A4C40250320D5
:1058C00046EA4721E561FFF769FE01A80421FFF7D9
:1058D00001FEA5610198B0F1FF3F08BF0020FEBDA9
:1058E00066C3072000C009201FB501A803F074FBA0
:1058F0009DF809209DF8083002F00F019DF8062060
:1059000003F01F004B0543EA004002F01F0140EA8C
:10591000C1239DF805009DF8041000F03F0243EA02
:105920004210BDF80A20C1F344035106184301F1A7
:105930000843184305B000BD10B50023D41A032C4A
:1059400003D9CC58C4500433F8E702F0030422F022
:105950000302801800238A18A34203D0D15CC154EB
:105960000133F9E710BD8218904202D000F8011B04
:10597000FAE7704770B5164B0024224653F8085CCE
:1059800065B10668B5420AD153F8046C8568AE4229
:1059900005D11E88C588AE4201D105E0012401323F
:1059A0000C33032AEAD10CE049B90A490C2000FB68
:1059B00002135A89B2F5807F01D0002070BD1020FB
:1059C00070BD002CF9D10229F7D0122070BD00BFA4
:1059D00074C307206CC3072070B51F4A06680023F4
:1059E00052F8084CB44208D152F8045C8468A542CD
:1059F00003D11588C488A54210D001330C32032B83
:105A0000EED1164A1368F3B90C255D43541956516B
:105A10008268C08862600022208162810F4A0C2067
:105A200000FB0322508929B108B1002070BD4FF45A
:105A3000807201E0411C8AB208490C2000FB03106F
:105A40004281581C70BDD36823B19369002BECD1FF
:105A50000223D9E70123D7E774C307206CC30720CB
:105A60000138022813D80C490C2202FB00135B8971
:105A7000B3F5807F03D01BB1013B9BB200E0002354
:105A8000504309184B8123B9034A135001E0022007
:105A900070470020704700BF6CC30720002310B57B
:105AA000044618464208E15C42EAC010013342183D
:105AB0000B2B02F0FF00F5D110BD0368024613B9AD
:105AC0004FF0FF30704793F900003038082808D8AD
:105AD00093F901103A2904D102330128136001DD42
