:020000021000EC
:10000000004008207F0101004D010100E1000100D6
:100010003D0101002D0101001D0101000000000053
:10002000000000000000000000000000F5A9010031
:100030000D0101000000000079AA0100B5AA01002D
:10004000FD000100FD00010099450100FD000100D7
:10005000FD00010095900100FD000100FD900100F0
:1000600065910100FD000100FD000100FD0001009F
:10007000218C0100FD000100FD000100FD000100D8
:10008000FD000100DD7E0100FD000100FD0001001A
:10009000FD000100258B0100FD000100FD000100B5
:1000A000FD000100798A0100FD000100FD00010052
:1000B000FD000100A9AE0100FD000100FD000100EE
:1000C000FD000100FD000100FD0001001C650200B3
:1000D00000C007202001000020C10720D804000034
:1000E00004207146084200F00480EFF309800AF012
:1000F00047BFEFF308800AF043BF704708B50248D6
:1001000000F0CAF9FEE700BFB25D020008B5024880
:1001100000F0C2F9FEE700BFC85D020008B5024862
:1001200000F0BAF9FEE700BFD85D020008B502484A
:1001300000F0B2F9FEE700BFE55D020008B5024835
:1001400000F0AAF9FEE700BFF05D020008B5024822
:1001500000F0A2F9FEE700BFFB5D020010B500232E
:10016000934203D21C585C500433F9E710BD0023BE
:100170008B4203D200221A500433F9E7704710B5BE
:1001800014480AF037FD13480AF037FD124C134BA0
:100190009C4205D294E807000C34FFF7DFFFF6E736
:1001A0000F48844205D294E803000834FFF7DFFFCC
:1001B000F6E70DF08DFA0AF037FD02F0C1FA03F010
:1001C00063F84FF416400BF00FF8064800F064F99E
:1001D000FEE700BF00400820CC000100D80001006D
:1001E000E00001006D5E020008B5024800F054F91D
:1001F000FEE700BF965E020008B5024800F04CF929
:10020000FEE700BFA15E020008B5024800F044F915
:10021000FEE700BFB05E0200124A30B51168034627
:1002200011B94FF08050106010680F4DC41862195A
:100230000E4D0C49AA4297BF0D480C601A180A606F
:10024000084A0C4C1168A14202D90B4810600020EA
:100250003BB10A4A116801311160094A094910602D
:100260000B6030BD24C10720FF7FFFEFFE3F07106A
:10027000F8C50720FF3F0820004008202CC10720B8
:1002800028C1072020C107200DF060BA0DF05EBA2A
:100290000DF064BA0DF062BA30B58BB00446684612
:1002A0000DF0A0FE214D089B07982560A3606060BB
:1002B00058B91F491F4A0B6893428ABF03F1604334
:1002C00003F17043A3F5E82363606068B0F5803FF5
:1002D00004D900F17041A1F5E82363601448154B7F
:1002E000016800229942E26006D86D18C5F180537A
:1002F00003F58035E5600BE00F4A914208D80F48BE
:10030000C0F1804303F58012501A0028C8BFE06096
:10031000E1610B490B480A680B490368A2610A684E
:100320006361226120460BB030BD00BFF8050000BC
:1003300024C1072000800010FF3F0820F8C50720D7
:1003400028C1072020C107202CC10720FEE700009C
:10035000014B1860704700BF34C10720014B186083
:10036000704700BF30C1072008B502480DF05CFEA1
:10037000FEE700BF1435020008B502480DF054FE38
:10038000FEE700BF2E3502000020704701207047B5
:10039000084B70B518680E46154640B10024AC42B3
:1003A00005DA044930570A6890470134F7E72846D0
:1003B00070BD00BF34C10720094B70B518680E46E8
:1003C000154600B970BD0024AC4206DA0448016845
:1003D0000020884730550134F6E725EAE57070BD06
:1003E00030C107207047002070470000074B196894
:1003F0008A68824207D04B68834204D0C9680A1ACF
:100400005042504170470120704700BF7CC0072018
:10041000002070470020704730B504468DB000289A
:1004200037D0684608F0A0FC9DF800309DF8011018
:1004300003F03F0003909DF8040001F03F029DF897
:10044000025000F01F010492BDF806009DF805203F
:1004500005F01F03069102F00F05C0F30B018AB2ED
:100460000593BDF808106B1E07939DF80330A2F2A8
:100470006C75C1F30B0203F00700089595B26B1E73
:100480000990002503A80A930B950DF0C9FA84E89A
:10049000210000200DB030BD10B504460AF0D0FA9E
:1004A000013C14F8010F18B140B20AF0D9FEF8E788
:1004B000BDE810400AF0D6BA38B50F4C256815F0E3
:1004C000010516D120460AF06DFF90B14FF40E7071
:1004D000FFF7DAFE094B30223A2180F8345280F8D7
:1004E000352280F8361280F83752186020460AF01C
:1004F00067FF0248006838BD40C1072044C107209B
:1005000038B5104C236813F0010517D120460AF0C6
:1005100049FF98B14FF40E70FFF7B6FE012280F844
:100520003422094A31213A2380F8351280F83632D4
:1005300080F83752106020460AF042FF02480068F7
:1005400038BD00BF58C107205CC107202DE9F0412C
:10055000ADF50A7D0E4608F0D3F8041E04DD0AF05E
:10056000FDF9204609F09CFF264D05AC0FCD0FC4C8
:100570002B6810210DEB010200250AA823600495C9
:1005800009F04AFF074604986422B0FBF2F1049197
:1005900030461D491D4A0A2308F052FEBD4222D0B2
:1005A0000AAC049B04EB4514A2690BB1B2FBF3F354
:1005B000606994F80C800090A18B029388000A2354
:1005C0000190A2FB03014FF47A7200230CF080FC2F
:1005D00005AB03900E493046626853F8283008F0A6
:1005E0002FFE0135DAE709F02FFE102804D9304636
:1005F0000849102208F024FE01200DF50A7DBDE80F
:10060000F08100BF48350200673502008E350200D8
:1006100093350200B035020010B5ADF5007D0C46F3
:1006200068460AF04FFC204669464FF0FF3208F05A
:10063000D1FD01200DF5007D10BD000030B50C4648
:1006400091B02C49054607F063FF002847D008AB5E
:10065000009309A80AA90BAA0CAB0190029103927E
:1006600004932846244906AA07AB07F0B4FE0728DE
:1006700001D000203BE09DF8390006999DF8383004
:1006800061F303008DF839000899BDF83A00079A24
:1006900061F30B0062F304030A99ADF83A009DF888
:1006A0003500099A8DF838309DF8363061F3050031
:1006B00062F304038DF835000C999DF837008DF82E
:1006C00036300B9A9DF8343061F3020062F3050373
:1006D0008DF837000DA88DF8343008F067FB08F06E
:1006E000FFFB06490246204608F0AAFD012011B092
:1006F00030BD00BF764C0200DA350200FD55020025
:1007000030B589B004AB0024009302220D4603AB40
:1007100018490394049407F06BFE022827D107A818
:10072000009005AA0398049906AB059406940794D3
:1007300004F01CF8024638B1049928460091039B46
:100740000D4908F07DFD10E0059A069B079C002AE4
:1007500008BF0122002B08BF012328460749B4FB2C
:10076000F2F2B4FBF3F308F06BFD012000E0204649
:1007700009B030BD41480200F335020012360200D4
:100780002DE9F0410C46ADF5866D3049054607F080
:100790004CFF2F490746284607F070FF2C49284692
:1007A00007F08CFF284607F0A9FF0122014601A8A7
:1007B00006F06AF8064640B1284607F09FFF254933
:1007C0000246204608F03CFD3AE00BAD314640F2CF
:1007D000014228460DF054F8009601F087FF80464C
:1007E00001A829464FF480626B4606F019F990B1D2
:1007F00001A806F0BFFA8FB101F078FFB0EB080056
:1008000014BF03460123144920463246B6FBF3F3D6
:1008100008F016FD02E0009B3BB9E9E720460F49CE
:100820004FF0FF3208F0D6FC0AE0F618E854002F2B
:10083000D6D1204629464FF0FF3208F0B7FCCFE76B
:1008400001200DF5866DBDE8F08100BF4036020045
:1008500041480200493602005D360200424E020065
:10086000F0B5C1B00DAB0025009302220C460CABD5
:100870005C490B950C950D9507F0BAFD022803D144
:100880000D980CF01BFE05460C9808B956490C91C2
:1008900016A80C9906F011FB034678B1204653497F
:1008A0000C9A08F0CDFC9AE020AA802616A80EA982
:1008B0001492159606F053FB013D08B9002DF3DCA8
:1008C00020464B490C9A08F0BBFC00252E468020A0
:1008D00020AB15900EA916A8149306F040FB002833
:1008E00065D19DF94110002961D09DF8407007F055
:1008F0001002D3B213B10135442205E00B990E98D2
:1009000001360A180B922D2207F0020C17F0010F86
:1009100007F0040E5FFA8CF007F020070CBF2D23C0
:1009200052235FFA8EF100280CBF4FF02D0C4FF0D0
:10093000480CF8B200290CBF4FF02D0E4FF0530EAB
:1009400000280CBF2D214121BDF83C00029141122D
:10095000BDF83E7001F2BC718DE800500391C0F308
:100960004311049100F01F00F912C7F345170691D7
:100970000590079740A951F8C80D093108900991D1
:1009800020461C4908F05CFC20461B494FF0FF3212
:1009900008F00CFC20A920464FF0FF3208F006FCBE
:1009A000204616494FF0FF3208F014FC8FE70095FF
:1009B00040AD55F8D43D12493246204608F040FC7F
:1009C0000C9829460AAA06F0F9FA40B90A9B0B9935
:1009D0009A7820464A430B49520808F031FC01201E
:1009E00041B0F0BD41480200783602007B3602007B
:1009F0009F360200BA360200E7360200424E02007D
:100A0000EB3602001537020070B50E46054607F0BA
:100A100075FE0446284607F071FE06F09CFB064A68
:100A2000064B0749002818BF13463046224608F0F7
:100A300007FC012070BD00BFD5380200CB38020092
:100A40002937020070B50E46054607F057FE0446EA
:100A5000284607F053FE06F015FB064A064B0749E9
:100A6000002818BF13463046224608F0E9FB012053
:100A700070BD00BFD5380200CB38020045370200F8
:100A80007FB503AB0024009302220E4602AB0F4950
:100A90000294039407F0ACFC022814D1029D039C3D
:100AA0002846214606F0FEFB09490A4A234600284B
:100AB00014BF104608460090074930462A4608F001
:100AC000BFFB012000E0204604B070BD4148020099
:100AD000CB380200D53802005737020030B58DB050
:100AE0000C46054607F00AFE0A22014602A805F058
:100AF000CBFE40B1284607F001FE1F4902462046C2
:100B000008F09EFB35E08DF8030001901B4920465C
:100B10007E2242F2107308F093FB1949204608F038
:100B20008FFB236820461B680DF1030142F210720F
:100B3000984718B19DF903007E2803D102A806F05A
:100B400019F916E002A80DF10301012201AB06F02C
:100B50000DF828B10199012902D020460949DEE7A4
:100B60002268204653689DF903104FF0FF329847E2
:100B7000D7E701200DB030BD6F3702009637020075
:100B8000CE370200EE3702002DE9F043ADF5417D8E
:100B9000002303AD2B60029302220C4600954049CE
:100BA00002AB07F025FC022806D020463D494FF055
:100BB000FF3208F00FFB6EE016A8296806F07DF9F9
:100BC00018B1204638492A6807E016A8029906F0AD
:100BD00074F928B13549029A204608F031FB5AE0F1
:100BE00040A94FF4807204A807F0C6FB09A880A9A9
:100BF0004FF4807207F0C0FB20A88021149015915B
:100C000016A80EA906F0ABF900283ED19DF94120A7
:100C1000002A3AD09DF8405005F01003DDB2002DB7
:100C2000EAD10DF14106029A334604A8204907F0A3
:100C300025FE039A33461E4909A807F01FFE04A8A3
:100C400007F05CFD804609A807F058FD074604A898
:100C50000E9E07F053FD814609A807F04FFD2A4676
:100C600001462B460095484603F080FD1149124A83
:100C70000096002814BF1046084601900F492046F0
:100C800042463B4608F0DCFAB6E709A807F088FBC5
:100C900004A807F085FB01200DF5417DBDE8F08338
:100CA00041480200153802005A3802007F3802001D
:100CB0009F380200CB380200D5380200A538020068
:100CC00070B50C462149054607F016FD064628B1C9
:100CD000FFF716FC002100F2352009E028461C49E8
:100CE00007F00AFD50B1FFF7E7FB314600F235206F
:100CF0000A4606F069FB174B17491CE028461749BE
:100D000007F0FAFC48B1FFF7FBFB012200F23521A6
:100D100005F06AFD124B13490DE02846124907F011
:100D2000EBFC88B1FFF7C8FB012200F2352105F08A
:100D30005BFD0E4B0E49002808BF19464FF0FF32ED
:100D4000204608F047FA012070BD00BF2C39020090
:100D500036390200C4380200CE380200433902009E
:100D6000DB380200EB3802004C3902000239020085
:100D70001039020010B501200C4607F0EBFA38B12B
:100D800000210A460B4608F011FF2046044901E005
:100D9000044920464FF0FF3208F01CFA012010BD34
:100DA000583902006E39020038B5064C236833B951
:100DB0001C20FFF769FA054607F028FF2560206828
:100DC00038BD00BF4CC107202DE9F0430C4687B069
:100DD0003C49064607F0B4FB3B498046304607F0E5
:100DE000AFFB3A498146304607F0AAFB002705468B
:100DF000039704970597B8F1000F1DD0304634498A
:100E000003AA04AB07F0E7FA022807D020463149CD
:100E10004FF0FF3208F0DEF93D464FE0FFF7C4FF28
:100E20009DF90C109DF9102008F0E5FA0499C2B262
:100E300000912046284924E0B9F1000F2BD005ABE2
:100E400000933046254903AA04AB07F0C4FA0328EF
:100E500007D0204622494FF0FF3208F0BBF9454643
:100E60002CE0FFF7A1FF9DF90C109DF910209DF9D2
:100E7000143008F0B1FA40B104981A49059A00906C
:100E80002046039B08F0DCF917E020461649039A38
:100E900008F0D6F911E088B10226FFF785FF71B29C
:100EA00008F0B6FA20B120461049324608F0C8F9D9
:100EB0000236B6F5807FF0D100E00125284607B064
:100EC000BDE8F08364490200883902008E390200CF
:100ED00097390200A3390200C4390200E539020043
:100EE000F53902001C3A02003C3A0200593A02006D
:100EF0002DE9F04F5E4C93B023680E4633B92020A5
:100F0000FFF7C2F9054608F0B7F82560D4F800806D
:100F1000FFF7D2FA002512A941F8105D00F2352042
:100F20000DAA06F04BF848B90D9A0E99976990787A
:100F3000BC1E414344434D08670800E02F46DFF8DC
:100F40003491D9F8003063B90C20FFF79DF90446BD
:100F5000FFF72AFF9022206000202271A060C9F8CC
:100F600000404449086803F0EFFB04460BF06AFFB9
:100F700083460BF04DFD014620460BF093FC3E49A5
:100F80000BF09AFD0BF05EFF0B900FA809F042FEEC
:100F900004F002FB38B308F01BF804F0E5FA002473
:100FA0000346A146A2469C420AD020460A9304F07A
:100FB0003BFB504584BFA14682460A9B0134F2E7C1
:100FC00008F01AF8642303FB0AF22C483B46B2FBF4
:100FD000F0F1C1F164028DE80406304628492A4642
:100FE00008F02EF905E0304626492A463B4608F02F
:100FF00027F9254C23681BB90120FFF745F920602C
:10100000206803F079FB044607F06AFF9DF8412051
:101010009DF84010019001F01F0302F00F00BDF891
:10102000422003939DF83E300290C2F30B0081B240
:1010300003F01F029DF83D009DF83C30049105929D
:1010400000F03F0103F03F02079200940691B8F8C8
:1010500018005A460890B8F81A10304609910B9BB0
:101060000A4908F0EDF8012013B0BDE8F08F00BF89
:101070003CC1072048C1072000002041A086010094
:10108000793A0200AD3A020050C10720BB3A020093
:1010900038B5064C236833B90420FFF7F5F8054648
:1010A00001F0FEF92560206838BD00BF38C1072077
:1010B0002DE9F0418CB00C460546FFF7E9FF80466C
:1010C000284607F01BFB31490246204608F0B8F8D5
:1010D00028462F4907F011FA431C064605D1204641
:1010E0002C4908F0ADF800244BE032460021284698
:1010F00007F085FB014602A807F009FC02A807F0EB
:1011000061F9074630B920462349324608F098F87D
:101110003C4633E02846711C07F0A4FB014607A8B3
:1011200007F0F5FB07A807F04DF9054610B9204672
:101130001A490CE002A807F0E3FA054607A807F0F1
:10114000E2FA691E0529064605D91549204608F028
:1011500077F800240FE032464046C9B201F0EEF9BC
:1011600030460BF03DF82A46CDE9000120460D49F6
:1011700008F066F8012407A807F012F902A807F0A2
:101180000FF920460CB0BDE8F08100BF233B020000
:1011900041480200283B02003E3B02006B3B02003C
:1011A0008B3B0200A23B020038B5FFF771FF002421
:1011B00005460021224601F0C1F9284601212246B8
:1011C00001F0BCF928460221224601F0B7F90120BE
:1011D00038BD000038B5064C236833B91420FFF73A
:1011E00053F8054606F050FD2560206838BD00BF65
:1011F00054C1072008B54FF0FF320846094907F0EF
:10120000E9FFFFF7E7FF06F031FD4FF4FA6009F060
:1012100047F94FF080430020AA221A72187001206B
:1012200008BD00BFB93B020073B50C461449054622
:1012300007F062FA50B1FFF7CDFF06F017FD204628
:1012400010494FF0FF3207F0C5FF16E0FFF7C2FF6D
:101250000646284607F052FA40F2051301460A4AAC
:1012600000933046094B06F0E9FD284607F046FAA0
:1012700007490246204607F0E3FF01207CBD00BF7E
:10128000CA3B0200D03B0200E93B02005C35020091
:101290001C3C020070B58AB005460C4607F092F877
:1012A0000B2803DD20461B490C222DE0284607F0C1
:1012B00025FA01220146684605F0E6FA0646284668
:1012C000EEB907F01BFA144B016819604268134924
:1012D0005A608068986043F8041C039A10492046BD
:1012E00007F0AEFF684605F045FD4FF47A7009F04F
:1012F000D7F84FF08043AA221A721E7006E007F05A
:10130000FDF908490246204607F09AFF01200AB07D
:1013100070BD00BF3E3C0200484002400DD0ADDE33
:10132000653C0200AD3C020070B5414EA6B033688A
:101330000546DB070C460CD430460AF033F840B1C2
:101340004FF480600CF002FA3A49086030460AF027
:1013500037F82846384907F0F3F8064620B300214D
:10136000802206A80CF08CFA002105A804910591B2
:101370000090324906AA04AB284607F02CF82D4A03
:10138000049B116806A8059A13B903F079FA01E0E5
:1013900003F097FA2A4A2B490346002B08BF11464F
:1013A000204607F04DFF32E02846274907F0C8F8ED
:1013B00000283BD0284604AA244905AB049605968C
:1013C0008DF80F6007F007F8049D05982A18B2F50C
:1013D000806F0DDD20461E494FF4806210E01548F5
:1013E0009DF80F10026851559DF90F300135F61820
:1013F000049B0598E91A814205DB164920463246CE
:1014000007F01EFF03E0B5F5806F02DBF5E7012072
:101410000CE02268204613680DF10F014FF4FA62C8
:1014200098470028DBD120460B49BAE726B070BDAB
:1014300064C1072060C10720D83C0200DF3C0200E5
:10144000C23C0200C63C0200EF3C0200F63C020037
:10145000003D0200343D0200243D020030B50C4640
:1014600087B00B49054607F0EBFEA17AE07A0091C0
:10147000E188019002912089A188039004916288FB
:1014800023882846034907F0DBFE07B030BD00BFC4
:10149000453D02007B3D02001FB501A80C4602F04D
:1014A0006DFC02F05BF901A902462046FFF7D6FF6A
:1014B000012004B010BD0000F0B58DB003AB0025D5
:1014C00000930C4617463849022202AB0295039559
:1014D00006F08EFFA84239DD02980BF0EFFFC6B28E
:1014E000039818B10DF097F8C5B200E0054604A8BE
:1014F000002102F0D5FF30B120462C494FF0FF32D9
:1015000007F068FEF3E7003718BF012702200090BC
:1015100039463046039A2B4602F052FA10B920465B
:1015200023490EE0002F3CD004A84FF47A7102F05A
:10153000C1FF002830D09DF81010B1422CD107E037
:101540001C494FF0FF3207F045FE2AE0284629E00B
:101550009DF817200C2A04D1204606A93246FFF731
:101560007DFF2046002DEBD1134907F069FE9DF861
:1015700017309D420BDA20680CA94A19436812F90A
:10158000181C20464FF0FF3298470135EFE7204600
:101590000A4907F055FE04E020460949029A07F07F
:1015A0004FFE01200DB0F0BD41480200993D020000
:1015B000BB3D0200F73D0200E33D02008D45020005
:1015C000143E020038B50D4607F09AF80446C0B242
:1015D00002F0B8F8054A064B0649002808BF134632
:1015E0002846224607F02CFE012038BD3A3E020074
:1015F000CB380200413E020030B58BB00AAA4FF44E
:101600007A730C4642F8243D174906F0E4FE0025A3
:1016100002A8019902F044FFE0B1204613499DF869
:10162000082007F00DFE00259DF80F0085420BDA1B
:1016300023680AA94A1912F9181C5B6820464FF062
:10164000FF3298470135EFE72046094907F0F8FDDA
:101650000125DDE72DB9204606494FF0FF3207F09E
:10166000B9FD01200BB030BDFD3C0200583E020028
:10167000414E02006F3E020037B50C4602F0E4F91D
:1016800016490546204607F0DBFD154920462A4647
:1016900007F0D6FD2046114907F0D2FDDDB1114912
:1016A000204607F0CDFD20460C4907F0C9FD00207B
:1016B000451CEDB202F0B2F948B181780278437866
:1016C00000912046084907F0BBFD2846F0E7204678
:1016D000024907F0B5FD01203EBD00BF803E02007B
:1016E0009B3E0200B53E0200D03E020038B5064CDB
:1016F000236833B94C20FEF7C7FD054607F014FBFD
:101700002560206838BD00BF68C107202DE9F04F73
:10171000ADF5757D8022044634AF894614A80021BA
:101720000CF0AEF80021802238460CF0A9F803AE88
:101730000023336020460096714914AA3B4606F008
:101740004AFE032801D00020D5E00AA814A90122EE
:1017500005F09AF805460028F5D1FFF7C7FF0446C3
:10176000306854A984F84700802205A88DF80B50F2
:10177000049506F001FE00974846624914AA3368B2
:1017800007F05EFDA8460AA874A94FF4007204ABE6
:1017900005F046F938B10AA805F0ECFA05A806F0FC
:1017A000FFFD0120A7E004990029F4D06F1C5649E1
:1017B000049A204607F044FD226820469668B04708
:1017C00000267D1EB246049B20689E420DD20DF578
:1017D000E87B1BF9061043684FF0FF32204698471C
:1017E00016F90B1001368A44EDE7816820468847D8
:1017F00005A806F083FF064605A806F0E6FD4FF4AF
:101800007A7302463146204607F0F2FC012120227D
:1018100005A806F01EFF05A806F072FF50451FD070
:1018200005A806F06DFF394903465246484607F0C1
:1018300007FD3749204607F003FD206881682046F0
:1018400088472268204613680DF10B014FF47A7225
:1018500098470028F5D1781C022F9CD80746A6E7A8
:10186000049A2C490092434634AA204607F0E8FC2B
:1018700026682046B368984705A806F03FFF06464D
:1018800005A806F0A2FD314602464FF47A732046C1
:1018900007F0AEFC05A8204906F028FED0B905A83F
:1018A00006F02CFF1D490246484607F0C9FC1849BE
:1018B000204607F0C5FC216820468A6890472368C7
:1018C00020461B680DF10B014FF47A7298470028EF
:1018D000F5D1C0E705A8124907F00EF804981149A0
:1018E0008044424648460D9B07F0AAFC002D3FF479
:1018F0004AAF013D47E70DF5757DBDE8F08F00BFAC
:10190000EB3E0200FA3E0200113F0200233F0200BC
:10191000414E02004A3F0200603F0200633F020066
:10192000424E02009B3F02002DE9F04186B006AA1C
:101930000026074642F80C6D0D463C4906F04BFD6B
:1019400038460121202206F084FE039B002B63D041
:10195000384606F037FD00285ED0FFF7C7FE8DF849
:101960000B60044620680DF10B0106680522204635
:10197000B04706460028F5D10399384684F8471049
:1019800006F0BCFE4FF0FF320146204607F022FC75
:10199000226820469768B847254B05961868374651
:1019A0000490216820460B684FF47A720DF10B0108
:1019B000984770B105A8411C03220BF047FF9DF822
:1019C0000B8005A804A904228DF817800BF026FFD0
:1019D00038B91821B7FBF1F301FB13726AB1013377
:1019E0000BE028684FFA88F1436801222846013746
:1019F00098470028D5D10136D3E728460D493A4605
:101A000007F01EFC76B1612000900B492846324653
:101A10000A4B07F015FC05E0284609494FF0FF3254
:101A200007F0D8FB012006B0BDE8F081FD3C0200C4
:101A3000413D0200A73F0200CE3F02008740020066
:101A4000C340020043682DE9F041994204460D4627
:101A500017D3C06889000CF071FBA668E060B7007E
:101A6000AE420DD21020FEF70FFC0021102280465E
:101A70000BF006FFE068013640F807800437EFE717
:101A80006560BDE8F08100002DE9F743304D074661
:101A90002C688946002C49D12420FEF7F5FB04234D
:101AA000064680E818008460C46008214FF00108F1
:101AB000FFF7C8FF86F8208030462649264A274B84
:101AC00000942E6005F0E0FE28682549254A264B43
:101AD000009405F0D9FE28682449254A254B009436
:101AE00005F0D2FE28682449244A254B009405F0CD
:101AF000CBFE28682349244A244B009405F0C4FEF9
:101B000028682349234A244BCDF8008005F0BCFE09
:101B100028681F49214A224B009405F0B5FE009425
:101B200028682049204A214B05F0AEFE384620495E
:101B300006F0E2FD18B138461E4906F0DDFE044B02
:101B4000394618684A4603B0BDE8F04305F06CBF5B
:101B50006CC1072029190100EF400200F640020085
:101B60000D1701003041020039410200F915010052
:101B70008D41020090410200C51501001846020087
:101B8000B341020079160100F9410200DD41020073
:101B9000B914010042420200004202004142020028
:101BA0004642020099140100864202006B42020084
:101BB000424E02008C42020037B590F904501446A0
:101BC00000934AB223462946006807F010FC3EBD48
:101BD00010B5044694F904102D220823006807F07C
:101BE000FBFB206894F904103122082307F0F4FB72
:101BF000012010BD10B504462246084606233221B6
:101C0000FFF7DAFF204610BD08B5034693F904102C
:101C100020220F23006807F0DFFB012008BD38B544
:101C200004460D460846224628210123FFF7C4FF3B
:101C300028462921621C0123FFF7BEFF28462A21DE
:101C4000A21C0123FFF7B8FF28462B21E21C012329
:101C5000FFF7B2FF28462C21221D0123FFF7ACFF1E
:101C600028462D21621D0123FFF7A6FF204638BD1F
:101C7000014B0360704700BFA04202000120704783
:101C80000120704701207047014B0360704700BF7F
:101C9000A0420200034B10B504460360FEF7F8FAB9
:101CA000204610BDA0420200034B10B5044603605D
:101CB000FEF7EEFA204610BDA042020038B50446F9
:101CC000C06B0C4920F000400BF0B2F878B9216CE1
:101CD00021F0004007490BF0ABF840B9A06C064971
:101CE00001250BF0A5F800B90546E8B238BD012082
:101CF00038BD00BF21B0B23E000040410146002285
:101D0000406B3C31134608F022B838B5FFF7C0F9F4
:101D1000002405460121224600F010FC284600213F
:101D2000224600F00BFC284602212246BDE838403E
:101D300000F004BC2DE9F04F8DB00446FFF7A8F980
:101D4000E56B636D064672492846D4F84C90D4F88A
:101D500050B008930BF06CF810B145F0004501E06D
:101D600025F00045D4F840806A4940460BF060F801
:101D700010B128F0004801E048F00048676C0021ED
:101D800038460BF055F810B127F0004701E047F056
:101D90000047A26CD4F86CA01046514606920BF096
:101DA00029F8069920B1A06E5B490AF07DFD08E094
:101DB000084651460BF03CF820B1A06E56490AF097
:101DC00071FDA066494628460AF06CFDD4F868A06B
:101DD000014650460AF070FE2946099048460AF02E
:101DE00061FD014650460AF067FE5946844640466A
:101DF000CDF814C00AF056FD014650460AF05CFECC
:101E000008990A9038460AF04DFD01210B900022F6
:101E1000304600F093FB30460021002200F08EFB9C
:101E200030460221002200F089FB304603213B4A64
:101E300000F084FBE06B0AF0D3F90246206C0792B5
:101E400006910AF0CDF9CDE90001606C0AF0C8F9FD
:101E5000069BCDE90201079A31480CF0CDF84846BF
:101E60000AF0BEF902465846079206910AF0B8F900
:101E7000CDE9000108980AF0B3F9079A069BCDE96D
:101E8000020128480CF0B8F828460AF0A9F9824661
:101E900040468B460AF0A4F9CDE9000138460AF025
:101EA0009FF95246CDE902015B461F480CF0A4F8A9
:101EB000A06E0AF095F902460B461C480CF09CF8FF
:101EC000DDF814C060460AF08BF902460B4618484C
:101ED0000CF092F809980AF083F902460B4615486F
:101EE0000CF08AF80A980AF07BF902460B46124871
:101EF0000CF082F80B980AF073F902460B460F4873
:101F00000CF07AF80E480DB0BDE8F04F0CF08CB82C
:101F1000E3A51B3D1B2F5DBD0AD7A33B0000484234
:101F2000F0420200044302001B430200324302005D
:101F3000434302005A4302007043020087430200F9
:101F40009F43020038B5436E0446591C4166FFF7B3
:101F5000D5FE656E142DCCBF0020012084F8390019
:101F600068B994F8382052B92046FFF7A7FE84F8E4
:101F7000380058B9B32D0DDC2046FFF7DBFE94F88E
:101F8000381051B106480CF04FF806E02046FFF734
:101F9000BCFEF4E70023E366EEE7012038BD00BF96
:101FA000D043020070B50546FFF772F80026FA2309
:101FB000EB61044685F8386085F839606E66314615
:101FC00000F092FA0121204600F08EFA022120460C
:101FD00000F08AFA0321204600F086FA0D494FF0FE
:101FE0007E50A866E9660025204631462A4600F064
:101FF000A5FA204601212A4600F0A0FA2046022137
:102000002A4600F09BFA20460321034A00F096FA84
:10201000012070BD0000C04000004842014B036039
:10202000704700BFA0420200034B10B50446036096
:10203000FEF72EF9204610BDA0420200000000006D
:102040002DE9F347B64D0446AB6943F40020A8617F
:102050000A2006F06CFCE969684641F40022EA6156
:10206000216EFFF7C7FD009EBDF80470616EA66685
:10207000A4F86C706846FFF7D2FD009DBDF80430EF
:10208000C4F86E50A4F87230B4F96E000AF0C0FCC7
:102090008246A064B4F970000AF0BAFCB4F9728008
:1020A0008146E06440460AF0B3FC20650746B4F977
:1020B000680000010AF0ACFCB4F86A60606531B2F7
:1020C00008010AF0A5FCB4F86C50A0652AB2100112
:1020D0000AF09EFCE06550460AF082F80022914B1F
:1020E0000AF0FCF90022904B0AF0F8F988A3D3E932
:1020F00000230AF0C9F80AF081FB8C490AF0DCFCE5
:102100000146A06B0AF0D0FBA06348460AF068F8CD
:102110000022844B0AF0E2F90022834B0AF0DEF938
:102120007BA3D3E900230AF0AFF80AF067FB7F49ED
:102130000AF0C2FC0146E06B0AF0B6FBE0634046E1
:102140000AF03CF821F0004319460022784B0AF0CF
:102150002BFBC8B138460AF043F80022714B0AF055
:10216000BDF90022704B0AF0B9F969A3D3E9002345
:102170000AF08AF80AF042FB6C490AF09DFC01461D
:10218000206C0AF091FB20646A4F38680AF028F846
:1021900061A3D3E900230AF077F80022664B0AF026
:1021A0009DF90AF02BFBD4F8A01007460AF07AFB41
:1021B000624920F000400AF01DFE10B1C4F8A07082
:1021C000676430B209F0FAFF064628B20F4609F0FC
:1021D000F5FF02460B463046394609F0CBFB0AF0C4
:1021E0000DFB6067B4F9680009F0E8FF0546B4F933
:1021F0006C000E4609F0E2FF02460B4628463146C7
:1022000009F0B8FB0AF0FAFA0546A067B4F96800CD
:1022100009F0D4FF0746B4F96A0021F0004609F03E
:10222000CDFF844621F0004E624673463846314663
:1022300009F078FE0646B4F96C000F4609F0BEFFBF
:10224000024621F000433046394609F06BFE0AF0A1
:10225000B5FAA4F89C00B4F96E000AF0D9FB09F0B5
:10226000BFFF00222F4B0AF039F900222E4B0AF053
:1022700035F927A3D3E900230AF006F80AF0BEFADD
:102280002A490AF019FCA16B0AF00EFB2C490AF04E
:1022900013FC2C490646606F0AF00EFC01463046DE
:1022A0000AF002FBA063B4F970000AF0B1FB09F078
:1022B00097FF00221B4B0AF011F900221A4B0AF07B
:1022C0000DF913A3D3E9002309F0DEFF0AF096FA13
:1022D00016490AF0F1FBE16B0AF0E6FA18490AF038
:1022E000EBFB1849064628460AF0E6FB0146304655
:1022F0000AF0DAFA0022E06304F13801606B134659
:1023000007F054FC0120BDE8FC8700BFAFF300805C
:102310004AD8124DFB210940B81E85EB51B8BE3F8B
:1023200020C0092000408F40008066400AD7A33BB0
:1023300000406F4078C107200080624000004040AC
:1023400048E17A3F0AD7A33C38B51A4C63685A0073
:1023500011D51948416801F001024260E36843F079
:102360008040E060216901F080422261636943F0AE
:102370008040606138BDA068430019D50E4DA86843
:102380000AF042FBE2680D4942F080430860E360D6
:10239000686840F0010169606A6842F002036B609E
:1023A000606900F080416161226942F080432361ED
:1023B00038BD00BF808002400040094078C107203E
:1023C000052370B50446C3610020A063E063206468
:1023D000606428210022012007F0B7FB2B496063CD
:1023E000D1F8C42042F40006C1F8C460D1F8AC3181
:1023F00003F48040C1F8AC01A1F5D0214A6842F055
:1024000001064E604B6843F002004860A1F5D02100
:10241000CA681F4B02F0C006CE6018681D4E40F41B
:10242000002119601C4A1E20002106F0B3FB33680E
:102430004FF08042C4F8A0204BB90820FDF724FFDC
:102440000546FEF7B1FC2860A720287135601149C8
:10245000124E0A68336822664BB90820FDF714FF54
:102460000546FEF7A1FC2860D320287135600B4992
:10247000206E0A686266FFF7ABFB28B1606EFFF75B
:10248000C3FB08B1012070BD002070BD00C00F402B
:1024900020C0092070C107204923010074C1072012
:1024A00070B5002605460660012106200D4C08F097
:1024B000BDFC0121062008F0D1FC0223FF2263604D
:1024C0002260636108F042FE3221B0FBF1F0092383
:1024D000A0616360A660226F284622F00F01216789
:1024E00070BD00BF008001400268052930B542F090
:1024F000010202D90260002030BD01234C1C03FA06
:1025000004F52A43026001FA03F0032404FA00F4FC
:1025100003FA00F0093103FA01F1074A156925EAC7
:1025200004041461146920431061A2F5A032D06C38
:102530000143D164184630BD00C00240F8B51746CB
:102540000C46054608F002FE0AF05EFA13490646FC
:1025500038460AF065FB12490AF0AEFA10490AF053
:10256000A3F9014630460AF0A7FA0AF091FC0D4B98
:10257000052C0FD8DFE804F0030507090B0DD8611F
:1025800008E0186206E0586204E0186402E058644B
:1025900000E098642A681A65F8BD00BF0000C842D0
:1025A0006F12833A0080014038B50D46044608F0AA
:1025B000CDFD074B0221B0FBF3F0B0FBF1F29542E9
:1025C00001D3216138BDB1F5807FFAD00231F4E743
:1025D00040420F0001480BF027BD00BF50440200ED
:1025E0007FB500F235260D460122314604F0FCF895
:1025F000C4B24CBB04A941F8044D304602AA04F011
:10260000DDFCF8B9029A039994699378A21E5A43A3
:102610005943540840F2E73348089C420F49104B95
:102620008CBF4FF48062012288BF0B46B0FBF2F1F1
:102630008DE80A000B482946B4FBF2F20BF0DCFCF3
:10264000012008E0084B00E0084B0948294662B227
:102650000BF0D2FC002004B070BD00BF8A44020021
:1026600087440200944402008D4402009144020019
:10267000C244020038B5AA224FF0804355201A7296
:10268000187208F0D9F8174C02284FF000014FF0EB
:102690000100D4E9002317D1121843EB0103C4E968
:1026A000002308F065FCD8B108F054FCD4E900011F
:1026B0000A2200230AF00CFC0A25A0FB052305FBD7
:1026C0000133C4E9002338BD121843EB0103C4E908
:1026D000002301F0F9FE0020BDE8384008F090BA70
:1026E00038BD00BF88C10720FFF7C4BF024BD3E944
:1026F000002310461946704788C1072038B5084D99
:102700002B684BB90820FDF7BFFD0446FEF74CFBD4
:102710002060402020712C600149086838BD00BF4E
:1027200080C1072038B5054C256825B90120FDF783
:10273000ABFD05702060206838BD00BF7CC107205C
:10274000664A674970B54023664D4FF000704FF4FC
:1027500080348B6190618C612E68ADF5047D26F02C
:10276000F0032B60286840F050042C602E6826F49B
:1027700040532B60086840F040040C602E6826F43B
:102780007C232B60286840F428242C602E6826F4D3
:1027900070032B60286840F420042C602E6826F01B
:1027A00040432B60286840F000442C606E6826F09F
:1027B0003C036B60686840F028046C606E6826F02B
:1027C00003036B60086840F480340C606E6826F484
:1027D00040536B60086820F480040C60E96821F4C1
:1027E0004036EE60136843F0807010606C6824F42B
:1027F000402169606E683C4C46F480236B60A86899
:102800000440AC60116841F4897646F0010313601E
:10281000A86820F47014AC60A96821F07046AE601E
:10282000136823F446401060EC6824F03001E9603E
:10283000EE6846F03003EB60E86820F47014EC605A
:10284000156845F000711160166826F0806313600A
:1028500008F064F94FF4FA6006F085F8FFF7BAFE65
:1028600008F074FC0AF0D0F820490AF0D9F909F010
:10287000B7FC02460B461E480BF0BEFB08F0C4F93D
:10288000042811D100221B48059205681A4E04AC99
:102890000495FFF79FFEF16C1848326D736D00943C
:1028A0000BF0AAFBFFF796FE0C20012108F0BEFA00
:1028B000134C0C20032108F0D1FA4FF400112160D1
:1028C00008F044FC0223C0080E4AB0FBF3F5954221
:1028D0001AD8266846EA0321216019E020C00920A1
:1028E00000C0092000C00240F0FCFCFF0024744935
:1028F00000450200444002400040024018450200EA
:10290000004003403F5DC6000233B3F5807FDBD15A
:102910000A20012108F08AFA0A20012108F09EFA13
:102920009B4807250224056001214460FFF73CFE17
:1029300006F0DEFA1520012108F078FA15200121B1
:1029400008F08CFA9348012105604460FFF72CFEE3
:10295000FEF72AFA642106F023F910B98E480BF02D
:1029600063FB01F077FD10B98C480BF05DFB012192
:102970008B4808F0C3FAFDF79FFD8A49FFF730FE48
:102980000646B8B988480BF037FBFDF795FD314690
:10299000324600F2352004F017FD844B844A0028AB
:1029A00014BF104618460BF03FFBFDF785FD7D492F
:1029B000FFF716FE7F4C206810F0010517D1204666
:1029C00008F0F0FC98B14FF40E70FDF75DFC7A4A08
:1029D000012131263A2380F8341280F8356280F8DC
:1029E000363280F837521060204608F0E9FC724C0D
:1029F00072492068FFF7F4FD18216548FFF7D4FD00
:102A0000FFF7E8FDFFF78EFE002101F04DFEFFF716
:102A100075FE6B4D0646286858B90C20FDF734FC4E
:102A20000446FEF7C1F99021002320602171A360C4
:102A30002C60634A106801F087FE0AF003FA41B285
:102A4000304601F011FE00235E4804A907220493DA
:102A5000059301F0F4FEA8B904A80AF02FFDC6B250
:102A6000751EE8B2FD2805D904A9564A56480BF050
:102A7000C3FA07E055483146524A0BF0BDFA3046DA
:102A800000F060FE524C216819B90120FDF7FCFBF3
:102A90002060206801F030FE064600200CF0D6FFD2
:102AA00030180BF0DFFA4FF40072002104A80AF08E
:102AB000E7FE04A808F006FA04A946480BF09CFAC1
:102AC000FFF788FD8022002104A80AF0D9FE04A89F
:102AD00002F038FD9DF91020531C05D004A9D2B294
:102AE0003D480BF089FA2FE03C4D2B681BB90120C3
:102AF000FDF7CAFB2860286801F000FE09281DD1F7
:102B000037480BF091FA04A936480BF0DFFB04A913
:102B100035480BF071FA35480BF086FA0020039027
:102B200003A933480BF0D2FB9DF90C40592C03D17B
:102B300004A802F0E9FC07E02E4803E02E480BF061
:102B400073FA2E480BF070FA4FF208010E684A68CB
:102B50004FF20403B50A960A4FF470428C6812686B
:102B6000196827480BF048FA2A46314625480BF0E9
:102B700043FA214624480BF03FFAFFF72BFD234888
:102B80000BF052FAFFF726FD0DF5047D70BD00BF76
:102B9000000003400080084090450200C14502004B
:102BA00075260100E6450200EE450200F5440200EC
:102BB000FA44020058C107205CC10720FA3802001D
:102BC00048C10720174602001D4602004846020081
:102BD00050C10720FD5502007546020084C1072040
:102BE00091460200B3460200B8460200D3460200F6
:102BF000164702001A4702003247020060470200EF
:102C000092470200BE470200EB470200084802005C
:102C100001207047F8B591E860000F7A14468FB133
:102C2000082A0FD1304605F0CDFB00281BDD2846D1
:102C30000E494FF0FF3206F0B9FA3046012105F097
:102C4000C8FC08E00A2C05D00D2C03D030462146E4
:102C500005F0AEFD4FB12B6828465B6821464FF06A
:102C6000FF329847F8BD0724F5E7F8BD4048020059
:102C70002DE9FF41CE6B04460D4601AF5EB94FF41E
:102C80007A7007F00DFC31460C2238460AF0F8FD48
:102C900097E807005EE00B6C01F13406186807C87E
:102CA00087E8070000278DF80370EA6B97422DD262
:102CB000F368511E53F827008F420CBF05220022F3
:102CC00000684FEA87080179002949D003680DF1AF
:102CD00003011B689847002842D0B268974241D24E
:102CE000F16851F8080001AB07C883E807001946EE
:102CF0009DF903202846FFF78DFFFFF7F7FCD5E984
:102D00002223121843EB0103C5E92023029805F0A2
:102D100059FB0746029805F058FB421E974216DA07
:102D2000D5E92201014320D0FFF7E0FCD5E92023BB
:102D3000994208BF904218D3FFF7D8FCD5E9222367
:102D4000121843EB0103C5E920230023019304A8D3
:102D500010E9070084E80700204604B0BDE8F081D0
:102D60000137A2E706F11000BDE79DF903100A291B
:102D7000EDD0002799E70000F0B5054685B0204862
:102D80000BF03AF901A82946FFF772FF019C1CB924
:102D90001C480BF049F930E0029E304605F012FB6A
:102DA00000282ADDFFF7A2FC0746F8B1B5F8743019
:102DB0003146581CA5F87400224605F1500004F075
:102DC00033FE114900250A68009223681DF9051099
:102DD0005B6820464FF0FF3201359847042DF4D14F
:102DE000FFF784FCC11B09480BF006F9304605F0DB
:102DF000EEFA2068816820468847012005B0F0BDC2
:102E000043480200424E02001C48020049480200AA
:102E100038B5064C236833B92020FDF735FA05464E
:102E200006F02AF92560206838BD00BF3CC10720A4
:102E300010B50446FFF7ECFF036821465B684FF0CE
:102E4000FF32984740B210BD13B5002302AC04F81E
:102E5000013DFFF7DDFF01684FF0FF320B682146AF
:102E600098479DF907001CBD38B5054600246B68DE
:102E7000E8689C4205D250F82400FDF709FA0134B5
:102E8000F5E708B1FDF706FA284638BD0D4B70B5D9
:102E9000044640F8503BFFF7E7FF04F134060025F5
:102EA0007068854206D2F26852F82500FDF7F0F905
:102EB0000135F5E7206C08B1FDF7ECF90249204631
:102EC000216070BD28480200A042020010B50446EF
:102ED000FFF7DCFF2046FDF7DBF9204610BDF8B513
:102EE0004368044699420D4615D3C06889000BF02B
:102EF00025F9A668E060B700AE420BD20C20FDF7C2
:102F0000C3F9E26800210160416001720136D051CD
:102F10000437F1E76560F8BD2DE9F041044614205F
:102F200016468846FDF7B0F98021074605F053FCA8
:102F3000A36BE26B9A4205D3616B04F1340059181C
:102F4000FFF7CDFFE56B206C50F825300135C3F855
:102F500000805F601E72E563BDE8F0812DE9F041FD
:102F600000F150048AB000250646009520466249CB
:102F7000624A634B04F088FC009520466149624A2E
:102F8000624B04F081FC009520466149614A624B26
:102F900004F07AFC009520466049614A614B04F0D8
:102FA00073FC009520466049604A614B04F06CFC5C
:102FB000009520465F49604A604B04F065FC00952F
:102FC00020465F495F4A604B04F05EFC0095204656
:102FD0005E495F4A5F4B04F057FC009520465E490E
:102FE0005E4A5F4B04F050FC009520465D495E4A06
:102FF0005E4B04F049FC009520465D495D4A5E4BFE
:1030000004F042FC009520465C495D4A5D4B04F0AB
:103010003BFC009520465C495C4A5D4B04F034FC67
:10302000009520465B495C4A5C4B04F02DFC009502
:1030300020465B495B4A5C4B04F026FC0095204629
:103040005A495B4A5B4B04F01FFC009520465A49E5
:103050005A4A5B4B04F018FC0095204659495A4ADD
:103060005A4B04F011FC009520465949594A5A4BD5
:1030700004F00AFC009520465849594A594B04F07F
:1030800003FC009520465849584A594B04F0FCFB74
:10309000009520465749584A584B04F0F5FBFFF776
:1030A000B7FE4FF4806320224FF41641054605F029
:1030B000C1FF012780462F715148FDF74FF9514854
:1030C000FDF746F9304629463A46FFF725FF082224
:1030D00003A905A805F050F905A84B4905F00CFC1B
:1030E00005A92A46204604F09FFC05A805F058F9DA
:1030F00040460AB0BDE8F0814D050100A948020034
:103100005F48020019060100964802009E4802002E
:10311000F10E0100BC480200AE4802003D0601006D
:1031200004490200C3480200810701000949020066
:103130000D49020001070100AC4902006949020083
:10314000890B0100AB490200AF4902006108010090
:10315000FA490200FD490200090A01002B4A020057
:10316000314A0200810A0100564A0200594A02000F
:10317000DD0A010016630200864A0200450A0100CA
:10318000AB4A0200AE4A0200C90D0100D14A02005A
:10319000D54A0200C10C01007C4B0200844B0200A6
:1031A000F5110100C74B0200CE4B020029120100AD
:1031B000E14B0200E54B0200750D01001B4C0200C3
:1031C000214C0200891A0100DD450200494C020031
:1031D000B1100100734C02007A4C0200A9110100E9
:1031E0009C4C0200A14C020029130100A54D0200D5
:1031F000B14C0200951201003D3902006E4D0200F3
:10320000492E0100312E01008C42020073B50024CA
:103210004FF480520B4600941849064605F080F89A
:10322000174B042533607563B463F463346406F1AB
:1032300034000221FFF753FE35657465B465F4650B
:1032400006F150001821FEF7FDFBA6F87440A6F821
:103250007640B4670B4C002200230025012086F83D
:103260007000C6E92023C6E92245FFF73FFA00199E
:1032700041EB0501C6E9200130467CBDAA4D0200A4
:1032800028480200C0D40100F7B5A420FCF7FCFFD9
:1032900000261C494FF4805202230096054605F093
:1032A0003FF8194B70202B606F6BFCF7EDFF01238B
:1032B0004FF4805215490096044605F031F8144841
:1032C000676320609020FCF7DFFF01210746FFF7CE
:1032D0009DFF384604F0E6FF284604F0E3FF204651
:1032E00004F0E0FF0120314604F0ECFF2968284695
:1032F0004A68904723682046596888474FF0FF3056
:10330000FEBD00BF474F020018440200584F0200A4
:10331000F843020038B5074C236833B91C20FCF78A
:10332000B3FF054605F072FC256022680248026082
:1033300038BD00BF4CC1072090C1072030B5002325
:103340008B420DD044783CB1048C4FF6FF751419B4
:10335000AC4228BF2C4604840133DBB22430EFE7B3
:1033600030BD000037B50E49002302A84A6840F876
:10337000043D042190470B4B05461C68019804212D
:10338000041B186022460848FFF7D8FF02210748AF
:103390002246FFF7D3FF281C18BF01203EBD00BF07
:1033A00094C107207CC20720A8C1072081C2072042
:1033B00008B50B4B01781A780A4B914203D1198852
:1033C0000131198002E09988013199808270064AA2
:1033D0002021D3689847003018BF012008BD00BFE6
:1033E00005C0072050C2072094C107200A4B02786D
:1033F00019780A4B8A4203D1DA88511CD98002E03D
:103400001A89511C19810379C3F3C202511E61F359
:10341000C5030371FFF7CCBF05C0072050C20720CA
:1034200010B50023064A990012F82340844201D1C6
:10343000501810BD0133042BF4D1002010BD00BF83
:103440006BC2072070B1C378591CCAB2FF2AC27080
:1034500008D100230448C218D17804334808102B3F
:10346000D070F7D1704700BF6BC20720F0B503469C
:103470000246044600258D4207D02046243414F825
:10348000236CC6B10135EDB2F5E7002004468C424D
:1034900010D01579178CC5F3C20547EA0545A84237
:1034A000164624BF05461E460134E4B2243228469F
:1034B0003346ECE71846F0BD38B501310446CD007F
:1034C000FFF750FF1B4B20781A78824204D102216B
:1034D0001948FFF7CBFF0CE004211848FFF7C6FF9F
:1034E000E17831B990F8235045F0800380F823301B
:1034F000042590F82310002221F07F0380F8225049
:1035000043EA152580F8202080F8212080F82350F8
:103510002346024604F1200153F8044B8B4242F843
:10352000044BF9D1064A0379117861F3C50303719D
:1035300038BD00BF05C0072081C20720A8C10720F1
:1035400004C0072010B5FFF76BFF044608BBFFF768
:1035500067FF0446E8B9104AD378D179994202D27C
:103560000B46111D00E01146D07AD47B984238BF3B
:103570000A490B4A38BF03469C422CBF0C461446EE
:103580002046002104220AF07BF9064BD97A481C18
:10359000D872204610BD00BF6BC2072073C207203F
:1035A00077C2072050C207202DE9F041054690461A
:1035B0000C460027474500F0BE8094F8233003F006
:1035C0008000C1B269B3BDB12B786278934203D158
:1035D0006878217888421ED0E87868B1697891428D
:1035E00008D122789A4205D1A879A179421A53428A
:1035F000534100E0002373B994F8232094F822107B
:10360000208C02F07F0341EA03218842C0F28F80C0
:103610002046FFF7CDFE2046002124220AF030F993
:1036200085E06378002B00F08280002D3DD02A7960
:1036300002F0C000C0281AD16A782178914202D1E4
:1036400028789842E7D0E078A978884210D1934250
:1036500009D120782A78904205D1A079AA79811AD7
:103660004842414100E000210029D4D100E0E0B10E
:10367000A978E278914218D16878984209D12178E6
:103680002A78914205D1A179AA79881A4142484104
:1036900000E0002048B12279002161F3C50284F8DE
:1036A000201084F82110227141E094F8232094F82E
:1036B0002200218C02F07F0240EA0220814236DBA8
:1036C00021790026C1F3C20284F8206084F82160C9
:1036D000D6B21EB12046FFF789FE28E001F0C000F7
:1036E000C02818D0154920780978884213D1E0788D
:1036F000984210D078B16379E270032262F3071325
:1037000063712046FFF772FE0D482179037863F359
:10371000C501217100E001266078FFF781FE18B134
:10372000002104220AF0ACF8002E7FF474AF0137B8
:10373000FFB224343EE7BDE8F08100BF05C007209A
:1037400004C00720431ED9B2FD2903D8024A1070D5
:10375000012070470020704705C00720014B1878F2
:10376000704700BF05C0072007289CBF014B187099
:10377000704700BF04C007202DE9F7430446914677
:1037800098469DF828600D46002958D02F4B1F7889
:10379000B94254D0B8F10F0F51D8002851D020228F
:1037A00000210AF06DF8FF2D207914BF09F0030203
:1037B000002262F38710032161F30200244B207181
:1037C0001A78277062F3C50020712248A77001782B
:1037D0000BAF4B1CDAB20270A271657001970EB983
:1037E000012613E00198013E03464268E07953F850
:1037F000081B8718FFB2182F0193F6B205D80830BE
:1038000020180AF01AF8E771E9E70026124F0121A3
:1038100028463970FFF704FE0546FFF713FE002225
:103820003A70637925B968F307136371E57009E0AD
:10383000A87860F3071363716978E17002E00026ED
:1038400000E006463046BDE8FE8300BF05C0072005
:1038500004C007205EC207205CC20720164B70B56B
:1038600001261E70044608B900251FE0FFF7A0FDE1
:1038700005460028F8D0207900F0C001402903D087
:10388000B1F1800256425641C02906D1E3782BB1EE
:103890006078C31A18BF012300E000230EB9DB07CC
:1038A00004D5617920460909FFF706FE024B002284
:1038B0001A70284670BD00BF5CC2072082B0F0B508
:1038C0001746421E0446D0B28DB0FD280D46139314
:1038D00001D900205AE0002BFBD0159B002BF8D01B
:1038E00017990029F5D0169A002AF2D014980028CA
:1038F000EFD000214822284809F0C2FF0021902281
:10390000264809F0BDFF00211022254809F0B8FF24
:10391000244E00210C22244809F0B2FF00210C2281
:10392000224809F0ADFF3470214C224E25703446F8
:1039300013AD0FCD0FC42B68002118221E48236041
:1039400009F09EFF394617221B480AF0A6FE002008
:10395000B268014690470028BBD09DF8601011B9AD
:10396000FFF700FD12E015480622012301900292A4
:10397000009304A8FF210022FFF7FEFE0028A8D034
:1039800004A8FFF76BFF0028A3D0E9E70DB0BDE85E
:10399000F04002B0704700BF81C20720A8C10720D5
:1039A0006BC2072005C007205FC2072050C2072056
:1039B0005DC2072094C1072038C207206B4F020068
:1039C00070B5182B8CB006460D4617D81C1C18BFB6
:1039D0000124002A14BF214684F0010171B1019233
:1039E0000293009404A831462A469DF84030FFF720
:1039F000C3FE18B104A8FFF731FF00E000200CB0AF
:103A000070BD13B50446107852790B461109009128
:103A100022460321FFF7D4FF1CBD000030B5002370
:103A20001A4608499C0011F823502DB1904201D14B
:103A3000081930BD0132D2B20133042BF1D100207C
:103A400030BD00BF6BC2072000231846044A995CB2
:103A500009B10130C0B20433102BF7D1704700BF59
:103A60006BC207202DE9F04188B068460021202272
:103A700009F006FFA14B1C78002C40F03B81A048C8
:103A80002021026968469047002800F087809D4DFC
:103A900069884B1C6B80FFF7D7FFA8729DF8042044
:103AA00002F00700032804D097490A7842F0010089
:103AB00009E0964D9DF802102D78A94205D1924952
:103AC0000B7843F002000870E6E0C2F3C2019DF8F3
:103AD00000709DF806005FFA81FE032262438C4E5F
:103AE000B318B65CBE420AD15A78824207D19A789E
:103AF0009970B2EB0E0618BF0126012417E00134BD
:103B0000042CEAD1834C236899708149587001F1E3
:103B1000090083421F7040F0CC8021609DF80000B6
:103B20009DF80220824240F0C780002426469DF87E
:103B30000200FFF707FD9DF80210002C08BF0126C8
:103B400001709DF80220002142708170F6B2FFF7EB
:103B500079FC1EB39DF80000A84200F09C809DF8FF
:103B60000160FF2E1CD166482021036868469847F3
:103B700020B9654C227842F0040121709DF805308F
:103B800003F00F04601C1A4660F30302B4EB131F2A
:103B90008DF8052002DA6846FFF70AFC00247BE076
:103BA000B5422CD16CB99DF8070050B1544B684612
:103BB0001A682021904720B9534C217841F0040025
:103BC00020709DF8043003F0C002402A12D19DF805
:103BD000071011B95048182108E04A480C216A46DC
:103BE000FFF70FFF002856D1002001466A46FFF775
:103BF00008FF50E09DF80340002C4CD1F4E7474CFF
:103C00002378002BCAD09DF8054004F00F0827093F
:103C1000B845C3DA3046FFF703FC9DF8032008F1EE
:103C2000010868F3030495428DF805401DD19DF805
:103C3000045005F0C004402C05D0B4F180014B4283
:103C400053EB010200E0012208B1457800E005468F
:103C5000C02C05D1AE4203D02C1C18BF012400E0BB
:103C6000002444EA020530B90AE0A2B910B9684656
:103C700039460EE0154641788DF80310847802E04D
:103C80008DF8030004466846FFF792FB1DB16846B5
:103C90002146FFF711FC6C46FFF764FB2046042227
:103CA0001F49FFF781FC20461E490222FFF77CFCDA
:103CB00020E0DE1C266031E785423FF436AFFFF797
:103CC00041FC0446FFF7BEFB23783BB19DF805108D
:103CD000A67801F00F00B0423FF727AF9DF8002013
:103CE00022709DF8023063709DF80510C1F3030047
:103CF000A0701AE708B0BDE8F08100BF5CC20720E1
:103D000094C1072050C2072080C2072005C00720A9
:103D10005FC2072000C0072038C207205DC207200D
:103D2000A8C1072081C2072000231846094AD118DC
:103D30004A780AB10130C0B22433902BF6D1064B39
:103D4000597809B1421CD0B293F825300BB101303B
:103D5000C0B27047A8C1072081C2072008B5FFF78D
:103D60005FFB054B20B180781978421CD00001E040
:103D700019781820484308BD04C00720034A116879
:103D800001605168926841608260704750C20720AC
:103D900030B5404C4FF48035E5613F4CA060E068A1
:103DA000C006FCD43C488068C0B2002B6CD00B46E7
:103DB000002A5CD0384C93F90050072AA56030DD0A
:103DC00093F90150083AA56093F90250A56093F960
:103DD0000350A56093F90450A56093F90550A560C0
:103DE00093F90650A56093F907500833A5602A4C53
:103DF000A5696D07FBD5A5680D70A5684D70A56810
:103E00008D70A468CC70244CE568ED06FBD4A568E1
:103E10000D71A5684D71A5688D71A468CC710831CC
:103E2000C6E7032A18DD93F90150043AA56093F917
:103E30000250A56093F903500433A560164CE56861
:103E4000ED06FBD4A5680D70A5684D70A5688D7052
:103E5000A468CC700431ABE70133013AE56815F092
:103E6000100FFBD10C4CA46801F8014BA0E7094BE3
:103E70004FF480329A6140B230BDE56815F0100F02
:103E8000FBD1054C0133A4689342F0DACD56024CC5
:103E9000A560F2E700C009200080084007B50023B4
:103EA00002A9012201F8013D00F01F001346FFF7AF
:103EB0006FFF9DF907000EBD07B502AB03F8011DAA
:103EC00000F01F0019460122002340F02000FFF7F8
:103ED0005FFF0EBD08B51720FFF7E0FFC0F300102D
:103EE00008BD07207021FFF7E7BF03460A466FF0C1
:103EF0005F0019460023FFF74BBF08B50020FFF70E
:103F0000CDFF20F0010149B20020BDE80840FFF7D5
:103F1000D3BF0000024B4FF08072DA61704700BFE0
:103F200020C0092008B50020FFF7B8FF40F00101CC
:103F300049B20020FFF7C0FF024B4FF080729A6138
:103F400008BD00BF20C0092007202021FFF7B4BF13
:103F500000216FF01E000A460B46FFF719BF000054
:103F600037B505460C46FFF7F3FF28462146FFF715
:103F7000BCFF0D4B4FF0807200209A61ADF8060037
:103F8000BDF806104A1C93B2ADF8063033B90649A5
:103F90004FF08070C861FFF7DBFF3EBDFFF79AFF6F
:103FA0000028EDD0F3E700BF20C0092008B5172096
:103FB000FFF774FF00F0010080F0010008BD07204A
:103FC0004021FFF779BF08B503460A46612019462C
:103FD0000123FFF7DDFEC0F3420008BD00216FF0B2
:103FE0001D000A460B46FFF7D3BE70B504460020FD
:103FF0000D461646FFF752FF14B100F0BF0102E074
:1040000040F04000C1B215B101F0DF0201E041F023
:10401000200216B102F0EF0301E042F0100300208D
:1040200059B2BDE87040FFF747BF10B50446002005
:10403000FFF734FF14B900F0F7020DE0012C04D1B2
:1040400000F0FB0040F0080206E0022C14BF40F034
:10405000080140F00C01CAB2002051B2BDE8104086
:10406000FFF72ABF08B50020FFF718FF40F0020154
:1040700049B20020BDE80840FFF71EBF08B5002088
:10408000FFF70CFF20F0020149B20020BDE8084014
:10409000FFF712BF40F6DD13984206D840F66211D2
:1040A000B0F5166F38BF084600E01846A0F1600270
:1040B00051B20520FFF700BF10B504460620FFF7F8
:1040C000EDFEFA2C00F0D70102D141F0200104E00E
:1040D000B4F5FA6F08BF41F00801062049B2BDE807
:1040E0001040FFF7E9BE10B504460620FFF7D6FEE4
:1040F000032C34BF2146032100F0F90040EA4102BD
:1041000051B20620BDE81040FFF7D6BEF9284FF0A7
:10411000FA0305D9B0F57A6F28BF4FF47A6000E052
:104120001846B0FBF3F0421ED3B20F2928BF0F216F
:1041300041EA0311042049B2FFF7BEBE1130C0B2FC
:10414000162806D8202928BF202140B249B2FFF7FF
:10415000B3BE7047032804D004280CBF02210321FA
:1041600000E001210320FFF7A7BE03460A463020E6
:1041700019460023FFF70CBE03460A462A201946BB
:104180000023FFF705BE000073B504460E46154632
:10419000FFF724FFFFF7DCFE2A4B4FF08072DA6155
:1041A000FFF76CFF00210A460120FFF71EFFFFF713
:1041B00098FE0220FFF739FF3046FFF76BFF2846D5
:1041C000FFF77AFF0320FFF78EFF02200321FFF79E
:1041D00073FE01200021FFF76FFE03214FF4FA70F8
:1041E000FFF794FF00202146FFF7A8FF12200021CF
:1041F000FFF762FE13200021FFF75EFE142000216E
:10420000FFF75AFE15200021FFF756FE1620002169
:10421000FFF752FE0C4908680A79009005208DF8D6
:104220000420FFF797FF68460521FFF79EFF6846C9
:104230000521FFF7A1FFFFF715FF4FF4FA6004F027
:1042400076FB7CBD20C00920724F0200042938B5DE
:10425000054603D1041C18BF012400E00024FEF72A
:1042600045FA04B12860204638BD000007B5084B68
:10427000002102AA186842F8041D0B4605F02EFD25
:10428000019818B103494FF080520A600EBD00BF7B
:10429000D4C2072004ED00E070B500238AB001937A
:1042A0000646007901AA00F0C001C0290CBF0F49E1
:1042B0000F4900230D683146284605F00FFD0446DE
:1042C00058B9224602A9284605F0C2FD23462846D1
:1042D000314601AA05F002FD0446019A1AB1054BC8
:1042E0004FF08050186020460AB070BDCCC2072045
:1042F000D0C2072004ED00E010B5194C226822B9A5
:104300000320202105F021FC2060164C226822B9F0
:104310000120202105F019FC2060134C216821B9EF
:104320000120032205F011FC2060202040F6C3117B
:104330004FF4FA62FFF728FFFFF7F4FD1620012182
:104340000A4A04F027FC064B186838B10548006893
:1043500020B105490A68101C18BF012010BD00BF1C
:10436000D0C20720CCC20720D4C207206D42010072
:104370002DE9F34180460F46164606F05DFA022805
:1043800007D1324640463946002305F0E0FCC6B26C
:1043900013E000230193FEF7A9F9841941F1000508
:1043A0004046394601AA05F053FDC6B22EB9FEF7C4
:1043B0009DF98D4208BF8442F2D270B2BDE8FC8103
:1043C00037B504460D46FFF7C9F9237883420AD072
:1043D000E07840B909F072FE00F00301481CBD22EC
:1043E000504304F0A4FAFFF795FDFFF786FD204641
:1043F000A9B2FFF7B5FDFFF7A7FDFFF793FD06F0A4
:104400001BFA02280ED1084B002102AA186842F8B4
:10441000041D0B4605F062FC019818B1034A4FF0E9
:104420008051116001203EBDD4C2072004ED00E0A0
:1044300038B504460D46FFF7B9FD48B1A9B220468C
:10444000FFF7C1FDFFF7B2FD08B9FFF7B8FD012086
:1044500038BD000000B50C4B0C488DB00C490D4A1E
:1044600009930B900CAB002043F8102D0A91049097
:104470000FCB8DE80F00084B6A200121074AFFF798
:104480001DFA0DB000BD00BFF9420100314401002A
:10449000C14301004D42010099420100774F0200E3
:1044A0000A460349034608681946FFF761BF00BF83
:1044B000D0C207200A460349034608681946FFF799
:1044C00057BF00BFCCC2072008B506F0B5F90F4BA7
:1044D0000228586912D142020CD5FFF725FC0C497D
:1044E00000280CBF4FF0FF320122086800210B4664
:1044F00005F02DFCBDE80840FFF7B4BA4302F9D53A
:10450000FFF712FC0028F5D108BD00BF00C009204C
:10451000D4C2072010B506F093FA0C4B1A6822F0AB
:10452000E06020F0FF0119601C6844F004021A608A
:10453000186840F0807119605C68002CFCDA034B4D
:104540005C6806F08FFAC4F30B1010BD0040034006
:1045500030B504464DB2006894F9041053B22A46AF
:10456000BDE8304004F038BF1FB5002204AB90F91D
:10457000044023F8042D4AB202210091006821462C
:1045800004F035FF9DF90C009DF80D3082B243EA2E
:10459000022188B204B010BD234910B50A680B4649
:1045A00012F010020ED08868C83088611F490A884E
:1045B0001F2A05D8DC6A1E4840F8224001320A80D2
:1045C00010202EE00B68D9072CD518480088012848
:1045D00022D9174B411E04338A4207DA53F8041CD0
:1045E0001C680132611A43F8041CF3E7104A0023E7
:1045F00050681A4600EB50008B420BDA0C4C54F812
:104600002340844203D9012404FA03F422430133F2
:104610009BB2F1E707490A60044B00221A80024B63
:104620000120186010BD00BF00800040DCC20720E0
:10463000E0C20720D8C20720044A08B501F07F0372
:104640004171D25C0321FFF783FF08BD7C4F02005C
:10465000044A08B501F07F038171D25C0221FFF7A3
:1046600077FF08BD7C4F0200642370B591FBF3F423
:1046700004FB13110A224CB294FBF2F602FB164320
:1046800003F1300149B20546FFF7E2FF092C02DCD5
:104690002846202103E006F13002284651B2BDE849
:1046A0007040FFF7C9BF0000124B01F00F0140F24C
:1046B000131201709A610178CA0701D50122DA61EB
:1046C000037803F00201CAB212B10A4B0221D96188
:1046D000027802F00401CBB213B106491022CA617C
:1046E000007800F00803DAB21AB102484FF4807182
:1046F000C161704720C00920FFF70CBF044B596906
:10470000C1F38130C1F3412242EA8000704700BF0B
:1047100020C0092038B500210446FFF725FF0121FC
:10472000812285B22046FFF713FF102328B290FBA9
:10473000F3F008F06DF94FF0765108F0BDF9A1687B
:1047400008F0B2F838BD000008B5FFF7E3FF0549EF
:1047500008F0B2F9044908F063FA4FF0844108F018
:10476000A3F808BD000010410000A0402DE9F04F63
:104770000546ADF5177D0C46914602A82946012253
:104780009A4602F081F88346002853D10CA82146AE
:104790000A2202F079F8834608B102A837E00090B7
:1047A0000190064607468046FDF7A0FF16A904467D
:1047B0004FF4007202A86B4602F032F98346A8B9A2
:1047C000009A9AB1FDF792FFB8EB040268EB080378
:1047D00000EB0208FDF78AFF009A04460D460CA87C
:1047E00016A901AB02F0C2F9834698B1B9F1000FE6
:1047F00001D0C9F80080BAF1000F01D0CAF80070EA
:10480000A09901B10E6002A802F0B4FA0CA802F05F
:10481000B1FA0FE0019900988142E7D1FDF766FFF8
:104820004FF0FF321440C7193F1B009C00231D406E
:104830003619B9E758460DF5177DBDE8F08FF0B58C
:1048400004468DB00F46164621461D4602A8002399
:104850000122019302F018F8044670B91DB102A8B4
:10486000294602F09FFA02A83946324601AB02F00F
:10487000D7F8044602A802F07DFA20460DB0F0BD3C
:10488000F0B504468DB00F46164621461D4602A8D7
:1048900000230A22019301F0F7FF044670B91DB10D
:1048A00002A8294602F07EFA02A83946324601AB38
:1048B00002F05CF9044602A802F05CFA20460DB052
:1048C000F0BDF0B504468DB00F46164621461D4694
:1048D00002A800231222019301F0D6FF044680B9FA
:1048E00002A80DB1294600E0059902F05BFA02A882
:1048F0003946324601AB02F039F9044602A802F00B
:1049000039FA20460DB0F0BD7F2816D931B1FF2805
:1049100012D80A49803831F810007047074A8BB224
:1049200032F81120824203D001318029F6D10B46A2
:1049300003F18000C0B2704700207047DC510200D4
:104940000023064A32F8131031B1884201D00133F6
:10495000F7E7034830F81300704700BFDC5202004D
:10496000FC4F020010B501200C4605F090F92060C4
:10497000003018BF012010BD0120704710B504465B
:1049800005F05AFF02280AD100210B46204640F6C6
:10499000B83205F0DCF9431E5842584110BD0120E1
:1049A00010BD10B5044605F047FF022807D10021CD
:1049B00020460A460B46BDE8104005F0F7B810BD8A
:1049C00010B5044604F004FB24B1012C06D100F01C
:1049D0005BFB01E000F0F8FC044600E0042404F076
:1049E0000BFB204610BD20B1012801D100F044BBD3
:1049F00004207047F8B504460F4616461D4604F0DD
:104A0000E7FA3CB1012C0CD1384631462A4600F079
:104A1000E3FA04E0384631462A4600F019FD044620
:104A200000E0042404F0E8FA2046F8BDF8B5044696
:104A30000F4616461D4604F0CBFA3CB1012C0CD1B2
:104A4000384631462A4600F067FA04E038463146D7
:104A50002A4600F019FD044600E0042404F0CCFAD4
:104A60002046F8BD70B504460E46154604F0B0FA6F
:104A700034B1012C0AD13046294600F027F903E071
:104A80003046294600F01AFD044600E0042404F0F4
:104A9000B3FA204670BD000010B5044606F056FB80
:104AA000074BB0FBF3F10223B1FBF3F2944202D3C4
:104AB0000448036110BDB3F5807FF9D00233F3E7FA
:104AC00040420F0000000340044B9860DA68D206B1
:104AD000FCD40248816848B2704700BF0000034020
:104AE00038B5FDF703FE00F5FA754FF0FF30FFF71C
:104AF000EBFF4FF0FF30FFF7E7FFC4B2FF2C07D00A
:104B0000FDF7F4FD2A460023994208BF9042F0D3F6
:104B1000204638BD38B5064C4FF00075E561FFF70B
:104B2000DFFF044BA5611A7842F00100187038BD10
:104B300020C0092006C0072070B505460E46FDF7C7
:104B4000D5FD00F164044FF0FF30FFF7BDFFC0B2A8
:104B5000FF2809D1FDF7CAFD22460023994208BF6C
:104B60009042F0D3002070BDFE28FBD1102E06D954
:104B700028464FF40071002204F0C8F918E02C46D2
:104B80004FF0FF30FFF7A0FF20704FF0FF30FFF72E
:104B90009BFF60704FF0FF30FFF796FFA0704FF063
:104BA000FF30FFF791FFAB19E0700434A342E7D167
:104BB0004FF0FF30FFF788FF4FF0FF30FFF784FF23
:104BC000012070BD38B505460C46FFF789FFFF2868
:104BD0001ED160B2FFF778FFFD2C1BD04FF400719F
:104BE0004FF0FF32284604F091F94FF0FF30FFF705
:104BF0006BFF4FF0FF30FFF767FF4FF0FF30FFF71D
:104C000063FF00F01F00411F4A4252EB010038BD14
:104C1000002038BD012038BD38B5044620060D46B9
:104C200007D577200021FFF7F7FF01283BD804F0D4
:104C30007F041D4B4FF000729A61DA61FFF750FF5D
:104C4000FF282FD160B2FFF73FFF2816FFF73CFF88
:104C500045F30740FFF738FF45F30720FFF734FF20
:104C600068B2FFF731FF402C04D0482C0CBF8720DE
:104C7000012000E0952040B2FFF726FF4C2C03D125
:104C80004FF0FF30FFF720FF0A244FF0FF30FFF70F
:104C90001BFF01460029C0B205DA013C14F0FF04F5
:104CA000F3D138BDFF2038BD20C00920054A064990
:104CB00013784869410154BF03F0FD0343F0030337
:104CC0001370704706C0072020C009207FB5054635
:104CD0000C46FFF7EBFF052D18D12178012900F0D4
:104CE0000F810AD3022940F009818848426982F085
:104CF0008063C3F38061617002E1844C606910F0ED
:104D0000806440F0FD80FFF705FFF9E0804B1878E4
:104D1000C00700F1F7800E2D00F2EA80DFE815F001
:104D20000F00190054005800E800E800E800E8000F
:104D3000E800E800B200B700B900C300D40073482F
:104D40004FF00071C161FFF7CBFEFF3818BF0120A3
:104D5000CFE049200021FFF75FFF054608B10120A1
:104D6000C7E068461021FFF7E7FE0028F7D09DF85E
:104D700000109DF808308A09012A07D19DF8091012
:104D8000481C00EB03239AB2930246E09DF807000B
:104D9000810001EB93129DF80630501C9DF8052010
:104DA00003F0030100EB812302F00F009DF80A10CD
:104DB0009DF8092000EBD11002F0030100EB410047
:104DC000C21F03FA02F328E04FF4007020805CE079
:104DD000504D2B7803F00400C1B209B3CD2000215F
:104DE000FFF71AFF0028BAD14FF0FF30FFF76CFE33
:104DF00068461021FFF7A0FE0028B0D030254FF004
:104E0000FF30013DFFF760FE15F0FF05F7D19DF87B
:104E10000A001022010902FA01F32360284668E023
:104E20004920FFF7F9FE0646002898D16846102170
:104E3000FFF782FE002892D0297801F00202D0B25A
:104E40009DF80A1080B101F03F009DF80B10CA09CF
:104E50009DF80D1002EB40038A09581C531E00FAFE
:104E600003F02060304644E09DF80B30C1F384022B
:104E7000511C03F003025B0903EBC202531C4B43BA
:104E8000236036E023490A782270002031E049206F
:104E900000E04A200021FFF7BFFE00287FF45FAF4B
:104EA000204610211DE07A200021FFF7B5FE0028E2
:104EB0007FF455AF05464FF0FF30FFF705FE605514
:104EC0000135042DF7D1E0E7CD200021FFF7A4FE46
:104ED00000287FF444AF4FF0FF30FFF7F5FD204688
:104EE0004021FFF729FED0F1010038BF002000E08B
:104EF0000420064B4FF000729A6104E0042002E0A7
:104F0000002000E0032004B070BD00BF20C00920D5
:104F100006C0072060C3072070B5144605460E463C
:104F2000FFF7C4FE002C4AD0284B1A78D20748D489
:104F3000187800F00401CBB2002B44D124484FF084
:104F400000722449C2610B7803F00802D0B200B9A4
:104F50007602012C0DD158203146FFF75DFE30BBA3
:104F6000FE212846FFF72EFED0F1010438BF0024B1
:104F70001DE013F0060F03D0D7202146FFF74CFEAB
:104F800059203146FFF748FE88B92846FC21FFF733
:104F900019FE28B1013C14F0FF0405F50075F4D1A9
:104FA0000020FD21FFF70EFE002808BF0124084B5A
:104FB0004FF00071201C996118BF012070BD0420C2
:104FC00070BD032070BD022070BD00BF06C0072069
:104FD00020C0092060C3072070B5144605460E4660
:104FE000FFF764FE002C3CD0204B1878C1073AD460
:104FF0001F494FF000721F4BCA61187800F0080279
:10500000D1B201B97602012C0ED151203146FFF701
:1050100003FEF0B928464FF40071FFF78DFDD0F183
:10502000010438BF002414E052203146FFF7F4FD9C
:1050300078B928464FF40071FFF77EFD28B1013C96
:1050400014F0FF0405F50075F3D14C200021FFF7A3
:10505000E3FD074B4FF000709861201C18BF012042
:1050600070BD042070BD032070BD00BF06C00720C6
:1050700020C0092060C3072008B5FFF717FE014BC9
:10508000187808BD06C007202DE9F341FFF70EFE92
:10509000554B1A7802F00200C1B2002940F0A080FE
:1050A0000120FFF7F9FC0A244FF0FF30013CFFF725
:1050B0000BFD14F0FF04F7D14C4B4FF0007640206D
:1050C000DE612146FFF7A8FD012801D0002674E02B
:1050D000FDF70CFB4FF4D57100F57A774820FFF708
:1050E0009BFD012841D14FF0FF30FFF7EDFC01AAF5
:1050F00010550134042CF6D19DF806000128E5D1A5
:105100009DF80710AA29E1D1FDF7F0FA3C460025E9
:10511000A94208BFA04206D3FDF7E8FAA94208BF9A
:10512000A042D3D207E0E9204FF08041FFF774FDA1
:105130000028E9D1F0E77A200021FFF76DFD002873
:10514000C4D104464FF0FF30FFF7BEFC01AE30552E
:105150000134042CF6D19DF8043003F04002D0B2A3
:1051600000280CBF04260C2627E0E9202146FFF783
:1051700053FD01288CBF012602268CBF4FF0410849
:105180004FF0E908FDF7B2FA3C460025A94208BFF6
:10519000A0420BD3FDF7AAFAA94208BFA0420CD344
:1051A00050204FF40071FFF737FD06E04046002124
:1051B000FFF732FD0028E5D1ECE70D490B4B4FF02E
:1051C00000720E709A6146B10748017801F0FE0244
:1051D00002701820FFF760FC01E0FFF79BFC024B18
:1051E0001878BDE8FC8100BF06C0072020C0092058
:1051F00060C30720F8B51A4B05461C880E46B4F567
:10520000007F174602D1084611460AE0B4F5807FB8
:1052100009D1084611462246A84706F5807007F5D1
:105220008071224619E0B4F5047F07D122F4FF72A1
:10523000084622F001014FF400720EE0B4F5847FBD
:105240000CD1170A08464FF480727902A847791CDE
:1052500006F5807049024FF48072A847F8BD00BF80
:1052600062C3072010B5034600295CDD93F90040B6
:105270002D4A0729946030DD93F901400839946084
:1052800093F90240946093F90340946093F90440C9
:10529000946093F90540946093F90640946093F903
:1052A000074008339460204A94696407FBD59468EA
:1052B000047094684470946884709268C2701A4A4A
:1052C000D468E406FBD494680471946844719468CB
:1052D00084719268C2710830C6E7032918DD93F91A
:1052E00001400439946093F90240946093F90340BB
:1052F000043394600C4AD468E406FBD494680470C8
:1053000094684470946884709268C2700430ABE70B
:1053100001330139D46814F0100FFBD1024A9268AE
:1053200000F8012BA0E710BD0000034007B58DF881
:105330000400080A0B0C8DF806008DF8071001A870
:1053400004218DF80530FFF78DFF0EBDF7B50D4C2C
:1053500006464025080CE5610B0A17468DF8050046
:1053600003228DF8071001A804218DF804208DF880
:105370000630FFF777FF30463946002203F0C6FDBE
:10538000A561FEBD00C009200D4B0E4840226FF004
:105390002801DA618160C268D106FCD4094B9B68A0
:1053A00008484FF0FF318160C268D206FCD4054B3B
:1053B00098680306F4D5024A40219161C0B2704753
:1053C00000C0092000000340F7B5FFF7DDFF0746E6
:1053D0001B481C4D81781C4C0023402602882380EA
:1053E00001A8EE618DF806100321ADF80420FFF747
:1053F00039FF9DF805009DF806301F28AE6117D1D2
:10540000A3F12502022A13D81049252B0B7007F0AF
:10541000010006D100280CBF4FF484734FF4807351
:1054200005E000280CBF4FF404734FF40073238091
:10543000054A1188D1F1010038BF0020FEBD00BF30
:10544000BC54020000C0092062C3072064C30720C7
:105450002DE9F041064617464FEA4128FFF794FF31
:1054600034460025C6EB0802BD42224407DA214635
:105470000448FFF7BFFE04F500740135F2E7002091
:10548000BDE8F0814D5301002DE9F0410646174675
:105490004FEA412804460025C6EB0802BD422244DB
:1054A00007DA21460448FFF7A5FE04F5007401352C
:1054B000F2E70020BDE8F081A955010008B50728F2
:1054C0001CD8DFE800F00407131719191919FFF7A2
:1054D0005BFF11E00A4B18782538C3B2032B9ABF43
:1054E000084A52F8233000235B0A04E04FF40070AE
:1054F000088001E001230B60002008BD042008BDE6
:1055000064C30720C054020030B591B003466C4616
:1055100000F1400518685968224603C20833AB42BF
:105520001446F7D1064D40249B200021EC61FFF783
:10553000FDFE68462146FFF795FEAC6111B030BD17
:1055400000C0092070B5074D402406460021772091
:10555000EC61FFF7EBFE30462146FFF783FEAC61BE
:1055600070BD00BF00C00920084B188830F01F0034
:105570000BD007490B78253BD9B203299ABF054ABE
:1055800052F821100021B1FBF0F0704762C30720F0
:1055900064C30720C0540200024B1878003018BFC3
:1055A0000120704762C307202DE9F7434FF0FF3316
:1055B0000D46904601938146FFF7E6FEFFF7ECFFAC
:1055C0000446A0B1164E40271648F7610188032013
:1055D000B1F5847F14BF4FF400714FF480712943FB
:1055E000FFF7A4FE01A80421FFF73CFEB7610C4EB3
:1055F0004022F26182202946FFF798FE4846414644
:10560000012203F083FC3CB1019B02A8591C40F825
:10561000041D0421FFF726FE4020B061BDE8FE8393
:1056200000C0092062C30720F7B5114B07461E884A
:105630004FF0FF30B6F5847F14BF4FF400764FF47F
:1056400080760190FFF7A8FF60B10A4C4025032047
:1056500046EA4721E561FFF769FE01A80421FFF74B
:1056600001FEA5610198B0F1FF3F08BF0020FEBD1B
:1056700062C3072000C009201FB501A803F074FB16
:105680009DF809209DF8083002F00F019DF80620D2
:1056900003F01F004B0543EA004002F01F0140EAFF
:1056A000C1239DF805009DF8041000F03F0243EA75
:1056B0004210BDF80A20C1F344035106184301F11A
:1056C0000843184305B000BD10B50023D41A032CBD
:1056D00003D9CC58C4500433F8E702F0030422F095
:1056E0000302801800238A18A34203D0D15CC1545E
:1056F0000133F9E710BD8218904202D000F8011B77
:10570000FAE7704770B5164B0024224653F8085C40
:1057100065B10668B5420AD153F8046C8568AE429B
:1057200005D11E88C588AE4201D105E001240132B1
:105730000C33032AEAD10CE049B90A490C2000FBDA
:1057400002135A89B2F5807F01D0002070BD10206D
:1057500070BD002CF9D10229F7D0122070BD00BF16
:1057600070C3072068C3072070B51F4A066800236E
:1057700052F8084CB44208D152F8045C8468A5423F
:1057800003D11588C488A54210D001330C32032BF5
:10579000EED1164A1368F3B90C255D4354195651DE
:1057A0008268C08862600022208162810F4A0C20DA
:1057B00000FB0322508929B108B1002070BD4FF4CD
:1057C000807201E0411C8AB208490C2000FB0310E2
:1057D0004281581C70BDD36823B19369002BECD172
:1057E0000223D9E70123D7E770C3072068C3072046
:1057F0000138022813D80C490C2202FB00135B89E4
:10580000B3F5807F03D01BB1013B9BB200E00023C6
:10581000504309184B8123B9034A135001E0022079
:1058200070470020704700BF68C30720002310B5F1
:10583000044618464208E15C42EAC01001334218AF
:105840000B2B02F0FF00F5D110BD0368024613B91F
:105850004FF0FF30704793F900003038082808D81F
:1058600093F901103A2904D102330128136001DDB4
:10587000EEE700207047F8B503690C4601F1090115
:1058800063B3436900229D5C01326EB2202E1BD0AF
:10589000052E08BFE525092A02D12E2701F8017B34
:1058A000EEB2A6F14107192F0CD81F7B082A94BF2E
:1058B0004FF0080C4FF0100C1CEA070F1CBF06F14C
:1058C0002005EDB201F8015B0B2ADCD1DD7A2572EF
:1058D0001E8BDA69A680DB8A2260E38000250D70CA
:1058E000A669EEB1016909B9002517E0E269002A4D
:1058F000FAD0818C4FF6FF739942F5D0076A37F8DA
:10590000150058B10021FEF7FFFF0028ECD0E26936
:10591000511E8D42E8D270550135F0E700207055D8
:10592000F8BDF8B504460079F8B1256B04F13407E9
:10593000607839462A460123FFF778F8A0B9636AF0
:105940002071E069EA1A824201D30020F8BDE678AE
:10595000012EFAD9E16960786D182A46394601238B
:10596000FFF764F8013EF3E70120F8BDF8B50446FF
:10597000FFF7D7FF05466DBB2378032B22D166794D
:10598000012E1FD104F13407384629464FF4007226
:10599000FFF7B1FE10494AF6552061630F4A216AAC
:1059A0006369A4F832022069C4F818224A1CC4F8BA
:1059B0001C32C4F820022263607839463346FFF770
:1059C00035F86571002160780A46FFF74BF8003022
:1059D00018BF0120F8BD00BF52526141727241618F
:1059E00010B50446A8B103689BB11A788AB1D9886A
:1059F000808881420DD1D868FEF7C0FF58B1236876
:105A00005878FEF7F0FF10F0010F0CBF00200320C4
:105A100010BD092010BD0F2010BD38B5036B044622
:105A200099420D460CD0FFF77CFF58B9607804F11D
:105A300034012A460123FEF7DDFF18B9256338BD7E
:105A4000002038BD012038BD00234FF0FF3210B5D3
:105A5000037102630446FFF7E0FFA0B9B4F8321205
:105A60004AF65523994210D1D4F86A20084B22F007
:105A70007F4199420AD0D4F8860020F07F42D01AA4
:105A800018BF012010BD032010BD022010BD00BFB3
:105A90004641540050B10C2908D00B2906D00929E1
:105AA00004D00F2902D0C068FEF77BBF704700000A
:105AB0002DE9FF4100230360074608461546FFF71E
:105AC000C4FE061EC0F2FD80854850F82640002C1A
:105AD00000F0F980E068FEF751FF002800F0F58043
