:020000021000EC
:10000000004008207F0101004D010100E1000100D6
:100010003D0101002D0101001D0101000000000053
:1000200000000000000000000000000005AB01001F
:100030000D0101000000000089AB0100C5AB01000B
:10004000FD000100FD000100A9460100FD000100C6
:10005000FD000100A5910100FD0001000D920100CD
:1000600075920100FD000100FD000100FD0001008E
:10007000318D0100FD000100FD000100FD000100C7
:10008000FD000100ED7F0100FD000100FD00010009
:10009000FD000100358C0100FD000100FD000100A4
:1000A000FD000100898B0100FD000100FD00010041
:1000B000FD000100B9AF0100FD000100FD000100DD
:1000C000FD000100FD000100FD000100346502009B
:1000D00000C007202001000020C10720DC04000030
:1000E00004207146084200F00480EFF309800AF012
:1000F000CFBFEFF308800AF0CBBF704708B50248C6
:1001000000F0CAF9FEE700BFCA5D020008B5024868
:1001100000F0C2F9FEE700BFE05D020008B502484A
:1001200000F0BAF9FEE700BFF05D020008B5024832
:1001300000F0B2F9FEE700BFFD5D020008B502481D
:1001400000F0AAF9FEE700BF085E020008B5024809
:1001500000F0A2F9FEE700BF135E020010B5002315
:10016000934203D21C585C500433F9E710BD0023BE
:100170008B4203D200221A500433F9E7704710B5BE
:1001800014480AF0BFFD13480AF0BFFD124C134B90
:100190009C4205D294E807000C34FFF7DFFFF6E736
:1001A0000F48844205D294E803000834FFF7DFFFCC
:1001B000F6E70DF015FB0AF0BFFD02F08DFA03F033
:1001C000D7F84FF416400BF097F8064800F064F9A2
:1001D000FEE700BF00400820CC000100D80001006D
:1001E000E0000100855E020008B5024800F054F905
:1001F000FEE700BFAE5E020008B5024800F04CF911
:10020000FEE700BFB95E020008B5024800F044F9FD
:10021000FEE700BFC85E0200124A30B5116803460F
:1002200011B94FF08050106010680F4DC41862195A
:100230000E4D0C49AA4297BF0D480C601A180A606F
:10024000084A0C4C1168A14202D90B4810600020EA
:100250003BB10A4A116801311160094A094910602D
:100260000B6030BD24C10720FF7FFFEFFE3F07106A
:10027000FCC50720FF3F0820004008202CC10720B4
:1002800028C1072020C107200DF0E8BA0DF0E6BA1A
:100290000DF0ECBA0DF0EABA30B58BB00446684602
:1002A0000DF028FF214D089B07982560A360606032
:1002B00058B91F491F4A0B6893428ABF03F1604334
:1002C00003F17043A3F5E82363606068B0F5803FF5
:1002D00004D900F17041A1F5E82363601448154B7F
:1002E000016800229942E26006D86D18C5F180537A
:1002F00003F58035E5600BE00F4A914208D80F48BE
:10030000C0F1804303F58012501A0028C8BFE06096
:10031000E1610B490B480A680B490368A2610A684E
:100320006361226120460BB030BD00BFFC050000B8
:1003300024C1072000800010FF3F0820FCC50720D3
:1003400028C1072020C107202CC10720FEE700009C
:10035000014B1860704700BF34C10720014B186083
:10036000704700BF30C1072008B502480DF0E4FE19
:10037000FEE700BF2436020008B502480DF0DCFE9F
:10038000FEE700BF3E3602000020704701207047A4
:10039000084B70B518680E46154640B10024AC42B3
:1003A00005DA044930570A6890470134F7E72846D0
:1003B00070BD00BF34C10720094B70B518680E46E8
:1003C000154600B970BD0024AC4206DA0448016845
:1003D0000020884730550134F6E725EAE57070BD06
:1003E00030C107207047002070470000074B196894
:1003F0008A68824207D04B68834204D0C9680A1ACF
:100400005042504170470120704700BF7CC0072018
:10041000002070470020704730B504468DB000289A
:1004200037D0684608F028FD9DF800309DF801108F
:1004300003F03F0003909DF8040001F03F029DF897
:10044000025000F01F010492BDF806009DF805203F
:1004500005F01F03069102F00F05C0F30B018AB2ED
:100460000593BDF808106B1E07939DF80330A2F2A8
:100470006C75C1F30B0203F00700089595B26B1E73
:100480000990002503A80A930B950DF051FB84E811
:10049000210000200DB030BD10B504460AF058FB15
:1004A000013C14F8010F18B140B20AF061FFF8E7FF
:1004B000BDE810400AF05EBB38B50F4C256815F05A
:1004C000010516D120460AF0F5FF90B14FF40E70E9
:1004D000FFF7DAFE094B30223A2180F8345280F8D7
:1004E000352280F8361280F83752186020460AF01C
:1004F000EFFF0248006838BD40C1072044C1072013
:1005000038B5104C236813F0010517D120460AF0C6
:10051000D1FF98B14FF40E70FFF7B6FE012280F8BC
:100520003422094A31213A2380F8351280F83632D4
:1005300080F83752106020460AF0CAFF024800686F
:1005400038BD00BF58C107205CC107202DE9F0412C
:10055000ADF50A7D0E4608F05BF9041E04DD0AF0D5
:1005600085FA20460AF024F8264D05AC0FCD0FC4BD
:100570002B6810210DEB010200250AA823600495C9
:1005800009F0D2FF074604986422B0FBF2F104910F
:1005900030461D491D4A0A2308F0DAFEBD4222D02A
:1005A0000AAC049B04EB4514A2690BB1B2FBF3F354
:1005B000606994F80C800090A18B029388000A2354
:1005C0000190A2FB03014FF47A7200230CF008FDA6
:1005D00005AB03900E493046626853F8283008F0A6
:1005E000B7FE0135DAE709F0B7FE102804D9304626
:1005F0000849102208F0ACFE01200DF50A7DBDE887
:10060000F08100BF58360200773602009E360200A5
:10061000A3360200C036020010B5ADF5007D0C46D1
:1006200068460AF0D7FC204669464FF0FF3208F0D2
:1006300059FE01200DF5007D10BD000030B50C46BF
:1006400091B02C49054607F0EBFF002847D008ABD6
:10065000009309A80AA90BAA0CAB0190029103927E
:1006600004932846244906AA07AB07F03CFF072855
:1006700001D000203BE09DF8390006999DF8383004
:1006800061F303008DF839000899BDF83A00079A24
:1006900061F30B0062F304030A99ADF83A009DF888
:1006A0003500099A8DF838309DF8363061F3050031
:1006B00062F304038DF835000C999DF837008DF82E
:1006C00036300B9A9DF8343061F3020062F3050373
:1006D0008DF837000DA88DF8343008F0EFFB08F0E6
:1006E00087FC06490246204608F032FE012011B080
:1006F00030BD00BF864C0200EA36020019560200E7
:1007000030B589B004AB0024009302220D4603AB40
:1007100018490394049407F0F3FE022827D107A890
:10072000009005AA0398049906AB059406940794D3
:1007300004F0A4F8024638B1049928460091039BBE
:100740000D4908F005FE10E0059A069B079C002A5B
:1007500008BF0122002B08BF012328460749B4FB2C
:10076000F2F2B4FBF3F308F0F3FD012000E02046C1
:1007700009B030BD514802000337020022370200A1
:100780002DE9F0410C46ADF5866D3049054607F080
:10079000D4FF2F490746284607F0F8FF2C49284682
:1007A00008F014F8284608F031F80122014601A8A3
:1007B00006F0F2F8064640B1284608F027F8254929
:1007C0000246204608F0C4FD3AE00BAD314640F247
:1007D000014228460DF0DCF8009601F053FF8046F8
:1007E00001A829464FF480626B4606F0A1F990B14A
:1007F00001A806F047FB8FB101F044FFB0EB080001
:1008000014BF03460123144920463246B6FBF3F3D6
:1008100008F09EFD02E0009B3BB9E9E720460F4946
:100820004FF0FF3208F05EFD0AE0F618E854002FA2
:10083000D6D1204629464FF0FF3208F03FFDCFE7E2
:1008400001200DF5866DBDE8F08100BF5037020034
:1008500051480200593702006D370200D34E0200A2
:10086000F0B5C1B00DAB0025009302220C460CABD5
:100870005C490B950C950D9507F042FE022803D1BB
:100880000D980CF0A3FE05460C9808B956490C913A
:1008900016A80C9906F099FB034678B120465349F7
:1008A0000C9A08F055FD9AE020AA802616A80EA9F9
:1008B0001492159606F0DBFB013D08B9002DF3DC20
:1008C00020464B490C9A08F043FD00252E46802017
:1008D00020AB15900EA916A8149306F0C8FB0028AB
:1008E00065D19DF94110002961D09DF8407007F055
:1008F0001002D3B213B10135442205E00B990E98D2
:1009000001360A180B922D2207F0020C17F0010F86
:1009100007F0040E5FFA8CF007F020070CBF2D23C0
:1009200052235FFA8EF100280CBF4FF02D0C4FF0D0
:10093000480CF8B200290CBF4FF02D0E4FF0530EAB
:1009400000280CBF2D214121BDF83C00029141122D
:10095000BDF83E7001F2BC718DE800500391C0F308
:100960004311049100F01F00F912C7F345170691D7
:100970000590079740A951F8C80D093108900991D1
:1009800020461C4908F0E4FC20461B494FF0FF328A
:1009900008F094FC20A920464FF0FF3208F08EFCAE
:1009A000204616494FF0FF3208F09CFC8FE7009577
:1009B00040AD55F8D43D12493246204608F0C8FCF7
:1009C0000C9829460AAA06F081FB40B90A9B0B99AC
:1009D0009A7820464A430B49520808F0B9FC012096
:1009E00041B0F0BD51480200883702008B37020049
:1009F000AF370200CA370200F7370200D34E0200B9
:100A0000FB3702002538020070B50E46054607F098
:100A1000FDFE0446284607F0F9FE06F024FC064ACF
:100A2000064B0749002818BF13463046224608F0F7
:100A30008FFC012070BD00BFE5390200DB390200E8
:100A40003938020070B50E46054607F0DFFE044651
:100A5000284607F0DBFE06F09DFB064A064B0749D9
:100A6000002818BF13463046224608F071FC0120CA
:100A700070BD00BFE5390200DB39020055380200C5
:100A80007FB503AB0024009302220E4602AB0F4950
:100A90000294039407F034FD022814D1029D039CB4
:100AA0002846214606F086FC09490A4A23460028C2
:100AB00014BF104608460090074930462A4608F001
:100AC00047FC012000E0204604B070BD5148020000
:100AD000DB390200E53902006738020030B58DB01D
:100AE0000C46054607F092FE0A22014602A805F0D0
:100AF00053FF40B1284607F089FE1F4902462046B1
:100B000008F026FC35E08DF8030001901B492046D3
:100B10007E2242F2107308F01BFC1949204608F0AF
:100B200017FC236820461B680DF1030142F2107286
:100B3000984718B19DF903007E2803D102A806F05A
:100B4000A1F916E002A80DF10301012201AB06F0A4
:100B500095F828B10199012902D020460949DEE71C
:100B60002268204653689DF903104FF0FF329847E2
:100B7000D7E701200DB030BD7F380200A638020053
:100B8000DE380200FE3802002DE9F043ADF5417D6C
:100B9000002303AD2B60029302220C4600954049CE
:100BA00002AB07F0ADFC022806D020463D494FF0CD
:100BB000FF3208F097FB6EE016A8296806F005FAE8
:100BC00018B1204638492A6807E016A8029906F0AD
:100BD000FCF928B13549029A204608F0B9FB5AE0E1
:100BE00040A94FF4807204A807F04EFC09A880A920
:100BF0004FF4807207F048FC20A8802114901591D2
:100C000016A80EA906F033FA00283ED19DF941201E
:100C1000002A3AD09DF8405005F01003DDB2002DB7
:100C2000EAD10DF14106029A334604A8204907F0A3
:100C3000ADFE039A33461E4909A807F0A7FE04A893
:100C400007F0E4FD804609A807F0E0FD074604A888
:100C50000E9E07F0DBFD814609A807F0D7FD2A4666
:100C600001462B460095484603F008FE1149124AFA
:100C70000096002814BF1046084601900F492046F0
:100C800042463B4608F064FBB6E709A807F010FCB3
:100C900004A807F00DFC01200DF5417DBDE8F083AF
:100CA00051480200253902006A3902008F390200DA
:100CB000AF390200DB390200E5390200B539020024
:100CC00070B50C462149054607F09EFD064628B141
:100CD000FFF716FC002100F2352009E028461C49E8
:100CE00007F092FD50B1FFF7E7FB314600F23520E7
:100CF0000A4606F0F1FB174B17491CE02846174936
:100D000007F082FD48B1FFF7FBFB012200F235211D
:100D100005F0F2FD124B13490DE02846124907F089
:100D200073FD88B1FFF7C8FB012200F2352105F001
:100D3000E3FD0E4B0E49002808BF19464FF0FF3265
:100D4000204608F0CFFA012070BD00BF3C3A0200F7
:100D5000463A0200D4390200DE390200533A02005A
:100D6000EB390200FB3902005C3A0200123A020041
:100D7000203A020010B501200C4607F073FB38B191
:100D800000210A460B4608F099FF2046044901E07D
:100D9000044920464FF0FF3208F0A4FA012010BDAC
:100DA000683A02007E3A020038B5064C236833B92F
:100DB0001C20FFF769FA054607F0B0FF25602068A0
:100DC00038BD00BF4CC107202DE9F0430C4687B069
:100DD0003C49064607F03CFC3B498046304607F05C
:100DE00037FC3A498146304607F032FC0027054679
:100DF000039704970597B8F1000F1DD0304634498A
:100E000003AA04AB07F06FFB022807D02046314944
:100E10004FF0FF3208F066FA3D464FE0FFF7C4FF9F
:100E20009DF90C109DF9102008F06DFB0499C2B2D9
:100E300000912046284924E0B9F1000F2BD005ABE2
:100E400000933046254903AA04AB07F04CFB032866
:100E500007D0204622494FF0FF3208F043FA4546BA
:100E60002CE0FFF7A1FF9DF90C109DF910209DF9D2
:100E7000143008F039FB40B104981A49059A0090E3
:100E80002046039B08F064FA17E020461649039AAF
:100E900008F05EFA11E088B10226FFF785FF71B213
:100EA00008F03EFB20B120461049324608F050FAC7
:100EB0000236B6F5807FF0D100E00125284607B064
:100EC000BDE8F08374490200983A02009E3A02009D
:100ED000A73A0200B33A0200D43A0200F53A0200FF
:100EE000053B02002C3B02004C3B0200693B020028
:100EF0002DE9F04F5E4C93B023680E4633B92020A5
:100F0000FFF7C2F9054608F03FF92560D4F80080E4
:100F1000FFF7D2FA002512A941F8105D00F2352042
:100F20000DAA06F0D3F848B90D9A0E9997699078F2
:100F3000BC1E414344434D08670800E02F46DFF8DC
:100F40003491D9F8003063B90C20FFF79DF90446BD
:100F5000FFF72AFF9022206000202271A060C9F8CC
:100F600000404449086803F077FC04460BF0F2FFA8
:100F700083460BF0D5FD014620460BF01BFD3E4994
:100F80000BF022FE0BF0E6FF0B900FA809F0CAFE53
:100F900004F08AFB38B308F0A3F804F06DFB0024DA
:100FA0000346A146A2469C420AD020460A9304F07A
:100FB000C3FB504584BFA14682460A9B0134F2E739
:100FC00008F0A2F8642303FB0AF22C483B46B2FB6C
:100FD000F0F1C1F164028DE80406304628492A4642
:100FE00008F0B6F905E0304626492A463B4608F0A7
:100FF000AFF9254C23681BB90120FFF745F92060A4
:10100000206803F001FC044607F0F2FF9DF8412040
:101010009DF84010019001F01F0302F00F00BDF891
:10102000422003939DF83E300290C2F30B0081B240
:1010300003F01F029DF83D009DF83C30049105929D
:1010400000F03F0103F03F02079200940691B8F8C8
:1010500018005A460890B8F81A10304609910B9BB0
:101060000A4908F075F9012013B0BDE8F08F00BF00
:101070003CC1072048C1072000002041A086010094
:10108000893B0200BD3B020050C10720CB3B020060
:1010900038B5064C236833B90420FFF7F5F8054648
:1010A00001F0CAF92560206838BD00BF38C10720AB
:1010B0002DE9F0418CB00C460546FFF7E9FF80466C
:1010C000284607F0A3FB31490246204608F040F9C4
:1010D00028462F4907F099FA431C064605D12046B9
:1010E0002C4908F035F900244BE03246002128460F
:1010F00007F00DFC014602A807F091FC02A807F0DA
:10110000E9F9074630B920462349324608F020F96C
:101110003C4633E02846711C07F02CFC014607A82A
:1011200007F07DFC07A807F0D5F9054610B9204661
:101130001A490CE002A807F06BFB054607A807F068
:101140006AFB691E0529064605D91549204608F09F
:10115000FFF800240FE032464046C9B201F0BAF968
:1011600030460BF0C5F82A46CDE9000120460D496E
:1011700008F0EEF8012407A807F09AF902A807F092
:1011800097F920460CB0BDE8F08100BF333C020067
:1011900051480200383C02004E3C02007B3C0200F9
:1011A0009B3C0200B23C020038B5FFF771FF0024FF
:1011B00005460021224601F08DF9284601212246EC
:1011C00001F088F928460221224601F083F9012026
:1011D00038BD000038B5064C236833B91420FFF73A
:1011E00053F8054606F0D8FD2560206838BD00BFDD
:1011F00054C1072008B54FF0FF320846094908F0EE
:1012000071F8FFF7E7FF06F0B9FD4FF4FA6009F057
:10121000CFF94FF080430020AA221A7218700120E3
:1012200008BD00BFC93C020073B50C461449054611
:1012300007F0EAFA50B1FFF7CDFF06F09FFD204618
:1012400010494FF0FF3208F04DF816E0FFF7C2FFEB
:101250000646284607F0DAFA40F2051301460A4A24
:1012600000933046094B06F071FE284607F0CEFA8F
:1012700007490246204608F06BF801207CBD00BFFC
:10128000DA3C0200E03C0200F93C02006C3602004D
:101290002C3D020070B58AB005460C4607F01AF9DD
:1012A0000B2803DD20461B490C222DE0284607F0C1
:1012B000ADFA01220146684605F06EFB0646284657
:1012C000EEB907F0A3FA144B01681960426813499C
:1012D0005A608068986043F8041C039A10492046BD
:1012E00008F036F8684605F0CDFD4FF47A7009F045
:1012F0005FF94FF08043AA221A721E7006E007F0D1
:1013000085FA08490246204608F022F801200AB072
:1013100070BD00BF4E3D0200484002400DD0ADDE22
:10132000753D0200BD3D020070B5414EA6B0336868
:101330000546DB070C460CD430460AF0BBF840B13A
:101340004FF480600CF08AFA3A49086030460AF09F
:10135000BFF82846384907F07BF9064620B300213C
:10136000802206A80CF014FB002105A80491059129
:101370000090324906AA04AB284607F0B4F82D4A7B
:10138000049B116806A8059A13B903F001FB01E05C
:1013900003F01FFB2A4A2B490346002B08BF1146C6
:1013A000204607F0D5FF32E02846274907F050F9DC
:1013B00000283BD0284604AA244905AB049605968C
:1013C0008DF80F6007F08FF8049D05982A18B2F584
:1013D000806F0DDD20461E494FF4806210E01548F5
:1013E0009DF80F10026851559DF90F300135F61820
:1013F000049B0598E91A814205DB164920463246CE
:1014000007F0A6FF03E0B5F5806F02DBF5E70120EA
:101410000CE02268204613680DF10F014FF4FA62C8
:1014200098470028DBD120460B49BAE726B070BDAB
:1014300064C1072060C10720E83D0200EF3D0200C3
:10144000D23D0200D63D0200FF3D0200063E0200F2
:10145000103E0200443E0200343E020030B50C460D
:1014600087B00B49054607F073FFA17AE07A009137
:10147000E188019002912089A188039004916288FB
:1014800023882846034907F063FF07B030BD00BF3B
:10149000553E02008B3E02001FB501A80C4602F02B
:1014A000F5FC02F0E3F901A902462046FFF7D6FF5A
:1014B000012004B010BD0000F0B58DB003AB0025D5
:1014C00000930C4617463849022202AB0295039559
:1014D00007F016F8A84239DD02980CF077F8C6B28A
:1014E000039818B10DF01FF9C5B200E0054604A835
:1014F000002103F05DF830B120462C494FF0FF3257
:1015000007F0F0FEF3E7003718BF01270220009034
:1015100039463046039A2B4602F0DAFA10B92046D3
:1015200023490EE0002F3CD004A84FF47A7103F059
:1015300049F8002830D09DF81010B1422CD107E0B6
:101540001C494FF0FF3207F0CDFE2AE0284629E083
:101550009DF817200C2A04D1204606A93246FFF731
:101560007DFF2046002DEBD1134907F0F1FE9DF8D9
:1015700017309D420BDA20680CA94A19436812F90A
:10158000181C20464FF0FF3298470135EFE7204600
:101590000A4907F0DDFE04E020460949029A07F0F7
:1015A000D7FE01200DB0F0BD51480200A93E020057
:1015B000CB3E0200073F0200F33E02009D450200C1
:1015C000243F020038B50D4607F022F90446C0B2A8
:1015D00002F040F9054A064B0649002808BF1346A9
:1015E0002846224607F0B4FE012038BD4A3F0200DB
:1015F000DB390200513F020030B58BB00AAA4FF42C
:101600007A730C4642F8243D174906F06CFF00251A
:1016100002A8019902F0CCFFE0B1204613499DF8E1
:10162000082007F095FE00259DF80F0085420BDA93
:1016300023680AA94A1912F9181C5B6820464FF062
:10164000FF3298470135EFE72046094907F080FE51
:101650000125DDE72DB9204606494FF0FF3207F09E
:1016600041FE01200BB030BD0D3E0200683F02007C
:10167000D24E02007F3F020037B50C4602F06CFAF2
:1016800016490546204607F063FE154920462A46BE
:1016900007F05EFE2046114907F05AFEDDB1114900
:1016A000204607F055FE20460C4907F051FE002069
:1016B000451CEDB202F03AFA48B1817802784378DD
:1016C00000912046084907F043FE2846F0E72046EF
:1016D000024907F03DFE01203EBD00BF903F0200E1
:1016E000AB3F0200C53F0200E03F020038B5064CA8
:1016F000236833B94C20FEF7C7FD054607F09CFB75
:101700002560206838BD00BF68C107202DE9F04F73
:10171000ADF5757D8022044634AF894614A80021BA
:101720000CF036F90021802238460CF031F903AE76
:101730000023336020460096714914AA3B4606F008
:10174000D2FE032801D00020D5E00AA814A9012266
:1017500005F022F905460028F5D1FFF7C7FF04463A
:10176000306854A984F84700802205A88DF80B50F2
:10177000049506F089FE00974846624914AA33682A
:1017800007F0E6FDA8460AA874A94FF4007204AB5E
:1017900005F0CEF938B10AA805F074FB05A806F0EB
:1017A00087FE0120A7E004990029F4D06F1C564958
:1017B000049A204607F0CCFD226820469668B04780
:1017C00000267D1EB246049B20689E420DD20DF578
:1017D000E87B1BF9061043684FF0FF32204698471C
:1017E00016F90B1001368A44EDE7816820468847D8
:1017F00005A807F00BF8064605A806F06EFE4FF4A4
:101800007A7302463146204607F07AFD01212022F4
:1018100005A806F0A6FF05A806F0FAFF50451FD060
:1018200005A806F0F5FF394903465246484607F039
:101830008FFD3749204607F08BFD206881682046E0
:1018400088472268204613680DF10B014FF47A7225
:1018500098470028F5D1781C022F9CD80746A6E7A8
:10186000049A2C490092434634AA204607F070FDA2
:1018700026682046B368984705A806F0C7FF0646C5
:1018800005A806F02AFE314602464FF47A73204638
:1018900007F036FD05A8204906F0B0FED0B905A82E
:1018A00006F0B4FF1D490246484607F051FD1849AD
:1018B000204607F04DFD216820468A68904723683E
:1018C00020461B680DF10B014FF47A7298470028EF
:1018D000F5D1C0E705A8124907F096F80498114918
:1018E0008044424648460D9B07F032FD002D3FF4F0
:1018F0004AAF013D47E70DF5757DBDE8F08F00BFAC
:10190000FB3F02000A400200214002003340020077
:10191000D24E02005A4002007040020073400200A2
:10192000D34E0200AB4002002DE9F04186B006AA7A
:101930000026074642F80C6D0D463C4906F0D3FDE3
:1019400038460121202206F00CFF039B002B63D0B8
:10195000384606F0BFFD00285ED0FFF7C7FE8DF8C1
:101960000B60044620680DF10B0106680522204635
:10197000B04706460028F5D10399384684F8471049
:1019800006F044FF4FF0FF320146204607F0AAFC64
:10199000226820469768B847254B05961868374651
:1019A0000490216820460B684FF47A720DF10B0108
:1019B000984770B105A8411C03220BF0CFFF9DF89A
:1019C0000B8005A804A904228DF817800BF0AEFF48
:1019D00038B91821B7FBF1F301FB13726AB1013377
:1019E0000BE028684FFA88F1436801222846013746
:1019F00098470028D5D10136D3E728460D493A4605
:101A000007F0A6FC76B1612000900B4928463246CB
:101A10000A4B07F09DFC05E0284609494FF0FF32CC
:101A200007F060FC012006B0BDE8F0810D3E020029
:101A3000513E0200B7400200DE4002009741020022
:101A4000D341020043682DE9F041994204460D4616
:101A500017D3C06889000CF0F9FBA668E060B700F6
:101A6000AE420DD21020FEF70FFC0021102280465E
:101A70000BF08EFFE068013640F807800437EFE78F
:101A80006560BDE8F08100002DE9F743304D074661
:101A90002C688946002C49D12420FEF7F5FB04234D
:101AA000064680E818008460C46008214FF00108F1
:101AB000FFF7C8FF86F8208030462649264A274B84
:101AC00000942E6005F068FF28682549254A264BBA
:101AD000009405F061FF28682449254A254B0094AD
:101AE00005F05AFF28682449244A254B009405F044
:101AF00053FF28682349244A244B009405F04CFFE7
:101B000028682349234A244BCDF8008005F044FF80
:101B100028681F49214A224B009405F03DFF00949C
:101B200028682049204A214B05F036FF38462049D5
:101B300006F06AFE18B138461E4906F065FF044BF0
:101B4000394618684A4603B0BDE8F04305F0F4BFD3
:101B50006CC1072029190100FF4102000642020062
:101B60000D1701004042020049420200F915010030
:101B70009D420200A0420200C51501002846020055
:101B8000C34202007916010009430200ED4202003F
:101B9000B9140100524302001043020051430200F5
:101BA0005643020099140100964302007B43020051
:101BB000D34E02009C43020037B590F904501446FE
:101BC00000934AB223462946006807F098FC3EBDC0
:101BD00010B5044694F904102D220823006807F07C
:101BE00083FC206894F904103122082307F07CFC60
:101BF000012010BD10B504462246084606233221B6
:101C0000FFF7DAFF204610BD08B5034693F904102C
:101C100020220F23006807F067FC012008BD38B5BB
:101C200004460D460846224628210123FFF7C4FF3B
:101C300028462921621C0123FFF7BEFF28462A21DE
:101C4000A21C0123FFF7B8FF28462B21E21C012329
:101C5000FFF7B2FF28462C21221D0123FFF7ACFF1E
:101C600028462D21621D0123FFF7A6FF204638BD1F
:101C7000014B0360704700BFB04302000120704772
:101C80000120704701207047014B0360704700BF7F
:101C9000B0430200034B10B504460360FEF7F8FAA8
:101CA000204610BDB0430200034B10B5044603604C
:101CB000FEF7EEFA204610BDB043020038B50446E8
:101CC000C06B0C4920F000400BF03AF978B9216C58
:101CD00021F0004007490BF033F940B9A06C0649E8
:101CE00001250BF02DF900B90546E8B238BD0120F9
:101CF00038BD00BF21B0B23E0000C0410146002205
:101D0000406B3C31134608F0AAB838B5FFF7C0F96C
:101D1000002405460121224600F0DCFB2846002174
:101D2000224600F0D7FB284602212246BDE8384073
:101D300000F0D0BB2DE9F84F0446FFF7A9F9E66B98
:101D40000546644930460BF0FBF860B16149304606
:101D50000AF030FE20F0004001460AF02DFE4FF060
:101D6000000982460BE05B4930460AF023FE20F072
:101D7000004001460AF020FE4FF0000A8146276C21
:101D8000554938460BF0DCF858B1544938460AF04A
:101D900013FE20F0004001460AF00EFE00F100485C
:101DA00009E04E4938460AF007FE20F0004001469F
:101DB0000AF002FE8046666C002130460BF0C0F847
:101DC00038B126F0004046490AF0FEFE00F1004717
:101DD00005E026F0004042490AF0F6FE0746D4F836
:101DE00048B0A66E584631460BF08CF820B1606EB4
:101DF0003C490AF0E1FD08E0584631460BF0A0F8F6
:101E000020B1606E37490AF0D5FD6066364950460C
:101E10000AF0D2FD616E0AF0D7FE344906460BF097
:101E200071F830B9304632490BF08AF810B1304EB3
:101E300000E02E4E32462846012100F04BFB2D4992
:101E400048460AF0B9FD616E0AF0BEFE2749064613
:101E50000BF058F830B9304625490BF071F810B145
:101E6000234E00E0214E32462846002100F032FB8E
:101E7000214940460AF0A0FD616E0AF0A5FE1B490B
:101E800004460BF03FF830B9204619490BF058F8DA
:101E900010B1174C00E0154C22462846022100F0F4
:101EA00019FB164938460AF087FD002104460BF05D
:101EB00029F830B9204612490BF042F810B1104C05
:101EC00000E00024284603212246BDE8F84F00F038
:101ED00001BB00BFE3A51B3D1B2F5DBD1B2F5D3D5F
:101EE00000007A436F12033A0000444200001041A0
:101EF00000008C420000204200005E4200002442AC
:101F00000000C84238B5036E0446591C0166FFF74D
:101F1000F5FE256EFA2DCCBF0020012084F8390093
:101F2000B8B994F83820A2B92046FFF7C7FE84F864
:101F3000380038B940F6A5639D4207DC2046FFF71C
:101F4000F9FE06E02046FFF7E0FE02E00021A16670
:101F5000F4E7012038BD000070B50546FFF798F89A
:101F600000261423EB61044685F8386085F8396053
:101F70002E66314600F084FA0121204600F080FAF6
:101F80000221204600F07CFA0321204600F078FA76
:101F90000D494FF07C506866A96600252046314601
:101FA0002A4600F097FA204601212A4600F092FACC
:101FB000204602212A4600F08DFA20460321034ADA
:101FC00000F088FA012070BD0000C04000004842C7
:101FD000014B0360704700BFB0430200034B10B5D4
:101FE00004460360FEF754F9204610BDB0430200DA
:101FF0002DE9F341A84D0446AB6943F40020A861E4
:102000000A2006F01CFDE969684641F40022EA61F5
:10201000E16DFFF7EFFD009EBDF80470216E66666E
:10202000A4F868706846FFF7FAFD009DBDF804301B
:10203000C4F86A50A4F86E30B4F96A000AF070FD72
:102040000AF056F90022954B0AF0D0FA0022944B80
:102050000AF0CCFA8CA3D3E900230AF09DF90AF028
:1020600055FC0546A064B4F96C000AF059FD0AF06D
:102070003FF90022894B0AF0B9FA0022884B0AF096
:10208000B5FA81A3D3E900230AF086F90AF03EFCF1
:10209000E064B4F96E000AF043FD07460AF028F93F
:1020A00000227E4B0AF0A2FA00227D4B0AF09EFA33
:1020B00075A3D3E900230AF06FF90AF027FC7949E8
:1020C0000646206528460AF07FFD0146A06B0AF00F
:1020D00073FC7449A06330460AF076FD0546294634
:1020E000E06B0AF069FC7049E06338460AF028FFAB
:1020F00020B1206C29460AF05FFC20646B48006820
:102100000AF0F6F862A3D3E900230AF045F90022A9
:10211000674B0AF06BFA0AF0F9FB616C07460AF0AC
:1021200049FC644920F000400AF0ECFE60B3D4F8AA
:102130009860D4F8A410D4F8A020D4F89C30C4F847
:10214000A810C4F89C60C4F8A420C4F8A030C4F857
:102150009870254600264FF00008D5F89C10D5F859
:1021600098000AF027FC014640460AF025FC01369B
:102170000435042E8046F0D14F490AF025FD4F4921
:102180000AF0D6FD67646065B4F966000AF09EF84F
:102190000546B4F968000F460AF098F802460B4667
:1021A0002846394609F06EFC0AF0B0FB2067B4F906
:1021B00064000AF08BF80646B4F968000D460AF090
:1021C00085F802460B463046294609F05BFC0AF0CA
:1021D0009DFB05466067B4F964000AF077F807468E
:1021E000B4F9660021F000460AF070F8844621F048
:1021F000004E624673463846314609F01BFF0646DC
:10220000B4F968000F460AF061F8024621F0004375
:102210003046394609F00EFF0AF058FB2149A4F870
:102220009400A06C0AF0D0FCA16B0AF0C5FB244915
:102230000AF0CAFC23490646206F0AF0C5FC014695
:1022400030460AF0B9FB1749A063E06C0AF0BCFC09
:10225000E16B0AF0B1FB1A490AF0B6FC19490646CF
:1022600028460AF0B1FC014630460AF0A5FB0022E0
:10227000E06304F13801606B134607F01FFD012095
:10228000BDE8FC81AFF300804AD8124DFB21094024
:10229000B81E85EB51B8BE3F20C0092000408F40DA
:1022A000008066400AD7A33B0000FA4278C10720AD
:1022B000008062400000A04000007A440000C84155
:1022C00048E17A3F0AD7A33C38B51A4C63685A00F4
:1022D00011D51948416801F001024260E36843F0FA
:1022E0008040E060216901F080422261636943F02F
:1022F0008040606138BDA068430019D50E4DA868C4
:102300000AF00AFCE2680D4942F080430860E3608D
:10231000686840F0010169606A6842F002036B601E
:10232000606900F080416161226942F0804323616D
:1023300038BD00BF808002400040094078C10720BE
:1023400038307047052370B50446C3610020A06390
:10235000E063206460646065A065242100220120A0
:1023600007F07BFC2F4E4FF08041D6F8C42060630D
:1023700042F40003C4F89810C4F89C10C4F8A010EC
:10238000C4F8A410C4F8A810C6F8C430D6F8AC013C
:1023900000F48041C6F8AC11A6F5D026726842F070
:1023A00001037360706840F002017160A6F5D026E9
:1023B000F2681D4802F0C003F36001681B4A41F453
:1023C000002606601A4E1E20002106F06BFC3268C3
:1023D0004AB90820FDF758FF0546FEF7E5FCA7239C
:1023E00028602B7135601248124E01683268E16531
:1023F0004AB90820FDF748FF0546FEF7D5FCD32370
:1024000028602B7135600B480168E06D2166FFF78D
:10241000DFFB28B1206EFFF7F7FB08B1012070BD8C
:10242000002070BD00C00F4020C00920C92201005B
:1024300070C1072074C1072070B5002605460660EC
:10244000012106200D4C08F079FD0121062008F03D
:102450008DFD0223FF2263602260636108F0FEFEAF
:102460003221B0FBF1F00923A0616360A660226F06
:10247000284622F00F01216770BD00BF0080014097
:102480000268052930B542F0010202D9026000203D
:1024900030BD01234C1C03FA04F52A43026001FA03
:1024A00003F0032404FA00F403FA00F0093103FAFC
:1024B00001F1074A156925EA0404146114692043EF
:1024C0001061A2F5A032D06C0143D164184630BD32
:1024D00000C00240F8B517460C46054608F0BEFE9F
:1024E0000AF01AFB1349064638460AF021FC124945
:1024F0000AF06AFB10490AF05FFA014630460AF01A
:1025000063FB0AF04DFD0D4B052C0FD8DFE804F0FE
:10251000030507090B0DD86108E0186206E0586250
:1025200004E0186402E0586400E098642A681A65C0
:10253000F8BD00BF0000C8426F12833A008001401E
:1025400038B50D46044608F089FE074B0221B0FB62
:10255000F3F0B0FBF1F2954201D3216138BDB1F542
:10256000807FFAD00231F4E740420F0001480BF0BF
:10257000E3BD00BF604402007FB500F235260D4682
:102580000122314604F0B8F9C4B24CBB04A941F8A9
:10259000044D304602AA04F099FDF8B9029A039955
:1025A00094699378A21E5A435943540840F2E73382
:1025B00048089C420F49104B8CBF4FF480620122A7
:1025C00088BF0B46B0FBF2F18DE80A000B482946A4
:1025D000B4FBF2F20BF098FD012008E0084B00E09C
:1025E000084B0948294662B20BF08EFD002004B06A
:1025F00070BD00BF9A44020097440200A444020048
:102600009D440200A1440200D244020038B5AA222F
:102610004FF0804355201A72187208F095F9174C44
:1026200002284FF000014FF00100D4E9002317D138
:10263000121843EB0103C4E9002308F021FDD8B1CF
:1026400008F010FDD4E900010A2200230AF0C8FCBA
:102650000A25A0FB052305FB0133C4E9002338BD8F
:10266000121843EB0103C4E9002301F0B5FF002079
:10267000BDE8384008F04CBB38BD00BF88C107201A
:10268000FFF7C4BF024BD3E9002310461946704739
:1026900088C1072038B5084D2B684BB90820FDF7D5
:1026A000F3FD0446FEF780FB2060402020712C6083
:1026B0000149086838BD00BF80C1072038B5054C06
:1026C000256825B90120FDF7DFFD05702060206831
:1026D00038BD00BF7CC10720664A674970B54023FA
:1026E000664D4FF000704FF480348B6190618C61C7
:1026F0002E68ADF5047D26F0F0032B60286840F0CD
:1027000050042C602E6826F440532B60086840F07B
:1027100040040C602E6826F47C232B60286840F46B
:1027200028242C602E6826F470032B60286840F45F
:1027300020042C602E6826F040432B60286840F06F
:1027400000442C606E6826F03C036B60686840F0C3
:1027500028046C606E6826F003036B60086840F420
:1027600080340C606E6826F440536B60086820F477
:1027700080040C60E96821F44036EE60136843F091
:10278000807010606C6824F4402169606E683C4C75
:1027900046F480236B60A8680440AC60116841F483
:1027A000897646F001031360A86820F47014AC60C9
:1027B000A96821F07046AE60136823F446401060AB
:1027C000EC6824F03001E960EE6846F03003EB601D
:1027D000E86820F47014EC60156845F00071116031
:1027E000166826F08063136008F020FA4FF4FA6050
:1027F00006F041F9FFF7BAFE08F030FD0AF08CF957
:1028000020490AF095FA09F073FD02460B461E486E
:102810000BF07AFC08F080FA042811D100221B4842
:10282000059205681A4E04AC0495FFF79FFEF16C03
:102830001848326D736D00940BF066FCFFF796FE3E
:102840000C20012108F07AFB134C0C20032108F026
:102850008DFB4FF40011216008F000FD0223C00839
:102860000E4AB0FBF3F595421AD8266846EA0321D2
:10287000216019E020C0092000C0092000C00240EA
:10288000F0FCFCFF00247449104502004440024063
:102890000040024028450200004003403F5DC60062
:1028A0000233B3F5807FDBD10A20012108F046FB1B
:1028B0000A20012108F05AFB9B48072502240560E5
:1028C00001214460FFF73CFE06F09AFB1520012130
:1028D00008F034FB1520012108F048FB9348012142
:1028E00005604460FFF72CFEFEF75EFA642106F0F7
:1028F000DFF910B98E480BF01FFC01F033FE10B960
:102900008C480BF019FC01218B4808F07FFBFDF788
:10291000D3FD8A49FFF730FE0646B8B988480BF068
:10292000F3FBFDF7C9FD3146324600F2352004F0D5
:10293000D3FD844B844A002814BF104618460BF080
:10294000FBFBFDF7B9FD7D49FFF716FE7F4C2068C4
:1029500010F0010517D1204608F0ACFD98B14FF4F6
:102960000E70FDF791FC7A4A012131263A2380F856
:10297000341280F8356280F8363280F837521060B1
:10298000204608F0A5FD724C72492068FFF7F4FD5F
:1029900018216548FFF7D4FDFFF7E8FDFFF78EFE2D
:1029A000002101F009FFFFF775FE6B4D0646286810
:1029B00058B90C20FDF768FC0446FEF7F5F99021A4
:1029C000002320602171A3602C60634A106801F02D
:1029D00043FF0AF0BFFA41B2304601F0CDFE0023BA
:1029E0005E4804A907220493059301F0B0FFA8B93B
:1029F00004A80AF0EBFDC6B2751EE8B2FD2805D9A1
:102A000004A9564A56480BF07FFB07E0554831466B
:102A1000524A0BF079FB304600F01CFF524C216803
:102A200019B90120FDF730FC2060206801F0ECFEB0
:102A3000064600200DF092F830180BF09BFB4FF487
:102A40000072002104A80AF0A3FF04A808F0C2FA4B
:102A500004A946480BF058FBFFF788FD80220021AF
:102A600004A80AF095FF04A802F0F4FD9DF91020D7
:102A7000531C05D004A9D2B23D480BF045FB2FE012
:102A80003C4D2B681BB90120FDF7FEFB2860286830
:102A900001F0BCFE09281DD137480BF04DFB04A9FD
:102AA00036480BF09BFC04A935480BF02DFB35484C
:102AB0000BF042FB0020039003A933480BF08EFC7F
:102AC0009DF90C40592C03D104A802F0A5FD07E0A4
:102AD0002E4803E02E480BF02FFB2E480BF02CFB6A
:102AE0004FF208010E684A684FF20403B50A960ACD
:102AF0004FF470428C681268196827480BF004FB89
:102B00002A46314625480BF0FFFA214624480BF0AF
:102B1000FBFAFFF72BFD23480BF00EFBFFF726FD1A
:102B20000DF5047D70BD00BF00000340008008402B
:102B3000A0450200D14502000D260100F645020025
:102B4000FE450200054502000A45020058C1072063
:102B50005CC107200A3A020048C10720274602004C
:102B60002D4602005846020050C1072019560200A7
:102B70008546020084C10720A1460200C346020028
:102B8000C8460200E3460200264702002A47020028
:102B90004247020070470200A2470200CE470200EF
:102BA000FB4702001848020001207047F8B591E881
:102BB00060000F7A14468FB1082A0FD1304605F015
:102BC00089FC00281BDD28460E494FF0FF3206F035
:102BD00075FB3046012105F084FD08E00A2C05D084
:102BE0000D2C03D03046214605F06AFE4FB12B680C
:102BF00028465B6821464FF0FF329847F8BD07240E
:102C0000F5E7F8BD504802002DE9FF41CE6B0446C0
:102C10000D4601AF5EB94FF47A7007F0C9FC31463A
:102C20000C2238460AF0B4FE97E807005EE00B6C11
:102C300001F13406186807C887E8070000278DF8F7
:102C40000370EA6B97422DD2F368511E53F82700A8
:102C50008F420CBF0522002200684FEA87080179E5
:102C6000002949D003680DF103011B68984700282B
:102C700042D0B268974241D2F16851F8080001ABE6
:102C800007C883E8070019469DF903202846FFF787
:102C90008DFFFFF7F7FCD5E92223121843EB010360
:102CA000C5E92023029805F015FC0746029805F0B7
:102CB00014FC421E974216DAD5E92201014320D0C6
:102CC000FFF7E0FCD5E92023994208BF904218D3D2
:102CD000FFF7D8FCD5E92223121843EB0103C5E91D
:102CE00020230023019304A810E9070084E80700CB
:102CF000204604B0BDE8F0810137A2E706F11000DC
:102D0000BDE79DF903100A29EDD0002799E70000DF
:102D1000F0B5054685B020480BF0F6F901A8294624
:102D2000FFF772FF019C1CB91C480BF005FA30E05C
:102D3000029E304605F0CEFB00282ADDFFF7A2FCFC
:102D40000746F8B1B5F874303146581CA5F8740040
:102D5000224605F1500004F0EFFE114900250A68F3
:102D6000009223681DF905105B6820464FF0FF3282
:102D700001359847042DF4D1FFF784FCC11B0948A5
:102D80000BF0C2F9304605F0AAFB206881682046A6
:102D90008847012005B0F0BD53480200D34E020021
:102DA0002C4802005948020038B5064C236833B954
:102DB0002020FDF769FA054606F0E6F9256020684F
:102DC00038BD00BF3CC1072010B50446FFF7ECFF3B
:102DD000036821465B684FF0FF32984740B210BD50
:102DE00013B5002302AC04F8013DFFF7DDFF0168D5
:102DF0004FF0FF320B68214698479DF907001CBD34
:102E000038B5054600246B68E8689C4205D250F846
:102E10002400FDF73DFA0134F5E708B1FDF73AFA71
:102E2000284638BD0D4B70B5044640F8503BFFF7BF
:102E3000E7FF04F1340600257068854206D2F26887
:102E400052F82500FDF724FA0135F5E7206C08B1AA
:102E5000FDF720FA02492046216070BD3848020083
:102E6000B043020010B50446FFF7DCFF2046FDF733
:102E70000FFA204610BDF8B54368044699420D4646
:102E800015D3C06889000BF0E1F9A668E060B700CF
:102E9000AE420BD20C20FDF7F7F9E2680021016089
:102EA000416001720136D0510437F1E76560F8BD29
:102EB0002DE9F0410446142016468846FDF7E4F952
:102EC0008021074605F00FFDA36BE26B9A4205D304
:102ED000616B04F134005918FFF7CDFFE56B206CEE
:102EE00050F825300135C3F800805F601E72E5633D
:102EF000BDE8F0812DE9F04100F150048AB00025D1
:102F00000646009520466249624A634B04F044FD40
:102F1000009520466149624A624B04F03DFD0095F0
:102F200020466149614A624B04F036FD0095204617
:102F30006049614A614B04F02FFD009520466049CD
:102F4000604A614B04F028FD009520465F49604AC5
:102F5000604B04F021FD009520465F495F4A604BBD
:102F600004F01AFD009520465E495F4A5F4B04F06D
:102F700013FD009520465E495E4A5F4B04F00CFD50
:102F8000009520465D495E4A5E4B04F005FD0095C4
:102F900020465D495D4A5E4B04F0FEFC00952046EC
:102FA0005C495D4A5D4B04F0F7FC009520465C49A6
:102FB0005C4A5D4B04F0F0FC009520465B495C4A9E
:102FC0005C4B04F0E9FC009520465B495B4A5C4B96
:102FD00004F0E2FC009520465A495B4A5B4B04F042
:102FE000DBFC009520465A495A4A5B4B04F0D4FC5E
:102FF0000095204659495A4A5A4B04F0CDFC009599
:1030000020465949594A5A4B04F0C6FC00952046BF
:103010005849594A594B04F0BFFC0095204658497D
:10302000584A594B04F0B8FC009520465749584A75
:10303000584B04F0B1FCFFF7B7FE4FF48063202239
:103040004FF41641054606F07DF8012780462F71A2
:103050005148FDF783F95148FDF77AF93046294682
:103060003A46FFF725FF082203A905A805F00CFA48
:1030700005A84B4905F0C8FC05A92A46204604F0DE
:103080005BFD05A805F014FA40460AB0BDE8F081E2
:103090004D050100B94802006F4802001906010001
:1030A000A6480200AE480200F10E0100CC48020022
:1030B000BE4802003D06010014490200D348020048
:1030C00081070100194902001D49020001070100A2
:1030D000BC49020079490200890B0100BB4902008A
:1030E000BF490200610801000A4A02000D4A0200BD
:1030F000090A01003B4A0200414A0200810A01001C
:10310000664A0200694A0200DD0A01002E630200DD
:10311000964A0200450A0100BB4A0200BE4A02006C
:10312000C90D0100E14A0200E54A0200C10C01009C
:103130008C4B0200944B0200F5110100D74B0200AA
:10314000DE4B020029120100F14B0200F54B020098
:10315000750D01002B4C0200314C0200891A010050
:10316000ED450200594C0200B1100100834C0200F1
:103170008A4C0200A9110100AC4C0200B14C0200C3
:1031800029130100B54D0200C14C02009512010047
:103190004D3A02007E4D0200E12D0100C92D0100D3
:1031A0009C43020073B500244FF480520B460094F8
:1031B0001849064605F03CF9174B04253360756342
:1031C000B463F463346406F134000221FFF753FE64
:1031D00035657465B465F46506F150001821FEF795
:1031E00031FCA6F87440A6F87640B4670B4C002278
:1031F00000230025012086F87000C6E92023C6E9D7
:103200002245FFF73FFA001941EB0501C6E920010D
:1032100030467CBDBA4D020038480200C0D40100DF
:103220002DE9F04F804693B04046FFF789F8D0F87B
:1032300000C0D0F804B0D0F808A0D0F80C904348F3
:10324000CDF814C00AF078FF06A8D8F85C10FEF795
:10325000D1FCBDF9180009F039F800223C4B09F007
:103260009BF800223B4B09F0C1F904460D4608A823
:10327000D8F85C10FEF7BEFCBDF9220009F026F874
:103280000022334B09F088F80022324B09F0AEF9E6
:1032900006460F460AA8D8F85C10FEF7ABFCBDF94D
:1032A0002C00CDE9006709F011F80022284B09F045
:1032B00073F80022274B09F099F922462B46CDE9F5
:1032C000020125480AF020FF0CA8D8F86010FEF78C
:1032D000A6FC0EA8D8F86010BDF93060FEF79FFC80
:1032E000BDF93A7010A8D8F86010FEF798FC3A467D
:1032F000BDF94430314619480AF006FFDDF814C024
:10330000604608F0F5FF02460B4615480AF0FCFE41
:10331000584608F0EDFF02460B4612480AF0F4FE4C
:10332000504608F0E5FF02460B460F480AF0ECFE57
:10333000484608F0DDFF02460B460C480AF0E4FE62
:103340004FF4FA7007F034F96EE700BF77440200DB
:103350000000104000408F40DF4D0200014E02008F
:103360001B4E02002E4E0200414E0200544E02003F
:10337000F0B5AC2085B0FCF787FF002522494FF45B
:10338000805202230095044605F052F81F4B70202E
:103390002360676BFCF778FF01234FF480521C49D0
:1033A0000095064605F044F81A487763306090208F
:1033B000FCF76AFF01210746FFF7F4FE384604F0E8
:1033C000F9FF204604F0F6FF304604F0F3FF1249FF
:1033D0000127234601914FF48052009702950395EF
:1033E0000E490F4806F09CFE2946384604F0F2FFCD
:1033F00022682046536898473068416830468847BD
:103400004FF0FF3005B0F0BD574F020028440200D6
:10341000684F02000844020090C107207B4F020061
:103420002132010038B5074C236833B91C20FCF762
:103430002BFF054605F072FC2560226802480260F9
:1034400038BD00BF4CC1072094C1072030B5002310
:103450008B420DD044783CB1048C4FF6FF751419A3
:10346000AC4228BF2C4604840133DBB22430EFE7A2
:1034700030BD000037B50E49002302A84A6840F865
:10348000043D042190470B4B05461C68019804211C
:10349000041B186022460848FFF7D8FF022107489E
:1034A0002246FFF7D3FF281C18BF01203EBD00BFF6
:1034B00098C1072080C20720ACC1072085C2072021
:1034C00008B50B4B01781A780A4B914203D1198841
:1034D0000131198002E09988013199808270064A91
:1034E0002021D3689847003018BF012008BD00BFD5
:1034F00005C0072054C2072098C107200A4B027854
:1035000019780A4B8A4203D1DA88511CD98002E02B
:103510001A89511C19810379C3F3C202511E61F348
:10352000C5030371FFF7CCBF05C0072054C20720B5
:1035300010B50023064A990012F82340844201D1B5
:10354000501810BD0133042BF4D1002010BD00BF72
:103550006FC2072070B1C378591CCAB2FF2AC2706B
:1035600008D100230448C218D17804334808102B2E
:10357000D070F7D1704700BF6FC20720F0B5034687
:103580000246044600258D4207D02046243414F814
:10359000236CC6B10135EDB2F5E7002004468C423C
:1035A00010D01579178CC5F3C20547EA0545A84226
:1035B000164624BF05461E460134E4B2243228468E
:1035C0003346ECE71846F0BD38B501310446CD006E
:1035D000FFF750FF1B4B20781A78824204D102215A
:1035E0001948FFF7CBFF0CE004211848FFF7C6FF8E
:1035F000E17831B990F8235045F0800380F823300A
:10360000042590F82310002221F07F0380F8225037
:1036100043EA152580F8202080F8212080F82350E7
:103620002346024604F1200153F8044B8B4242F832
:10363000044BF9D1064A0379117861F3C50303718C
:1036400038BD00BF05C0072085C20720ACC10720D8
:1036500004C0072010B5FFF76BFF044608BBFFF757
:1036600067FF0446E8B9104AD378D179994202D26B
:103670000B46111D00E01146D07AD47B984238BF2A
:103680000A490B4A38BF03469C422CBF0C461446DD
:103690002046002104220AF07BF9064BD97A481C07
:1036A000D872204610BD00BF6FC2072077C2072026
:1036B0007BC2072054C207202DE9F0410546904601
:1036C0000C460027474500F0BE8094F8233003F0F5
:1036D0008000C1B269B3BDB12B786278934203D147
:1036E0006878217888421ED0E87868B1697891427C
:1036F00008D122789A4205D1A879A179421A534279
:10370000534100E0002373B994F8232094F8221069
:10371000208C02F07F0341EA03218842C0F28F80AF
:103720002046FFF7CDFE2046002124220AF030F982
:1037300085E06378002B00F08280002D3DD02A794F
:1037400002F0C000C0281AD16A782178914202D1D3
:1037500028789842E7D0E078A978884210D193423F
:1037600009D120782A78904205D1A079AA79811AC6
:103770004842414100E000210029D4D100E0E0B1FD
:10378000A978E278914218D16878984209D12178D5
:103790002A78914205D1A179AA79881A41424841F3
:1037A00000E0002048B12279002161F3C50284F8CD
:1037B000201084F82110227141E094F8232094F81D
:1037C0002200218C02F07F0240EA0220814236DB97
:1037D00021790026C1F3C20284F8206084F82160B8
:1037E000D6B21EB12046FFF789FE28E001F0C000E6
:1037F000C02818D0154920780978884213D1E0787C
:10380000984210D078B16379E270032262F3071313
:1038100063712046FFF772FE0D482179037863F348
:10382000C501217100E001266078FFF781FE18B123
:10383000002104220AF0ACF8002E7FF474AF0137A7
:10384000FFB224343EE7BDE8F08100BF05C0072089
:1038500004C00720431ED9B2FD2903D8024A1070C4
:10386000012070470020704705C00720014B1878E1
:10387000704700BF05C0072007289CBF014B187088
:10388000704700BF04C007202DE9F7430446914666
:1038900098469DF828600D46002958D02F4B1F7878
:1038A000B94254D0B8F10F0F51D8002851D020227E
:1038B00000210AF06DF8FF2D207914BF09F00302F2
:1038C000002262F38710032161F30200244B207170
:1038D0001A78277062F3C50020712248A77001781A
:1038E0000BAF4B1CDAB20270A271657001970EB972
:1038F000012613E00198013E03464268E07953F83F
:10390000081B8718FFB2182F0193F6B205D80830AC
:1039100020180AF01AF8E771E9E70026124F012192
:1039200028463970FFF704FE0546FFF713FE002214
:103930003A70637925B968F307136371E57009E09C
:10394000A87860F3071363716978E17002E00026DC
:1039500000E006463046BDE8FE8300BF05C00720F4
:1039600004C0072062C2072060C20720164B70B552
:1039700001261E70044608B900251FE0FFF7A0FDD0
:1039800005460028F8D0207900F0C001402903D076
:10399000B1F1800256425641C02906D1E3782BB1DD
:1039A0006078C31A18BF012300E000230EB9DB07BB
:1039B00004D5617920460909FFF706FE024B002273
:1039C0001A70284670BD00BF60C2072082B0F0B5F3
:1039D0001746421E0446D0B28DB0FD280D46139303
:1039E00001D900205AE0002BFBD0159B002BF8D00A
:1039F00017990029F5D0169A002AF2D014980028B9
:103A0000EFD000214822284809F0C2FF002190226F
:103A1000264809F0BDFF00211022254809F0B8FF13
:103A2000244E00210C22244809F0B2FF00210C2270
:103A3000224809F0ADFF3470214C224E25703446E7
:103A400013AD0FCD0FC42B68002118221E48236030
:103A500009F09EFF394617221B480AF0A6FE0020F7
:103A6000B268014690470028BBD09DF8601011B99C
:103A7000FFF700FD12E01548062201230190029293
:103A8000009304A8FF210022FFF7FEFE0028A8D023
:103A900004A8FFF76BFF0028A3D0E9E70DB0BDE84D
:103AA000F04002B0704700BF85C20720ACC10720BC
:103AB0006FC2072005C0072063C2072054C2072039
:103AC00061C2072098C107203CC20720854F020031
:103AD00070B5182B8CB006460D4617D81C1C18BFA5
:103AE0000124002A14BF214684F0010171B1019222
:103AF0000293009404A831462A469DF84030FFF70F
:103B0000C3FE18B104A8FFF731FF00E000200CB09D
:103B100070BD13B50446107852790B461109009117
:103B200022460321FFF7D4FF1CBD000030B500235F
:103B30001A4608499C0011F823502DB1904201D13A
:103B4000081930BD0132D2B20133042BF1D100206B
:103B500030BD00BF6FC2072000231846044A995C9D
:103B600009B10130C0B20433102BF7D1704700BF48
:103B70006FC207202DE9F04188B06846002120225D
:103B800009F006FFA14B1C78002C40F03B81A048B7
:103B90002021026968469047002800F087809D4DEB
:103BA00069884B1C6B80FFF7D7FFA8729DF8042033
:103BB00002F00700032804D097490A7842F0010078
:103BC00009E0964D9DF802102D78A94205D1924941
:103BD0000B7843F002000870E6E0C2F3C2019DF8E2
:103BE00000709DF806005FFA81FE032262438C4E4E
:103BF000B318B65CBE420AD15A78824207D19A788D
:103C00009970B2EB0E0618BF0126012417E00134AB
:103C1000042CEAD1834C236899708149587001F1D2
:103C2000090083421F7040F0CC8021609DF80000A5
:103C30009DF80220824240F0C780002426469DF86D
:103C40000200FFF707FD9DF80210002C08BF0126B7
:103C500001709DF80220002142708170F6B2FFF7DA
:103C600079FC1EB39DF80000A84200F09C809DF8EE
:103C70000160FF2E1CD166482021036868469847E2
:103C800020B9654C227842F0040121709DF805307E
:103C900003F00F04601C1A4660F30302B4EB131F19
:103CA0008DF8052002DA6846FFF70AFC00247BE065
:103CB000B5422CD16CB99DF8070050B1544B684601
:103CC0001A682021904720B9534C217841F0040014
:103CD00020709DF8043003F0C002402A12D19DF8F4
:103CE000071011B95048182108E04A480C216A46CB
:103CF000FFF70FFF002856D1002001466A46FFF764
:103D000008FF50E09DF80340002C4CD1F4E7474CED
:103D10002378002BCAD09DF8054004F00F0827092E
:103D2000B845C3DA3046FFF703FC9DF8032008F1DD
:103D3000010868F3030495428DF805401DD19DF8F4
:103D4000045005F0C004402C05D0B4F180014B4272
:103D500053EB010200E0012208B1457800E005467E
:103D6000C02C05D1AE4203D02C1C18BF012400E0AA
:103D7000002444EA020530B90AE0A2B910B9684645
:103D800039460EE0154641788DF80310847802E03C
:103D90008DF8030004466846FFF792FB1DB16846A4
:103DA0002146FFF711FC6C46FFF764FB2046042216
:103DB0001F49FFF781FC20461E490222FFF77CFCC9
:103DC00020E0DE1C266031E785423FF436AFFFF786
:103DD00041FC0446FFF7BEFB23783BB19DF805107C
:103DE000A67801F00F00B0423FF727AF9DF8002002
:103DF00022709DF8023063709DF80510C1F3030036
:103E0000A0701AE708B0BDE8F08100BF60C20720CB
:103E100098C1072054C2072084C2072005C007208C
:103E200063C2072000C007203CC2072061C20720F0
:103E3000ACC1072085C2072000231846094AD118C3
:103E40004A780AB10130C0B22433902BF6D1064B28
:103E5000597809B1421CD0B293F825300BB101302A
:103E6000C0B27047ACC1072085C2072008B5FFF774
:103E70005FFB054B20B180781978421CD00001E02F
:103E800019781820484308BD04C00720034A116868
:103E900001605168926841608260704754C2072097
:103EA00030B5404C4FF48035E5613F4CA060E06890
:103EB000C006FCD43C488068C0B2002B6CD00B46D6
:103EC000002A5CD0384C93F90050072AA56030DDF9
:103ED00093F90150083AA56093F90250A56093F94F
:103EE0000350A56093F90450A56093F90550A560AF
:103EF00093F90650A56093F907500833A5602A4C42
:103F0000A5696D07FBD5A5680D70A5684D70A568FE
:103F10008D70A468CC70244CE568ED06FBD4A568D0
:103F20000D71A5684D71A5688D71A468CC710831BB
:103F3000C6E7032A18DD93F90150043AA56093F906
:103F40000250A56093F903500433A560164CE56850
:103F5000ED06FBD4A5680D70A5684D70A5688D7041
:103F6000A468CC700431ABE70133013AE56815F081
:103F7000100FFBD10C4CA46801F8014BA0E7094BD2
:103F80004FF480329A6140B230BDE56815F0100FF1
:103F9000FBD1054C0133A4689342F0DACD56024CB4
:103FA000A560F2E700C009200080084007B50023A3
:103FB00002A9012201F8013D00F01F001346FFF79E
:103FC0006FFF9DF907000EBD07B502AB03F8011D99
:103FD00000F01F0019460122002340F02000FFF7E7
:103FE0005FFF0EBD08B51720FFF7E0FFC0F300101C
:103FF00008BD07207021FFF7E7BF03460A466FF0B0
:104000005F0019460023FFF74BBF08B50020FFF7FC
:10401000CDFF20F0010149B20020BDE80840FFF7C4
:10402000D3BF0000024B4FF08072DA61704700BFCF
:1040300020C0092008B50020FFF7B8FF40F00101BB
:1040400049B20020FFF7C0FF024B4FF080729A6127
:1040500008BD00BF20C0092007202021FFF7B4BF02
:1040600000216FF01E000A460B46FFF719BF000043
:1040700037B505460C46FFF7F3FF28462146FFF704
:10408000BCFF0D4B4FF0807200209A61ADF8060026
:10409000BDF806104A1C93B2ADF8063033B9064994
:1040A0004FF08070C861FFF7DBFF3EBDFFF79AFF5E
:1040B0000028EDD0F3E700BF20C0092008B5172085
:1040C000FFF774FF00F0010080F0010008BD072039
:1040D0004021FFF779BF08B503460A46612019461B
:1040E0000123FFF7DDFEC0F3420008BD00216FF0A1
:1040F0001D000A460B46FFF7D3BE70B504460020EC
:104100000D461646FFF752FF14B100F0BF0102E062
:1041100040F04000C1B215B101F0DF0201E041F012
:10412000200216B102F0EF0301E042F0100300207C
:1041300059B2BDE87040FFF747BF10B504460020F4
:10414000FFF734FF14B900F0F7020DE0012C04D1A1
:1041500000F0FB0040F0080206E0022C14BF40F023
:10416000080140F00C01CAB2002051B2BDE8104075
:10417000FFF72ABF08B50020FFF718FF40F0020143
:1041800049B20020BDE80840FFF71EBF08B5002077
:10419000FFF70CFF20F0020149B20020BDE8084003
:1041A000FFF712BF40F6DD13984206D840F66211C1
:1041B000B0F5166F38BF084600E01846A0F160025F
:1041C00051B20520FFF700BF10B504460620FFF7E7
:1041D000EDFEFA2C00F0D70102D141F0200104E0FD
:1041E000B4F5FA6F08BF41F00801062049B2BDE8F6
:1041F0001040FFF7E9BE10B504460620FFF7D6FED3
:10420000032C34BF2146032100F0F90040EA4102AB
:1042100051B20620BDE81040FFF7D6BEF9284FF096
:10422000FA0305D9B0F57A6F28BF4FF47A6000E041
:104230001846B0FBF3F0421ED3B20F2928BF0F215E
:1042400041EA0311042049B2FFF7BEBE1130C0B2EB
:10425000162806D8202928BF202140B249B2FFF7EE
:10426000B3BE7047032804D004280CBF02210321E9
:1042700000E001210320FFF7A7BE03460A463020D5
:1042800019460023FFF70CBE03460A462A201946AA
:104290000023FFF705BE000073B504460E46154621
:1042A000FFF724FFFFF7DCFE2A4B4FF08072DA6144
:1042B000FFF76CFF00210A460120FFF71EFFFFF702
:1042C00098FE0220FFF739FF3046FFF76BFF2846C4
:1042D000FFF77AFF0320FFF78EFF02200321FFF78D
:1042E00073FE01200021FFF76FFE03214FF4FA70E7
:1042F000FFF794FF00202146FFF7A8FF12200021BE
:10430000FFF762FE13200021FFF75EFE142000215C
:10431000FFF75AFE15200021FFF756FE1620002158
:10432000FFF752FE0C4908680A79009005208DF8C5
:104330000420FFF797FF68460521FFF79EFF6846B8
:104340000521FFF7A1FFFFF715FF4FF4FA6004F016
:1043500076FB7CBD20C009208C4F0200042938B5B3
:10436000054603D1041C18BF012400E00024FEF719
:1043700089F904B12860204638BD000007B5084B14
:10438000002102AA186842F8041D0B4605F02EFD14
:10439000019818B103494FF080520A600EBD00BF6A
:1043A000D8C2072004ED00E070B500238AB0019365
:1043B0000646007901AA00F0C001C0290CBF0F49D0
:1043C0000F4900230D683146284605F00FFD0446CD
:1043D00058B9224602A9284605F0C2FD23462846C0
:1043E000314601AA05F002FD0446019A1AB1054BB7
:1043F0004FF08050186020460AB070BDD0C2072030
:10440000D4C2072004ED00E010B5194C226822B98F
:104410000320202105F021FC2060164C226822B9DF
:104420000120202105F019FC2060134C216821B9DE
:104430000120032205F011FC2060202040F6C3116A
:104440004FF4FA62FFF728FFFFF7F4FD1620012171
:104450000A4A04F027FC064B186838B10548006882
:1044600020B105490A68101C18BF012010BD00BF0B
:10447000D4C20720D0C20720D8C207207D43010044
:104480002DE9F34180460F46164606F05DFA0228F4
:1044900007D1324640463946002305F0E0FCC6B25B
:1044A00013E000230193FEF7EDF8841941F10005B4
:1044B0004046394601AA05F053FDC6B22EB9FEF7B3
:1044C000E1F88D4208BF8442F2D270B2BDE8FC81AF
:1044D00037B504460D46FFF7C9F9237883420AD061
:1044E000E07840B909F072FE00F00301481CBD22DB
:1044F000504304F0A4FAFFF795FDFFF786FD204630
:10450000A9B2FFF7B5FDFFF7A7FDFFF793FD06F092
:104510001BFA02280ED1084B002102AA186842F8A3
:10452000041D0B4605F062FC019818B1034A4FF0D8
:104530008051116001203EBDD8C2072004ED00E08B
:1045400038B504460D46FFF7B9FD48B1A9B220467B
:10455000FFF7C1FDFFF7B2FD08B9FFF7B8FD012075
:1045600038BD000000B50C4B0C488DB00C490D4A0D
:1045700009930B900CAB002043F8102D0A91049086
:104580000FCB8DE80F00084B6A200121074AFFF787
:104590001DFA0DB000BD00BF0944010041450100F6
:1045A000D14401005D430100A9430100914F020085
:1045B0000A460349034608681946FFF761BF00BF72
:1045C000D4C207200A460349034608681946FFF784
:1045D00057BF00BFD0C2072008B506F0B5F90F4B92
:1045E0000228586912D142020CD5FFF725FC0C496C
:1045F00000280CBF4FF0FF320122086800210B4653
:1046000005F02DFCBDE80840FFF7B4BA4302F9D528
:10461000FFF712FC0028F5D108BD00BF00C009203B
:10462000D8C2072010B506F093FA0C4B1A6822F096
:10463000E06020F0FF0119601C6844F004021A6079
:10464000186840F0807119605C68002CFCDA034B3C
:104650005C6806F08FFAC4F30B1010BD00400340F5
:1046600030B504464DB2006894F9041053B22A469E
:10467000BDE8304004F038BF1FB5002204AB90F90C
:10468000044023F8042D4AB202210091006821461B
:1046900004F035FF9DF90C009DF80D3082B243EA1D
:1046A000022188B204B010BD234910B50A680B4638
:1046B00012F010020ED08868C83088611F490A883D
:1046C0001F2A05D8DC6A1E4840F8224001320A80C1
:1046D00010202EE00B68D9072CD518480088012837
:1046E00022D9174B411E04338A4207DA53F8041CBF
:1046F0001C680132611A43F8041CF3E7104A0023D6
:1047000050681A4600EB50008B420BDA0C4C54F800
:104710002340844203D9012404FA03F422430133E1
:104720009BB2F1E707490A60044B00221A80024B52
:104730000120186010BD00BF00800040E0C20720CB
:10474000E4C20720DCC20720044A08B501F07F0359
:104750004171D25C0321FFF783FF08BD964F020031
:10476000044A08B501F07F038171D25C0221FFF792
:1047700077FF08BD964F0200642370B591FBF3F4F8
:1047800004FB13110A224CB294FBF2F602FB16430F
:1047900003F1300149B20546FFF7E2FF092C02DCC4
:1047A0002846202103E006F13002284651B2BDE838
:1047B0007040FFF7C9BF0000124B01F00F0140F23B
:1047C000131201709A610178CA0701D50122DA61DA
:1047D000037803F00201CAB212B10A4B0221D96177
:1047E000027802F00401CBB213B106491022CA616B
:1047F000007800F00803DAB21AB102484FF4807171
:10480000C161704720C00920FFF70CBF044B5969F4
:10481000C1F38130C1F3412242EA8000704700BFFA
:1048200020C0092038B500210446FFF725FF0121EB
:10483000812285B22046FFF713FF102328B290FB98
:10484000F3F008F06DF94FF0765108F0BDF9A1686A
:1048500008F0B2F838BD000008B5FFF7E3FF0549DE
:1048600008F0B2F9044908F063FA4FF0844108F007
:10487000A3F808BD000010410000A0402DE9F04F52
:104880000546ADF5177D0C46914602A82946012242
:104890009A4602F081F88346002853D10CA821469D
:1048A0000A2202F079F8834608B102A837E00090A6
:1048B0000190064607468046FDF7E4FE16A9044629
:1048C0004FF4007202A86B4602F032F98346A8B991
:1048D000009A9AB1FDF7D6FEB8EB040268EB080324
:1048E00000EB0208FDF7CEFE009A04460D460CA828
:1048F00016A901AB02F0C2F9834698B1B9F1000FD5
:1049000001D0C9F80080BAF1000F01D0CAF80070D8
:10491000A09901B10E6002A802F0B4FA0CA802F04E
:10492000B1FA0FE0019900988142E7D1FDF7AAFEA4
:104930004FF0FF321440C7193F1B009C00231D405D
:104940003619B9E758460DF5177DBDE8F08FF0B57B
:1049500004468DB00F46164621461D4602A8002388
:104960000122019302F018F8044670B91DB102A8A3
:10497000294602F09FFA02A83946324601AB02F0FE
:10498000D7F8044602A802F07DFA20460DB0F0BD2B
:10499000F0B504468DB00F46164621461D4602A8C6
:1049A00000230A22019301F0F7FF044670B91DB1FC
:1049B00002A8294602F07EFA02A83946324601AB27
:1049C00002F05CF9044602A802F05CFA20460DB041
:1049D000F0BDF0B504468DB00F46164621461D4683
:1049E00002A800231222019301F0D6FF044680B9E9
:1049F00002A80DB1294600E0059902F05BFA02A871
:104A00003946324601AB02F039F9044602A802F0F9
:104A100039FA20460DB0F0BD7F2816D931B1FF28F4
:104A200012D80A49803831F810007047074A8BB213
:104A300032F81120824203D001318029F6D10B4691
:104A400003F18000C0B2704700207047F6510200A9
:104A50000023064A32F8131031B1884201D00133E5
:104A6000F7E7034830F81300704700BFF652020022
:104A70001650020010B501200C4605F090F9206098
:104A8000003018BF012010BD0120704710B504464A
:104A900005F05AFF02280AD100210B46204640F6B5
:104AA000B83205F0DCF9431E5842584110BD0120D0
:104AB00010BD10B5044605F047FF022807D10021BC
:104AC00020460A460B46BDE8104005F0F7B810BD79
:104AD00010B5044604F004FB24B1012C06D100F00B
:104AE0005BFB01E000F0F8FC044600E0042404F065
:104AF0000BFB204610BD20B1012801D100F044BBC2
:104B000004207047F8B504460F4616461D4604F0CB
:104B1000E7FA3CB1012C0CD1384631462A4600F068
:104B2000E3FA04E0384631462A4600F019FD04460F
:104B300000E0042404F0E8FA2046F8BDF8B5044685
:104B40000F4616461D4604F0CBFA3CB1012C0CD1A1
:104B5000384631462A4600F067FA04E038463146C6
:104B60002A4600F019FD044600E0042404F0CCFAC3
:104B70002046F8BD70B504460E46154604F0B0FA5E
:104B800034B1012C0AD13046294600F027F903E060
:104B90003046294600F01AFD044600E0042404F0E3
:104BA000B3FA204670BD000010B5044606F056FB6F
:104BB000074BB0FBF3F10223B1FBF3F2944202D3B3
:104BC0000448036110BDB3F5807FF9D00233F3E7E9
:104BD00040420F0000000340044B9860DA68D206A0
:104BE000FCD40248816848B2704700BF000003400F
:104BF00038B5FDF747FD00F5FA754FF0FF30FFF7C8
:104C0000EBFF4FF0FF30FFF7E7FFC4B2FF2C07D0F8
:104C1000FDF738FD2A460023994208BF9042F0D3A1
:104C2000204638BD38B5064C4FF00075E561FFF7FA
:104C3000DFFF044BA5611A7842F00100187038BDFF
:104C400020C0092006C0072070B505460E46FDF7B6
:104C500019FD00F164044FF0FF30FFF7BDFFC0B253
:104C6000FF2809D1FDF70EFD22460023994208BF17
:104C70009042F0D3002070BDFE28FBD1102E06D943
:104C800028464FF40071002204F0C8F918E02C46C1
:104C90004FF0FF30FFF7A0FF20704FF0FF30FFF71D
:104CA0009BFF60704FF0FF30FFF796FFA0704FF052
:104CB000FF30FFF791FFAB19E0700434A342E7D156
:104CC0004FF0FF30FFF788FF4FF0FF30FFF784FF12
:104CD000012070BD38B505460C46FFF789FFFF2857
:104CE0001ED160B2FFF778FFFD2C1BD04FF400718E
:104CF0004FF0FF32284604F091F94FF0FF30FFF7F4
:104D00006BFF4FF0FF30FFF767FF4FF0FF30FFF70B
:104D100063FF00F01F00411F4A4252EB010038BD03
:104D2000002038BD012038BD38B5044620060D46A8
:104D300007D577200021FFF7F7FF01283BD804F0C3
:104D40007F041D4B4FF000729A61DA61FFF750FF4C
:104D5000FF282FD160B2FFF73FFF2816FFF73CFF77
:104D600045F30740FFF738FF45F30720FFF734FF0F
:104D700068B2FFF731FF402C04D0482C0CBF8720CD
:104D8000012000E0952040B2FFF726FF4C2C03D114
:104D90004FF0FF30FFF720FF0A244FF0FF30FFF7FE
:104DA0001BFF01460029C0B205DA013C14F0FF04E4
:104DB000F3D138BDFF2038BD20C00920054A06497F
:104DC00013784869410154BF03F0FD0343F0030326
:104DD0001370704706C0072020C009207FB5054624
:104DE0000C46FFF7EBFF052D18D12178012900F0C3
:104DF0000F810AD3022940F009818848426982F074
:104E00008063C3F38061617002E1844C606910F0DB
:104E1000806440F0FD80FFF705FFF9E0804B1878D3
:104E2000C00700F1F7800E2D00F2EA80DFE815F0F0
:104E30000F00190054005800E800E800E800E800FE
:104E4000E800E800B200B700B900C300D40073481E
:104E50004FF00071C161FFF7CBFEFF3818BF012092
:104E6000CFE049200021FFF75FFF054608B1012090
:104E7000C7E068461021FFF7E7FE0028F7D09DF84D
:104E800000109DF808308A09012A07D19DF8091001
:104E9000481C00EB03239AB2930246E09DF80700FA
:104EA000810001EB93129DF80630501C9DF80520FF
:104EB00003F0030100EB812302F00F009DF80A10BC
:104EC0009DF8092000EBD11002F0030100EB410036
:104ED000C21F03FA02F328E04FF4007020805CE068
:104EE000504D2B7803F00400C1B209B3CD2000214E
:104EF000FFF71AFF0028BAD14FF0FF30FFF76CFE22
:104F000068461021FFF7A0FE0028B0D030254FF0F2
:104F1000FF30013DFFF760FE15F0FF05F7D19DF86A
:104F20000A001022010902FA01F32360284668E012
:104F30004920FFF7F9FE0646002898D1684610215F
:104F4000FFF782FE002892D0297801F00202D0B249
:104F50009DF80A1080B101F03F009DF80B10CA09BE
:104F60009DF80D1002EB40038A09581C531E00FAED
:104F700003F02060304644E09DF80B30C1F384021A
:104F8000511C03F003025B0903EBC202531C4B43A9
:104F9000236036E023490A782270002031E049205E
:104FA00000E04A200021FFF7BFFE00287FF45FAF3A
:104FB000204610211DE07A200021FFF7B5FE0028D1
:104FC0007FF455AF05464FF0FF30FFF705FE605503
:104FD0000135042DF7D1E0E7CD200021FFF7A4FE35
:104FE00000287FF444AF4FF0FF30FFF7F5FD204677
:104FF0004021FFF729FED0F1010038BF002000E07A
:105000000420064B4FF000729A6104E0042002E095
:10501000002000E0032004B070BD00BF20C00920C4
:1050200006C0072064C3072070B5144605460E4627
:10503000FFF7C4FE002C4AD0284B1A78D20748D478
:10504000187800F00401CBB2002B44D124484FF073
:1050500000722449C2610B7803F00802D0B200B993
:105060007602012C0DD158203146FFF75DFE30BB92
:10507000FE212846FFF72EFED0F1010438BF0024A0
:105080001DE013F0060F03D0D7202146FFF74CFE9A
:1050900059203146FFF748FE88B92846FC21FFF722
:1050A00019FE28B1013C14F0FF0405F50075F4D198
:1050B0000020FD21FFF70EFE002808BF0124084B49
:1050C0004FF00071201C996118BF012070BD0420B1
:1050D00070BD032070BD022070BD00BF06C0072058
:1050E00020C0092064C3072070B5144605460E464B
:1050F000FFF764FE002C3CD0204B1878C1073AD44F
:105100001F494FF000721F4BCA61187800F0080267
:10511000D1B201B97602012C0ED151203146FFF7F0
:1051200003FEF0B928464FF40071FFF78DFDD0F172
:10513000010438BF002414E052203146FFF7F4FD8B
:1051400078B928464FF40071FFF77EFD28B1013C85
:1051500014F0FF0405F50075F3D14C200021FFF792
:10516000E3FD074B4FF000709861201C18BF012031
:1051700070BD042070BD032070BD00BF06C00720B5
:1051800020C0092064C3072008B5FFF717FE014BB4
:10519000187808BD06C007202DE9F341FFF70EFE81
:1051A000554B1A7802F00200C1B2002940F0A080ED
:1051B0000120FFF7F9FC0A244FF0FF30013CFFF714
:1051C0000BFD14F0FF04F7D14C4B4FF0007640205C
:1051D000DE612146FFF7A8FD012801D0002674E01A
:1051E000FDF750FA4FF4D57100F57A774820FFF7B4
:1051F0009BFD012841D14FF0FF30FFF7EDFC01AAE4
:1052000010550134042CF6D19DF806000128E5D193
:105210009DF80710AA29E1D1FDF734FA3C46002594
:10522000A94208BFA04206D3FDF72CFAA94208BF45
:10523000A042D3D207E0E9204FF08041FFF774FD90
:105240000028E9D1F0E77A200021FFF76DFD002862
:10525000C4D104464FF0FF30FFF7BEFC01AE30551D
:105260000134042CF6D19DF8043003F04002D0B292
:1052700000280CBF04260C2627E0E9202146FFF772
:1052800053FD01288CBF012602268CBF4FF0410838
:105290004FF0E908FDF7F6F93C460025A94208BFA2
:1052A000A0420BD3FDF7EEF9A94208BFA0420CD3F0
:1052B00050204FF40071FFF737FD06E04046002113
:1052C000FFF732FD0028E5D1ECE70D490B4B4FF01D
:1052D00000720E709A6146B10748017801F0FE0233
:1052E00002701820FFF760FC01E0FFF79BFC024B07
:1052F0001878BDE8FC8100BF06C0072020C0092047
:1053000064C30720F8B51A4B05461C880E46B4F551
:10531000007F174602D1084611460AE0B4F5807FA7
:1053200009D1084611462246A84706F5807007F5C0
:105330008071224619E0B4F5047F07D122F4FF7290
:10534000084622F001014FF400720EE0B4F5847FAC
:105350000CD1170A08464FF480727902A847791CCD
:1053600006F5807049024FF48072A847F8BD00BF6F
:1053700066C3072010B5034600295CDD93F90040A1
:105380002D4A0729946030DD93F901400839946073
:1053900093F90240946093F90340946093F90440B8
:1053A000946093F90540946093F90640946093F9F2
:1053B000074008339460204A94696407FBD59468D9
:1053C000047094684470946884709268C2701A4A39
:1053D000D468E406FBD494680471946844719468BA
:1053E00084719268C2710830C6E7032918DD93F909
:1053F00001400439946093F90240946093F90340AA
:10540000043394600C4AD468E406FBD494680470B6
:1054100094684470946884709268C2700430ABE7FA
:1054200001330139D46814F0100FFBD1024A92689D
:1054300000F8012BA0E710BD0000034007B58DF870
:105440000400080A0B0C8DF806008DF8071001A85F
:1054500004218DF80530FFF78DFF0EBDF7B50D4C1B
:1054600006464025080CE5610B0A17468DF8050035
:1054700003228DF8071001A804218DF804208DF86F
:105480000630FFF777FF30463946002203F0C6FDAD
:10549000A561FEBD00C009200D4B0E4840226FF0F3
:1054A0002801DA618160C268D106FCD4094B9B688F
:1054B00008484FF0FF318160C268D206FCD4054B2A
:1054C00098680306F4D5024A40219161C0B2704742
:1054D00000C0092000000340F7B5FFF7DDFF0746D5
:1054E0001B481C4D81781C4C0023402602882380D9
:1054F00001A8EE618DF806100321ADF80420FFF736
:1055000039FF9DF805009DF806301F28AE6117D1C0
:10551000A3F12502022A13D81049252B0B7007F09E
:10552000010006D100280CBF4FF484734FF4807340
:1055300005E000280CBF4FF404734FF40073238080
:10554000054A1188D1F1010038BF0020FEBD00BF1F
:10555000D654020000C0092066C3072068C3072094
:105560002DE9F041064617464FEA4128FFF794FF20
:1055700034460025C6EB0802BD42224407DA214624
:105580000448FFF7BFFE04F500740135F2E7002080
:10559000BDE8F0815D5401002DE9F0410646174653
:1055A0004FEA412804460025C6EB0802BD422244CA
:1055B00007DA21460448FFF7A5FE04F5007401351B
:1055C000F2E70020BDE8F081B956010008B50728D0
:1055D0001CD8DFE800F00407131719191919FFF791
:1055E0005BFF11E00A4B18782538C3B2032B9ABF32
:1055F000084A52F8233000235B0A04E04FF400709D
:10560000088001E001230B60002008BD042008BDD4
:1056100068C30720DC54020030B591B003466C46E5
:1056200000F1400518685968224603C20833AB42AE
:105630001446F7D1064D40249B200021EC61FFF772
:10564000FDFE68462146FFF795FEAC6111B030BD06
:1056500000C0092070B5074D402406460021772080
:10566000EC61FFF7EBFE30462146FFF783FEAC61AD
:1056700070BD00BF00C00920084B188830F01F0023
:105680000BD007490B78253BD9B203299ABF054AAD
:1056900052F821100021B1FBF0F0704766C30720DB
:1056A00068C30720DC540200024B1878003018BF92
:1056B0000120704766C307202DE9F7434FF0FF3301
:1056C0000D46904601938146FFF7E6FEFFF7ECFF9B
:1056D0000446A0B1164E40271648F7610188032002
:1056E000B1F5847F14BF4FF400714FF480712943EA
:1056F000FFF7A4FE01A80421FFF73CFEB7610C4EA2
:105700004022F26182202946FFF798FE4846414632
:10571000012203F083FC3CB1019B02A8591C40F814
:10572000041D0421FFF726FE4020B061BDE8FE8382
:1057300000C0092066C30720F7B5114B07461E8835
:105740004FF0FF30B6F5847F14BF4FF400764FF46E
:1057500080760190FFF7A8FF60B10A4C4025032036
:1057600046EA4721E561FFF769FE01A80421FFF73A
:1057700001FEA5610198B0F1FF3F08BF0020FEBD0A
:1057800066C3072000C009201FB501A803F074FB01
:105790009DF809209DF8083002F00F019DF80620C1
:1057A00003F01F004B0543EA004002F01F0140EAEE
:1057B000C1239DF805009DF8041000F03F0243EA64
:1057C0004210BDF80A20C1F344035106184301F109
:1057D0000843184305B000BD10B50023D41A032CAC
:1057E00003D9CC58C4500433F8E702F0030422F084
:1057F0000302801800238A18A34203D0D15CC1544D
:105800000133F9E710BD8218904202D000F8011B65
:10581000FAE7704770B5164B0024224653F8085C2F
:1058200065B10668B5420AD153F8046C8568AE428A
:1058300005D11E88C588AE4201D105E001240132A0
:105840000C33032AEAD10CE049B90A490C2000FBC9
:1058500002135A89B2F5807F01D0002070BD10205C
:1058600070BD002CF9D10229F7D0122070BD00BF05
:1058700074C307206CC3072070B51F4A0668002355
:1058800052F8084CB44208D152F8045C8468A5422E
:1058900003D11588C488A54210D001330C32032BE4
:1058A000EED1164A1368F3B90C255D4354195651CD
:1058B0008268C08862600022208162810F4A0C20C9
:1058C00000FB0322508929B108B1002070BD4FF4BC
:1058D000807201E0411C8AB208490C2000FB0310D1
:1058E0004281581C70BDD36823B19369002BECD161
:1058F0000223D9E70123D7E774C307206CC307202D
:105900000138022813D80C490C2202FB00135B89D2
:10591000B3F5807F03D01BB1013B9BB200E00023B5
:10592000504309184B8123B9034A135001E0022068
:1059300070470020704700BF6CC30720002310B5DC
:10594000044618464208E15C42EAC010013342189E
:105950000B2B02F0FF00F5D110BD0368024613B90E
:105960004FF0FF30704793F900003038082808D80E
:1059700093F901103A2904D102330128136001DDA3
:10598000EEE700207047F8B503690C4601F1090104
:1059900063B3436900229D5C01326EB2202E1BD09E
:1059A000052E08BFE525092A02D12E2701F8017B23
:1059B000EEB2A6F14107192F0CD81F7B082A94BF1D
:1059C0004FF0080C4FF0100C1CEA070F1CBF06F13B
:1059D0002005EDB201F8015B0B2ADCD1DD7A2572DE
:1059E0001E8BDA69A680DB8A2260E38000250D70B9
:1059F000A669EEB1016909B9002517E0E269002A3C
:105A0000FAD0818C4FF6FF739942F5D0076A37F8C8
:105A1000150058B10021FEF7FFFF0028ECD0E26925
:105A2000511E8D42E8D270550135F0E700207055C7
:105A3000F8BDF8B504460079F8B1256B04F13407D8
:105A4000607839462A460123FFF778F8A0B9636ADF
:105A50002071E069EA1A824201D30020F8BDE6789D
:105A6000012EFAD9E16960786D182A46394601237A
:105A7000FFF764F8013EF3E70120F8BDF8B50446EE
:105A8000FFF7D7FF05466DBB2378032B22D166793C
:105A9000012E1FD104F13407384629464FF4007215
:105AA000FFF7B1FE10494AF6552061630F4A216A9B
:105AB0006369A4F832022069C4F818224A1CC4F8A9
:105AC0001C32C4F820022263607839463346FFF75F
:105AD00035F86571002160780A46FFF74BF8003011
