:020000021000EC
:10000000004008207F0101004D010100E1000100D6
:100010003D0101002D0101001D0101000000000053
:100020000000000000000000000000008DAE010094
:100030000D0101000000000011AF01004DAF0100F3
:10004000FD000100FD00010065490100FD00010007
:10005000FD0001002D950100FD00010095950100B6
:10006000FD950100FD000100FD000100FD00010003
:10007000B9900100FD000100FD000100FD0001003C
:10008000FD00010075830100FD000100FD0001007D
:10009000FD000100BD8F0100FD000100FD00010019
:1000A000FD000100118F0100FD000100FD000100B5
:1000B000FD00010041B30100FD000100FD00010051
:1000C000FD000100FD000100FD000100B469020017
:1000D00000C007202001000020C10720E404000028
:1000E00004207146084200F00480EFF309800BF011
:1000F00093B9EFF308800BF08FB9704708B5024849
:1001000000F0CAF9FEE700BF4A62020008B50248E3
:1001100000F0C2F9FEE700BF6062020008B50248C5
:1001200000F0BAF9FEE700BF7062020008B50248AD
:1001300000F0B2F9FEE700BF7D62020008B5024898
:1001400000F0AAF9FEE700BF8862020008B5024885
:1001500000F0A2F9FEE700BF9362020010B5002391
:10016000934203D21C585C500433F9E710BD0023BE
:100170008B4203D200221A500433F9E7704710B5BE
:1001800014480AF083FF13480AF083FF124C134B04
:100190009C4205D294E807000C34FFF7DFFFF6E736
:1001A0000F48844205D294E803000834FFF7DFFFCC
:1001B000F6E70DF0D9FC0AF083FF02F09DFB03F097
:1001C00023FA4FF416400BF05BFA064800F064F98E
:1001D000FEE700BF00400820CC000100D80001006D
:1001E000E00001000563020008B5024800F054F980
:1001F000FEE700BF2E63020008B5024800F04CF98C
:10020000FEE700BF3963020008B5024800F044F978
:10021000FEE700BF48630200124A30B5116803468A
:1002200011B94FF08050106010680F4DC41862195A
:100230000E4D0C49AA4297BF0D480C601A180A606F
:10024000084A0C4C1168A14202D90B4810600020EA
:100250003BB10A4A116801311160094A094910602D
:100260000B6030BD24C10720FF7FFFEFFE3F07106A
:1002700004C60720FF3F0820004008202CC10720AB
:1002800028C1072020C107200DF0ACBC0DF0AABC8E
:100290000DF0B0BC0DF0AEBC30B58BB00446684676
:1002A0000EF0ECF8214D089B07982560A360606074
:1002B00058B91F491F4A0B6893428ABF03F1604334
:1002C00003F17043A3F5E82363606068B0F5803FF5
:1002D00004D900F17041A1F5E82363601448154B7F
:1002E000016800229942E26006D86D18C5F180537A
:1002F00003F58035E5600BE00F4A914208D80F48BE
:10030000C0F1804303F58012501A0028C8BFE06096
:10031000E1610B490B480A680B490368A2610A684E
:100320006361226120460BB030BD00BF04060000AF
:1003300024C1072000800010FF3F082004C60720CA
:1003400028C1072020C107202CC10720FEE700009C
:10035000014B1860704700BF34C10720014B186083
:10036000704700BF30C1072008B502480EF0A8F85A
:10037000FEE700BFAC39020008B502480EF0A0F855
:10038000FEE700BFC6390200002070470120704719
:10039000084B70B518680E46154640B10024AC42B3
:1003A00005DA044930570A6890470134F7E72846D0
:1003B00070BD00BF34C10720094B70B518680E46E8
:1003C000154600B970BD0024AC4206DA0448016845
:1003D0000020884730550134F6E725EAE57070BD06
:1003E00030C107207047002070470000074B196894
:1003F0008A68824207D04B68834204D0C9680A1ACF
:100400005042504170470120704700BF7CC0072018
:10041000002070470020704730B504468DB000289A
:1004200037D0684608F0ECFE9DF800309DF80110CA
:1004300003F03F0003909DF8040001F03F029DF897
:10044000025000F01F010492BDF806009DF805203F
:1004500005F01F03069102F00F05C0F30B018AB2ED
:100460000593BDF808106B1E07939DF80330A2F2A8
:100470006C75C1F30B0203F00700089595B26B1E73
:100480000990002503A80A930B950DF015FD84E84B
:10049000210000200DB030BD10B504460AF01CFD4F
:1004A000013C14F8010F18B140B20BF025F9F8E740
:1004B000BDE810400AF022BD38B50F4C256815F094
:1004C000010516D120460BF0B9F990B14FF40E702A
:1004D000FFF7DAFE094B30223A2180F8345280F8D7
:1004E000352280F8361280F83752186020460BF01B
:1004F000B3F90248006838BD40C1072044C1072055
:1005000038B5104C236813F0010517D120460BF0C5
:1005100095F998B14FF40E70FFF7B6FE012280F8FE
:100520003422094A31213A2380F8351280F83632D4
:1005300080F83752106020460BF08EF902480068B0
:1005400038BD00BF58C107205CC107202DE9F0412C
:10055000ADF50A7D0E4608F01FFB041E04DD0AF00F
:1005600049FC20460AF0E8F9264D05AC0FCD0FC432
:100570002B6810210DEB010200250AA823600495C9
:100580000AF096F9074604986422B0FBF2F1049150
:1005900030461D491D4A0A2309F09EF8BD4222D06B
:1005A0000AAC049B04EB4514A2690BB1B2FBF3F354
:1005B000606994F80C800090A18B029388000A2354
:1005C0000190A2FB03014FF47A7200230CF0CCFEE1
:1005D00005AB03900E493046626853F8283009F0A5
:1005E0007BF80135DAE70AF07BF8102804D93046A9
:1005F0000849102209F070F801200DF50A7DBDE8C8
:10060000F08100BFE0390200FF390200263A020003
:100610002B3A0200483A020010B5ADF5007D0C46B9
:1006200068460AF09BFE204669464FF0FF3209F00B
:100630001DF801200DF5007D10BD000030B50C4601
:1006400091B02C49054608F0AFF9002847D008AB17
:10065000009309A80AA90BAA0CAB0190029103927E
:1006600004932846244906AA07AB08F000F9072896
:1006700001D000203BE09DF8390006999DF8383004
:1006800061F303008DF839000899BDF83A00079A24
:1006900061F30B0062F304030A99ADF83A009DF888
:1006A0003500099A8DF838309DF8363061F3050031
:1006B00062F304038DF835000C999DF837008DF82E
:1006C00036300B9A9DF8343061F3020062F3050373
:1006D0008DF837000DA88DF8343008F0B3FD08F020
:1006E0004BFE06490246204608F0F6FF012011B0F5
:1006F00030BD00BFBE500200723A0200995A02009B
:1007000030B589B004AB0024009302220D4603AB40
:1007100018490394049408F0B7F8022827D107A8D1
:10072000009005AA0398049906AB059406940794D3
:1007300004F068FA024638B1049928460091039BF8
:100740000D4908F0C9FF10E0059A069B079C002A96
:1007500008BF0122002B08BF012328460749B4FB2C
:10076000F2F2B4FBF3F308F0B7FF012000E02046FB
:1007700009B030BD894C02008B3A0200AA3A02004F
:100780002DE9F0410C46ADF5866D3049054608F07F
:1007900098F92F490746284608F0BCF92C49284605
:1007A00008F0D8F9284608F0F5F90122014601A819
:1007B00006F0B6FA064640B1284608F0EBF925499E
:1007C0000246204608F088FF3AE00BAD314640F281
:1007D000014228460DF0A0FA009602F035F8804656
:1007E00001A829464FF480626B4606F065FB90B184
:1007F00001A806F00BFD8FB102F026F8B0EB08005F
:1008000014BF03460123144920463246B6FBF3F3D6
:1008100008F062FF02E0009B3BB9E9E720460F4980
:100820004FF0FF3208F022FF0AE0F618E854002FDC
:10083000D6D1204629464FF0FF3208F003FFCFE71C
:1008400001200DF5866DBDE8F08100BFD83A0200A9
:10085000894C0200E13A0200F53A0200A553020079
:10086000F0B5C1B00DAB0025009302220C460CABD5
:100870005C490B950C950D9508F006F8022803D1FC
:100880000D980DF067F805460C9808B956490C917B
:1008900016A80C9906F05DFD034678B12046534931
:1008A0000C9A08F019FF9AE020AA802616A80EA933
:1008B0001492159606F09FFD013D08B9002DF3DC5A
:1008C00020464B490C9A08F007FF00252E46802051
:1008D00020AB15900EA916A8149306F08CFD0028E5
:1008E00065D19DF94110002961D09DF8407007F055
:1008F0001002D3B213B10135442205E00B990E98D2
:1009000001360A180B922D2207F0020C17F0010F86
:1009100007F0040E5FFA8CF007F020070CBF2D23C0
:1009200052235FFA8EF100280CBF4FF02D0C4FF0D0
:10093000480CF8B200290CBF4FF02D0E4FF0530EAB
:1009400000280CBF2D214121BDF83C00029141122D
:10095000BDF83E7001F2BC718DE800500391C0F308
:100960004311049100F01F00F912C7F345170691D7
:100970000590079740A951F8C80D093108900991D1
:1009800020461C4908F0A8FE20461B494FF0FF32C4
:1009900008F058FE20A920464FF0FF3208F052FE22
:1009A000204616494FF0FF3208F060FE8FE70095B1
:1009B00040AD55F8D43D12493246204608F08CFE31
:1009C0000C9829460AAA06F045FD40B90A9B0B99E6
:1009D0009A7820464A430B49520808F07DFE0120D0
:1009E00041B0F0BD894C0200103B0200133B0200F5
:1009F000373B0200523B02007F3B0200A55302003E
:100A0000833B0200AD3B020070B50E46054608F080
:100A1000C1F80446284608F0BDF806F0E8FD064A8D
:100A2000064B0749002818BF13463046224608F0F7
:100A300053FE012070BD00BF6D3D0200633D02000A
:100A4000C13B020070B50E46054608F0A3F8044607
:100A5000284608F09FF806F061FD064A064B074954
:100A6000002818BF13463046224608F035FE012004
:100A700070BD00BF6D3D0200633D0200DD3B020022
:100A80007FB503AB0024009302220E4602AB0F4950
:100A90000294039407F0F8FE022814D1029D039CEF
:100AA0002846214606F04AFE09490A4A23460028FC
:100AB00014BF104608460090074930462A4608F001
:100AC0000BFE012000E0204604B070BD894C0200FE
:100AD000633D02006D3D0200EF3B020030B58DB07A
:100AE0000C46054608F056F80A22014602A806F010
:100AF00017F940B1284608F04DF81F490246204634
:100B000008F0EAFD35E08DF8030001901B4920460E
:100B10007E2242F2107308F0DFFD1949204608F0EA
:100B2000DBFD236820461B680DF1030142F21072C1
:100B3000984718B19DF903007E2803D102A806F05A
:100B400065FB16E002A80DF10301012201AB06F0DE
:100B500059FA28B10199012902D020460949DEE756
:100B60002268204653689DF903104FF0FF329847E2
:100B7000D7E701200DB030BD073C02002E3C02003B
:100B8000663C0200863C02002DE9F043ADF5417D54
:100B9000002303AD2B60029302220C4600954049CE
:100BA00002AB07F071FE022806D020463D494FF007
:100BB000FF3208F05BFD6EE016A8296806F0C9FB5D
:100BC00018B1204638492A6807E016A8029906F0AD
:100BD000C0FB28B13549029A204608F07DFD5AE055
:100BE00040A94FF4807204A807F012FE09A880A95A
:100BF0004FF4807207F00CFE20A88021149015910C
:100C000016A80EA906F0F7FB00283ED19DF9412059
:100C1000002A3AD09DF8405005F01003DDB2002DB7
:100C2000EAD10DF14106029A334604A8204908F0A2
:100C300071F8039A33461E4909A808F06BF804A816
:100C400007F0A8FF804609A807F0A4FF074604A8FC
:100C50000E9E07F09FFF814609A807F09BFF2A46DA
:100C600001462B460095484603F0CCFF1149124A35
:100C70000096002814BF1046084601900F492046F0
:100C800042463B4608F028FDB6E709A807F0D4FD28
:100C900004A807F0D1FD01200DF5417DBDE8F083EA
:100CA000894C0200AD3C0200F23C0200173D0200FC
:100CB000373D0200633D02006D3D02003D3D0200F4
:100CC00070B50C462149054607F062FF064628B17B
:100CD000FFF716FC002100F2352009E028461C49E8
:100CE00007F056FF50B1FFF7E7FB314600F2352021
:100CF0000A4606F0B5FD174B17491CE02846174970
:100D000007F046FF48B1FFF7FBFB012200F2352157
:100D100005F0B6FF124B13490DE02846124907F0C3
:100D200037FF88B1FFF7C8FB012200F2352105F03B
:100D3000A7FF0E4B0E49002808BF19464FF0FF329F
:100D4000204608F093FC012070BD00BFC43D0200A6
:100D5000CE3D02005C3D0200663D0200DB3D02002C
:100D6000733D0200833D0200E43D02009A3D020013
:100D7000A83D020010B501200C4607F037FD38B140
:100D800000210A460B4609F05DF92046044901E0BE
:100D9000044920464FF0FF3208F068FC012010BDE6
:100DA000F03D0200063E020038B5064C236833B918
:100DB0001C20FFF769FA054608F074F925602068E1
:100DC00038BD00BF4CC107202DE9F0430C4687B069
:100DD0003C49064607F000FE3B498046304607F096
:100DE000FBFD3A498146304607F0F6FD00270546EF
:100DF000039704970597B8F1000F1DD0304634498A
:100E000003AA04AB07F033FD022807D0204631497E
:100E10004FF0FF3208F02AFC3D464FE0FFF7C4FFD9
:100E20009DF90C109DF9102008F031FD0499C2B213
:100E300000912046284924E0B9F1000F2BD005ABE2
:100E400000933046254903AA04AB07F010FD0328A0
:100E500007D0204622494FF0FF3208F007FC4546F4
:100E60002CE0FFF7A1FF9DF90C109DF910209DF9D2
:100E7000143008F0FDFC40B104981A49059A00901E
:100E80002046039B08F028FC17E020461649039AE9
:100E900008F022FC11E088B10226FFF785FF71B24D
:100EA00008F002FD20B120461049324608F014FC3B
:100EB0000236B6F5807FF0D100E00125284607B064
:100EC000BDE8F083AC4D0200203E0200263E020049
:100ED0002F3E02003B3E02005C3E02007D3E0200CF
:100EE0008D3E0200B43E0200D43E0200F13E0200FC
:100EF0002DE9F04F5E4C93B023680E4633B92020A5
:100F0000FFF7C2F9054608F003FB2560D4F800801E
:100F1000FFF7D2FA002512A941F8105D00F2352042
:100F20000DAA06F097FA48B90D9A0E99976990782C
:100F3000BC1E414344434D08670800E02F46DFF8DC
:100F40003491D9F8003063B90C20FFF79DF90446BD
:100F5000FFF72AFF9022206000202271A060C9F8CC
:100F600000404449086803F03BFE04460CF0B6F923
:100F700083460BF099FF014620460BF0DFFE3E4909
:100F80000BF0E6FF0CF0AAF90B900FA80AF08EF810
:100F900004F04EFD38B308F067FA04F031FD002488
:100FA0000346A146A2469C420AD020460A9304F07A
:100FB00087FD504584BFA14682460A9B0134F2E773
:100FC00008F066FA642303FB0AF22C483B46B2FBA6
:100FD000F0F1C1F164028DE80406304628492A4642
:100FE00008F07AFB05E0304626492A463B4608F0E1
:100FF00073FB254C23681BB90120FFF745F92060DE
:10100000206803F0B1FD044608F0B6F99DF84120D0
:101010009DF84010019001F01F0302F00F00BDF891
:10102000422003939DF83E300290C2F30B0081B240
:1010300003F01F029DF83D009DF83C30049105929D
:1010400000F03F0103F03F02079200940691B8F8C8
:1010500018005A460890B8F81A10304609910B9BB0
:101060000A4908F039FB012013B0BDE8F08F00BF3A
:101070003CC1072048C1072000002041A086010094
:10108000113F0200453F020050C10720533F0200BC
:1010900038B5064C236833B90420FFF7F5F8054648
:1010A00001F0ACFA2560206838BD00BF38C10720C8
:1010B0002DE9F0418CB00C460546FFF7E9FF80466C
:1010C000284607F067FD31490246204608F004FB38
:1010D00028462F4907F05DFC431C064605D12046F3
:1010E0002C4908F0F9FA00244BE03246002128464A
:1010F00007F0D1FD014602A807F055FE02A807F04F
:10110000ADFB074630B920462349324608F0E4FAE1
:101110003C4633E02846711C07F0F0FD014607A865
:1011200007F041FE07A807F099FB054610B92046D5
:101130001A490CE002A807F02FFD054607A807F0A2
:101140002EFD691E0529064605D91549204608F0D9
:10115000C3FA00240FE032464046C9B201F09CFABF
:1011600030460BF089FA2A46CDE9000120460D49A8
:1011700008F0B2FA012407A807F05EFB02A807F006
:101180005BFB20460CB0BDE8F08100BFBB3F020016
:10119000894C0200C03F0200D63F0200034002001B
:1011A000234002003A40020038B5FFF771FF0024E7
:1011B00005460021224601F06FFA28460121224609
:1011C00001F06AFA28460221224601F065FA012060
:1011D00038BD000038B5064C236833B91420FFF73A
:1011E00053F8054606F09CFF2560206838BD00BF17
:1011F00054C1072008B54FF0FF320846094908F0EE
:1012000035FAFFF7E7FF06F07DFF4FF4FA6009F0CB
:1012100093FB4FF080430020AA221A72187001201D
:1012200008BD00BF5140020073B50C461449054685
:1012300007F0AEFC50B1FFF7CDFF06F063FF20468C
:1012400010494FF0FF3208F011FA16E0FFF7C2FF25
:101250000646284607F09EFC40F2051301460A4A5E
:1012600000933046094B07F035F8284607F092FC0A
:1012700007490246204608F02FFA01207CBD00BF36
:10128000624002006840020081400200F43902001E
:10129000B440020070B58AB005460C4607F0DEFA8D
:1012A0000B2803DD20461B490C222DE0284607F0C1
:1012B00071FC01220146684605F032FD06462846CB
:1012C000EEB907F067FC144B0168196042681349D6
:1012D0005A608068986043F8041C039A10492046BD
:1012E00008F0FAF9684605F091FF4FF47A7009F0BA
:1012F00023FB4FF08043AA221A721E7006E007F00B
:1013000049FC08490246204608F0E6F901200AB0E7
:1013100070BD00BFD6400200484002400DD0ADDE97
:10132000FD4002004541020070B5414EA6B0336851
:101330000546DB070C460CD430460AF07FFA40B174
:101340004FF480600CF04EFC3A49086030460AF0D9
:1013500083FA2846384907F03FFB064620B30021B0
:10136000802206A80CF0D8FC002105A80491059164
:101370000090324906AA04AB284607F078FA2D4AB5
:10138000049B116806A8059A13B903F0C5FC01E097
:1013900003F0E3FC2A4A2B490346002B08BF114601
:1013A000204608F099F932E02846274907F014FB57
:1013B00000283BD0284604AA244905AB049605968C
:1013C0008DF80F6007F053FA049D05982A18B2F5BE
:1013D000806F0DDD20461E494FF4806210E01548F5
:1013E0009DF80F10026851559DF90F300135F61820
:1013F000049B0598E91A814205DB164920463246CE
:1014000008F06AF903E0B5F5806F02DBF5E701202B
:101410000CE02268204613680DF10F014FF4FA62C8
:1014200098470028DBD120460B49BAE726B070BDAB
:1014300064C1072060C107207041020077410200AB
:101440005A4102005E410200874102008E410200C3
:1014500098410200CC410200BC41020030B50C466C
:1014600087B00B49054608F037F9A17AE07A009178
:10147000E188019002912089A188039004916288FB
:1014800023882846034908F027F907B030BD00BF7C
:10149000DD410200134202001FB501A80C4602F014
:1014A00041FE02F02FFB01A902462046FFF7D6FFBE
:1014B000012004B010BD0000F0B58DB003AB0025D5
:1014C00000930C4617463849022202AB0295039559
:1014D00007F0DAF9A84239DD02980CF03BFAC6B2FF
:1014E000039818B10DF0E3FAC5B200E0054604A870
:1014F000002103F0A9F930B120462C494FF0FF320A
:1015000008F0B4F8F3E7003718BF01270220009075
:1015100039463046039A2B4602F026FC10B9204685
:1015200023490EE0002F3CD004A84FF47A7103F059
:1015300095F9002830D09DF81010B1422CD107E069
:101540001C494FF0FF3208F091F82AE0284629E0C4
:101550009DF817200C2A04D1204606A93246FFF731
:101560007DFF2046002DEBD1134908F0B5F89DF81A
:1015700017309D420BDA20680CA94A19436812F90A
:10158000181C20464FF0FF3298470135EFE7204600
:101590000A4908F0A1F804E020460949029A08F037
:1015A0009BF801200DB0F0BD894C020031420200D1
:1015B000534202008F4202007B4202008549020032
:1015C000AC42020038B50D4607F0E6FA0446C0B258
:1015D00002F08CFA054A064B0649002808BF13465C
:1015E0002846224608F078F8012038BDD242020091
:1015F000633D0200D942020030B58BB00AAA4FF415
:101600007A730C4642F8243D174907F030F900255B
:1016100002A8019903F018F9E0B1204613499DF89A
:10162000082008F059F800259DF80F0085420BDAD4
:1016300023680AA94A1912F9181C5B6820464FF062
:10164000FF3298470135EFE72046094908F044F892
:101650000125DDE72DB9204606494FF0FF3208F09D
:1016600005F801200BB030BD95410200F0420200A8
:10167000A45302000743020037B50C4602F0B8FB42
:1016800016490546204608F027F8154920462A46FF
:1016900008F022F82046114908F01EF8DDB1114982
:1016A000204608F019F820460C4908F015F80020EB
:1016B000451CEDB202F086FB48B181780278437890
:1016C00000912046084908F007F82846F0E7204630
:1016D000024908F001F801203EBD00BF1843020096
:1016E000334302004D4302006843020038B5064C04
:1016F000236833B94C20FEF7C7FD054607F060FDAF
:101700002560206838BD00BF68C107202DE9F04F73
:10171000ADF5757D8022044634AF894614A80021BA
:101720000CF0FAFA0021802238460CF0F5FA03AEEC
:101730000023336020460096714914AA3B4607F007
:1017400096F8032801D00020D5E00AA814A90122A8
:1017500005F0E6FA05460028F5D1FFF7C7FF044675
:10176000306854A984F84700802205A88DF80B50F2
:10177000049507F04DF800974846624914AA33686B
:1017800007F0AAFFA8460AA874A94FF4007204AB98
:1017900005F092FB38B10AA805F038FD05A807F05E
:1017A0004BF80120A7E004990029F4D06F1C56499A
:1017B000049A204607F090FF226820469668B047BA
:1017C00000267D1EB246049B20689E420DD20DF578
:1017D000E87B1BF9061043684FF0FF32204698471C
:1017E00016F90B1001368A44EDE7816820468847D8
:1017F00005A807F0CFF9064605A807F032F84FF420
:101800007A7302463146204607F03EFF012120222E
:1018100005A807F06AF905A807F0BEF950451FD0E2
:1018200005A807F0B9F9394903465246484607F07A
:1018300053FF3749204607F04FFF20688168204654
:1018400088472268204613680DF10B014FF47A7225
:1018500098470028F5D1781C022F9CD80746A6E7A8
:10186000049A2C490092434634AA204607F034FFDC
:1018700026682046B368984705A807F08BF9064606
:1018800005A806F0EEFF314602464FF47A73204673
:1018900007F0FAFE05A8204907F074F8D0B905A8AA
:1018A00007F078F91D490246484607F015FF184928
:1018B000204607F011FF216820468A689047236878
:1018C00020461B680DF10B014FF47A7298470028EF
:1018D000F5D1C0E705A8124907F05AFA0498114952
:1018E0008044424648460D9B07F0F6FE002D3FF42B
:1018F0004AAF013D47E70DF5757DBDE8F08F00BFAC
:101900008343020092430200A9430200BB4302004A
:10191000A4530200E2430200F8430200FB4302002A
:10192000A5530200334402002DE9F04186B006AA17
:101930000026074642F80C6D0D463C4906F097FF1D
:1019400038460121202207F0D0F8039B002B63D0FA
:10195000384606F083FF00285ED0FFF7C7FE8DF8FB
:101960000B60044620680DF10B0106680522204635
:10197000B04706460028F5D10399384684F8471049
:1019800007F008F94FF0FF320146204607F06EFEDF
:10199000226820469768B847254B05961868374651
:1019A0000490216820460B684FF47A720DF10B0108
:1019B000984770B105A8411C03220CF093F99DF8DB
:1019C0000B8005A804A904228DF817800CF072F989
:1019D00038B91821B7FBF1F301FB13726AB1013377
:1019E0000BE028684FFA88F1436801222846013746
:1019F00098470028D5D10136D3E728460D493A4605
:101A000007F06AFE76B1612000900B492846324605
:101A10000A4B07F061FE05E0284609494FF0FF3206
:101A200007F024FE012006B0BDE8F08195410200D8
:101A3000D94102003F440200664402001F450200F3
:101A40005B45020043682DE9F041994204460D468A
:101A500017D3C06889000CF0BDFDA668E060B70030
:101A6000AE420DD21020FEF70FFC0021102280465E
:101A70000CF052F9E068013640F807800437EFE7D0
:101A80006560BDE8F08100002DE9F743304D074661
:101A90002C688946002C49D12420FEF7F5FB04234D
:101AA000064680E818008460C46008214FF00108F1
:101AB000FFF7C8FF86F8208030462649264A274B84
:101AC00000942E6006F02CF928682549254A264BFB
:101AD000009406F025F928682449254A254B0094EE
:101AE00006F01EF928682449244A254B009406F084
:101AF00017F928682349244A244B009406F010F96A
:101B000028682349234A244BCDF8008006F008F9C1
:101B100028681F49214A224B009406F001F90094DD
:101B200028682049204A214B06F0FAF83846204917
:101B300007F02EF818B138461E4907F029F9044B72
:101B4000394618684A4603B0BDE8F04306F0B8B914
:101B50006CC1072029190100874502008E4502004B
:101B60000D170100C8450200D1450200F91501001A
:101B70002546020028460200C51501005E4A020003
:101B80004B4602007916010091460200754602009C
:101B9000B9140100DA46020098460200D946020054
:101BA000DE460200991401001E47020003470200AE
:101BB000A55302002447020037B590F9045014469B
:101BC00000934AB223462946006807F05CFE3EBDFA
:101BD00010B5044694F904102D220823006807F07C
:101BE00047FE206894F904103122082307F040FED4
:101BF000012010BD10B504462246084606233221B6
:101C0000FFF7DAFF204610BD08B5034693F904102C
:101C100020220F23006807F02BFE012008BD38B5F5
:101C200004460D460846224628210123FFF7C4FF3B
:101C300028462921621C0123FFF7BEFF28462A21DE
:101C4000A21C0123FFF7B8FF28462B21E21C012329
:101C5000FFF7B2FF28462C21221D0123FFF7ACFF1E
:101C600028462D21621D0123FFF7A6FF204638BD1F
:101C7000014B0360704700BF3847020001207047E6
:101C80000120704701207047014B0360704700BF7F
:101C900038470200034B10B504460360FEF7F8FA1C
:101CA000204610BD38470200034B10B504460360C0
:101CB000FEF7EEFA204610BD3847020010B5044684
:101CC000C06C094920F000400BF0FEFA50B9216DBC
:101CD000012421F0004004490BF0F6FA00B9044653
:101CE000E0B210BD012010BD14AE473F01460022F6
:101CF000406C4C31134608F076BA38B5FFF7C8F996
:101D0000002405460121224600F0C6FC2846002199
:101D1000224600F0C1FC284602212246BDE8384098
:101D200000F0BABC70B50446FFF7B2F900261423E0
:101D30000546E36184F8486084F84960E665314609
:101D400000F080FC0121284600F07CFC022128469E
:101D500000F078FC0321284600F074FC104B114879
:101D6000114A4FF07E51636720666066A266E066A6
:101D70002167002428463146224600F08DFC284683
:101D80000121224600F088FC28460221224600F06C
:101D900083FC28460321054A00F07EFC012070BD2B
:101DA0000000C0400000684200009242000048422B
:101DB0002DE9784E0646FFF76BF9F46C81469E4993
:101DC00020460BF081FA002864D0B06D716F0BF0E3
:101DD0007BFA00282FD0356E984928460AF0AEFFCE
:101DE00097490BF067FA002800F099809249204645
:101DF0000AF0A4FF0BF072FA0028B8BF40420AF0C4
:101E000029FC824628468B460AF036FC5246044698
:101E10000D465B46504659460AF082FC0022894B2B
:101E20000AF07EFC02460B46204629460AF0C4FA18
:101E30000AF030FF72E0756E804928460AF080FF94
:101E400081490BF02DFA002869D07B4920460AF021
:101E500075FF0BF043FA0028B8BF40420AF0FAFBC6
:101E6000824628468B460AF007FC524604460D4639
:101E70005B46504659460AF053FC0022714B0AF06B
:101E80004FFC02460B46204629460AF097FA0AF014
:101E900001FF26E0204668490BF0F8F900283ED003
:101EA000B06D716F0BF010FAE8B1756E634928469A
:101EB0000AF044FF62490BF0FDF900282FD05E497B
:101EC00020460AF03BFF0BF009FA0028B8BF404259
:101ED0000AF0EAFF59490BF03BF8014628460AF0A0
:101EE0002DFF70661BE0356E544928460AF028FF26
:101EF00055490BF0D5F990B14F4920460AF01EFF25
:101F00000BF0ECF90028B8BF40420AF0CDFF4B4976
:101F10000BF01EF8014628460AF012FF3066346DB9
:101F20004A4920460BF0B2F9002838D0356E4349B3
:101F300028460AF005FF44490BF0B2F990B1444934
:101F400020460AF0FDFE0BF0C9F90028B8BF404258
:101F50000AF0AAFF39490AF0FBFF014628460AF0B9
:101F6000EFFE3066756E354928460AF0E9FE3649BF
:101F70000BF096F9002850D0354920460AF0E0FED3
:101F80000BF0ACF90028B8BF40420AF08DFF2B4996
:101F90000AF0DEFF014628460AF0D2FE3CE0204669
:101FA0002A490BF091F9002837D0356E234928468D
:101FB0000AF0C4FE24490BF07DF990B12449204673
:101FC0000AF0BEFE0BF08AF90028B8BF40420AF0C2
:101FD0006BFF1A490AF0BCFF014628460AF0AEFE24
:101FE0003066756E154928460AF0A8FE16490BF0B2
:101FF00061F990B1164920460AF0A2FE0BF06EF985
:102000000028B8BF40420AF04FFF0C490AF0A0FF79
:10201000014628460AF092FE7066746D0021204643
:102020000BF052F9C0B1F06E0A490AF087FE0021A8
:1020300004460BF049F91CE0EC51383D000020410A
:1020400000006842000024400000C842B6F3FDBC16
:10205000B6F3FD3CCDCC4C3D204600210BF016F9EB
:1020600048B13A49F06E0AF06BFE394904460BF06C
:102070000DF900B1F466746E4FF07E53336720465D
:1020800034490BF021F900B9324C2246484601216F
:1020900000F002FB316F306E0AF05AFF2D49044602
:1020A0000BF012F900B92B4C22464846002100F0F3
:1020B000F3FA316FB06E0AF04BFF264904460BF07D
:1020C00003F900B9234C22464846022100F0E4FA05
:1020D000316F706E0AF03CFF1E4904460BF0F4F8B5
:1020E00000B91C4C20460AF0C7FA02460B461A48B3
:1020F0000CF0CEF9316F306E0AF02AFF1549044614
:102100000BF0E2F800B9134C20460AF0B5FA02468B
:102110000B4612480CF0BCF9316FB06E0AF018FF94
:102120000C4904460BF0D0F800B90A4C20460AF0DE
:10213000A3FA02460B460A480CF0AAF9F26E48468A
:102140000321BDE8784E00F0A7BA00BFCDCC4C3DCE
:102150000000C84200006842884702009F47020012
:10216000B547020038B5C36D0446591CC165FFF779
:10217000BDFDE56DFA2DCCBF0020012084F849009B
:1021800078B994F8482062B92046FFF797FD84F8A3
:10219000480068B940F6C9039D420DDC2046FFF7B0
:1021A00007FE94F8480050B106480CF089F906E0A3
:1021B0002046FFF7A2FDF4E700216167EEE701206A
:1021C00038BD00BFCC470200014B0360704700BF21
:1021D00038470200034B10B504460360FEF758F879
:1021E000204610BD38470200F7B5A54D0446AB693F
:1021F00043F40020A861142006F001FEE969684656
:1022000041F40022EA61A16CFFF7F4FC009EBDF8E6
:102210000470E16C26656846A4F85470FFF7FFFC73
:10222000009DBDF80430C4F85650A4F85A30B4F9F3
:1022300056000AF039FE0AF01FFA0022914B0AF00C
:1022400099FB0022904B0AF095FB89A3D3E9002368
:102250000AF066FA0AF01EFD8C490AF079FE014682
:10226000A06B0AF06DFDA063B4F958000AF01CFEE3
:102270000AF002FA0022834B0AF07CFB0022824B18
:102280000AF078FB7AA3D3E900230AF049FA0AF0AE
:1022900001FD7E490AF05CFE0146E06B0AF050FD4C
:1022A000B4F95A60E06330460AF0D4F9002221F014
:1022B0000041774B0AF0C4FCD8B130460AF0F4FD77
:1022C0000AF0DAF900226F4B0AF054FB00226E4B41
:1022D0000AF050FB66A3D3E900230AF021FA0AF0C2
:1022E000D9FC6A490AF034FE0146206C0AF028FD48
:1022F0002064684A10680AF0BFF95FA3D3E900239D
:102300000AF00EFA0022644B0AF034FB0AF0C2FC19
:10231000624907460AF0BAFF00B16764B4F9520097
:102320000AF098F90546B4F954000E460AF092F9FD
:1023300002460B462846314609F068FD0AF0AAFC21
:10234000E065B4F950000AF085F90546B4F9540087
:102350000F460AF07FF902460B462846394609F037
:1023600055FD0AF097FC05462066B4F950000AF0C6
:1023700071F90746B4F9520021F000460AF06AF9F3
:1023800021F0004E844673466246384631460AF0D4
:1023900015F80646B4F954000F460AF05BF921F02F
:1023A000004C03461A463046634639460AF006F8A2
:1023B0000AF050FCA4F86C00B4F956000AF074FD61
:1023C0000AF05AF900222F4B0AF0D4FA00222E4BC1
:1023D0000AF0D0FA26A3D3E900230AF0A1F90AF003
:1023E00059FC2A490AF0B4FDA16B0AF0A9FC2C495A
:1023F0000AF0AEFD2B490646E06D0AF0A9FD014644
:1024000030460AF09DFCA063B4F958000AF04CFD78
:102410000AF032F900221B4B0AF0ACFA00221A4BE8
:102420000AF0A8FA12A3D3E900230AF079F90AF016
:1024300031FC16490AF08CFDE16B0AF081FC184969
:102440000AF086FD1749064628460AF081FD014636
:1024500030460AF075FC0022E06304F13801606B3D
:10246000134607F0EFFD0120FEBD00BFAFF3008073
:102470004AD8124DFB210940B81E85EB51B8BE3F2A
:1024800020C0092000408F40008066400AD7A33B4F
:1024900000406F4078C10720008062400000484241
:1024A00048E17A3F0AD7A33C38B51A4C63685A0012
:1024B00011D51948416801F001024260E36843F018
:1024C0008040E060216901F080422261636943F04D
:1024D0008040606138BDA068430019D50E4DA868E2
:1024E0000AF0DEFCE2680D4942F080430860E360D8
:1024F000686840F0010169606A6842F002036B603D
:10250000606900F080416161226942F0804323618B
:1025100038BD00BF808002400040094078C10720DC
:1025200038307047052370B5C36104460020A063AE
:10253000E0632064606410210022012007F051FD57
:1025400029496063D1F8C42042F40006C1F8C46090
:10255000D1F8AC3103F48040C1F8AC01A1F5D02131
:102560004A6842F001064E604B6843F00200486042
:10257000A1F5D021CA681D4B02F0C006CE601868D4
:102580001B4E40F4002119601A4A1E20002106F05B
:102590004DFD32684AB90820FDF776FE0546FEF784
:1025A00003FCA72328602B7135601148124E016887
:1025B0003268A1644AB90820FDF766FE0546FEF7B9
:1025C000F3FBD32328602B7135600B480168A06CA6
:1025D000E164FFF7FDFA28B1E06CFFF715FB08B1E5
:1025E000012070BD002070BD00C00F4020C0092038
:1025F00070C10720A924010074C1072070B500260E
:1026000005460660012106200D4C08F05BFE012105
:10261000062008F06FFE0223FF22636022606361E0
:1026200008F0E0FF3221B0FBF1F00923A061636004
:10263000A660226F284622F00F01216770BD00BFFF
:10264000008001400268052930B542F0010202D93C
:102650000260002030BD01234C1C03FA04F52A431C
:10266000026001FA03F0032404FA00F403FA00F014
:10267000093103FA01F1074A156925EA04041461D6
:10268000146920431061A2F5A032D06C0143D164DB
:10269000184630BD00C00240F8B517460C46054646
:1026A00008F0A0FF0AF0FCFB1349064638460AF082
:1026B00003FD12490AF04CFC10490AF041FB0146A7
:1026C00030460AF045FC0AF02FFE0D4B052C0FD8C2
:1026D000DFE804F0030507090B0DD86108E0186274
:1026E00006E0586204E0186402E0586400E0986470
:1026F0002A681A65F8BD00BF0000C8426F12833A0D
:102700000080014038B50D46044608F06BFF074BCA
:102710000221B0FBF3F0B0FBF1F2954201D321614D
:1027200038BDB1F5807FFAD00231F4E740420F00A6
:1027300001480BF0C5BE00BF484802007FB500F25B
:1027400035260D460122314604F09AFAC4B24CBB3C
:1027500004A941F8044D304602AA04F07BFEF8B902
:10276000029A039994699378A21E5A4359435408D4
:1027700040F2E73348089C420F49104B8CBF4FF49E
:102780008062012288BF0B46B0FBF2F18DE80A009F
:102790000B482946B4FBF2F20BF07AFE012008E068
:1027A000084B00E0084B0948294662B20BF070FE66
:1027B000002004B070BD00BF824802007F480200C4
:1027C0008C4802008548020089480200BA4802008D
:1027D00038B5AA224FF0804355201A72187208F0BB
:1027E00077FA174C02284FF000014FF00100D4E9AE
:1027F000002317D1121843EB0103C4E9002308F0AA
:1028000003FED8B108F0F2FDD4E900010A2200234A
:102810000AF0AAFD0A25A0FB052305FB0133C4E944
:10282000002338BD121843EB0103C4E9002302F072
:102830001FF80020BDE8384008F02EBC38BD00BFAE
:1028400090C10720FFF7C4BF024BD3E90023104615
:102850001946704790C1072038B5084D2B684BB911
:102860000820FDF711FD0446FEF79EFA2060402087
:1028700020712C600149086838BD00BF8CC1072059
:1028800038B5054C256825B90120FDF7FDFC05701C
:102890002060206838BD00BF88C1072038B5094DC9
:1028A0002B685BB90C20FDF7EFFC0446FEF77CFAC1
:1028B0000021206090202071A1602C60014A1068E6
:1028C00038BD00BF48C1072010B5044C23681BB9B0
:1028D0000120FDF7D9FC2060206810BD50C1072001
:1028E00010B5044C23681BB90120FDF7CDFC206016
:1028F000206810BD84C10720B14AB24970B5402399
:10290000B14D4FF000704FF480348B6190618C6159
:102910002E68ADF5047D26F0F0032B60286840F0AA
:1029200050042C602E6826F440532B60086840F059
:1029300040040C602E6826F47C232B60286840F449
:1029400028242C602E6826F470032B60286840F43D
:1029500020042C602E6826F040432B60286840F04D
:1029600000442C606E6826F03C036B60686840F0A1
:1029700028046C606E6826F003036B60086840F4FE
:1029800080340C606E6826F440536B60086820F455
:1029900080040C60E96821F44036EE60136843F06F
:1029A000807010606C6824F4402169606E68874C08
:1029B00046F480236B60A8680440AC60116841F461
:1029C000897646F001031360A86820F47014AC60A7
:1029D000A96821F07046AE60136823F44640106089
:1029E000EC6824F03001E960EE6846F03003EB60FB
:1029F000E86820F47014EC60156845F0007111600F
:102A0000166826F08063136008F0D4FA4FF4FA6079
:102A100006F0F5F9FFF78CFE08F0E4FD0AF040FA45
:102A20006B490AF049FB09F027FE02460B4669484C
:102A30000BF02EFD08F034FB042811D1002266486B
:102A400005920568654E04AC0495FFF771FEF16CC4
:102A50006348326D736D00940BF01AFDFFF768FE4A
:102A60000C20012108F02EFC5E4C0C20032108F004
:102A700041FC4FF40011216008F0B4FD0223C008AE
:102A8000594AB0FBF3F5954204D8266846EA03217B
:102A9000216003E00233B3F5807FF1D10A200121E8
:102AA00008F010FC0A20012108F024FC4F480725FB
:102AB0000224056001214460FFF724FE06F064FC57
:102AC0001520012108F0FEFB1520012108F012FC61
:102AD0004748012105604460FFF714FEFEF764F9E2
:102AE000642106F0A9FA10B942480BF0E9FC01F0A4
:102AF00085FE10B940480BF0E3FC01213F4808F087
:102B000049FCFDF7D9FC3E49FFF718FE0646B8B967
:102B10003C480BF0BDFCFDF7CFFC3146324600F2DD
:102B2000352004F09DFE384B384A002814BF10466B
:102B300018460BF0C5FCFDF7BFFC3149FFF7FEFD61
:102B4000334C206810F0010517D1204608F076FEBE
:102B500098B14FF40E70FDF797FB2E4A01213126F4
:102B60003A2380F8341280F8356280F8363280F8E3
:102B700037521060204608F06FFE264C2649206828
:102B8000264DFFF7DBFD19481821FFF7BBFDFFF7C6
:102B9000CFFD286848B90820FDF776FB0646FEF70A
:102BA00003F93821306031712E601C4B186801F038
:102BB000C7FE0446B0BB1A480BF082FC33E000BFEE
:102BC00020C0092000C0092000C00240F0FCFCFF2A
:102BD00000247449F848020044400240004002408A
:102BE00010490200004003403F5DC6000000034062
:102BF0000080084088490200B9490200D12701003D
:102C0000DE490200E6490200ED480200F2480200F7
:102C100058C107205CC10720923D02007CC10720FB
:102C20000F4A02000124FFF739FE01F0ADFF05460F
:102C300018B971480BF044FC2C46FFF70DFE01F06B
:102C40004AFF064618B96D480BF03AFC34466C4D05
:102C50002A681AB90120FDF717FB2860286801F0DF
:102C6000D1FEFFF731FE01F07DFFFFF709FE01F015
:102C70004FFFFFF735FE01F079FFFFF701FE00215E
:102C800001F048FF94B9FFF753FDFFF7E5FD2D2153
:102C900001F0EAFEFFF7E0FD2D2101F0F1FEFFF764
:102CA000EFFD4FF0FF3101F035FF0CE0FFF7D4FDF1
:102CB0000646FFF7F3FD01F093FF0AF00FFB41B268
:102CC000304601F0E9FE00234E4804A90722049390
:102CD000059302F000F8A8B904A80AF03BFEC4B2BC
:102CE000601EC1B2FD2905D904A9464A46480BF029
:102CF000CFFB07E045482146424A0BF0C9FB20467E
:102D000000F0F4FEFFF7E0FD01F02EFF0546002085
:102D10000DF0E8F828180BF0F1FB4FF400720021D9
:102D200004A80AF0F9FF04A808F018FB04A9384821
:102D30000BF0AEFBFFF7FCFC8022002104A80AF098
:102D4000EBFF04A802F04AFE9DF91020531C05D0A9
:102D500004A9D2B22F480BF09BFB29E0FFF7C0FD7E
:102D600001F006FF09281DD12B480BF0A9FB04A98F
:102D70002A480BF0F7FC04A929480BF089FB2948E5
:102D80000BF09EFB0023284803A903930BF0EAFCF9
:102D90009DF90C60592E03D104A802F001FE07E052
:102DA000224803E022480BF08BFB22480BF088FB03
:102DB0004FF20804206861684FF470434FF2040238
:102DC000850A8E0AA46811681B481A680BF060FB1C
:102DD0002A46314619480BF05BFB214618480BF098
:102DE00057FBFFF7A5FC17480BF06AFBFFF7A0FCA9
:102DF0000DF5047D70BD00BF2A4A0200444A02005E
:102E000080C107205D4A0200634A02008E4A020028
:102E1000995A0200BB4A0200D74A0200F94A02004E
:102E2000FE4A0200194B02005C4B0200604B02009C
:102E3000784B0200A64B0200D84B0200044C020063
:102E4000314C02004E4C020001207047F8B591E869
:102E500060000F7A14468FB1082A0FD1304605F072
:102E6000FDFC00281BDD28460E494FF0FF3206F01E
:102E7000E9FB3046012105F0F8FD08E00A2C05D0F9
:102E80000D2C03D03046214605F0DEFE4FB12B68F5
:102E900028465B6821464FF0FF329847F8BD07246B
:102EA000F5E7F8BD884C02002DE9FF41CE6B0446E2
:102EB0000D4601AF5EB94FF47A7007F03DFD314623
:102EC0000C2238460AF028FF97E807005EE00B6CFA
:102ED00001F13406186807C887E8070000278DF855
:102EE0000370EA6B97422DD2F368511E53F8270006
:102EF0008F420CBF0522002200684FEA8708017943
:102F0000002949D003680DF103011B689847002888
:102F100042D0B268974241D2F16851F8080001AB43
:102F200007C883E8070019469DF903202846FFF7E4
:102F30008DFFFFF789FCD5E92223121843EB01032B
:102F4000C5E92023029805F089FC0746029805F0A0
:102F500088FC421E974216DAD5E92201014320D0AF
:102F6000FFF772FCD5E92023994208BF904218D39D
:102F7000FFF76AFCD5E92223121843EB0103C5E9E8
:102F800020230023019304A810E9070084E8070028
:102F9000204604B0BDE8F0810137A2E706F1100039
:102FA000BDE79DF903100A29EDD0002799E700003D
:102FB000F0B5054685B020480BF06AFA01A829460D
:102FC000FFF772FF019C1CB91C480BF079FA30E046
:102FD000029E304605F042FC00282ADDFFF734FC53
:102FE0000746F8B1B5F874303146581CA5F874009E
:102FF000224605F1500004F063FF114900250A68DC
:10300000009223681DF905105B6820464FF0FF32DF
:1030100001359847042DF4D1FFF716FCC11B094870
:103020000BF036FA304605F01EFC20688168204619
:103030008847012005B0F0BD8B4C0200A55302006B
:10304000624C0200914C020038B5064C236833B93B
:103050002020FDF719F9054606F05AFA2560206888
:1030600038BD00BF3CC1072010B50446FFF7ECFF98
:10307000036821465B684FF0FF32984740B210BDAD
:1030800013B5002302AC04F8013DFFF7DDFF016832
:103090004FF0FF320B68214698479DF907001CBD91
:1030A00038B5054600246B68E8689C4205D250F8A4
:1030B0002400FDF7EDF80134F5E708B1FDF7EAF873
:1030C000284638BD0D4B70B5044640F8503BFFF71D
:1030D000E7FF04F1340600257068854206D2F268E5
:1030E00052F82500FDF7D4F80135F5E7206C08B15A
:1030F000FDF7D0F802492046216070BD704C0200F7
:103100003847020010B50446FFF7DCFF2046FDF704
:10311000BFF8204610BDF8B54368044699420D46F5
:1031200015D3C06889000BF055FAA668E060B700B7
:10313000AE420BD20C20FDF7A7F8E2680021016037
:10314000416001720136D0510437F1E76560F8BD86
:103150002DE9F0410446142016468846FDF794F800
:103160008021074605F083FDA36BE26B9A4205D3ED
:10317000616B04F134005918FFF7CDFFE56B206C4B
:1031800050F825300135C3F800805F601E72E5639A
:10319000BDE8F0812DE9F04100F150048AB000252E
:1031A0000646009520466249624A634B04F0B8FD2A
:1031B000009520466149624A624B04F0B1FD0095DA
:1031C00020466149614A624B04F0AAFD0095204601
:1031D0006049614A614B04F0A3FD009520466049B7
:1031E000604A614B04F09CFD009520465F49604AAF
:1031F000604B04F095FD009520465F495F4A604BA7
:1032000004F08EFD009520465E495F4A5F4B04F056
:1032100087FD009520465E495E4A5F4B04F080FDC5
:10322000009520465D495E4A5E4B04F079FD0095AD
:1032300020465D495D4A5E4B04F072FD00952046D4
:103240005C495D4A5D4B04F06BFD009520465C498E
:103250005C4A5D4B04F064FD009520465B495C4A86
:103260005C4B04F05DFD009520465B495B4A5C4B7E
:1032700004F056FD009520465A495B4A5B4B04F02A
:103280004FFD009520465A495A4A5B4B04F048FDD1
:103290000095204659495A4A5A4B04F041FD009581
:1032A00020465949594A5A4B04F03AFD00952046A8
:1032B0005849594A594B04F033FD00952046584966
:1032C000584A594B04F02CFD009520465749584A5E
:1032D000584B04F025FDFFF7B7FE4FF48063202222
:1032E0004FF41641054606F0F1F8012780462F718C
:1032F0005148FDF733F85148FDF72AF83046294682
:103300003A46FFF725FF082203A905A805F080FA31
:1033100005A84B4905F03CFD05A92A46204604F0C6
:10332000CFFD05A805F088FA40460AB0BDE8F08157
:103330004D050100F14C0200A74C020019060100E6
:10334000DE4C0200E64C0200F10E0100044D0200CA
:10335000F64C02003D0601004C4D02000B4D0200F0
:1033600081070100514D0200554D02000107010087
:10337000F44D0200B14D0200890B0100F34D020033
:10338000F74D020061080100424E0200454E020066
:10339000090A0100734E0200794E0200810A010001
:1033A0009E4E0200A14E0200DD0A0100AE6702003F
:1033B000CE4E0200450A0100F34E0200F64E020016
:1033C000C90D0100194F02001D4F0200C10C010080
:1033D000C44F0200CC4F0200F51101000F50020053
:1033E0001650020029120100295002002D5002003F
:1033F000750D01006350020069500200891A010036
:10340000D549020091500200B1100100BB500200EA
:10341000C2500200A9110100E4500200E95002006C
:1034200029130100ED510200F9500200951201002C
:10343000D53D0200B6510200813001006930010023
:103440002447020073B500244FF480520B460094C9
:103450001849064605F0B0F9174B0425336075632B
:10346000B463F463346406F134000221FFF753FEC1
:1034700035657465B465F46506F150001821FEF7F2
:10348000E1FAA6F87440A6F87640B4670B4C002227
:1034900000230025012086F87000C6E92023C6E934
:1034A0002245FFF7D1F9001941EB0501C6E92001DA
:1034B00030467CBDF2510200704C0200C0D40100C5
:1034C0002DE9F041804690B046480AF0F9FF04A883
:1034D000D8F84810FEF78EFBBDF9100009F0BAF8D5
:1034E0000022414B09F01CF90022404B09F042FA3E
:1034F00004460D4606A8D8F84810FEF77BFBBDF938
:103500001A0009F0A7F80022374B09F009F9002248
:10351000364B09F02FFA06460F4608A8D8F848108F
:10352000FEF768FBBDF92400CDE9006709F092F8C9
:1035300000222D4B09F0F4F800222C4B09F01AFA66
:1035400022462B46CDE9020129480AF0A1FF0AA82C
:10355000D8F84C10FEF763FB0CA8D8F84C10BDF956
:103560002860FEF75CFBBDF932700EA8D8F84C104D
:10357000FEF755FB3A46BDF93C3031461D480AF08E
:1035800087FF4046FEF7CCFF006809F075F8024659
:103590000B4619480AF07CFF4046FEF7C1FF406821
:1035A00009F06AF802460B4614480AF071FF4046DB
:1035B000FEF7B6FF806809F05FF802460B46104838
:1035C0000AF066FF4046FEF7ABFFC06809F054F80A
:1035D00002460B460B480AF05BFF4FF4FA7007F007
:1035E000ABF971E75F4802000000104000408F40D7
:1035F0001752020039520200535202006652020072
:10360000795202008C520200F0B5702085B0FCF7B0
:103610003BFE002522494FF48052022300950446C8
:1036200005F0CAF81F4B78202360676BFCF72CFE6F
:1036300002234FF480521C490095064605F0BCF861
:103640001A48776430609020FCF71EFE012107467F
:10365000FFF7F8FE384605F071F8204605F06EF8E1
:10366000304605F06BF812490127234601914FF4CB
:1036700080520097029503950E490F4806F014FFFB
:103680002946384605F06AF822682046536898476C
:1036900030684168304688474FF0FF3005B0F0BDD4
:1036A000D753020010480200E8530200F04702001E
:1036B00098C10720FB530200C134010038B5074C04
:1036C000236833B91C20FCF7DFFD054605F0EAFC52
:1036D000256022680248026038BD00BF4CC1072047
:1036E0009CC1072030B500238B420DD044783CB1FB
:1036F000048C4FF6FF751419AC4228BF2C46048485
:103700000133DBB22430EFE730BD000037B50E499E
:10371000002302A84A6840F8043D042190470B4B5F
:1037200005461C6801980421041B186022460848BD
:10373000FFF7D8FF022107482246FFF7D3FF281CD6
:1037400018BF01203EBD00BFA0C1072088C20720CE
:10375000B4C107208DC2072008B50B4B01781A7839
:103760000A4B914203D119880131198002E09988EE
:10377000013199808270064A2021D3689847003031
:1037800018BF012008BD00BF05C007205CC207208C
:10379000A0C107200A4B027819780A4B8A4203D14C
:1037A000DA88511CD98002E01A89511C19810379E9
:1037B000C3F3C202511E61F3C5030371FFF7CCBF0F
:1037C00005C007205CC2072010B50023064A9900F7
:1037D00012F82340844201D1501810BD0133042B4C
:1037E000F4D1002010BD00BF77C2072070B1C378AC
:1037F000591CCAB2FF2AC27008D100230448C2185B
:10380000D17804334808102BD070F7D1704700BF2F
:1038100077C20720F0B503460246044600258D42D4
:1038200007D02046243414F8236CC6B10135EDB21C
:10383000F5E7002004468C4210D01579178CC5F3AB
:10384000C20547EA0545A842164624BF05461E465E
:103850000134E4B2243228463346ECE71846F0BD82
:1038600038B501310446CD00FFF750FF1B4B2078DF
:103870001A78824204D102211948FFF7CBFF0CE0ED
:1038800004211848FFF7C6FFE17831B990F82350BA
:1038900045F0800380F82330042590F8231000229F
:1038A00021F07F0380F8225043EA152580F820207C
:1038B00080F8212080F823502346024604F120019D
:1038C00053F8044B8B4242F8044BF9D1064A037972
:1038D000117861F3C503037138BD00BF05C007202F
:1038E0008DC20720B4C1072004C0072010B5FFF720
:1038F0006BFF044608BBFFF767FF0446E8B9104AB0
:10390000D378D179994202D20B46111D00E01146BD
:10391000D07AD47B984238BF0A490B4A38BF034655
:103920009C422CBF0C4614462046002104220AF07B
:10393000F3F9064BD97A481CD872204610BD00BF57
:1039400077C207207FC2072083C207205CC20720FE
:103950002DE9F041054690460C460027474500F00A
:10396000BE8094F8233003F08000C1B269B3BDB1CA
:103970002B786278934203D16878217888421ED0F0
:10398000E87868B16978914208D122789A4205D1E5
:10399000A879A179421A5342534100E0002373B938
:1039A00094F8232094F82210208C02F07F0341EA3F
:1039B00003218842C0F28F802046FFF7CDFE2046CB
:1039C000002124220AF0A8F985E06378002B00F09A
:1039D0008280002D3DD02A7902F0C000C0281AD183
:1039E0006A782178914202D128789842E7D0E0782D
:1039F000A978884210D1934209D120782A78904240
:103A000005D1A079AA79811A4842414100E00021FC
:103A10000029D4D100E0E0B1A978E278914218D130
:103A20006878984209D121782A78914205D1A17904
:103A3000AA79881A4142484100E0002048B1227921
:103A4000002161F3C50284F8201084F8211022714E
:103A500041E094F8232094F82200218C02F07F02A8
:103A600040EA0220814236DB21790026C1F3C202FE
:103A700084F8206084F82160D6B21EB12046FFF79A
:103A800089FE28E001F0C000C02818D01549207830
:103A90000978884213D1E078984210D078B16379E0
:103AA000E270032262F3071363712046FFF772FE90
:103AB0000D482179037863F3C501217100E00126E7
:103AC0006078FFF781FE18B1002104220AF024F982
:103AD000002E7FF474AF0137FFB224343EE7BDE817
:103AE000F08100BF05C0072004C00720431ED9B2E3
:103AF000FD2903D8024A107001207047002070474A
:103B000005C00720014B1878704700BF05C007208B
:103B100007289CBF014B1870704700BF04C00720E6
:103B20002DE9F7430446914698469DF828600D46D6
:103B3000002958D02F4B1F78B94254D0B8F10F0F3D
:103B400051D8002851D0202200210AF0E5F8FF2D9D
:103B5000207914BF09F00302002262F387100321C9
:103B600061F30200244B20711A78277062F3C500BC
:103B700020712248A77001780BAF4B1CDAB202709B
:103B8000A271657001970EB9012613E00198013EFC
:103B900003464268E07953F8081B8718FFB2182FD4
:103BA0000193F6B205D8083020180AF092F8E771B0
:103BB000E9E70026124F012128463970FFF704FE7D
:103BC0000546FFF713FE00223A70637925B968F3C2
:103BD00007136371E57009E0A87860F30713637158
:103BE0006978E17002E0002600E006463046BDE854
:103BF000FE8300BF05C0072004C007206AC207205B
:103C000068C20720164B70B501261E70044608B91D
:103C100000251FE0FFF7A0FD05460028F8D0207919
:103C200000F0C001402903D0B1F180025642564154
:103C3000C02906D1E3782BB16078C31A18BF0123DD
:103C400000E000230EB9DB0704D56179204609099D
:103C5000FFF706FE024B00221A70284670BD00BF17
:103C600068C2072082B0F0B51746421E0446D0B2A3
:103C70008DB0FD280D46139301D900205AE0002B8A
:103C8000FBD0159B002BF8D017990029F5D0169A78
:103C9000002AF2D014980028EFD0002148222848AA
:103CA0000AF03AF80021902226480AF035F800215F
:103CB000102225480AF030F8244E00210C22244816
:103CC0000AF02AF800210C2222480AF025F8347064
:103CD000214C224E2570344613AD0FCD0FC42B68F6
:103CE000002118221E4823600AF016F839461722D0
:103CF0001B480AF01EFF0020B268014690470028CA
:103D0000BBD09DF8601011B9FFF700FD12E0154817
:103D10000622012301900292009304A8FF210022B1
:103D2000FFF7FEFE0028A8D004A8FFF76BFF0028CD
:103D3000A3D0E9E70DB0BDE8F04002B0704700BF86
:103D40008DC20720B4C1072077C2072005C0072015
:103D50006BC207205CC2072069C20720A0C10720F0
:103D600044C207200554020070B5182B8CB00646DB
:103D70000D4617D81C1C18BF0124002A14BF214669
:103D800084F0010171B101920293009404A83146BC
:103D90002A469DF84030FFF7C3FE18B104A8FFF78C
:103DA00031FF00E000200CB070BD13B50446107860
:103DB00052790B461109009122460321FFF7D4FFE7
:103DC0001CBD000030B500231A4608499C0011F8BC
:103DD00023502DB1904201D1081930BD0132D2B229
:103DE0000133042BF1D1002030BD00BF77C2072082
:103DF00000231846044A995C09B10130C0B204336B
:103E0000102BF7D1704700BF77C207202DE9F04192
:103E100088B068460021202209F07EFFA14B1C7863
:103E2000002C40F03B81A048202102696846904761
:103E3000002800F087809D4D69884B1C6B80FFF740
:103E4000D7FFA8729DF8042002F00700032804D0D1
:103E500097490A7842F0010009E0964D9DF802105A
:103E60002D78A94205D192490B7843F002000870E1
:103E7000E6E0C2F3C2019DF800709DF806005FFA0B
:103E800081FE032262438C4EB318B65CBE420AD157
:103E90005A78824207D19A789970B2EB0E0618BF11
:103EA0000126012417E00134042CEAD1834C236855
:103EB00099708149587001F1090083421F7040F0E8
:103EC000CC8021609DF800009DF80220824240F0E5
:103ED000C780002426469DF80200FFF707FD9DF8E5
:103EE0000210002C08BF012601709DF8022000215D
:103EF00042708170F6B2FFF779FC1EB39DF80000A6
:103F0000A84200F09C809DF80160FF2E1CD16648FD
:103F1000202103686846984720B9654C227842F012
:103F2000040121709DF8053003F00F04601C1A464F
:103F300060F30302B4EB131F8DF8052002DA684624
:103F4000FFF70AFC00247BE0B5422CD16CB99DF848
:103F5000070050B1544B68461A682021904720B999
:103F6000534C217841F0040020709DF8043003F098
:103F7000C002402A12D19DF8071011B950481821EB
:103F800008E04A480C216A46FFF70FFF002856D187
:103F9000002001466A46FFF708FF50E09DF8034005
:103FA000002C4CD1F4E7474C2378002BCAD09DF865
:103FB000054004F00F082709B845C3DA3046FFF77B
:103FC00003FC9DF8032008F1010868F303049542FF
:103FD0008DF805401DD19DF8045005F0C004402C1B
:103FE00005D0B4F180014B4253EB010200E0012205
:103FF00008B1457800E00546C02C05D1AE4203D09B
:104000002C1C18BF012400E0002444EA020530B94A
:104010000AE0A2B910B9684639460EE01546417863
:104020008DF80310847802E08DF80300044668469A
:10403000FFF792FB1DB168462146FFF711FC6C4665
:10404000FFF764FB204604221F49FFF781FC20464E
:104050001E490222FFF77CFC20E0DE1C266031E7CF
:1040600085423FF436AFFFF741FC0446FFF7BEFB45
:1040700023783BB19DF80510A67801F00F00B042FF
:104080003FF727AF9DF8002022709DF80230637043
:104090009DF80510C1F30300A0701AE708B0BDE851
:1040A000F08100BF68C20720A0C107205CC20720C2
:1040B0008CC2072005C007206BC2072000C0072064
:1040C00044C2072069C20720B4C107208DC207205F
:1040D00000231846094AD1184A780AB10130C0B203
:1040E0002433902BF6D1064B597809B1421CD0B23B
:1040F00093F825300BB10130C0B27047B4C107202E
:104100008DC2072008B5FFF75FFB054B20B1807813
:104110001978421CD00001E019781820484308BDE6
:1041200004C00720034A1168016051689268416029
:10413000826070475CC2072030B5404C4FF4803538
:10414000E5613F4CA060E068C006FCD43C48806854
:10415000C0B2002B6CD00B46002A5CD0384C93F9CF
:104160000050072AA56030DD93F90150083AA56098
:1041700093F90250A56093F90350A56093F9045098
:10418000A56093F90550A56093F90650A56093F9D1
:1041900007500833A5602A4CA5696D07FBD5A568B3
:1041A0000D70A5684D70A5688D70A468CC70244C06
:1041B000E568ED06FBD4A5680D71A5684D71A5688D
:1041C0008D71A468CC710831C6E7032A18DD93F914
:1041D0000150043AA56093F90250A56093F9035089
:1041E0000433A560164CE568ED06FBD4A5680D7098
:1041F000A5684D70A5688D70A468CC700431ABE7DC
:104200000133013AE56815F0100FFBD10C4CA4689E
:1042100001F8014BA0E7094B4FF480329A6140B29C
:1042200030BDE56815F0100FFBD1054C0133A468D3
:104230009342F0DACD56024CA560F2E700C00920A7
:104240000080084007B5002302A9012201F8013DC2
:1042500000F01F001346FFF76FFF9DF907000EBD2A
:1042600007B502AB03F8011D00F01F00194601223B
:10427000002340F02000FFF75FFF0EBD08B51720B8
:10428000FFF7E0FFC0F3001008BD07207021FFF723
:10429000E7BF03460A466FF05F0019460023FFF7A9
:1042A0004BBF08B50020FFF7CDFF20F0010149B258
:1042B0000020BDE80840FFF7D3BF0000024B4FF0DD
:1042C0008072DA61704700BF20C0092008B5002065
:1042D000FFF7B8FF40F0010149B20020FFF7C0FF2F
:1042E000024B4FF080729A6108BD00BF20C00920C8
:1042F00007202021FFF7B4BF00216FF01E000A46FF
:104300000B46FFF719BF000037B505460C46FFF70F
:10431000F3FF28462146FFF7BCFF0D4B4FF080729C
:1043200000209A61ADF80600BDF806104A1C93B251
:10433000ADF8063033B906494FF08070C861FFF719
:10434000DBFF3EBDFFF79AFF0028EDD0F3E700BF8B
:1043500020C0092008B51720FFF774FF00F0010006
:1043600080F0010008BD07204021FFF779BF08B5A4
:1043700003460A46612019460123FFF7DDFEC0F31C
:10438000420008BD00216FF01D000A460B46FFF7F2
:10439000D3BE70B5044600200D461646FFF752FF07
:1043A00014B100F0BF0102E040F04000C1B215B10D
:1043B00001F0DF0201E041F0200216B102F0EF034C
:1043C00001E042F01003002059B2BDE87040FFF751
:1043D00047BF10B504460020FFF734FF14B900F0C2
:1043E000F7020DE0012C04D100F0FB0040F00802C0
:1043F00006E0022C14BF40F0080140F00C01CAB2E4
:10440000002051B2BDE81040FFF72ABF08B50020D8
:10441000FFF718FF40F0020149B20020BDE8084054
:10442000FFF71EBF08B50020FFF70CFF20F00201C8
:1044300049B20020BDE80840FFF712BF40F6DD1387
:10444000984206D840F66211B0F5166F38BF08469C
:1044500000E01846A0F1600251B20520FFF700BF4E
:1044600010B504460620FFF7EDFEFA2C00F0D70148
:1044700002D141F0200104E0B4F5FA6F08BF41F029
:104480000801062049B2BDE81040FFF7E9BE10B5AB
:1044900004460620FFF7D6FE032C34BF2146032135
:1044A00000F0F90040EA410251B20620BDE8104098
:1044B000FFF7D6BEF9284FF0FA0305D9B0F57A6FA9
:1044C00028BF4FF47A6000E01846B0FBF3F0421EBC
:1044D000D3B20F2928BF0F2141EA0311042049B2AA
:1044E000FFF7BEBE1130C0B2162806D8202928BF5B
:1044F000202140B249B2FFF7B3BE7047032804D071
:1045000004280CBF0221032100E001210320FFF752
:10451000A7BE03460A46302019460023FFF70CBE0B
:1045200003460A462A2019460023FFF705BE00006D
:1045300073B504460E461546FFF724FFFFF7DCFE71
:104540002A4B4FF08072DA61FFF76CFF00210A46B8
:104550000120FFF71EFFFFF798FE0220FFF739FF4B
:104560003046FFF76BFF2846FFF77AFF0320FFF77F
:104570008EFF02200321FFF773FE01200021FFF7C9
:104580006FFE03214FF4FA70FFF794FF00202146DD
:10459000FFF7A8FF12200021FFF762FE1320002181
:1045A000FFF75EFE14200021FFF75AFE15200021C0
:1045B000FFF756FE16200021FFF752FE0C4908684F
:1045C0000A79009005208DF80420FFF797FF6846D0
:1045D0000521FFF79EFF68460521FFF7A1FFFFF7C2
:1045E00015FF4FF4FA6004F0EEFB7CBD20C00920FB
:1045F0000C540200042938B5054603D1041C18BF29
:10460000012400E00024FEF71FF904B128602046D1
:1046100038BD000007B5084B002102AA186842F80F
:10462000041D0B4605F0A6FD019818B103494FF093
:1046300080520A600EBD00BFE0C2072004ED00E01A
:1046400070B500238AB001930646007901AA00F0F4
:10465000C001C0290CBF0F490F4900230D68314626
:10466000284605F087FD044658B9224602A9284687
:1046700005F03AFE23462846314601AA05F07AFDA8
:104680000446019A1AB1054B4FF08050186020463D
:104690000AB070BDD8C20720DCC2072004ED00E0DC
:1046A00010B5194C226822B90320202105F099FC8D
:1046B0002060164C226822B90120202105F091FCCF
:1046C0002060134C216821B90120032205F089FCE8
:1046D0002060202040F6C3114FF4FA62FFF728FF54
:1046E000FFF7F4FD162001210A4A04F09FFC064B57
:1046F000186838B10548006820B105490A68101CDF
:1047000018BF012010BD00BFDCC20720D8C207209F
:10471000E0C20720154601002DE9F34180460F460F
:10472000164606F0D5FA022807D1324640463946E9
:10473000002305F058FDC6B213E000230193FEF7F5
:1047400083F8841941F100054046394601AA05F075
:10475000CBFDC6B22EB9FEF777F88D4208BF844272
:10476000F2D270B2BDE8FC8137B504460D46FFF7C2
:10477000C9F9237883420AD0E07840B909F0EAFE0B
:1047800000F00301481CBD22504304F01CFBFFF75E
:1047900095FDFFF786FD2046A9B2FFF7B5FDFFF7AF
:1047A000A7FDFFF793FD06F093FA02280ED1084B00
:1047B000002102AA186842F8041D0B4605F0DAFC35
:1047C000019818B1034A4FF08051116001203EBD9D
:1047D000E0C2072004ED00E038B504460D46FFF7BF
:1047E000B9FD48B1A9B22046FFF7C1FDFFF7B2FD00
:1047F00008B9FFF7B8FD012038BD000000B50C4B2B
:104800000C488DB00C490D4A09930B900CAB00205D
:1048100043F8102D0A9104900FCB8DE80F00084B40
:104820006A200121074AFFF71DFA0DB000BD00BF45
:10483000A1460100D947010069470100F545010083
:1048400041460100115402000A4603490346086824
:104850001946FFF761BF00BFDCC207200A460349C3
:10486000034608681946FFF757BF00BFD8C20720A4
:1048700008B506F02DFA0F4B0228586912D14202F2
:104880000CD5FFF725FC0C4900280CBF4FF0FF3278
:104890000122086800210B4605F0A5FCBDE8084090
:1048A000FFF7B4BA4302F9D5FFF712FC0028F5D19F
:1048B00008BD00BF00C00920E0C2072010B506F007
:1048C0000BFB0C4B1A6822F0E06020F0FF0119602E
:1048D0001C6844F004021A60186840F08071196086
:1048E0005C68002CFCDA034B5C6806F007FBC4F341
:1048F0000B1010BD0040034030B504464DB20068B7
:1049000094F9041053B22A46BDE8304004F0B0BF19
:104910001FB5002204AB90F9044023F8042D4AB2DD
:10492000022100910068214604F0ADFF9DF90C00C2
:104930009DF80D3082B243EA022188B204B010BD66
:1049400010B52A2104461922FFF7D6FF0D22206850
:1049500094F9041004F09BFFB0F12A035842584127
:1049600010BD0000234910B50A680B4612F0100272
:104970000ED08868C83088611F490A881F2A05D868
:10498000DC6A1E4840F8224001320A8010202EE0E6
:104990000B68D9072CD518480088012822D9174B55
:1049A000411E04338A4207DA53F8041C1C680132A2
:1049B000611A43F8041CF3E7104A002350681A46B2
:1049C00000EB50008B420BDA0C4C54F8234084422D
:1049D00003D9012404FA03F4224301339BB2F1E723
:1049E00007490A60044B00221A80024B012018601C
:1049F00010BD00BF00800040E8C20720ECC20720C5
:104A0000E4C2072070B50220144C012106F05AFCC4
:104A1000012501210220002606F06CFC6560266756
:104A200006F0E0FD42F21073B0FBF3F0E060A16A23
:104A300021F00702A262A36A43F00600A062A66109
:104A40006169074B29436161DA68042142F0300053
:104A5000D860044B2846196070BD00BF008000403C
:104A600000C0024000E100E0044A08B501F07F0305
:104A70004171D25C0321FFF73FFF08BD16540200CD
:104A8000044A08B501F07F038171D25C0221FFF76F
:104A900033FF08BD16540200642370B591FBF3F494
:104AA00004FB13110A224CB294FBF2F602FB1643EC
:104AB00003F1300149B20546FFF7E2FF092C02DCA1
:104AC0002846202103E006F13002284651B2BDE815
:104AD0007040FFF7C9BF38B5044694F90410006868
:104AE00004F0E2FE054688B1204606210022FFF7C9
:104AF00003FF204607210022FFF7FEFE20462E215D
:104B0000FFF7B2FF20462E21FFF7BAFF284638BD37
:104B100001207047124B01F00F0140F21312017097
:104B20009A610178CA0701D50122DA61037803F09E
:104B30000201CAB212B10A4B0221D961027802F015
:104B40000401CBB213B106491022CA61007800F00B
:104B50000803DAB21AB102484FF48071C16170479C
:104B600020C0092001207047FFF7A8BE0120704730
:104B7000044B5969C1F38130C1F3412242EA8000FC
:104B8000704700BF20C0092010B5012104468122D2
:104B9000FFF7B2FE0122206894F9041004F077FEBA
:104BA00010F0600F0CBF0020012010BD38B50021AF
:104BB0000446FFF7ADFE0121812285B22046FFF7B2
:104BC0009BFE102328B290FBF3F008F06DF94FF034
:104BD000765108F0BDF9A16808F0B2F838BD0000C0
:104BE00008B5FFF7E3FF054908F0B2F9044908F0FA
:104BF00063FA4FF0844108F0A3F808BD00001041AB
:104C00000000A0402DE9F04F0546ADF5177D0C469C
:104C1000914602A8294601229A4602F081F883466D
:104C2000002853D10CA821460A2202F079F88346C5
:104C300008B102A837E0009001900646074680467A
:104C4000FDF702FE16A904464FF4007202A86B4657
:104C500002F032F98346A8B9009A9AB1FDF7F4FD43
:104C6000B8EB040268EB080300EB0208FDF7ECFD6B
:104C7000009A04460D460CA816A901AB02F0C2F931
:104C8000834698B1B9F1000F01D0C9F80080BAF19C
:104C9000000F01D0CAF80070A09901B10E6002A8FF
:104CA00002F0B4FA0CA802F0B1FA0FE001990098F2
:104CB0008142E7D1FDF7C8FD4FF0FF321440C7191C
:104CC0003F1B009C00231D403619B9E758460DF5DF
:104CD000177DBDE8F08FF0B504468DB00F4616463F
:104CE00021461D4602A800230122019302F018F874
:104CF000044670B91DB102A8294602F09FFA02A825
:104D00003946324601AB02F0D7F8044602A802F059
:104D10007DFA20460DB0F0BDF0B504468DB00F46CB
:104D2000164621461D4602A800230A22019301F0DF
:104D3000F7FF044670B91DB102A8294602F07EFAB9
:104D400002A83946324601AB02F05CF9044602A8DB
:104D500002F05CFA20460DB0F0BDF0B504468DB00F
:104D60000F46164621461D4602A800231222019333
:104D700001F0D6FF044680B902A80DB1294600E033
:104D8000059902F05BFA02A83946324601AB02F0FF
:104D900039F9044602A802F039FA20460DB0F0BDF8
:104DA0007F2816D931B1FF2812D80A49803831F846
:104DB00010007047074A8BB232F81120824203D0AC
:104DC00001318029F6D10B4603F18000C0B2704753
:104DD00000207047765602000023064A32F813106E
:104DE00031B1884201D00133F7E7034830F81300AE
:104DF000704700BF765702009654020010B501209C
:104E00000C4605F090F92060003018BF012010BD5D
:104E10000120704710B5044605F05AFF02280AD158
:104E200000210B46204640F6B83205F0DCF9431E5F
:104E30005842584110BD012010BD10B5044605F080
:104E400047FF022807D1002120460A460B46BDE84D
:104E5000104005F0F7B810BD10B5044604F004FB8F
:104E600024B1012C06D100F05BFB01E000F0F8FC5E
:104E7000044600E0042404F00BFB204610BD20B1E2
:104E8000012801D100F044BB04207047F8B5044666
:104E90000F4616461D4604F0E7FA3CB1012C0CD132
:104EA000384631462A4600F0E3FA04E038463146F7
:104EB0002A4600F019FD044600E0042404F0E8FA54
:104EC0002046F8BDF8B504460F4616461D4604F0C8
:104ED000CBFA3CB1012C0CD1384631462A4600F0C1
:104EE00067FA04E0384631462A4600F019FD0446C8
:104EF00000E0042404F0CCFA2046F8BD70B5044666
:104F00000E46154604F0B0FA34B1012C0AD13046F1
:104F1000294600F027F903E03046294600F01AFD43
:104F2000044600E0042404F0B3FA204670BD0000FB
:104F300010B5044606F056FB074BB0FBF3F1022315
:104F4000B1FBF3F2944202D30448036110BDB3F500
:104F5000807FF9D00233F3E740420F0000000340A6
:104F6000044B9860DA68D206FCD40248816848B2E3
:104F7000704700BF0000034038B5FDF765FC00F541
:104F8000FA754FF0FF30FFF7EBFF4FF0FF30FFF700
:104F9000E7FFC4B2FF2C07D0FDF756FC2A460023DA
:104FA000994208BF9042F0D3204638BD38B5064C30
:104FB0004FF00075E561FFF7DFFF044BA5611A783C
:104FC00042F00100187038BD20C0092006C007203B
:104FD00070B505460E46FDF737FC00F164044FF04E
:104FE000FF30FFF7BDFFC0B2FF2809D1FDF72CFC51
:104FF00022460023994208BF9042F0D3002070BDA2
:10500000FE28FBD1102E06D928464FF4007100224D
:1050100004F0C8F918E02C464FF0FF30FFF7A0FF6E
:1050200020704FF0FF30FFF79BFF60704FF0FF30B4
:10503000FFF796FFA0704FF0FF30FFF791FFAB191D
:10504000E0700434A342E7D14FF0FF30FFF788FF50
:105050004FF0FF30FFF784FF012070BD38B50546E3
:105060000C46FFF789FFFF281ED160B2FFF778FFDB
:10507000FD2C1BD04FF400714FF0FF32284604F096
:1050800091F94FF0FF30FFF76BFF4FF0FF30FFF764
:1050900067FF4FF0FF30FFF763FF00F01F00411F75
:1050A0004A4252EB010038BD002038BD012038BD16
:1050B00038B5044620060D4607D577200021FFF7B6
:1050C000F7FF01283BD804F07F041D4B4FF000721E
:1050D0009A61DA61FFF750FFFF282FD160B2FFF726
:1050E0003FFF2816FFF73CFF45F30740FFF738FF67
:1050F00045F30720FFF734FF68B2FFF731FF402C7C
:1051000004D0482C0CBF8720012000E0952040B23D
:10511000FFF726FF4C2C03D14FF0FF30FFF720FFA5
:105120000A244FF0FF30FFF71BFF01460029C0B2F1
:1051300005DA013C14F0FF04F3D138BDFF2038BD7F
:1051400020C00920054A064913784869410154BF27
:1051500003F0FD0343F003031370704706C00720FC
:1051600020C009207FB505460C46FFF7EBFF052D53
:1051700018D12178012900F00F810AD3022940F0CB
:1051800009818848426982F08063C3F3806161705D
:1051900002E1844C606910F0806440F0FD80FFF70C
:1051A00005FFF9E0804B1878C00700F1F7800E2D5D
:1051B00000F2EA80DFE815F00F00190054005800F3
:1051C000E800E800E800E800E800E800B200B70006
:1051D000B900C300D40073484FF00071C161FFF7FC
:1051E000CBFEFF3818BF0120CFE049200021FFF798
:1051F0005FFF054608B10120C7E068461021FFF7B0
:10520000E7FE0028F7D09DF800109DF808308A09C5
:10521000012A07D19DF80910481C00EB03239AB21C
:10522000930246E09DF80700810001EB93129DF880
:105230000630501C9DF8052003F0030100EB81238C
:1052400002F00F009DF80A109DF8092000EBD11024
:1052500002F0030100EB4100C21F03FA02F328E051
:105260004FF4007020805CE0504D2B7803F0040078
:10527000C1B209B3CD200021FFF71AFF0028BAD12F
:105280004FF0FF30FFF76CFE68461021FFF7A0FEDD
:105290000028B0D030254FF0FF30013DFFF760FE11
:1052A00015F0FF05F7D19DF80A001022010902FA56
:1052B00001F32360284668E04920FFF7F9FE06461F
:1052C000002898D168461021FFF782FE002892D06E
:1052D000297801F00202D0B29DF80A1080B101F0E5
:1052E0003F009DF80B10CA099DF80D1002EB40031A
:1052F0008A09581C531E00FA03F02060304644E02F
:105300009DF80B30C1F38402511C03F003025B09CA
:1053100003EBC202531C4B43236036E023490A7857
:105320002270002031E0492000E04A200021FFF7F0
:10533000BFFE00287FF45FAF204610211DE07A20D9
:105340000021FFF7B5FE00287FF455AF05464FF06A
:10535000FF30FFF705FE60550135042DF7D1E0E77A
:10536000CD200021FFF7A4FE00287FF444AF4FF0CA
:10537000FF30FFF7F5FD20464021FFF729FED0F171
:10538000010038BF002000E00420064B4FF00072FF
:105390009A6104E0042002E0002000E0032004B051
:1053A00070BD00BF20C0092006C007206CC30720C5
:1053B00070B5144605460E46FFF7C4FE002C4AD0D1
:1053C000284B1A78D20748D4187800F00401CBB2E1
:1053D000002B44D124484FF000722449C2610B785D
:1053E00003F00802D0B200B97602012C0DD158208A
:1053F0003146FFF75DFE30BBFE212846FFF72EFE4B
:10540000D0F1010438BF00241DE013F0060F03D0D3
:10541000D7202146FFF74CFE59203146FFF748FEC2
:1054200088B92846FC21FFF719FE28B1013C14F089
:10543000FF0405F50075F4D10020FD21FFF70EFEF5
:10544000002808BF0124084B4FF00071201C99610F
:1054500018BF012070BD042070BD032070BD022064
:1054600070BD00BF06C0072020C009206CC3072004
:1054700070B5144605460E46FFF764FE002C3CD07E
:10548000204B1878C1073AD41F494FF000721F4BC8
:10549000CA61187800F00802D1B201B97602012C75
:1054A0000ED151203146FFF703FEF0B928464FF4E4
:1054B0000071FFF78DFDD0F1010438BF002414E026
:1054C00052203146FFF7F4FD78B928464FF40071B9
:1054D000FFF77EFD28B1013C14F0FF0405F50075CF
:1054E000F3D14C200021FFF7E3FD074B4FF0007094
:1054F0009861201C18BF012070BD042070BD0320DE
:1055000070BD00BF06C0072020C009206CC3072063
:1055100008B5FFF717FE014B187808BD06C0072035
:105520002DE9F341FFF70EFE554B1A7802F0020009
:10553000C1B2002940F0A0800120FFF7F9FC0A2445
:105540004FF0FF30013CFFF70BFD14F0FF04F7D1E3
:105550004C4B4FF000764020DE612146FFF7A8FD5E
:10556000012801D0002674E0FDF76EF94FF4D571E3
:1055700000F57A774820FFF79BFD012841D14FF0D5
:10558000FF30FFF7EDFC01AA10550134042CF6D1D1
:105590009DF806000128E5D19DF80710AA29E1D160
:1055A000FDF752F93C460025A94208BFA04206D3A8
:1055B000FDF74AF9A94208BFA042D3D207E0E9208B
:1055C0004FF08041FFF774FD0028E9D1F0E77A2021
:1055D0000021FFF76DFD0028C4D104464FF0FF30D5
:1055E000FFF7BEFC01AE30550134042CF6D19DF816
:1055F000043003F04002D0B200280CBF04260C2671
:1056000027E0E9202146FFF753FD01288CBF012642
:1056100002268CBF4FF041084FF0E908FDF714F95E
:105620003C460025A94208BFA0420BD3FDF70CF968
:10563000A94208BFA0420CD350204FF40071FFF7DD
:1056400037FD06E040460021FFF732FD0028E5D196
:10565000ECE70D490B4B4FF000720E709A6146B1AA
:105660000748017801F0FE0202701820FFF760FC85
:1056700001E0FFF79BFC024B1878BDE8FC8100BFFE
:1056800006C0072020C009206CC30720F8B51A4BBC
:1056900005461C880E46B4F5007F174602D1084621
:1056A00011460AE0B4F5807F09D10846114622462A
:1056B000A84706F5807007F58071224619E0B4F519
:1056C000047F07D122F4FF72084622F001014FF453
:1056D00000720EE0B4F5847F0CD1170A08464FF42F
:1056E00080727902A847791C06F5807049024FF450
:1056F0008072A847F8BD00BF6EC3072010B50346EF
:1057000000295CDD93F900402D4A0729946030DDC3
:1057100093F901400839946093F90240946093F939
:105720000340946093F90440946093F905409460B9
:1057300093F90640946093F9074008339460204A37
:1057400094696407FBD59468047094684470946805
:1057500084709268C2701A4AD468E406FBD49468D4
:10576000047194684471946884719268C2710830BD
:10577000C6E7032918DD93F901400439946093F9D1
:105780000240946093F90340043394600C4AD46857
:10579000E406FBD494680470946844709468847040
:1057A0009268C2700430ABE701330139D46814F059
:1057B000100FFBD1024A926800F8012BA0E710BD40
:1057C0000000034007B58DF80400080A0B0C8DF8A3
:1057D00006008DF8071001A804218DF80530FFF7A9
:1057E0008DFF0EBDF7B50D4C06464025080CE56152
:1057F0000B0A17468DF8050003228DF8071001A843
:1058000004218DF804208DF80630FFF777FF30462D
:105810003946002203F0C6FDA561FEBD00C0092087
:105820000D4B0E4840226FF02801DA618160C2689A
:10583000D106FCD4094B9B6808484FF0FF318160CA
:10584000C268D206FCD4054B98680306F4D5024A18
:1058500040219161C0B2704700C0092000000340A0
:10586000F7B5FFF7DDFF07461B481C4D81781C4C40
:10587000002340260288238001A8EE618DF80610DF
:105880000321ADF80420FFF739FF9DF805009DF8CE
:1058900006301F28AE6117D1A3F12502022A13D8C2
:1058A0001049252B0B7007F0010006D100280CBF12
:1058B0004FF484734FF4807305E000280CBF4FF45D
:1058C00004734FF400732380054A1188D1F101005D
:1058D00038BF0020FEBD00BF5659020000C009209D
:1058E0006EC3072070C307202DE9F0410646174616
:1058F0004FEA4128FFF794FF34460025C6EB080223
:10590000BD42224407DA21460448FFF7BFFE04F5F2
:1059100000740135F2E70020BDE8F081E557010091
:105920002DE9F041064617464FEA41280446002576
:10593000C6EB0802BD42224407DA21460448FFF7BD
:10594000A5FE04F500740135F2E70020BDE8F08102
:10595000415A010008B507281CD8DFE800F0040709
:10596000131719191919FFF75BFF11E00A4B187883
:105970002538C3B2032B9ABF084A52F823300023BC
:105980005B0A04E04FF40070088001E001230B6023
:10599000002008BD042008BD70C307205C59020028
:1059A00030B591B003466C4600F14005186859685F
:1059B000224603C20833AB421446F7D1064D4024B9
:1059C0009B200021EC61FFF7FDFE68462146FFF7B2
:1059D00095FEAC6111B030BD00C0092070B5074D17
:1059E0004024064600217720EC61FFF7EBFE3046AD
:1059F0002146FFF783FEAC6170BD00BF00C00920E7
:105A0000084B188830F01F000BD007490B78253B56
:105A1000D9B203299ABF054A52F821100021B1FBDF
:105A2000F0F070476EC3072070C307205C59020076
:105A3000024B1878003018BF012070476EC3072052
:105A40002DE9F7434FF0FF330D4690460193814611
:105A5000FFF7E6FEFFF7ECFF0446A0B1164E402725
:105A60001648F76101880320B1F5847F14BF4FF415
:105A700000714FF480712943FFF7A4FE01A80421AF
:105A8000FFF73CFEB7610C4E4022F26182202946AE
:105A9000FFF798FE48464146012203F083FC3CB1E3
:105AA000019B02A8591C40F8041D0421FFF726FEA3
:105AB0004020B061BDE8FE8300C009206EC307200E
:105AC000F7B5114B07461E884FF0FF30B6F5847FBF
:105AD00014BF4FF400764FF480760190FFF7A8FFD3
