:020000021000EC
:10000000004008207F0101004D010100E1000100D6
:100010003D0101002D0101001D0101000000000053
:10002000000000000000000000000000E1AE010040
:100030000D0101000000000065AF0100A1AF01004B
:10004000FD000100FD000100854A0100FD000100E6
:10005000FD00010081950100FD000100E99501000E
:1000600051960100FD000100FD000100FD000100AE
:100070000D910100FD000100FD000100FD000100E7
:10008000FD000100C9830100FD000100FD00010029
:10009000FD00010011900100FD000100FD000100C4
:1000A000FD000100658F0100FD000100FD00010061
:1000B000FD00010095B30100FD000100FD000100FD
:1000C000FD000100FD000100FD000100146A0200B6
:1000D00000C007202001000020C10720FC04000010
:1000E00004207146084200F00480EFF309800BF011
:1000F000BDB9EFF308800BF0B9B9704708B50248F5
:1001000000F0CAF9FEE700BFAA62020008B5024883
:1001100000F0C2F9FEE700BFC062020008B5024865
:1001200000F0BAF9FEE700BFD062020008B502484D
:1001300000F0B2F9FEE700BFDD62020008B5024838
:1001400000F0AAF9FEE700BFE862020008B5024825
:1001500000F0A2F9FEE700BFF362020010B5002331
:10016000934203D21C585C500433F9E710BD0023BE
:100170008B4203D200221A500433F9E7704710B5BE
:1001800014480AF0ADFF13480AF0ADFF124C134BB0
:100190009C4205D294E807000C34FFF7DFFFF6E736
:1001A0000F48844205D294E803000834FFF7DFFFCC
:1001B000F6E70DF005FD0AF0ADFF02F00BFC03F0D1
:1001C0009FFA4FF416400BF085FA064800F064F9E8
:1001D000FEE700BF00400820CC000100D80001006D
:1001E000E00001006563020008B5024800F054F920
:1001F000FEE700BF8E63020008B5024800F04CF92C
:10020000FEE700BF9963020008B5024800F044F918
:10021000FEE700BFA8630200124A30B5116803462A
:1002200011B94FF08050106010680F4DC41862195A
:100230000E4D0C49AA4297BF0D480C601A180A606F
:10024000084A0C4C1168A14202D90B4810600020EA
:100250003BB10A4A116801311160094A094910602D
:100260000B6030BD24C10720FF7FFFEFFE3F07106A
:100270001CC60720FF3F0820004008202CC1072093
:1002800028C1072020C107200DF0D8BC0DF0D6BC36
:100290000DF0DCBC0DF0DABC30B58BB0044668461E
:1002A0000EF018F9214D089B07982560A360606047
:1002B00058B91F491F4A0B6893428ABF03F1604334
:1002C00003F17043A3F5E82363606068B0F5803FF5
:1002D00004D900F17041A1F5E82363601448154B7F
:1002E000016800229942E26006D86D18C5F180537A
:1002F00003F58035E5600BE00F4A914208D80F48BE
:10030000C0F1804303F58012501A0028C8BFE06096
:10031000E1610B490B480A680B490368A2610A684E
:100320006361226120460BB030BD00BF1C06000097
:1003300024C1072000800010FF3F08201CC60720B2
:1003400028C1072020C107202CC10720FEE700009C
:10035000014B1860704700BF34C10720014B186083
:10036000704700BF30C1072008B502480EF0D4F82E
:10037000FEE700BF043A020008B502480EF0CCF8D0
:10038000FEE700BF1E3A02000020704701207047C0
:10039000084B70B518680E46154640B10024AC42B3
:1003A00005DA044930570A6890470134F7E72846D0
:1003B00070BD00BF34C10720094B70B518680E46E8
:1003C000154600B970BD0024AC4206DA0448016845
:1003D0000020884730550134F6E725EAE57070BD06
:1003E00030C107207047002070470000074B196894
:1003F0008A68824207D04B68834204D0C9680A1ACF
:100400005042504170470120704700BF7CC0072018
:10041000002070470020704730B504468DB000289A
:1004200037D0684608F016FF9DF800309DF801109F
:1004300003F03F0003909DF8040001F03F029DF897
:10044000025000F01F010492BDF806009DF805203F
:1004500005F01F03069102F00F05C0F30B018AB2ED
:100460000593BDF808106B1E07939DF80330A2F2A8
:100470006C75C1F30B0203F00700089595B26B1E73
:100480000990002503A80A930B950DF041FD84E81F
:10049000210000200DB030BD10B504460AF046FD25
:1004A000013C14F8010F18B140B20BF04FF9F8E716
:1004B000BDE810400AF04CBD38B50F4C256815F06A
:1004C000010516D120460BF0E3F990B14FF40E7000
:1004D000FFF7DAFE094B30223A2180F8345280F8D7
:1004E000352280F8361280F83752186020460BF01B
:1004F000DDF90248006838BD40C1072044C107202B
:1005000038B5104C236813F0010517D120460BF0C5
:10051000BFF998B14FF40E70FFF7B6FE012280F8D4
:100520003422094A31213A2380F8351280F83632D4
:1005300080F83752106020460BF0B8F90248006886
:1005400038BD00BF58C107205CC107202DE9F0412C
:10055000ADF50A7D0E4608F049FB041E04DD0AF0E5
:1005600073FC20460AF012FA264D05AC0FCD0FC4DD
:100570002B6810210DEB010200250AA823600495C9
:100580000AF0C0F9074604986422B0FBF2F1049126
:1005900030461D491D4A0A2309F0C8F8BD4222D041
:1005A0000AAC049B04EB4514A2690BB1B2FBF3F354
:1005B000606994F80C800090A18B029388000A2354
:1005C0000190A2FB03014FF47A7200230CF0F8FEB5
:1005D00005AB03900E493046626853F8283009F0A5
:1005E000A5F80135DAE70AF0A5F8102804D9304655
:1005F0000849102209F09AF801200DF50A7DBDE89E
:10060000F08100BF383A0200573A02007E3A0200F9
:10061000833A0200A03A020010B5ADF5007D0C4609
:1006200068460AF0C5FE204669464FF0FF3209F0E1
:1006300047F801200DF5007D10BD000030B50C46D7
:1006400091B02C49054608F0D9F9002847D008ABED
:10065000009309A80AA90BAA0CAB0190029103927E
:1006600004932846244906AA07AB08F02AF907286C
:1006700001D000203BE09DF8390006999DF8383004
:1006800061F303008DF839000899BDF83A00079A24
:1006900061F30B0062F304030A99ADF83A009DF888
:1006A0003500099A8DF838309DF8363061F3050031
:1006B00062F304038DF835000C999DF837008DF82E
:1006C00036300B9A9DF8343061F3020062F3050373
:1006D0008DF837000DA88DF8343008F0DDFD08F0F6
:1006E00075FE06490246204609F020F8012011B0A7
:1006F00030BD00BFDE500200CA3A0200F95A0200C3
:1007000030B589B004AB0024009302220D4603AB40
:1007100018490394049408F0E1F8022827D107A8A7
:10072000009005AA0398049906AB059406940794D3
:1007300004F092FA024638B1049928460091039BCE
:100740000D4908F0F3FF10E0059A069B079C002A6C
:1007500008BF0122002B08BF012328460749B4FB2C
:10076000F2F2B4FBF3F308F0E1FF012000E02046D1
:1007700009B030BDA94C0200E33A0200023B02007E
:100780002DE9F0410C46ADF5866D3049054608F07F
:10079000C2F92F490746284608F0E6F92C492846B1
:1007A00008F002FA284608F01FFA0122014601A8C3
:1007B00006F0E0FA064640B1284608F015FA254949
:1007C0000246204608F0B2FF3AE00BAD314640F257
:1007D000014228460DF0CCFA009602F0D1F880468E
:1007E00001A829464FF480626B4606F08FFB90B15A
:1007F00001A806F035FD8FB102F0C2F8B0EB080099
:1008000014BF03460123144920463246B6FBF3F3D6
:1008100008F08CFF02E0009B3BB9E9E720460F4956
:100820004FF0FF3208F04CFF0AE0F618E854002FB2
:10083000D6D1204629464FF0FF3208F02DFFCFE7F2
:1008400001200DF5866DBDE8F08100BF303B020050
:10085000A94C0200393B02004D3B0200B353020099
:10086000F0B5C1B00DAB0025009302220C460CABD5
:100870005C490B950C950D9508F030F8022803D1D2
:100880000D980DF093F805460C9808B956490C914F
:1008900016A80C9906F087FD034678B12046534907
:1008A0000C9A08F043FF9AE020AA802616A80EA909
:1008B0001492159606F0C9FD013D08B9002DF3DC30
:1008C00020464B490C9A08F031FF00252E46802027
:1008D00020AB15900EA916A8149306F0B6FD0028BB
:1008E00065D19DF94110002961D09DF8407007F055
:1008F0001002D3B213B10135442205E00B990E98D2
:1009000001360A180B922D2207F0020C17F0010F86
:1009100007F0040E5FFA8CF007F020070CBF2D23C0
:1009200052235FFA8EF100280CBF4FF02D0C4FF0D0
:10093000480CF8B200290CBF4FF02D0E4FF0530EAB
:1009400000280CBF2D214121BDF83C00029141122D
:10095000BDF83E7001F2BC718DE800500391C0F308
:100960004311049100F01F00F912C7F345170691D7
:100970000590079740A951F8C80D093108900991D1
:1009800020461C4908F0D2FE20461B494FF0FF329A
:1009900008F082FE20A920464FF0FF3208F07CFECE
:1009A000204616494FF0FF3208F08AFE8FE7009587
:1009B00040AD55F8D43D12493246204608F0B6FE07
:1009C0000C9829460AAA06F06FFD40B90A9B0B99BC
:1009D0009A7820464A430B49520808F0A7FE0120A6
:1009E00041B0F0BDA94C0200683B02006B3B020025
:1009F0008F3B0200AA3B0200D73B0200B353020028
:100A0000DB3B0200053C020070B50E46054608F0CF
:100A1000EBF80446284608F0E7F806F012FE064A0E
:100A2000064B0749002818BF13463046224608F0F7
:100A30007DFE012070BD00BFC53D0200BB3D020030
:100A4000193C020070B50E46054608F0CDF8044684
:100A5000284608F0C9F806F08BFD064A064B074900
:100A6000002818BF13463046224608F05FFE0120DA
:100A700070BD00BFC53D0200BB3D0200353C020019
:100A80007FB503AB0024009302220E4602AB0F4950
:100A90000294039407F022FF022814D1029D039CC4
:100AA0002846214606F074FE09490A4A23460028D2
:100AB00014BF104608460090074930462A4608F001
:100AC00035FE012000E0204604B070BDA94C0200B4
:100AD000BB3D0200C53D0200473C020030B58DB071
:100AE0000C46054608F080F80A22014602A806F0E6
:100AF00041F940B1284608F077F81F4902462046E0
:100B000008F014FE35E08DF8030001901B492046E3
:100B10007E2242F2107308F009FE1949204608F0BF
:100B200005FE236820461B680DF1030142F2107296
:100B3000984718B19DF903007E2803D102A806F05A
:100B40008FFB16E002A80DF10301012201AB06F0B4
:100B500083FA28B10199012902D020460949DEE72C
:100B60002268204653689DF903104FF0FF329847E2
:100B7000D7E701200DB030BD5F3C0200863C02008B
:100B8000BE3C0200DE3C02002DE9F043ADF5417DA4
:100B9000002303AD2B60029302220C4600954049CE
:100BA00002AB07F09BFE022806D020463D494FF0DD
:100BB000FF3208F085FD6EE016A8296806F0F3FB09
:100BC00018B1204638492A6807E016A8029906F0AD
:100BD000EAFB28B13549029A204608F0A7FD5AE001
:100BE00040A94FF4807204A807F03CFE09A880A930
:100BF0004FF4807207F036FE20A8802114901591E2
:100C000016A80EA906F021FC00283ED19DF941202E
:100C1000002A3AD09DF8405005F01003DDB2002DB7
:100C2000EAD10DF14106029A334604A8204908F0A2
:100C30009BF8039A33461E4909A808F095F804A8C2
:100C400007F0D2FF804609A807F0CEFF074604A8A8
:100C50000E9E07F0C9FF814609A807F0C5FF2A4686
:100C600001462B460095484603F0F6FF1149124A0B
:100C70000096002814BF1046084601900F492046F0
:100C800042463B4608F052FDB6E709A807F0FEFDD4
:100C900004A807F0FBFD01200DF5417DBDE8F083C0
:100CA000A94C0200053D02004A3D02006F3D0200D2
:100CB0008F3D0200BB3D0200C53D0200953D020094
:100CC00070B50C462149054607F08CFF064628B151
:100CD000FFF716FC002100F2352009E028461C49E8
:100CE00007F080FF50B1FFF7E7FB314600F23520F7
:100CF0000A4606F0DFFD174B17491CE02846174946
:100D000007F070FF48B1FFF7FBFB012200F235212D
:100D100005F0E0FF124B13490DE02846124907F099
:100D200061FF88B1FFF7C8FB012200F2352105F011
:100D3000D1FF0E4B0E49002808BF19464FF0FF3275
:100D4000204608F0BDFC012070BD00BF1C3E020023
:100D5000263E0200B43D0200BE3D0200333E0200CA
:100D6000CB3D0200DB3D02003C3E0200F23D0200B2
:100D7000003E020010B501200C4607F061FD38B1BD
:100D800000210A460B4609F087F92046044901E094
:100D9000044920464FF0FF3208F092FC012010BDBC
:100DA000483E02005E3E020038B5064C236833B967
:100DB0001C20FFF769FA054608F09EF925602068B7
:100DC00038BD00BF4CC107202DE9F0430C4687B069
:100DD0003C49064607F02AFE3B498046304607F06C
:100DE00025FE3A498146304607F020FE0027054699
:100DF000039704970597B8F1000F1DD0304634498A
:100E000003AA04AB07F05DFD022807D02046314954
:100E10004FF0FF3208F054FC3D464FE0FFF7C4FFAF
:100E20009DF90C109DF9102008F05BFD0499C2B2E9
:100E300000912046284924E0B9F1000F2BD005ABE2
:100E400000933046254903AA04AB07F03AFD032876
:100E500007D0204622494FF0FF3208F031FC4546CA
:100E60002CE0FFF7A1FF9DF90C109DF910209DF9D2
:100E7000143008F027FD40B104981A49059A0090F3
:100E80002046039B08F052FC17E020461649039ABF
:100E900008F04CFC11E088B10226FFF785FF71B223
:100EA00008F02CFD20B120461049324608F03EFCE7
:100EB0000236B6F5807FF0D100E00125284607B064
:100EC000BDE8F083CC4D0200783E02007E3E020079
:100ED000873E0200933E0200B43E0200D53E02006F
:100EE000E53E02000C3F02002C3F0200493F020099
:100EF0002DE9F04F5E4C93B023680E4633B92020A5
:100F0000FFF7C2F9054608F02DFB2560D4F80080F4
:100F1000FFF7D2FA002512A941F8105D00F2352042
:100F20000DAA06F0C1FA48B90D9A0E999769907802
:100F3000BC1E414344434D08670800E02F46DFF8DC
:100F40003491D9F8003063B90C20FFF79DF90446BD
:100F5000FFF72AFF9022206000202271A060C9F8CC
:100F600000404449086803F065FE04460CF0E2F9CD
:100F700083460BF0C5FF014620460BF00BFF3E49B0
:100F80000CF012F80CF0D6F90B900FA80AF0B8F894
:100F900004F078FD38B308F091FA04F05BFD00240A
:100FA0000346A146A2469C420AD020460A9304F07A
:100FB000B1FD504584BFA14682460A9B0134F2E749
:100FC00008F090FA642303FB0AF22C483B46B2FB7C
:100FD000F0F1C1F164028DE80406304628492A4642
:100FE00008F0A4FB05E0304626492A463B4608F0B7
:100FF0009DFB254C23681BB90120FFF745F92060B4
:10100000206803F0EFFD044608F0E0F99DF8412068
:101010009DF84010019001F01F0302F00F00BDF891
:10102000422003939DF83E300290C2F30B0081B240
:1010300003F01F029DF83D009DF83C30049105929D
:1010400000F03F0103F03F02079200940691B8F8C8
:1010500018005A460890B8F81A10304609910B9BB0
:101060000A4908F063FB012013B0BDE8F08F00BF10
:101070003CC1072048C1072000002041A086010094
:10108000693F02009D3F020050C10720AB3F0200B4
:1010900038B5064C236833B90420FFF7F5F8054648
:1010A00001F048FB2560206838BD00BF38C107202B
:1010B0002DE9F0418CB00C460546FFF7E9FF80466C
:1010C000284607F091FD31490246204608F02EFBE4
:1010D00028462F4907F087FC431C064605D12046C9
:1010E0002C4908F023FB00244BE03246002128461F
:1010F00007F0FBFD014602A807F07FFE02A807F0FB
:10110000D7FB074630B920462349324608F00EFB8C
:101110003C4633E02846711C07F01AFE014607A83A
:1011200007F06BFE07A807F0C3FB054610B9204681
:101130001A490CE002A807F059FD054607A807F078
:1011400058FD691E0529064605D91549204608F0AF
:10115000EDFA00240FE032464046C9B201F038FBF8
:1011600030460BF0B5FA2A46CDE9000120460D497C
:1011700008F0DCFA012407A807F088FB02A807F0B2
:1011800085FB20460CB0BDE8F08100BF1340020093
:10119000A94C0200184002002E4002005B400200F1
:1011A0007B4002009240020038B5FFF771FF002437
:1011B00005460021224601F00BFB2846012122466C
:1011C00001F006FB28460221224601F001FB012026
:1011D00038BD000038B5064C236833B91420FFF73A
:1011E00053F8054606F0C6FF2560206838BD00BFED
:1011F00054C1072008B54FF0FF320846094908F0EE
:101200005FFAFFF7E7FF06F0A7FF4FF4FA6009F077
:10121000BDFB4FF080430020AA221A7218700120F3
:1012200008BD00BFA940020073B50C46144905462D
:1012300007F0D8FC50B1FFF7CDFF06F08DFF204638
:1012400010494FF0FF3208F03BFA16E0FFF7C2FFFB
:101250000646284607F0C8FC40F2051301460A4A34
:1012600000933046094B07F05FF8284607F0BCFCB6
:1012700007490246204608F059FA01207CBD00BF0C
:10128000BA400200C0400200D94002004C3A0200BD
:101290000C41020070B58AB005460C4607F008FB09
:1012A0000B2803DD20461B490C222DE0284607F0C1
:1012B0009BFC01220146684605F05CFD0646284677
:1012C000EEB907F091FC144B0168196042681349AC
:1012D0005A608068986043F8041C039A10492046BD
:1012E00008F024FA684605F0BBFF4FF47A7009F065
:1012F0004DFB4FF08043AA221A721E7006E007F0E1
:1013000073FC08490246204608F010FA01200AB092
:1013100070BD00BF2E410200484002400DD0ADDE3E
:10132000554102009D41020070B5414EA6B03368A0
:101330000546DB070C460CD430460AF0A9FA40B14A
:101340004FF480600CF07AFC3A49086030460AF0AD
:10135000ADFA2846384907F069FB064620B300215C
:10136000802206A80CF004FD002105A80491059137
:101370000090324906AA04AB284607F0A2FA2D4A8B
:10138000049B116806A8059A13B903F0EFFC01E06D
:1013900003F00DFD2A4A2B490346002B08BF1146D6
:1013A000204608F0C3F932E02846274907F03EFB03
:1013B00000283BD0284604AA244905AB049605968C
:1013C0008DF80F6007F07DFA049D05982A18B2F594
:1013D000806F0DDD20461E494FF4806210E01548F5
:1013E0009DF80F10026851559DF90F300135F61820
:1013F000049B0598E91A814205DB164920463246CE
:1014000008F094F903E0B5F5806F02DBF5E7012001
:101410000CE02268204613680DF10F014FF4FA62C8
:1014200098470028DBD120460B49BAE726B070BDAB
:1014300064C1072060C10720C8410200CF410200FB
:10144000B2410200B6410200DF410200E641020063
:10145000F0410200244202001442020030B50C4662
:1014600087B00B49054608F061F9A17AE07A00914E
:10147000E188019002912089A188039004916288FB
:1014800023882846034908F051F907B030BD00BF52
:10149000354202006B4202001FB501A80C4602F063
:1014A000E3FE02F0D1FB01A902462046FFF7D6FF7A
:1014B000012004B010BD0000F0B58DB003AB0025D5
:1014C00000930C4617463849022202AB0295039559
:1014D00007F004FAA84239DD02980CF067FAC6B2A8
:1014E000039818B10DF00FFBC5B200E0054604A843
:1014F000002103F04BFA30B120462C494FF0FF3267
:1015000008F0DEF8F3E7003718BF0127022000904B
:1015100039463046039A2B4602F0C8FC10B92046E3
:1015200023490EE0002F3CD004A84FF47A7103F059
:1015300037FA002830D09DF81010B1422CD107E0C6
:101540001C494FF0FF3208F0BBF82AE0284629E09A
:101550009DF817200C2A04D1204606A93246FFF731
:101560007DFF2046002DEBD1134908F0DFF89DF8F0
:1015700017309D420BDA20680CA94A19436812F90A
:10158000181C20464FF0FF3298470135EFE7204600
:101590000A4908F0CBF804E020460949029A08F00D
:1015A000C5F801200DB0F0BDA94C0200894202002F
:1015B000AB420200E7420200D3420200F5490200BA
:1015C0000443020038B50D4607F010FB0446C0B2D4
:1015D00002F02EFB054A064B0649002808BF1346B9
:1015E0002846224608F0A2F8012038BD2A4302000E
:1015F000BB3D02003143020030B58BB00AAA4FF464
:101600007A730C4642F8243D174907F05AF9002531
:1016100002A8019903F0BAF9E0B1204613499DF8F8
:10162000082008F083F800259DF80F0085420BDAAA
:1016300023680AA94A1912F9181C5B6820464FF062
:10164000FF3298470135EFE72046094908F06EF868
:101650000125DDE72DB9204606494FF0FF3208F09D
:101660002FF801200BB030BDED41020048430200CD
:10167000B25302005F43020037B50C4602F05AFC39
:1016800016490546204608F051F8154920462A46D5
:1016900008F04CF82046114908F048F8DDB111492E
:1016A000204608F043F820460C4908F03FF8002097
:1016B000451CEDB202F028FC48B1817802784378ED
:1016C00000912046084908F031F82846F0E7204606
:1016D000024908F02BF801203EBD00BF7043020014
:1016E0008B430200A5430200C043020038B5064CFC
:1016F000236833B94C20FEF7C7FD054607F08AFD85
:101700002560206838BD00BF68C107202DE9F04F73
:10171000ADF5757D8022044634AF894614A80021BA
:101720000CF026FB0021802238460CF021FB03AE92
:101730000023336020460096714914AA3B4607F007
:10174000C0F8032801D00020D5E00AA814A901227E
:1017500005F010FB05460028F5D1FFF7C7FF04464A
:10176000306854A984F84700802205A88DF80B50F2
:10177000049507F077F800974846624914AA336841
:1017800007F0D4FFA8460AA874A94FF4007204AB6E
:1017900005F0BCFB38B10AA805F062FD05A807F00A
:1017A00075F80120A7E004990029F4D06F1C564970
:1017B000049A204607F0BAFF226820469668B04790
:1017C00000267D1EB246049B20689E420DD20DF578
:1017D000E87B1BF9061043684FF0FF32204698471C
:1017E00016F90B1001368A44EDE7816820468847D8
:1017F00005A807F0F9F9064605A807F05CF84FF4CC
:101800007A7302463146204607F068FF0121202204
:1018100005A807F094F905A807F0E8F950451FD08E
:1018200005A807F0E3F9394903465246484607F050
:101830007DFF3749204607F079FF20688168204600
:1018400088472268204613680DF10B014FF47A7225
:1018500098470028F5D1781C022F9CD80746A6E7A8
:10186000049A2C490092434634AA204607F05EFFB2
:1018700026682046B368984705A807F0B5F90646DC
:1018800005A807F018F8314602464FF47A7320464F
:1018900007F024FF05A8204907F09EF8D0B905A855
:1018A00007F0A2F91D490246484607F03FFF1849D4
:1018B000204607F03BFF216820468A68904723684E
:1018C00020461B680DF10B014FF47A7298470028EF
:1018D000F5D1C0E705A8124907F084FA0498114928
:1018E0008044424648460D9B07F020FF002D3FF400
:1018F0004AAF013D47E70DF5757DBDE8F08F00BFAC
:10190000DB430200EA4302000144020013440200E8
:10191000B25302003A440200504402005344020011
:10192000B35302008B4402002DE9F04186B006AAB1
:101930000026074642F80C6D0D463C4906F0C1FFF3
:1019400038460121202207F0FAF8039B002B63D0D0
:10195000384606F0ADFF00285ED0FFF7C7FE8DF8D1
:101960000B60044620680DF10B0106680522204635
:10197000B04706460028F5D10399384684F8471049
:1019800007F032F94FF0FF320146204607F098FE8B
:10199000226820469768B847254B05961868374651
:1019A0000490216820460B684FF47A720DF10B0108
:1019B000984770B105A8411C03220CF0BFF99DF8AF
:1019C0000B8005A804A904228DF817800CF09EF95D
:1019D00038B91821B7FBF1F301FB13726AB1013377
:1019E0000BE028684FFA88F1436801222846013746
:1019F00098470028D5D10136D3E728460D493A4605
:101A000007F094FE76B1612000900B4928463246DB
:101A10000A4B07F08BFE05E0284609494FF0FF32DC
:101A200007F04EFE012006B0BDE8F081ED41020056
:101A30003142020097440200BE4402007745020092
:101A4000B345020043682DE9F041994204460D4632
:101A500017D3C06889000CF0E9FDA668E060B70004
:101A6000AE420DD21020FEF70FFC0021102280465E
:101A70000CF07EF9E068013640F807800437EFE7A4
:101A80006560BDE8F08100002DE9F743304D074661
:101A90002C688946002C49D12420FEF7F5FB04234D
:101AA000064680E818008460C46008214FF00108F1
:101AB000FFF7C8FF86F8208030462649264A274B84
:101AC00000942E6006F056F928682549254A264BD1
:101AD000009406F04FF928682449254A254B0094C4
:101AE00006F048F928682449244A254B009406F05A
:101AF00041F928682349244A244B009406F03AF916
:101B000028682349234A244BCDF8008006F032F997
:101B100028681F49214A224B009406F02BF90094B3
:101B200028682049204A214B06F024F938462049EC
:101B300007F058F818B138461E4907F053F9044B1E
:101B4000394618684A4603B0BDE8F04306F0E2B9EA
:101B50006CC1072029190100DF450200E64502009B
:101B60000D1701002046020029460200F915010068
:101B70007D46020080460200C5150100804A020031
:101B8000A346020079160100E9460200CD46020094
:101B9000B914010032470200F0460200314702004A
:101BA0003647020099140100764702005B470200A5
:101BB000B35302007C47020037B590F90450144635
:101BC00000934AB223462946006807F086FE3EBDD0
:101BD00010B5044694F904102D220823006807F07C
:101BE00071FE206894F904103122082307F06AFE80
:101BF000012010BD10B504462246084606233221B6
:101C0000FFF7DAFF204610BD08B5034693F904102C
:101C100020220F23006807F055FE012008BD38B5CB
:101C200004460D460846224628210123FFF7C4FF3B
:101C300028462921621C0123FFF7BEFF28462A21DE
:101C4000A21C0123FFF7B8FF28462B21E21C012329
:101C5000FFF7B2FF28462C21221D0123FFF7ACFF1E
:101C600028462D21621D0123FFF7A6FF204638BD1F
:101C7000014B0360704700BF90470200012070478E
:101C80000120704701207047014B0360704700BF7F
:101C900090470200034B10B504460360FEF7F8FAC4
:101CA000204610BD90470200034B10B50446036068
:101CB000FEF7EEFA204610BD9047020070B5D0F84E
:101CC0008C5004461C4925F000400BF029FB78B1EC
:101CD00028460AF0FDFC02460B4618480CF004FCAE
:101CE000D4F8A8000AF0F4FC02460B4614481CE0A5
:101CF000D4F89060104926F000400BF011FB054627
:101D000030B130460AF0E4FC02460B460D480CE0C8
:101D1000D4F898400C4920460BF002FB48B120460D
:101D20000AF0D6FC024609480B460CF0DDFB012008
:101D300070BD284670BD00BF21B0323EE0470200B2
:101D400004480200124802000000404136480200E8
:101D500001460022D0F884008C31134608F06DBA99
:101D600038B5FFF795F9002405460121224600F019
:101D70002FFD28460021224600F02AFD2846022198
:101D80002246BDE8384000F023BD000000000000FE
:101D90002DE9F04F85B08046FFF77AF98146D8F8F3
:101DA0009C000AF095FCA4A3D3E900230AF0E4FC0C
:101DB0000022A74B0AF00AFE0022A64B0AF006FEFC
:101DC0000AF094FF0190D8F8A0000AF081FC9AA3D1
:101DD000D3E900230AF0D0FC00229D4B0AF0F6FD67
:101DE00000229C4B0AF0F2FD0AF080FF0290D8F826
:101DF000A4000AF06DFC90A3D3E900230AF0BCFC18
:101E00000022934B0AF0E2FD0022924B0AF0DEFD25
:101E10000AF06CFFD8F88C40039021468E480AF0F7
:101E2000B9FF00210BF07CFA10B14FF07E5A01E0AF
:101E3000DFF84CA2204688490AF0ACFF20F00040B1
:101E40000AF046FC7EA3D3E9002304460D460AF0BF
:101E5000E1FA064650460F460AF03AFC22462B4667
:101E60000AF08AFC324604460D463B463046394667
:101E70000AF082FC02460B4673A1D1E900010AF088
:101E8000A5FD0AF033FF0AF023FC02460B4620466C
:101E900029460AF09BFD0AF029FF704B7049186033
:101EA0008246D8F890000AF077FF002104460BF034
:101EB00037FA10B14FF07E5B01E0DFF8C4B124F0D7
:101EC00000400AF005FC5EA3D3E9002306460F4656
:101ED0000AF0A0FA044658460D460AF0F9FB3246CD
:101EE0003B460AF049FC224606460F4620462B4652
:101EF00029460AF041FC02460B4653A1D1E90001F4
:101F00000AF064FD0AF0F2FE0AF0E2FB02460B461C
:101F1000304639460AF05AFD0AF0E8FE514BD8F82F
:101F200094401860214600200AF034FF00210BF095
:101F3000F7F910B14FF07E5C01E0DFF844C124F006
:101F40000040CDF800C00AF0C3FB3DA3D3E9002355
:101F500006460F460AF05EFADDF800C00446604609
:101F60000D460AF0B5FB32463B460AF005FC224618
:101F700006460F462B46204629460AF0FDFB024640
:101F80000B4631A1D1E900010AF020FD0AF0AEFEB6
:101F90000AF09EFB02460B46304639460AF016FD13
:101FA0000AF0A4FEDFF8DCB00199CBF8000052463D
:101FB0002B4B08F1340000F08EFB2A4B06461A68C2
:101FC0000299274B08F1480000F085FBDBF8002060
:101FD0000446234B039908F15C0000F07CFB21468A
:101FE000074630460AF0D8FE1F49204D08602046BB
:101FF00031460AF0CFFE1E4A1E4B286004F1004015
:1020000010601F60D8F89810D8F8BC20144B08F165
:10201000700000F060FB2968C8F8C0000AF0BCFE40
:10202000154904460BF05EF970BB204613490BF0CE
:1020300077F950B3114C28E0182D4454FB21094086
:10204000A4703D0AD7A3C03F000000A09999B93FF2
:102050000080664000408F405839343D70C10720F1
:102060000AD7A33C88C1072074C1072078C1072084
:1020700080C1072084C107200000104100008C426D
:10208000000080BF7CC10720274C22464846012122
:1020900000F09EFB2549D8F8C00009680AF07CFED4
:1020A000214904460BF01EF930B9204620490BF0B7
:1020B00037F910B11E4C00E01B4C22464846002167
:1020C00000F086FB1B4AD8F8C00011680AF064FED5
:1020D000154904460BF006F930B9204614490BF0B7
:1020E0001FF910B1124C00E00F4C22464846022165
:1020F00000F06EFB1048114900680AF04DFE002107
:1021000004460BF0EFF830B920460D490BF008F902
:1021100010B10B4C00E0002448460321224605B0D4
:10212000BDE8F04F00F054BB0000104174C107201F
:1021300000008C4280C1072084C107200000384283
:102140000000C842AFF30080D0F8B43010B5591C7D
:102150000446C0F8B410FFF7FBFDD4F8B400B0F5A6
:10216000FA7FCCBF0020012084F88900D0B994F810
:102170008820BAB92046FFF7A1FD84F8880048B945
:10218000D4F8B43040F6C9018B4207DC2046FFF793
:10219000FFFD07E02046FFF7E3FD03E00020C4F861
:1021A000BC00F3E7012010BDF8B50546FEF770FF4F
:1021B000002614230446EB61314685F8886085F8D3
:1021C0008960C5F8B46000F0D9FA0121204600F01A
:1021D000D5FA0221204600F0D1FA0321204600F072
:1021E000CDFA104900274FF07E50C5F8B800C5F869
:1021F000BC10204631463A46C5F8C07000F0E8FAF7
:10220000204601213A4600F0E3FA204602213A46F0
:1022100000F0DEFA20460321034A00F0D9FA01203B
:10222000F8BD00BF0000C04000004842014B036001
:10223000704700BF90470200034B10B5044603608F
:10224000FEF726F8204610BD90470200000000006F
:102250002DE9F347B44D0446AB6943F40020A8616F
:102260000A2006F0DAFDE969684641F40022EA61D5
:10227000216EFFF7BFFC009EBDF80470616EA6667C
:10228000A4F86C706846FFF7CAFC009DBDF80430E6
:10229000C4F86E50A4F87230B4F96E000AF030FE43
:1022A0008246A064B4F970000AF02AFEB4F9728084
:1022B0008146E06440460AF023FE20650746B4F9F3
:1022C000680000010AF01CFEB4F86A60606531B273
:1022D00008010AF015FEB4F86C50A0652AB210018E
:1022E0000AF00EFEE06550460AF0F2F900228F4B2C
:1022F0000AF06CFB00228E4B0AF068FB86A3D3E940
:1023000000230AF039FA0AF0F1FC8A490AF04CFE7F
:102310000146A06B0AF040FDA06348460AF0D8F9D8
:102320000022824B0AF052FB0022814B0AF04EFB46
:1023300079A3D3E900230AF01FFA0AF0D7FC7D49FC
:102340000AF032FE0146E06B0AF026FDE0634046EB
:102350000AF0ACF921F0004319460022764B0AF04E
:102360009BFCC8B138460AF0B3F900226F4B0AF063
:102370002DFB00226E4B0AF029FB67A3D3E9002353
:102380000AF0FAF90AF0B2FC6A490AF00DFE0146B9
:10239000206C0AF001FD2064684F38680AF098F953
:1023A0005FA3D3E900230AF0E7F90022644B0AF0A7
:1023B0000DFB0AF09BFCD4F8A01007460AF0EAFCDB
:1023C000604920F000400AF08DFF10B1C4F8A07001
:1023D000676430B20AF06AF9064628B20F460AF07E
:1023E00065F902460B463046394609F039FD0AF0D8
:1023F0007DFC6067B4F968000AF058F90546B4F945
:102400006C000E460AF052F902460B462846314649
:1024100009F026FD0AF06AFCA0670546B4F96800D9
:102420000AF044F90746B4F96A0021F000460AF0C0
:102430003DF9844621F0004E6246734638463146E7
:1024400009F0E8FF0646B4F96C000F460AF02EF9D1
:10245000024621F000433046394609F0DBFF0AF01E
:1024600025FCA4F89C007E3881B240F2693081429C
:102470006ED8B4F96E000AF043FD0AF029F9002283
:102480002A4B0AF0A3FA0022294B0AF09FFA22A352
:10249000D3E900230AF070F90AF028FC25490AF074
:1024A00083FDA16B0AF078FC27490AF07DFD2749DE
:1024B0000646606F0AF078FD014630460AF06CFC73
:1024C000A063B4F970000AF01BFD0AF001F90022C4
:1024D000164B0AF07BFA0022154B0AF077FA0EA38E
:1024E000D3E900230AF048F90AF000FC11490AF088
:1024F0005BFDE16B0AF050FC13490AF055FD1349EE
:10250000064628460AF050FD014630460AF044FCD3
:10251000E0631DE0AFF300804AD8124DFB21094073
:10252000B81E85EB51B8BE3F20C0092000408F4047
:10253000008066400AD7A33B00406F4094C107204B
:10254000008062400000404048E17A3F0AD7A33C47
:102550000022606B04F13801134607F09DFD012055
:10256000BDE8FC87AFF3008038B51A4C63685A00A9
:1025700011D51948416801F001024260E36843F057
:102580008040E060216901F080422261636943F08C
:102590008040606138BDA068430019D50E4DA86821
:1025A0000AF0AAFCE2680D4942F080430860E3604B
:1025B000686840F0010169606A6842F002036B607C
:1025C000606900F080416161226942F080432361CB
:1025D00038BD00BF808002400040094094C1072000
:1025E00038307047052370B50446C3610020A063EE
:1025F000E0632064606428210022012007F01BFDB5
:102600002B496063D1F8C42042F40006C1F8C460CD
:10261000D1F8AC3103F48040C1F8AC01A1F5D02170
:102620004A6842F001064E604B6843F00200486081
:10263000A1F5D021CA681F4B02F0C006CE60186811
:102640001D4E40F4002119601C4A1E20002106F096
:1026500017FD33684FF08042C4F8A0204BB9082022
:10266000FDF712FE0546FEF79FFB2860A7202871A4
:1026700035601149124E0A68336822664BB908204A
:10268000FDF702FE0546FEF78FFB2860D320287178
:1026900035600B49206E0A686266FFF799FA28B127
:1026A000606EFFF7B1FA08B1012070BD002070BD67
:1026B00000C00F4020C009208CC1072069250100FF
:1026C00090C107208360002310B50160044642607A
:1026D000C360036110BD2DE9F041044610461E465B
:1026E0000D460AF057FB216880460AF05DFC6168E0
:1026F000074640460AF058FC31460AF055FCE168AE
:102700000AF04AFB0146E06038460AF045FB2169C1
:10271000074628460AF03EFBA1680AF045FC314610
:102720000AF0F6FC014638460AF036FB2561BDE8A2
:10273000F081000070B500260546066001210620E4
:102740000D4C08F0E9FD0121062008F0FDFD0223F3
:10275000FF2263602260636108F06EFF3221B0FBEC
:10276000F1F00923A0616360A660226F284622F081
:102770000F01216770BD00BF00800140026805297C
:1027800030B542F0010202D90260002030BD0123C1
:102790004C1C03FA04F52A43026001FA03F00324F7
:1027A00004FA00F403FA00F0093103FA01F1074AD0
:1027B000156925EA04041461146920431061A2F527
:1027C000A032D06C0143D164184630BD00C0024035
:1027D000F8B517460C46054608F02EFF0AF08CFBAC
:1027E0001349064638460AF093FC12490AF0DCFB0E
:1027F00010490AF0D1FA014630460AF0D5FB0AF03A
:10280000BFFD0D4B052C0FD8DFE804F003050709C9
:102810000B0DD86108E0186206E0586204E0186405
:1028200002E0586400E098642A681A65F8BD00BFA9
:102830000000C8426F12833A0080014038B50D464F
:10284000044608F0F9FE074B0221B0FBF3F0B0FBA1
:10285000F1F2954201D3216138BDB1F5807FFAD004
:102860000231F4E740420F0001480BF055BE00BFB3
:10287000B84802007FB500F235260D4601223146E8
:1028800004F028FAC4B24CBB04A941F8044D304608
:1028900002AA04F009FEF8B9029A039994699378A0
:1028A000A21E5A435943540840F2E73348089C4259
:1028B0000F49104B8CBF4FF48062012288BF0B463A
:1028C000B0FBF2F18DE80A000B482946B4FBF2F2A6
:1028D0000BF00AFE012008E0084B00E0084B094815
:1028E000294662B20BF000FE002004B070BD00BFAC
:1028F000F2480200EF480200FC480200F5480200DE
:10290000F94802002A49020038B5AA224FF0804354
:1029100055201A72187208F005FA174C02284FF069
:1029200000014FF00100D4E9002317D1121843EB46
:102930000103C4E9002308F091FDD8B108F080FD3F
:10294000D4E900010A2200230AF03AFD0A25A0FB7F
:10295000052305FB0133C4E9002338BD121843EBFE
:102960000103C4E9002302F025F80020BDE8384047
:1029700008F0BCBB38BD00BFA8C10720FFF7C4BF2B
:10298000024BD3E90023104619467047A8C107201F
:1029900038B5084D2B684BB90820FDF775FC044687
:1029A000FEF702FA2060402020712C60014908687F
:1029B00038BD00BF9CC1072038B5054C256825B936
:1029C0000120FDF761FC05702060206838BD00BF64
:1029D00098C10720664A674970B54023664D4FF09D
:1029E00000704FF480348B6190618C612E68ADF57E
:1029F000047D26F0F0032B60286840F050042C6022
:102A00002E6826F440532B60086840F040040C60A8
:102A10002E6826F47C232B60286840F428242C6040
:102A20002E6826F470032B60286840F420042C6084
:102A30002E6826F040432B60286840F000442C604C
:102A40006E6826F03C036B60686840F028046C6098
:102A50006E6826F003036B60086840F480340C60F5
:102A60006E6826F440536B60086820F480040C60A4
:102A7000E96821F44036EE60136843F0807010601E
:102A80006C6824F4402169606E683C4C46F48023F5
:102A90006B60A8680440AC60116841F4897646F028
:102AA00001031360A86820F47014AC60A96821F0D9
:102AB0007046AE60136823F446401060EC6824F062
:102AC0003001E960EE6846F03003EB60E86820F41E
:102AD0007014EC60156845F000711160166826F0FE
:102AE0008063136008F090FA4FF4FA6006F0B1F9D1
:102AF000FFF7BAFE08F0A0FD0AF0FEF920490AF03F
:102B000007FB09F0E5FD02460B461E480BF0ECFC06
:102B100008F0F0FA042811D100221B48059205683C
:102B20001A4E04AC0495FFF79FFEF16C1848326D05
:102B3000736D00940BF0D8FCFFF796FE0C2001217A
:102B400008F0EAFB134C0C20032108F0FDFB4FF4C6
:102B50000011216008F070FD0223C0080E4AB0FB8E
:102B6000F3F595421AD8266846EA0321216019E058
:102B700020C0092000C0092000C00240F0FCFCFF7A
:102B80000024744968490200444002400040024069
:102B900080490200004003403F5DC6000233B3F5A8
:102BA000807FDBD10A20012108F0B6FB0A20012139
:102BB00008F0CAFB9B4807250224056001214460F8
:102BC000FFF73CFE06F00AFC1520012108F0A4FBEB
:102BD0001520012108F0B8FB9348012105604460ED
:102BE000FFF72CFEFEF7E0F8642106F04FFA10B96B
:102BF0008E480BF091FC01F0A3FE10B98C480BF04D
:102C00008BFC01218B4808F0EFFBFDF755FC8A494E
:102C1000FFF730FE0646B8B988480BF065FCFDF7B3
:102C20004BFC3146324600F2352004F043FE844B23
:102C3000844A002814BF104618460BF06DFCFDF7BF
:102C40003BFC7D49FFF716FE7F4C206810F0010524
:102C500017D1204608F01CFE98B14FF40E70FDF716
:102C600013FB7A4A012131263A2380F8341280F886
:102C7000356280F8363280F837521060204608F00E
:102C800015FE724C72492068FFF7F4FD1821654863
:102C9000FFF7D4FDFFF7E8FDFFF78EFE002101F0FE
:102CA00079FFFFF775FE6B4D0646286858B90C2072
:102CB000FDF7EAFA0446FEF777F89021002320603A
:102CC0002171A3602C60634A106801F0B3FF0AF021
:102CD00031FB41B2304601F03DFF00235E4804A9BC
:102CE00007220493059302F020F8A8B904A80AF07B
:102CF0005DFEC6B2751EE8B2FD2805D904A9564A84
:102D000056480BF0F1FB07E055483146524A0BF0AC
:102D1000EBFB304600F08CFF524C216819B90120C2
:102D2000FDF7B2FA2060206801F05CFF0646002043
:102D30000DF004F930180BF00DFC4FF40072002177
:102D400004A80BF015F804A808F032FB04A94648C3
:102D50000BF0CAFBFFF788FD8022002104A80BF0CE
:102D600007F804A802F064FE9DF91020531C05D05A
:102D700004A9D2B23D480BF0B7FB2FE03C4D2B68C5
:102D80001BB90120FDF780FA2860286801F02CFFAC
:102D900009281DD137480BF0BFFB04A936480BF0BA
:102DA0000DFD04A935480BF09FFB35480BF0B4FB33
:102DB0000020039003A933480BF000FD9DF90C405F
:102DC000592C03D104A802F015FE07E02E4803E0B9
:102DD0002E480BF0A1FB2E480BF09EFB4FF2080192
:102DE0000E684A684FF20403B50A960A4FF470421F
:102DF0008C681268196827480BF076FB2A46314622
:102E000025480BF071FB214624480BF06DFBFFF7C2
:102E10002BFD23480BF080FBFFF726FD0DF5047D0D
:102E200070BD00BF0000034000800840F849020068
:102E3000294A0200092901004E4A0200564A0200AE
:102E40005D4902006249020058C107205CC10720A9
:102E5000EA3D020048C107207F4A0200854A02007D
:102E6000B04A020050C10720F95A0200DD4A0200B0
:102E7000A0C10720F94A02001B4B0200204B0200B0
:102E80003B4B02007E4B0200824B02009A4B020039
:102E9000C84B0200FA4B0200264C0200534C0200C1
:102EA000704C020001207047F8B591E860000F7A7D
:102EB00014468FB1082A0FD1304605F0F9FC0028DE
:102EC0001BDD28460E494FF0FF3206F0E5FB304689
:102ED000012105F0F4FD08E00A2C05D00D2C03D0EB
:102EE0003046214605F0DAFE4FB12B6828465B6874
:102EF00021464FF0FF329847F8BD0724F5E7F8BDAB
:102F0000A84C02002DE9FF41CE6B04460D4601AFEF
:102F10005EB94FF47A7007F039FD31460C2238461D
:102F20000AF026FF97E807005EE00B6C01F134061B
:102F3000186807C887E8070000278DF80370EA6B58
:102F400097422DD2F368511E53F827008F420CBFD1
:102F50000522002200684FEA87080179002949D03C
:102F600003680DF103011B689847002842D0B2683E
:102F7000974241D2F16851F8080001AB07C883E8D5
:102F8000070019469DF903202846FFF78DFFFFF73C
:102F9000F7FCD5E92223121843EB0103C5E92023EE
:102FA000029805F085FC0746029805F084FC421E55
:102FB000974216DAD5E92201014320D0FFF7E0FC61
:102FC000D5E92023994208BF904218D3FFF7D8FCD7
:102FD000D5E92223121843EB0103C5E9202300237E
:102FE000019304A810E9070084E80700204604B014
:102FF000BDE8F0810137A2E706F11000BDE79DF9B9
:1030000003100A29EDD0002799E70000F0B5054626
:1030100085B020480BF068FA01A82946FFF772FF37
:10302000019C1CB91C480BF077FA30E0029E304638
:1030300005F03EFC00282ADDFFF7A2FC0746F8B1A8
:10304000B5F874303146581CA5F87400224605F1D5
:10305000500004F05FFF114900250A6800922368C0
:103060001DF905105B6820464FF0FF320135984787
:10307000042DF4D1FFF784FCC11B09480BF034FA8E
:10308000304605F01AFC20688168204688470120F8
:1030900005B0F0BDAB4C0200B3530200844C0200FB
:1030A000B14C020038B5064C236833B92020FDF737
:1030B000EBF8054606F056FA2560206838BD00BFDB
:1030C0003CC1072010B50446FFF7ECFF036821461A
:1030D0005B684FF0FF32984740B210BD13B5002334
:1030E00002AC04F8013DFFF7DDFF01684FF0FF324D
:1030F0000B68214698479DF907001CBD38B5054669
:1031000000246B68E8689C4205D250F82400FDF763
:10311000BFF80134F5E708B1FDF7BCF8284638BD23
:103120000D4B70B5044640F8503BFFF7E7FF04F144
:10313000340600257068854206D2F26852F82500F0
:10314000FDF7A6F80135F5E7206C08B1FDF7A2F808
:1031500002492046216070BD904C02009047020059
:1031600010B50446FFF7DCFF2046FDF791F8204636
:1031700010BDF8B54368044699420D4615D3C068A2
:1031800089000BF053FAA668E060B700AE420BD29C
:103190000C20FDF779F8E2680021016041600172BE
:1031A0000136D0510437F1E76560F8BD2DE9F041F3
:1031B0000446142016468846FDF766F88021074627
:1031C00005F07FFDA36BE26B9A4205D3616B04F1BE
:1031D00034005918FFF7CDFFE56B206C50F825300F
:1031E0000135C3F800805F601E72E563BDE8F081C1
:1031F0002DE9F04100F150048AB000250646009503
:1032000020466249624A634B04F0B4FD00952046B3
:103210006149624A624B04F0ADFD00952046614968
:10322000614A624B04F0A6FD009520466049614A60
:10323000614B04F09FFD009520466049604A614B58
:1032400004F098FD009520465F49604A604B04F009
:1032500091FD009520465F495F4A604B04F08AFD6E
:10326000009520465E495F4A5F4B04F083FD009560
:1032700020465E495E4A5F4B04F07CFD0095204687
:103280005D495E4A5E4B04F075FD009520465D4940
:103290005D4A5E4B04F06EFD009520465C495D4A38
:1032A0005D4B04F067FD009520465C495C4A5D4B30
:1032B00004F060FD009520465B495C4A5C4B04F0DD
:1032C00059FD009520465B495B4A5C4B04F052FD7A
:1032D000009520465A495B4A5B4B04F04BFD009534
:1032E00020465A495A4A5B4B04F044FD009520465B
:1032F00059495A4A5A4B04F03DFD00952046594918
:10330000594A5A4B04F036FD009520465849594A0F
:10331000594B04F02FFD009520465849584A594B07
:1033200004F028FD009520465749584A584B04F0B0
:1033300021FDFFF7B7FE4FF4806320224FF41641C2
:10334000054606F0EDF8012780462F715148FDF73C
:1033500005F85148FCF7FCFF304629463A46FFF78E
:1033600025FF082203A905A805F07CFA05A84B490A
:1033700005F038FD05A92A46204604F0CBFD05A836
:1033800005F084FA40460AB0BDE8F0814D05010021
:10339000114D0200C74C020019060100FE4C02004C
:1033A000064D0200F10E0100244D0200164D0200F0
:1033B0003D0601006C4D02002B4D0200810701000B
:1033C000714D0200754D020001070100144E02000C
:1033D000D14D0200890B0100134E0200174E02006E
:1033E00061080100624E0200654E0200090A0100F8
:1033F000934E0200994E0200810A0100BE4E020067
:10340000C14E0200DD0A01000E680200EE4E02000D
:10341000450A0100134F0200164F0200C90D0100BA
:10342000394F02003D4F0200C10C0100E44F020081
:10343000EC4F0200F51101002F500200365002003F
:1034400029120100495002004D500200750D010083
:103450008350020089500200891A0100454A020087
:10346000B1500200B1100100DB500200E250020036
:10347000A9110100045102000951020029130100A1
:103480000D52020019510200951201002D3E02005A
:10349000D6510200DD300100C53001007C4702003A
:1034A00073B500244FF480520B4600941849064629
:1034B00005F0ACF9174B042533607563B463F4630E
:1034C000346406F134000221FFF753FE356574655C
:1034D000B465F46506F150001821FEF7B3FAA6F8BA
:1034E0007440A6F87640B4670B4C002200230025F8
:1034F000012086F87000C6E92023C6E92245FFF7BF
:103500003FFA001941EB0501C6E9200130467CBDB8
:1035100012520200904C0200C0D401002DE9F0418B
:10352000804690B061480AF0F7FF04A8D8F8601010
:10353000FEF760FBBDF9100009F0B8F800225C4B03
:1035400009F01AF900225B4B09F040FA04460D46D7
:1035500006A8D8F86010FEF74DFBBDF91A0009F077
:10356000A5F80022524B09F007F90022514B09F04F
:103570002DFA06460F4608A8D8F86010FEF73AFB69
:10358000BDF92400CDE9006709F090F80022484B0E
:1035900009F0F2F80022474B09F018FA22462B46B0
:1035A000CDE9020144480AF09FFF0AA8D8F8641048
:1035B000FEF735FB0CA8D8F86410BDF92860FEF7BB
:1035C0002EFBBDF932700EA8D8F86410FEF727FB69
:1035D0003A46BDF93C30314638480AF085FF40464E
:1035E000FEF7FEFF006809F073F802460B46344808
:1035F0000AF07AFF4046FEF7F3FF406809F068F8EA
:1036000002460B462F480AF06FFF4046FEF7E8FFE0
:10361000806809F05DF802460B462B480AF064FF0B
:103620004046FEF7DDFFC06809F052F802460B463F
:1036300026480AF059FF264B264C186809F048F82E
:1036400002460B4624480AF04FFF2448244D0068E8
:1036500009F03EF802460B4622480AF045FF22498F
:10366000086809F035F802460B4620480AF03CFF8E
:103670001F4A106809F02CF802460B461D480AF054
:1036800033FF206809F024F802460B461A480AF076
:103690002BFF286809F01CF802460B4617480AF071
:1036A00023FF4FF4FA7007F071F93BE7CF480200AF
:1036B0000000104000408F40375202005952020073
:1036C000735202008652020099520200AC5202006C
:1036D00070C1072078C10720B852020088C10720B6
:1036E00080C10720C95202007CC10720DB520200C2
:1036F00074C10720EB52020007530200245302005A
:103700002DE9FF47A420FCF7BFFD002635494FF403
:10371000805202230096054605F078F8324BC4200B
:103720002B60D5F834A0FCF7AFFD012300962F499C
:103730004FF48052044605F069F82D494FF07E5948
:103740004FF080484FF07C57204642463B4640F8B9
:10375000341B4946FEF7B6FF494642463B4604F154
:103760004800FEF7AFFF494642463B4604F15C0085
:10377000FEF7A8FF42463B46494604F17000FEF7BB
:10378000A1FFC4F884A09020FCF77EFD012107462C
:10379000FFF786FE384604F0FBFF284604F0F8FFEA
:1037A000204604F0F5FF134801272B4601904FF403
:1037B00080520097029603960F49104806F09EFE2D
:1037C0003146384604F0F4FF2A6828465368984783
:1037D000216820464A6890474FF0FF3004B0BDE8AA
:1037E000F08700BF375402008048020048540200AE
:1037F00060480200B0C107205B5402001D35010083
:1038000038B5074C236833B91C20FCF73DFD05464D
:1038100005F072FC256022680248026038BD00BFD6
:103820004CC10720B4C1072030B500238B420DD016
:1038300044783CB1048C4FF6FF751419AC4228BF94
:103840002C4604840133DBB22430EFE730BD0000A6
:1038500037B50E49002302A84A6840F8043D042108
:1038600090470B4B05461C6801980421041B186007
:1038700022460848FFF7D8FF022107482246FFF7F3
:10388000D3FF281C18BF01203EBD00BFB8C10720D0
:10389000A0C20720CCC10720A5C2072008B50B4B4A
:1038A00001781A780A4B914203D1198801311980A5
:1038B00002E09988013199808270064A2021D368FC
:1038C0009847003018BF012008BD00BF05C0072081
:1038D00074C20720B8C107200A4B027819780A4B36
:1038E0008A4203D1DA88511CD98002E01A89511C1E
:1038F00019810379C3F3C202511E61F3C503037139
:10390000FFF7CCBF05C0072074C2072010B5002305
:10391000064A990012F82340844201D1501810BD84
:103920000133042BF4D1002010BD00BF8FC207204B
:1039300070B1C378591CCAB2FF2AC27008D10023E3
:103940000448C218D17804334808102BD070F7D13E
:10395000704700BF8FC20720F0B5034602460446F9
:1039600000258D4207D02046243414F8236CC6B1BC
:103970000135EDB2F5E7002004468C4210D01579F0
:10398000178CC5F3C20547EA0545A842164624BF71
:1039900005461E460134E4B2243228463346ECE79D
:1039A0001846F0BD38B501310446CD00FFF750FF91
:1039B0001B4B20781A78824204D102211948FFF764
:1039C000CBFF0CE004211848FFF7C6FFE17831B9BE
:1039D00090F8235045F0800380F82330042590F8B8
:1039E0002310002221F07F0380F8225043EA15259E
:1039F00080F8202080F8212080F8235023460246BA
:103A000004F1200153F8044B8B4242F8044BF9D1E6
:103A1000064A0379117861F3C503037138BD00BF0D
:103A200005C00720A5C20720CCC1072004C007207D
:103A300010B5FFF76BFF044608BBFFF767FF0446AE
:103A4000E8B9104AD378D179994202D20B46111DB8
:103A500000E01146D07AD47B984238BF0A490B4A1D
:103A600038BF03469C422CBF0C461446204600211A
:103A700004220AF07DF9064BD97A481CD8722046F8
:103A800010BD00BF8FC2072097C207209BC207202E
:103A900074C207202DE9F041054690460C460027E8
:103AA000474500F0BE8094F8233003F08000C1B297
:103AB00069B3BDB12B786278934203D168782178DD
:103AC00088421ED0E87868B16978914208D122789E
:103AD0009A4205D1A879A179421A5342534100E094
:103AE000002373B994F8232094F82210208C02F05C
:103AF0007F0341EA03218842C0F28F802046FFF70E
:103B0000CDFE2046002124220AF032F985E06378B8
:103B1000002B00F08280002D3DD02A7902F0C000F9
:103B2000C0281AD16A782178914202D12878984227
:103B3000E7D0E078A978884210D1934209D1207863
:103B40002A78904205D1A079AA79811A4842414148
:103B500000E000210029D4D100E0E0B1A978E278AA
:103B6000914218D16878984209D121782A789142F7
:103B700005D1A179AA79881A4142484100E0002084
:103B800048B12279002161F3C50284F8201084F83D
:103B90002110227141E094F8232094F82200218C16
:103BA00002F07F0240EA0220814236DB21790026C2
:103BB000C1F3C20284F8206084F82160D6B21EB13D
:103BC0002046FFF789FE28E001F0C000C02818D089
:103BD000154920780978884213D1E078984210D0AE
:103BE00078B16379E270032262F3071363712046B0
:103BF000FFF772FE0D482179037863F3C501217147
:103C000000E001266078FFF781FE18B10021042250
:103C10000AF0AEF8002E7FF474AF0137FFB22434FF
:103C20003EE7BDE8F08100BF05C0072004C00720C3
:103C3000431ED9B2FD2903D8024A107001207047F3
:103C40000020704705C00720014B1878704700BF5F
:103C500005C0072007289CBF014B1870704700BFA4
:103C600004C007202DE9F7430446914698469DF885
:103C700028600D46002958D02F4B1F78B94254D0E8
:103C8000B8F10F0F51D8002851D0202200210AF09E
:103C90006FF8FF2D207914BF09F00302002262F3B0
:103CA0008710032161F30200244B20711A782770DA
:103CB00062F3C50020712248A77001780BAF4B1C3E
:103CC000DAB20270A271657001970EB9012613E095
:103CD0000198013E03464268E07953F8081B8718B3
:103CE000FFB2182F0193F6B205D8083020180AF059
:103CF0001CF8E771E9E70026124F012128463970C8
:103D0000FFF704FE0546FFF713FE00223A706379C1
:103D100025B968F307136371E57009E0A87860F3CB
:103D2000071363716978E17002E0002600E006463F
:103D30003046BDE8FE8300BF05C0072004C0072051
:103D400082C2072080C20720164B70B501261E7064
:103D5000044608B900251FE0FFF7A0FD054600282E
:103D6000F8D0207900F0C001402903D0B1F18002E1
:103D700056425641C02906D1E3782BB16078C31A68
:103D800018BF012300E000230EB9DB0704D56179D9
:103D900020460909FFF706FE024B00221A7028464A
:103DA00070BD00BF80C2072082B0F0B51746421E2A
:103DB0000446D0B28DB0FD280D46139301D90020E2
:103DC0005AE0002BFBD0159B002BF8D01799002947
:103DD000F5D0169A002AF2D014980028EFD00021CE
:103DE0004822284809F0C4FF00219022264809F003
:103DF000BFFF00211022254809F0BAFF244E002100
:103E00000C22244809F0B4FF00210C22224809F0BA
:103E1000AFFF3470214C224E2570344613AD0FCDC8
:103E20000FC42B68002118221E48236009F0A0FF50
:103E3000394617221B480AF0A8FE0020B268014646
:103E400090470028BBD09DF8601011B9FFF700FD26
:103E500012E015480622012301900292009304A863
:103E6000FF210022FFF7FEFE0028A8D004A8FFF7DC
:103E70006BFF0028A3D0E9E70DB0BDE8F04002B029
:103E8000704700BFA5C20720CCC107208FC2072002
:103E900005C0072083C2072074C2072081C2072003
:103EA000B8C107205CC207206554020070B5182B0A
:103EB0008CB006460D4617D81C1C18BF0124002ADA
:103EC00014BF214684F0010171B101920293009464
:103ED00004A831462A469DF84030FFF7C3FE18B1CA
:103EE00004A8FFF731FF00E000200CB070BD13B54F
:103EF0000446107852790B4611090091224603219D
:103F0000FFF7D4FF1CBD000030B500231A46084956
:103F10009C0011F823502DB1904201D1081930BDF9
:103F20000132D2B20133042BF1D1002030BD00BFE9
:103F30008FC2072000231846044A995C09B101305A
:103F4000C0B20433102BF7D1704700BF8FC20720D7
:103F50002DE9F04188B068460021202209F008FFD1
:103F6000A14B1C78002C40F03B81A0482021026925
:103F700068469047002800F087809D4D69884B1C5B
:103F80006B80FFF7D7FFA8729DF8042002F00700AE
:103F9000032804D097490A7842F0010009E0964DC1
:103FA0009DF802102D78A94205D192490B7843F073
:103FB00002000870E6E0C2F3C2019DF800709DF8AF
:103FC00006005FFA81FE032262438C4EB318B65C92
:103FD000BE420AD15A78824207D19A789970B2EBE0
:103FE0000E0618BF0126012417E00134042CEAD183
:103FF000834C236899708149587001F1090083420C
:104000001F7040F0CC8021609DF800009DF80220D8
:10401000824240F0C780002426469DF80200FFF748
:1040200007FD9DF80210002C08BF012601709DF8C5
:104030000220002142708170F6B2FFF779FC1EB3B6
:104040009DF80000A84200F09C809DF80160FF2EC2
:104050001CD16648202103686846984720B9654C02
:10406000227842F0040121709DF8053003F00F041E
:10407000601C1A4660F30302B4EB131F8DF8052091
:1040800002DA6846FFF70AFC00247BE0B5422CD137
:104090006CB99DF8070050B1544B68461A6820214E
:1040A000904720B9534C217841F0040020709DF8CE
:1040B000043003F0C002402A12D19DF8071011B954
:1040C0005048182108E04A480C216A46FFF70FFFC4
:1040D000002856D1002001466A46FFF708FF50E04D
:1040E0009DF80340002C4CD1F4E7474C2378002B7B
:1040F000CAD09DF8054004F00F082709B845C3DA77
:104100003046FFF703FC9DF8032008F1010868F32F
:10411000030495428DF805401DD19DF8045005F02B
:10412000C004402C05D0B4F180014B4253EB010296
:1041300000E0012208B1457800E00546C02C05D119
:10414000AE4203D02C1C18BF012400E0002444EA36
:10415000020530B90AE0A2B910B9684639460EE046
:10416000154641788DF80310847802E08DF803003D
:1041700004466846FFF792FB1DB168462146FFF7EB
:1041800011FC6C46FFF764FB204604221F49FFF731
:1041900081FC20461E490222FFF77CFC20E0DE1C49
:1041A000266031E785423FF436AFFFF741FC044615
:1041B000FFF7BEFB23783BB19DF80510A67801F010
:1041C0000F00B0423FF727AF9DF8002022709DF806
:1041D000023063709DF80510C1F30300A0701AE768
:1041E00008B0BDE8F08100BF80C20720B8C1072039
:1041F00074C20720A4C2072005C0072083C207207D
:1042000000C007205CC2072081C20720CCC1072064
:10421000A5C2072000231846094AD1184A780AB1D6
:104220000130C0B22433902BF6D1064B597809B136
:10423000421CD0B293F825300BB10130C0B27047A8
:10424000CCC10720A5C2072008B5FFF75FFB054BCF
:1042500020B180781978421CD00001E0197818202C
:10426000484308BD04C00720034A11680160516833
:10427000926841608260704774C2072030B5404C3C
:104280004FF48035E5613F4CA060E068C006FCD487
:104290003C488068C0B2002B6CD00B46002A5CD032
:1042A000384C93F90050072AA56030DD93F901508E
:1042B000083AA56093F90250A56093F90350A560F0
:1042C00093F90450A56093F90550A56093F9065041
:1042D000A56093F907500833A5602A4CA5696D07BE
:1042E000FBD5A5680D70A5684D70A5688D70A46894
:1042F000CC70244CE568ED06FBD4A5680D71A5686B
:104300004D71A5688D71A468CC710831C6E7032A88
:1043100018DD93F90150043AA56093F90250A560A5
:1043200093F903500433A560164CE568ED06FBD401
:10433000A5680D70A5684D70A5688D70A468CC70D7
:104340000431ABE70133013AE56815F0100FFBD1FA
:104350000C4CA46801F8014BA0E7094B4FF48032E4
:104360009A6140B230BDE56815F0100FFBD1054CE5
:104370000133A4689342F0DACD56024CA560F2E70F
:1043800000C009200080084007B5002302A90122CF
:1043900001F8013D00F01F001346FFF76FFF9DF984
:1043A00007000EBD07B502AB03F8011D00F01F00AA
:1043B00019460122002340F02000FFF75FFF0EBDE9
:1043C00008B51720FFF7E0FFC0F3001008BD072075
:1043D0007021FFF7E7BF03460A466FF05F001946FA
:1043E0000023FFF74BBF08B50020FFF7CDFF20F0FB
:1043F000010149B20020BDE80840FFF7D3BF00002B
:10440000024B4FF08072DA61704700BF20C0092074
:1044100008B50020FFF7B8FF40F0010149B20020C5
:10442000FFF7C0FF024B4FF080729A6108BD00BFDA
:1044300020C0092007202021FFF7B4BF00216FF022
:104440001E000A460B46FFF719BF000037B50546A8
:104450000C46FFF7F3FF28462146FFF7BCFF0D4B44
:104460004FF0807200209A61ADF80600BDF806108A
:104470004A1C93B2ADF8063033B906494FF080704C
:10448000C861FFF7DBFF3EBDFFF79AFF0028EDD0C4
:10449000F3E700BF20C0092008B51720FFF774FF1D
:1044A00000F0010080F0010008BD07204021FFF767
:1044B00079BF08B503460A46612019460123FFF774
:1044C000DDFEC0F3420008BD00216FF01D000A466A
:1044D0000B46FFF7D3BE70B5044600200D461646C6
:1044E000FFF752FF14B100F0BF0102E040F04000BE
:1044F000C1B215B101F0DF0201E041F0200216B1B6
:1045000002F0EF0301E042F01003002059B2BDE8D1
:104510007040FFF747BF10B504460020FFF734FF97
:1045200014B900F0F7020DE0012C04D100F0FB00FB
:1045300040F0080206E0022C14BF40F0080140F0F1
:104540000C01CAB2002051B2BDE81040FFF72ABFEB
:1045500008B50020FFF718FF40F0020149B2002023
:10456000BDE80840FFF71EBF08B50020FFF70CFFAD
:1045700020F0020149B20020BDE80840FFF712BF59
:1045800040F6DD13984206D840F66211B0F5166F7A
:1045900038BF084600E01846A0F1600251B205207D
:1045A000FFF700BF10B504460620FFF7EDFEFA2C1A
:1045B00000F0D70102D141F0200104E0B4F5FA6F18
:1045C00008BF41F00801062049B2BDE81040FFF7DE
:1045D000E9BE10B504460620FFF7D6FE032C34BF13
:1045E0002146032100F0F90040EA410251B20620C1
:1045F000BDE81040FFF7D6BEF9284FF0FA0305D901
:10460000B0F57A6F28BF4FF47A6000E01846B0FB2F
:10461000F3F0421ED3B20F2928BF0F2141EA031144
:10462000042049B2FFF7BEBE1130C0B2162806D82A
:10463000202928BF202140B249B2FFF7B3BE7047FE
:10464000032804D004280CBF0221032100E001212B
:104650000320FFF7A7BE03460A4630201946002371
:10466000FFF70CBE03460A462A2019460023FFF72F
:1046700005BE000073B504460E461546FFF724FF3D
:10468000FFF7DCFE2A4B4FF08072DA61FFF76CFF18
:1046900000210A460120FFF71EFFFFF798FE0220C7
:1046A000FFF739FF3046FFF76BFF2846FFF77AFF29
:1046B0000320FFF78EFF02200321FFF773FE012086
:1046C0000021FFF76FFE03214FF4FA70FFF794FF0C
:1046D00000202146FFF7A8FF12200021FFF762FE0D
:1046E00013200021FFF75EFE14200021FFF75AFE81
:1046F00015200021FFF756FE16200021FFF752FE7D
:104700000C4908680A79009005208DF80420FFF70D
:1047100097FF68460521FFF79EFF68460521FFF7D2
:10472000A1FFFFF715FF4FF4FA6004F076FB7CBDA4
:1047300020C009206C540200042938B5054603D175
:10474000041C18BF012400E00024FEF719F904B18D
:104750002860204638BD000007B5084B002102AA9A
:10476000186842F8041D0B4605F02EFD019818B19B
:1047700003494FF080520A600EBD00BFF8C2072007
:1047800004ED00E070B500238AB00193064600797D
:1047900001AA00F0C001C0290CBF0F490F49002336
:1047A0000D683146284605F00FFD044658B92246EB
:1047B00002A9284605F0C2FD23462846314601AA33
:1047C00005F002FD0446019A1AB1054B4FF08050E6
:1047D000186020460AB070BDF0C20720F4C207205E
:1047E00004ED00E010B5194C226822B90320202105
:1047F00005F021FC2060164C226822B901202021FE
:1048000005F019FC2060134C216821B90120032216
:1048100005F011FC2060202040F6C3114FF4FA622D
:10482000FFF728FFFFF7F4FD162001210A4A04F0E4
:1048300027FC064B186838B10548006820B10549C7
:104840000A68101C18BF012010BD00BFF4C2072069
:10485000F0C20720F8C20720594701002DE9F341B3
:1048600080460F46164606F05DFA022807D132460A
:1048700040463946002305F0E0FCC6B213E00023B1
:104880000193FEF77DF8841941F100054046394651
:1048900001AA05F053FDC6B22EB9FEF771F88D429C
:1048A00008BF8442F2D270B2BDE8FC8137B504463D
:1048B0000D46FFF7C9F9237883420AD0E07840B962
:1048C00009F074FE00F00301481CBD22504304F0BF
:1048D000A4FAFFF795FDFFF786FD2046A9B2FFF782
:1048E000B5FDFFF7A7FDFFF793FD06F01BFA0228C1
:1048F0000ED1084B002102AA186842F8041D0B468D
:1049000005F062FC019818B1034A4FF08051116024
:1049100001203EBDF8C2072004ED00E038B5044692
:104920000D46FFF7B9FD48B1A9B22046FFF7C1FD1A
:10493000FFF7B2FD08B9FFF7B8FD012038BD000050
:1049400000B50C4B0C488DB00C490D4A09930B90E7
:104950000CAB002043F8102D0A9104900FCB8DE88A
:104960000F00084B6A200121074AFFF71DFA0DB01E
:1049700000BD00BFE54701001D490100AD48010031
:104980003947010085470100715402000A46034976
:10499000034608681946FFF761BF00BFF4C207204D
:1049A0000A460349034608681946FFF757BF00BF88
:1049B000F0C2072008B506F0B5F90F4B0228586978
:1049C00012D142020CD5FFF725FC0C4900280CBF80
:1049D0004FF0FF320122086800210B4605F02DFC44
:1049E000BDE80840FFF7B4BA4302F9D5FFF712FC5F
:1049F0000028F5D108BD00BF00C00920F8C207207B
:104A000010B506F093FA0C4B1A6822F0E06020F023
:104A1000FF0119601C6844F004021A60186840F035
:104A2000807119605C68002CFCDA034B5C6806F04E
:104A30008FFAC4F30B1010BD0040034030B504469C
:104A40004DB2006894F9041053B22A46BDE83040D4
:104A500004F038BF1FB5002204AB90F9044023F8DE
:104A6000042D4AB2022100910068214604F035FF6E
:104A70009DF90C009DF80D3082B243EA022188B204
:104A800004B010BD234910B50A680B4612F010029D
:104A90000ED08868C83088611F490A881F2A05D847
:104AA000DC6A1E4840F8224001320A8010202EE0C5
:104AB0000B68D9072CD518480088012822D9174B34
:104AC000411E04338A4207DA53F8041C1C68013281
:104AD000611A43F8041CF3E7104A002350681A4691
:104AE00000EB50008B420BDA0C4C54F8234084420C
:104AF00003D9012404FA03F4224301339BB2F1E702
:104B000007490A60044B00221A80024B01201860FA
:104B100010BD00BF0080004000C3072004C3072071
:104B2000FCC20720044A08B501F07F034171D25C42
:104B30000321FFF783FF08BD76540200044A08B53D
:104B400001F07F038171D25C0221FFF777FF08BD7E
:104B500076540200642370B591FBF3F404FB131147
:104B60000A224CB294FBF2F602FB164303F1300129
:104B700049B20546FFF7E2FF092C02DC2846202156
:104B800003E006F13002284651B2BDE87040FFF75D
:104B9000C9BF0000124B01F00F0140F21312017067
:104BA0009A610178CA0701D50122DA61037803F01E
:104BB0000201CAB212B10A4B0221D961027802F095
:104BC0000401CBB213B106491022CA61007800F08B
:104BD0000803DAB21AB102484FF48071C16170471C
:104BE00020C00920FFF70CBF044B5969C1F3813085
:104BF000C1F3412242EA8000704700BF20C0092073
:104C000038B500210446FFF725FF0121812285B236
:104C10002046FFF713FF102328B290FBF3F008F0B3
:104C20006FF94FF0765108F0BFF9A16808F0B4F8B9
:104C300038BD000008B5FFF7E3FF054908F0B4F9F7
:104C4000044908F065FA4FF0844108F0A5F808BD62
:104C5000000010410000A0402DE9F04F0546ADF5E1
:104C6000177D0C46914602A8294601229A4602F079
:104C700081F88346002853D10CA821460A2202F06D
:104C800079F8834608B102A837E000900190064603
:104C900007468046FDF774FE16A904464FF40072DD
:104CA00002A86B4602F032F98346A8B9009A9AB17D
:104CB000FDF766FEB8EB040268EB080300EB0208A0
:104CC000FDF75EFE009A04460D460CA816A901AB3E
:104CD00002F0C2F9834698B1B9F1000F01D0C9F8CA
:104CE0000080BAF1000F01D0CAF80070A09901B19C
:104CF0000E6002A802F0B4FA0CA802F0B1FA0FE0BC
:104D0000019900988142E7D1FDF73AFE4FF0FF325A
:104D10001440C7193F1B009C00231D403619B9E7FA
:104D200058460DF5177DBDE8F08FF0B504468DB0FF
:104D30000F46164621461D4602A800230122019374
:104D400002F018F8044670B91DB102A8294602F015
:104D50009FFA02A83946324601AB02F0D7F8044662
:104D600002A802F07DFA20460DB0F0BDF0B5044671
:104D70008DB00F46164621461D4602A800230A2282
:104D8000019301F0F7FF044670B91DB102A829464E
:104D900002F07EFA02A83946324601AB02F05CF915
:104DA000044602A802F05CFA20460DB0F0BDF0B552
:104DB00004468DB00F46164621461D4602A8002324
:104DC0001222019301F0D6FF044680B902A80DB16A
:104DD000294600E0059902F05BFA02A839463246FE
:104DE00001AB02F039F9044602A802F039FA204674
:104DF0000DB0F0BD7F2816D931B1FF2812D80A496D
:104E0000803831F810007047074A8BB232F8112011
:104E1000824203D001318029F6D10B4603F1800094
:104E2000C0B2704700207047D65602000023064AE1
:104E300032F8131031B1884201D00133F7E703484B
:104E400030F81300704700BFD6570200F654020036
:104E500010B501200C4605F090F92060003018BF15
:104E6000012010BD0120704710B5044605F05AFF1F
:104E700002280AD100210B46204640F6B83205F040
:104E8000DCF9431E5842584110BD012010BD10B539
:104E9000044605F047FF022807D1002120460A46B4
:104EA0000B46BDE8104005F0F7B810BD10B504463C
:104EB00004F004FB24B1012C06D100F05BFB01E0FF
:104EC00000F0F8FC044600E0042404F00BFB20464C
:104ED00010BD20B1012801D100F044BB042070476F
:104EE000F8B504460F4616461D4604F0E7FA3CB1F5
:104EF000012C0CD1384631462A4600F0E3FA04E092
:104F0000384631462A4600F019FD044600E00424E4
:104F100004F0E8FA2046F8BDF8B504460F461646F8
:104F20001D4604F0CBFA3CB1012C0CD13846314679
:104F30002A4600F067FA04E0384631462A4600F077
:104F400019FD044600E0042404F0CCFA2046F8BD24
:104F500070B504460E46154604F0B0FA34B1012C83
:104F60000AD13046294600F027F903E030462946A9
:104F700000F01AFD044600E0042404F0B3FA2046D1
:104F800070BD000010B5044606F056FB074BB0FBA1
:104F9000F3F10223B1FBF3F2944202D3044803611C
:104FA00010BDB3F5807FF9D00233F3E740420F0024
:104FB00000000340044B9860DA68D206FCD4024833
:104FC000816848B2704700BF0000034038B5FDF764
:104FD000D7FC00F5FA754FF0FF30FFF7EBFF4FF00D
:104FE000FF30FFF7E7FFC4B2FF2C07D0FDF7C8FC86
:104FF0002A460023994208BF9042F0D3204638BD8C
:1050000038B5064C4FF00075E561FFF7DFFF044B44
:10501000A5611A7842F00100187038BD20C009203F
:1050200006C0072070B505460E46FDF7A9FC00F145
:1050300064044FF0FF30FFF7BDFFC0B2FF2809D175
:10504000FDF79EFC22460023994208BF9042F0D310
:10505000002070BDFE28FBD1102E06D928464FF443
:105060000071002204F0C8F918E02C464FF0FF3020
:10507000FFF7A0FF20704FF0FF30FFF79BFF60703D
:105080004FF0FF30FFF796FFA0704FF0FF30FFF7B3
:1050900091FFAB19E0700434A342E7D14FF0FF3029
:1050A000FFF788FF4FF0FF30FFF784FF012070BD4E
:1050B00038B505460C46FFF789FFFF281ED160B2C0
:1050C000FFF778FFFD2C1BD04FF400714FF0FF323B
:1050D000284604F091F94FF0FF30FFF76BFF4FF0D7
:1050E000FF30FFF767FF4FF0FF30FFF763FF00F07F
:1050F0001F00411F4A4252EB010038BD002038BD5D
:10510000012038BD38B5044620060D4607D5772066
:105110000021FFF7F7FF01283BD804F07F041D4B67
:105120004FF000729A61DA61FFF750FFFF282FD12C
:1051300060B2FFF73FFF2816FFF73CFF45F307403B
:10514000FFF738FF45F30720FFF734FF68B2FFF79A
:1051500031FF402C04D0482C0CBF8720012000E0F8
:10516000952040B2FFF726FF4C2C03D14FF0FF30C3
:10517000FFF720FF0A244FF0FF30FFF71BFF014627
:105180000029C0B205DA013C14F0FF04F3D138BDA8
:10519000FF2038BD20C00920054A06491378486918
:1051A000410154BF03F0FD0343F003031370704744
:1051B00006C0072020C009207FB505460C46FFF732
:1051C000EBFF052D18D12178012900F00F810AD3BA
:1051D000022940F009818848426982F08063C3F364
:1051E0008061617002E1844C606910F0806440F07D
:1051F000FD80FFF705FFF9E0804B1878C00700F14C
:10520000F7800E2D00F2EA80DFE815F00F0019009C
:1052100054005800E800E800E800E800E800E80072
:10522000B200B700B900C300D40073484FF000715A
:10523000C161FFF7CBFEFF3818BF0120CFE0492046
:105240000021FFF75FFF054608B10120C7E068466F
:105250001021FFF7E7FE0028F7D09DF800109DF819
:1052600008308A09012A07D19DF80910481C00EB73
:1052700003239AB2930246E09DF80700810001EBF8
:1052800093129DF80630501C9DF8052003F0030191
:1052900000EB812302F00F009DF80A109DF8092011
:1052A00000EBD11002F0030100EB4100C21F03FA32
:1052B00002F328E04FF4007020805CE0504D2B7822
:1052C00003F00400C1B209B3CD200021FFF71AFF9B
:1052D0000028BAD14FF0FF30FFF76CFE684610216E
:1052E000FFF7A0FE0028B0D030254FF0FF30013D81
:1052F000FFF760FE15F0FF05F7D19DF80A001022B8
:10530000010902FA01F32360284668E04920FFF70B
:10531000F9FE0646002898D168461021FFF782FE64
:10532000002892D0297801F00202D0B29DF80A102C
:1053300080B101F03F009DF80B10CA099DF80D10D7
:1053400002EB40038A09581C531E00FA03F0206048
:10535000304644E09DF80B30C1F38402511C03F049
:1053600003025B0903EBC202531C4B43236036E08C
:1053700023490A782270002031E0492000E04A20C9
:105380000021FFF7BFFE00287FF45FAF2046102109
:105390001DE07A200021FFF7B5FE00287FF455AF0D
:1053A00005464FF0FF30FFF705FE60550135042D2F
:1053B000F7D1E0E7CD200021FFF7A4FE00287FF41D
:1053C00044AF4FF0FF30FFF7F5FD20464021FFF7D7
:1053D00029FED0F1010038BF002000E00420064B78
:1053E0004FF000729A6104E0042002E0002000E027
:1053F000032004B070BD00BF20C0092006C00720F4
:1054000084C3072070B5144605460E46FFF7C4FE58
:10541000002C4AD0284B1A78D20748D4187800F0CC
:105420000401CBB2002B44D124484FF00072244930
:10543000C2610B7803F00802D0B200B97602012CE9
:105440000DD158203146FFF75DFE30BBFE212846C6
:10545000FFF72EFED0F1010438BF00241DE013F049
:10546000060F03D0D7202146FFF74CFE59203146C6
:10547000FFF748FE88B92846FC21FFF719FE28B13E
:10548000013C14F0FF0405F50075F4D10020FD2166
:10549000FFF70EFE002808BF0124084B4FF00071F3
:1054A000201C996118BF012070BD042070BD03202D
:1054B00070BD022070BD00BF06C0072020C00920BB
:1054C00084C3072070B5144605460E46FFF764FEF8
:1054D000002C3CD0204B1878C1073AD41F494FF01C
:1054E00000721F4BCA61187800F00802D1B201B9EE
:1054F0007602012C0ED151203146FFF703FEF0B9A0
:1055000028464FF40071FFF78DFDD0F1010438BF3C
:10551000002414E052203146FFF7F4FD78B9284604
:105520004FF40071FFF77EFD28B1013C14F0FF0439
:1055300005F50075F3D14C200021FFF7E3FD074B83
:105540004FF000709861201C18BF012070BD04202E
:1055500070BD032070BD00BF06C0072020C0092019
:1055600084C3072008B5FFF717FE014B187808BD64
:1055700006C007202DE9F341FFF70EFE554B1A78C0
:1055800002F00200C1B2002940F0A0800120FFF724
:10559000F9FC0A244FF0FF30013CFFF70BFD14F03B
:1055A000FF04F7D14C4B4FF000764020DE612146DE
:1055B000FFF7A8FD012801D0002674E0FDF7E0F90F
:1055C0004FF4D57100F57A774820FFF79BFD01284D
:1055D00041D14FF0FF30FFF7EDFC01AA1055013427
:1055E000042CF6D19DF806000128E5D19DF807109E
:1055F000AA29E1D1FDF7C4F93C460025A94208BF1C
:10560000A04206D3FDF7BCF9A94208BFA042D3D2FD
:1056100007E0E9204FF08041FFF774FD0028E9D151
:10562000F0E77A200021FFF76DFD0028C4D1044681
:105630004FF0FF30FFF7BEFC01AE30550134042CB3
:10564000F6D19DF8043003F04002D0B200280CBF20
:1056500004260C2627E0E9202146FFF753FD012808
:105660008CBF012602268CBF4FF041084FF0E9089D
:10567000FDF786F93C460025A94208BFA0420BD39E
:10568000FDF77EF9A94208BFA0420CD350204FF489
:105690000071FFF737FD06E040460021FFF732FDBD
:1056A0000028E5D1ECE70D490B4B4FF000720E706E
:1056B0009A6146B10748017801F0FE020270182095
:1056C000FFF760FC01E0FFF79BFC024B1878BDE898
:1056D000FC8100BF06C0072020C0092084C307202A
:1056E000F8B51A4B05461C880E46B4F5007F1746E0
:1056F00002D1084611460AE0B4F5807F09D1084678
:1057000011462246A84706F5807007F580712246AB
:1057100019E0B4F5047F07D122F4FF72084622F0A5
:1057200001014FF400720EE0B4F5847F0CD1170A2A
:1057300008464FF480727902A847791C06F58070FC
:1057400049024FF48072A847F8BD00BF86C3072006
:1057500010B5034600295CDD93F900402D4A072966
:10576000946030DD93F901400839946093F9024068
:10577000946093F90340946093F90440946093F922
:105780000540946093F90640946093F9074008330C
:105790009460204A94696407FBD594680470946807
:1057A0004470946884709268C2701A4AD468E4069F
:1057B000FBD494680471946844719468847192680D
:1057C000C2710830C6E7032918DD93F90140043996
:1057D000946093F90240946093F903400433946019
:1057E0000C4AD468E406FBD494680470946844704E
:1057F000946884709268C2700430ABE70133013959
:10580000D46814F0100FFBD1024A926800F8012B03
:10581000A0E710BD0000034007B58DF80400080A9A
:105820000B0C8DF806008DF8071001A804218DF8E7
:105830000530FFF78DFF0EBDF7B50D4C0646402530
:10584000080CE5610B0A17468DF8050003228DF858
:10585000071001A804218DF804208DF80630FFF709
:1058600077FF30463946002203F0C6FDA561FEBD34
:1058700000C009200D4B0E4840226FF02801DA616C
:105880008160C268D106FCD4094B9B6808484FF080
:10589000FF318160C268D206FCD4054B98680306CC
:1058A000F4D5024A40219161C0B2704700C009207E
:1058B00000000340F7B5FFF7DDFF07461B481C4D0E
:1058C00081781C4C002340260288238001A8EE61C9
:1058D0008DF806100321ADF80420FFF739FF9DF87D
:1058E00005009DF806301F28AE6117D1A3F12502EF
:1058F000022A13D81049252B0B7007F0010006D19E
:1059000000280CBF4FF484734FF4807305E0002827
:105910000CBF4FF404734FF400732380054A1188C1
:10592000D1F1010038BF0020FEBD00BFB659020012
:1059300000C0092086C3072088C307202DE9F04155
:10594000064617464FEA4128FFF794FF34460025E4
:10595000C6EB0802BD42224407DA21460448FFF79D
:10596000BFFE04F500740135F2E70020BDE8F081C8
:10597000395801002DE9F041064617464FEA412803
:1059800004460025C6EB0802BD42224407DA214640
:105990000448FFF7A5FE04F500740135F2E7002086
:1059A000BDE8F081955A010008B507281CD8DFE84A
:1059B00000F00407131719191919FFF75BFF11E01D
:1059C0000A4B18782538C3B2032B9ABF084A52F8FD
:1059D000233000235B0A04E04FF40070088001E0EC
:1059E00001230B60002008BD042008BD88C30720E8
:1059F000BC59020030B591B003466C4600F1400539
:105A000018685968224603C20833AB421446F7D1DE
:105A1000064D40249B200021EC61FFF7FDFE684607
:105A20002146FFF795FEAC6111B030BD00C00920E2
:105A300070B5074D4024064600217720EC61FFF742
:105A4000EBFE30462146FFF783FEAC6170BD00BF20
:105A500000C00920084B188830F01F000BD0074900
:105A60000B78253BD9B203299ABF054A52F8211079
:105A70000021B1FBF0F0704786C3072088C30720E0
:105A8000BC590200024B1878003018BF0120704743
:105A900086C307202DE9F7434FF0FF330D469046AC
:105AA00001938146FFF7E6FEFFF7ECFF0446A0B145
:105AB000164E40271648F76101880320B1F5847F10
:105AC00014BF4FF400714FF480712943FFF7A4FE17
:105AD00001A80421FFF73CFEB7610C4E4022F261A1
