:020000021000EC
:10000000004008207F0101004D010100E1000100D6
:100010003D0101002D0101001D0101000000000053
:10002000000000000000000000000000F9AA01002C
:100030000D010100000000007DAB0100B9AB010023
:10004000FD000100FD0001009D460100FD000100D2
:10005000FD00010099910100FD00010001920100E5
:1000600069920100FD000100FD000100FD0001009A
:10007000258D0100FD000100FD000100FD000100D3
:10008000FD000100E17F0100FD000100FD00010015
:10009000FD000100298C0100FD000100FD000100B0
:1000A000FD0001007D8B0100FD000100FD0001004D
:1000B000FD000100ADAF0100FD000100FD000100E9
:1000C000FD000100FD000100FD0001004C65020083
:1000D00000C007202001000020C10720DC04000030
:1000E00004207146084200F00480EFF309800AF012
:1000F000C9BFEFF308800AF0C5BF704708B50248D2
:1001000000F0CAF9FEE700BFE25D020008B5024850
:1001100000F0C2F9FEE700BFF85D020008B5024832
:1001200000F0BAF9FEE700BF085E020008B5024819
:1001300000F0B2F9FEE700BF155E020008B5024804
:1001400000F0AAF9FEE700BF205E020008B50248F1
:1001500000F0A2F9FEE700BF2B5E020010B50023FD
:10016000934203D21C585C500433F9E710BD0023BE
:100170008B4203D200221A500433F9E7704710B5BE
:1001800014480AF0B9FD13480AF0B9FD124C134B9C
:100190009C4205D294E807000C34FFF7DFFFF6E736
:1001A0000F48844205D294E803000834FFF7DFFFCC
:1001B000F6E70DF011FB0AF0B9FD02F08BFA03F03F
:1001C000D1F84FF416400BF091F8064800F064F9AE
:1001D000FEE700BF00400820CC000100D80001006D
:1001E000E00001009D5E020008B5024800F054F9ED
:1001F000FEE700BFC65E020008B5024800F04CF9F9
:10020000FEE700BFD15E020008B5024800F044F9E5
:10021000FEE700BFE05E0200124A30B511680346F7
:1002200011B94FF08050106010680F4DC41862195A
:100230000E4D0C49AA4297BF0D480C601A180A606F
:10024000084A0C4C1168A14202D90B4810600020EA
:100250003BB10A4A116801311160094A094910602D
:100260000B6030BD24C10720FF7FFFEFFE3F07106A
:10027000FCC50720FF3F0820004008202CC10720B4
:1002800028C1072020C107200DF0E4BA0DF0E2BA22
:100290000DF0E8BA0DF0E6BA30B58BB0044668460A
:1002A0000DF024FF214D089B07982560A360606036
:1002B00058B91F491F4A0B6893428ABF03F1604334
:1002C00003F17043A3F5E82363606068B0F5803FF5
:1002D00004D900F17041A1F5E82363601448154B7F
:1002E000016800229942E26006D86D18C5F180537A
:1002F00003F58035E5600BE00F4A914208D80F48BE
:10030000C0F1804303F58012501A0028C8BFE06096
:10031000E1610B490B480A680B490368A2610A684E
:100320006361226120460BB030BD00BFFC050000B8
:1003300024C1072000800010FF3F0820FCC50720D3
:1003400028C1072020C107202CC10720FEE700009C
:10035000014B1860704700BF34C10720014B186083
:10036000704700BF30C1072008B502480DF0E0FE1D
:10037000FEE700BF1C36020008B502480DF0D8FEAB
:10038000FEE700BF363602000020704701207047AC
:10039000084B70B518680E46154640B10024AC42B3
:1003A00005DA044930570A6890470134F7E72846D0
:1003B00070BD00BF34C10720094B70B518680E46E8
:1003C000154600B970BD0024AC4206DA0448016845
:1003D0000020884730550134F6E725EAE57070BD06
:1003E00030C107207047002070470000074B196894
:1003F0008A68824207D04B68834204D0C9680A1ACF
:100400005042504170470120704700BF7CC0072018
:10041000002070470020704730B504468DB000289A
:1004200037D0684608F022FD9DF800309DF8011095
:1004300003F03F0003909DF8040001F03F029DF897
:10044000025000F01F010492BDF806009DF805203F
:1004500005F01F03069102F00F05C0F30B018AB2ED
:100460000593BDF808106B1E07939DF80330A2F2A8
:100470006C75C1F30B0203F00700089595B26B1E73
:100480000990002503A80A930B950DF04DFB84E815
:10049000210000200DB030BD10B504460AF052FB1B
:1004A000013C14F8010F18B140B20AF05BFFF8E705
:1004B000BDE810400AF058BB38B50F4C256815F060
:1004C000010516D120460AF0EFFF90B14FF40E70EF
:1004D000FFF7DAFE094B30223A2180F8345280F8D7
:1004E000352280F8361280F83752186020460AF01C
:1004F000E9FF0248006838BD40C1072044C1072019
:1005000038B5104C236813F0010517D120460AF0C6
:10051000CBFF98B14FF40E70FFF7B6FE012280F8C2
:100520003422094A31213A2380F8351280F83632D4
:1005300080F83752106020460AF0C4FF0248006875
:1005400038BD00BF58C107205CC107202DE9F0412C
:10055000ADF50A7D0E4608F055F9041E04DD0AF0DB
:100560007FFA20460AF01EF8264D05AC0FCD0FC4C9
:100570002B6810210DEB010200250AA823600495C9
:1005800009F0CCFF074604986422B0FBF2F1049115
:1005900030461D491D4A0A2308F0D4FEBD4222D030
:1005A0000AAC049B04EB4514A2690BB1B2FBF3F354
:1005B000606994F80C800090A18B029388000A2354
:1005C0000190A2FB03014FF47A7200230CF004FDAA
:1005D00005AB03900E493046626853F8283008F0A6
:1005E000B1FE0135DAE709F0B1FE102804D9304632
:1005F0000849102208F0A6FE01200DF50A7DBDE88D
:10060000F08100BF503602006F36020096360200BD
:100610009B360200B836020010B5ADF5007D0C46E1
:1006200068460AF0D1FC204669464FF0FF3208F0D8
:1006300053FE01200DF5007D10BD000030B50C46C5
:1006400091B02C49054607F0E5FF002847D008ABDC
:10065000009309A80AA90BAA0CAB0190029103927E
:1006600004932846244906AA07AB07F036FF07285B
:1006700001D000203BE09DF8390006999DF8383004
:1006800061F303008DF839000899BDF83A00079A24
:1006900061F30B0062F304030A99ADF83A009DF888
:1006A0003500099A8DF838309DF8363061F3050031
:1006B00062F304038DF835000C999DF837008DF82E
:1006C00036300B9A9DF8343061F3020062F3050373
:1006D0008DF837000DA88DF8343008F0E9FB08F0EC
:1006E00081FC06490246204608F02CFE012011B08C
:1006F00030BD00BF9E4C0200E236020031560200BF
:1007000030B589B004AB0024009302220D4603AB40
:1007100018490394049407F0EDFE022827D107A896
:10072000009005AA0398049906AB059406940794D3
:1007300004F09EF8024638B1049928460091039BC4
:100740000D4908F0FFFD10E0059A069B079C002A62
:1007500008BF0122002B08BF012328460749B4FB2C
:10076000F2F2B4FBF3F308F0EDFD012000E02046C7
:1007700009B030BD69480200FB3602001A3702009A
:100780002DE9F0410C46ADF5866D3049054607F080
:10079000CEFF2F490746284607F0F2FF2C4928468E
:1007A00008F00EF8284608F02BF80122014601A8AF
:1007B00006F0ECF8064640B1284608F021F8254935
:1007C0000246204608F0BEFD3AE00BAD314640F24D
:1007D000014228460DF0D8F8009601F051FF8046FE
:1007E00001A829464FF480626B4606F09BF990B150
:1007F00001A806F041FB8FB101F042FFB0EB080009
:1008000014BF03460123144920463246B6FBF3F3D6
:1008100008F098FD02E0009B3BB9E9E720460F494C
:100820004FF0FF3208F058FD0AE0F618E854002FA8
:10083000D6D1204629464FF0FF3208F039FDCFE7E8
:1008400001200DF5866DBDE8F08100BF483702003C
:10085000694802005137020065370200EB4E020082
:10086000F0B5C1B00DAB0025009302220C460CABD5
:100870005C490B950C950D9507F03CFE022803D1C1
:100880000D980CF09FFE05460C9808B956490C913E
:1008900016A80C9906F093FB034678B120465349FD
:1008A0000C9A08F04FFD9AE020AA802616A80EA9FF
:1008B0001492159606F0D5FB013D08B9002DF3DC26
:1008C00020464B490C9A08F03DFD00252E4680201D
:1008D00020AB15900EA916A8149306F0C2FB0028B1
:1008E00065D19DF94110002961D09DF8407007F055
:1008F0001002D3B213B10135442205E00B990E98D2
:1009000001360A180B922D2207F0020C17F0010F86
:1009100007F0040E5FFA8CF007F020070CBF2D23C0
:1009200052235FFA8EF100280CBF4FF02D0C4FF0D0
:10093000480CF8B200290CBF4FF02D0E4FF0530EAB
:1009400000280CBF2D214121BDF83C00029141122D
:10095000BDF83E7001F2BC718DE800500391C0F308
:100960004311049100F01F00F912C7F345170691D7
:100970000590079740A951F8C80D093108900991D1
:1009800020461C4908F0DEFC20461B494FF0FF3290
:1009900008F08EFC20A920464FF0FF3208F088FCBA
:1009A000204616494FF0FF3208F096FC8FE700957D
:1009B00040AD55F8D43D12493246204608F0C2FCFD
:1009C0000C9829460AAA06F07BFB40B90A9B0B99B2
:1009D0009A7820464A430B49520808F0B3FC01209C
:1009E00041B0F0BD69480200803702008337020041
:1009F000A7370200C2370200EF370200EB4E0200B9
:100A0000F33702001D38020070B50E46054607F0A8
:100A1000F7FE0446284607F0F3FE06F01EFC064AE1
:100A2000064B0749002818BF13463046224608F0F7
:100A300089FC012070BD00BFDD390200D3390200FE
:100A40003138020070B50E46054607F0D9FE04465F
:100A5000284607F0D5FE06F097FB064A064B0749E5
:100A6000002818BF13463046224608F06BFC0120D0
:100A700070BD00BFDD390200D33902004D380200DD
:100A80007FB503AB0024009302220E4602AB0F4950
:100A90000294039407F02EFD022814D1029D039CBA
:100AA0002846214606F080FC09490A4A23460028C8
:100AB00014BF104608460090074930462A4608F001
:100AC00041FC012000E0204604B070BD69480200EE
:100AD000D3390200DD3902005F38020030B58DB035
:100AE0000C46054607F08CFE0A22014602A805F0D6
:100AF0004DFF40B1284607F083FE1F4902462046BD
:100B000008F020FC35E08DF8030001901B492046D9
:100B10007E2242F2107308F015FC1949204608F0B5
:100B200011FC236820461B680DF1030142F210728C
:100B3000984718B19DF903007E2803D102A806F05A
:100B40009BF916E002A80DF10301012201AB06F0AA
:100B50008FF828B10199012902D020460949DEE722
:100B60002268204653689DF903104FF0FF329847E2
:100B7000D7E701200DB030BD773802009E38020063
:100B8000D6380200F63802002DE9F043ADF5417D7C
:100B9000002303AD2B60029302220C4600954049CE
:100BA00002AB07F0A7FC022806D020463D494FF0D3
:100BB000FF3208F091FB6EE016A8296806F0FFF9F5
:100BC00018B1204638492A6807E016A8029906F0AD
:100BD000F6F928B13549029A204608F0B3FB5AE0ED
:100BE00040A94FF4807204A807F048FC09A880A926
:100BF0004FF4807207F042FC20A8802114901591D8
:100C000016A80EA906F02DFA00283ED19DF9412024
:100C1000002A3AD09DF8405005F01003DDB2002DB7
:100C2000EAD10DF14106029A334604A8204907F0A3
:100C3000A7FE039A33461E4909A807F0A1FE04A89F
:100C400007F0DEFD804609A807F0DAFD074604A894
:100C50000E9E07F0D5FD814609A807F0D1FD2A4672
:100C600001462B460095484603F002FE1149124A00
:100C70000096002814BF1046084601900F492046F0
:100C800042463B4608F05EFBB6E709A807F00AFCBF
:100C900004A807F007FC01200DF5417DBDE8F083B5
:100CA000694802001D3902006239020087390200DA
:100CB000A7390200D3390200DD390200AD39020044
:100CC00070B50C462149054607F098FD064628B147
:100CD000FFF716FC002100F2352009E028461C49E8
:100CE00007F08CFD50B1FFF7E7FB314600F23520ED
:100CF0000A4606F0EBFB174B17491CE0284617493C
:100D000007F07CFD48B1FFF7FBFB012200F2352123
:100D100005F0ECFD124B13490DE02846124907F08F
:100D20006DFD88B1FFF7C8FB012200F2352105F007
:100D3000DDFD0E4B0E49002808BF19464FF0FF326B
:100D4000204608F0C9FA012070BD00BF343A020005
:100D50003E3A0200CC390200D63902004B3A02007A
:100D6000E3390200F3390200543A02000A3A020061
:100D7000183A020010B501200C4607F06DFB38B19F
:100D800000210A460B4608F093FF2046044901E083
:100D9000044920464FF0FF3208F09EFA012010BDB2
:100DA000603A0200763A020038B5064C236833B93F
:100DB0001C20FFF769FA054607F0AAFF25602068A6
:100DC00038BD00BF4CC107202DE9F0430C4687B069
:100DD0003C49064607F036FC3B498046304607F062
:100DE00031FC3A498146304607F02CFC0027054685
:100DF000039704970597B8F1000F1DD0304634498A
:100E000003AA04AB07F069FB022807D0204631494A
:100E10004FF0FF3208F060FA3D464FE0FFF7C4FFA5
:100E20009DF90C109DF9102008F067FB0499C2B2DF
:100E300000912046284924E0B9F1000F2BD005ABE2
:100E400000933046254903AA04AB07F046FB03286C
:100E500007D0204622494FF0FF3208F03DFA4546C0
:100E60002CE0FFF7A1FF9DF90C109DF910209DF9D2
:100E7000143008F033FB40B104981A49059A0090E9
:100E80002046039B08F05EFA17E020461649039AB5
:100E900008F058FA11E088B10226FFF785FF71B219
:100EA00008F038FB20B120461049324608F04AFAD3
:100EB0000236B6F5807FF0D100E00125284607B064
:100EC000BDE8F0838C490200903A0200963A020095
:100ED0009F3A0200AB3A0200CC3A0200ED3A02001F
:100EE000FD3A0200243B0200443B0200613B020049
:100EF0002DE9F04F5E4C93B023680E4633B92020A5
:100F0000FFF7C2F9054608F039F92560D4F80080EA
:100F1000FFF7D2FA002512A941F8105D00F2352042
:100F20000DAA06F0CDF848B90D9A0E9997699078F8
:100F3000BC1E414344434D08670800E02F46DFF8DC
:100F40003491D9F8003063B90C20FFF79DF90446BD
:100F5000FFF72AFF9022206000202271A060C9F8CC
:100F600000404449086803F071FC04460BF0EEFFB2
:100F700083460BF0D1FD014620460BF017FD3E499C
:100F80000BF01EFE0BF0E2FF0B900FA809F0C4FE61
:100F900004F084FB38B308F09DF804F067FB0024EC
:100FA0000346A146A2469C420AD020460A9304F07A
:100FB000BDFB504584BFA14682460A9B0134F2E73F
:100FC00008F09CF8642303FB0AF22C483B46B2FB72
:100FD000F0F1C1F164028DE80406304628492A4642
:100FE00008F0B0F905E0304626492A463B4608F0AD
:100FF000A9F9254C23681BB90120FFF745F92060AA
:10100000206803F0FBFB044607F0ECFF9DF841204D
:101010009DF84010019001F01F0302F00F00BDF891
:10102000422003939DF83E300290C2F30B0081B240
:1010300003F01F029DF83D009DF83C30049105929D
:1010400000F03F0103F03F02079200940691B8F8C8
:1010500018005A460890B8F81A10304609910B9BB0
:101060000A4908F06FF9012013B0BDE8F08F00BF06
:101070003CC1072048C1072000002041A086010094
:10108000813B0200B53B020050C10720C33B020078
:1010900038B5064C236833B90420FFF7F5F8054648
:1010A00001F0C8F92560206838BD00BF38C10720AD
:1010B0002DE9F0418CB00C460546FFF7E9FF80466C
:1010C000284607F09DFB31490246204608F03AF9D0
:1010D00028462F4907F093FA431C064605D12046BF
:1010E0002C4908F02FF900244BE032460021284615
:1010F00007F007FC014602A807F08BFC02A807F0E6
:10110000E3F9074630B920462349324608F01AF978
:101110003C4633E02846711C07F026FC014607A830
:1011200007F077FC07A807F0CFF9054610B920466D
:101130001A490CE002A807F065FB054607A807F06E
:1011400064FB691E0529064605D91549204608F0A5
:10115000F9F800240FE032464046C9B201F0B8F970
:1011600030460BF0C1F82A46CDE9000120460D4972
:1011700008F0E8F8012407A807F094F902A807F09E
:1011800091F920460CB0BDE8F08100BF2B3C020075
:1011900069480200303C0200463C0200733C0200F9
:1011A000933C0200AA3C020038B5FFF771FF00240F
:1011B00005460021224601F08BF9284601212246EE
:1011C00001F086F928460221224601F081F901202A
:1011D00038BD000038B5064C236833B91420FFF73A
:1011E00053F8054606F0D2FD2560206838BD00BFE3
:1011F00054C1072008B54FF0FF320846094908F0EE
:101200006BF8FFF7E7FF06F0B3FD4FF4FA6009F063
:10121000C9F94FF080430020AA221A7218700120E9
:1012200008BD00BFC13C020073B50C461449054619
:1012300007F0E4FA50B1FFF7CDFF06F099FD204624
:1012400010494FF0FF3208F047F816E0FFF7C2FFF1
:101250000646284607F0D4FA40F2051301460A4A2A
:1012600000933046094B06F06BFE284607F0C8FA9B
:1012700007490246204608F065F801207CBD00BF02
:10128000D23C0200D83C0200F13C0200643602006D
:10129000243D020070B58AB005460C4607F014F9EB
:1012A0000B2803DD20461B490C222DE0284607F0C1
:1012B000A7FA01220146684605F068FB0646284663
:1012C000EEB907F09DFA144B0168196042681349A2
:1012D0005A608068986043F8041C039A10492046BD
:1012E00008F030F8684605F0C7FD4FF47A7009F051
:1012F00059F94FF08043AA221A721E7006E007F0D7
:101300007FFA08490246204608F01CF801200AB07E
:1013100070BD00BF463D0200484002400DD0ADDE2A
:101320006D3D0200B53D020070B5414EA6B0336878
:101330000546DB070C460CD430460AF0B5F840B140
:101340004FF480600CF086FA3A49086030460AF0A3
:10135000B9F82846384907F075F9064620B3002148
:10136000802206A80CF010FB002105A8049105912D
:101370000090324906AA04AB284607F0AEF82D4A81
:10138000049B116806A8059A13B903F0FBFA01E063
:1013900003F019FB2A4A2B490346002B08BF1146CC
:1013A000204607F0CFFF32E02846274907F04AF9E8
:1013B00000283BD0284604AA244905AB049605968C
:1013C0008DF80F6007F089F8049D05982A18B2F58A
:1013D000806F0DDD20461E494FF4806210E01548F5
:1013E0009DF80F10026851559DF90F300135F61820
:1013F000049B0598E91A814205DB164920463246CE
:1014000007F0A0FF03E0B5F5806F02DBF5E70120F0
:101410000CE02268204613680DF10F014FF4FA62C8
:1014200098470028DBD120460B49BAE726B070BDAB
:1014300064C1072060C10720E03D0200E73D0200D3
:10144000CA3D0200CE3D0200F73D0200FE3D020013
:10145000083E02003C3E02002C3E020030B50C4625
:1014600087B00B49054607F06DFFA17AE07A00913D
:10147000E188019002912089A188039004916288FB
:1014800023882846034907F05DFF07B030BD00BF41
:101490004D3E0200833E02001FB501A80C4602F03B
:1014A000EFFC02F0DDF901A902462046FFF7D6FF66
:1014B000012004B010BD0000F0B58DB003AB0025D5
:1014C00000930C4617463849022202AB0295039559
:1014D00007F010F8A84239DD02980CF073F8C6B294
:1014E000039818B10DF01BF9C5B200E0054604A839
:1014F000002103F057F830B120462C494FF0FF325D
:1015000007F0EAFEF3E7003718BF0127022000903A
:1015100039463046039A2B4602F0D4FA10B92046D9
:1015200023490EE0002F3CD004A84FF47A7103F059
:1015300043F8002830D09DF81010B1422CD107E0BC
:101540001C494FF0FF3207F0C7FE2AE0284629E089
:101550009DF817200C2A04D1204606A93246FFF731
:101560007DFF2046002DEBD1134907F0EBFE9DF8DF
:1015700017309D420BDA20680CA94A19436812F90A
:10158000181C20464FF0FF3298470135EFE7204600
:101590000A4907F0D7FE04E020460949029A07F0FD
:1015A000D1FE01200DB0F0BD69480200A13E02004D
:1015B000C33E0200FF3E0200EB3E0200B5450200C2
:1015C0001C3F020038B50D4607F01CF90446C0B2B6
:1015D00002F03AF9054A064B0649002808BF1346AF
:1015E0002846224607F0AEFE012038BD423F0200E9
:1015F000D3390200493F020030B58BB00AAA4FF43C
:101600007A730C4642F8243D174906F066FF002520
:1016100002A8019902F0C6FFE0B1204613499DF8E7
:10162000082007F08FFE00259DF80F0085420BDA99
:1016300023680AA94A1912F9181C5B6820464FF062
:10164000FF3298470135EFE72046094907F07AFE57
:101650000125DDE72DB9204606494FF0FF3207F09E
:101660003BFE01200BB030BD053E0200603F020092
:10167000EA4E0200773F020037B50C4602F066FAE8
:1016800016490546204607F05DFE154920462A46C4
:1016900007F058FE2046114907F054FEDDB111490C
:1016A000204607F04FFE20460C4907F04BFE002075
:1016B000451CEDB202F034FA48B1817802784378E3
:1016C00000912046084907F03DFE2846F0E72046F5
:1016D000024907F037FE01203EBD00BF883F0200EF
:1016E000A33F0200BD3F0200D83F020038B5064CC0
:1016F000236833B94C20FEF7C7FD054607F096FB7B
:101700002560206838BD00BF68C107202DE9F04F73
:10171000ADF5757D8022044634AF894614A80021BA
:101720000CF032F90021802238460CF02DF903AE7E
:101730000023336020460096714914AA3B4606F008
:10174000CCFE032801D00020D5E00AA814A901226C
:1017500005F01CF905460028F5D1FFF7C7FF044640
:10176000306854A984F84700802205A88DF80B50F2
:10177000049506F083FE00974846624914AA336830
:1017800007F0E0FDA8460AA874A94FF4007204AB64
:1017900005F0C8F938B10AA805F06EFB05A806F0F7
:1017A00081FE0120A7E004990029F4D06F1C56495E
:1017B000049A204607F0C6FD226820469668B04786
:1017C00000267D1EB246049B20689E420DD20DF578
:1017D000E87B1BF9061043684FF0FF32204698471C
:1017E00016F90B1001368A44EDE7816820468847D8
:1017F00005A807F005F8064605A806F068FE4FF4B0
:101800007A7302463146204607F074FD01212022FA
:1018100005A806F0A0FF05A806F0F4FF50451FD06C
:1018200005A806F0EFFF394903465246484607F03F
:1018300089FD3749204607F085FD206881682046EC
:1018400088472268204613680DF10B014FF47A7225
:1018500098470028F5D1781C022F9CD80746A6E7A8
:10186000049A2C490092434634AA204607F06AFDA8
:1018700026682046B368984705A806F0C1FF0646CB
:1018800005A806F024FE314602464FF47A7320463E
:1018900007F030FD05A8204906F0AAFED0B905A83A
:1018A00006F0AEFF1D490246484607F04BFD1849B9
:1018B000204607F047FD216820468A689047236844
:1018C00020461B680DF10B014FF47A7298470028EF
:1018D000F5D1C0E705A8124907F090F8049811491E
:1018E0008044424648460D9B07F02CFD002D3FF4F6
:1018F0004AAF013D47E70DF5757DBDE8F08F00BFAC
:10190000F33F020002400200194002002B40020097
:10191000EA4E020052400200684002006B400200A2
:10192000EB4E0200A34002002DE9F04186B006AA6A
:101930000026074642F80C6D0D463C4906F0CDFDE9
:1019400038460121202206F006FF039B002B63D0BE
:10195000384606F0B9FD00285ED0FFF7C7FE8DF8C7
:101960000B60044620680DF10B0106680522204635
:10197000B04706460028F5D10399384684F8471049
:1019800006F03EFF4FF0FF320146204607F0A4FC70
:10199000226820469768B847254B05961868374651
:1019A0000490216820460B684FF47A720DF10B0108
:1019B000984770B105A8411C03220BF0CBFF9DF89E
:1019C0000B8005A804A904228DF817800BF0AAFF4C
:1019D00038B91821B7FBF1F301FB13726AB1013377
:1019E0000BE028684FFA88F1436801222846013746
:1019F00098470028D5D10136D3E728460D493A4605
:101A000007F0A0FC76B1612000900B4928463246D1
:101A10000A4B07F097FC05E0284609494FF0FF32D2
:101A200007F05AFC012006B0BDE8F081053E020037
:101A3000493E0200AF400200D64002008F41020042
:101A4000CB41020043682DE9F041994204460D461E
:101A500017D3C06889000CF0F5FBA668E060B700FA
:101A6000AE420DD21020FEF70FFC0021102280465E
:101A70000BF08AFFE068013640F807800437EFE793
:101A80006560BDE8F08100002DE9F743304D074661
:101A90002C688946002C49D12420FEF7F5FB04234D
:101AA000064680E818008460C46008214FF00108F1
:101AB000FFF7C8FF86F8208030462649264A274B84
:101AC00000942E6005F062FF28682549254A264BC0
:101AD000009405F05BFF28682449254A254B0094B3
:101AE00005F054FF28682449244A254B009405F04A
:101AF0004DFF28682349244A244B009405F046FFF3
:101B000028682349234A244BCDF8008005F03EFF86
:101B100028681F49214A224B009405F037FF0094A2
:101B200028682049204A214B05F030FF38462049DB
:101B300006F064FE18B138461E4906F05FFF044BFC
:101B4000394618684A4603B0BDE8F04305F0EEBFD9
:101B50006CC1072029190100F7410200FE41020073
:101B60000D1701003842020041420200F915010040
:101B70009542020098420200C5150100404602004D
:101B8000BB4202007916010001430200E542020057
:101B9000B91401004A43020008430200494302000D
:101BA0004E430200991401008E4302007343020069
:101BB000EB4E02009443020037B590F904501446EE
:101BC00000934AB223462946006807F092FC3EBDC6
:101BD00010B5044694F904102D220823006807F07C
:101BE0007DFC206894F904103122082307F076FC6C
:101BF000012010BD10B504462246084606233221B6
:101C0000FFF7DAFF204610BD08B5034693F904102C
:101C100020220F23006807F061FC012008BD38B5C1
:101C200004460D460846224628210123FFF7C4FF3B
:101C300028462921621C0123FFF7BEFF28462A21DE
:101C4000A21C0123FFF7B8FF28462B21E21C012329
:101C5000FFF7B2FF28462C21221D0123FFF7ACFF1E
:101C600028462D21621D0123FFF7A6FF204638BD1F
:101C7000014B0360704700BFA8430200012070477A
:101C80000120704701207047014B0360704700BF7F
:101C9000A8430200034B10B504460360FEF7F8FAB0
:101CA000204610BDA8430200034B10B50446036054
:101CB000FEF7EEFA204610BDA843020038B50446F0
:101CC000C06B0C4920F000400BF036F978B9216C5C
:101CD00021F0004007490BF02FF940B9A06C0649EC
:101CE00001250BF029F900B90546E8B238BD0120FD
:101CF00038BD00BF21B0B23E000040410146002285
:101D0000406B3C31134608F0A4B838B5FFF7C0F972
:101D1000002405460121224600F0DAFB2846002176
:101D2000224600F0D5FB284602212246BDE8384075
:101D300000F0CEBB2DE9F84F0446FFF7A9F9E66B9A
:101D400005466A4930460BF0F7F888B167493046D6
:101D50000AF02CFE20F000400AF0C6FA02460B46BC
:101D60000AF016FB0AF0CEFD4FF00008824610E0A4
:101D70005E4930460AF01AFE20F000400AF0B4FA3C
:101D800002460B460AF004FB0AF0BCFD4FF0000AC5
:101D90008046266C564930460BF0CEF880B1554946
:101DA00030460AF005FE20F000400AF09DFA024697
:101DB0000B460AF0EDFA0AF0A5FD00F100470EE02F
:101DC0004C4930460AF0F4FD20F000400AF08CFA4D
:101DD00002460B460AF0DCFA0AF094FD0746606CF6
:101DE00020F000400AF080FA02460B460AF0D0FAD2
:101DF0000AF088FDD4F848B0666D814631465846F1
:101E00000BF07CF820B1206D3B490AF0D1FD08E0D1
:101E1000584631460BF090F820B1206D36490AF053
:101E2000C5FD2065354950460AF0C2FD216D0AF016
:101E3000C7FE334906460BF061F830B930463149E8
:101E40000BF07AF810B12F4E00E02D4E32462846A6
:101E5000012100F03DFB2C4940460AF0A9FD216D0F
:101E60000AF0AEFE264906460BF048F830B9304677
:101E700024490BF061F810B1224E00E0204E3246AA
:101E80002846002100F024FB204938460AF090FD46
:101E9000216D0AF095FE1A4904460BF02FF830B96F
:101EA000204618490BF048F810B1164C00E0144CCD
:101EB00022462846022100F00BFB154948460AF04D
:101EC00077FD002104460BF019F830B9204611497E
:101ED0000BF032F810B10F4C00E00024284603212B
:101EE0002246BDE8F84F00F0F3BA00BFE3A51B3D62
:101EF0001B2F5DBD1B2F5D3D0AD7A33B0000444255
:101F00000000104100008C4200002C42000068429A
:101F1000000038420000C84238B5C36C0446591C62
:101F2000C164FFF7EBFEE56C192DCCBF002001204A
:101F300084F8390068B994F8382052B92046FFF780
:101F4000BDFE84F8380058B9E02D0DDC2046FFF7BF
:101F5000F1FE94F8381051B106480CF0E9F806E0AB
:101F60002046FFF7D2FEF4E700236365EEE7012089
:101F700038BD00BFF843020070B50546FFF788F88A
:101F80000026C823EB61044685F8386085F839607F
:101F9000EE64314600F072FA0121204600F06EFA3C
:101FA0000221204600F06AFA0321204600F066FA7A
:101FB0000D494FF07E502865696500252046314661
:101FC0002A4600F085FA204601212A4600F080FAD0
:101FD000204602212A4600F07BFA20460321034ACC
:101FE00000F076FA012070BD0000C04000004842B9
:101FF000014B0360704700BFA8430200034B10B5BC
:1020000004460360FEF744F9204610BDA8430200D1
:10201000F7B5A74D0446AB6943F40020A8610A2038
:1020200006F007FDE969684641F40022EA61A16C07
:10203000FFF7E0FD009EBDF80470E16C2665684680
:10204000A4F85470FFF7EBFD009DBDF80430C4F810
:102050005650A4F85A30B4F956000AF05DFD0AF063
:1020600043F90022934B0AF0BDFA0022924B0AF08A
:10207000B9FA8BA3D3E900230AF08AF90AF042FCEB
:102080008E490AF09DFD0146A06B0AF091FCA06309
:10209000B4F958000AF040FD0AF026F90022854BF9
:1020A0000AF0A0FA0022844B0AF09CFA7CA3D3E940
:1020B00000230AF06DF90AF025FC80490AF080FD42
:1020C0000146E06B0AF074FCB4F95A60E0633046F4
:1020D0000AF0F8F8002221F00041794B0AF0E8FB01
:1020E000D8B130460AF018FD0AF0FEF80022714B14
:1020F0000AF078FA0022704B0AF074FA68A3D3E968
:1021000000230AF045F90AF0FDFB6C490AF058FD7E
:102110000146206C0AF04CFC20646A4A10680AF000
:10212000E3F861A3D3E900230AF032F90022664BF9
:102130000AF058FA0AF0E6FB216F07460AF036FC6F
:10214000624920F000400AF0D9FE08B127676764B1
:10215000B4F952000AF0B6F80546B4F954000E4638
:102160000AF0B0F802460B462846314609F084FCD6
:102170000AF0C8FBE065B4F950000AF0A3F8054680
:10218000B4F954000F460AF09DF802460B46284663
:10219000394609F071FC0AF0B5FB05462066B4F932
:1021A00050000AF08FF80746B4F9520021F00046BB
:1021B0000AF088F821F0004E84467346624638469D
:1021C000314609F033FF0646B4F954000F460AF0D1
:1021D00079F821F0004C03461A46304663463946EA
:1021E00009F024FF0AF06EFBA4F86C00B4F9560065
:1021F0000AF092FC0AF078F800222E4B0AF0F2F96D
:1022000000222D4B0AF0EEF925A3D3E900230AF0B2
:10221000BFF80AF077FB29490AF0D2FCA16B0AF05B
:10222000C7FB2B490AF0CCFC2A490646E06D0AF0B0
:10223000C7FC014630460AF0BBFBA063B4F9580066
:102240000AF06AFC0AF050F800221A4B0AF0CAF9A8
:102250000022194B0AF0C6F911A3D3E900230AF0B2
:1022600097F80AF04FFB15490AF0AAFCE16B0AF057
:102270009FFB17490AF0A4FC1649064628460AF0B7
:102280009FFC014630460AF093FB0022E06304F114
:102290003801606B134607F00BFD0120FEBD00BF47
:1022A0004AD8124DFB210940B81E85EB51B8BE3FFC
:1022B00020C0092000408F40008066400AD7A33B21
:1022C00000406F4078C1072000806240000040401D
:1022D00048E17A3F0AD7A33C38B51A4C63685A00E4
:1022E00011D51948416801F001024260E36843F0EA
:1022F0008040E060216901F080422261636943F01F
:102300008040606138BDA068430019D50E4DA868B3
:102310000AF0FEFBE2680D4942F080430860E3608A
:10232000686840F0010169606A6842F002036B600E
:10233000606900F080416161226942F0804323615D
:1023400038BD00BF808002400040094078C10720AE
:1023500038307047052370B50446C3610020A06380
:10236000E0632064606410210022012007F06FFC0C
:102370002B496063D1F8C42042F40006C1F8C46060
:10238000D1F8AC3103F48040C1F8AC01A1F5D02103
:102390004A6842F001064E604B6843F00200486014
:1023A000A1F5D021CA681F4B02F0C006CE601868A4
:1023B0001D4E40F4002119601C4A1E20002106F029
:1023C0006BFC33684FF0804222674BB90820FDF761
:1023D0005BFF0546FEF7E8FC2860A7202871356002
:1023E0001149134E0A683368A2644BB90820FDF7FF
:1023F0004BFF0546FEF7D8FC2860D32028713560D6
:102400000B49A06C0A68E264FFF7E2FB28B1E06CBC
:10241000FFF7FAFB08B1012070BD002070BD00BFBE
:1024200000C00F4020C0092070C10720D922010040
:1024300074C1072070B500260546066001210620FC
:102440000D4C08F075FD0121062008F089FD0223DE
:10245000FF2263602260636108F0FAFE3221B0FB64
:10246000F1F00923A0616360A660226F284622F084
:102470000F01216770BD00BF00800140026805297F
:1024800030B542F0010202D90260002030BD0123C4
:102490004C1C03FA04F52A43026001FA03F00324FA
:1024A00004FA00F403FA00F0093103FA01F1074AD3
:1024B000156925EA04041461146920431061A2F52A
:1024C000A032D06C0143D164184630BD00C0024038
:1024D000F8B517460C46054608F0BAFE0AF018FB98
:1024E0001349064638460AF01FFC12490AF068FBF9
:1024F00010490AF05DFA014630460AF061FB0AF025
:102500004BFD0D4B052C0FD8DFE804F00305070940
:102510000B0DD86108E0186206E0586204E0186408
:1025200002E0586400E098642A681A65F8BD00BFAC
:102530000000C8426F12833A0080014038B50D4652
:10254000044608F085FE074B0221B0FBF3F0B0FB18
:10255000F1F2954201D3216138BDB1F5807FFAD007
:102560000231F4E740420F0001480BF0E1BD00BF2B
:10257000784402007FB500F235260D46012231462F
:1025800004F0B4F9C4B24CBB04A941F8044D304680
:1025900002AA04F095FDF8B9029A03999469937818
:1025A000A21E5A435943540840F2E73348089C425C
:1025B0000F49104B8CBF4FF48062012288BF0B463D
:1025C000B0FBF2F18DE80A000B482946B4FBF2F2A9
:1025D0000BF096FD012008E0084B00E0084B09488D
:1025E000294662B20BF08CFD002004B070BD00BF24
:1025F000B2440200AF440200BC440200B5440200F1
:10260000B9440200EA44020038B5AA224FF08043E0
:1026100055201A72187208F091F9174C02284FF0E1
:1026200000014FF00100D4E9002317D1121843EB49
:102630000103C4E9002308F01DFDD8B108F00CFD2A
:10264000D4E900010A2200230AF0C6FC0A25A0FBF7
:10265000052305FB0133C4E9002338BD121843EB01
:102660000103C4E9002301F0B1FF0020BDE83840B8
:1026700008F048BB38BD00BF88C10720FFF7C4BFC2
:10268000024BD3E9002310461946704788C1072042
:1026900038B5084D2B684BB90820FDF7F5FD044609
:1026A000FEF782FB2060402020712C600149086801
:1026B00038BD00BF80C1072038B5054C256825B955
:1026C0000120FDF7E1FD05702060206838BD00BFE6
:1026D0007CC10720664A674970B54023664D4FF0BC
:1026E00000704FF480348B6190618C612E68ADF581
:1026F000047D26F0F0032B60286840F050042C6025
:102700002E6826F440532B60086840F040040C60AB
:102710002E6826F47C232B60286840F428242C6043
:102720002E6826F470032B60286840F420042C6087
:102730002E6826F040432B60286840F000442C604F
:102740006E6826F03C036B60686840F028046C609B
:102750006E6826F003036B60086840F480340C60F8
:102760006E6826F440536B60086820F480040C60A7
:10277000E96821F44036EE60136843F08070106021
:102780006C6824F4402169606E683C4C46F48023F8
:102790006B60A8680440AC60116841F4897646F02B
:1027A00001031360A86820F47014AC60A96821F0DC
:1027B0007046AE60136823F446401060EC6824F065
:1027C0003001E960EE6846F03003EB60E86820F421
:1027D0007014EC60156845F000711160166826F001
:1027E0008063136008F01CFA4FF4FA6006F03DF9BC
:1027F000FFF7BAFE08F02CFD0AF08AF920490AF02A
:1028000093FA09F071FD02460B461E480BF078FC66
:1028100008F07CFA042811D100221B4805920568B3
:102820001A4E04AC0495FFF79FFEF16C1848326D08
:10283000736D00940BF064FCFFF796FE0C200121F1
:1028400008F076FB134C0C20032108F089FB4FF4B1
:102850000011216008F0FCFC0223C0080E4AB0FB06
:10286000F3F595421AD8266846EA0321216019E05B
:1028700020C0092000C0092000C00240F0FCFCFF7D
:1028800000247449284502004440024000400240B0
:1028900040450200004003403F5DC6000233B3F5EF
:1028A000807FDBD10A20012108F042FB0A200121B0
:1028B00008F056FB9B48072502240560012144606F
:1028C000FFF73CFE06F096FB1520012108F030FBD7
:1028D0001520012108F044FB934801210560446064
:1028E000FFF72CFEFEF760FA642106F0DBF910B961
:1028F0008E480BF01DFC01F02FFE10B98C480BF038
:1029000017FC01218B4808F07BFBFDF7D5FD8A49B8
:10291000FFF730FE0646B8B988480BF0F1FBFDF72B
:10292000CBFD3146324600F2352004F0CFFD844B1A
:10293000844A002814BF104618460BF0F9FBFDF737
:10294000BBFD7D49FFF716FE7F4C206810F00105A6
:1029500017D1204608F0A8FD98B14FF40E70FDF78E
:1029600093FC7A4A012131263A2380F8341280F808
:10297000356280F8363280F837521060204608F011
:10298000A1FD724C72492068FFF7F4FD18216548DB
:10299000FFF7D4FDFFF7E8FDFFF78EFE002101F001
:1029A00005FFFFF775FE6B4D0646286858B90C20E9
:1029B000FDF76AFC0446FEF7F7F99021002320603A
:1029C0002171A3602C60634A106801F03FFF0AF098
:1029D000BDFA41B2304601F0C9FE00235E4804A9A9
:1029E00007220493059301F0ACFFA8B904A80AF0EC
:1029F000E9FDC6B2751EE8B2FD2805D904A9564AFC
:102A000056480BF07DFB07E055483146524A0BF023
:102A100077FB304600F018FF524C216819B90120AD
:102A2000FDF732FC2060206801F0E8FE0646002039
:102A30000DF090F830180BF099FB4FF40072002164
:102A400004A80AF0A1FF04A808F0BEFA04A94648A9
:102A50000BF056FBFFF788FD8022002104A80AF046
:102A600093FF04A802F0F0FD9DF91020531C05D03F
:102A700004A9D2B23D480BF043FB2FE03C4D2B683C
:102A80001BB90120FDF700FC2860286801F0B8FEA2
:102A900009281DD137480BF04BFB04A936480BF031
:102AA00099FC04A935480BF02BFB35480BF040FB93
:102AB0000020039003A933480BF08CFC9DF90C40D7
:102AC000592C03D104A802F0A1FD07E02E4803E031
:102AD0002E480BF02DFB2E480BF02AFB4FF208017D
:102AE0000E684A684FF20403B50A960A4FF4704222
:102AF0008C681268196827480BF002FB2A46314699
:102B000025480BF0FDFA214624480BF0F9FAFFF7AF
:102B10002BFD23480BF00CFBFFF726FD0DF5047D84
:102B200070BD00BF0000034000800840B8450200AF
:102B3000E9450200092601000E4602001646020081
:102B40001D4502002245020058C107205CC1072034
:102B5000023A020048C107203F46020045460200F3
:102B60007046020050C10720315602009D46020007
:102B700084C10720B9460200DB460200E04602009D
:102B8000FB4602003E470200424702005A4702004D
:102B900088470200BA470200E647020013480200D5
:102BA0003048020001207047F8B591E860000F7AC4
:102BB00014468FB1082A0FD1304605F085FC002855
:102BC0001BDD28460E494FF0FF3206F071FB304600
:102BD000012105F080FD08E00A2C05D00D2C03D062
:102BE0003046214605F066FE4FB12B6828465B68EB
:102BF00021464FF0FF329847F8BD0724F5E7F8BDAE
:102C0000684802002DE9FF41CE6B04460D4601AF36
:102C10005EB94FF47A7007F0C5FC31460C22384695
:102C20000AF0B2FE97E807005EE00B6C01F1340693
:102C3000186807C887E8070000278DF80370EA6B5B
:102C400097422DD2F368511E53F827008F420CBFD4
:102C50000522002200684FEA87080179002949D03F
:102C600003680DF103011B689847002842D0B26841
:102C7000974241D2F16851F8080001AB07C883E8D8
:102C8000070019469DF903202846FFF78DFFFFF73F
:102C9000F7FCD5E92223121843EB0103C5E92023F1
:102CA000029805F011FC0746029805F010FC421E40
:102CB000974216DAD5E92201014320D0FFF7E0FC64
:102CC000D5E92023994208BF904218D3FFF7D8FCDA
:102CD000D5E92223121843EB0103C5E92023002381
:102CE000019304A810E9070084E80700204604B017
:102CF000BDE8F0810137A2E706F11000BDE79DF9BC
:102D000003100A29EDD0002799E70000F0B5054629
:102D100085B020480BF0F4F901A82946FFF772FFAF
:102D2000019C1CB91C480BF003FA30E0029E3046AF
:102D300005F0CAFB00282ADDFFF7A2FC0746F8B120
:102D4000B5F874303146581CA5F87400224605F1D8
:102D5000500004F0EBFE114900250A680092236838
:102D60001DF905105B6820464FF0FF32013598478A
:102D7000042DF4D1FFF784FCC11B09480BF0C0F906
:102D8000304605F0A6FB2068816820468847012070
:102D900005B0F0BD6B480200EB4E02004448020053
:102DA0007148020038B5064C236833B92020FDF77E
:102DB0006BFA054606F0E2F92560206838BD00BFD1
:102DC0003CC1072010B50446FFF7ECFF036821461D
:102DD0005B684FF0FF32984740B210BD13B5002337
:102DE00002AC04F8013DFFF7DDFF01684FF0FF3250
:102DF0000B68214698479DF907001CBD38B505466C
:102E000000246B68E8689C4205D250F82400FDF766
:102E10003FFA0134F5E708B1FDF73CFA284638BD22
:102E20000D4B70B5044640F8503BFFF7E7FF04F147
:102E3000340600257068854206D2F26852F82500F3
:102E4000FDF726FA0135F5E7206C08B1FDF722FA07
:102E500002492046216070BD50480200A84302008C
:102E600010B50446FFF7DCFF2046FDF711FA2046B7
:102E700010BDF8B54368044699420D4615D3C068A5
:102E800089000BF0DFF9A668E060B700AE420BD214
:102E90000C20FDF7F9F9E268002101604160017240
:102EA0000136D0510437F1E76560F8BD2DE9F041F6
:102EB0000446142016468846FDF7E6F980210746A9
:102EC00005F00BFDA36BE26B9A4205D3616B04F135
:102ED00034005918FFF7CDFFE56B206C50F8253012
:102EE0000135C3F800805F601E72E563BDE8F081C4
:102EF0002DE9F04100F150048AB000250646009506
:102F000020466249624A634B04F040FD009520462A
:102F10006149624A624B04F039FD009520466149DF
:102F2000614A624B04F032FD009520466049614AD7
:102F3000614B04F02BFD009520466049604A614BCF
:102F400004F024FD009520465F49604A604B04F080
:102F50001DFD009520465F495F4A604B04F016FD59
:102F6000009520465E495F4A5F4B04F00FFD0095D7
:102F700020465E495E4A5F4B04F008FD00952046FE
:102F80005D495E4A5E4B04F001FD009520465D49B7
:102F90005D4A5E4B04F0FAFC009520465C495D4AB0
:102FA0005D4B04F0F3FC009520465C495C4A5D4BA8
:102FB00004F0ECFC009520465B495C4A5C4B04F055
:102FC000E5FC009520465B495B4A5C4B04F0DEFC67
:102FD000009520465A495B4A5B4B04F0D7FC0095AC
:102FE00020465A495A4A5B4B04F0D0FC00952046D3
:102FF00059495A4A5A4B04F0C9FC00952046594990
:10300000594A5A4B04F0C2FC009520465849594A87
:10301000594B04F0BBFC009520465849584A594B7F
:1030200004F0B4FC009520465749584A584B04F028
:10303000ADFCFFF7B7FE4FF4806320224FF416413A
:10304000054606F079F8012780462F715148FDF7B3
:1030500085F95148FDF77CF9304629463A46FFF795
:1030600025FF082203A905A805F008FA05A84B4981
:1030700005F0C4FC05A92A46204604F057FD05A822
:1030800005F010FA40460AB0BDE8F0814D05010098
:10309000D14802008748020019060100BE4802001C
:1030A000C6480200F10E0100E4480200D6480200C2
:1030B0003D0601002C490200EB4802008107010097
:1030C000314902003549020001070100D4490200DC
:1030D00091490200890B0100D3490200D74902003F
:1030E00061080100224A0200254A0200090A010083
:1030F000534A0200594A0200810A01007E4A020036
:10310000814A0200DD0A010046630200AE4A020065
:10311000450A0100D34A0200D64A0200C90D010047
:10312000F94A0200FD4A0200C10C0100A44B020052
:10313000AC4B0200F5110100EF4B0200F64B020010
:1031400029120100094C02000D4C0200750D01000E
:10315000434C0200494C0200891A01000546020056
:10316000714C0200B11001009B4C0200A24C020005
:10317000A9110100C44C0200C94C0200291301002E
:10318000CD4D0200D94C020095120100453A0200D3
:10319000964D0200DD2D0100C52D01009443020073
:1031A00073B500244FF480520B460094184906462C
:1031B00005F038F9174B042533607563B463F46385
:1031C000346406F134000221FFF753FE356574655F
:1031D000B465F46506F150001821FEF733FCA6F83B
:1031E0007440A6F87640B4670B4C002200230025FB
:1031F000012086F87000C6E92023C6E92245FFF7C2
:103200003FFA001941EB0501C6E9200130467CBDBB
:10321000D24D020050480200C0D401002DE9F04117
:10322000804690B046480AF083FF04A8D8F84810BA
:10323000FEF7E0FCBDF9100009F044F80022414B14
:1032400009F0A6F80022404B09F0CCF904460D46DF
:1032500006A8D8F84810FEF7CDFCBDF91A0009F011
:1032600031F80022374B09F093F80022364B09F071
:10327000B9F906460F4608A8D8F84810FEF7BAFC78
:10328000BDF92400CDE9006709F01CF800222D4BA0
:1032900009F07EF800222C4B09F0A4F922462B46B7
:1032A000CDE9020129480AF02BFF0AA8D8F84C10F2
:1032B000FEF7B5FC0CA8D8F84C10BDF92860FEF755
:1032C000AEFCBDF932700EA8D8F84C10FEF7A7FC82
:1032D0003A46BDF93C3031461D480AF011FF4046E0
:1032E000FFF736F8006808F0FFFF02460B46194862
:1032F0000AF006FF4046FFF72BF8406808F0F4FF9D
:1033000002460B4614480AF0FBFE4046FFF720F841
:10331000806808F0E9FF02460B4610480AF0F0FE0C
:103320004046FFF715F8C06808F0DEFF02460B467E
:103330000B480AF0E5FE4FF4FA7007F033F971E735
:103340008F4402000000104000408F40F74D020003
:10335000194E0200334E0200464E0200594E020042
:103360006C4E0200F0B5742085B0FCF78DFF00258F
:1033700022494FF4805202230095044605F052F88A
:103380001F4B58202360676BFCF77EFF01234FF42F
:1033900080521C490095064605F044F81A487763A8
:1033A00030609020FCF770FF01210746FFF7F8FE20
:1033B000384604F0F9FF204604F0F6FF304604F0EA
:1033C000F3FF12490127234601914FF480520097E1
:1033D000029503950E490F4806F09CFE2946384693
:1033E00004F0F2FF2268204653689847306841682D
:1033F000304688474FF0FF3005B0F0BD6F4F0200F8
:1034000040440200804F02002044020090C1072087
:10341000934F02001D32010038B5074C236833B9C1
:103420001C20FCF731FF054605F072FC2560226880
:103430000248026038BD00BF4CC1072094C107207C
:1034400030B500238B420DD044783CB1048C4FF64C
:10345000FF751419AC4228BF2C4604840133DBB23B
:103460002430EFE730BD000037B50E49002302A835
:103470004A6840F8043D042190470B4B05461C6800
:1034800001980421041B186022460848FFF7D8FF62
:10349000022107482246FFF7D3FF281C18BF01204E
:1034A0003EBD00BF98C1072080C20720ACC10720E5
:1034B00085C2072008B50B4B01781A780A4B914258
:1034C00003D119880131198002E09988013199806E
:1034D0008270064A2021D3689847003018BF012027
:1034E00008BD00BF05C0072054C2072098C10720AF
:1034F0000A4B027819780A4B8A4203D1DA88511CA8
:10350000D98002E01A89511C19810379C3F3C202E0
:10351000511E61F3C5030371FFF7CCBF05C007203F
:1035200054C2072010B50023064A990012F8234020
:10353000844201D1501810BD0133042BF4D1002076
:1035400010BD00BF6FC2072070B1C378591CCAB24A
:10355000FF2AC27008D100230448C218D17804336E
:103560004808102BD070F7D1704700BF6FC20720FA
:10357000F0B503460246044600258D4207D020469A
:10358000243414F8236CC6B10135EDB2F5E7002000
:1035900004468C4210D01579178CC5F3C20547EA52
:1035A0000545A842164624BF05461E460134E4B22E
:1035B000243228463346ECE71846F0BD38B50131D1
:1035C0000446CD00FFF750FF1B4B20781A7882424B
:1035D00004D102211948FFF7CBFF0CE00421184861
:1035E000FFF7C6FFE17831B990F8235045F080032A
:1035F00080F82330042590F82310002221F07F0367
:1036000080F8225043EA152580F8202080F82120F8
:1036100080F823502346024604F1200153F8044B5E
:103620008B4242F8044BF9D1064A0379117861F3D1
:10363000C503037138BD00BF05C0072085C2072040
:10364000ACC1072004C0072010B5FFF76BFF04468C
:1036500008BBFFF767FF0446E8B9104AD378D17971
:10366000994202D20B46111D00E01146D07AD47B5C
:10367000984238BF0A490B4A38BF03469C422CBFC8
:103680000C4614462046002104220AF07DF9064B20
:10369000D97A481CD872204610BD00BF6FC20720DF
:1036A00077C207207BC2072054C207202DE9F041D2
:1036B000054690460C460027474500F0BE8094F82A
:1036C000233003F08000C1B269B3BDB12B786278BA
:1036D000934203D16878217888421ED0E87868B197
:1036E0006978914208D122789A4205D1A879A179C6
:1036F000421A5342534100E0002373B994F8232047
:1037000094F82210208C02F07F0341EA03218842C2
:10371000C0F28F802046FFF7CDFE204600212422F4
:103720000AF032F985E06378002B00F08280002DEA
:103730003DD02A7902F0C000C0281AD16A782178D9
:10374000914202D128789842E7D0E078A97888425F
:1037500010D1934209D120782A78904205D1A079DE
:10376000AA79811A4842414100E000210029D4D1C0
:1037700000E0E0B1A978E278914218D168789842E7
:1037800009D121782A78914205D1A179AA79881A9C
:103790004142484100E0002048B12279002161F314
:1037A000C50284F8201084F82110227141E094F8B9
:1037B000232094F82200218C02F07F0240EA0220AC
:1037C000814236DB21790026C1F3C20284F82060F1
:1037D00084F82160D6B21EB12046FFF789FE28E0AA
:1037E00001F0C000C02818D0154920780978884217
:1037F00013D1E078984210D078B16379E270032257
:1038000062F3071363712046FFF772FE0D482179BA
:10381000037863F3C501217100E001266078FFF7AA
:1038200081FE18B1002104220AF0AEF8002E7FF4C8
:1038300074AF0137FFB224343EE7BDE8F08100BF2A
:1038400005C0072004C00720431ED9B2FD2903D8B4
:10385000024A1070012070470020704705C0072001
:10386000014B1878704700BF05C0072007289CBF90
:10387000014B1870704700BF04C007202DE9F743C3
:103880000446914698469DF828600D46002958D078
:103890002F4B1F78B94254D0B8F10F0F51D80028E0
:1038A00051D0202200210AF06FF8FF2D207914BF9B
:1038B00009F00302002262F38710032161F3020082
:1038C000244B20711A78277062F3C50020712248BA
:1038D000A77001780BAF4B1CDAB20270A271657051
:1038E00001970EB9012613E00198013E0346426894
:1038F000E07953F8081B8718FFB2182F0193F6B22E
:1039000005D8083020180AF01CF8E771E9E700260E
:10391000124F012128463970FFF704FE0546FFF7D4
:1039200013FE00223A70637925B968F307136371B7
:10393000E57009E0A87860F3071363716978E170B6
:1039400002E0002600E006463046BDE8FE8300BFE8
:1039500005C0072004C0072062C2072060C20720FC
:10396000164B70B501261E70044608B900251FE0ED
:10397000FFF7A0FD05460028F8D0207900F0C0012F
:10398000402903D0B1F1800256425641C02906D1E8
:10399000E3782BB16078C31A18BF012300E000233D
:1039A0000EB9DB0704D5617920460909FFF706FE49
:1039B000024B00221A70284670BD00BF60C207206B
:1039C00082B0F0B51746421E0446D0B28DB0FD2835
:1039D0000D46139301D900205AE0002BFBD0159B14
:1039E000002BF8D017990029F5D0169A002AF2D0AA
:1039F00014980028EFD000214822284809F0C4FF7D
:103A000000219022264809F0BFFF002110222548FE
:103A100009F0BAFF244E00210C22244809F0B4FF1B
:103A200000210C22224809F0AFFF3470214C224EB5
:103A30002570344613AD0FCD0FC42B68002118221A
:103A40001E48236009F0A0FF394617221B480AF0E0
:103A5000A8FE0020B268014690470028BBD09DF820
:103A6000601011B9FFF700FD12E01548062201238E
:103A700001900292009304A8FF210022FFF7FEFEAE
:103A80000028A8D004A8FFF76BFF0028A3D0E9E71F
:103A90000DB0BDE8F04002B0704700BF85C20720FE
:103AA000ACC107206FC2072005C0072063C20720F2
:103AB00054C2072061C2072098C107203CC20720DA
:103AC0009D4F020070B5182B8CB006460D4617D8D6
:103AD0001C1C18BF0124002A14BF214684F00101D8
:103AE00071B101920293009404A831462A469DF8D0
:103AF0004030FFF7C3FE18B104A8FFF731FF00E024
:103B000000200CB070BD13B50446107852790B46F6
:103B10001109009122460321FFF7D4FF1CBD0000CC
:103B200030B500231A4608499C0011F823502DB1E6
:103B3000904201D1081930BD0132D2B20133042BB9
:103B4000F1D1002030BD00BF6FC20720002318460E
:103B5000044A995C09B10130C0B20433102BF7D18B
:103B6000704700BF6FC207202DE9F04188B068465A
:103B70000021202209F008FFA14B1C78002C40F006
:103B80003B81A0482021026968469047002800F048
:103B900087809D4D69884B1C6B80FFF7D7FFA8720B
:103BA0009DF8042002F00700032804D097490A7802
:103BB00042F0010009E0964D9DF802102D78A942CF
:103BC00005D192490B7843F002000870E6E0C2F399
:103BD000C2019DF800709DF806005FFA81FE032285
:103BE00062438C4EB318B65CBE420AD15A78824208
:103BF00007D19A789970B2EB0E0618BF01260124FE
:103C000017E00134042CEAD1834C23689970814970
:103C1000587001F1090083421F7040F0CC80216090
:103C20009DF800009DF80220824240F0C7800024E9
:103C300026469DF80200FFF707FD9DF80210002CB4
:103C400008BF012601709DF802200021427081709A
:103C5000F6B2FFF779FC1EB39DF80000A84200F011
:103C60009C809DF80160FF2E1CD1664820210368CE
:103C70006846984720B9654C227842F004012170CB
:103C80009DF8053003F00F04601C1A4660F3030230
:103C9000B4EB131F8DF8052002DA6846FFF70AFC23
:103CA00000247BE0B5422CD16CB99DF8070050B1DF
:103CB000544B68461A682021904720B9534C21780C
:103CC00041F0040020709DF8043003F0C002402A47
:103CD00012D19DF8071011B95048182108E04A4840
:103CE0000C216A46FFF70FFF002856D1002001463D
:103CF0006A46FFF708FF50E09DF80340002C4CD1C6
:103D0000F4E7474C2378002BCAD09DF8054004F017
:103D10000F082709B845C3DA3046FFF703FC9DF8C2
:103D2000032008F1010868F3030495428DF805406B
:103D30001DD19DF8045005F0C004402C05D0B4F10D
:103D400080014B4253EB010200E0012208B14578AB
:103D500000E00546C02C05D1AE4203D02C1C18BF94
:103D6000012400E0002444EA020530B90AE0A2B9C7
:103D700010B9684639460EE0154641788DF80310B3
:103D8000847802E08DF8030004466846FFF792FB52
:103D90001DB168462146FFF711FC6C46FFF764FB36
:103DA000204604221F49FFF781FC20461E490222BB
:103DB000FFF77CFC20E0DE1C266031E785423FF403
:103DC00036AFFFF741FC0446FFF7BEFB23783BB15B
:103DD0009DF80510A67801F00F00B0423FF727AF1D
:103DE0009DF8002022709DF8023063709DF8051048
:103DF000C1F30300A0701AE708B0BDE8F08100BF6E
:103E000060C2072098C1072054C2072084C207203F
:103E100005C0072063C2072000C007203CC207205E
:103E200061C20720ACC1072085C2072000231846C5
:103E3000094AD1184A780AB10130C0B22433902B14
:103E4000F6D1064B597809B1421CD0B293F825300F
:103E50000BB10130C0B27047ACC1072085C207204A
:103E600008B5FFF75FFB054B20B180781978421C3D
:103E7000D00001E019781820484308BD04C007208D
:103E8000034A11680160516892684160826070471E
:103E900054C2072030B5404C4FF48035E5613F4CAB
:103EA000A060E068C006FCD43C488068C0B2002B2B
:103EB0006CD00B46002A5CD0384C93F90050072A8E
:103EC000A56030DD93F90150083AA56093F90250DE
:103ED000A56093F90350A56093F90450A56093F988
:103EE0000550A56093F90650A56093F90750083373
:103EF000A5602A4CA5696D07FBD5A5680D70A5685E
:103F00004D70A5688D70A468CC70244CE568ED06F2
:103F1000FBD4A5680D71A5684D71A5688D71A46865
:103F2000CC710831C6E7032A18DD93F90150043A31
:103F3000A56093F90250A56093F903500433A5607E
:103F4000164CE568ED06FBD4A5680D70A5684D70AC
:103F5000A5688D70A468CC700431ABE70133013AD9
:103F6000E56815F0100FFBD10C4CA46801F8014B6B
:103F7000A0E7094B4FF480329A6140B230BDE5684A
:103F800015F0100FFBD1054C0133A4689342F0DA11
:103F9000CD56024CA560F2E700C009200080084021
:103FA00007B5002302A9012201F8013D00F01F001E
:103FB0001346FFF76FFF9DF907000EBD07B502AB73
:103FC00003F8011D00F01F0019460122002340F0F4
:103FD0002000FFF75FFF0EBD08B51720FFF7E0FFD9
:103FE000C0F3001008BD07207021FFF7E7BF0346AC
:103FF0000A466FF05F0019460023FFF74BBF08B574
:104000000020FFF7CDFF20F0010149B20020BDE8FC
:104010000840FFF7D3BF0000024B4FF08072DA6117
:10402000704700BF20C0092008B50020FFF7B8FF87
:1040300040F0010149B20020FFF7C0FF024B4FF0F2
:1040400080729A6108BD00BF20C00920072020218E
:10405000FFF7B4BF00216FF01E000A460B46FFF7C2
:1040600019BF000037B505460C46FFF7F3FF284699
:104070002146FFF7BCFF0D4B4FF0807200209A6184
:10408000ADF80600BDF806104A1C93B2ADF8063034
:1040900033B906494FF08070C861FFF7DBFF3EBDC2
:1040A000FFF79AFF0028EDD0F3E700BF20C00920FA
:1040B00008B51720FFF774FF00F0010080F0010041
:1040C00008BD07204021FFF779BF08B503460A461F
:1040D000612019460123FFF7DDFEC0F3420008BD51
:1040E00000216FF01D000A460B46FFF7D3BE70B5E6
:1040F000044600200D461646FFF752FF14B100F0AB
:10410000BF0102E040F04000C1B215B101F0DF0292
:1041100001E041F0200216B102F0EF0301E042F0AD
:104120001003002059B2BDE87040FFF747BF10B53B
:1041300004460020FFF734FF14B900F0F7020DE049
:10414000012C04D100F0FB0040F0080206E0022C34
:1041500014BF40F0080140F00C01CAB2002051B277
:10416000BDE81040FFF72ABF08B50020FFF718FF91
:1041700040F0020149B20020BDE80840FFF71EBF31
:1041800008B50020FFF70CFF20F0020149B2002023
:10419000BDE80840FFF712BF40F6DD13984206D88D
:1041A00040F66211B0F5166F38BF084600E01846B9
:1041B000A0F1600251B20520FFF700BF10B5044620
:1041C0000620FFF7EDFEFA2C00F0D70102D141F0F6
:1041D000200104E0B4F5FA6F08BF41F008010620A1
:1041E00049B2BDE81040FFF7E9BE10B5044606200D
:1041F000FFF7D6FE032C34BF2146032100F0F9005F
:1042000040EA410251B20620BDE81040FFF7D6BE99
:10421000F9284FF0FA0305D9B0F57A6F28BF4FF4AB
:104220007A6000E01846B0FBF3F0421ED3B20F29CB
:1042300028BF0F2141EA0311042049B2FFF7BEBE97
:104240001130C0B2162806D8202928BF202140B23C
:1042500049B2FFF7B3BE7047032804D004280CBF4F
:104260000221032100E001210320FFF7A7BE03463E
:104270000A46302019460023FFF70CBE03460A46C3
:104280002A2019460023FFF705BE000073B5044637
:104290000E461546FFF724FFFFF7DCFE2A4B4FF0D2
:1042A0008072DA61FFF76CFF00210A460120FFF7F8
:1042B0001EFFFFF798FE0220FFF739FF3046FFF799
:1042C0006BFF2846FFF77AFF0320FFF78EFF0220DF
:1042D0000321FFF773FE01200021FFF76FFE03218A
:1042E0004FF4FA70FFF794FF00202146FFF7A8FF74
:1042F00012200021FFF762FE13200021FFF75EFE6F
:1043000014200021FFF75AFE15200021FFF756FE6A
:1043100016200021FFF752FE0C4908680A79009028
:1043200005208DF80420FFF797FF68460521FFF769
:104330009EFF68460521FFF7A1FFFFF715FF4FF429
:10434000FA6004F076FB7CBD20C00920A44F020077
:10435000042938B5054603D1041C18BF012400E028
:104360000024FEF78DF904B12860204638BD000016
:1043700007B5084B002102AA186842F8041D0B4635
:1043800005F02EFD019818B103494FF080520A60E4
:104390000EBD00BFD8C2072004ED00E070B50023B9
:1043A0008AB001930646007901AA00F0C001C02935
:1043B0000CBF0F490F4900230D683146284605F010
:1043C0000FFD044658B9224602A9284605F0C2FD51
:1043D00023462846314601AA05F002FD0446019A0B
:1043E0001AB1054B4FF08050186020460AB070BDDE
:1043F000D0C20720D4C2072004ED00E010B5194C4C
:10440000226822B90320202105F021FC2060164CEF
:10441000226822B90120202105F019FC2060134CEC
:10442000216821B90120032205F011FC2060202021
:1044300040F6C3114FF4FA62FFF728FFFFF7F4FDCF
:10444000162001210A4A04F027FC064B186838B1EF
:104450000548006820B105490A68101C18BF0120F2
:1044600010BD00BFD4C20720D0C20720D8C2072089
:10447000714301002DE9F34180460F46164606F0D0
:104480005DFA022807D1324640463946002305F03E
:10449000E0FCC6B213E000230193FEF7F1F88419A3
:1044A00041F100054046394601AA05F053FDC6B268
:1044B0002EB9FEF7E5F88D4208BF8442F2D270B201
:1044C000BDE8FC8137B504460D46FFF7C9F92378EE
:1044D00083420AD0E07840B909F074FE00F003018D
:1044E000481CBD22504304F0A4FAFFF795FDFFF7E6
:1044F00086FD2046A9B2FFF7B5FDFFF7A7FDFFF740
:1045000093FD06F01BFA02280ED1084B002102AAE7
:10451000186842F8041D0B4605F062FC019818B1BA
:10452000034A4FF08051116001203EBDD8C20720E0
:1045300004ED00E038B504460D46FFF7B9FD48B17B
:10454000A9B22046FFF7C1FDFFF7B2FD08B9FFF79A
:10455000B8FD012038BD000000B50C4B0C488DB0F3
:104560000C490D4A09930B900CAB002043F8102D19
:104570000A9104900FCB8DE80F00084B6A200121AF
:10458000074AFFF71DFA0DB000BD00BFFD43010053
:1045900035450100C5440100514301009D43010020
:1045A000A94F02000A460349034608681946FFF767
:1045B00061BF00BFD4C207200A460349034608680A
:1045C0001946FFF757BF00BFD0C2072008B506F055
:1045D000B5F90F4B0228586912D142020CD5FFF7EA
:1045E00025FC0C4900280CBF4FF0FF32012208685F
:1045F00000210B4605F02DFCBDE80840FFF7B4BADA
:104600004302F9D5FFF712FC0028F5D108BD00BF21
:1046100000C00920D8C2072010B506F093FA0C4B51
:104620001A6822F0E06020F0FF0119601C6844F075
:1046300004021A60186840F0807119605C68002CF0
:10464000FCDA034B5C6806F08FFAC4F30B1010BD64
:104650000040034030B504464DB2006894F90410A0
:1046600053B22A46BDE8304004F038BF1FB50022DF
:1046700004AB90F9044023F8042D4AB202210091C2
:104680000068214604F035FF9DF90C009DF80D30BF
:1046900082B243EA022188B204B010BD234910B5AA
:1046A0000A680B4612F010020ED08868C830886184
:1046B0001F490A881F2A05D8DC6A1E4840F8224094
:1046C00001320A8010202EE00B68D9072CD518483B
:1046D0000088012822D9174B411E04338A4207DA89
:1046E00053F8041C1C680132611A43F8041CF3E7F8
:1046F000104A002350681A4600EB50008B420BDA38
:104700000C4C54F82340844203D9012404FA03F4E6
:10471000224301339BB2F1E707490A60044B0022B0
:104720001A80024B0120186010BD00BF00800040BD
:10473000E0C20720E4C20720DCC20720044A08B513
:1047400001F07F034171D25C0321FFF783FF08BDB5
:10475000AE4F0200044A08B501F07F038171D25CBC
:104760000221FFF777FF08BDAE4F0200642370B54A
:1047700091FBF3F404FB13110A224CB294FBF2F602
:1047800002FB164303F1300149B20546FFF7E2FF91
:10479000092C02DC2846202103E006F130022846DD
:1047A00051B2BDE87040FFF7C9BF0000124B01F0E5
:1047B0000F0140F2131201709A610178CA0701D506
:1047C0000122DA61037803F00201CAB212B10A4B86
:1047D0000221D961027802F00401CBB213B106497B
:1047E0001022CA61007800F00803DAB21AB1024858
:1047F0004FF48071C161704720C00920FFF70CBFE2
:10480000044B5969C1F38130C1F3412242EA80006F
:10481000704700BF20C0092038B500210446FFF7CB
:1048200025FF0121812285B22046FFF713FF1023C7
:1048300028B290FBF3F008F06FF94FF0765108F0D2
:10484000BFF9A16808F0B4F838BD000008B5FFF75B
:10485000E3FF054908F0B4F9044908F065FA4FF0A0
:10486000844108F0A5F808BD000010410000A040F8
:104870002DE9F04F0546ADF5177D0C46914602A88F
:10488000294601229A4602F081F88346002853D136
:104890000CA821460A2202F079F8834608B102A842
:1048A00037E000900190064607468046FDF7E8FE97
:1048B00016A904464FF4007202A86B4602F032F9C2
:1048C0008346A8B9009A9AB1FDF7DAFEB8EB040264
:1048D00068EB080300EB0208FDF7D2FE009A0446DD
:1048E0000D460CA816A901AB02F0C2F9834698B197
:1048F000B9F1000F01D0C9F80080BAF1000F01D062
:10490000CAF80070A09901B10E6002A802F0B4FAD2
:104910000CA802F0B1FA0FE0019900988142E7D1AA
:10492000FDF7AEFE4FF0FF321440C7193F1B009C4D
:1049300000231D403619B9E758460DF5177DBDE82F
:10494000F08FF0B504468DB00F46164621461D4641
:1049500002A800230122019302F018F8044670B95E
:104960001DB102A8294602F09FFA02A83946324634
:1049700001AB02F0D7F8044602A802F07DFA204607
:104980000DB0F0BDF0B504468DB00F461646214679
:104990001D4602A800230A22019301F0F7FF0446F6
:1049A00070B91DB102A8294602F07EFA02A8394664
:1049B000324601AB02F05CF9044602A802F05CFA50
:1049C00020460DB0F0BDF0B504468DB00F4616463A
:1049D00021461D4602A800231222019301F0D6FFB2
:1049E000044680B902A80DB1294600E0059902F0FD
:1049F0005BFA02A83946324601AB02F039F90446A7
:104A000002A802F039FA20460DB0F0BD7F2816D971
:104A100031B1FF2812D80A49803831F810007047A8
:104A2000074A8BB232F81120824203D0013180292B
:104A3000F6D10B4603F18000C0B2704700207047EA
:104A40000E5202000023064A32F8131031B1884298
:104A500001D00133F7E7034830F81300704700BF77
:104A60000E5302002E50020010B501200C4605F036
:104A700090F92060003018BF012010BD0120704760
:104A800010B5044605F05AFF02280AD100210B4652
:104A9000204640F6B83205F0DCF9431E5842584132
:104AA00010BD012010BD10B5044605F047FF0228D7
:104AB00007D1002120460A460B46BDE8104005F00C
:104AC000F7B810BD10B5044604F004FB24B1012C66
:104AD00006D100F05BFB01E000F0F8FC044600E0CA
:104AE000042404F00BFB204610BD20B1012801D1A5
:104AF00000F044BB04207047F8B504460F46164644
:104B00001D4604F0E7FA3CB1012C0CD13846314681
:104B10002A4600F0E3FA04E0384631462A4600F01F
:104B200019FD044600E0042404F0E8FA2046F8BD2C
:104B3000F8B504460F4616461D4604F0CBFA3CB1C4
:104B4000012C0CD1384631462A4600F067FA04E0C1
:104B5000384631462A4600F019FD044600E0042498
:104B600004F0CCFA2046F8BD70B504460E46154652
:104B700004F0B0FA34B1012C0AD13046294600F0D5
:104B800027F903E03046294600F01AFD044600E00C
:104B9000042404F0B3FA204670BD000010B50446AA
:104BA00006F056FB074BB0FBF3F10223B1FBF3F227
:104BB000944202D30448036110BDB3F5807FF9D05D
:104BC0000233F3E740420F0000000340044B9860BB
:104BD000DA68D206FCD40248816848B2704700BF48
:104BE0000000034038B5FDF74BFD00F5FA754FF0B6
:104BF000FF30FFF7EBFF4FF0FF30FFF7E7FFC4B2E6
:104C0000FF2C07D0FDF73CFD2A460023994208BF40
:104C10009042F0D3204638BD38B5064C4FF00075B1
:104C2000E561FFF7DFFF044BA5611A7842F0010050
:104C3000187038BD20C0092006C0072070B5054691
:104C40000E46FDF71DFD00F164044FF0FF30FFF745
:104C5000BDFFC0B2FF2809D1FDF712FD2246002397
:104C6000994208BF9042F0D3002070BDFE28FBD1CE
:104C7000102E06D928464FF40071002204F0C8F91E
:104C800018E02C464FF0FF30FFF7A0FF20704FF0E8
:104C9000FF30FFF79BFF60704FF0FF30FFF796FF8C
:104CA000A0704FF0FF30FFF791FFAB19E0700434B4
:104CB000A342E7D14FF0FF30FFF788FF4FF0FF30FE
:104CC000FFF784FF012070BD38B505460C46FFF79D
:104CD00089FFFF281ED160B2FFF778FFFD2C1BD0A3
:104CE0004FF400714FF0FF32284604F091F94FF075
:104CF000FF30FFF76BFF4FF0FF30FFF767FF4FF01C
:104D0000FF30FFF763FF00F01F00411F4A4252EBE4
:104D1000010038BD002038BD012038BD38B504463B
:104D200020060D4607D577200021FFF7F7FF012861
:104D30003BD804F07F041D4B4FF000729A61DA619A
:104D4000FFF750FFFF282FD160B2FFF73FFF281673
:104D5000FFF73CFF45F30740FFF738FF45F3072017
:104D6000FFF734FF68B2FFF731FF402C04D0482C26
:104D70000CBF8720012000E0952040B2FFF726FFFE
:104D80004C2C03D14FF0FF30FFF720FF0A244FF0E7
:104D9000FF30FFF71BFF01460029C0B205DA013CD6
:104DA00014F0FF04F3D138BDFF2038BD20C0092026
:104DB000054A064913784869410154BF03F0FD03D1
:104DC00043F003031370704706C0072020C009207A
:104DD0007FB505460C46FFF7EBFF052D18D121786E
:104DE000012900F00F810AD3022940F00981884887
:104DF000426982F08063C3F38061617002E1844C98
:104E0000606910F0806440F0FD80FFF705FFF9E075
:104E1000804B1878C00700F1F7800E2D00F2EA8071
:104E2000DFE815F00F00190054005800E800E80012
:104E3000E800E800E800E800B200B700B900C300ED
:104E4000D40073484FF00071C161FFF7CBFEFF380B
:104E500018BF0120CFE049200021FFF75FFF054682
:104E600008B10120C7E068461021FFF7E7FE0028DF
:104E7000F7D09DF800109DF808308A09012A07D163
:104E80009DF80910481C00EB03239AB2930246E0F8
:104E90009DF80700810001EB93129DF80630501C2D
:104EA0009DF8052003F0030100EB812302F00F00C1
:104EB0009DF80A109DF8092000EBD11002F00301C3
:104EC00000EB4100C21F03FA02F328E04FF4007028
:104ED00020805CE0504D2B7803F00400C1B209B390
:104EE000CD200021FFF71AFF0028BAD14FF0FF3084
:104EF000FFF76CFE68461021FFF7A0FE0028B0D037
:104F000030254FF0FF30013DFFF760FE15F0FF0543
:104F1000F7D19DF80A001022010902FA01F323607B
:104F2000284668E04920FFF7F9FE0646002898D198
:104F300068461021FFF782FE002892D0297801F000
:104F40000202D0B29DF80A1080B101F03F009DF836
:104F50000B10CA099DF80D1002EB40038A09581C7A
:104F6000531E00FA03F02060304644E09DF80B30F9
:104F7000C1F38402511C03F003025B0903EBC2027C
:104F8000531C4B43236036E023490A7822700020EB
:104F900031E0492000E04A200021FFF7BFFE002851
:104FA0007FF45FAF204610211DE07A200021FFF73B
:104FB000B5FE00287FF455AF05464FF0FF30FFF7F0
:104FC00005FE60550135042DF7D1E0E7CD20002125
:104FD000FFF7A4FE00287FF444AF4FF0FF30FFF747
:104FE000F5FD20464021FFF729FED0F1010038BF32
:104FF000002000E00420064B4FF000729A6104E0AC
:10500000042002E0002000E0032004B070BD00BFD7
:1050100020C0092006C0072064C3072070B51446CD
:1050200005460E46FFF7C4FE002C4AD0284B1A78DE
:10503000D20748D4187800F00401CBB2002B44D139
:1050400024484FF000722449C2610B7803F0080233
:10505000D0B200B97602012C0DD158203146FFF7AD
:105060005DFE30BBFE212846FFF72EFED0F1010485
:1050700038BF00241DE013F0060F03D0D7202146CF
:10508000FFF74CFE59203146FFF748FE88B9284605
:10509000FC21FFF719FE28B1013C14F0FF0405F5CF
:1050A0000075F4D10020FD21FFF70EFE002808BF97
:1050B0000124084B4FF00071201C996118BF01209A
:1050C00070BD042070BD032070BD022070BD00BF04
:1050D00006C0072020C0092064C3072070B514460D
:1050E00005460E46FFF764FE002C3CD0204B187896
:1050F000C1073AD41F494FF000721F4BCA6118789C
:1051000000F00802D1B201B97602012C0ED1512073
:105110003146FFF703FEF0B928464FF40071FFF760
:105120008DFDD0F1010438BF002414E05220314637
:10513000FFF7F4FD78B928464FF40071FFF77EFDC4
:1051400028B1013C14F0FF0405F50075F3D14C20A3
:105150000021FFF7E3FD074B4FF000709861201C22
:1051600018BF012070BD042070BD032070BD00BFBA
:1051700006C0072020C0092064C3072008B5FFF738
:1051800017FE014B187808BD06C007202DE9F34132
:10519000FFF70EFE554B1A7802F00200C1B200294B
:1051A00040F0A0800120FFF7F9FC0A244FF0FF3007
:1051B000013CFFF70BFD14F0FF04F7D14C4B4FF00F
:1051C00000764020DE612146FFF7A8FD012801D0CE
:1051D000002674E0FDF754FA4FF4D57100F57A77A4
:1051E0004820FFF79BFD012841D14FF0FF30FFF72A
:1051F000EDFC01AA10550134042CF6D19DF80600EF
:105200000128E5D19DF80710AA29E1D1FDF738FA68
:105210003C460025A94208BFA04206D3FDF730FA5C
:10522000A94208BFA042D3D207E0E9204FF0804155
:10523000FFF774FD0028E9D1F0E77A200021FFF79D
:105240006DFD0028C4D104464FF0FF30FFF7BEFCCF
:1052500001AE30550134042CF6D19DF8043003F032
:105260004002D0B200280CBF04260C2627E0E9201B
:105270002146FFF753FD01288CBF012602268CBF73
:105280004FF041084FF0E908FDF7FAF93C460025D8
:10529000A94208BFA0420BD3FDF7F2F9A94208BF0B
:1052A000A0420CD350204FF40071FFF737FD06E009
:1052B00040460021FFF732FD0028E5D1ECE70D491B
:1052C0000B4B4FF000720E709A6146B1074801789F
:1052D00001F0FE0202701820FFF760FC01E0FFF70A
:1052E0009BFC024B1878BDE8FC8100BF06C007207C
:1052F00020C0092064C30720F8B51A4B05461C8856
:105300000E46B4F5007F174602D1084611460AE062
:10531000B4F5807F09D1084611462246A84706F514
:10532000807007F58071224619E0B4F5047F07D13B
:1053300022F4FF72084622F001014FF400720EE0E1
:10534000B4F5847F0CD1170A08464FF480727902B5
:10535000A847791C06F5807049024FF48072A8476F
:10536000F8BD00BF66C3072010B5034600295CDD09
:1053700093F900402D4A0729946030DD93F90140EC
:105380000839946093F90240946093F90340946063
:1053900093F90440946093F90540946093F90640B2
:1053A000946093F9074008339460204A9469640735
:1053B000FBD5946804709468447094688470926813
:1053C000C2701A4AD468E406FBD4946804719468E5
:1053D0004471946884719268C2710830C6E70329E9
:1053E00018DD93F901400439946093F90240946008
:1053F00093F90340043394600C4AD468E406FBD468
:105400009468047094684470946884709268C27060
:105410000430ABE701330139D46814F0100FFBD12D
:10542000024A926800F8012BA0E710BD000003407B
:1054300007B58DF80400080A0B0C8DF806008DF8EE
:10544000071001A804218DF80530FFF78DFF0EBD70
:10545000F7B50D4C06464025080CE5610B0A1746CA
:105460008DF8050003228DF8071001A804218DF89E
:1054700004208DF80630FFF777FF304639460022CA
:1054800003F0C6FDA561FEBD00C009200D4B0E480E
:1054900040226FF02801DA618160C268D106FCD435
:1054A000094B9B6808484FF0FF318160C268D20603
:1054B000FCD4054B98680306F4D5024A402191615B
:1054C000C0B2704700C0092000000340F7B5FFF7E5
:1054D000DDFF07461B481C4D81781C4C00234026ED
:1054E0000288238001A8EE618DF806100321ADF833
:1054F0000420FFF739FF9DF805009DF806301F28AE
:10550000AE6117D1A3F12502022A13D81049252B29
:105510000B7007F0010006D100280CBF4FF4847314
:105520004FF4807305E000280CBF4FF404734FF470
:1055300000732380054A1188D1F1010038BF002093
:10554000FEBD00BFEE54020000C0092066C3072064
:1055500068C307202DE9F041064617464FEA412867
:10556000FFF794FF34460025C6EB0802BD422244F3
:1055700007DA21460448FFF7BFFE04F50074013541
:10558000F2E70020BDE8F081515401002DE9F0411F
:10559000064617464FEA412804460025C6EB080296
:1055A000BD42224407DA21460448FFF7A5FE04F570
:1055B00000740135F2E70020BDE8F081AD5601002E
:1055C00008B507281CD8DFE800F0040713171919DD
:1055D0001919FFF75BFF11E00A4B18782538C3B2A1
:1055E000032B9ABF084A52F8233000235B0A04E0D9
:1055F0004FF40070088001E001230B60002008BD1B
:10560000042008BD68C30720F454020030B591B0EF
:1056100003466C4600F1400518685968224603C2EB
:105620000833AB421446F7D1064D40249B2000219D
:10563000EC61FFF7FDFE68462146FFF795FEAC6181
:1056400011B030BD00C0092070B5074D402406469A
:1056500000217720EC61FFF7EBFE30462146FFF793
:1056600083FEAC6170BD00BF00C00920084B1888E4
:1056700030F01F000BD007490B78253BD9B2032926
:105680009ABF054A52F821100021B1FBF0F0704793
:1056900066C3072068C30720F4540200024B187841
:1056A000003018BF0120704766C307202DE9F7437B
:1056B0004FF0FF330D46904601938146FFF7E6FE1B
:1056C000FFF7ECFF0446A0B1164E40271648F761DD
:1056D00001880320B1F5847F14BF4FF400714FF4AB
:1056E00080712943FFF7A4FE01A80421FFF73CFEC7
:1056F000B7610C4E4022F26182202946FFF798FEE6
:1057000048464146012203F083FC3CB1019B02A8BC
:10571000591C40F8041D0421FFF726FE4020B0610B
:10572000BDE8FE8300C0092066C30720F7B5114B12
:1057300007461E884FF0FF30B6F5847F14BF4FF444
:1057400000764FF480760190FFF7A8FF60B10A4C15
:105750004025032046EA4721E561FFF769FE01A8DD
:105760000421FFF701FEA5610198B0F1FF3F08BFDA
:105770000020FEBD66C3072000C009201FB501A898
:1057800003F074FB9DF809209DF8083002F00F012A
:105790009DF8062003F01F004B0543EA004002F08D
:1057A0001F0140EAC1239DF805009DF8041000F098
:1057B0003F0243EA4210BDF80A20C1F344035106F8
:1057C000184301F10843184305B000BD10B500238C
:1057D000D41A032C03D9CC58C4500433F8E702F090
:1057E000030422F00302801800238A18A34203D086
:1057F000D15CC1540133F9E710BD8218904202D048
:1058000000F8011BFAE7704770B5164B00242246DA
:1058100053F8085C65B10668B5420AD153F8046CC8
:105820008568AE4205D11E88C588AE4201D105E02B
:10583000012401320C33032AEAD10CE049B90A49A8
:105840000C2000FB02135A89B2F5807F01D00020A2
:1058500070BD102070BD002CF9D10229F7D01220A4
:1058600070BD00BF74C307206CC3072070B51F4A0A
:105870000668002352F8084CB44208D152F8045C80
:105880008468A54203D11588C488A54210D001338D
:105890000C32032BEED1164A1368F3B90C255D4385
:1058A000541956518268C08862600022208162814A
:1058B0000F4A0C2000FB0322508929B108B10020B7
:1058C00070BD4FF4807201E0411C8AB208490C207F
:1058D00000FB03104281581C70BDD36823B193694B
:1058E000002BECD10223D9E70123D7E774C30720AB
:1058F0006CC307200138022813D80C490C2202FB84
:1059000000135B89B3F5807F03D01BB1013B9BB2D1
:1059100000E00023504309184B8123B9034A135078
:1059200001E0022070470020704700BF6CC30720D1
:10593000002310B5044618464208E15C42EAC01054
:10594000013342180B2B02F0FF00F5D110BD0368A4
:10595000024613B94FF0FF30704793F9000030381A
:10596000082808D893F901103A2904D102330128F4
:10597000136001DDEEE700207047F8B503690C46BF
:1059800001F1090163B3436900229D5C01326EB2EB
:10599000202E1BD0052E08BFE525092A02D12E276F
:1059A00001F8017BEEB2A6F14107192F0CD81F7B3D
:1059B000082A94BF4FF0080C4FF0100C1CEA070F98
:1059C0001CBF06F12005EDB201F8015B0B2ADCD10A
:1059D000DD7A25721E8BDA69A680DB8A2260E3807D
:1059E00000250D70A669EEB1016909B9002517E01F
:1059F000E269002AFAD0818C4FF6FF739942F5D004
:105A0000076A37F8150058B10021FEF7FFFF00289C
:105A1000ECD0E269511E8D42E8D270550135F0E7B5
:105A200000207055F8BDF8B504460079F8B1256B33
:105A300004F13407607839462A460123FFF778F8E5
:105A4000A0B9636A2071E069EA1A824201D300209A
:105A5000F8BDE678012EFAD9E16960786D182A461A
:105A600039460123FFF764F8013EF3E70120F8BD52
:105A7000F8B50446FFF7D7FF05466DBB2378032B27
:105A800022D16679012E1FD104F134073846294608
:105A90004FF40072FFF7B1FE10494AF655206163DA
:105AA0000F4A216A6369A4F832022069C4F81822F7
:105AB0004A1CC4F81C32C4F82002226360783946BC
:105AC0003346FFF735F86571002160780A46FFF725
:105AD0004BF8003018BF0120F8BD00BF52526141A1
