:020000021000EC
:10000000004008207F010100FD000100E100010027
:100010000D0101001D0101002D0101000000000083
:1000200000000000000000000000000081A10100AD
:100030003D0101000000000005A2010041A20100F5
:100040004D0101004D010100353D01004D01010050
:100050004D010100358801004D0101009D8801001E
:10006000058901004D0101004D0101004D01010014
:10007000918301004D0101004D0101004D0101007E
:100080004D010100ED7601004D0101004D0101001F
:100090004D010100818201004D0101004D0101006F
:1000A0004D010100C98101004D0101004D01010018
:1000B0004D01010035A601004D0101004D01010077
:1000C0004D0101004D0101004D010100DC5602000F
:1000D00000C00720F8000000F8C00720FC03000063
:1000E00004207146084200F00480EFF309800AF012
:1000F0000FBBEFF308800AF00BBB704708B502484E
:1001000000F0CAF9FEE700BFB24F020008B502488E
:1001100000F0C2F9FEE700BFBD4F020008B502487B
:1001200000F0BAF9FEE700BFC84F020008B5024868
:1001300000F0B2F9FEE700BFD34F020008B5024855
:1001400000F0AAF9FEE700BFE04F020008B5024840
:1001500000F0A2F9FEE700BFF04F020010B5002347
:10016000934203D21C585C500433F9E710BD0023BE
:100170008B4203D200221A500433F9E7704710B5BE
:1001800015480AF0FDF814480AF0FDF8134C144B1A
:100190009C4207D294E803000C3454F8042CFFF777
:1001A000DDFFF4E70F4B9C4205D294E80300FFF714
:1001B000DEFF0834F6E70CF057FC0AF0FBF801F01C
:1001C000CDFD02F0C9FB4FF416400AF0E1FB0648F2
:1001D00000F062F9FEE700BF00400820CC000100FB
:1001E000D8000100E00001006D50020008B502488F
:1001F00000F052F9FEE700BF9650020008B5024831
:1002000000F04AF9FEE700BFA150020008B502481D
:1002100000F042F9FEE700BFB0500200134A70B58B
:100220001168034611B94FF08051116010681049F0
:10023000C518104E2944B14298BF0F480B4C96BFC9
:1002400019182560216011680C4A914203D90C49A4
:10025000064A002011603BB10A4A11680131116061
:10026000094A1060094A136070BD00BFFCC0072036
:10027000FF7FFFEFFE3F0710F4C40720FF3F082079
:100280000040082004C1072000C10720F8C0072053
:100290000CF026BC0CF024BC0CF02ABC0CF028BCE2
:1002A00010B58AB0044668460DF080F8204B214A0C
:1002B0002360089B2049A360079B636053B90B68C8
:1002C0001E4883428ABF03F1604303F17043A3F5E4
:1002D000E82363606368B3F5803F04D903F170439A
:1002E000A3F5E82363600023E3600B6813498B42A6
:1002F00005D8C2F1405202F50C22D21A09E0104989
:100300008B4207D8C2F1804202F58012D21A002A2D
:1003100000DDE260E3610B4B20461B68A3610A4BE2
:100320001B686361094B1B6823610AB010BD00BFE5
:10033000F4040000F4C40720FCC007200080001073
:10034000FF3F082000C10720F8C0072004C1072094
:10035000FEE70000014B1860704700BF0CC107208A
:10036000014B1860704700BF08C1072008B502485C
:100370000DF064F9FEE700BF8C29020008B50248C1
:100380000DF05CF9FEE700BFA629020000207047CF
:1003900001207047F8B5084B15461A680E461F46EF
:1003A0003AB10024AC4204DA30573A68904701343D
:1003B000F8E72846F8BD00BF0CC10720F8B5094B87
:1003C0000E46186815461F4650B10024AC4205DAA7
:1003D0003A680020904730550134F7E725EAE57088
:1003E000F8BD00BF08C1072070470020704700001B
:1003F000074B1B689A68824207D05A68824204D031
:10040000DB681B1A5842584170470120704700BFF3
:100410007CC00720002070470020704730B504469C
:100420008DB0002835D0684608F054F89DF80030AB
:10043000002503F03F0303939DF8013003A803F068
:100440003F0304939DF802300B9503F01F030593BF
:100450009DF8043003F01F0306939DF8053003F068
:100460000F03013B0793BDF80630C3F30B03A3F260
:100470006C7308939DF8033003F007030993BDF8EC
:100480000830C3F30B03013B0A930CF049FC84E8EA
:10049000210000200DB030BD10B5044609F096FED5
:1004A000013C14F8010F18B140B20AF0ADFAF8E7B8
:1004B000BDE8104009F09CBE70B50F4C0F4D26688A
:1004C00016F0010615D120460AF042FB88B14FF420
:1004D0000E70FFF7DDFE302280F835223A2280F8D8
:1004E000346280F8362280F83762286020460AF0AD
:1004F0003DFB286870BD00BF30C1072014C1072034
:1005000070B50F4C0F4D236813F0010616D120462D
:100510000AF01EFB90B14FF40E70FFF7B9FE0122F6
:1005200080F83422312280F835223A2280F83622AF
:1005300080F83762286020460AF018FB286870BDF2
:100540002CC1072010C107202DE9F043ADF50B7D2C
:100550000E4607F0E1FC041E04DD09F0C7FD20464D
:1005600009F062FB05AF264D3C460FCD0FC42B684A
:1005700010210DEB010200250AA82360049509F063
:100580007DFB049B6422B3FBF2F3049380461D4978
:1005900030461D4A0A2308F025FA0BAC454520D009
:1005A000049B13B16269B2FBF3F32169626994F8A9
:1005B00008900091218B0A20890001910293A2FBEF
:1005C000000100234FF47A720BF05EFE03900F4996
:1005D000304654F8202B57F8293008F003FA01353B
:1005E000DCE709F0F9F9102804D93046084910224F
:1005F00008F0F8F901200DF50B7DBDE8F08300BF90
:10060000C0290200DF290200062A02000B2A02008C
:10061000282A020010B5ADF5007D0C4668460AF0A8
:1006200017F8204669464FF0FF3208F0A3F9012081
:100630000DF5007D10BD000030B50C4691B02C4981
:10064000054607F071FB002847D008AB009309ABC3
:1006500001930AAB02930BAB03930CAB04932846B4
:10066000244906AA07AB07F0BDFA072801D00020ED
:100670003BE09DF83930069A0DA862F303038DF82C
:100680003930079A9DF8383062F304038DF838301A
:10069000089ABDF83A3062F30B03ADF83A30099A84
:1006A0009DF8363062F304038DF836300A9A9DF8CF
:1006B000353062F305038DF835300B9A9DF83430F0
:1006C00062F305038DF834300C9A9DF8373062F3ED
:1006D00002038DF8373007F027FF07F0BDFF06490A
:1006E0000246204608F07EF9012011B030BD00BF5F
:1006F000522A0200562A0200FA47020030B589B099
:1007000004AB002400930D460222194903AB039465
:10071000049407F075FA022827D107AB009305AAC5
:100720000398049906AB05940694079403F04AFCD9
:10073000024638B1049B284600930E49039B08F0FB
:1007400051F910E0059A069B002A079C08BF012278
:10075000002B08BF012328460749B4FBF2F2B4FB83
:10076000F3F308F03FF9012000E0204609B030BD66
:10077000023B02006F2A02008E2A02002DE9F0439C
:100780000E46ADF2344D3049044607F05AFB2F496E
:100790008146204607F07EFB2C49204607F09AFB55
:1007A000204607F0B7FB0122014601A805F098FC9E
:1007B000804640B1204607F0ADFB25490246304651
:1007C00008F010F93BE00BAF414640F201423846D9
:1007D0000CF0D7F9CDF8008001F06EFA044601A8BC
:1007E00039464FF480626B4605F032FD08B9009B34
:1007F000CBB901A805F0DDFEB9F1000F0CD001F076
:100800005BFA001B14BF03460123124930464246DF
:10081000B8FBF3F308F0E6F830460F494FF0FF322B
:1008200008F0A8F80BE09844F854B9F1000FD6D1BD
:10083000304639464FF0FF3208F088F8CFE7012004
:100840000DF2344DBDE8F083BC2A0200023B0200E9
:10085000C52A0200D92A0200BE4002002DE9F04359
:10086000C1B00DAB002500930C4602225D490CABD4
:100870000B950C950D9507F0C3F9022803D10D983F
:100880000BF0E9FF05460C9B0BB9574B0C9316A8D0
:100890000C9905F031FF034670B1204653490C9A7C
:1008A00008F0A0F899E0802316A80EA914961593D5
:1008B00005F070FF013D10B9002D20AEF3DC20469D
:1008C0004B490C9A08F08EF800252F46802316A875
:1008D0000EA91496159305F05DFF002865D19DF9CA
:1008E0004130002B61D09DF840000E9B10F0100F9E
:1008F00002D00135442204E00B9A01371A440B92CE
:100900002D2210F0010F0CBF4FF02D0E4FF0520EA4
:1009100010F0020F0CBF4FF02D094FF0480910F0F6
:10092000040FBDF83C100CBF4FF02D084FF05308DA
:1009300010F0200F0CBF4FF02D0C4FF0410CCDF8F4
:1009400008C04FEA612CBDF83E000CF2BC7CCDF82B
:100950000CC0C1F3431C01F01F0105910893C112A3
:100960000DF14103C0F34510CDF810C0069107907A
:100970000993CDF800907346CDF8048020461D49B8
:1009800008F030F820461C494FF0FF3207F0DEFF38
:10099000314620464FF0FF3207F0D8FF2046174976
:1009A0004FF0FF3207F0E6FF90E7009540AD55F8B5
:1009B000D43D13493A46204608F014F80C982946CD
:1009C0000AAA05F016FF40B90A9B20469A780B9BAD
:1009D0000C495A43520808F005F8012041B0BDE81F
:1009E000F08300BF023B0200F42A0200F72A020053
:1009F0001B2B0200362B0200632B0200BE400200BC
:100A0000672B0200912B020070B50E46054607F0D9
:100A100081FA0446284607F07DFA05F0B6FF064A3B
:100A2000064B0749002818BF13463046224607F0F8
:100A3000D9FF012070BD00BF512D0200472D0200DB
:100A4000A52B020070B50E46054607F063FA044672
:100A5000284607F05FFA05F031FF064A064B0749C2
:100A6000002818BF13463046224607F0BBFF01207E
:100A700070BD00BF512D0200472D0200C12B0200A6
:100A80007FB503AB002400930E4602220F4902AB50
:100A90000294039407F0B4F8022814D1029D039C39
:100AA0002846214606F01CF8094B0A4A0A49002844
:100AB00014BF1046184600902A463046234607F0D9
:100AC00091FF012000E0204604B070BD023B02000F
:100AD000472D0200512D0200D32B020030B58DB0FE
:100AE0000C46054607F016FA0A22014602A805F050
:100AF000F7FA40B1284607F00DFA1F490246204692
:100B000007F070FF35E08DF8030001901B49204687
:100B10007E2242F2107307F065FF1949204607F064
:100B200061FF236820461B680DF1030142F2107239
:100B3000984718B19DF903307E2B03D102A805F028
:100B400038FD16E002A80DF10301012201AB05F00A
:100B500027FC28B1019B012B02D020460949DEE782
:100B6000236820465B689DF903104FF0FF329847D9
:100B7000D7E701200DB030BDEB2B0200122C020094
:100B80004A2C02006A2C02002DE9F047ADF5407DA9
:100B9000002303AC236002930D46009441490222D6
:100BA00002AB07F02DF8022806D028463E494FF048
:100BB000FF3207F0DFFE6FE016A8216805F09CFD0C
:100BC00018B128463949226807E016A8029905F0AD
:100BD00093FD28B13649029A284607F003FF5BE0EF
:100BE00040A94FF4807204A806F0CCFF09A880A9A0
:100BF0004FF4807206F0C6FF20AB149316A8802332
:100C00000EA9159305F0C6FD00283FD19DF941308E
:100C1000002B3BD09DF8403003F0100303F0FF069B
:100C2000002BE9D1029A0DF1410304A8214907F0F4
:100C3000BBF922680DF141031E4909A807F0B4F978
:100C400004A807F067F9814609A807F063F9804610
:100C500004A80E9F07F05EF9824609A807F05AF92A
:100C60003246014633460096504603F0ABF9124B2C
:100C7000124A0097002814BF1046184601901049E8
:100C800028464A46434607F0ADFEB5E709A806F0F8
:100C90008EFF04A806F08BFF01200DF5407DBDE816
:100CA000F08700BF023B0200912C0200D62C02000C
:100CB000FB2C02001B2D0200472D0200512D0200CB
:100CC000212D020070B50C462149054607F020F998
:100CD000064628B1FFF714FC002100F2352009E098
:100CE00028461C4907F014F950B1FFF7E5FB3146DF
:100CF00000F235200A4605F083FF174B17491CE028
:100D00002846174907F004F948B1FFF7F9FB01221B
:100D100000F2352105F098F9124B13490DE02846F1
:100D2000124907F0F5F888B1FFF7C6FB012200F27F
:100D3000352105F089F90E4B0E49002808BF1946E8
:100D40004FF0FF32204607F015FE012070BD00BFB6
:100D5000A82D0200B22D0200402D02004A2D0200F3
:100D6000BF2D0200572D0200672D0200C82D020082
:100D70007E2D02008C2D020010B501200C4606F0DD
:100D8000F5FE38B100210A460B4608F0C7FA2046A6
:100D9000044901E0044920464FF0FF3207F0EAFD24
:100DA000012010BDD42D0200EA2D020038B5064CFA
:100DB000236833B91C20FFF76BFA054607F0DEFA0B
:100DC0002560206838BD00BF20C107202DE9F04311
:100DD0000C4687B03C49054606F0BEFF3B498046BD
:100DE000284606F0B9FF3A498146284606F0B4FF86
:100DF00000260746039604960596B8F1000F1DD00D
:100E00002846344903AA04AB06F0ECFE022807D0BA
:100E1000204631494FF0FF3207F0ACFD304650E03C
:100E2000FFF7C4FF9DF90C109DF9102007F0A4FEF8
:100E3000049BC2B200932046284924E0B9F1000F78
:100E40002BD005AB00932846254903AA04AB06F036
:100E5000C9FE032807D0204622494FF0FF3207F091
:100E600089FD40462DE0FFF7A1FF9DF90C109DF98B
:100E700010209DF9143007F090FE40B1049B1A49F0
:100E8000059A00932046039B07F0ACFD18E020462E
:100E90001649039A07F0A6FD12E078B10225FFF784
:100EA00085FF69B207F084FE20B1204610492A462A
:100EB00007F098FD0235B5F5807FF0D1384600E0A7
:100EC000012007B0BDE8F083253C0200042E02009B
:100ED0000A2E0200132E02001F2E0200402E0200D6
:100EE000612E0200712E0200982E0200B82E020020
:100EF000D52E02002DE9F04F5F4C91B023680E46CD
:100F000033B92020FFF7C4F9054607F085FC2560BA
:100F1000D4F80080FFF7D0FA10AC002544F80C5D3F
:100F200000F2352021460CAA05F063FC48B90C9A62
:100F30000D9D97699378023F5D435F436D087F087D
:100F400000E02F464D4B1A689A467AB90C20FFF7FD
:100F50009FF98146FFF72AFF902389F80430002388
:100F6000C9F80000C9F80830CAF80090DAF80000A3
:100F700003F016F881460BF041F983460AF09AFF18
:100F8000014648460AF0E0FE3D490AF0E7FF0BF053
:100F900035F90B90204609F003FA03F03BFF40B30C
:100FA00007F0D4FB03F01EFF00240146A146A24631
:100FB0008C420BD020460A9103F076FF504594BF37
:100FC0005046A1460A9901348246F1E707F0D2FB68
:100FD000642202FB0AF22B493046B2FBF1F2C2F165
:100FE00064028DE8040628492A463B4607F0FAFCCD
:100FF00005E0304625492A463B4607F0F3FC244CE1
:1010000023681BB90120FFF743F92060206802F034
:101010008BFF044607F020FB9DF83930019003F068
:101020000F0302939DF83830009403F01F030393DD
:10103000BDF83A303046C3F30B0304939DF83630C5
:10104000144903F01F0305939DF835305A4603F009
:101050003F0306939DF8343003F03F030793B8F83D
:1010600018300893B8F81A3009930B9B07F0BAFCB4
:10107000012011B0BDE8F08F24C1072018C107205E
:1010800000002041A0860100F52E0200292F020059
:101090001CC10720372F020038B5064C236833B92E
:1010A0001420FFF7F5F8054606F0F2F925602068F0
:1010B00038BD00BF28C1072073B50C46144905464A
:1010C00006F026FF50B1FFF7E7FF06F0D4F92046FF
:1010D00010494FF0FF3207F04DFC15E0FFF7DCFF41
:1010E0000646284606F016FFC62301460A4A009324
:1010F00030460A4B06F0A8FA284606F00BFF0849CE
:101100000246204607F06EFC012002B070BD00BF11
:101110009F2F0200A52F0200BE2F0200D42902003B
:10112000F12F020008B54FF0FF320846094907F0D9
:1011300021FCFFF7B1FF06F09EF94FF4FA6008F0CA
:1011400073FD4FF08043AA221A7200221A70012008
:1011500008BD00BFFF2F020070B58AB005460C46DF
:1011600006F037FD0B2803DD20461B490C222DE03D
:10117000284606F0CFFE01220146684604F0B0FF83
:1011800006462846EEB906F0C5FE024651680068DC
:10119000124B03C39068124A186043F80C2C039A50
:1011A0001049204607F01EFC684605F002FA4FF48D
:1011B0007A7008F039FD4FF08043AA221A721E702F
:1011C00006E006F0A7FE08490246204607F00AFCA2
:1011D00001200AB070BD00BF243002004840024028
:1011E0000DD0ADDE4B3002009330020070B5404EA2
:1011F000A4B033680546DB070C460CD4304609F032
:10120000A7FC40B14FF480600BF06AFC394B1860CA
:10121000304609F0ABFC2846374906F09DFD0646EE
:1012200020B30021802204A80BF0ABFC0023029322
:10123000039303AB0093314904AA02AB284606F09E
:10124000D1FC2C4A029B116804A8039A13B902F03E
:1012500040FF01E002F05EFF294A2A490346002BC5
:1012600008BF1146204607F0BDFB3DE02846264951
:1012700006F072FD002838D0284604AB234903AAA3
:10128000039604968DF8086006F0ACFC039D049B61
:101290002B44B3F5806F0DDD20461D494FF480626D
:1012A00010E0144B9DF808201B685A559DF9083032
:1012B00001351E44039BEA1A049B9A4205DB15493B
:1012C0002046324607F08EFB0EE0B5F5806FF6DA69
:1012D000236820461B6802A94FF4FA629847002849
:1012E000DFD120460C49BEE7012024B070BD00BF0D
:1012F00038C1072034C10720BE300200C5300200CB
:10130000A8300200AC300200D5300200DC30020010
:10131000E63002001A3102000A31020030B50C46F4
:1013200087B00B49054607F05DFBA17A6288009102
:10133000E17A23880191E18828460291218903916D
:10134000A1880491034907F04DFB07B030BD00BFF1
:101350002B310200613102001FB501A80C4602F0DA
:101360009BF801F08FFD01A902462046FFF7D6FF4A
:10137000012004B010BD00002DE9F0418CB003AB9A
:10138000002500930C4690463A49022202AB029592
:10139000039506F035FCA84268DD02980BF05BFA75
:1013A000C7B2039818B10CF0F7FBC6B200E00646CE
:1013B00004A8002102F016FC30B120462E494FF05F
:1013C000FF3207F0D7FAF3E718F1000818BF4FF023
:1013D00001080223009338464146039A334601F040
:1013E00085FE054638B9204624494FF0FF3207F004
:1013F000C1FA01253AE0B8F1000F37D004A84FF444
:101400007A7102F0F9FB60B39DF81030BB4228D12D
:101410009DF817300C2B04D1204606A93A46FFF759
:101420007DFF2046BEB9164907F0DCFA9DF817305B
:101430009E420BDA236804AA324492F908105B68D2
:1014400020464FF0FF3298470136EFE720460D491E
:1014500007F0C8FA0AE00C494FF0FF3207F08AFAA9
:1014600004E020460949029A07F0BCFA28460CB06D
:10147000BDE8F081023B02007F310200A131020091
:10148000C9310200B4370200DD310200FA31020036
:1014900038B50D4606F040FD0446C0B201F0E6FC4A
:1014A000054A064B0649002808BF1346284622462F
:1014B00007F098FA012038BD20320200472D0200C3
:1014C0002732020037B50C4601F054FE1649054696
:1014D000204607F087FA154920462A4607F082FA87
:1014E0002046114907F07EFAD5B11149204607F090
:1014F00079FA20460C4907F075FA0025E8B201F0A8
:1015000023FE013540B1817802784378009120466E
:10151000084907F067FAF1E72046034907F062FA45
:10152000012003B030BD00BF3E320200593202003C
:10153000733202008E32020030B58BB00AAA4FF42B
:101540007A730C4642F8243D174906F04BFB002500
:1015500002A8019902F046FBE0B1204613499DF82C
:10156000082007F03FFA00259DF80F309D420BDA66
:10157000236802AA2A4492F908105B6820464FF0BB
:10158000FF3298470135EFE72046094907F02AFA6C
:101590000125DDE72DB9204606494FF0FF3207F05F
:1015A000E9F901200BB030BDE3300200A93202009E
:1015B000BD400200C03202002DE9F3473C4D074612
:1015C0002E688946002E62D12420FEF761FE042396
:1015D000044680E848008660C660202130460CF052
:1015E00099F8A668E0604FEA8608072E0ED810200A
:1015F000FEF74EFE0021102282460BF0C2FAE3688D
:10160000013643F808A008F10408EEE70026082395
:101610004FF00108636084F8208020462549264A5F
:10162000264B00962C6005F045FD28682449254A84
:10163000254B009605F03EFD28682449244A254B99
:10164000009605F037FD28682349244A244B00966C
:1016500005F030FD28682349234A244B009605F005
:1016600029FD28682249234A234BCDF8008005F044
:1016700021FD28681E49214A214B009605F01AFDDC
:10168000009628681F49204A204B05F013FD384674
:101690001F4906F03DFC18B138461E4906F0F2FC21
:1016A000286839464A4602B0BDE8F04705F0C6BD95
:1016B00040C1072059190100D1320200D83202007E
:1016C00039170100123302001B33020039150100E3
:1016D0006F33020072330200911401008D38020052
:1016E00095330200C5140100DB330200BF33020052
:1016F0007913010024340200E23302002334020093
:101700002834020059130100683402004D340200ED
:10171000BE4002006E34020038B5064C236833B96F
:101720004C20FEF7B5FD054606F0B4FE25602068A6
:1017300038BD00BF3CC107202DE9F04FADF5777DE6
:10174000044680220DF1D80A894616A800210BF024
:1017500018FA0021802250460BF013FA05AE002340
:10176000336020460096724916AA534606F03AFAAC
:10177000032801D00020D7E00CA816A9012204F00C
:10178000AFFC05460028F5D1FFF7C6FF336856A920
:1017900080F847308022044607A88DF8135006953C
:1017A00006F0F0F9CDF800A04846624916AA336861
:1017B00007F018F9A8460CA876A94FF4007206ABFA
:1017C00004F046FD38B10CA804F0F3FE07A806F0BB
:1017D000EEF90120A8E0069B002BF4D06F1C5649BF
:1017E000069A204607F0FEF8236820469B68984733
:1017F00000267D1EB346069B22689E420DD276AB24
:101800009957D2F804C0204603934FF0FF32E047C7
:10181000039BF35601369B44EDE7936820469847B7
:1018200007A806F077FB064607A806F0D5F94FF49F
:101830007A7302463146204607F0AAF80121202299
:1018400007A806F012FB07A806F066FB584520D053
:1018500007A806F061FB394903465A46484607F097
:10186000C1F82046364907F0BDF8236820469B683A
:101870009847236820461B680DF113014FF47A72D4
:1018800098470028F5D1022F07F101039BD81F4686
:10189000A5E7069B2B49524600932046434607F096
:1018A000A1F8236820469B68984707A806F032FBFA
:1018B000064607A806F090F9314602464FF47A73BF
:1018C000204607F065F807A81F4906F01BFAD0B9B3
:1018D00007A806F01FFB1D490246484607F082F89C
:1018E0002046174907F07EF8236820469B689847F2
:1018F000236820461B680DF113014FF47A72984754
:101900000028F5D1BFE707A8114906F0BBFB069BED
:10191000484698440F4942460F9B07F063F8002D54
:101920003FF449AF013D46E70DF5777DBDE8F08F07
:10193000733402008234020099340200AB34020096
:10194000BD400200D2340200E8340200EB34020051
:10195000BE400200233502002DE9F04186B006AA00
:101960000026074642F80C6D0D463D4906F03AF94F
:1019700038460121202206F078FA039B002B64D020
:10198000384606F026F900285FD0FFF7C5FE8DF82F
:101990000B600446236820461B680DF10B010522ED
:1019A000984706460028F5D1039B384684F847300F
:1019B00006F0B0FA4FF0FF320146204606F0DAFF9B
:1019C000236820469B689847264B0596186837463B
:1019D0000490236820461B680DF10B014FF47A72C6
:1019E000984778B10DF11501032205A80BF0AEF868
:1019F0009DF80B8005A804A904228DF817800BF030
:101A00008DF838B91822B7FBF2F302FB13726AB1F2
:101A100001330BE02B6828465B684FFA88F10122FE
:101A2000013798470028D4D10136D2E728460E491D
:101A30003A4606F0D7FF76B16123009328460B495A
:101A400032460B4B06F0CEFF05E0284609494FF021
:101A5000FF3206F08FFF012006B0BDE8F08100BF25
:101A6000E3300200273102002F3502005635020014
:101A70000F3602004B36020070B5002605460660A0
:101A8000012106200D4C08F099FD0121062008F0E7
:101A9000ADFD0223FF2263602260636108F01EFF38
:101AA0003223B0FBF3F00923A0616360A660236FCB
:101AB000284623F00F03236770BD00BF008001405C
:101AC000052930B51DD8012303FA01F40268224329
:101AD000026001FA03F00324844003FA00F00931A4
:101AE00003FA01F1084A156925EA0404146114692E
:101AF00020431061A2F5A032D06C0143D164184696
:101B000030BD002030BD00BF00C00240F8B5174610
:101B10000C46054608F0E2FE0AF0C8F915490AF03D
:101B20001DFA4FF07C51064638460AF017FA4FF07E
:101B30007F510AF00BF9014630460AF00FFA0AF01D
:101B400083FB0D4B052C0FD8DFE804F003050709D4
:101B50000B0DD86108E0186206E0586204E01864D2
:101B600002E0586400E098642A68012101FA02F258
:101B70001A65F8BD6F12833A0080014038B50446FB
:101B80000D4608F0ABFE074BB0FBF3F00223B0FBB1
:101B9000F3F2954201D3236138BDB3F5807FFAD0CB
:101BA0000233F4E740420F0001480BF047BD00BF8D
:101BB000773602007FB500F235260D460122314608
:101BC00004F042FAC4B24CBB04A941F8044D3046BB
:101BD00002AA04F00EFEF8B9029A0399937892696A
:101BE0005943023A5A435208B2F57A7F1048114BD2
:101BF0002CBF4FF4806401244FEA510128BF0346F3
:101C0000B1FBF4F18DE80A000B482946B2FBF4F26F
:101C10000BF09CFC012008E0084B00E0084B094851
:101C2000294662B20BF092FC002004B070BD00BFE8
:101C3000B1360200AE360200BB360200B4360200F6
:101C4000B8360200E936020038B5AA224FF08043C8
:101C50001A7255221A7208F0BBF9154C0228D4E901
:101C6000002317D1013243F10003C4E9002308F037
:101C700047FDD8B108F036FDD4E900010A2200235F
:101C80000AF002FB0A25A0FB052305FB0133C4E98A
:101C9000002338BD013243F10003C4E9002301F001
:101CA000B5FFBDE83840002008F070BB38BD00BF6C
:101CB00058C10720FFF7C8BF014BD3E900017047A7
:101CC00058C1072038B5074D2B684BB90820FEF7DF
:101CD000DFFA0446FFF76AF84023206023712C6086
:101CE000286838BD4CC1072038B5054C256825B992
:101CF0000120FEF7CDFA05702060206838BD00BFD6
:101D000048C1072038B5084D2B685BB90C20FEF799
:101D1000BFFA0446FFF74AF890232371002320609E
:101D2000A3602C60286838BD18C1072010B5044C8A
:101D300023681BB90120FEF7ABFA2060206810BDB4
:101D40001CC1072010B5044C23681BB90120FEF705
:101D50009FFA2060206810BD44C10720B049B14AF5
:101D6000402370B58B614FF0007393614FF4803363
:101D70008B61AD4BADF5047D186820F0F000186064
:101D8000186840F050001860186820F4405018603F
:101D9000086840F040000860186820F47C20186053
:101DA000186840F428201860186820F47000186043
:101DB000186840F420001860186820F0404018604F
:101DC000186840F000401860586820F03C005860E7
:101DD000586840F028005860586820F003005860A8
:101DE000086840F480300860586820F4405058601B
:101DF000086820F480000860D96821F44031D96077
:101E0000116841F080711160596821F440215960D6
:101E1000596841F48021596098688449014099606B
:101E2000116841F4897141F001011160996821F450
:101E300070119960996821F070419960116821F4DE
:101E400046411160D96821F03001D960D96841F06C
:101E50003001D960D96821F47011D960136843F05A
:101E600000731360136823F08063136008F01CFA9A
:101E70004FF4FA6006F024F9FFF796FE08F02EFD05
:101E80000AF014F86A490AF01DF909F0FBFB024652
:101E90000B4668480BF05AFB08F07CFA042811D175
:101EA00000230593644B04AC1B680493FFF77CFE8E
:101EB000624B6348D96C1A6D5B6D00940BF046FB66
:101EC000FFF772FE0C20012108F078FB5D4C0C201E
:101ED000032108F08BFB4FF40013236008F0FEFC95
:101EE0000223C008584AB0FBF3F1914204D822689B
:101EF00042EA0323236003E00233B3F5807FF1D18C
:101F00000A20012108F05AFB0A20012108F06EFB8B
:101F10004E4807250224056001214460FFF72EFE8C
:101F200006F0A4FB1520012108F048FB1520012133
:101F300008F05CFB4648012105604460FFF71EFE87
:101F4000FEF734FF642106F0E3F910B941480BF0C5
:101F500075FB01F021FE10B93F480BF06FFB01212A
:101F60003E4808F091FBFEF7A7FA3D49FFF722FE35
:101F70000446B8B93B480BF0E9FAFEF79DFA214652
:101F8000224600F2352004F03BFE374B374A00284A
:101F900014BF104618460BF051FBFEF78DFA30497E
:101FA000FFF708FE324C334D236813F0010616D1BB
:101FB000204608F0CDFD90B14FF40E70FEF768F9A1
:101FC000012280F83422312280F835223A2280F82A
:101FD000362280F837622860204608F0C7FD28685E
:101FE0002549264DFFF7E6FD18481821FFF7C6FDE5
:101FF000FFF7DAFD2B684BB90820FEF749F90446D4
:10200000FEF7D4FE3823206023712C60286801F08D
:1020100065FE0446B0BB1A480BF010FB33E000BF6E
:1020200000C0092020C0092000C00240F0FCFCFFD5
:102030000024744927370200444002400040024017
:102040003F370200004003403F5DC60000000340F0
:1020500000800840B7370200E8370200491C010041
:102060000D380200153802001C370200213702002B
:102070002CC1072010C10720762D020054C1072073
:102080003E3802000124FFF73DFE01F05DFF0546EA
:1020900018B973480BF0D2FA2C46FFF713FE01F083
:1020A000E3FE054618B96F480BF0C8FA2C466E4D92
:1020B0002B681BB90120FEF7EBF82860286801F0B7
:1020C00089FEFFF733FE01F02DFFFFF70DFE01F053
:1020D00007FFFFF737FE01F029FFFFF705FE00219C
:1020E00001F000FF94B9FFF75FFDFFF7EBFD2D2135
:1020F00001F0A2FEFFF7E6FD2D2101F0A9FEFFF79A
:10210000F3FD4FF0FF3101F0EDFE0CE0FFF7DAFDDB
:102110000446FFF7F7FD01F043FF0AF06FF841B204
:10212000204601F0BEFE0023504804A90722049374
:10213000059301F0ADFFA8B904A80AF08CFBC4B266
:10214000631EDBB2FD2B05D904A9484A48480BF0B1
:10215000FDF907E047482146444A0BF0F7F92046CD
:1021600000F084FEFFF7E2FD01F0DEFE04460020F1
:102170000CF098FF20440BF069FA4FF40072002134
:1021800004A80AF0FEFC04A808F062FA04A93A4880
:102190000BF0DCF9FFF708FD8022002104A80AF00B
:1021A000F0FC04A802F00CFE9DF91020531C05D091
:1021B00004A9D2B231480BF0C9F929E0FFF7C2FDFA
:1021C00001F0B6FE09281DD12D480BF037FA04A9FD
:1021D0002C480BF049FB04A92B480BF0B7F92B480E
:1021E0000BF02CFA00232A4803A903930BF03CFBC5
:1021F0009DF90C30592B03D104A802F0C3FD07E070
:10220000244803E024480BF019FA24480BF016FA8E
:102210004FF208031D684FF20C031E684FF21003C3
:102220001C684FF2040319684FF470431A68AD0A32
:10223000B60A1B480BF08AF92A46314619480BF0BA
:1022400085F9214618480BF081F9FFF7ADFC1748D6
:102250000BF0F4F9FFF7A8FC0DF5047D70BD00BF8D
:10226000593802007338020050C107208C38020030
:1022700092380200BD380200FA470200EA38020034
:1022800006390200283902002D39020048390200BF
:102290008B3902008F390200A7390200D5390200BC
:1022A000073A0200333A0200603A02007D3A020027
:1022B000014B0360704700BFB83A0200012070472D
:1022C000012070470120704710B5034B044603609E
:1022D000FDF7E2FF204610BDB83A0200012070472A
:1022E000F8B504460E46C06889000BF013FAA568DD
:1022F000E060AF00B5420BD20C20FDF7C9FF002310
:10230000036043600372E3680135D8510437F1E795
:102310006660F8BD38B5114B044603600025636D57
:10232000E06D9D4205D250F82500FDF7B5FF01355F
:10233000F5E708B1FDF7B2FF0025A36B206C9D42C5
:1023400005D250F82500FDF7A7FF0135F5E708B1E4
:10235000FDF7A4FF024B2046236038BDE03A02009F
:10236000B83A020010B50446FFF7D4FF2046FDF747
:1023700093FF204610BD0000F7B500240B464FF434
:10238000805200942349064605F0D6FB224B0425D3
:1023900033607563B463F463346406F1340002217E
:1023A000FFF79EFF35657465B465F46520466021CE
:1023B0000BF0B0F9B46DF065A500172C0CD8102007
:1023C000FDF766FF0021102207460AF0DAFBF36DE5
:1023D00001345F510435F0E718237365012386F853
:1023E00070300E4C0023A6F87430A6F87630B36730
:1023F000002200230025C6E92023C6E92245FFF775
:102400005BFC001941EB0501C6E92001304603B031
:10241000F0BD00BFF83A0200E03A0200C0D401006B
:10242000F8B591E860000F7A14468FB1082A0FD1F1
:10243000304605F0CEFB00281BDD28460E494FF044
:10244000FF3206F083FA3046012105F0CEFC08E0A9
:102450000A2C05D00D2C03D03046214605F0E7FDAF
:102460004FB12B6828465B6821464FF0FF329847F2
:10247000F8BD0724F5E7F8BD013B0200F8B50446B6
:10248000142016460D46FDF703FF8021074605F090
:102490007EFDA36BE26B9A4206D3626B991803D25E
:1024A00004F13400FFF71CFFE36B226C591C52F857
:1024B0002330E16383E8A0001E72F8BD2DE9FF41DF
:1024C000CF6B05460E4601AC4FB94FF47A7007F05A
:1024D000ABFB204639460C220AF053FB5BE00B6C49
:1024E00000271B6893E8070084E807008DF8037055
:1024F000F26B97422DD2336C013A53F82730974252
:102500000CBF0522002218684FEA87080379002BC8
:1025100049D003680DF103011B689847002842D099
:10252000F36B9F4241D2336C53F8083093E80700B5
:1025300084E807009DF9032030462146FFF770FF2D
:10254000FFF7BAFBD6E92223801841EB0301C6E965
:102550002001029805F03DFB0746029805F03CFB80
:102560000138874217DAD6E9222352EA03011FD045
:10257000FFF7A2FBD6E92023994208BF904217D368
:10258000FFF79AFBD6E92223801841EB0301C6E945
:1025900020010023019394E8070085E807002846FE
:1025A00004B0BDE8F0810137A2E706F14403BDE7BE
:1025B0009DF903300A2BEED0002799E72DE9FF4162
:1025C000074621480AF0C2FF01A83946FFF776FF07
:1025D000019E1EB91D480BF031F831E0DDF808808E
:1025E000404605F0F6FA00282ADDFFF765FB0446B1
:1025F000F8B1B7F8743007F150000133A7F8743020
:102600004146324604F01AFE114B0027186800902C
:1026100033681DF907105B6830464FF0FF32013711
:102620009847042FF4D1FFF747FB011B09480AF034
:102630008DFF404605F0D2FA336830469B689847D4
:10264000012004B0BDE8F081043B0200BE4002005E
:10265000D03A02000A3B020038B5064C236833B971
:102660002020FDF715FE054606F0D6F82560206807
:1026700038BD00BF24C1072010B50446FFF7ECFFAA
:10268000036821465B684FF0FF32984740B210BDA7
:1026900013B5002302AC04F8013DFFF7DDFF03682A
:1026A00021461B684FF0FF3298479DF9070002B0A2
:1026B00010BD00002DE9F04100F150048AB0002562
:1026C0000646009520465B495B4A5C4B04F0F2FCF1
:1026D000009520465A495B4A5B4B04F0EBFC0095A1
:1026E00020465A495A4A5B4B04F0E4FC00952046C8
:1026F00059495A4A5A4B04F0DDFC00952046594985
:10270000594A5A4B04F0D6FC009520465849594A7C
:10271000594B04F0CFFC009520465849584A594B74
:1027200004F0C8FC009520465749584A584B04F01D
:10273000C1FC009520465749574A584B04F0BAFC53
:10274000009520465649574A574B04F0B3FC009574
:1027500020465649564A574B04F0ACFC009520469B
:102760005549564A564B04F0A5FC0095204655495C
:10277000554A564B04F09EFC009520465449554A54
:10278000554B04F097FC009520465449544A554B4C
:1027900004F090FC009520465349544A544B04F0F1
:1027A00089FC009520465349534A544B04F082FC5F
:1027B000009520465249534A534B04F07BFC009548
:1027C00020465249524A534B04F074FC009520466F
:1027D0005149524A524B04F06DFCFFF73DFF4FF454
:1027E00080634FF416412022054605F0F3FF0127D0
:1027F00080462F714B48FDF7B3FD4B48FDF7AAFD0E
:10280000304629463A46FFF739FE03A9082205A8B3
:1028100005F0B8F905A8454905F034FC05A92A4694
:10282000204604F00BFD05A805F0C1F940460AB0AA
:10283000BDE8F081490501006A3B0200203B02002F
:1028400015060100573B02005F3B0200F50E010038
:102850007D3B02006F3B020039060100C53B0200D0
:10286000843B02007D070100CA3B0200CE3B020010
:10287000FD0601006D3C02002A3C0200890B0100AC
:102880006C3C0200703C02005D080100BB3C020091
:10289000BE3C0200090A0100EC3C0200F23C0200CE
:1028A000810A0100173D02001A3D0200DD0A010005
:1028B00006550200473D0200450A01006C3D02003A
:1028C0006F3D0200CD0D0100923D0200963D0200D9
:1028D000C50C01003D3E0200453E020025110100ED
:1028E000883E02008F3E0200B9100100A23E0200A5
:1028F000A63E0200790D0100DC3E0200E23E02002D
:10290000B9150100043802000A3F0200ED11010070
:1029100028400200343F020059110100B92D020085
:10292000F13F020091260100792601006E34020079
:1029300038B5084B1A681C4642F040021A60402520
:10294000A561012005F0BCFBE561012005F0B8FBA5
:10295000F5E700BF40C0092070B5902086B0FDF7B4
:1029600097FC01210546FFF707FD0420FDF790FCC9
:10297000164C0646FFF780F82846266005F09EF8BC
:1029800020680021FFF79CF80024022504AB019386
:1029900000952346029403940D494FF480620D483C
:1029A00006F0F2FE05AB01934FF4807223460095CA
:1029B000029403940849094806F0E6FE01202146E6
:1029C00005F08CF84FF0FF3006B070BD60C10720F5
:1029D00042410200E12901004E410200312901007B
:1029E000F8B5214D2B684BB90820FDF751FC044682
:1029F000FEF7DCF93823206023712C602E68304606
:102A000001F07DF90446304601F082F90746304670
:102A100001F087F907FB07F304FB043400FB0040D7
:102A200008F01EFE08F07EFB044638460D4609F00D
:102A300041FA29460746204609F032F90146384650
:102A400009F040FB044608F01DFE02460B4607480D
:102A50000AF07CFD064B002118682246FFF756F865
:102A6000142007F0E1F8CAE754C1072053410200DF
:102A700060C1072008B5FEF799F9014B186008BD41
:102A800064C10720242310B503FB010398420BD037
:102A9000417839B1018C4FF6FF741144A14228BF2F
:102AA000214601842430F1E710BD000037B5002332
:102AB00002A840F8043D0C4B04215B6898470B4B7F
:102AC000019A1C680546141B1A6009482246042115
:102AD000FFF7D8FF074802212246FFF7D3FF281C43
:102AE00018BF012003B030BD74C1072018C20720F1
:102AF00088C1072054C2072008B50B4B1A78037809
:102B000093420A4B03D119880131198002E0998858
:102B100001319980064B8270DB6820219847003094
:102B200018BF012008BD00BF05C0072034C2072020
:102B300074C107200A4B02781B789A42094B03D1D3
:102B4000DA880132DA8002E01A8901321A810379C7
:102B5000C3F3C202073262F3C5030371FFF7CCBFB0
:102B600005C0072034C2072010B50023064A99008B
:102B700012F82340844201D1501810BD0133042BB8
:102B8000F4D1002010BD00BF43C2072070B1C3784C
:102B90000133DBB2FF2BC37008D10023044A1A446F
:102BA000D17804334908102BD170F7D1704700BF9A
:102BB00043C2072070B5242202FB010103460246EE
:102BC0008A4206D01046243212F8234C002CF7D14A
:102BD00012E0184600228B420ED01C791E8CC4F3E2
:102BE000C20446EA0444A2421D4624BF14460546D8
:102BF000243322462846EEE770BD000038B5013187
:102C00000446CD00FFF752FF1B4B1A7823789A42F7
:102C100004D102211948FFF7CDFF0CE01848042128
:102C2000FFF7C8FFE37833B990F82330042543F069
:102C3000800380F82330002380F8203080F8213092
:102C400090F8233080F8225023F07F0343EA1525C3
:102C500080F823502346024604F1200153F8044B28
:102C60008B4242F8044BF9D1064A0379127862F399
:102C7000C503037138BD00BF05C0072054C207203B
:102C800088C1072004C0072010B5FFF76DFF044678
:102C9000F8B9FFF769FF0446D8B90F4AD378D1795C
:102CA000994238BF0B46D17A34BF141D144699425D
:102CB0003CBF0B46094CD17B094A994238BF1446A8
:102CC00020460422002109F05CFF064BDA7A01322B
:102CD000DA72204610BD00BF43C207204BC2072056
:102CE0004FC2072034C20720F8B5242707FB02177C
:102CF00005460C46BC4200F0B38094F82310CB0983
:102D00002BD0BDB12B786278934203D16E782078B6
:102D100086421CD0E87868B16878904208D1227861
:102D20009A4205D1A379AA79D61A7342734100E079
:102D3000002363B994F82220238C01F07F0142EA3A
:102D400001218B42C0F28A802046FFF7D5FE204643
:102D50000021242209F015FF80E06378002B7DD04C
:102D6000002D3CD02A799209032A1AD16A7820785A
:102D7000904202D128789842E9D0E678A878864235
:102D800010D1934209D120782A78904205D1AA79AE
:102D9000A079801A4242424100E00022002AD6D1A6
:102DA00000E0E2B1A878E278904218D16A789A42BD
:102DB00009D120782A78904205D1A079AA79821A7F
:102DC0005042504100E0002048B12279002363F3D3
:102DD000C50284F8203084F8213022713EE094F856
:102DE0002200228C01F07F0140EA01218A4235DB7A
:102DF0002179002284F8202084F82120C1F3C20226
:102E0000D6B21EB12046FFF795FE27E089090329B7
:102E100018D0144920780978884213D1E178994272
:102E200010D079B16379E270032262F30713637102
:102E30002046FFF77FFE0C4A2379127862F3C50320
:102E4000237100E001266078FFF78EFE18B10021A3
:102E5000042209F096FE002E7FF479AF243449E76E
:102E6000F8BD00BF05C0072004C00720431EDBB229
:102E7000FD2B03D8024B18700120704700207047CB
:102E800005C00720014B1878704700BF05C0072018
:102E900007289CBF014B1870704700BF04C0072073
:102EA0002DE9F7430446914698469DF828600D4663
:102EB00000295BD0314B1F78B94259D0B8F10F0FC0
:102EC00056D8002856D02022002109F05AFEFF2DA6
:102ED000237914BF09F00302002262F3871303224F
:102EE00062F30203264A65701278277062F3C50305
:102EF000244A23711378A7700133DBB21370A371D6
:102F00000BAB01930EB9012713E0019BE0791A4640
:102F100052F8081B013E01925A68F6B28718FFB2B8
:102F2000182F05D80830204409F007FEE771E9E7BB
:102F30000027DFF854900123284689F80030FFF776
:102F400013FE0646FFF722FE002389F8003063795E
:102F500026B968F307136371E67005E0B27862F38F
:102F6000071363717378E370384603E0084601E0A5
:102F70000020FFE703B0BDE8F08300BF05C00720D5
:102F800004C0072042C2072040C20720154B01227F
:102F900070B51A7004461E4608B900251DE0FFF7FB
:102FA000ABFD05460028F8D022799209D11C032AEE
:102FB00001F0030106D1E3782BB16278D31A18BF70
:102FC000012300E00023012903F0010300D923B10C
:102FD000617920460909FFF711FE00233370284666
:102FE00070BD00BF40C2072082B0F0B51746421E38
:102FF000D2B28DB0FD2A04460D46139301D90020AC
:103000005AE0002BFBD0159B002BF8D0179B002B10
:10301000F5D0169B002BF2D0149B002BEFD0002193
:103020004822284809F0ADFD00219022264809F0E9
:10303000A8FD00211022254809F0A3FD00210C2243
:10304000234809F09EFD00210C22224809F099FD39
:10305000214B224E1C70224B34461D7013AD0FCDF8
:103060000FC42B68002118221E48236009F089FD37
:1030700039461C4817220AF0CFFD0020B3680146EC
:1030800098470028BBD09DF8603013B9FFF70EFDBC
:1030900012E0154A0123019206220292009304A82D
:1030A000FF210022FFF7FCFE0028A8D004A8FFF7AC
:1030B0006DFF0028A3D0E9E70DB0BDE8F04002B0F5
:1030C000704700BF54C2072088C1072043C20720B1
:1030D00068C1072034C2072005C0072074C107203B
:1030E00041C207201CC207206741020070B5182B9F
:1030F0008CB006460D4617D81C1C18BF0124002AA8
:1031000014BF214684F0010171B101920293009431
:1031100004A831462A469DF84030FFF7C1FE18B199
:1031200004A8FFF733FF00E000200CB070BD13B51A
:103130000446107852790B46120900920321224668
:10314000FFF7D4FF02B010BD30B500231A4608497E
:103150009C0011F823502DB1904201D1081930BDC7
:103160000132D2B20133042BF1D1002030BD00BFB7
:1031700043C2072000231846044A9A5C0AB1013072
:10318000C0B20433102BF7D1704700BF43C20720F1
:103190002DE9F04188B068460021202209F0F1FCB9
:1031A0009C4B1B7803F0FF04002B40F030819A4FBA
:1031B00068463B6920219847002800F08280974D9F
:1031C0006B8801336B80FFF7D5FF9DF80410A87260
:1031D00001F00703032B04D0914B1A7842F001024F
:1031E00009E0904B1D789DF80230AB4205D18C4B25
:1031F0001A7842F002021A70DBE0C1F3C2019DF8B6
:1032000000E09DF80600CEB2874A1319A25C724511
:1032100009D15A78824206D19A780124961B18BFA8
:103220000126997018E003340C2CEDD17F4A136805
:1032300099707D49587001F10900834283F800E0DC
:1032400040F0C48011609DF800009DF80230834278
:1032500040F0BF80002426469DF80200FFF714FDD1
:103260009DF8022002709DF80220427000228270B8
:10327000FFF78CFC002C08BF012616B39DF8003028
:10328000AB4200F095809DF80160FF2E1BD13B689A
:1032900068462021984720B9614B1A7842F0040211
:1032A0001A709DF8053003F00F02511C61F30303FF
:1032B0008DF80530C3F303139A4202DA6846FFF72C
:1032C0001BFC002475E0B5422AD164B99DF8073093
:1032D0004BB13B6868462021984720B9504B1A787B
:1032E00042F004021A709DF804309B09012B12D1A0
:1032F0009DF8073013B94E48182108E047480C21C3
:103300006A46FFF714FF002852D1002001466A46A2
:10331000FFF70DFF4CE09DF80330002B48D1F4E798
:10332000444B1B78002BCCD09DF8054004F00F08CF
:103330002709B845C5DA3046FFF716FC9DF803307B
:1033400008F1010868F303049D428DF8054019D186
:103350009DF804209209D51C05F00305012D8CBFB2
:103360000025012508B1437800E00346032A05D172
:103370009E4203D0003318BF012300E000231D4309
:1033800030B90AE0A3B91D4610B9684639460DE0C8
:1033900043788DF80330847802E08DF8030004460A
:1033A0006846FFF7A9FB1DB168462146FFF726FCDA
:1033B0006C46FFF77BFB20461F490422FFF794FC75
:1033C00020461E490222FFF78FFC20E003331360E2
:1033D00039E785423FF43EAFFFF756FC0446FFF75E
:1033E000D5FB23783BB19DF80520A37802F00F02AE
:1033F0009A423FF72FAF9DF8003023709DF80230BE
:1034000063709DF80530C3F30303A37022E708B08F
:10341000BDE8F08140C2072074C1072034C20720F4
:1034200053C2072005C0072068C1072000C007203D
:103430001CC2072041C2072088C1072054C20720B0
:1034400000231846094A1A4452780AB10130C0B222
:103450002433902BF6D1064B5A780AB10130C0B212
:1034600093F825300BB10130C0B2704788C10720F6
:1034700054C2072008B5FFF777FB064B28B18278C6
:10348000187802FB0000C00008BD1B7818205843C4
:1034900008BD00BF04C0072003490B6803604B68E8
:1034A00043608B688360704734C2072030B5464C58
:1034B0004FF48035E561454CA060E068C506FCD45A
:1034C00042488068C0B2002B77D00B46002A68D0F3
:1034D000072A3E4C91F9005036DDA56091F9015064
:1034E000083AA56091F90250A56091F90350A560D2
:1034F00091F90450A56091F90550A56091F9065025
:10350000A56001F1080591F90710A1602F498C69A8
:103510006407FBD58C681C708C685C708C689C7030
:103520008968D9702949CC68E406FBD48C680833D3
:1035300003F8044C8C6803F8034C8C6803F8024CC5
:10354000896803F8011C1EE0032A1EDDA56091F9BD
:103550000150043AA56091F90250A5600D1D91F942
:103560000310A1601949CC68E406FBD48C680433CD
:1035700003F8044C8C6803F8034C8C6803F8024C85
:10358000896803F8011C2946A0E70131A560013ACA
:10359000E568ED06FCD40D4C0133A46803F8014C3A
:1035A00094E7094B4FF480329A6140B230BDE56830
:1035B000ED06FCD4054C0133A4689342F1DACD56F4
:1035C000024CA560F3E700BF00C00920008008405E
:1035D00007B5002302A9012201F8013D00F01F00F8
:1035E0001346FFF763FF9DF9070003B05DF804FB86
:1035F00007B502AB03F8011D00F01F0019460122B8
:10360000002340F02000FFF751FF03B05DF804FBFA
:1036100008B51720FFF7DCFFC0F3001008BD072036
:103620007021FFF7E5BF03460A466FF05F001946B9
:103630000023FFF73BBF08B50020FFF7C9FFBDE837
:10364000084020F0010149B20020FFF7D1BF00007F
:10365000024B4FF08072DA61704700BF20C0092032
:1036600008B50020FFF7B4FF40F0010149B2002087
:10367000FFF7BEFF024B4FF080729A6108BD00BF9A
:1036800020C0092007202021FFF7B2BF00216FF0E2
:103690001E000A460B46FFF709BF000037B50C466F
:1036A0000546FFF7F3FF21462846FFF7BCFF0E4B08
:1036B0004FF080729A610022ADF806201C46BDF8DA
:1036C00006309BB201339BB2ADF8063033B94FF0F0
:1036D0008073E361FFF7DAFF03B030BDFFF798FFB7
:1036E0000028ECD0F3E700BF20C0092008B5172060
:1036F000FFF76EFF00F0010080F0010008BD072019
:103700004021FFF775BF08B503460A4661201946F8
:103710000123FFF7CBFEC0F3420008BD00216FF08C
:103720001D000A460B46FFF7C1BE70B504460020D7
:103730000D461646FFF74CFF14B100F0BF0002E043
:1037400040F04000C0B215B100F0DF0001E040F0F1
:10375000200016B100F0EF0101E040F01001002060
:1037600049B2BDE87040FFF743BF10B504460020E2
:10377000FFF72EFF14B900F0F7010DE0012C04D182
:1037800000F0FB0141F0080106E0022C14BF40F0FC
:10379000080140F00C01C9B2002049B2BDE8104058
:1037A000FFF726BF08B50020FFF712FFBDE808406D
:1037B00040F0020149B20020FFF71ABF08B500200F
:1037C000FFF706FFBDE8084020F0020149B20020E3
:1037D000FFF70EBF40F6DD13984206D840F662139D
:1037E000B0F5166F38BF184600E01846A0F5166110
:1037F00049B20520FFF7FCBE10B504460620FFF7CE
:10380000E7FEFA2C00F0D70102D141F0200104E0DC
:10381000B4F5FA6F08BF41F00801062049B2BDE8CF
:103820001040FFF7E5BE10B504460620FFF7D0FEB6
:10383000032C34BF2146032100F0F90040EA410186
:1038400049B20620BDE81040FFF7D2BEF9284FF07C
:10385000FA0305D9B0F57A6F88BF4FF47A6000E0BB
:103860001846B0FBF3F3013BDBB20F2928BF0F2151
:1038700041EA0311042049B2FFF7BABE1130C0B2C9
:10388000162806D8202928BF202140B249B2FFF7C8
:10389000AFBE7047032804D004280CBF02210321C7
:1038A00000E001210320FFF7A3BE03460A463020B3
:1038B00019460023FFF7FABD03460A462A20194697
:1038C0000023FFF7F3BD000073B504460E4615460E
:1038D000FFF724FFFFF7DAFE2B4B4FF08072DA611F
:1038E000FFF76CFF00210A460120FFF71EFFFFF7DC
:1038F00096FE0220FFF739FF3046FFF76BFF2846A0
:10390000FFF77AFF0320FFF78EFF02200321FFF766
:103910006FFE01200021FFF76BFE4FF4FA700321C8
:10392000FFF794FF21460020FFF7A8FF1220002197
:10393000FFF75EFE13200021FFF75AFE142000213E
:10394000FFF756FE15200021FFF752FE002116203A
:10395000FFF74EFE0D4B18681B79009005208DF87F
:103960000430FFF797FF68460521FFF79EFF684682
:103970000521FFF7A1FFFFF715FF4FF4FA6004F0F0
:1039800083FB02B070BD00BF20C009206E41020061
:10399000042938B5054603D1041C18BF012400E0F2
:1039A0000024FEF789F904B12860204638BD0000E4
:1039B00007B5094B002102AA186842F8041D0B46FE
:1039C00005F043FD019B1BB1044B4FF080521A6080
:1039D00003B05DF804FB00BFA4C2072004ED00E0C3
:1039E00070B5174E326822B90320202105F065FC1E
:1039F0003060144D2A6822B90120202105F05DFCB9
:103A00002860114C216821B90120032205F055FCE2
:103A10002060202040F6C3114FF4FA62FFF754FFF4
:103A2000FFF71EFE16200121084A04F06BFC3068E7
:103A300028B1286818B12068003018BF012070BD77
:103A4000A0C207209CC20720A4C20720B1390100F0
:103A500070B500238AB00193037906469B09032BB6
:103A60000CBF104B104B31461D6801AA284600239D
:103A700005F0EBFC044658B9224602A9284605F099
:103A80009EFD23462846314601AA05F0DEFC044689
:103A9000019B1BB1054B4FF080521A6020460AB0C3
:103AA00070BD00BF9CC20720A0C2072004ED00E04B
:103AB00037B504460D46FFF7E5F9237883420AD06F
:103AC000E37843B909F0ECFDBD2300F0030000FBEF
:103AD000033004F0D9FAFFF7BBFDFFF7ACFD204639
:103AE000A9B2FFF7DBFDFFF7CDFDFFF7B9FD06F04B
:103AF0006FFA02280ED1094B002102AA186842F879
:103B0000041D0B4605F0A1FC019B1BB1044B4FF0BB
:103B100080521A60012003B030BD00BFA4C207204C
:103B200004ED00E038B504460D46FFF7DFFD48B16F
:103B3000A9B22046FFF7E7FDFFF7D8FD08B9FFF768
:103B4000DEFD012038BD2DE9F34180460F461646C3
:103B500006F03EFA022807D1324640463946002395
:103B600005F0ACFCC6B213E000230193FEF7A4F805
:103B7000841941F100054046394601AA05F01FFDB0
:103B8000C6B22EB9FEF798F88D4208BF8442F2D231
:103B900070B202B0BDE8F08100B50C4B8DB0099356
:103BA0000B4B0C4A0B930C4B0A930CAB43F8102DA8
:103BB000002204920FCB8DE80F00084B0121084A28
:103BC0006A20FFF711FA0DB05DF804FBE13901003E
:103BD000253B010091390100B13A0100513A010041
:103BE000734102000A460349034608681946FFF775
:103BF000AABF00BFA0C207200A46034903460868BF
:103C00001946FFF7A0BF00BF9CC2072008B506F009
:103C1000DFF90F4B02285B6913D15A020DD5FFF76C
:103C20000FFC0C4B00284FF0000118680CBF4FF040
:103C3000FF3201220B4605F041FCBDE80840FFF7CA
:103C4000A7BA5B02F9D5FFF7FBFB0028F5D108BD49
:103C500000C00920A4C2072010B506F0B7FA0C4B2B
:103C60001A6822F0E06222F0FF021A601A6842F03D
:103C700004021A601A6842F080721A605A68002AB8
:103C8000FCDA034B5C6806F0B3FAC4F30B1010BD0A
:103C90000040034030B504464DB253B294F90410CD
:103CA0002A460068BDE8304004F077BF1FB5002207
:103CB00004AB90F9044023F8042D4AB2022100918C
:103CC0000068214604F054FF9DF90C009DF80D306A
:103CD00080B243EA002080B204B010BD10B52A21A2
:103CE00004461922FFF7D6FF206894F904100D222C
:103CF00004F042FFB0F12A035842584110BD08B504
:103D00000121FFF7D3FF102300B290FBF3F008BDB1
:103D100008B50321FFF7CAFF102300B290FBF3F0B0
:103D200008BD08B50521FFF7C1FF102300B290FBC5
:103D3000F3F008BD2349F0B50A680B4612F01002F3
:103D40000ED08A68C8328A611F490A881F2A05D89E
:103D5000501C0880D86A1D4941F8220010222EE02C
:103D60000B68DB072CD5184B19881E46012922D970
:103D7000164B1C46481E824203F1040307DA53F82F
:103D8000040C1D680132281A43F8040CF2E763683A
:103D900003EB530700231A4699B2814209DA54F81B
:103DA0002150BD4203D9012505FA01F10A4301332F
:103DB000F2E7074B1A6000233380024B01221A609E
:103DC000F0BD00BF00800040ACC20720B0C2072099
:103DD000A8C2072070B50220144C012106F0EEFBAA
:103DE000012501210026022006F000FC65602667FF
:103DF00006F074FD42F21073B0FBF3F0E060A36ACA
:103E0000284623F00703A362A36A43F00603A362D4
:103E1000A66163692B436361054BDA6842F03002A7
:103E2000DA60044B04221A6070BD00BF00800040BD
:103E300000C0024000E100E008B5044A01F07F0341
:103E40004171D25C0321FFF725FF08BD78410200D4
:103E500008B5044A01F07F038171D25C0221FFF7AB
:103E600019FF08BD7841020038B5044694F90410E2
:103E7000006804F09DFE054688B120460621002218
:103E8000FFF708FF204607210022FFF703FF204627
:103E90002E21FFF7D1FF20462E21FFF7D9FF28461C
:103EA00038BD642370B591FBF3F404FB13110A23AE
:103EB0004CB294FBF3F603FB164303F1300149B215
:103EC0000546FFF7C5FF092C02DC2846202103E048
:103ED00006F13001284649B2BDE87040FFF7ACBF9B
:103EE000012070470E4B01F00F0140F213120170D8
:103EF0009A610278D10744BF0122DA610278920701
:103F000044BF0222DA610278510744BF1022DA610D
:103F10000278120744BF4FF48072DA61704700BF25
:103F200020C0092001207047FFF796BE012070478E
:103F3000044B5B69C3F38130C3F3412343EA800040
:103F4000704700BF20C0092010B50121044681221E
:103F5000FFF7A0FE206894F90410012204F00CFE83
:103F600010F0600F0CBF0020012010BD38B50021FB
:103F70000446FFF79BFE812285B201212046FFF710
:103F800089FE102328B290FBF3F007F093FF4FF067
:103F9000765107F0E3FFA16807F0D8FE38BD0000B6
:103FA00008B5FFF7E3FF054907F0D8FF044908F01B
:103FB00089F84FF0844107F0C9FE08BD00001041A8
:103FC0000000A0402DE9F04F0546ADF5177D0C46E9
:103FD000914602A8294601229A4602F081F800285B
:103FE00052D10CA821460A2202F07AF8064620B1E6
:103FF00002A802F0DEFA304646E000900190074643
:104000008046FDF759FE16A904464FF4007202A837
:104010006B4602F01DF98346A0B9009A92B1FDF7F4
:104020004BFEB8EB040468EB080500EB0408FDF751
:1040300043FE16A90446009A0CA801AB02F0B0F9A1
:104040008346A0B1B9F1000F01D0C9F80080BAF1E0
:10405000000F01D0CAF80070A09B03B11E6002A837
:1040600002F0A7FA0CA802F0A4FA58460CE0019955
:10407000009A9142E6D1FDF71FFE009B3C1B67EBC7
:10408000070507191E44BCE70DF5177DBDE8F08F45
:10409000F0B504468DB00F46164621461D4602A8CF
:1040A00000230122019302F01BF8044670B91DB1F0
:1040B00002A8294602F095FA02A83946324601AB19
:1040C00002F0C6F8044602A802F073FA20460DB0CA
:1040D000F0BDF0B504468DB00F46164621461D468C
:1040E00002A800230A22019301F0FAFF044670B9E6
:1040F0001DB102A8294602F074FA02A839463246D8
:1041000001AB02F04DF9044602A802F052FA204633
:104110000DB0F0BDF0B504468DB00F4616462146F1
:104120001D4602A800231222019301F0D9FF044684
:1041300080B902A80DB1294600E0059902F051FAB4
:1041400002A83946324601AB02F02AF9044602A819
:1041500002F02FFA20460DB0F0BD00007F2816D9DE
:1041600031B1FF2812D80A4B803833F8100070475D
:10417000074A8BB232F81120824203D001318029E4
:10418000F6D10B4603F18000C0B2704700207047A3
:10419000D84302000023064A32F8132032B190427D
:1041A00001D00133F7E7034A32F81300704700BF2C
:1041B000D8440200F841020010B501200C4605F079
:1041C0001EF92060003018BF012010BD012070478B
:1041D00010B5044605F0FCFE02280AD100210B466A
:1041E000204640F6B83205F069F9431E584258415E
:1041F00010BD012010BD10B5044605F0E9FE0228EF
:1042000007D1002120460A460B46BDE8104005F0C4
:1042100085B810BD10B5044604F098FA24B1012CFD
:1042200006D100F081F901E000F00AFD044600E04B
:10423000042404F09FFA204610BD20B1012801D1CA
:1042400000F030BA04207047F8B504460F46164611
:104250001D4604F07BFA3CB1012C0CD138463146A6
:104260002A4600F027FA04E0384631462A4600F094
:104270002DFD044600E0042404F07CFA2046F8BD3D
:10428000F8B504460F4616461D4604F05FFA3CB1E9
:10429000012C0CD1384631462A4600F059FA04E088
:1042A000384631462A4600F02DFD044600E004243D
:1042B00004F060FA2046F8BD70B504460E46154677
:1042C00004F044FA34B1012C0AD13046294600F0FA
:1042D0009BFA03E03046294600F02EFD044600E03C
:1042E000042404F047FA204670BD000010B50446CF
:1042F00006F0F4FA074BB0FBF3F00223B0FBF3F245
:10430000944202D3044A136110BDB3F5807FF9D003
:104310000233F3E740420F0000000340044B986073
:10432000DA68D206FCD4024B986840B2704700BFEE
:104330000000034038B5FDF7BFFC00F5FA754FF0FB
:10434000FF30FFF7EBFF4FF0FF30FFF7E7FFC4B29E
:10435000FF2C07D0FDF7B0FC2A460023994208BF86
:104360009042F0D3204638BD38B5064C4FF000756A
:10437000E561FFF7DFFF044BA5611A7842F0010207
:104380001A7038BD20C0092006C0072070B5054648
:104390000E46FDF791FC00F164044FF0FF30FFF78B
:1043A000BDFFC0B2FF2809D1FDF786FC22460023DD
:1043B000994208BF9042F0D3002070BDFE28FBD187
:1043C000102E06D928464FF40071002204F05CF943
:1043D00019E02C464FF0FF30FFF7A0FF20704FF0A0
:1043E000FF30FFF79BFF60704FF0FF30FFF796FF45
:1043F000A0704FF0FF30FFF791FF043404F8010C78
:10440000AB19A342E6D14FF0FF30FFF787FF4FF023
:10441000FF30FFF783FF012070BD38B505460C461D
:10442000FFF788FFFF281DD160B2FFF777FFFD2C53
:104430001AD04FF400714FF0FF32284604F024F9EF
:104440004FF0FF30FFF76AFF4FF0FF30FFF766FFD6
:104450004FF0FF30FFF762FF00F01F00431F58428C
:10446000584138BD002038BD012038BD38B503069D
:1044700004460D4607D577200021FFF7F7FF0128F6
:104480003CD804F07F041E4B4FF000729A61DA6151
:10449000FFF750FFFF282ED160B2FFF73FFF28162D
:1044A000FFF73CFF45F30740FFF738FF45F30720D0
:1044B000FFF734FF68B2FFF731FF402C04D0482CDF
:1044C0000CBF8720012000E0952040B2FFF726FFB7
:1044D0004C2C03D14FF0FF30FFF720FF0A244FF0A0
:1044E000FF30FFF71BFF0028C3B206DA013C14F0CF
:1044F000FF04F4D101E0FF2038BD184638BD00BFED
:1045000020C00920064A074913784969DBB24901EE
:1045100054BF03F0FD0343F003031370704700BF63
:1045200006C0072020C009202DE9F347FFF7EAFF66
:10453000594B1A781E4612F0020F01D01878A7E0E6
:104540000120FFF7D3FE0A244FF0FF30013CFFF7B4
:10455000E5FE14F0FF04F7D1504D4FF00073EB610E
:1045600040202146FFF782FF0128A84602D04FF0E5
:10457000000978E0FDF7A0FB4FF4D57100F57A77DC
:104580004820FFF773FF012843D14FF0FF30FFF7BA
:10459000C5FE0DF1040909F804000134042CF4D11E
:1045A0009DF80630012BE2D19DF80730AA2BDED111
:1045B000FDF782FB3C460025A94208BFA04206D376
:1045C000FDF77AFBA94208BFA042D0D207E0E9205C
:1045D0004FF08041FFF74AFF0028E9D1F0E77A2049
:1045E0000021FFF743FF0028C1D104464FF0FF3000
:1045F000FFF794FE09F804000134042CF6D19DF86D
:10460000043013F0400F0CBF4FF004094FF00C09B9
:1046100029E0E9202146FFF729FF01288CBF4FF050
:1046200001094FF002098CBF4FF0410A4FF0E90A2F
:10463000FDF742FB3C460025A94208BFA0420BD330
:10464000FDF73AFBA94208BFA0420CD34FF400711A
:104650005020FFF70BFF06E050460021FFF706FF52
:104660000028E5D1ECE70E4B83F800904FF0007383
:10467000C8F81830B9F1000F07D03378182003F0CC
:10468000FE033370FFF732FE01E0FFF76DFE307876
:10469000C0B202B0BDE8F08706C0072020C00920E4
:1046A00030C3072008B5FFF72DFF014B187808BD70
:1046B00006C00720F8B5144605460E46FFF722FF50
:1046C000002C3BD01F4B1B78DB0739D41E4B4FF01F
:1046D0000072DA611D4A1F46127812F0080F08BFF7
:1046E0007602012C0ED151203146FFF7BFFEF0B902
:1046F00028464FF40071FFF749FED0F1010438BF9E
:10470000002414E052203146FFF7B0FE78B9284665
:104710004FF40071FFF73AFE28B1013C14F0FF049A
:1047200005F50075F3D14C200021FFF79FFE4FF0F7
:104730000073201CBB6118BF0120F8BD0420F8BD28
:104740000320F8BD06C0072020C0092030C3072081
:10475000F8B5144605460E46FFF7D4FE002C46D0A9
:10476000264B1A78D20744D41B785B0743D4244ADB
:104770004FF00073D361234B17461B7813F0080FDB
:1047800008BF7602012C0DD158203146FFF76EFE8E
:1047900030BB2846FE21FFF740FED0F1010438BFB0
:1047A00000241DE013F0060F03D0D7202146FFF7A9
:1047B0005DFE59203146FFF759FE88B92846FC2195
:1047C000FFF72BFE28B1013C14F0FF0405F500753E
:1047D000F4D10020FD21FFF720FE002808BF0124AE
:1047E0004FF00073201CBB6118BF0120F8BD0420EE
:1047F000F8BD0320F8BD0220F8BD00BF06C00720A9
:1048000020C0092030C307207FB505460C46FFF7BE
:1048100079FE052D18D12378012B00F00C810AD3E5
:10482000022B40F00681864B5B6983F08063C3F303
:1048300080636370FFE0824B586910F0806440F041
:10484000FA80FFF791FDF6E07E4B1B78DB0700F165
:10485000F4800E2D00F2E580DFE815F00F0019005E
:1048600051005500E300E300E300E300E300E30050
:10487000AE00B200B400BE00CF00714B4FF000722A
:10488000DA61FFF757FDFF3818BF0120CCE049205F
:104890000021FFF7EBFD054608B10120C4E06846A2
:1048A0001021FFF773FD0028F7D09DF800309DF828
:1048B00008209B09012B9DF8093006D1013303EB39
:1048C000022292B29202226044E09DF807109DF805
:1048D0000A00890001EB92129DF80610013201F0E6
:1048E000030102EB81229DF8051003F0030301F0A0
:1048F0000F0101EBD01101EB4303073B27E04FF41D
:10490000007323808FE0504D2B7803F0040303F0F5
:10491000FF010BB3CD200021FFF7A8FD0028BCD17B
:104920004FF0FF30FFF7FAFC68461021FFF72EFD2D
:104930000028B2D030254FF0FF30013DFFF7EEFCEC
:1049400015F0FF05F7D19DF80A3010221B0902FA75
:1049500003F32360284667E04920FFF787FD0646FA
:1049600000289AD168461021FFF710FD002894D046
:1049700029789DF80A2001F0020101F0FF009DF85E
:104980000B3069B19DF80D1002F03F02DB0903EB1B
:1049900042038909013301398B403046236043E0EB
:1049A00003F003015B0903EBC103C2F3840201338B
:1049B00002FB0333236037E0234B1B78237032E084
:1049C000492000E04A200021FFF750FD00287FF435
:1049D00064AF204610211DE07A200021FFF746FD3C
:1049E00000287FF45AAF05464FF0FF30FFF796FCE2
:1049F00060550135042DF7D115E0CD200021FFF7DA
:104A000035FD00287FF449AF4FF0FF30FFF786FCFB
:104A100020464021FFF7BAFCD0F1010038BF00204A
:104A200002E0042000E00020054B4FF000729A6184
:104A300004E0042002E0002000E0032004B070BD88
:104A400020C0092006C0072030C30720F8B51A4B44
:104A500005461C880E46B4F5007F174602D108466D
:104A600011460AE0B4F5807F09D108461146224676
:104A7000A84706F5807007F58071224619E0B4F565
:104A8000047F07D1084622F4FF7121F001014FF4A1
:104A900000720EE0B4F5847F0CD1170A08464FF47B
:104AA00080727902A847791C06F5807049024FF49C
:104AB0008072A847F8BD00BF32C3072010B5034677
:104AC000002968DD072993F90040334A36DD9460F8
:104AD00093F901400839946093F90240946093F986
:104AE0000340946093F90440946093F90540946006
:104AF00093F90640946003F1080493F9073093603A
:104B0000254B9A695207FBD59A6802709A684270E1
:104B10009A6882709B68C3701F4BDA68D206FBD418
:104B20009A68083000F8042C9A6800F8032C9A68F8
:104B300000F8022C9B6800F8013C1EE003291EDDF2
:104B4000946093F901400439946093F902409460B1
:104B50001C1D93F9033093600F4BDA68D206FBD427
:104B60009A68043000F8042C9A6800F8032C9A68BC
:104B700000F8022C9B6800F8013C2346A0E70133B3
:104B800094600139D468E406FCD4034A0130926889
:104B900000F8012C94E710BD0000034007B50B0C92
:104BA0008DF804008DF805308DF807100B0A01A868
:104BB00004218DF80630FFF781FF03B05DF804FB98
:104BC000F7B50E4C174640250322E5618DF8042009
:104BD0000A0C06468DF805208DF807100A0A01A870
:104BE00004218DF80620FFF769FF30463946002280
:104BF00003F04AFDA56103B0F0BD00BF00C009206D
:104C00000D4B4022DA610D4B6FF028029A60DA6892
:104C1000D106FCD4094B9B68084B4FF0FF329A60D9
:104C2000DA68D206FCD4054B98680306F4D5024B2B
:104C300040229A61C0B2704700C0092000000340C2
:104C4000F7B5FFF7DDFF1D4C002323801C4B1D4DE6
:104C50001A8840269B78EE610746032101A8ADF82B
:104C600004208DF80630FFF729FF9DF805309DF8E8
:104C700006201F2BAE61234618D1A2F12501C9B22F
:104C8000022913D81049252A0A7007F0010006D11D
:104C900000280CBF4FF484724FF4807205E00028A6
:104CA0000CBF4FF404724FF400721A801888D0F1D0
:104CB000010038BF002003B0F0BD00BF32C30720A1
:104CC000B846020000C0092034C307202DE9F04196
:104CD000064617464FEA4128FFF792FF3446002563
:104CE000C6EB0802BD42224407DA21460448FFF71A
:104CF000ADFE04F500740135F2E70020BDE8F08157
:104D0000C14B01002DE9F041064617464FEA412804
:104D100004460025C6EB0802BD42224407DA2146BC
:104D20000448FFF793FE04F500740135F2E7002014
:104D3000BDE8F081254E010008B507281CD8DFE842
:104D400000F00407131719191919FFF759FF11E09B
:104D50000A4B1B78253BDBB2032B96BF084A002386
:104D600052F823305B0A04E04FF400730B8001E03B
:104D700001230B60002008BD042008BD34C30720B8
:104D8000BC46020070B590B003466A4600F140058B
:104D900018685968144603C40833AB422246F7D159
:104DA000064D4024EC619B200021FFF7F7FE68468A
:104DB0002146FFF783FEAC6110B070BD00C0092032
:104DC00070B5074D4024064600217720EC61FFF7BF
:104DD000E5FE30462146FFF771FEAC6170BD00BFB5
:104DE00000C00920084B188830F01F000BD0074B7B
:104DF0001B78253BDBB2032B96BF054A002352F8F4
:104E00002330B3FBF0F0704732C3072034C30720D0
:104E1000BC460200024B1878003018BF01207047D2
:104E200032C307202DE9F7434FF0FF330D4690467C
:104E300001938146FFF7E4FEFFF7ECFF0446A0B1C3
:104E4000174E4027174BF7611B880320B3F5847F6B
:104E500014BF4FF400714FF480712943FFF79EFE99
:104E600001A80421FFF72AFEB7610D4E40238220DE
:104E70002946F361FFF792FE48464146012203F0BE
:104E800003FC3CB1019B02A8013340F8043D04211E
:104E9000FFF714FE4023B36103B0BDE8F08300BF09
:104EA00000C0092032C30720F7B5114B07461B8805
:104EB000B3F5847F4FF0FF3314BF4FF400764FF407
:104EC00080760193FFF7A6FF60B10A4C40250320CE
:104ED00046EA4721E561FFF761FE01A80421FFF7DB
:104EE000EDFDA5610198431C08BF002003B0F0BD93
:104EF00032C3072000C009201FB501A803F0EAFA59
:104F00009DF809209DF8083002F00F0203F01F03FE
:104F1000520542EA03429DF806309DF8050003F071
:104F20001F0342EAC32300F03F0043EA40109DF80C
:104F30000430C3F344031843BDF80A305B0603F1A1
:104F40000843184305B05DF804FB10B50023D41ADC
:104F5000032C03D9CC58C4500433F8E702F00304FF
:104F600022F00302104400230A44A34203D0D15C80
:104F7000C1540133F9E710BD0244904202D000F859
:104F8000011BFAE77047000070B5164B002422465B
:104F900053F8085C65B10668B5420AD153F8046C51
:104FA0008568AE4205D11E88C588AE4201D106E0B3
:104FB00001240132032A03F10C03E9D10CE049B9C1
:104FC000094B0C2000FB02325389B3F5807F01D0DE
:104FD000002070BD102070BD002CF9D10229F7D03F
:104FE000122070BD40C3072038C3072070B51F4A88
:104FF0000668002352F8084CB44208D152F8045C09
:105000008468A54203D11588C488A5421AD001330B
:10501000032B02F10C02EDD1154A136843B1D3689A
:105020002BB193690BB9022302E0002070BD01236C
:105030000C255D43541956518268C08862602081F6
:10504000002060810A4A0C2000FB032029B141891D
:105050000029EAD14FF4807102E04189013189B21F
:105060000C2000FB0322581C518170BD40C3072057
:1050700038C307200138022810B511D80A4C0C217A
:1050800001FB00435A8922F480739BB20BB1531E7B
:105090009BB248430444638123B9034A135001E09F
:1050A000022010BD002010BD38C30720002310B51A
:1050B00004461846C20142EA5002E15CD2B2013312
:1050C0000A440B2BD0B2F5D110BD0368024613B9C8
:1050D0004FF0FF30704793F900003038082808D8A7
:1050E00093F901103A2904D102330128136001DD3C
:1050F000EEE7002070470269F8B50C4601F109039C
:105100007AB3426900210131551815F8015C6EB27D
:10511000202E1CD0052E08BFE525092902D12E26F8
:105120001E700133EEB2A6F14107FFB2192F0CD861
:105130000929177B34BF4FF0080C4FF0100C1CEA04
:10514000070F1CBF06F12005EDB21D7001330B29BE
:10515000D9D1D17A2172D1692160118BA180D28AF3
:10516000E28000251D70A669EEB103690BB9002528
:1051700017E0E369002BFAD0828C4FF6FF739A4256
:10518000F5D0076A37F8150058B10021FEF7E6FFA1
:105190000028ECD0E369013B9D42E8D2705501350F
:1051A000F0E700237355F8BDF8B504460079F8B16F
:1051B000256B04F13407607839462A460123FFF74E
:1051C0005FF8A0B9636A2071EA1AE3699A4201D3D1
:1051D0000020F8BDE678012EFAD9E36960781D4415
:1051E00039462A460123FFF74BF8013EF3E7012039
:1051F000F8BD0000F8B50446FFF7D6FF0546002DC0
:1052000031D12378032B26D16679012E23D104F1E5
:105210003407384629464FF40072FFF7ADFE4AF6D0
:105220005523A4F83232104B226A636303F1FF5313
:1052300003F500532033C4F8183263690132C4F80F
:105240001C3223692263C4F8203260783946334621
:10525000FFF716F86571002160780A46FFF72CF811
:10526000003018BF0120F8BD52526141036B70B588
:10527000994205460E460DD0FFF796FF044658B9F1
:10528000687805F1340132460123FEF7DDFF18B9D5
:105290002E6302E0002400E00124204670BD0000DF
:1052A000002310B503714FF0FF3303630446FFF78B
:1052B000DDFFA0B9B4F832224AF655239A4210D144
:1052C000D4F86A3023F07F42074B9A420AD0D4F8D0
:1052D000860020F07F40C01A18BF012010BD0320B7
:1052E00010BD022010BD00BF464154002DE9FF4112
:1052F00000230360074608461546FFF7E6FE061E34
:10530000C0F2F680834B53F82640002C00F0F28068
:10531000E068FEF75DFF002800F0EE803C60237837
:105320006BB16078FEF789FFC70708D4002D00F045
:10533000E58010F0040F0CBF00200A20E7E0F0B277
:10534000002323706070FEF765FFC60700F1D88068
:1053500015B1410700F1D68020460021FFF7A0FFDC
:1053600001281CD1221D002392F8F21109B1D2F8B4
:10537000F6114DF803100433102B02F11002F3D193
:1053800000265DF806502DB120462946FFF788FF1C
:1053900008B90BE002200436102EF2D100E00025FF
:1053A000032800F0B18008B10D20B0E0B4F83F3020
:1053B000B3F5007FF8D1B4F84A3003B9A36D94F87F
:1053C0004460E361721ED2B2012AE670ECD894F810
:1053D0004100A0700028E7D0421E0242E4D1B4F898
:1053E00045100A072181DFD1B4F8472002B9626D68
:1053F000B4F842C0BCF1000FD6D006FB03F80CEBAA
:1054000011174744BA42CFD3D21BB2FBF0F2002AA5
:10541000CAD040F6F570824206D94FF6F576B24210
:105420008CBF0326022600E00126023205EB0C00A9
:105430002F44032EA26125626062E76205D1002934
:10544000B2D1216E9200A1620FE00029ACD0022EF1
:105450004FEA420118BF8918404418BF02F0010208
:10546000A0620CBF0A4602EB510202F2FF12B3EB3C
:10547000522F99D34FF0FF3363612361032E4FF016
:105480008003637122D1B4F86430012B1ED1204611
:10549000691CFFF7EBFEC8B9B4F832224AF655236F
:1054A0009A42607112D1636B1B4A93420ED102F192
:1054B000FF52D4F8183202F500522032934205D13F
:1054C000D4F81C326361D4F820322361134A267069
:1054D000138801339BB21380E3800023104A99584C
:1054E000A14204BF002199500C33242BF6D10DE0CA
:1054F0000B200CE00C200AE00F2008E0284606E014
:10550000032004E00A2002E0012000E0002004B0B3
:10551000BDE8F0815CC307205252614136C30720C9
:1055200038C3072010B50446A8B103689BB11A78A8
:105530008AB1D988828891420DD1D868FEF748FE99
:1055400058B123685878FEF778FE10F0010F0CBFB1
:105550000020032010BD092010BD0F2010BD58B140
:10556000A1F10B03DBB2012B06D9092904D00F29C5
:1055700002D0C068FEF73FBE704783690239023B24
:10558000994204D28278C36A02FB0130704700203E
:1055900070470129F8B504460D4648D983699942F8
:1055A00045D20378022B25D0032B2FD0012B3BD1E2
:1055B00001EB5106416A01EB5621FFF757FE98BBFC
:1055C000616AC6F3080301362344204601EB5621E5
:1055D00093F83470FFF74AFE30BBC6F30806344434
:1055E00094F83400EB0747EA00204CBF0009C0F3F1
:1055F0000B00F8BD416A01EB1521FFF737FE98B9A2
:105600006D0005F4FF752C44A08EF8BD416A01EBD6
:10561000D511FFF72BFE38B9AD0005F4FE752C440B
:10562000606B20F07040F8BD4FF0FF30F8BD0120F6
:10563000F8BD70B504460D46E1808168012901D1AD
:10564000022070BD03689A699142F9D271B91A7843
:10565000032A01D1996A49B90022E2601A89AA4253
:10566000EED99B6A03EB1513236119E09E7836018E
:10567000B5420ED32068FFF78CFF431C014618D0BB
:105680000128DDD923689B699842D9D2AD1BADB200
:10569000EEE7E1602068FFF770FF00EB1510206176
:1056A000236805F00F0503EB4513343363610020D5
:1056B00070BD012070BD0129F8B504460D4616469F
:1056C0005ED9836999425BD20378022B37D0032BD2
:1056D00041D0012B50D101EB5107416A01EB572119
:1056E000FFF7C4FD002848D1C7F3080315F00105F2
:1056F0002344F2B206D093F8341001F00F0141EACE
:105700000212D2B2616A83F8342001370123237177
:10571000204601EB5721FFF7A9FD70BBC7F308072F
:10572000274415B1C6F3071606E097F83430C6F3E0
:10573000032623F00F031E4387F834601DE0416AFF
:1057400001EB1521FFF792FDB8B96D0005F4FF7567
:105750002544AE8611E0416A01EBD511FFF786FDC5
:1057600058B9AD0005F4FE75303525446B6803F07B
:1057700070431E436E6000E0022001232371F8BDD8
:105780000220F8BDF8B504460F4631B906696EB17E
:1057900083699E4228BF012609E0FFF7FAFE01282F
:1057A0003DD9A36998423BD33E4600E001263546E9
:1057B000A36901359D4204D3012E01D80020F8BD14
:1057C000022520462946FFF7E4FE48B1411C02D1DC
:1057D0004FF0FF30F8BD012821D0B542E8D1EDE708
:1057E000204629466FF07042FFF765FFA8B957B908
:1057F000636925615A1C0ED0013B6361637943F0F4
:105800000103637107E0204639462A46FFF753FF3C
:105810000028EDD001E02846F8BD0128D8D00120AD
:10582000F8BD2DE9F843C68804460136B6B20F46E6
:1058300016B90420BDE8F8830369002BF9D016F0EF
:105840000F085AD1C16801330361006819B903898F
:10585000B342EED951E08278013A12EA16124CD1E5
:10586000FFF797FE0128054602D80220BDE8F8831D
:10587000421C02D10120BDE8F883206883699D4263
:1058800035D3002FD5D0E168FFF77CFF054600280F
:105890003CD00128E9D0431CECD02068FFF784FC01
:1058A00007460028E6D12068394634304FF40072AC
:1058B000FFF762FBD4F8009029464846FFF75DFEEB
:1058C000C9F830002368FAB2997891420CD90122C4
:1058D0001A712068FFF768FC01370028CAD12368D5
:1058E0001A6B01321A63EDE7196B8A1A1A63E560C5
:1058F00020682946FFF741FE20612368E68003EB1C
:105900004813343363610020BDE8F8830720BDE805
:10591000F88300002DE9F74F4FF0FF080546444695
:1059200028682969FFF7A2FC074600287CD16E6928
:105930003378002B73D0F17AE52B01F03F0265D06C
:10594000090702D50F2A61D101E00F2A46D1D5F807
:1059500020B0BBF1000F5AD05A0606D503F0BF04A1
:10596000EB8896F80D80AB8401E0A3424ED1737BA7
:1059700043454BD137780D2327F04007013F5F4364
:105980004FF001094FF0000A294B1AF80330F05A82
:10599000B9F1000F0FD0FEF7FDFB7F2F814635D800
:1059A0007B1C3BF817000193FEF7F4FB8145019B3C
:1059B0002CD11F4603E04FF6FF73984226D10AF11F
:1059C000010ABAF10D0FDFD133785B0629D5B9F1A1
:1059D000000F26D03BF817301BB317E024B9304630
:1059E000FFF764FB80451FD04FF6FF73AA69AB84B5
:1059F000D37A13F0010309D1F15C0133D01810F808
:105A0000010C884202D10B2BF6D10DE0FF24284671
:105A10000021FFF706FF0746002881D004E0042795
:105A200002E0013CE4B2F2E7384603B0BDE8F08F93
:105A3000A64702002DE9F74F91F9003006462F2BBB
:105A4000894601D05C2B01D109F101090024B46021
:105A500099F800301F2B62D830462146FFF7E9FD48
:105A6000746114E101333AF813102029FAD02E2979
:105A7000F8D00BB144F00304424632F8021D2E293F
:105A800001D0013DF9D14FF0000B4FF008085F46FF
:105A90005A1C3AF81330002B40F08F80B3691A7803
:105AA000E52A04BF05221A70B8F1080F04BFBF0031
:105AB000FFB207F00C030C2B00F0CD8007F00302BF
:105AC000032A00F0C880A10709D407F00307012FBB
:105AD00008BF44F01004042B08BF44F00804B36965
