:020000021000EC
:10000000004008207F0101004D010100E1000100D6
:100010003D0101002D0101001D0101000000000053
:10002000000000000000000000000000C5A3010067
:100030000D0101000000000049A4010085A4010099
:10004000FD000100FD0001006D3F0100FD00010009
:10005000FD000100658A0100FD000100CD8A01005C
:10006000358B0100FD000100FD000100FD000100D5
:10007000F1850100FD000100FD000100FD0001000F
:10008000FD0001007D790100FD000100FD0001007F
:10009000FD000100F5840100FD000100FD000100EC
:1000A000FD00010049840100FD000100FD00010088
:1000B000FD00010079A80100FD000100FD00010024
:1000C000FD000100FD000100FD0001009C5B02003D
:1000D00000C007202001000020C10720DC04000030
:1000E00004207146084200F00480EFF309800AF012
:1000F0002FBCEFF308800AF02BBC704708B502480C
:1001000000F0CAF9FEE700BF3254020008B5024809
:1001100000F0C2F9FEE700BF4854020008B50248EB
:1001200000F0BAF9FEE700BF5854020008B50248D3
:1001300000F0B2F9FEE700BF6554020008B50248BE
:1001400000F0AAF9FEE700BF7054020008B50248AB
:1001500000F0A2F9FEE700BF7B54020010B50023B7
:10016000934203D21C585C500433F9E710BD0023BE
:100170008B4203D200221A500433F9E7704710B5BE
:1001800014480AF01FFA13480AF01FFA124C134BD6
:100190009C4205D294E807000C34FFF7DFFFF6E736
:1001A0000F48844205D294E803000834FFF7DFFFCC
:1001B000F6E70CF0FDFE0AF01FFA01F0B5FE02F0C2
:1001C00045FD4FF416400AF0F7FC064800F064F9CC
:1001D000FEE700BF00400820CC000100D80001006D
:1001E000E0000100ED54020008B5024800F054F9A7
:1001F000FEE700BF1655020008B5024800F04CF9B2
:10020000FEE700BF2155020008B5024800F044F99E
:10021000FEE700BF30550200124A30B511680346B0
:1002200011B94FF08050106010680F4DC41862195A
:100230000E4D0C49AA4297BF0D480C601A180A606F
:10024000084A0C4C1168A14202D90B4810600020EA
:100250003BB10A4A116801311160094A094910602D
:100260000B6030BD24C10720FF7FFFEFFE3F07106A
:10027000FCC50720FF3F0820004008202CC10720B4
:1002800028C1072020C107200CF0D0BE0CF0CEBE44
:100290000CF0D4BE0CF0D2BE30B58BB0044668462C
:1002A0000DF010FB214D089B07982560A36060604E
:1002B00058B91F491F4A0B6893428ABF03F1604334
:1002C00003F17043A3F5E82363606068B0F5803FF5
:1002D00004D900F17041A1F5E82363601448154B7F
:1002E000016800229942E26006D86D18C5F180537A
:1002F00003F58035E5600BE00F4A914208D80F48BE
:10030000C0F1804303F58012501A0028C8BFE06096
:10031000E1610B490B480A680B490368A2610A684E
:100320006361226120460BB030BD00BFFC050000B8
:1003300024C1072000800010FF3F0820FCC50720D3
:1003400028C1072020C107202CC10720FEE700009C
:10035000014B1860704700BF34C10720014B186083
:10036000704700BF30C1072008B502480DF0CCFA35
:10037000FEE700BFDC2D020008B502480DF0C4FA0C
:10038000FEE700BFF62D02000020704701207047F5
:10039000084B70B518680E46154640B10024AC42B3
:1003A00005DA044930570A6890470134F7E72846D0
:1003B00070BD00BF34C10720094B70B518680E46E8
:1003C000154600B970BD0024AC4206DA0448016845
:1003D0000020884730550134F6E725EAE57070BD06
:1003E00030C107207047002070470000074B196894
:1003F0008A68824207D04B68834204D0C9680A1ACF
:100400005042504170470120704700BF7CC0072018
:10041000002070470020704730B504468DB000289A
:1004200037D0684608F088F99DF800309DF8011033
:1004300003F03F0003909DF8040001F03F029DF897
:10044000025000F01F010492BDF806009DF805203F
:1004500005F01F03069102F00F05C0F30B018AB2ED
:100460000593BDF808106B1E07939DF80330A2F2A8
:100470006C75C1F30B0203F00700089595B26B1E73
:100480000990002503A80A930B950CF039FF84E826
:10049000210000200DB030BD10B5044609F0B8FFB2
:1004A000013C14F8010F18B140B20AF0C1FBF8E7A3
:1004B000BDE8104009F0BEBF38B50F4C256815F0F7
:1004C000010516D120460AF055FC90B14FF40E708C
:1004D000FFF7DAFE094B30223A2180F8345280F8D7
:1004E000352280F8361280F83752186020460AF01C
:1004F0004FFC0248006838BD3CC1072040C10720BE
:1005000038B5104C236813F0010517D120460AF0C6
:1005100031FC98B14FF40E70FFF7B6FE012280F85F
:100520003422094A31213A2380F8351280F83632D4
:1005300080F83752106020460AF02AFC0248006812
:1005400038BD00BF54C1072058C107202DE9F04134
:10055000ADF50A7D0E4607F01DFE041E04DD09F010
:10056000E5FE204609F084FC264D05AC0FCD0FC4F6
:100570002B6810210DEB010200250AA823600495C9
:1005800009F032FC074604986422B0FBF2F10491B2
:1005900030461D491D4A0A2308F03AFBBD4222D0CD
:1005A0000AAC049B04EB4514A2690BB1B2FBF3F354
:1005B000606994F80C800090A18B029388000A2354
:1005C0000190A2FB03014FF47A7200230CF0F2F8C1
:1005D00005AB03900E493046626853F8283008F0A6
:1005E00017FB0135DAE709F017FB102804D930466C
:1005F0000849102208F00CFB01200DF50A7DBDE82A
:10060000F08100BF102E02002F2E0200562E020095
:100610005B2E0200782E020010B5ADF5007D0C4671
:1006200068460AF037F9204669464FF0FF3208F075
:10063000B9FA01200DF5007D10BD000030B50C4663
:1006400091B02C49054607F0ADFC002847D008AB17
:10065000009309A80AA90BAA0CAB0190029103927E
:1006600004932846244906AA07AB07F0FEFB072897
:1006700001D000203BE09DF8390006999DF8383004
:1006800061F303008DF839000899BDF83A00079A24
:1006900061F30B0062F304030A99ADF83A009DF888
:1006A0003500099A8DF838309DF8363061F3050031
:1006B00062F304038DF835000C999DF837008DF82E
:1006C00036300B9A9DF8343061F3020062F3050373
:1006D0008DF837000DA88DF8343008F04FF808F089
:1006E000E7F806490246204608F092FA012011B0C8
:1006F00030BD00BFA22E0200A62E0200814C0200D7
:1007000030B589B004AB0024009302220D4603AB40
:1007100018490394049407F0B5FB022827D107A8D1
:10072000009005AA0398049906AB059406940794D3
:1007300003F06CFD024638B1049928460091039BF2
:100740000D4908F065FA10E0059A069B079C002AFF
:1007500008BF0122002B08BF012328460749B4FB2C
:10076000F2F2B4FBF3F308F053FA012000E0204664
:1007700009B030BD893F0200BF2E0200DE2E02000C
:100780002DE9F0410C46ADF5866D3049054607F080
:1007900096FC2F490746284607F0BAFC2C49284604
:1007A00007F0D6FC284607F0F3FC0122014601A819
:1007B00005F0BAFD064640B1284607F0E9FC254998
:1007C0000246204608F024FA3AE00BAD314640F2EA
:1007D000014228460CF0C4FC009601F04DFB804617
:1007E00001A829464FF480626B4605F069FE90B17E
:1007F00001A806F00FF88FB101F03EFBB0EB080046
:1008000014BF03460123144920463246B6FBF3F3D6
:1008100008F0FEF902E0009B3BB9E9E720460F49EA
:100820004FF0FF3208F0BEF90AE0F618E854002F46
:10083000D6D1204629464FF0FF3208F09FF9CFE786
:1008400001200DF5866DBDE8F08100BF0C2F020080
:10085000893F0200152F0200292F020036450200B1
:10086000F0B5C1B00DAB0025009302220C460CABD5
:100870005C490B950C950D9507F004FB022803D1FC
:100880000D980CF08AFA05460C9808B956490C9157
:1008900016A80C9906F061F8034678B12046534932
:1008A0000C9A08F0B5F99AE020AA802616A80EA99D
:1008B0001492159606F0A3F8013D08B9002DF3DC5B
:1008C00020464B490C9A08F0A3F900252E468020BB
:1008D00020AB15900EA916A8149306F090F80028E6
:1008E00065D19DF94110002961D09DF8407007F055
:1008F0001002D3B213B10135442205E00B990E98D2
:1009000001360A180B922D2207F0020C17F0010F86
:1009100007F0040E5FFA8CF007F020070CBF2D23C0
:1009200052235FFA8EF100280CBF4FF02D0C4FF0D0
:10093000480CF8B200290CBF4FF02D0E4FF0530EAB
:1009400000280CBF2D214121BDF83C00029141122D
:10095000BDF83E7001F2BC718DE800500391C0F308
:100960004311049100F01F00F912C7F345170691D7
:100970000590079740A951F8C80D093108900991D1
:1009800020461C4908F044F920461B494FF0FF322D
:1009900008F0F4F820A920464FF0FF3208F0EEF8F6
:1009A000204616494FF0FF3208F0FCF88FE700951B
:1009B00040AD55F8D43D12493246204608F028F99A
:1009C0000C9829460AAA06F049F840B90A9B0B99E7
:1009D0009A7820464A430B49520808F019F9012039
:1009E00041B0F0BD893F0200442F0200472F0200B2
:1009F0006B2F0200862F0200B32F02003645020043
:100A0000B72F0200E12F020070B50E46054607F031
:100A1000BFFB0446284607F0BBFB06F0ECF8064A8D
:100A2000064B0749002818BF13463046224608F0F7
:100A3000EFF8012070BD00BFA13102009731020024
:100A4000F52F020070B50E46054607F0A1FB0446DF
:100A5000284607F09DFB06F065F8064A064B074955
:100A6000002818BF13463046224608F0D1F801206E
:100A700070BD00BFA13102009731020011300200A9
:100A80007FB503AB0024009302220E4602AB0F4950
:100A90000294039407F0F6F9022814D1029D039CF6
:100AA0002846214606F04EF909490A4A23460028FD
:100AB00014BF104608460090074930462A4608F001
:100AC000A7F8012000E0204604B070BD893F020075
:100AD00097310200A13102002330020030B58DB001
:100AE0000C46054607F054FB0A22014602A805F011
:100AF0001BFC40B1284607F04BFB1F49024620462D
:100B000008F086F835E08DF8030001901B49204677
:100B10007E2242F2107308F07BF81949204608F053
:100B200077F8236820461B680DF1030142F210722A
:100B3000984718B19DF903007E2803D102A805F05B
:100B400069FE16E002A80DF10301012201AB05F0D8
:100B50005DFD28B10199012902D020460949DEE74F
:100B60002268204653689DF903104FF0FF329847E2
:100B7000D7E701200DB030BD3B30020062300200EB
:100B80009A300200BA3002002DE9F043ADF5417D04
:100B9000002303AD2B60029302220C4600954049CE
:100BA00002AB07F06FF9022806D020463D494FF00E
:100BB000FF3207F0F7FF6EE016A8296805F0CDFEBA
:100BC00018B1204638492A6807E016A8029905F0AE
:100BD000C4FE28B13549029A204608F019F85AE0B7
:100BE00040A94FF4807204A807F010F909A880A961
:100BF0004FF4807207F00AF920A880211490159113
:100C000016A80EA905F0FBFE00283ED19DF9412053
:100C1000002A3AD09DF8405005F01003DDB2002DB7
:100C2000EAD10DF14106029A334604A8204907F0A3
:100C300026FB039A33461E4909A807F020FB04A8A7
:100C400007F0A6FA804609A807F0A2FA074604A80A
:100C50000E9E07F09DFA814609A807F099FA2A46E8
:100C600001462B460095484603F0D0FA1149124A36
:100C70000096002814BF1046084601900F492046F0
:100C800042463B4607F0C4FFB6E709A807F0D2F892
:100C900004A807F0CFF801200DF5417DBDE8F083F1
:100CA000893F0200E1300200263102004B31020090
:100CB0006B31020097310200A13102007131020054
:100CC00070B50C462149054607F060FA064628B182
:100CD000FFF716FC002100F2352009E028461C49E8
:100CE00007F054FA50B1FFF7E7FB314600F2352028
:100CF0000A4606F0B9F8174B17491CE02846174971
:100D000007F044FA48B1FFF7FBFB012200F235215E
:100D100005F0BAFA124B13490DE02846124907F0C4
:100D200035FA88B1FFF7C8FB012200F2352105F042
:100D3000ABFA0E4B0E49002808BF19464FF0FF32A0
:100D4000204607F02FFF012070BD00BFF8310200E0
:100D500002320200903102009A3102000F3202008A
:100D6000A7310200B731020018320200CE31020072
:100D7000DC31020010B501200C4607F03BF838B119
:100D800000210A460B4608F0F9FB2046044901E021
:100D9000044920464FF0FF3207F004FF012010BD48
:100DA000243202003A32020038B5064C236833B9C7
:100DB0001C20FFF769FA054607F010FC2560206843
:100DC00038BD00BF48C107202DE9F0430C4687B06D
:100DD0003C49064607F0FEF83B498046304607F09E
:100DE000F9F83A498146304607F0F4F800270546FD
:100DF000039704970597B8F1000F1DD0304634498A
:100E000003AA04AB07F031F8022807D02046314985
:100E10004FF0FF3207F0C6FE3D464FE0FFF7C4FF3C
:100E20009DF90C109DF9102007F0CDFF0499C2B276
:100E300000912046284924E0B9F1000F2BD005ABE2
:100E400000933046254903AA04AB07F00EF80328A7
:100E500007D0204622494FF0FF3207F0A3FE454657
:100E60002CE0FFF7A1FF9DF90C109DF910209DF9D2
:100E7000143007F099FF40B104981A49059A009080
:100E80002046039B07F0C4FE17E020461649039A4C
:100E900007F0BEFE11E088B10226FFF785FF71B2B0
:100EA00007F09EFF20B120461049324607F0B0FE01
:100EB0000236B6F5807FF0D100E00125284607B064
:100EC000BDE8F083AC400200543202005A32020006
:100ED000633202006F32020090320200B13202002F
:100EE000C1320200E832020008330200253302005A
:100EF0002DE9F04F5E4C93B023680E4633B92020A5
:100F0000FFF7C2F9054607F09FFD2560D4F8008081
:100F1000FFF7D2FA002512A941F8105D00F2352042
:100F20000DAA05F09BFD48B90D9A0E999769907826
:100F3000BC1E414344434D08670800E02F46DFF8DC
:100F40003491D9F8003063B90C20FFF79DF90446BD
:100F5000FFF72AFF9022206000202271A060C9F8CC
:100F600000404449086803F03FF904460BF0DCFBFD
:100F700083460BF035FA014620460BF07BF93E49DB
:100F80000BF082FA0BF0D0FB0B900FA809F02AFBB4
:100F900004F052F838B307F003FD04F035F80024EC
:100FA0000346A146A2469C420AD020460A9304F07A
:100FB0008BF8504584BFA14682460A9B0134F2E774
:100FC00007F002FD642303FB0AF22C483B46B2FB08
:100FD000F0F1C1F164028DE80406304628492A4642
:100FE00007F016FE05E0304626492A463B4607F044
:100FF0000FFE254C23681BB90120FFF745F920603F
:10100000206803F0B5F8044607F052FC9DF8412033
:101010009DF84010019001F01F0302F00F00BDF891
:10102000422003939DF83E300290C2F30B0081B240
:1010300003F01F029DF83D009DF83C30049105929D
:1010400000F03F0103F03F02079200940691B8F8C8
:1010500018005A460890B8F81A10304609910B9BB0
:101060000A4907F0D5FD012013B0BDE8F08F00BF9D
:1010700038C1072044C1072000002041A08601009C
:1010800045330200793302004CC107208733020048
:1010900038B5064C236833B91420FFF7F5F8054638
:1010A00006F042FB2560206838BD00BF50C1072014
:1010B00008B54FF0FF320846094907F073FDFFF706
:1010C000E7FF06F023FB4FF4FA6008F0D1FE4FF083
:1010D00080430020AA221A721870012008BD00BFA8
:1010E000EF33020073B50C461349054607F04EF87E
:1010F00050B1FFF7CDFF06F009FB20460F494FF036
:10110000FF3207F04FFD15E0FFF7C2FF0646284605
:1011100007F03EF8C6230146094A00933046094BC2
:1011200006F0DCFB284607F033F807490246204664
:1011300007F06EFD01207CBD003402000634020081
:101140001F340200242E02005234020070B58AB00F
:1011500005460C4606F080FE0B2803DD20461B49A1
:101160000C222DE0284607F013F8012201466846BC
:1011700005F0DAF806462846EEB907F009F8144BF0
:1011800001681960426813495A608068986043F8A2
:10119000041C039A1049204607F03AFD684605F002
:1011A00039FB4FF47A7008F063FE4FF08043AA22B7
:1011B0001A721E7006E006F0EBFF08490246204650
:1011C00007F026FD01200AB070BD00BF7434020094
:1011D000484002400DD0ADDE9B340200E3340200F3
:1011E00070B5414EA6B033680546DB070C460CD4FB
:1011F000304609F0BFFD40B14FF480600BF016FFA0
:101200003A490860304609F0C3FD2846384906F0DF
:10121000E1FE064620B30021802206A80BF0A0FFC5
:10122000002105A8049105910090324906AA04AB5B
:10123000284606F01AFE2D4A049B116806A8059A56
:1012400013B903F06DF801E003F08BF82A4A2B493B
:101250000346002B08BF1146204607F0D9FC32E0B8
:101260002846274906F0B6FE00283BD0284604AAA7
:10127000244905AB049605968DF80F6006F0F5FD40
:10128000049D05982A18B2F5806F0DDD20461E4991
:101290004FF4806210E015489DF80F100268515518
:1012A0009DF90F300135F618049B0598E91A814223
:1012B00005DB16492046324607F0AAFC03E0B5F5E7
:1012C000806F02DBF5E701200CE0226820461368FE
:1012D0000DF10F014FF4FA6298470028DBD1204648
:1012E0000B49BAE726B070BD60C107205CC107207A
:1012F0000E35020015350200F8340200FC340200FD
:10130000253502002C350200363502006A35020010
:101310005A35020030B50C4687B00B49054607F038
:1013200077FCA17AE07A0091E1880190029120890E
:10133000A18803900491628823882846034907F016
:1013400067FC07B030BD00BF7B350200B13502003D
:101350001FB501A80C4602F0E9F901F0D7FE01A97A
:1013600002462046FFF7D6FF012004B010BD000062
:10137000F0B58DB003AB002500930C4617463849F5
:10138000022202AB0295039506F07CFDA84239DDEE
:1013900002980BF002FDC6B2039818B10CF0ABFD39
:1013A000C5B200E0054604A8002102F051FD30B1AD
:1013B00020462C494FF0FF3207F0F4FBF3E70037EB
:1013C00018BF01270220009039463046039A2B4669
:1013D00001F0CEFF10B9204623490EE0002F3CD08B
:1013E00004A84FF47A7102F03DFD002830D09DF83A
:1013F0001010B1422CD107E01C494FF0FF3207F02A
:10140000D1FB2AE0284629E09DF817200C2A04D1B8
:10141000204606A93246FFF77DFF2046002DEBD17E
:10142000134907F0F5FB9DF817309D420BDA206851
:101430000CA94A19436812F9181C20464FF0FF32D4
:1014400098470135EFE720460A4907F0E1FB04E041
:1014500020460949029A07F0DBFB01200DB0F0BDE0
:10146000893F0200CF350200F13502002D3602001F
:1014700019360200853C02004A36020038B50D4696
:1014800006F088FE0446C0B201F034FE054A064B61
:101490000649002808BF13462846224607F0B8FB35
:1014A000012038BD70360200973102007736020005
:1014B00030B58BB00AAA4FF47A730C4642F8243D3B
:1014C000174906F0D2FC002502A8019902F0C0FCE1
:1014D000E0B1204613499DF8082007F099FB00254C
:1014E0009DF80F0085420BDA23680AA94A1912F900
:1014F000181C5B6820464FF0FF3298470135EFE734
:101500002046094907F084FB0125DDE72DB9204677
:1015100006494FF0FF3207F045FB01200BB030BD0C
:10152000333502008E36020035450200A536020032
:1015300037B50C4601F060FF16490546204607F016
:1015400067FB154920462A4607F062FB20461149F1
:1015500007F05EFBDDB11149204607F059FB20463C
:101560000C4907F055FB0020451CEDB201F02EFFA1
:1015700048B181780278437800912046084907F005
:1015800047FB2846F0E72046024907F041FB0120CF
:101590003EBD00BFB6360200D1360200EB36020077
:1015A0000637020038B5064C236833B94C20FEF7E5
:1015B0006BFE054607F0A0F82560206838BD00BF27
:1015C00064C107202DE9F04FADF5757D80220446FA
:1015D00034AF894614A800210BF0C2FD00218022FF
:1015E00038460BF0BDFD03AE002333602046009665
:1015F000714914AA3B4606F038FC032801D00020AC
:10160000D5E00AA814A9012204F08EFE05460028A0
:10161000F5D1FFF7C7FF0446306854A984F84700A6
:10162000802205A88DF80B50049506F0EFFB00977B
:101630004846624914AA336807F0EAFAA8460AA89D
:1016400074A94FF4007204AB04F03AFF38B10AA851
:1016500005F0E0F805A806F0EDFB0120A7E00499ED
:101660000029F4D06F1C5649049A204607F0D0FA9E
:10167000226820469668B04700267D1EB246049B2D
:1016800020689E420DD20DF5E87B1BF906104368D9
:101690004FF0FF322046984716F90B1001368A4466
:1016A000EDE781682046884705A806F071FD0646EB
:1016B00005A806F0D4FB4FF47A7302463146204663
:1016C00007F07EFA0121202205A806F00CFD05A8EE
:1016D00006F060FD50451FD005A806F05BFD3949B6
:1016E00003465246484607F093FA3749204607F02A
:1016F0008FFA206881682046884722682046136850
:101700000DF10B014FF47A7298470028F5D1781C3F
:10171000022F9CD80746A6E7049A2C49009243461C
:1017200034AA204607F074FA26682046B368984722
:1017300005A806F02DFD064605A806F090FB3146EB
:1017400002464FF47A73204607F03AFA05A820497A
:1017500006F016FCD0B905A806F01AFD1D49024690
:10176000484607F055FA1849204607F051FA216813
:1017700020468A689047236820461B680DF10B01BC
:101780004FF47A7298470028F5D1C0E705A81249AE
:1017900006F0B3FD049811498044424648460D9B2B
:1017A00007F036FA002D3FF44AAF013D47E70DF54B
:1017B000757DBDE8F08F00BF213702003037020091
:1017C00047370200593702003545020080370200D2
:1017D000963702009937020036450200D1370200E1
:1017E0002DE9F04186B006AA0026074642F80C6DA6
:1017F0000D463C4906F039FB38460121202206F00F
:1018000072FC039B002B63D0384606F025FB0028B2
:101810005ED0FFF7C7FE8DF80B60044620680DF11F
:101820000B01066805222046B04706460028F5D180
:101830000399384684F8471006F0AAFC4FF0FF32AF
:101840000146204607F0AEF9226820469768B8475F
:10185000254B0596186837460490216820460B688A
:101860004FF47A720DF10B01984770B105A8411C35
:1018700003220BF05BFC9DF80B8005A804A9042251
:101880008DF817800BF03AFC38B91821B7FBF1F34B
:1018900001FB13726AB101330BE028684FFA88F13B
:1018A000436801222846013798470028D5D10136E0
:1018B000D3E728460D493A4607F0AAF976B16120E8
:1018C00000900B49284632460A4B07F0A1F905E083
:1018D000284609494FF0FF3207F064F9012006B0AD
:1018E000BDE8F0813335020077350200DD370200B4
:1018F00004380200BD380200F938020043682DE9BF
:10190000F041994204460D4617D3C06889000CF097
:1019100085F8A668E060B700AE420DD21020FEF751
:10192000B3FC0021102280460BF01AFCE06801365F
:1019300040F807800437EFE76560BDE8F0810000FC
:101940002DE9F743304D07462C688946002C49D1D4
:101950002420FEF799FC0423064680E818008460E2
:10196000C46008214FF00108FFF7C8FF86F8208007
:1019700030462649264A274B00942E6005F0D4FCB9
:1019800028682549254A264B009405F0CDFC286897
:101990002449254A254B009405F0C6FC28682449B3
:1019A000244A254B009405F0BFFC28682349244AAB
:1019B000244B009405F0B8FC28682349234A244BA3
:1019C000CDF8008005F0B0FC28681F49214A224B61
:1019D000009405F0A9FC009428682049204A214B76
:1019E00005F0A2FC3846204906F0D0FB18B1384675
:1019F0001E4906F082FC044B394618684A4603B07B
:101A0000BDE8F04305F060BD68C10720E1170100A3
:101A1000253902002C390200C51501006639020083
:101A20006F390200B1140100C3390200C639020047
:101A30007D1401005E3D0200E9390200311501000C
:101A40002F3A0200133A020071130100783A0200A3
:101A5000363A0200773A02007C3A02005113010044
:101A6000BC3A0200A13A020036450200C23A020026
:101A700037B590F90450144600934AB223462946DC
:101A8000006807F09CF93EBD10B5044694F90410B7
:101A90002D220823006807F087F9206894F90410C4
:101AA0003122082307F080F9012010BD10B504464B
:101AB0002246084606233221FFF7DAFF204610BDF2
:101AC0000120704710B50446224608460623282107
:101AD000FFF7CEFF204610BD014B0360704700BFEB
:101AE000D03A020001207047012070470120704762
:101AF000034B10B504460360FEF7CAFB204610BD39
:101B0000D03A0200014B0360704700BFD03A020098
:101B1000034B10B504460360FEF7BAFB204610BD28
:101B2000D03A0200F7B50646B16B6846FFF7BEFF34
:101B3000BDF804300098A6F844303064F16B684674
:101B4000FFF7C0FFBDF804200099A6F84A20C6F8A8
:101B50004610708E0AF044FC0446B6F846000AF0BF
:101B60003FFC00210AF090FC014620460AF084FB6D
:101B70000AF000FE7086B08E0AF032FC0546B6F818
:101B800048000AF02DFC00210AF07EFC01462846A0
:101B90000AF072FB0AF0EEFDB086B6F8440009F0D8
:101BA000E5FF0746B6F840000C4609F0DFFF0246A5
:101BB0000B463846214609F0C5FB0AF0E7FAA6F8BD
:101BC0004C00B6F8440009F0D1FF0746B6F84200D1
:101BD0000D4609F0CBFF02460B463846294609F070
:101BE000B1FB0AF0D3FAA6F84E0087B2B6F840006F
:101BF00009F0BCFF0446B6F842000D4609F0B6FFF6
:101C000002460B462046294609F074FE0446B6F803
:101C100044000D4609F0AAFF02460B46204629461D
:101C200009F068FE0AF0B2FA6FF42073A6F85200C9
:101C3000C01881B240F27E62914240D8708E0AF0A4
:101C4000CFFB0446B6F846000AF0CAFB00210AF0B2
:101C50001BFC014620460AF00FFB1A490AF014FC4F
:101C60000446B6F84C000AF0BBFB17490AF00CFC1E
:101C7000014620460AF000FB0AF07CFD7086B08E1B
:101C80000AF0AEFB0446B6F848000AF0A9FB0021B2
:101C90000AF0FAFB014620460AF0EEFA09490AF07A
:101CA000F3FB044638460AF09BFB07490AF0ECFBBD
:101CB000014620460AF0E0FA0AF05CFDB0860120F9
:101CC000FEBD00BF48E17A3F0AD7A33C70B5174E6E
:101CD000044633684BB90820FEF7D6FA0546FFF7ED
:101CE00063F82860A720287135601049104E0A68F3
:101CF0003368A2634BB90820FEF7C6FA0546FFF722
:101D000053F82860D32028713560094905230A68F3
:101D1000E361E263A06BFFF7B7FE28B1E06BFFF76A
:101D2000CFFE08B1012070BD002070BD6CC107203E
:101D300070C1072038B50D46044608F0EFFE074B8A
:101D40000221B0FBF3F0B0FBF1F2954201D3216127
:101D500038BDB1F5807FFAD00231F4E740420F0080
:101D600001480BF0D1BD00BF483B02007FB500F237
:101D700035260D460122314604F086FAC4B24CBB2A
:101D800004A941F8044D304602AA04F067FEF8B9F0
:101D9000029A039994699378A21E5A4359435408AE
:101DA00040F2E73348089C420F49104B8CBF4FF478
:101DB0008062012288BF0B46B0FBF2F18DE80A0079
:101DC0000B482946B4FBF2F20BF086FD012008E037
:101DD000084B00E0084B0948294662B20BF07CFD35
:101DE000002004B070BD00BF823B02007F3B0200B8
:101DF0008C3B0200853B0200893B0200BA3B02009B
:101E000038B5AA224FF0804355201A72187208F094
:101E1000FBF9174C02284FF000014FF00100D4E904
:101E2000002317D1121843EB0103C4E9002308F083
:101E300087FDD8B108F076FDD4E900010A2200231D
:101E40000AF0B8FC0A25A0FB052305FB0133C4E911
:101E5000002338BD121843EB0103C4E9002302F04C
:101E60000BF80020BDE8384008F0B2BB38BD00BF19
:101E700088C10720FFF7C4BF024BD3E900231046F7
:101E80001946704788C1072038B5084D2B684BB9F3
:101E90000820FEF7F9F90446FEF786FF206040208F
:101EA00020712C600149086838BD00BF84C107203B
:101EB00038B5054C256825B90120FEF7E5F9057010
:101EC0002060206838BD00BF80C1072038B5094DAB
:101ED0002B685BB90C20FEF7D7F90446FEF764FFC8
:101EE0000021206090202071A1602C60014A1068C0
:101EF00038BD00BF44C1072010B5044C23681BB98E
:101F00000120FEF7C1F92060206810BD4CC10720F8
:101F100010B5044C23681BB90120FEF7B5F9206009
:101F2000206810BD7CC10720B14AB24970B540237A
:101F3000B14D4FF000704FF480348B6190618C6133
:101F40002E68ADF5047D26F0F0032B60286840F084
:101F500050042C602E6826F440532B60086840F033
:101F600040040C602E6826F47C232B60286840F423
:101F700028242C602E6826F470032B60286840F417
:101F800020042C602E6826F040432B60286840F027
:101F900000442C606E6826F03C036B60686840F07B
:101FA00028046C606E6826F003036B60086840F4D8
:101FB00080340C606E6826F440536B60086820F42F
:101FC00080040C60E96821F44036EE60136843F049
:101FD000807010606C6824F4402169606E68874CE2
:101FE00046F480236B60A8680440AC60116841F43B
:101FF000897646F001031360A86820F47014AC6081
:10200000A96821F07046AE60136823F44640106062
:10201000EC6824F03001E960EE6846F03003EB60D4
:10202000E86820F47014EC60156845F000711160E8
:10203000166826F08063136008F058FA4FF4FA60CF
:1020400006F079F9FFF78CFE08F068FD0AF0C4F994
:102050006B490AF0CDFA09F0ABFD02460B46694820
:102060000BF03AFC08F0B8FA042811D100226648B7
:1020700005920568654E04AC0495FFF771FEF16C9E
:102080006348326D736D00940BF026FCFFF768FE19
:102090000C20012108F0B2FB5E4C0C20032108F05B
:1020A000C5FB4FF40011216008F038FD0223C00881
:1020B000594AB0FBF3F5954204D8266846EA032155
:1020C000216003E00233B3F5807FF1D10A200121C2
:1020D00008F094FB0A20012108F0A8FB4F480725CF
:1020E0000224056001214460FFF724FE06F0E8FBAE
:1020F0001520012108F082FB1520012108F096FB34
:102100004748012105604460FFF714FEFEF74CFECE
:10211000642106F02DFA10B942480BF0F5FB01F0EE
:1021200071FE10B940480BF0EFFB01213F4808F069
:10213000CDFBFEF7C1F93E49FFF718FE0646B8B9D8
:102140003C480BF0C9FBFEF7B7F93146324600F2C6
:10215000352004F089FE384B384A002814BF104659
:1021600018460BF0D1FBFEF7A7F93149FFF7FEFD4A
:10217000334C206810F0010517D1204608F0FAFD15
:1021800098B14FF40E70FEF77FF82E4A01213126E8
:102190003A2380F8341280F8356280F8363280F8BD
:1021A00037521060204608F0F3FD264C264920687F
:1021B000264DFFF7DBFD19481821FFF7BBFDFFF7A0
:1021C000CFFD286848B90820FEF75EF80646FEF7FE
:1021D000EBFD3821306031712E601C4B186801F026
:1021E000B3FE0446B0BB1A480BF08EFB33E000BFD1
:1021F00020C0092000C0092000C00240F0FCFCFF04
:1022000000247449F83B0200444002400040024070
:10221000103C0200004003403F5DC6000000034048
:1022200000800840883C0200B93C0200011E010009
:10223000DE3C0200E63C0200ED3B0200F23B020005
:1022400054C1072058C10720C631020074C10720BD
:102250000F3D02000124FFF739FE01F099FF05460A
:1022600018B971480BF050FB2C46FFF70DFE01F03A
:1022700036FF064618B96D480BF046FB34466C4DE8
:102280002A681AB90120FDF7FFFF2860286801F0CD
:10229000BDFEFFF731FE01F069FFFFF709FE01F017
:1022A0003BFFFFF735FE01F065FFFFF701FE002160
:1022B00001F034FF94B9FFF753FDFFF7E5FD2D2141
:1022C00001F0D6FEFFF7E0FD2D2101F0DDFEFFF766
:1022D000EFFD4FF0FF3101F021FF0CE0FFF7D4FDDF
:1022E0000646FFF7F3FD01F07FFF0AF01DFA41B249
:1022F000304601F0D5FE00234E4804A9072204937E
:10230000059301F0ECFFA8B904A80AF046FDC4B299
:10231000601EC1B2FD2905D904A9464A46480BF002
:10232000DBFA07E045482146424A0BF0D5FA204641
:1023300000F0E0FEFFF7E0FD01F01AFF0546002087
:102340000CF0EAFF28180BF0FDFA4FF400720021A0
:1023500004A80AF005FF04A808F09CFA04A938486C
:102360000BF0BAFAFFF7FCFC8022002104A80AF067
:10237000F7FE04A802F036FE9DF91020531C05D08C
:1023800004A9D2B22F480BF0A7FA29E0FFF7C0FD4D
:1023900001F0F2FE09281DD12B480BF0B5FA04A973
:1023A0002A480BF003FC04A929480BF095FA2948A8
:1023B0000BF0AAFA0023284803A903930BF0F6FBBD
:1023C0009DF90C60592E03D104A802F0EDFD07E041
:1023D000224803E022480BF097FA22480BF094FAC7
:1023E0004FF20804206861684FF470434FF2040212
:1023F000850A8E0AA46811681B481A680BF06CFAEB
:102400002A46314619480BF067FA214618480BF066
:1024100063FAFFF7A5FC17480BF076FAFFF7A0FC6C
:102420000DF5047D70BD00BF2A3D0200443D020051
:1024300078C107205D3D0200633D02008E3D020031
:10244000814C0200BB3D0200D73D0200F93D020075
:10245000FE3D0200193E02005C3E0200603E0200AA
:10246000783E0200A63E0200D83E0200043F020071
:10247000313F02004E3F020001207047F8B591E85D
:1024800060000F7A14468FB1082A0FD1304605F04C
:10249000E3FC00281BDD28460E494FF0FF3206F012
:1024A0006DFB3046012105F0DEFD08E00A2C05D069
:1024B0000D2C03D03046214605F0C1FE4FB12B68EC
:1024C00028465B6821464FF0FF329847F8BD072445
:1024D000F5E7F8BD883F02002DE9FF41CE6B0446C9
:1024E0000D4601AF5EB94FF47A7007F0C1FC31467A
:1024F0000C2238460AF034FE97E807005EE00B6CC9
:1025000001F13406186807C887E8070000278DF82E
:102510000370EA6B97422DD2F368511E53F82700DF
:102520008F420CBF0522002200684FEA870801791C
:10253000002949D003680DF103011B689847002862
:1025400042D0B268974241D2F16851F8080001AB1D
:1025500007C883E8070019469DF903202846FFF7BE
:102560008DFFFFF789FCD5E92223121843EB010305
:10257000C5E92023029805F06FFC0746029805F094
:102580006EFC421E974216DAD5E92201014320D0A3
:10259000FFF772FCD5E92023994208BF904218D377
:1025A000FFF76AFCD5E92223121843EB0103C5E9C2
:1025B00020230023019304A810E9070084E8070002
:1025C000204604B0BDE8F0810137A2E706F1100013
:1025D000BDE79DF903100A29EDD0002799E7000017
:1025E000F0B5054685B020480BF076F901A82946DC
:1025F000FFF772FF019C1CB91C480BF085F930E015
:10260000029E304605F028FC00282ADDFFF734FC46
:102610000746F8B1B5F874303146581CA5F8740077
:10262000224605F1500004F04FFF114900250A68C9
:10263000009223681DF905105B6820464FF0FF32B9
:1026400001359847042DF4D1FFF716FCC11B09484A
:102650000BF042F9304605F004FC20688168204602
:102660008847012005B0F0BD8B3F020036450200CF
:10267000623F0200913F020038B5064C236833B92F
:102680002020FDF701FE054606F0DEF925602068F2
:1026900038BD00BF38C1072010B50446FFF7ECFF76
:1026A000036821465B684FF0FF32984740B210BD87
:1026B00013B5002302AC04F8013DFFF7DDFF01680C
:1026C0004FF0FF320B68214698479DF907001CBD6B
:1026D00038B5054600246B68E8689C4205D250F87E
:1026E0002400FDF7D5FD0134F5E708B1FDF7D2FD73
:1026F000284638BD0D4B70B5044640F8503BFFF7F7
:10270000E7FF04F1340600257068854206D2F268BE
:1027100052F82500FDF7BCFD0135F5E7206C08B146
:10272000FDF7B8FD02492046216070BD703F0200F0
:10273000D03A020010B50446FFF7DCFF2046FDF753
:10274000A7FD204610BDF8B54368044699420D46E2
:1027500015D3C06889000BF061F9A668E060B70086
:10276000AE420BD20C20FDF78FFDE2680021016024
:10277000416001720136D0510437F1E76560F8BD60
:102780002DE9F0410446142016468846FDF77CFDED
:102790008021074605F066FDA36BE26B9A4205D3E4
:1027A000616B04F134005918FFF7CDFFE56B206C25
:1027B00050F825300135C3F800805F601E72E56374
:1027C000BDE8F0812DE9F04100F150048AB0002508
:1027D0000646009520465B495B4A5C4B04F0A4FD2D
:1027E000009520465A495B4A5B4B04F09DFD0095DD
:1027F00020465A495A4A5B4B04F096FD0095204604
:1028000059495A4A5A4B04F08FFD009520465949C0
:10281000594A5A4B04F088FD009520465849594AB8
:10282000594B04F081FD009520465849584A594BB0
:1028300004F07AFD009520465749584A584B04F059
:1028400073FD009520465749574A584B04F06CFDDC
:10285000009520465649574A574B04F065FD0095B0
:1028600020465649564A574B04F05EFD00952046D7
:102870005549564A564B04F057FD00952046554998
:10288000554A564B04F050FD009520465449554A90
:10289000554B04F049FD009520465449544A554B88
:1028A00004F042FD009520465349544A544B04F02D
:1028B0003BFD009520465349534A544B04F034FDE8
:1028C000009520465249534A534B04F02DFD009584
:1028D00020465249524A534B04F026FD00952046AB
:1028E0005149524A524B04F01FFDFFF7C5FE4FF409
:1028F000806320224FF41641054606F083F8012735
:1029000080462F714B48FDF729FD4B48FDF720FD10
:10291000304629463A46FFF733FF082203A905A8A7
:1029200005F074FA05A8454905F0E7FC05A92A4613
:10293000204604F0C9FD05A805F07CFA40460AB01F
:10294000BDE8F0814D050100F13F0200A73F020004
:1029500019060100DE3F0200E63F0200F10E010011
:1029600004400200F63F02003D0601004C40020018
:102970000B40020081070100514002005540020057
:1029800001070100F4400200B1400200890B010080
:10299000F3400200F74002006108010042410200DA
:1029A00045410200090A0100734102007941020019
:1029B000810A01009E410200A1410200DD0A0100DE
:1029C00096590200CE410200450A0100F34102007F
:1029D000F6410200C90D0100194202001D42020029
:1029E000C10C0100C4420200CC420200B11001003F
:1029F0000F43020016430200E510010029430200C4
:102A00002D430200750D010063430200694302007B
:102A100041190100D53C020091430200E11101007F
:102A2000AF440200BB4302004D1101000932020015
:102A300078440200B126010099260100C23A020042
:102A400073B500244FF480520B4600941849064693
:102A500005F0B6F9174B042533607563B463F4636E
:102A6000346406F134000221FFF76DFE35657465AC
:102A7000B465F46506F150001821FEF73FFFA6F893
:102A80007440A6F87640B4670B4C00220023002562
:102A9000012086F87000C6E92023C6E92245FFF729
:102AA000EBF9001941EB0501C6E9200130467CBD78
:102AB000B4440200703F0200C0D4010007B50346D1
:102AC0000222044800926FF058013222006806F09A
:102AD00076F90EBD90C1072007B5831D0222044878
:102AE00000926FF058013422006806F068F90EBDBC
:102AF00090C1072007B500F10C03022204480092A0
:102B00006FF058013622006806F059F90EBD00BF7B
:102B100090C107207FB5474E00256FF059012D2247
:102B2000082304463068039506F03EF930686FF0DC
:102B300059013122082306F037F9284607F05EFADA
:102B40003D480AF0E1FE3D480AF0DEFE3C4803A99C
:102B50000BF02CF8039B012B6AD13A480AF0D4FE03
:102B6000374803A90BF022F80025092D0ADC20467E
:102B7000FFF7A4FF9DF8083022780135D6188DF8AC
:102B80000860F2E79DF908000A2590FBF5F18DF841
:102B900008102046FFF7A0FF9DF80960A279013DCB
:102BA00002EB0603D8B28DF80900F2D141B20A2532
:102BB00091FBF5F28DF809202046FFF79BFF9DF869
:102BC0000A30267B013D06EB0300C1B28DF80A10E6
:102BD000F2D14EB20A2296FBF2F3DEB29DF9081052
:102BE0009DF9092073B218488DF80A600AF074FE46
:102BF000134803A90AF0DAFF03980128B7D19DF81A
:102C000008109DF809204D429DF80A6003218DF8B7
:102C10000850084D5342704200918DF809308DF8EC
:102C20000A006FF0590128681E2202AB06F0B8F8BE
:102C3000002083E790C10720DB4402000145020029
:102C400033350200374502007645020070B5542046
:102C50008AB0FDF719FB00244FF480521449022377
:102C60000094054605F0ACF8124B90202B60FDF760
:102C70000BFB01210646FFF7E3FE304605F062F844
:102C8000284605F05FF80C490320009001914FF4AD
:102C9000806205AB029403940849094806F0A0FE3F
:102CA0000120214605F05EF84FF0FF300AB070BDFC
:102CB000D2450200103B020094C10720E345020008
:102CC000152B010038B5074C236833B91C20FDF7DC
:102CD000DBFA054605F082FC2560226802480260A6
:102CE00038BD00BF48C1072090C1072030B5002380
:102CF0008B420DD044783CB1048C4FF6FF7514190B
:102D0000AC4228BF2C4604840133DBB22430EFE709
:102D100030BD000037B50E49002302A84A6840F8CC
:102D2000043D042190470B4B05461C680198042183
:102D3000041B186022460848FFF7D8FF0221074805
:102D40002246FFF7D3FF281C18BF01203EBD00BF5D
:102D500098C1072080C20720ACC1072085C2072088
:102D600008B50B4B01781A780A4B914203D11988A8
:102D70000131198002E09988013199808270064AF8
:102D80002021D3689847003018BF012008BD00BF3C
:102D900005C0072054C2072098C107200A4B0278BB
:102DA00019780A4B8A4203D1DA88511CD98002E093
:102DB0001A89511C19810379C3F3C202511E61F3B0
:102DC000C5030371FFF7CCBF05C0072054C207201D
:102DD00010B50023064A990012F82340844201D11D
:102DE000501810BD0133042BF4D1002010BD00BFDA
:102DF0006FC2072070B1C378591CCAB2FF2AC270D3
:102E000008D100230448C218D17804334808102B95
:102E1000D070F7D1704700BF6FC20720F0B50346EE
:102E20000246044600258D4207D02046243414F87B
:102E3000236CC6B10135EDB2F5E7002004468C42A3
:102E400010D01579178CC5F3C20547EA0545A8428D
:102E5000164624BF05461E460134E4B224322846F5
:102E60003346ECE71846F0BD38B501310446CD00D5
:102E7000FFF750FF1B4B20781A78824204D10221C1
:102E80001948FFF7CBFF0CE004211848FFF7C6FFF5
:102E9000E17831B990F8235045F0800380F8233071
:102EA000042590F82310002221F07F0380F822509F
:102EB00043EA152580F8202080F8212080F823504F
:102EC0002346024604F1200153F8044B8B4242F89A
:102ED000044BF9D1064A0379117861F3C5030371F4
:102EE00038BD00BF05C0072085C20720ACC1072040
:102EF00004C0072010B5FFF76BFF044608BBFFF7BF
:102F000067FF0446E8B9104AD378D179994202D2D2
:102F10000B46111D00E01146D07AD47B984238BF91
:102F20000A490B4A38BF03469C422CBF0C46144644
:102F30002046002104220AF013F9064BD97A481CD6
:102F4000D872204610BD00BF6FC2072077C207208D
:102F50007BC2072054C207202DE9F0410546904668
:102F60000C460027474500F0BE8094F8233003F05C
:102F70008000C1B269B3BDB12B786278934203D1AE
:102F80006878217888421ED0E87868B169789142E3
:102F900008D122789A4205D1A879A179421A5342E0
:102FA000534100E0002373B994F8232094F82210D1
:102FB000208C02F07F0341EA03218842C0F28F8017
:102FC0002046FFF7CDFE2046002124220AF0C8F853
:102FD00085E06378002B00F08280002D3DD02A79B7
:102FE00002F0C000C0281AD16A782178914202D13B
:102FF00028789842E7D0E078A978884210D19342A7
:1030000009D120782A78904205D1A079AA79811A2D
:103010004842414100E000210029D4D100E0E0B164
:10302000A978E278914218D16878984209D121783C
:103030002A78914205D1A179AA79881A414248415A
:1030400000E0002048B12279002161F3C50284F834
:10305000201084F82110227141E094F8232094F884
:103060002200218C02F07F0240EA0220814236DBFE
:1030700021790026C1F3C20284F8206084F821601F
:10308000D6B21EB12046FFF789FE28E001F0C0004D
:10309000C02818D0154920780978884213D1E078E3
:1030A000984210D078B16379E270032262F307137B
:1030B00063712046FFF772FE0D482179037863F3B0
:1030C000C501217100E001266078FFF781FE18B18B
:1030D000002104220AF044F8002E7FF474AF013777
:1030E000FFB224343EE7BDE8F08100BF05C00720F1
:1030F00004C00720431ED9B2FD2903D8024A10702C
:10310000012070470020704705C00720014B187848
:10311000704700BF05C0072007289CBF014B1870EF
:10312000704700BF04C007202DE9F74304469146CD
:1031300098469DF828600D46002958D02F4B1F78DF
:10314000B94254D0B8F10F0F51D8002851D02022E5
:1031500000210AF005F8FF2D207914BF09F00302C1
:10316000002262F38710032161F30200244B2071D7
:103170001A78277062F3C50020712248A770017881
:103180000BAF4B1CDAB20270A271657001970EB9D9
:10319000012613E00198013E03464268E07953F8A6
:1031A000081B8718FFB2182F0193F6B205D8083014
:1031B000201809F0B2FFE771E9E70026124F01215C
:1031C00028463970FFF704FE0546FFF713FE00227C
:1031D0003A70637925B968F307136371E57009E004
:1031E000A87860F3071363716978E17002E0002644
:1031F00000E006463046BDE8FE8300BF05C007205C
:1032000004C0072062C2072060C20720164B70B5B9
:1032100001261E70044608B900251FE0FFF7A0FD37
:1032200005460028F8D0207900F0C001402903D0DD
:10323000B1F1800256425641C02906D1E3782BB144
:103240006078C31A18BF012300E000230EB9DB0722
:1032500004D5617920460909FFF706FE024B0022DA
:103260001A70284670BD00BF60C2072082B0F0B55A
:103270001746421E0446D0B28DB0FD280D4613936A
:1032800001D900205AE0002BFBD0159B002BF8D071
:1032900017990029F5D0169A002AF2D01498002820
:1032A000EFD000214822284809F05AFF002190223F
:1032B000264809F055FF00211022254809F050FF4B
:1032C000244E00210C22244809F04AFF00210C2240
:1032D000224809F045FF3470214C224E25703446B7
:1032E00013AD0FCD0FC42B68002118221E48236098
:1032F00009F036FF394617221B480AF03EFE00202F
:10330000B268014690470028BBD09DF8601011B903
:10331000FFF700FD12E015480622012301900292FA
:10332000009304A8FF210022FFF7FEFE0028A8D08A
:1033300004A8FFF76BFF0028A3D0E9E70DB0BDE8B4
:10334000F04002B0704700BF85C20720ACC1072023
:103350006FC2072005C0072063C2072054C20720A0
:1033600061C2072098C107203CC20720ED4502003A
:1033700070B5182B8CB006460D4617D81C1C18BF0C
:103380000124002A14BF214684F0010171B1019289
:103390000293009404A831462A469DF84030FFF776
:1033A000C3FE18B104A8FFF731FF00E000200CB005
:1033B00070BD13B50446107852790B46110900917F
:1033C00022460321FFF7D4FF1CBD000030B50023C7
:1033D0001A4608499C0011F823502DB1904201D1A2
:1033E000081930BD0132D2B20133042BF1D10020D3
:1033F00030BD00BF6FC2072000231846044A995C05
:1034000009B10130C0B20433102BF7D1704700BFAF
:103410006FC207202DE9F04188B0684600212022C4
:1034200009F09EFEA14B1C78002C40F03B81A04887
:103430002021026968469047002800F087809D4D52
:1034400069884B1C6B80FFF7D7FFA8729DF804209A
:1034500002F00700032804D097490A7842F00100DF
:1034600009E0964D9DF802102D78A94205D19249A8
:103470000B7843F002000870E6E0C2F3C2019DF849
:1034800000709DF806005FFA81FE032262438C4EB5
:10349000B318B65CBE420AD15A78824207D19A78F4
:1034A0009970B2EB0E0618BF0126012417E0013413
:1034B000042CEAD1834C236899708149587001F13A
:1034C000090083421F7040F0CC8021609DF800000D
:1034D0009DF80220824240F0C780002426469DF8D5
:1034E0000200FFF707FD9DF80210002C08BF01261F
:1034F00001709DF80220002142708170F6B2FFF742
:1035000079FC1EB39DF80000A84200F09C809DF855
:103510000160FF2E1CD16648202103686846984749
:1035200020B9654C227842F0040121709DF80530E5
:1035300003F00F04601C1A4660F30302B4EB131F80
:103540008DF8052002DA6846FFF70AFC00247BE0CC
:10355000B5422CD16CB99DF8070050B1544B684668
:103560001A682021904720B9534C217841F004007B
:1035700020709DF8043003F0C002402A12D19DF85B
:10358000071011B95048182108E04A480C216A4632
:10359000FFF70FFF002856D1002001466A46FFF7CB
:1035A00008FF50E09DF80340002C4CD1F4E7474C55
:1035B0002378002BCAD09DF8054004F00F08270996
:1035C000B845C3DA3046FFF703FC9DF8032008F145
:1035D000010868F3030495428DF805401DD19DF85C
:1035E000045005F0C004402C05D0B4F180014B42DA
:1035F00053EB010200E0012208B1457800E00546E6
:10360000C02C05D1AE4203D02C1C18BF012400E011
:10361000002444EA020530B90AE0A2B910B96846AC
:1036200039460EE0154641788DF80310847802E0A3
:103630008DF8030004466846FFF792FB1DB168460B
:103640002146FFF711FC6C46FFF764FB204604227D
:103650001F49FFF781FC20461E490222FFF77CFC30
:1036600020E0DE1C266031E785423FF436AFFFF7ED
:1036700041FC0446FFF7BEFB23783BB19DF80510E3
:10368000A67801F00F00B0423FF727AF9DF8002069
:1036900022709DF8023063709DF80510C1F303009D
:1036A000A0701AE708B0BDE8F08100BF60C2072033
:1036B00098C1072054C2072084C2072005C00720F4
:1036C00063C2072000C007203CC2072061C2072058
:1036D000ACC1072085C2072000231846094AD1182B
:1036E0004A780AB10130C0B22433902BF6D1064B90
:1036F000597809B1421CD0B293F825300BB1013092
:10370000C0B27047ACC1072085C2072008B5FFF7DB
:103710005FFB054B20B180781978421CD00001E096
:1037200019781820484308BD04C00720034A1168CF
:1037300001605168926841608260704754C20720FE
:1037400030B5404C4FF48035E5613F4CA060E068F7
:10375000C006FCD43C488068C0B2002B6CD00B463D
:10376000002A5CD0384C93F90050072AA56030DD60
:1037700093F90150083AA56093F90250A56093F9B6
:103780000350A56093F90450A56093F90550A56016
:1037900093F90650A56093F907500833A5602A4CA9
:1037A000A5696D07FBD5A5680D70A5684D70A56866
:1037B0008D70A468CC70244CE568ED06FBD4A56838
:1037C0000D71A5684D71A5688D71A468CC71083123
:1037D000C6E7032A18DD93F90150043AA56093F96E
:1037E0000250A56093F903500433A560164CE568B8
:1037F000ED06FBD4A5680D70A5684D70A5688D70A9
:10380000A468CC700431ABE70133013AE56815F0E8
:10381000100FFBD10C4CA46801F8014BA0E7094B39
:103820004FF480329A6140B230BDE56815F0100F58
:10383000FBD1054C0133A4689342F0DACD56024C1B
:10384000A560F2E700C009200080084007B500230A
:1038500002A9012201F8013D00F01F001346FFF705
:103860006FFF9DF907000EBD07B502AB03F8011D00
:1038700000F01F0019460122002340F02000FFF74E
:103880005FFF0EBD08B51720FFF7E0FFC0F3001083
:1038900008BD07207021FFF7E7BF03460A466FF017
:1038A0005F0019460023FFF74BBF08B50020FFF764
:1038B000CDFF20F0010149B20020BDE80840FFF72C
:1038C000D3BF0000024B4FF08072DA61704700BF37
:1038D00020C0092008B50020FFF7B8FF40F0010123
:1038E00049B20020FFF7C0FF024B4FF080729A618F
:1038F00008BD00BF20C0092007202021FFF7B4BF6A
:1039000000216FF01E000A460B46FFF719BF0000AA
:1039100037B505460C46FFF7F3FF28462146FFF76B
:10392000BCFF0D4B4FF0807200209A61ADF806008D
:10393000BDF806104A1C93B2ADF8063033B90649FB
:103940004FF08070C861FFF7DBFF3EBDFFF79AFFC5
:103950000028EDD0F3E700BF20C0092008B51720EC
:10396000FFF774FF00F0010080F0010008BD0720A0
:103970004021FFF779BF08B503460A466120194682
:103980000123FFF7DDFEC0F3420008BD00216FF008
:103990001D000A460B46FFF7D3BE70B50446002053
:1039A0000D461646FFF752FF14B100F0BF0102E0CA
:1039B00040F04000C1B215B101F0DF0201E041F07A
:1039C000200216B102F0EF0301E042F010030020E4
:1039D00059B2BDE87040FFF747BF10B5044600205C
:1039E000FFF734FF14B900F0F7020DE0012C04D109
:1039F00000F0FB0040F0080206E0022C14BF40F08B
:103A0000080140F00C01CAB2002051B2BDE81040DC
:103A1000FFF72ABF08B50020FFF718FF40F00201AA
:103A200049B20020BDE80840FFF71EBF08B50020DE
:103A3000FFF70CFF20F0020149B20020BDE808406A
:103A4000FFF712BF40F6DD13984206D840F6621128
:103A5000B0F5166F38BF084600E01846A0F16002C6
:103A600051B20520FFF700BF10B504460620FFF74E
:103A7000EDFEFA2C00F0D70102D141F0200104E064
:103A8000B4F5FA6F08BF41F00801062049B2BDE85D
:103A90001040FFF7E9BE10B504460620FFF7D6FE3A
:103AA000032C34BF2146032100F0F90040EA410213
:103AB00051B20620BDE81040FFF7D6BEF9284FF0FE
:103AC000FA0305D9B0F57A6F28BF4FF47A6000E0A9
:103AD0001846B0FBF3F0421ED3B20F2928BF0F21C6
:103AE00041EA0311042049B2FFF7BEBE1130C0B253
:103AF000162806D8202928BF202140B249B2FFF756
:103B0000B3BE7047032804D004280CBF0221032150
:103B100000E001210320FFF7A7BE03460A4630203C
:103B200019460023FFF70CBE03460A462A20194611
:103B30000023FFF705BE000073B504460E46154688
:103B4000FFF724FFFFF7DCFE2A4B4FF08072DA61AB
:103B5000FFF76CFF00210A460120FFF71EFFFFF769
:103B600098FE0220FFF739FF3046FFF76BFF28462B
:103B7000FFF77AFF0320FFF78EFF02200321FFF7F4
:103B800073FE01200021FFF76FFE03214FF4FA704E
:103B9000FFF794FF00202146FFF7A8FF1220002125
:103BA000FFF762FE13200021FFF75EFE14200021C4
:103BB000FFF75AFE15200021FFF756FE16200021C0
:103BC000FFF752FE0C4908680A79009005208DF82D
:103BD0000420FFF797FF68460521FFF79EFF684620
:103BE0000521FFF7A1FFFFF715FF4FF4FA6004F07E
:103BF00086FB7CBD20C00920F4450200042938B5AD
:103C0000054603D1041C18BF012400E00024FEF780
:103C100033F904B12860204638BD000007B5084BD1
:103C2000002102AA186842F8041D0B4605F03EFD6B
:103C3000019818B103494FF080520A600EBD00BFD1
:103C4000D8C2072004ED00E070B500238AB00193CC
:103C50000646007901AA00F0C001C0290CBF0F4937
:103C60000F4900230D683146284605F01FFD044624
:103C700058B9224602A9284605F0D2FD2346284617
:103C8000314601AA05F012FD0446019A1AB1054B0E
:103C90004FF08050186020460AB070BDD0C2072097
:103CA000D4C2072004ED00E010B5194C226822B9F7
:103CB0000320202105F031FC2060164C226822B937
:103CC0000120202105F029FC2060134C216821B936
:103CD0000120032205F021FC2060202040F6C311C2
:103CE0004FF4FA62FFF728FFFFF7F4FD16200121D9
:103CF0000A4A04F037FC064B186838B105480068DA
:103D000020B105490A68101C18BF012010BD00BF72
:103D1000D4C20720D0C20720D8C207201D3C010012
:103D20002DE9F34180460F46164606F06DFA02284B
:103D300007D1324640463946002305F0F0FCC6B2B2
:103D400013E000230193FEF797F8841941F1000571
:103D50004046394601AA05F063FDC6B22EB9FEF70A
:103D60008BF88D4208BF8442F2D270B2BDE8FC816C
:103D700037B504460D46FFF7C9F9237883420AD0C8
:103D8000E07840B909F00AFE00F00301481CBD22AA
:103D9000504304F0B4FAFFF795FDFFF786FD204687
:103DA000A9B2FFF7B5FDFFF7A7FDFFF793FD06F0FA
:103DB0002BFA02280ED1084B002102AA186842F8FB
:103DC000041D0B4605F072FC019818B1034A4FF030
:103DD0008051116001203EBDD8C2072004ED00E0F3
:103DE00038B504460D46FFF7B9FD48B1A9B22046E3
:103DF000FFF7C1FDFFF7B2FD08B9FFF7B8FD0120DD
:103E000038BD000000B50C4B0C488DB00C490D4A74
:103E100009930B900CAB002043F8102D0A910490ED
:103E20000FCB8DE80F00084B6A200121074AFFF7EE
:103E30001DFA0DB000BD00BFA93C0100E13D01002D
:103E4000713D0100FD3B0100493C0100F9450200C4
:103E50000A460349034608681946FFF761BF00BFD9
:103E6000D4C207200A460349034608681946FFF7EB
:103E700057BF00BFD0C2072008B506F0C5F90F4BE9
:103E80000228586912D142020CD5FFF725FC0C49D3
:103E900000280CBF4FF0FF320122086800210B46BA
:103EA00005F03DFCBDE80840FFF7B4BA4302F9D580
:103EB000FFF712FC0028F5D108BD00BF00C00920A3
:103EC000D8C2072010B506F0A3FA0C4B1A6822F0EE
:103ED000E06020F0FF0119601C6844F004021A60E1
:103EE000186840F0807119605C68002CFCDA034BA4
:103EF0005C6806F09FFAC4F30B1010BD004003404D
:103F000030B504464DB2006894F9041053B22A4605
:103F1000BDE8304004F048BF1FB5002204AB90F963
:103F2000044023F8042D4AB2022100910068214682
:103F300004F045FF9DF90C009DF80D3082B243EA74
:103F4000022188B204B010BD10B52A2104461922FE
:103F5000FFF7D6FF0D22206894F9041004F033FF18
:103F6000B0F12A035842584110BD0000234910B552
:103F70000A680B4612F010020ED08868C8308861BB
:103F80001F490A881F2A05D8DC6A1E4840F82240CB
:103F900001320A8010202EE00B68D9072CD5184872
:103FA0000088012822D9174B411E04338A4207DAC0
:103FB00053F8041C1C680132611A43F8041CF3E72F
:103FC000104A002350681A4600EB50008B420BDA6F
:103FD0000C4C54F82340844203D9012404FA03F41E
:103FE000224301339BB2F1E707490A60044B0022E8
:103FF0001A80024B0120186010BD00BF00800040F5
:10400000E0C20720E4C20720DCC2072070B502200E
:10401000144C012106F0F2FB0125012102200026AB
:1040200006F004FC6560266706F078FD42F2107326
:10403000B0FBF3F0E060A16A21F00702A262A36A7C
:1040400043F00600A062A6616169074B29436161E4
:10405000DA68042142F03000D860044B2846196029
:1040600070BD00BF0080004000C0024000E100E0E1
:10407000044A08B501F07F034171D25C0321FFF7C8
:104080003FFF08BDFE450200044A08B501F07F036A
:104090008171D25C0221FFF733FF08BDFE450200AB
:1040A000642370B591FBF3F404FB13110A224CB2A4
:1040B00094FBF2F602FB164303F1300149B20546C8
:1040C000FFF7E2FF092C02DC2846202103E006F17D
:1040D0003002284651B2BDE87040FFF7C9BF38B57D
:1040E000044694F90410006804F07AFE054688B18D
:1040F000204606210022FFF703FF20460721002269
:10410000FFF7FEFE20462E21FFF7B2FF20462E21AC
:10411000FFF7BAFF284638BD01207047124B01F067
:104120000F0140F2131201709A610178CA0701D59C
:104130000122DA61037803F00201CAB212B10A4B1C
:104140000221D961027802F00401CBB213B1064911
:104150001022CA61007800F00803DAB21AB10248EE
:104160004FF48071C161704720C009200120704761
:10417000FFF7A8BE01207047044B5969C1F3813095
:10418000C1F3412242EA8000704700BF20C00920ED
:1041900010B5012104468122FFF7B2FE01222068FA
:1041A00094F9041004F00FFE10F0600F0CBF002013
:1041B000012010BD38B500210446FFF7ADFE0121F6
:1041C000812285B22046FFF79BFE102328B290FB88
:1041D000F3F008F005F94FF0765108F055F9A168B1
:1041E00008F04AF838BD000008B5FFF7E3FF0549BD
:1041F00008F04AF9044908F0FBF94FF0844108F04F
:104200003BF808BD000010410000A0402DE9F04F30
:104210000546ADF5177D0C46914602A829460122B8
:104220009A4602F081F88346002853D10CA8214613
:104230000A2202F079F8834608B102A837E000901C
:104240000190064607468046FDF716FE16A904466D
:104250004FF4007202A86B4602F032F98346A8B907
:10426000009A9AB1FDF708FEB8EB040268EB080368
:1042700000EB0208FDF700FE009A04460D460CA86C
:1042800016A901AB02F0C2F9834698B1B9F1000F4B
:1042900001D0C9F80080BAF1000F01D0CAF800704F
:1042A000A09901B10E6002A802F0B4FA0CA802F0C5
:1042B000B1FA0FE0019900988142E7D1FDF7DCFDEA
:1042C0004FF0FF321440C7193F1B009C00231D40D4
:1042D0003619B9E758460DF5177DBDE8F08FF0B5F2
:1042E00004468DB00F46164621461D4602A80023FF
:1042F0000122019302F018F8044670B91DB102A81A
:10430000294602F09FFA02A83946324601AB02F074
:10431000D7F8044602A802F07DFA20460DB0F0BDA1
:10432000F0B504468DB00F46164621461D4602A83C
:1043300000230A22019301F0F7FF044670B91DB172
:1043400002A8294602F07EFA02A83946324601AB9D
:1043500002F05CF9044602A802F05CFA20460DB0B7
:10436000F0BDF0B504468DB00F46164621461D46F9
:1043700002A800231222019301F0D6FF044680B95F
:1043800002A80DB1294600E0059902F05BFA02A8E7
:104390003946324601AB02F039F9044602A802F070
:1043A00039FA20460DB0F0BD7F2816D931B1FF286B
:1043B00012D80A49803831F810007047074A8BB28A
:1043C00032F81120824203D001318029F6D10B4608
:1043D00003F18000C0B27047002070475E480200C1
:1043E0000023064A32F8131031B1884201D001335C
:1043F000F7E7034830F81300704700BF5E4902003A
:104400007E46020010B501200C4605F028F9206018
:10441000003018BF012010BD0120704710B50446C0
:1044200005F0F2FE02280AD100210B46204640F694
:10443000B83205F074F9431E5842584110BD0120AE
:1044400010BD10B5044605F0DFFE022807D100219B
:1044500020460A460B46BDE8104005F08FB810BD57
:1044600010B5044604F09CFA24B1012C06D100F0EA
:104470005BFB01E000F0F8FC044600E0042404F0DB
:10448000A3FA204610BD20B1012801D100F044BBA1
:1044900004207047F8B504460F4616461D4604F042
:1044A0007FFA3CB1012C0CD1384631462A4600F047
:1044B000E3FA04E0384631462A4600F019FD044686
:1044C00000E0042404F080FA2046F8BDF8B5044664
:1044D0000F4616461D4604F063FA3CB1012C0CD180
:1044E000384631462A4600F067FA04E0384631463D
:1044F0002A4600F019FD044600E0042404F064FAA2
:104500002046F8BD70B504460E46154604F048FA3C
:1045100034B1012C0AD13046294600F027F903E0D6
:104520003046294600F01AFD044600E0042404F059
:104530004BFA204670BD000010B5044606F0EEFAB6
:10454000074BB0FBF3F10223B1FBF3F2944202D329
:104550000448036110BDB3F5807FF9D00233F3E75F
:1045600040420F0000000340044B9860DA68D20616
:10457000FCD40248816848B2704700BF0000034085
:1045800038B5FDF779FC00F5FA754FF0FF30FFF70D
:10459000EBFF4FF0FF30FFF7E7FFC4B2FF2C07D06F
:1045A000FDF76AFC2A460023994208BF9042F0D3E7
:1045B000204638BD38B5064C4FF00075E561FFF771
:1045C000DFFF044BA5611A7842F00100187038BD76
:1045D00020C0092006C0072070B505460E46FDF72D
:1045E0004BFC00F164044FF0FF30FFF7BDFFC0B299
:1045F000FF2809D1FDF740FC22460023994208BF5D
:104600009042F0D3002070BDFE28FBD1102E06D9B9
:1046100028464FF40071002204F060F918E02C469F
:104620004FF0FF30FFF7A0FF20704FF0FF30FFF793
:104630009BFF60704FF0FF30FFF796FFA0704FF0C8
:10464000FF30FFF791FFAB19E0700434A342E7D1CC
:104650004FF0FF30FFF788FF4FF0FF30FFF784FF88
:10466000012070BD38B505460C46FFF789FFFF28CD
:104670001ED160B2FFF778FFFD2C1BD04FF4007104
:104680004FF0FF32284604F029F94FF0FF30FFF7D2
:104690006BFF4FF0FF30FFF767FF4FF0FF30FFF782
:1046A00063FF00F01F00411F4A4252EB010038BD7A
:1046B000002038BD012038BD38B5044620060D461F
:1046C00007D577200021FFF7F7FF01283BD804F03A
:1046D0007F041D4B4FF000729A61DA61FFF750FFC3
:1046E000FF282FD160B2FFF73FFF2816FFF73CFFEE
:1046F00045F30740FFF738FF45F30720FFF734FF86
:1047000068B2FFF731FF402C04D0482C0CBF872043
:10471000012000E0952040B2FFF726FF4C2C03D18A
:104720004FF0FF30FFF720FF0A244FF0FF30FFF774
:104730001BFF01460029C0B205DA013C14F0FF045A
:10474000F3D138BDFF2038BD20C00920054A0649F5
:1047500013784869410154BF03F0FD0343F003039C
:104760001370704706C0072020C009207FB505469A
:104770000C46FFF7EBFF052D18D12178012900F039
:104780000F810AD3022940F009818848426982F0EA
:104790008063C3F38061617002E1844C606910F052
:1047A000806440F0FD80FFF705FFF9E0804B18784A
:1047B000C00700F1F7800E2D00F2EA80DFE815F067
:1047C0000F00190054005800E800E800E800E80075
:1047D000E800E800B200B700B900C300D400734895
:1047E0004FF00071C161FFF7CBFEFF3818BF012009
:1047F000CFE049200021FFF75FFF054608B1012007
:10480000C7E068461021FFF7E7FE0028F7D09DF8C3
:1048100000109DF808308A09012A07D19DF8091077
:10482000481C00EB03239AB2930246E09DF8070070
:10483000810001EB93129DF80630501C9DF8052075
:1048400003F0030100EB812302F00F009DF80A1032
:104850009DF8092000EBD11002F0030100EB4100AC
:10486000C21F03FA02F328E04FF4007020805CE0DE
:10487000504D2B7803F00400C1B209B3CD200021C4
:10488000FFF71AFF0028BAD14FF0FF30FFF76CFE98
:1048900068461021FFF7A0FE0028B0D030254FF069
:1048A000FF30013DFFF760FE15F0FF05F7D19DF8E1
:1048B0000A001022010902FA01F32360284668E089
:1048C0004920FFF7F9FE0646002898D168461021D6
:1048D000FFF782FE002892D0297801F00202D0B2C0
:1048E0009DF80A1080B101F03F009DF80B10CA0935
:1048F0009DF80D1002EB40038A09581C531E00FA64
:1049000003F02060304644E09DF80B30C1F3840290
:10491000511C03F003025B0903EBC202531C4B431F
:10492000236036E023490A782270002031E04920D4
:1049300000E04A200021FFF7BFFE00287FF45FAFB0
:10494000204610211DE07A200021FFF7B5FE002847
:104950007FF455AF05464FF0FF30FFF705FE605579
:104960000135042DF7D1E0E7CD200021FFF7A4FEAB
:1049700000287FF444AF4FF0FF30FFF7F5FD2046ED
:104980004021FFF729FED0F1010038BF002000E0F0
:104990000420064B4FF000729A6104E0042002E00C
:1049A000002000E0032004B070BD00BF20C009203B
:1049B00006C0072064C3072070B5144605460E469E
:1049C000FFF7C4FE002C4AD0284B1A78D20748D4EF
:1049D000187800F00401CBB2002B44D124484FF0EA
:1049E00000722449C2610B7803F00802D0B200B90A
:1049F0007602012C0DD158203146FFF75DFE30BB09
:104A0000FE212846FFF72EFED0F1010438BF002416
:104A10001DE013F0060F03D0D7202146FFF74CFE10
:104A200059203146FFF748FE88B92846FC21FFF798
:104A300019FE28B1013C14F0FF0405F50075F4D10E
:104A40000020FD21FFF70EFE002808BF0124084BBF
:104A50004FF00071201C996118BF012070BD042027
:104A600070BD032070BD022070BD00BF06C00720CE
:104A700020C0092064C3072070B5144605460E46C1
:104A8000FFF764FE002C3CD0204B1878C1073AD4C5
:104A90001F494FF000721F4BCA61187800F00802DE
:104AA000D1B201B97602012C0ED151203146FFF767
:104AB00003FEF0B928464FF40071FFF78DFDD0F1E9
:104AC000010438BF002414E052203146FFF7F4FD02
:104AD00078B928464FF40071FFF77EFD28B1013CFC
:104AE00014F0FF0405F50075F3D14C200021FFF709
:104AF000E3FD074B4FF000709861201C18BF0120A8
:104B000070BD042070BD032070BD00BF06C007202B
:104B100020C0092064C3072008B5FFF717FE014B2A
:104B2000187808BD06C007202DE9F341FFF70EFEF7
:104B3000554B1A7802F00200C1B2002940F0A08063
:104B40000120FFF7F9FC0A244FF0FF30013CFFF78A
:104B50000BFD14F0FF04F7D14C4B4FF000764020D2
:104B6000DE612146FFF7A8FD012801D0002674E090
:104B7000FDF782F94FF4D57100F57A774820FFF7F9
:104B80009BFD012841D14FF0FF30FFF7EDFC01AA5A
:104B900010550134042CF6D19DF806000128E5D10A
:104BA0009DF80710AA29E1D1FDF766F93C460025DA
:104BB000A94208BFA04206D3FDF75EF9A94208BF8B
:104BC000A042D3D207E0E9204FF08041FFF774FD07
:104BD0000028E9D1F0E77A200021FFF76DFD0028D9
:104BE000C4D104464FF0FF30FFF7BEFC01AE305594
:104BF0000134042CF6D19DF8043003F04002D0B209
:104C000000280CBF04260C2627E0E9202146FFF7E8
:104C100053FD01288CBF012602268CBF4FF04108AE
:104C20004FF0E908FDF728F93C460025A94208BFE6
:104C3000A0420BD3FDF720F9A94208BFA0420CD334
:104C400050204FF40071FFF737FD06E04046002189
:104C5000FFF732FD0028E5D1ECE70D490B4B4FF093
:104C600000720E709A6146B10748017801F0FE02A9
:104C700002701820FFF760FC01E0FFF79BFC024B7D
:104C80001878BDE8FC8100BF06C0072020C00920BD
:104C900064C30720F8B51A4B05461C880E46B4F5C8
:104CA000007F174602D1084611460AE0B4F5807F1E
:104CB00009D1084611462246A84706F5807007F537
:104CC0008071224619E0B4F5047F07D122F4FF7207
:104CD000084622F001014FF400720EE0B4F5847F23
:104CE0000CD1170A08464FF480727902A847791C44
:104CF00006F5807049024FF48072A847F8BD00BFE6
:104D000066C3072010B5034600295CDD93F9004017
:104D10002D4A0729946030DD93F9014008399460E9
:104D200093F90240946093F90340946093F904402E
:104D3000946093F90540946093F90640946093F968
:104D4000074008339460204A94696407FBD594684F
:104D5000047094684470946884709268C2701A4AAF
:104D6000D468E406FBD49468047194684471946830
:104D700084719268C2710830C6E7032918DD93F97F
:104D800001400439946093F90240946093F9034020
:104D9000043394600C4AD468E406FBD4946804702D
:104DA00094684470946884709268C2700430ABE771
:104DB00001330139D46814F0100FFBD1024A926814
:104DC00000F8012BA0E710BD0000034007B58DF8E7
:104DD0000400080A0B0C8DF806008DF8071001A8D6
:104DE00004218DF80530FFF78DFF0EBDF7B50D4C92
:104DF00006464025080CE5610B0A17468DF80500AC
:104E000003228DF8071001A804218DF804208DF8E5
:104E10000630FFF777FF30463946002203F05EFD8B
:104E2000A561FEBD00C009200D4B0E4840226FF069
:104E30002801DA618160C268D106FCD4094B9B6805
:104E400008484FF0FF318160C268D206FCD4054BA0
:104E500098680306F4D5024A40219161C0B27047B8
:104E600000C0092000000340F7B5FFF7DDFF07464B
:104E70001B481C4D81781C4C00234026028823804F
:104E800001A8EE618DF806100321ADF80420FFF7AC
:104E900039FF9DF805009DF806301F28AE6117D137
:104EA000A3F12502022A13D81049252B0B7007F015
:104EB000010006D100280CBF4FF484734FF48073B7
:104EC00005E000280CBF4FF404734FF400732380F7
:104ED000054A1188D1F1010038BF0020FEBD00BF96
:104EE0003E4B020000C0092066C3072068C30720AC
:104EF0002DE9F041064617464FEA4128FFF794FF97
:104F000034460025C6EB0802BD42224407DA21469A
:104F10000448FFF7BFFE04F500740135F2E70020F6
:104F2000BDE8F081ED4D01002DE9F0410646174640
:104F30004FEA412804460025C6EB0802BD42224440
:104F400007DA21460448FFF7A5FE04F50074013591
:104F5000F2E70020BDE8F0814950010008B50728BC
:104F60001CD8DFE800F00407131719191919FFF707
:104F70005BFF11E00A4B18782538C3B2032B9ABFA8
:104F8000084A52F8233000235B0A04E04FF4007013
:104F9000088001E001230B60002008BD042008BD4B
:104FA00068C30720444B020030B591B003466C46FD
:104FB00000F1400518685968224603C20833AB4225
:104FC0001446F7D1064D40249B200021EC61FFF7E9
:104FD000FDFE68462146FFF795FEAC6111B030BD7D
:104FE00000C0092070B5074D4024064600217720F7
:104FF000EC61FFF7EBFE30462146FFF783FEAC6124
:1050000070BD00BF00C00920084B188830F01F0099
:105010000BD007490B78253BD9B203299ABF054A23
:1050200052F821100021B1FBF0F0704766C3072051
:1050300068C30720444B0200024B1878003018BFA9
:105040000120704766C307202DE9F7434FF0FF3377
:105050000D46904601938146FFF7E6FEFFF7ECFF11
:105060000446A0B1164E40271648F7610188032078
:10507000B1F5847F14BF4FF400714FF48071294360
:10508000FFF7A4FE01A80421FFF73CFEB7610C4E18
:105090004022F26182202946FFF798FE48464146A9
:1050A000012203F01BFC3CB1019B02A8591C40F8F3
:1050B000041D0421FFF726FE4020B061BDE8FE83F9
:1050C00000C0092066C30720F7B5114B07461E88AC
:1050D0004FF0FF30B6F5847F14BF4FF400764FF4E5
:1050E00080760190FFF7A8FF60B10A4C40250320AD
:1050F00046EA4721E561FFF769FE01A80421FFF7B1
:1051000001FEA5610198B0F1FF3F08BF0020FEBD80
:1051100066C3072000C009201FB501A803F00CFBDF
:105120009DF809209DF8083002F00F019DF8062037
:1051300003F01F004B0543EA004002F01F0140EA64
:10514000C1239DF805009DF8041000F03F0243EADA
:105150004210BDF80A20C1F344035106184301F17F
:105160000843184305B000BD10B50023D41A032C22
:1051700003D9CC58C4500433F8E702F0030422F0FA
:105180000302801800238A18A34203D0D15CC154C3
:105190000133F9E710BD8218904202D000F8011BDC
:1051A000FAE7704770B5164B0024224653F8085CA6
:1051B00065B10668B5420AD153F8046C8568AE4201
:1051C00005D11E88C588AE4201D105E00124013217
:1051D0000C33032AEAD10CE049B90A490C2000FB40
:1051E00002135A89B2F5807F01D0002070BD1020D3
:1051F00070BD002CF9D10229F7D0122070BD00BF7C
:1052000074C307206CC3072070B51F4A06680023CB
:1052100052F8084CB44208D152F8045C8468A542A4
:1052200003D11588C488A54210D001330C32032B5A
:10523000EED1164A1368F3B90C255D435419565143
:105240008268C08862600022208162810F4A0C203F
:1052500000FB0322508929B108B1002070BD4FF432
:10526000807201E0411C8AB208490C2000FB031047
:105270004281581C70BDD36823B19369002BECD1D7
:105280000223D9E70123D7E774C307206CC30720A3
:105290000138022813D80C490C2202FB00135B8949
:1052A000B3F5807F03D01BB1013B9BB200E000232C
:1052B000504309184B8123B9034A135001E00220DF
:1052C00070470020704700BF6CC30720002310B553
:1052D000044618464208E15C42EAC0100133421815
:1052E0000B2B02F0FF00F5D110BD0368024613B985
:1052F0004FF0FF30704793F900003038082808D885
:1053000093F901103A2904D102330128136001DD19
:10531000EEE700207047F8B503690C4601F109017A
:1053200063B3436900229D5C01326EB2202E1BD014
:10533000052E08BFE525092A02D12E2701F8017B99
:10534000EEB2A6F14107192F0CD81F7B082A94BF93
:105350004FF0080C4FF0100C1CEA070F1CBF06F1B1
:105360002005EDB201F8015B0B2ADCD1DD7A257254
:105370001E8BDA69A680DB8A2260E38000250D702F
:10538000A669EEB1016909B9002517E0E269002AB2
:10539000FAD0818C4FF6FF739942F5D0076A37F83F
:1053A000150058B10021FEF7FFFF0028ECD0E2699C
:1053B000511E8D42E8D270550135F0E7002070553E
:1053C000F8BDF8B504460079F8B1256B04F134074F
:1053D000607839462A460123FFF778F8A0B9636A56
:1053E0002071E069EA1A824201D30020F8BDE67814
:1053F000012EFAD9E16960786D182A4639460123F1
:10540000FFF764F8013EF3E70120F8BDF8B5044664
:10541000FFF7D7FF05466DBB2378032B22D16679B2
:10542000012E1FD104F13407384629464FF400728B
:10543000FFF7B1FE10494AF6552061630F4A216A11
:105440006369A4F832022069C4F818224A1CC4F81F
:105450001C32C4F820022263607839463346FFF7D5
:1054600035F86571002160780A46FFF74BF8003087
:1054700018BF0120F8BD00BF5252614172724161F4
:1054800010B50446A8B103689BB11A788AB1D988CF
:10549000808881420DD1D868FEF7C0FF58B12368DB
:1054A0005878FEF7F0FF10F0010F0CBF002003202A
:1054B00010BD092010BD0F2010BD38B5036B044688
:1054C00099420D460CD0FFF77CFF58B9607804F183
:1054D00034012A460123FEF7DDFF18B9256338BDE4
:1054E000002038BD012038BD00234FF0FF3210B539
:1054F000037102630446FFF7E0FFA0B9B4F832126B
:105500004AF65523994210D1D4F86A20084B22F06C
:105510007F4199420AD0D4F8860020F07F42D01A09
:1055200018BF012010BD032010BD022010BD00BF18
:105530004641540050B10C2908D00B2906D0092946
:1055400004D00F2902D0C068FEF77BBF704700006F
:105550002DE9FF4100230360074608461546FFF783
:10556000C4FE061EC0F2FD80854850F82640002C7F
:1055700000F0F980E068FEF751FF002800F0F580A8
:105580003C60217879B16078FEF77DFFC3070AD4CB
:10559000002D00F0E48000F00402D3B2002B14BF11
:1055A0000A200020E8E00022F0B222706070FEF7CE
:1055B00057FFC10700F1DB802DB100F00403D8B222
:1055C000002840F0D68000212046FFF78DFF0128FB
:1055D0001CD1002204EB820595F8F61105F5F97649
:1055E00001B1B1684DF802100432102AF2D1002640
:1055F0005DF806502DB120462946FFF775FF08B922
:105600000BE002200436102EF2D100E00025032822
:1056100000F0B18008B10D20AEE0B4F83F30B3F532
:10562000007FF8D1B4F84A3003B9A36D94F8446010
:10563000E361701E0128E670EDD894F84100A07077
:105640000028E8D0411E0142E5D1B4F845100A0710
:105650002181E0D1B4F8472002B9626DB4F842C0AC
:10566000BCF1000FD7D006FB03F80CEB1117474431
:10567000BA42D0D3D21BB2FBF0F2002ACBD040F614
:10568000F576B24206D94FF6F57082428CBF0326FA
:10569000022600E00126023205EB0C007F19032EE2
:1056A000A26125626062E76205D10029B3D1206E54
:1056B0009100A0620EE00029ADD008EB0001022E9F
:1056C000A16201D1510005E00320504302F0010224
:1056D00002EB500101F2FF12B3EB522F9BD34FF0BC
:1056E000FF338021032E6361236161711ED1B4F801
:1056F000640001281AD12046691CFFF7DEFEA8B914
:10570000B4F832224AF655239A4260710ED1616B89
:105710001C4881420AD1D4F818321B4A934205D161
:10572000D4F81C12D4F8200261612061174A267057
:105730001388591C164B88B210801A68E080A24268
:1057400001D100211960D868A04202D1104A00217D
:10575000D1609B69A34202D10D49002088610020DD
:105760000AE00B2008E00C2006E00F2004E00320F4
:1057700002E00A2000E0012004B0BDE8F08100BF93
:1057800090C3072052526141727241616AC307207F
:105790006CC30720836902399A1E914204D2827831
:1057A000C06A02FB01007047002070470129F8B56C
:1057B00004460D4648D98369994245D201780229A9
:1057C00027D0032930D001293BD1426A05EB550689
:1057D00002EB5621FFF771FE002832D1636AF00513
:1057E000013604EBD05703EB5621204697F834706E
:1057F000FFF763FE28BBF60504EBD65494F834108B
:10580000EA0747EA012001D50009F8BD0205100D9D
:10581000F8BD426A02EB1521FFF74FFE88B92D064D
:1058200004EBD554A08EF8BD436A03EBD511FFF706
:1058300044FE30B96D0604EBD554616B21F0704025
:10584000F8BD4FF0FF30F8BD0120F8BD70B504463B
:105850000D46E1808168012901D1022070BD0368F5
:105860009A699142F9D271B91878032801D1996ADD
:1058700049B919890020A942E060EED99B6A03EB7F
:105880001512226119E09E783601B5420ED32068C8
:10589000FFF78CFF0146013018D00129DDD92368BC
:1058A0009A699142D9D2AD1BADB2EEE7E1602068B2
:1058B000FFF770FF00EB15112161206805F00F055F
:1058C00000EB451134316161002070BD012070BDD5
:1058D0000129F8B504460D4616465ED983699942FA
:1058E0005BD20178022939D0032942D0012950D155
:1058F000426A05EB550702EB5721FFF7DEFD002852
:1059000048D1F805C20D15F00105F3B207D0A11872
:1059100091F8340000F00F0141EA0313DBB2616A31
:105920000120A2180137207182F83430204601EBA3
:105930005721FFF7C2FD68BBFF05FA0D15B1C6F38D
:10594000071607E0A31893F83410C6F3032621F0D6
:105950000F073E43A71887F834601BE0426A02EB4A
:105960001521FFF7AAFDA8B92D0604EBD555AE8683
:1059700010E0426A02EBD511FFF79FFD50B96D06AA
:1059800004EBD5556B6B03F070410E436E633035FD
:1059900000E0022001232371F8BD0220F8BDF8B514
:1059A00004460F4631B906696EB18069864228BF48
:1059B000012609E0FFF7FAFE01283DD9A3699842C4
:1059C0003BD33E4600E001263546A16901358D42B4
:1059D00004D3012E01D80020F8BD02252046294617
:1059E000FFF7E4FE48B1411C02D14FF0FF30F8BD93
:1059F000012821D0B542E8D1EDE7204629466FF0D5
:105A00007042FFF765FFA8B957B9636925615A1C51
:105A10000ED060795A1E40F001016261617107E0A9
:105A2000204639462A46FFF753FF0028EDD001E013
:105A30002846F8BD0128D8D00120F8BD2DE9F8434B
:105A4000C6880446701C86B20F4616B90420BDE80D
:105A5000F8832369002BF9D016F00F085AD1591C8E
:105A60002161E168206819B90189B142EED951E09C
:105A70008278531E13EA16124CD1FFF797FE0128C5
:105A8000054602D80220BDE8F883431C02D101205C
:105A9000BDE8F883206881698D4235D3002FD5D0C9
:105AA000E168FFF77CFF054600283CD00128E9D0DB
:105AB0000130ECD02068FFF784FC07460028E6D1CF
:105AC0002068394634304FF40072FFF764FBD4F895
:105AD000009029464846FFF75DFEC9F8300020686F
